{
	"contracts/Halal.sol": {
		"Halal": {
			"abi": [
				{
					"anonymous": false,
					"inputs": [
						{
							"indexed": false,
							"internalType": "string",
							"name": "status",
							"type": "string"
						},
						{
							"indexed": false,
							"internalType": "bytes32",
							"name": "message",
							"type": "bytes32"
						}
					],
					"name": "success",
					"type": "event"
				},
				{
					"inputs": [
						{
							"internalType": "string",
							"name": "account_id",
							"type": "string"
						},
						{
							"internalType": "string",
							"name": "name",
							"type": "string"
						},
						{
							"internalType": "string",
							"name": "role",
							"type": "string"
						}
					],
					"name": "add_account",
					"outputs": [
						{
							"internalType": "bytes32",
							"name": "",
							"type": "bytes32"
						}
					],
					"stateMutability": "nonpayable",
					"type": "function"
				},
				{
					"inputs": [
						{
							"internalType": "string",
							"name": "umkm_id",
							"type": "string"
						},
						{
							"internalType": "string",
							"name": "cert_id",
							"type": "string"
						},
						{
							"internalType": "uint256",
							"name": "expired_at",
							"type": "uint256"
						}
					],
					"name": "add_certificate",
					"outputs": [
						{
							"internalType": "bytes32",
							"name": "",
							"type": "bytes32"
						}
					],
					"stateMutability": "nonpayable",
					"type": "function"
				},
				{
					"inputs": [
						{
							"internalType": "string",
							"name": "transaction_id",
							"type": "string"
						},
						{
							"internalType": "string",
							"name": "user_id",
							"type": "string"
						},
						{
							"internalType": "bytes",
							"name": "data",
							"type": "bytes"
						}
					],
					"name": "add_transaction",
					"outputs": [
						{
							"internalType": "bytes32",
							"name": "",
							"type": "bytes32"
						}
					],
					"stateMutability": "nonpayable",
					"type": "function"
				},
				{
					"inputs": [
						{
							"internalType": "string",
							"name": "account_id",
							"type": "string"
						}
					],
					"name": "get_account",
					"outputs": [
						{
							"components": [
								{
									"internalType": "string",
									"name": "account_id",
									"type": "string"
								},
								{
									"internalType": "string",
									"name": "name",
									"type": "string"
								},
								{
									"internalType": "string",
									"name": "role",
									"type": "string"
								},
								{
									"internalType": "uint256",
									"name": "created_at",
									"type": "uint256"
								}
							],
							"internalType": "struct Halal.accountData",
							"name": "",
							"type": "tuple"
						}
					],
					"stateMutability": "view",
					"type": "function"
				},
				{
					"inputs": [
						{
							"internalType": "string",
							"name": "umkm_id",
							"type": "string"
						}
					],
					"name": "get_certificate",
					"outputs": [
						{
							"components": [
								{
									"internalType": "string",
									"name": "umkm_id",
									"type": "string"
								},
								{
									"internalType": "string",
									"name": "certificate_id",
									"type": "string"
								},
								{
									"internalType": "uint256",
									"name": "created_at",
									"type": "uint256"
								},
								{
									"internalType": "uint256",
									"name": "expired_at",
									"type": "uint256"
								}
							],
							"internalType": "struct Halal.certificate",
							"name": "",
							"type": "tuple"
						}
					],
					"stateMutability": "view",
					"type": "function"
				},
				{
					"inputs": [
						{
							"internalType": "string",
							"name": "transaction_id",
							"type": "string"
						}
					],
					"name": "get_transaction",
					"outputs": [
						{
							"components": [
								{
									"internalType": "string",
									"name": "user_id",
									"type": "string"
								},
								{
									"internalType": "bytes",
									"name": "data",
									"type": "bytes"
								}
							],
							"internalType": "struct Halal.transaction",
							"name": "",
							"type": "tuple"
						}
					],
					"stateMutability": "view",
					"type": "function"
				}
			],
			"devdoc": {
				"kind": "dev",
				"methods": {},
				"version": 1
			},
			"evm": {
				"assembly": "    /* \"contracts/Halal.sol\":62:2842  contract Halal{... */\n  mstore(0x40, 0x80)\n  callvalue\n  dup1\n  iszero\n  tag_1\n  jumpi\n  0x00\n  dup1\n  revert\ntag_1:\n  pop\n  dataSize(sub_0)\n  dup1\n  dataOffset(sub_0)\n  0x00\n  codecopy\n  0x00\n  return\nstop\n\nsub_0: assembly {\n        /* \"contracts/Halal.sol\":62:2842  contract Halal{... */\n      mstore(0x40, 0x80)\n      callvalue\n      dup1\n      iszero\n      tag_1\n      jumpi\n      0x00\n      dup1\n      revert\n    tag_1:\n      pop\n      jumpi(tag_2, lt(calldatasize, 0x04))\n      shr(0xe0, calldataload(0x00))\n      dup1\n      0x174ba7ff\n      eq\n      tag_3\n      jumpi\n      dup1\n      0x5b62132d\n      eq\n      tag_4\n      jumpi\n      dup1\n      0xb24c908a\n      eq\n      tag_5\n      jumpi\n      dup1\n      0xb8428403\n      eq\n      tag_6\n      jumpi\n      dup1\n      0xc3efbe38\n      eq\n      tag_7\n      jumpi\n      dup1\n      0xca5e208f\n      eq\n      tag_8\n      jumpi\n    tag_2:\n      0x00\n      dup1\n      revert\n        /* \"contracts/Halal.sol\":1415:1605  function get_account(string memory account_id) public view returns(accountData memory){... */\n    tag_3:\n      tag_9\n      0x04\n      dup1\n      calldatasize\n      sub\n      dup2\n      add\n      swap1\n      tag_10\n      swap2\n      swap1\n      tag_11\n      jump\t// in\n    tag_10:\n      tag_12\n      jump\t// in\n    tag_9:\n      mload(0x40)\n      tag_13\n      swap2\n      swap1\n      tag_14\n      jump\t// in\n    tag_13:\n      mload(0x40)\n      dup1\n      swap2\n      sub\n      swap1\n      return\n        /* \"contracts/Halal.sol\":1611:2012  function add_transaction(... */\n    tag_4:\n      tag_15\n      0x04\n      dup1\n      calldatasize\n      sub\n      dup2\n      add\n      swap1\n      tag_16\n      swap2\n      swap1\n      tag_17\n      jump\t// in\n    tag_16:\n      tag_18\n      jump\t// in\n    tag_15:\n      mload(0x40)\n      tag_19\n      swap2\n      swap1\n      tag_20\n      jump\t// in\n    tag_19:\n      mload(0x40)\n      dup1\n      swap2\n      sub\n      swap1\n      return\n        /* \"contracts/Halal.sol\":881:1409  function add_account(... */\n    tag_5:\n      tag_21\n      0x04\n      dup1\n      calldatasize\n      sub\n      dup2\n      add\n      swap1\n      tag_22\n      swap2\n      swap1\n      tag_23\n      jump\t// in\n    tag_22:\n      tag_24\n      jump\t// in\n    tag_21:\n      mload(0x40)\n      tag_25\n      swap2\n      swap1\n      tag_20\n      jump\t// in\n    tag_25:\n      mload(0x40)\n      dup1\n      swap2\n      sub\n      swap1\n      return\n        /* \"contracts/Halal.sol\":2684:2839  function get_certificate(string memory umkm_id) external view returns(certificate memory){... */\n    tag_6:\n      tag_26\n      0x04\n      dup1\n      calldatasize\n      sub\n      dup2\n      add\n      swap1\n      tag_27\n      swap2\n      swap1\n      tag_11\n      jump\t// in\n    tag_27:\n      tag_28\n      jump\t// in\n    tag_26:\n      mload(0x40)\n      tag_29\n      swap2\n      swap1\n      tag_30\n      jump\t// in\n    tag_29:\n      mload(0x40)\n      dup1\n      swap2\n      sub\n      swap1\n      return\n        /* \"contracts/Halal.sol\":2233:2678  function add_certificate(string memory umkm_id, string memory cert_id, uint expired_at) external returns(bytes32){... */\n    tag_7:\n      tag_31\n      0x04\n      dup1\n      calldatasize\n      sub\n      dup2\n      add\n      swap1\n      tag_32\n      swap2\n      swap1\n      tag_33\n      jump\t// in\n    tag_32:\n      tag_34\n      jump\t// in\n    tag_31:\n      mload(0x40)\n      tag_35\n      swap2\n      swap1\n      tag_20\n      jump\t// in\n    tag_35:\n      mload(0x40)\n      dup1\n      swap2\n      sub\n      swap1\n      return\n        /* \"contracts/Halal.sol\":2018:2227  function get_transaction(string memory transaction_id) external view returns(transaction memory){... */\n    tag_8:\n      tag_36\n      0x04\n      dup1\n      calldatasize\n      sub\n      dup2\n      add\n      swap1\n      tag_37\n      swap2\n      swap1\n      tag_11\n      jump\t// in\n    tag_37:\n      tag_38\n      jump\t// in\n    tag_36:\n      mload(0x40)\n      tag_39\n      swap2\n      swap1\n      tag_40\n      jump\t// in\n    tag_39:\n      mload(0x40)\n      dup1\n      swap2\n      sub\n      swap1\n      return\n        /* \"contracts/Halal.sol\":1415:1605  function get_account(string memory account_id) public view returns(accountData memory){... */\n    tag_12:\n        /* \"contracts/Halal.sol\":1482:1500  accountData memory */\n      tag_41\n      tag_42\n      jump\t// in\n    tag_41:\n        /* \"contracts/Halal.sol\":1511:1521  bytes32 id */\n      0x00\n        /* \"contracts/Halal.sol\":1551:1561  account_id */\n      dup3\n        /* \"contracts/Halal.sol\":1534:1562  abi.encodePacked(account_id) */\n      add(0x20, mload(0x40))\n      tag_44\n      swap2\n      swap1\n      tag_45\n      jump\t// in\n    tag_44:\n      mload(0x40)\n      0x20\n      dup2\n      dup4\n      sub\n      sub\n      dup2\n      mstore\n      swap1\n      0x40\n      mstore\n        /* \"contracts/Halal.sol\":1524:1563  keccak256(abi.encodePacked(account_id)) */\n      dup1\n      mload\n      swap1\n      0x20\n      add\n      keccak256\n        /* \"contracts/Halal.sol\":1511:1563  bytes32 id = keccak256(abi.encodePacked(account_id)) */\n      swap1\n      pop\n        /* \"contracts/Halal.sol\":1580:1594  mappingAccount */\n      0x00\n        /* \"contracts/Halal.sol\":1580:1598  mappingAccount[id] */\n      dup1\n        /* \"contracts/Halal.sol\":1595:1597  id */\n      dup3\n        /* \"contracts/Halal.sol\":1580:1598  mappingAccount[id] */\n      dup2\n      mstore\n      0x20\n      add\n      swap1\n      dup2\n      mstore\n      0x20\n      add\n      0x00\n      keccak256\n        /* \"contracts/Halal.sol\":1573:1598  return mappingAccount[id] */\n      mload(0x40)\n      dup1\n      0x80\n      add\n      0x40\n      mstore\n      swap1\n      dup2\n      0x00\n      dup3\n      add\n      dup1\n      sload\n      tag_46\n      swap1\n      tag_47\n      jump\t// in\n    tag_46:\n      dup1\n      0x1f\n      add\n      0x20\n      dup1\n      swap2\n      div\n      mul\n      0x20\n      add\n      mload(0x40)\n      swap1\n      dup2\n      add\n      0x40\n      mstore\n      dup1\n      swap3\n      swap2\n      swap1\n      dup2\n      dup2\n      mstore\n      0x20\n      add\n      dup3\n      dup1\n      sload\n      tag_48\n      swap1\n      tag_47\n      jump\t// in\n    tag_48:\n      dup1\n      iszero\n      tag_49\n      jumpi\n      dup1\n      0x1f\n      lt\n      tag_50\n      jumpi\n      0x0100\n      dup1\n      dup4\n      sload\n      div\n      mul\n      dup4\n      mstore\n      swap2\n      0x20\n      add\n      swap2\n      jump(tag_49)\n    tag_50:\n      dup3\n      add\n      swap2\n      swap1\n      0x00\n      mstore\n      keccak256(0x00, 0x20)\n      swap1\n    tag_51:\n      dup2\n      sload\n      dup2\n      mstore\n      swap1\n      0x01\n      add\n      swap1\n      0x20\n      add\n      dup1\n      dup4\n      gt\n      tag_51\n      jumpi\n      dup3\n      swap1\n      sub\n      0x1f\n      and\n      dup3\n      add\n      swap2\n    tag_49:\n      pop\n      pop\n      pop\n      pop\n      pop\n      dup2\n      mstore\n      0x20\n      add\n      0x01\n      dup3\n      add\n      dup1\n      sload\n      tag_52\n      swap1\n      tag_47\n      jump\t// in\n    tag_52:\n      dup1\n      0x1f\n      add\n      0x20\n      dup1\n      swap2\n      div\n      mul\n      0x20\n      add\n      mload(0x40)\n      swap1\n      dup2\n      add\n      0x40\n      mstore\n      dup1\n      swap3\n      swap2\n      swap1\n      dup2\n      dup2\n      mstore\n      0x20\n      add\n      dup3\n      dup1\n      sload\n      tag_53\n      swap1\n      tag_47\n      jump\t// in\n    tag_53:\n      dup1\n      iszero\n      tag_54\n      jumpi\n      dup1\n      0x1f\n      lt\n      tag_55\n      jumpi\n      0x0100\n      dup1\n      dup4\n      sload\n      div\n      mul\n      dup4\n      mstore\n      swap2\n      0x20\n      add\n      swap2\n      jump(tag_54)\n    tag_55:\n      dup3\n      add\n      swap2\n      swap1\n      0x00\n      mstore\n      keccak256(0x00, 0x20)\n      swap1\n    tag_56:\n      dup2\n      sload\n      dup2\n      mstore\n      swap1\n      0x01\n      add\n      swap1\n      0x20\n      add\n      dup1\n      dup4\n      gt\n      tag_56\n      jumpi\n      dup3\n      swap1\n      sub\n      0x1f\n      and\n      dup3\n      add\n      swap2\n    tag_54:\n      pop\n      pop\n      pop\n      pop\n      pop\n      dup2\n      mstore\n      0x20\n      add\n      0x02\n      dup3\n      add\n      dup1\n      sload\n      tag_57\n      swap1\n      tag_47\n      jump\t// in\n    tag_57:\n      dup1\n      0x1f\n      add\n      0x20\n      dup1\n      swap2\n      div\n      mul\n      0x20\n      add\n      mload(0x40)\n      swap1\n      dup2\n      add\n      0x40\n      mstore\n      dup1\n      swap3\n      swap2\n      swap1\n      dup2\n      dup2\n      mstore\n      0x20\n      add\n      dup3\n      dup1\n      sload\n      tag_58\n      swap1\n      tag_47\n      jump\t// in\n    tag_58:\n      dup1\n      iszero\n      tag_59\n      jumpi\n      dup1\n      0x1f\n      lt\n      tag_60\n      jumpi\n      0x0100\n      dup1\n      dup4\n      sload\n      div\n      mul\n      dup4\n      mstore\n      swap2\n      0x20\n      add\n      swap2\n      jump(tag_59)\n    tag_60:\n      dup3\n      add\n      swap2\n      swap1\n      0x00\n      mstore\n      keccak256(0x00, 0x20)\n      swap1\n    tag_61:\n      dup2\n      sload\n      dup2\n      mstore\n      swap1\n      0x01\n      add\n      swap1\n      0x20\n      add\n      dup1\n      dup4\n      gt\n      tag_61\n      jumpi\n      dup3\n      swap1\n      sub\n      0x1f\n      and\n      dup3\n      add\n      swap2\n    tag_59:\n      pop\n      pop\n      pop\n      pop\n      pop\n      dup2\n      mstore\n      0x20\n      add\n      0x03\n      dup3\n      add\n      sload\n      dup2\n      mstore\n      pop\n      pop\n      swap2\n      pop\n      pop\n        /* \"contracts/Halal.sol\":1415:1605  function get_account(string memory account_id) public view returns(accountData memory){... */\n      swap2\n      swap1\n      pop\n      jump\t// out\n        /* \"contracts/Halal.sol\":1611:2012  function add_transaction(... */\n    tag_18:\n        /* \"contracts/Halal.sol\":1755:1762  bytes32 */\n      0x00\n        /* \"contracts/Halal.sol\":1774:1784  bytes32 id */\n      dup1\n        /* \"contracts/Halal.sol\":1814:1828  transaction_id */\n      dup5\n        /* \"contracts/Halal.sol\":1797:1829  abi.encodePacked(transaction_id) */\n      add(0x20, mload(0x40))\n      tag_63\n      swap2\n      swap1\n      tag_45\n      jump\t// in\n    tag_63:\n      mload(0x40)\n      0x20\n      dup2\n      dup4\n      sub\n      sub\n      dup2\n      mstore\n      swap1\n      0x40\n      mstore\n        /* \"contracts/Halal.sol\":1787:1830  keccak256(abi.encodePacked(transaction_id)) */\n      dup1\n      mload\n      swap1\n      0x20\n      add\n      keccak256\n        /* \"contracts/Halal.sol\":1774:1830  bytes32 id = keccak256(abi.encodePacked(transaction_id)) */\n      swap1\n      pop\n        /* \"contracts/Halal.sol\":1840:1864  transaction memory trans */\n      0x00\n        /* \"contracts/Halal.sol\":1867:1885  mappingTransaction */\n      0x01\n        /* \"contracts/Halal.sol\":1867:1889  mappingTransaction[id] */\n      0x00\n        /* \"contracts/Halal.sol\":1886:1888  id */\n      dup4\n        /* \"contracts/Halal.sol\":1867:1889  mappingTransaction[id] */\n      dup2\n      mstore\n      0x20\n      add\n      swap1\n      dup2\n      mstore\n      0x20\n      add\n      0x00\n      keccak256\n        /* \"contracts/Halal.sol\":1840:1889  transaction memory trans = mappingTransaction[id] */\n      mload(0x40)\n      dup1\n      0x40\n      add\n      0x40\n      mstore\n      swap1\n      dup2\n      0x00\n      dup3\n      add\n      dup1\n      sload\n      tag_64\n      swap1\n      tag_47\n      jump\t// in\n    tag_64:\n      dup1\n      0x1f\n      add\n      0x20\n      dup1\n      swap2\n      div\n      mul\n      0x20\n      add\n      mload(0x40)\n      swap1\n      dup2\n      add\n      0x40\n      mstore\n      dup1\n      swap3\n      swap2\n      swap1\n      dup2\n      dup2\n      mstore\n      0x20\n      add\n      dup3\n      dup1\n      sload\n      tag_65\n      swap1\n      tag_47\n      jump\t// in\n    tag_65:\n      dup1\n      iszero\n      tag_66\n      jumpi\n      dup1\n      0x1f\n      lt\n      tag_67\n      jumpi\n      0x0100\n      dup1\n      dup4\n      sload\n      div\n      mul\n      dup4\n      mstore\n      swap2\n      0x20\n      add\n      swap2\n      jump(tag_66)\n    tag_67:\n      dup3\n      add\n      swap2\n      swap1\n      0x00\n      mstore\n      keccak256(0x00, 0x20)\n      swap1\n    tag_68:\n      dup2\n      sload\n      dup2\n      mstore\n      swap1\n      0x01\n      add\n      swap1\n      0x20\n      add\n      dup1\n      dup4\n      gt\n      tag_68\n      jumpi\n      dup3\n      swap1\n      sub\n      0x1f\n      and\n      dup3\n      add\n      swap2\n    tag_66:\n      pop\n      pop\n      pop\n      pop\n      pop\n      dup2\n      mstore\n      0x20\n      add\n      0x01\n      dup3\n      add\n      dup1\n      sload\n      tag_69\n      swap1\n      tag_47\n      jump\t// in\n    tag_69:\n      dup1\n      0x1f\n      add\n      0x20\n      dup1\n      swap2\n      div\n      mul\n      0x20\n      add\n      mload(0x40)\n      swap1\n      dup2\n      add\n      0x40\n      mstore\n      dup1\n      swap3\n      swap2\n      swap1\n      dup2\n      dup2\n      mstore\n      0x20\n      add\n      dup3\n      dup1\n      sload\n      tag_70\n      swap1\n      tag_47\n      jump\t// in\n    tag_70:\n      dup1\n      iszero\n      tag_71\n      jumpi\n      dup1\n      0x1f\n      lt\n      tag_72\n      jumpi\n      0x0100\n      dup1\n      dup4\n      sload\n      div\n      mul\n      dup4\n      mstore\n      swap2\n      0x20\n      add\n      swap2\n      jump(tag_71)\n    tag_72:\n      dup3\n      add\n      swap2\n      swap1\n      0x00\n      mstore\n      keccak256(0x00, 0x20)\n      swap1\n    tag_73:\n      dup2\n      sload\n      dup2\n      mstore\n      swap1\n      0x01\n      add\n      swap1\n      0x20\n      add\n      dup1\n      dup4\n      gt\n      tag_73\n      jumpi\n      dup3\n      swap1\n      sub\n      0x1f\n      and\n      dup3\n      add\n      swap2\n    tag_71:\n      pop\n      pop\n      pop\n      pop\n      pop\n      dup2\n      mstore\n      pop\n      pop\n      swap1\n      pop\n        /* \"contracts/Halal.sol\":1915:1922  user_id */\n      dup5\n        /* \"contracts/Halal.sol\":1899:1904  trans */\n      dup2\n        /* \"contracts/Halal.sol\":1899:1912  trans.user_id */\n      0x00\n      add\n        /* \"contracts/Halal.sol\":1899:1922  trans.user_id = user_id */\n      dup2\n      swap1\n      mstore\n      pop\n        /* \"contracts/Halal.sol\":1945:1949  data */\n      dup4\n        /* \"contracts/Halal.sol\":1932:1937  trans */\n      dup2\n        /* \"contracts/Halal.sol\":1932:1942  trans.data */\n      0x20\n      add\n        /* \"contracts/Halal.sol\":1932:1949  trans.data = data */\n      dup2\n      swap1\n      mstore\n      pop\n        /* \"contracts/Halal.sol\":1964:1986  success(\"success\", id) */\n      0xc8922d91fbabbe8df5d667708c678575856a856a2a465ebd9626a40ab6a16f5f\n        /* \"contracts/Halal.sol\":1983:1985  id */\n      dup3\n        /* \"contracts/Halal.sol\":1964:1986  success(\"success\", id) */\n      mload(0x40)\n      tag_74\n      swap2\n      swap1\n      tag_75\n      jump\t// in\n    tag_74:\n      mload(0x40)\n      dup1\n      swap2\n      sub\n      swap1\n      log1\n        /* \"contracts/Halal.sol\":2003:2005  id */\n      dup2\n        /* \"contracts/Halal.sol\":1996:2005  return id */\n      swap3\n      pop\n      pop\n      pop\n        /* \"contracts/Halal.sol\":1611:2012  function add_transaction(... */\n      swap4\n      swap3\n      pop\n      pop\n      pop\n      jump\t// out\n        /* \"contracts/Halal.sol\":881:1409  function add_account(... */\n    tag_24:\n        /* \"contracts/Halal.sol\":1015:1022  bytes32 */\n      0x00\n        /* \"contracts/Halal.sol\":1033:1043  bytes32 id */\n      dup1\n        /* \"contracts/Halal.sol\":1073:1083  account_id */\n      dup5\n        /* \"contracts/Halal.sol\":1056:1084  abi.encodePacked(account_id) */\n      add(0x20, mload(0x40))\n      tag_77\n      swap2\n      swap1\n      tag_45\n      jump\t// in\n    tag_77:\n      mload(0x40)\n      0x20\n      dup2\n      dup4\n      sub\n      sub\n      dup2\n      mstore\n      swap1\n      0x40\n      mstore\n        /* \"contracts/Halal.sol\":1046:1085  keccak256(abi.encodePacked(account_id)) */\n      dup1\n      mload\n      swap1\n      0x20\n      add\n      keccak256\n        /* \"contracts/Halal.sol\":1033:1085  bytes32 id = keccak256(abi.encodePacked(account_id)) */\n      swap1\n      pop\n        /* \"contracts/Halal.sol\":1103:1134  account_checker(id, account_id) */\n      tag_78\n        /* \"contracts/Halal.sol\":1119:1121  id */\n      dup2\n        /* \"contracts/Halal.sol\":1123:1133  account_id */\n      dup7\n        /* \"contracts/Halal.sol\":1103:1118  account_checker */\n      tag_79\n        /* \"contracts/Halal.sol\":1103:1134  account_checker(id, account_id) */\n      jump\t// in\n    tag_78:\n        /* \"contracts/Halal.sol\":1095:1163  require(account_checker(id, account_id), \"Account already existing\") */\n      tag_80\n      jumpi\n      mload(0x40)\n      0x08c379a000000000000000000000000000000000000000000000000000000000\n      dup2\n      mstore\n      0x04\n      add\n      tag_81\n      swap1\n      tag_82\n      jump\t// in\n    tag_81:\n      mload(0x40)\n      dup1\n      swap2\n      sub\n      swap1\n      revert\n    tag_80:\n        /* \"contracts/Halal.sol\":1173:1196  accountData storage acc */\n      0x00\n        /* \"contracts/Halal.sol\":1199:1213  mappingAccount */\n      dup1\n        /* \"contracts/Halal.sol\":1199:1217  mappingAccount[id] */\n      0x00\n        /* \"contracts/Halal.sol\":1214:1216  id */\n      dup4\n        /* \"contracts/Halal.sol\":1199:1217  mappingAccount[id] */\n      dup2\n      mstore\n      0x20\n      add\n      swap1\n      dup2\n      mstore\n      0x20\n      add\n      0x00\n      keccak256\n        /* \"contracts/Halal.sol\":1173:1217  accountData storage acc = mappingAccount[id] */\n      swap1\n      pop\n        /* \"contracts/Halal.sol\":1244:1254  account_id */\n      dup6\n        /* \"contracts/Halal.sol\":1227:1230  acc */\n      dup2\n        /* \"contracts/Halal.sol\":1227:1241  acc.account_id */\n      0x00\n      add\n        /* \"contracts/Halal.sol\":1227:1254  acc.account_id = account_id */\n      swap1\n      dup1\n      mload\n      swap1\n      0x20\n      add\n      swap1\n      tag_83\n      swap3\n      swap2\n      swap1\n      tag_84\n      jump\t// in\n    tag_83:\n      pop\n        /* \"contracts/Halal.sol\":1275:1279  name */\n      dup5\n        /* \"contracts/Halal.sol\":1264:1267  acc */\n      dup2\n        /* \"contracts/Halal.sol\":1264:1272  acc.name */\n      0x01\n      add\n        /* \"contracts/Halal.sol\":1264:1279  acc.name = name */\n      swap1\n      dup1\n      mload\n      swap1\n      0x20\n      add\n      swap1\n      tag_85\n      swap3\n      swap2\n      swap1\n      tag_84\n      jump\t// in\n    tag_85:\n      pop\n        /* \"contracts/Halal.sol\":1300:1304  role */\n      dup4\n        /* \"contracts/Halal.sol\":1289:1292  acc */\n      dup2\n        /* \"contracts/Halal.sol\":1289:1297  acc.role */\n      0x02\n      add\n        /* \"contracts/Halal.sol\":1289:1304  acc.role = role */\n      swap1\n      dup1\n      mload\n      swap1\n      0x20\n      add\n      swap1\n      tag_86\n      swap3\n      swap2\n      swap1\n      tag_84\n      jump\t// in\n    tag_86:\n      pop\n        /* \"contracts/Halal.sol\":1331:1346  block.timestamp */\n      timestamp\n        /* \"contracts/Halal.sol\":1314:1317  acc */\n      dup2\n        /* \"contracts/Halal.sol\":1314:1328  acc.created_at */\n      0x03\n      add\n        /* \"contracts/Halal.sol\":1314:1346  acc.created_at = block.timestamp */\n      dup2\n      swap1\n      sstore\n      pop\n        /* \"contracts/Halal.sol\":1361:1383  success(\"success\", id) */\n      0xc8922d91fbabbe8df5d667708c678575856a856a2a465ebd9626a40ab6a16f5f\n        /* \"contracts/Halal.sol\":1380:1382  id */\n      dup3\n        /* \"contracts/Halal.sol\":1361:1383  success(\"success\", id) */\n      mload(0x40)\n      tag_87\n      swap2\n      swap1\n      tag_75\n      jump\t// in\n    tag_87:\n      mload(0x40)\n      dup1\n      swap2\n      sub\n      swap1\n      log1\n        /* \"contracts/Halal.sol\":1400:1402  id */\n      dup2\n        /* \"contracts/Halal.sol\":1393:1402  return id */\n      swap3\n      pop\n      pop\n      pop\n        /* \"contracts/Halal.sol\":881:1409  function add_account(... */\n      swap4\n      swap3\n      pop\n      pop\n      pop\n      jump\t// out\n        /* \"contracts/Halal.sol\":2684:2839  function get_certificate(string memory umkm_id) external view returns(certificate memory){... */\n    tag_28:\n        /* \"contracts/Halal.sol\":2754:2772  certificate memory */\n      tag_88\n      tag_89\n      jump\t// in\n    tag_88:\n        /* \"contracts/Halal.sol\":2783:2793  bytes32 id */\n      0x00\n        /* \"contracts/Halal.sol\":2823:2830  umkm_id */\n      dup3\n        /* \"contracts/Halal.sol\":2806:2831  abi.encodePacked(umkm_id) */\n      add(0x20, mload(0x40))\n      tag_91\n      swap2\n      swap1\n      tag_45\n      jump\t// in\n    tag_91:\n      mload(0x40)\n      0x20\n      dup2\n      dup4\n      sub\n      sub\n      dup2\n      mstore\n      swap1\n      0x40\n      mstore\n        /* \"contracts/Halal.sol\":2796:2832  keccak256(abi.encodePacked(umkm_id)) */\n      dup1\n      mload\n      swap1\n      0x20\n      add\n      keccak256\n        /* \"contracts/Halal.sol\":2783:2832  bytes32 id = keccak256(abi.encodePacked(umkm_id)) */\n      swap1\n      pop\n        /* \"contracts/Halal.sol\":2773:2839  {... */\n      pop\n        /* \"contracts/Halal.sol\":2684:2839  function get_certificate(string memory umkm_id) external view returns(certificate memory){... */\n      swap2\n      swap1\n      pop\n      jump\t// out\n        /* \"contracts/Halal.sol\":2233:2678  function add_certificate(string memory umkm_id, string memory cert_id, uint expired_at) external returns(bytes32){... */\n    tag_34:\n        /* \"contracts/Halal.sol\":2338:2345  bytes32 */\n      0x00\n        /* \"contracts/Halal.sol\":2356:2366  bytes32 id */\n      dup1\n        /* \"contracts/Halal.sol\":2396:2403  umkm_id */\n      dup5\n        /* \"contracts/Halal.sol\":2379:2404  abi.encodePacked(umkm_id) */\n      add(0x20, mload(0x40))\n      tag_93\n      swap2\n      swap1\n      tag_45\n      jump\t// in\n    tag_93:\n      mload(0x40)\n      0x20\n      dup2\n      dup4\n      sub\n      sub\n      dup2\n      mstore\n      swap1\n      0x40\n      mstore\n        /* \"contracts/Halal.sol\":2369:2405  keccak256(abi.encodePacked(umkm_id)) */\n      dup1\n      mload\n      swap1\n      0x20\n      add\n      keccak256\n        /* \"contracts/Halal.sol\":2356:2405  bytes32 id = keccak256(abi.encodePacked(umkm_id)) */\n      swap1\n      pop\n        /* \"contracts/Halal.sol\":2415:2438  certificate memory cert */\n      0x00\n        /* \"contracts/Halal.sol\":2441:2459  mappingCertificate */\n      0x02\n        /* \"contracts/Halal.sol\":2441:2463  mappingCertificate[id] */\n      0x00\n        /* \"contracts/Halal.sol\":2460:2462  id */\n      dup4\n        /* \"contracts/Halal.sol\":2441:2463  mappingCertificate[id] */\n      dup2\n      mstore\n      0x20\n      add\n      swap1\n      dup2\n      mstore\n      0x20\n      add\n      0x00\n      keccak256\n        /* \"contracts/Halal.sol\":2415:2463  certificate memory cert = mappingCertificate[id] */\n      mload(0x40)\n      dup1\n      0x80\n      add\n      0x40\n      mstore\n      swap1\n      dup2\n      0x00\n      dup3\n      add\n      dup1\n      sload\n      tag_94\n      swap1\n      tag_47\n      jump\t// in\n    tag_94:\n      dup1\n      0x1f\n      add\n      0x20\n      dup1\n      swap2\n      div\n      mul\n      0x20\n      add\n      mload(0x40)\n      swap1\n      dup2\n      add\n      0x40\n      mstore\n      dup1\n      swap3\n      swap2\n      swap1\n      dup2\n      dup2\n      mstore\n      0x20\n      add\n      dup3\n      dup1\n      sload\n      tag_95\n      swap1\n      tag_47\n      jump\t// in\n    tag_95:\n      dup1\n      iszero\n      tag_96\n      jumpi\n      dup1\n      0x1f\n      lt\n      tag_97\n      jumpi\n      0x0100\n      dup1\n      dup4\n      sload\n      div\n      mul\n      dup4\n      mstore\n      swap2\n      0x20\n      add\n      swap2\n      jump(tag_96)\n    tag_97:\n      dup3\n      add\n      swap2\n      swap1\n      0x00\n      mstore\n      keccak256(0x00, 0x20)\n      swap1\n    tag_98:\n      dup2\n      sload\n      dup2\n      mstore\n      swap1\n      0x01\n      add\n      swap1\n      0x20\n      add\n      dup1\n      dup4\n      gt\n      tag_98\n      jumpi\n      dup3\n      swap1\n      sub\n      0x1f\n      and\n      dup3\n      add\n      swap2\n    tag_96:\n      pop\n      pop\n      pop\n      pop\n      pop\n      dup2\n      mstore\n      0x20\n      add\n      0x01\n      dup3\n      add\n      dup1\n      sload\n      tag_99\n      swap1\n      tag_47\n      jump\t// in\n    tag_99:\n      dup1\n      0x1f\n      add\n      0x20\n      dup1\n      swap2\n      div\n      mul\n      0x20\n      add\n      mload(0x40)\n      swap1\n      dup2\n      add\n      0x40\n      mstore\n      dup1\n      swap3\n      swap2\n      swap1\n      dup2\n      dup2\n      mstore\n      0x20\n      add\n      dup3\n      dup1\n      sload\n      tag_100\n      swap1\n      tag_47\n      jump\t// in\n    tag_100:\n      dup1\n      iszero\n      tag_101\n      jumpi\n      dup1\n      0x1f\n      lt\n      tag_102\n      jumpi\n      0x0100\n      dup1\n      dup4\n      sload\n      div\n      mul\n      dup4\n      mstore\n      swap2\n      0x20\n      add\n      swap2\n      jump(tag_101)\n    tag_102:\n      dup3\n      add\n      swap2\n      swap1\n      0x00\n      mstore\n      keccak256(0x00, 0x20)\n      swap1\n    tag_103:\n      dup2\n      sload\n      dup2\n      mstore\n      swap1\n      0x01\n      add\n      swap1\n      0x20\n      add\n      dup1\n      dup4\n      gt\n      tag_103\n      jumpi\n      dup3\n      swap1\n      sub\n      0x1f\n      and\n      dup3\n      add\n      swap2\n    tag_101:\n      pop\n      pop\n      pop\n      pop\n      pop\n      dup2\n      mstore\n      0x20\n      add\n      0x02\n      dup3\n      add\n      sload\n      dup2\n      mstore\n      0x20\n      add\n      0x03\n      dup3\n      add\n      sload\n      dup2\n      mstore\n      pop\n      pop\n      swap1\n      pop\n        /* \"contracts/Halal.sol\":2488:2495  umkm_id */\n      dup6\n        /* \"contracts/Halal.sol\":2473:2477  cert */\n      dup2\n        /* \"contracts/Halal.sol\":2473:2485  cert.umkm_id */\n      0x00\n      add\n        /* \"contracts/Halal.sol\":2473:2495  cert.umkm_id = umkm_id */\n      dup2\n      swap1\n      mstore\n      pop\n        /* \"contracts/Halal.sol\":2527:2534  cert_id */\n      dup5\n        /* \"contracts/Halal.sol\":2505:2509  cert */\n      dup2\n        /* \"contracts/Halal.sol\":2505:2524  cert.certificate_id */\n      0x20\n      add\n        /* \"contracts/Halal.sol\":2505:2534  cert.certificate_id = cert_id */\n      dup2\n      swap1\n      mstore\n      pop\n        /* \"contracts/Halal.sol\":2562:2577  block.timestamp */\n      timestamp\n        /* \"contracts/Halal.sol\":2544:2548  cert */\n      dup2\n        /* \"contracts/Halal.sol\":2544:2559  cert.created_at */\n      0x40\n      add\n        /* \"contracts/Halal.sol\":2544:2577  cert.created_at = block.timestamp */\n      dup2\n      dup2\n      mstore\n      pop\n      pop\n        /* \"contracts/Halal.sol\":2605:2615  expired_at */\n      dup4\n        /* \"contracts/Halal.sol\":2587:2591  cert */\n      dup2\n        /* \"contracts/Halal.sol\":2587:2602  cert.expired_at */\n      0x60\n      add\n        /* \"contracts/Halal.sol\":2587:2615  cert.expired_at = expired_at */\n      dup2\n      dup2\n      mstore\n      pop\n      pop\n        /* \"contracts/Halal.sol\":2630:2652  success(\"success\", id) */\n      0xc8922d91fbabbe8df5d667708c678575856a856a2a465ebd9626a40ab6a16f5f\n        /* \"contracts/Halal.sol\":2649:2651  id */\n      dup3\n        /* \"contracts/Halal.sol\":2630:2652  success(\"success\", id) */\n      mload(0x40)\n      tag_104\n      swap2\n      swap1\n      tag_75\n      jump\t// in\n    tag_104:\n      mload(0x40)\n      dup1\n      swap2\n      sub\n      swap1\n      log1\n        /* \"contracts/Halal.sol\":2669:2671  id */\n      dup2\n        /* \"contracts/Halal.sol\":2662:2671  return id */\n      swap3\n      pop\n      pop\n      pop\n        /* \"contracts/Halal.sol\":2233:2678  function add_certificate(string memory umkm_id, string memory cert_id, uint expired_at) external returns(bytes32){... */\n      swap4\n      swap3\n      pop\n      pop\n      pop\n      jump\t// out\n        /* \"contracts/Halal.sol\":2018:2227  function get_transaction(string memory transaction_id) external view returns(transaction memory){... */\n    tag_38:\n        /* \"contracts/Halal.sol\":2095:2113  transaction memory */\n      tag_105\n      tag_106\n      jump\t// in\n    tag_105:\n        /* \"contracts/Halal.sol\":2124:2134  bytes32 id */\n      0x00\n        /* \"contracts/Halal.sol\":2164:2178  transaction_id */\n      dup3\n        /* \"contracts/Halal.sol\":2147:2179  abi.encodePacked(transaction_id) */\n      add(0x20, mload(0x40))\n      tag_108\n      swap2\n      swap1\n      tag_45\n      jump\t// in\n    tag_108:\n      mload(0x40)\n      0x20\n      dup2\n      dup4\n      sub\n      sub\n      dup2\n      mstore\n      swap1\n      0x40\n      mstore\n        /* \"contracts/Halal.sol\":2137:2180  keccak256(abi.encodePacked(transaction_id)) */\n      dup1\n      mload\n      swap1\n      0x20\n      add\n      keccak256\n        /* \"contracts/Halal.sol\":2124:2180  bytes32 id = keccak256(abi.encodePacked(transaction_id)) */\n      swap1\n      pop\n        /* \"contracts/Halal.sol\":2197:2215  mappingTransaction */\n      0x01\n        /* \"contracts/Halal.sol\":2197:2219  mappingTransaction[id] */\n      0x00\n        /* \"contracts/Halal.sol\":2216:2218  id */\n      dup3\n        /* \"contracts/Halal.sol\":2197:2219  mappingTransaction[id] */\n      dup2\n      mstore\n      0x20\n      add\n      swap1\n      dup2\n      mstore\n      0x20\n      add\n      0x00\n      keccak256\n        /* \"contracts/Halal.sol\":2190:2219  return mappingTransaction[id] */\n      mload(0x40)\n      dup1\n      0x40\n      add\n      0x40\n      mstore\n      swap1\n      dup2\n      0x00\n      dup3\n      add\n      dup1\n      sload\n      tag_109\n      swap1\n      tag_47\n      jump\t// in\n    tag_109:\n      dup1\n      0x1f\n      add\n      0x20\n      dup1\n      swap2\n      div\n      mul\n      0x20\n      add\n      mload(0x40)\n      swap1\n      dup2\n      add\n      0x40\n      mstore\n      dup1\n      swap3\n      swap2\n      swap1\n      dup2\n      dup2\n      mstore\n      0x20\n      add\n      dup3\n      dup1\n      sload\n      tag_110\n      swap1\n      tag_47\n      jump\t// in\n    tag_110:\n      dup1\n      iszero\n      tag_111\n      jumpi\n      dup1\n      0x1f\n      lt\n      tag_112\n      jumpi\n      0x0100\n      dup1\n      dup4\n      sload\n      div\n      mul\n      dup4\n      mstore\n      swap2\n      0x20\n      add\n      swap2\n      jump(tag_111)\n    tag_112:\n      dup3\n      add\n      swap2\n      swap1\n      0x00\n      mstore\n      keccak256(0x00, 0x20)\n      swap1\n    tag_113:\n      dup2\n      sload\n      dup2\n      mstore\n      swap1\n      0x01\n      add\n      swap1\n      0x20\n      add\n      dup1\n      dup4\n      gt\n      tag_113\n      jumpi\n      dup3\n      swap1\n      sub\n      0x1f\n      and\n      dup3\n      add\n      swap2\n    tag_111:\n      pop\n      pop\n      pop\n      pop\n      pop\n      dup2\n      mstore\n      0x20\n      add\n      0x01\n      dup3\n      add\n      dup1\n      sload\n      tag_114\n      swap1\n      tag_47\n      jump\t// in\n    tag_114:\n      dup1\n      0x1f\n      add\n      0x20\n      dup1\n      swap2\n      div\n      mul\n      0x20\n      add\n      mload(0x40)\n      swap1\n      dup2\n      add\n      0x40\n      mstore\n      dup1\n      swap3\n      swap2\n      swap1\n      dup2\n      dup2\n      mstore\n      0x20\n      add\n      dup3\n      dup1\n      sload\n      tag_115\n      swap1\n      tag_47\n      jump\t// in\n    tag_115:\n      dup1\n      iszero\n      tag_116\n      jumpi\n      dup1\n      0x1f\n      lt\n      tag_117\n      jumpi\n      0x0100\n      dup1\n      dup4\n      sload\n      div\n      mul\n      dup4\n      mstore\n      swap2\n      0x20\n      add\n      swap2\n      jump(tag_116)\n    tag_117:\n      dup3\n      add\n      swap2\n      swap1\n      0x00\n      mstore\n      keccak256(0x00, 0x20)\n      swap1\n    tag_118:\n      dup2\n      sload\n      dup2\n      mstore\n      swap1\n      0x01\n      add\n      swap1\n      0x20\n      add\n      dup1\n      dup4\n      gt\n      tag_118\n      jumpi\n      dup3\n      swap1\n      sub\n      0x1f\n      and\n      dup3\n      add\n      swap2\n    tag_116:\n      pop\n      pop\n      pop\n      pop\n      pop\n      dup2\n      mstore\n      pop\n      pop\n      swap2\n      pop\n      pop\n        /* \"contracts/Halal.sol\":2018:2227  function get_transaction(string memory transaction_id) external view returns(transaction memory){... */\n      swap2\n      swap1\n      pop\n      jump\t// out\n        /* \"contracts/Halal.sol\":667:875  function account_checker(bytes32 id, string memory umkm_id) private view returns(bool){... */\n    tag_79:\n        /* \"contracts/Halal.sol\":748:752  bool */\n      0x00\n        /* \"contracts/Halal.sol\":859:866  umkm_id */\n      dup2\n        /* \"contracts/Halal.sol\":842:867  abi.encodePacked(umkm_id) */\n      add(0x20, mload(0x40))\n      tag_120\n      swap2\n      swap1\n      tag_45\n      jump\t// in\n    tag_120:\n      mload(0x40)\n      0x20\n      dup2\n      dup4\n      sub\n      sub\n      dup2\n      mstore\n      swap1\n      0x40\n      mstore\n        /* \"contracts/Halal.sol\":832:868  keccak256(abi.encodePacked(umkm_id)) */\n      dup1\n      mload\n      swap1\n      0x20\n      add\n      keccak256\n        /* \"contracts/Halal.sol\":797:811  mappingAccount */\n      0x00\n        /* \"contracts/Halal.sol\":797:815  mappingAccount[id] */\n      dup1\n        /* \"contracts/Halal.sol\":812:814  id */\n      dup6\n        /* \"contracts/Halal.sol\":797:815  mappingAccount[id] */\n      dup2\n      mstore\n      0x20\n      add\n      swap1\n      dup2\n      mstore\n      0x20\n      add\n      0x00\n      keccak256\n        /* \"contracts/Halal.sol\":797:826  mappingAccount[id].account_id */\n      0x00\n      add\n        /* \"contracts/Halal.sol\":780:827  abi.encodePacked(mappingAccount[id].account_id) */\n      add(0x20, mload(0x40))\n      tag_121\n      swap2\n      swap1\n      tag_122\n      jump\t// in\n    tag_121:\n      mload(0x40)\n      0x20\n      dup2\n      dup4\n      sub\n      sub\n      dup2\n      mstore\n      swap1\n      0x40\n      mstore\n        /* \"contracts/Halal.sol\":770:828  keccak256(abi.encodePacked(mappingAccount[id].account_id)) */\n      dup1\n      mload\n      swap1\n      0x20\n      add\n      keccak256\n        /* \"contracts/Halal.sol\":770:868  keccak256(abi.encodePacked(mappingAccount[id].account_id)) != keccak256(abi.encodePacked(umkm_id)) */\n      eq\n      iszero\n        /* \"contracts/Halal.sol\":763:868  return keccak256(abi.encodePacked(mappingAccount[id].account_id)) != keccak256(abi.encodePacked(umkm_id)) */\n      swap1\n      pop\n        /* \"contracts/Halal.sol\":667:875  function account_checker(bytes32 id, string memory umkm_id) private view returns(bool){... */\n      swap3\n      swap2\n      pop\n      pop\n      jump\t// out\n    tag_42:\n      mload(0x40)\n      dup1\n      0x80\n      add\n      0x40\n      mstore\n      dup1\n      0x60\n      dup2\n      mstore\n      0x20\n      add\n      0x60\n      dup2\n      mstore\n      0x20\n      add\n      0x60\n      dup2\n      mstore\n      0x20\n      add\n      0x00\n      dup2\n      mstore\n      pop\n      swap1\n      jump\t// out\n    tag_84:\n      dup3\n      dup1\n      sload\n      tag_123\n      swap1\n      tag_47\n      jump\t// in\n    tag_123:\n      swap1\n      0x00\n      mstore\n      keccak256(0x00, 0x20)\n      swap1\n      0x1f\n      add\n      0x20\n      swap1\n      div\n      dup2\n      add\n      swap3\n      dup3\n      tag_125\n      jumpi\n      0x00\n      dup6\n      sstore\n      jump(tag_124)\n    tag_125:\n      dup3\n      0x1f\n      lt\n      tag_126\n      jumpi\n      dup1\n      mload\n      not(0xff)\n      and\n      dup4\n      dup1\n      add\n      or\n      dup6\n      sstore\n      jump(tag_124)\n    tag_126:\n      dup3\n      dup1\n      add\n      0x01\n      add\n      dup6\n      sstore\n      dup3\n      iszero\n      tag_124\n      jumpi\n      swap2\n      dup3\n      add\n    tag_127:\n      dup3\n      dup2\n      gt\n      iszero\n      tag_128\n      jumpi\n      dup3\n      mload\n      dup3\n      sstore\n      swap2\n      0x20\n      add\n      swap2\n      swap1\n      0x01\n      add\n      swap1\n      jump(tag_127)\n    tag_128:\n    tag_124:\n      pop\n      swap1\n      pop\n      tag_129\n      swap2\n      swap1\n      tag_130\n      jump\t// in\n    tag_129:\n      pop\n      swap1\n      jump\t// out\n    tag_89:\n      mload(0x40)\n      dup1\n      0x80\n      add\n      0x40\n      mstore\n      dup1\n      0x60\n      dup2\n      mstore\n      0x20\n      add\n      0x60\n      dup2\n      mstore\n      0x20\n      add\n      0x00\n      dup2\n      mstore\n      0x20\n      add\n      0x00\n      dup2\n      mstore\n      pop\n      swap1\n      jump\t// out\n    tag_106:\n      mload(0x40)\n      dup1\n      0x40\n      add\n      0x40\n      mstore\n      dup1\n      0x60\n      dup2\n      mstore\n      0x20\n      add\n      0x60\n      dup2\n      mstore\n      pop\n      swap1\n      jump\t// out\n    tag_130:\n    tag_131:\n      dup1\n      dup3\n      gt\n      iszero\n      tag_132\n      jumpi\n      0x00\n      dup2\n      0x00\n      swap1\n      sstore\n      pop\n      0x01\n      add\n      jump(tag_131)\n    tag_132:\n      pop\n      swap1\n      jump\t// out\n        /* \"#utility.yul\":7:417   */\n    tag_134:\n        /* \"#utility.yul\":84:89   */\n      0x00\n        /* \"#utility.yul\":109:174   */\n      tag_136\n        /* \"#utility.yul\":125:173   */\n      tag_137\n        /* \"#utility.yul\":166:172   */\n      dup5\n        /* \"#utility.yul\":125:173   */\n      tag_138\n      jump\t// in\n    tag_137:\n        /* \"#utility.yul\":109:174   */\n      tag_139\n      jump\t// in\n    tag_136:\n        /* \"#utility.yul\":100:174   */\n      swap1\n      pop\n        /* \"#utility.yul\":197:203   */\n      dup3\n        /* \"#utility.yul\":190:195   */\n      dup2\n        /* \"#utility.yul\":183:204   */\n      mstore\n        /* \"#utility.yul\":235:239   */\n      0x20\n        /* \"#utility.yul\":228:233   */\n      dup2\n        /* \"#utility.yul\":224:240   */\n      add\n        /* \"#utility.yul\":273:276   */\n      dup5\n        /* \"#utility.yul\":264:270   */\n      dup5\n        /* \"#utility.yul\":259:262   */\n      dup5\n        /* \"#utility.yul\":255:271   */\n      add\n        /* \"#utility.yul\":252:277   */\n      gt\n        /* \"#utility.yul\":249:361   */\n      iszero\n      tag_140\n      jumpi\n        /* \"#utility.yul\":280:359   */\n      tag_141\n      tag_142\n      jump\t// in\n    tag_141:\n        /* \"#utility.yul\":249:361   */\n    tag_140:\n        /* \"#utility.yul\":370:411   */\n      tag_143\n        /* \"#utility.yul\":404:410   */\n      dup5\n        /* \"#utility.yul\":399:402   */\n      dup3\n        /* \"#utility.yul\":394:397   */\n      dup6\n        /* \"#utility.yul\":370:411   */\n      tag_144\n      jump\t// in\n    tag_143:\n        /* \"#utility.yul\":90:417   */\n      pop\n        /* \"#utility.yul\":7:417   */\n      swap4\n      swap3\n      pop\n      pop\n      pop\n      jump\t// out\n        /* \"#utility.yul\":423:835   */\n    tag_145:\n        /* \"#utility.yul\":501:506   */\n      0x00\n        /* \"#utility.yul\":526:592   */\n      tag_147\n        /* \"#utility.yul\":542:591   */\n      tag_148\n        /* \"#utility.yul\":584:590   */\n      dup5\n        /* \"#utility.yul\":542:591   */\n      tag_149\n      jump\t// in\n    tag_148:\n        /* \"#utility.yul\":526:592   */\n      tag_139\n      jump\t// in\n    tag_147:\n        /* \"#utility.yul\":517:592   */\n      swap1\n      pop\n        /* \"#utility.yul\":615:621   */\n      dup3\n        /* \"#utility.yul\":608:613   */\n      dup2\n        /* \"#utility.yul\":601:622   */\n      mstore\n        /* \"#utility.yul\":653:657   */\n      0x20\n        /* \"#utility.yul\":646:651   */\n      dup2\n        /* \"#utility.yul\":642:658   */\n      add\n        /* \"#utility.yul\":691:694   */\n      dup5\n        /* \"#utility.yul\":682:688   */\n      dup5\n        /* \"#utility.yul\":677:680   */\n      dup5\n        /* \"#utility.yul\":673:689   */\n      add\n        /* \"#utility.yul\":670:695   */\n      gt\n        /* \"#utility.yul\":667:779   */\n      iszero\n      tag_150\n      jumpi\n        /* \"#utility.yul\":698:777   */\n      tag_151\n      tag_142\n      jump\t// in\n    tag_151:\n        /* \"#utility.yul\":667:779   */\n    tag_150:\n        /* \"#utility.yul\":788:829   */\n      tag_152\n        /* \"#utility.yul\":822:828   */\n      dup5\n        /* \"#utility.yul\":817:820   */\n      dup3\n        /* \"#utility.yul\":812:815   */\n      dup6\n        /* \"#utility.yul\":788:829   */\n      tag_144\n      jump\t// in\n    tag_152:\n        /* \"#utility.yul\":507:835   */\n      pop\n        /* \"#utility.yul\":423:835   */\n      swap4\n      swap3\n      pop\n      pop\n      pop\n      jump\t// out\n        /* \"#utility.yul\":854:1192   */\n    tag_153:\n        /* \"#utility.yul\":909:914   */\n      0x00\n        /* \"#utility.yul\":958:961   */\n      dup3\n        /* \"#utility.yul\":951:955   */\n      0x1f\n        /* \"#utility.yul\":943:949   */\n      dup4\n        /* \"#utility.yul\":939:956   */\n      add\n        /* \"#utility.yul\":935:962   */\n      slt\n        /* \"#utility.yul\":925:1047   */\n      tag_155\n      jumpi\n        /* \"#utility.yul\":966:1045   */\n      tag_156\n      tag_157\n      jump\t// in\n    tag_156:\n        /* \"#utility.yul\":925:1047   */\n    tag_155:\n        /* \"#utility.yul\":1083:1089   */\n      dup2\n        /* \"#utility.yul\":1070:1090   */\n      calldataload\n        /* \"#utility.yul\":1108:1186   */\n      tag_158\n        /* \"#utility.yul\":1182:1185   */\n      dup5\n        /* \"#utility.yul\":1174:1180   */\n      dup3\n        /* \"#utility.yul\":1167:1171   */\n      0x20\n        /* \"#utility.yul\":1159:1165   */\n      dup7\n        /* \"#utility.yul\":1155:1172   */\n      add\n        /* \"#utility.yul\":1108:1186   */\n      tag_134\n      jump\t// in\n    tag_158:\n        /* \"#utility.yul\":1099:1186   */\n      swap2\n      pop\n        /* \"#utility.yul\":915:1192   */\n      pop\n        /* \"#utility.yul\":854:1192   */\n      swap3\n      swap2\n      pop\n      pop\n      jump\t// out\n        /* \"#utility.yul\":1212:1552   */\n    tag_159:\n        /* \"#utility.yul\":1268:1273   */\n      0x00\n        /* \"#utility.yul\":1317:1320   */\n      dup3\n        /* \"#utility.yul\":1310:1314   */\n      0x1f\n        /* \"#utility.yul\":1302:1308   */\n      dup4\n        /* \"#utility.yul\":1298:1315   */\n      add\n        /* \"#utility.yul\":1294:1321   */\n      slt\n        /* \"#utility.yul\":1284:1406   */\n      tag_161\n      jumpi\n        /* \"#utility.yul\":1325:1404   */\n      tag_162\n      tag_157\n      jump\t// in\n    tag_162:\n        /* \"#utility.yul\":1284:1406   */\n    tag_161:\n        /* \"#utility.yul\":1442:1448   */\n      dup2\n        /* \"#utility.yul\":1429:1449   */\n      calldataload\n        /* \"#utility.yul\":1467:1546   */\n      tag_163\n        /* \"#utility.yul\":1542:1545   */\n      dup5\n        /* \"#utility.yul\":1534:1540   */\n      dup3\n        /* \"#utility.yul\":1527:1531   */\n      0x20\n        /* \"#utility.yul\":1519:1525   */\n      dup7\n        /* \"#utility.yul\":1515:1532   */\n      add\n        /* \"#utility.yul\":1467:1546   */\n      tag_145\n      jump\t// in\n    tag_163:\n        /* \"#utility.yul\":1458:1546   */\n      swap2\n      pop\n        /* \"#utility.yul\":1274:1552   */\n      pop\n        /* \"#utility.yul\":1212:1552   */\n      swap3\n      swap2\n      pop\n      pop\n      jump\t// out\n        /* \"#utility.yul\":1558:1697   */\n    tag_164:\n        /* \"#utility.yul\":1604:1609   */\n      0x00\n        /* \"#utility.yul\":1642:1648   */\n      dup2\n        /* \"#utility.yul\":1629:1649   */\n      calldataload\n        /* \"#utility.yul\":1620:1649   */\n      swap1\n      pop\n        /* \"#utility.yul\":1658:1691   */\n      tag_166\n        /* \"#utility.yul\":1685:1690   */\n      dup2\n        /* \"#utility.yul\":1658:1691   */\n      tag_167\n      jump\t// in\n    tag_166:\n        /* \"#utility.yul\":1558:1697   */\n      swap3\n      swap2\n      pop\n      pop\n      jump\t// out\n        /* \"#utility.yul\":1703:2212   */\n    tag_11:\n        /* \"#utility.yul\":1772:1778   */\n      0x00\n        /* \"#utility.yul\":1821:1823   */\n      0x20\n        /* \"#utility.yul\":1809:1818   */\n      dup3\n        /* \"#utility.yul\":1800:1807   */\n      dup5\n        /* \"#utility.yul\":1796:1819   */\n      sub\n        /* \"#utility.yul\":1792:1824   */\n      slt\n        /* \"#utility.yul\":1789:1908   */\n      iszero\n      tag_169\n      jumpi\n        /* \"#utility.yul\":1827:1906   */\n      tag_170\n      tag_171\n      jump\t// in\n    tag_170:\n        /* \"#utility.yul\":1789:1908   */\n    tag_169:\n        /* \"#utility.yul\":1975:1976   */\n      0x00\n        /* \"#utility.yul\":1964:1973   */\n      dup3\n        /* \"#utility.yul\":1960:1977   */\n      add\n        /* \"#utility.yul\":1947:1978   */\n      calldataload\n        /* \"#utility.yul\":2005:2023   */\n      0xffffffffffffffff\n        /* \"#utility.yul\":1997:2003   */\n      dup2\n        /* \"#utility.yul\":1994:2024   */\n      gt\n        /* \"#utility.yul\":1991:2108   */\n      iszero\n      tag_172\n      jumpi\n        /* \"#utility.yul\":2027:2106   */\n      tag_173\n      tag_174\n      jump\t// in\n    tag_173:\n        /* \"#utility.yul\":1991:2108   */\n    tag_172:\n        /* \"#utility.yul\":2132:2195   */\n      tag_175\n        /* \"#utility.yul\":2187:2194   */\n      dup5\n        /* \"#utility.yul\":2178:2184   */\n      dup3\n        /* \"#utility.yul\":2167:2176   */\n      dup6\n        /* \"#utility.yul\":2163:2185   */\n      add\n        /* \"#utility.yul\":2132:2195   */\n      tag_159\n      jump\t// in\n    tag_175:\n        /* \"#utility.yul\":2122:2195   */\n      swap2\n      pop\n        /* \"#utility.yul\":1918:2205   */\n      pop\n        /* \"#utility.yul\":1703:2212   */\n      swap3\n      swap2\n      pop\n      pop\n      jump\t// out\n        /* \"#utility.yul\":2218:3375   */\n    tag_17:\n        /* \"#utility.yul\":2324:2330   */\n      0x00\n        /* \"#utility.yul\":2332:2338   */\n      dup1\n        /* \"#utility.yul\":2340:2346   */\n      0x00\n        /* \"#utility.yul\":2389:2391   */\n      0x60\n        /* \"#utility.yul\":2377:2386   */\n      dup5\n        /* \"#utility.yul\":2368:2375   */\n      dup7\n        /* \"#utility.yul\":2364:2387   */\n      sub\n        /* \"#utility.yul\":2360:2392   */\n      slt\n        /* \"#utility.yul\":2357:2476   */\n      iszero\n      tag_177\n      jumpi\n        /* \"#utility.yul\":2395:2474   */\n      tag_178\n      tag_171\n      jump\t// in\n    tag_178:\n        /* \"#utility.yul\":2357:2476   */\n    tag_177:\n        /* \"#utility.yul\":2543:2544   */\n      0x00\n        /* \"#utility.yul\":2532:2541   */\n      dup5\n        /* \"#utility.yul\":2528:2545   */\n      add\n        /* \"#utility.yul\":2515:2546   */\n      calldataload\n        /* \"#utility.yul\":2573:2591   */\n      0xffffffffffffffff\n        /* \"#utility.yul\":2565:2571   */\n      dup2\n        /* \"#utility.yul\":2562:2592   */\n      gt\n        /* \"#utility.yul\":2559:2676   */\n      iszero\n      tag_179\n      jumpi\n        /* \"#utility.yul\":2595:2674   */\n      tag_180\n      tag_174\n      jump\t// in\n    tag_180:\n        /* \"#utility.yul\":2559:2676   */\n    tag_179:\n        /* \"#utility.yul\":2700:2763   */\n      tag_181\n        /* \"#utility.yul\":2755:2762   */\n      dup7\n        /* \"#utility.yul\":2746:2752   */\n      dup3\n        /* \"#utility.yul\":2735:2744   */\n      dup8\n        /* \"#utility.yul\":2731:2753   */\n      add\n        /* \"#utility.yul\":2700:2763   */\n      tag_159\n      jump\t// in\n    tag_181:\n        /* \"#utility.yul\":2690:2763   */\n      swap4\n      pop\n        /* \"#utility.yul\":2486:2773   */\n      pop\n        /* \"#utility.yul\":2840:2842   */\n      0x20\n        /* \"#utility.yul\":2829:2838   */\n      dup5\n        /* \"#utility.yul\":2825:2843   */\n      add\n        /* \"#utility.yul\":2812:2844   */\n      calldataload\n        /* \"#utility.yul\":2871:2889   */\n      0xffffffffffffffff\n        /* \"#utility.yul\":2863:2869   */\n      dup2\n        /* \"#utility.yul\":2860:2890   */\n      gt\n        /* \"#utility.yul\":2857:2974   */\n      iszero\n      tag_182\n      jumpi\n        /* \"#utility.yul\":2893:2972   */\n      tag_183\n      tag_174\n      jump\t// in\n    tag_183:\n        /* \"#utility.yul\":2857:2974   */\n    tag_182:\n        /* \"#utility.yul\":2998:3061   */\n      tag_184\n        /* \"#utility.yul\":3053:3060   */\n      dup7\n        /* \"#utility.yul\":3044:3050   */\n      dup3\n        /* \"#utility.yul\":3033:3042   */\n      dup8\n        /* \"#utility.yul\":3029:3051   */\n      add\n        /* \"#utility.yul\":2998:3061   */\n      tag_159\n      jump\t// in\n    tag_184:\n        /* \"#utility.yul\":2988:3061   */\n      swap3\n      pop\n        /* \"#utility.yul\":2783:3071   */\n      pop\n        /* \"#utility.yul\":3138:3140   */\n      0x40\n        /* \"#utility.yul\":3127:3136   */\n      dup5\n        /* \"#utility.yul\":3123:3141   */\n      add\n        /* \"#utility.yul\":3110:3142   */\n      calldataload\n        /* \"#utility.yul\":3169:3187   */\n      0xffffffffffffffff\n        /* \"#utility.yul\":3161:3167   */\n      dup2\n        /* \"#utility.yul\":3158:3188   */\n      gt\n        /* \"#utility.yul\":3155:3272   */\n      iszero\n      tag_185\n      jumpi\n        /* \"#utility.yul\":3191:3270   */\n      tag_186\n      tag_174\n      jump\t// in\n    tag_186:\n        /* \"#utility.yul\":3155:3272   */\n    tag_185:\n        /* \"#utility.yul\":3296:3358   */\n      tag_187\n        /* \"#utility.yul\":3350:3357   */\n      dup7\n        /* \"#utility.yul\":3341:3347   */\n      dup3\n        /* \"#utility.yul\":3330:3339   */\n      dup8\n        /* \"#utility.yul\":3326:3348   */\n      add\n        /* \"#utility.yul\":3296:3358   */\n      tag_153\n      jump\t// in\n    tag_187:\n        /* \"#utility.yul\":3286:3358   */\n      swap2\n      pop\n        /* \"#utility.yul\":3081:3368   */\n      pop\n        /* \"#utility.yul\":2218:3375   */\n      swap3\n      pop\n      swap3\n      pop\n      swap3\n      jump\t// out\n        /* \"#utility.yul\":3381:4540   */\n    tag_23:\n        /* \"#utility.yul\":3488:3494   */\n      0x00\n        /* \"#utility.yul\":3496:3502   */\n      dup1\n        /* \"#utility.yul\":3504:3510   */\n      0x00\n        /* \"#utility.yul\":3553:3555   */\n      0x60\n        /* \"#utility.yul\":3541:3550   */\n      dup5\n        /* \"#utility.yul\":3532:3539   */\n      dup7\n        /* \"#utility.yul\":3528:3551   */\n      sub\n        /* \"#utility.yul\":3524:3556   */\n      slt\n        /* \"#utility.yul\":3521:3640   */\n      iszero\n      tag_189\n      jumpi\n        /* \"#utility.yul\":3559:3638   */\n      tag_190\n      tag_171\n      jump\t// in\n    tag_190:\n        /* \"#utility.yul\":3521:3640   */\n    tag_189:\n        /* \"#utility.yul\":3707:3708   */\n      0x00\n        /* \"#utility.yul\":3696:3705   */\n      dup5\n        /* \"#utility.yul\":3692:3709   */\n      add\n        /* \"#utility.yul\":3679:3710   */\n      calldataload\n        /* \"#utility.yul\":3737:3755   */\n      0xffffffffffffffff\n        /* \"#utility.yul\":3729:3735   */\n      dup2\n        /* \"#utility.yul\":3726:3756   */\n      gt\n        /* \"#utility.yul\":3723:3840   */\n      iszero\n      tag_191\n      jumpi\n        /* \"#utility.yul\":3759:3838   */\n      tag_192\n      tag_174\n      jump\t// in\n    tag_192:\n        /* \"#utility.yul\":3723:3840   */\n    tag_191:\n        /* \"#utility.yul\":3864:3927   */\n      tag_193\n        /* \"#utility.yul\":3919:3926   */\n      dup7\n        /* \"#utility.yul\":3910:3916   */\n      dup3\n        /* \"#utility.yul\":3899:3908   */\n      dup8\n        /* \"#utility.yul\":3895:3917   */\n      add\n        /* \"#utility.yul\":3864:3927   */\n      tag_159\n      jump\t// in\n    tag_193:\n        /* \"#utility.yul\":3854:3927   */\n      swap4\n      pop\n        /* \"#utility.yul\":3650:3937   */\n      pop\n        /* \"#utility.yul\":4004:4006   */\n      0x20\n        /* \"#utility.yul\":3993:4002   */\n      dup5\n        /* \"#utility.yul\":3989:4007   */\n      add\n        /* \"#utility.yul\":3976:4008   */\n      calldataload\n        /* \"#utility.yul\":4035:4053   */\n      0xffffffffffffffff\n        /* \"#utility.yul\":4027:4033   */\n      dup2\n        /* \"#utility.yul\":4024:4054   */\n      gt\n        /* \"#utility.yul\":4021:4138   */\n      iszero\n      tag_194\n      jumpi\n        /* \"#utility.yul\":4057:4136   */\n      tag_195\n      tag_174\n      jump\t// in\n    tag_195:\n        /* \"#utility.yul\":4021:4138   */\n    tag_194:\n        /* \"#utility.yul\":4162:4225   */\n      tag_196\n        /* \"#utility.yul\":4217:4224   */\n      dup7\n        /* \"#utility.yul\":4208:4214   */\n      dup3\n        /* \"#utility.yul\":4197:4206   */\n      dup8\n        /* \"#utility.yul\":4193:4215   */\n      add\n        /* \"#utility.yul\":4162:4225   */\n      tag_159\n      jump\t// in\n    tag_196:\n        /* \"#utility.yul\":4152:4225   */\n      swap3\n      pop\n        /* \"#utility.yul\":3947:4235   */\n      pop\n        /* \"#utility.yul\":4302:4304   */\n      0x40\n        /* \"#utility.yul\":4291:4300   */\n      dup5\n        /* \"#utility.yul\":4287:4305   */\n      add\n        /* \"#utility.yul\":4274:4306   */\n      calldataload\n        /* \"#utility.yul\":4333:4351   */\n      0xffffffffffffffff\n        /* \"#utility.yul\":4325:4331   */\n      dup2\n        /* \"#utility.yul\":4322:4352   */\n      gt\n        /* \"#utility.yul\":4319:4436   */\n      iszero\n      tag_197\n      jumpi\n        /* \"#utility.yul\":4355:4434   */\n      tag_198\n      tag_174\n      jump\t// in\n    tag_198:\n        /* \"#utility.yul\":4319:4436   */\n    tag_197:\n        /* \"#utility.yul\":4460:4523   */\n      tag_199\n        /* \"#utility.yul\":4515:4522   */\n      dup7\n        /* \"#utility.yul\":4506:4512   */\n      dup3\n        /* \"#utility.yul\":4495:4504   */\n      dup8\n        /* \"#utility.yul\":4491:4513   */\n      add\n        /* \"#utility.yul\":4460:4523   */\n      tag_159\n      jump\t// in\n    tag_199:\n        /* \"#utility.yul\":4450:4523   */\n      swap2\n      pop\n        /* \"#utility.yul\":4245:4533   */\n      pop\n        /* \"#utility.yul\":3381:4540   */\n      swap3\n      pop\n      swap3\n      pop\n      swap3\n      jump\t// out\n        /* \"#utility.yul\":4546:5525   */\n    tag_33:\n        /* \"#utility.yul\":4643:4649   */\n      0x00\n        /* \"#utility.yul\":4651:4657   */\n      dup1\n        /* \"#utility.yul\":4659:4665   */\n      0x00\n        /* \"#utility.yul\":4708:4710   */\n      0x60\n        /* \"#utility.yul\":4696:4705   */\n      dup5\n        /* \"#utility.yul\":4687:4694   */\n      dup7\n        /* \"#utility.yul\":4683:4706   */\n      sub\n        /* \"#utility.yul\":4679:4711   */\n      slt\n        /* \"#utility.yul\":4676:4795   */\n      iszero\n      tag_201\n      jumpi\n        /* \"#utility.yul\":4714:4793   */\n      tag_202\n      tag_171\n      jump\t// in\n    tag_202:\n        /* \"#utility.yul\":4676:4795   */\n    tag_201:\n        /* \"#utility.yul\":4862:4863   */\n      0x00\n        /* \"#utility.yul\":4851:4860   */\n      dup5\n        /* \"#utility.yul\":4847:4864   */\n      add\n        /* \"#utility.yul\":4834:4865   */\n      calldataload\n        /* \"#utility.yul\":4892:4910   */\n      0xffffffffffffffff\n        /* \"#utility.yul\":4884:4890   */\n      dup2\n        /* \"#utility.yul\":4881:4911   */\n      gt\n        /* \"#utility.yul\":4878:4995   */\n      iszero\n      tag_203\n      jumpi\n        /* \"#utility.yul\":4914:4993   */\n      tag_204\n      tag_174\n      jump\t// in\n    tag_204:\n        /* \"#utility.yul\":4878:4995   */\n    tag_203:\n        /* \"#utility.yul\":5019:5082   */\n      tag_205\n        /* \"#utility.yul\":5074:5081   */\n      dup7\n        /* \"#utility.yul\":5065:5071   */\n      dup3\n        /* \"#utility.yul\":5054:5063   */\n      dup8\n        /* \"#utility.yul\":5050:5072   */\n      add\n        /* \"#utility.yul\":5019:5082   */\n      tag_159\n      jump\t// in\n    tag_205:\n        /* \"#utility.yul\":5009:5082   */\n      swap4\n      pop\n        /* \"#utility.yul\":4805:5092   */\n      pop\n        /* \"#utility.yul\":5159:5161   */\n      0x20\n        /* \"#utility.yul\":5148:5157   */\n      dup5\n        /* \"#utility.yul\":5144:5162   */\n      add\n        /* \"#utility.yul\":5131:5163   */\n      calldataload\n        /* \"#utility.yul\":5190:5208   */\n      0xffffffffffffffff\n        /* \"#utility.yul\":5182:5188   */\n      dup2\n        /* \"#utility.yul\":5179:5209   */\n      gt\n        /* \"#utility.yul\":5176:5293   */\n      iszero\n      tag_206\n      jumpi\n        /* \"#utility.yul\":5212:5291   */\n      tag_207\n      tag_174\n      jump\t// in\n    tag_207:\n        /* \"#utility.yul\":5176:5293   */\n    tag_206:\n        /* \"#utility.yul\":5317:5380   */\n      tag_208\n        /* \"#utility.yul\":5372:5379   */\n      dup7\n        /* \"#utility.yul\":5363:5369   */\n      dup3\n        /* \"#utility.yul\":5352:5361   */\n      dup8\n        /* \"#utility.yul\":5348:5370   */\n      add\n        /* \"#utility.yul\":5317:5380   */\n      tag_159\n      jump\t// in\n    tag_208:\n        /* \"#utility.yul\":5307:5380   */\n      swap3\n      pop\n        /* \"#utility.yul\":5102:5390   */\n      pop\n        /* \"#utility.yul\":5429:5431   */\n      0x40\n        /* \"#utility.yul\":5455:5508   */\n      tag_209\n        /* \"#utility.yul\":5500:5507   */\n      dup7\n        /* \"#utility.yul\":5491:5497   */\n      dup3\n        /* \"#utility.yul\":5480:5489   */\n      dup8\n        /* \"#utility.yul\":5476:5498   */\n      add\n        /* \"#utility.yul\":5455:5508   */\n      tag_164\n      jump\t// in\n    tag_209:\n        /* \"#utility.yul\":5445:5508   */\n      swap2\n      pop\n        /* \"#utility.yul\":5400:5518   */\n      pop\n        /* \"#utility.yul\":4546:5525   */\n      swap3\n      pop\n      swap3\n      pop\n      swap3\n      jump\t// out\n        /* \"#utility.yul\":5531:5649   */\n    tag_210:\n        /* \"#utility.yul\":5618:5642   */\n      tag_212\n        /* \"#utility.yul\":5636:5641   */\n      dup2\n        /* \"#utility.yul\":5618:5642   */\n      tag_213\n      jump\t// in\n    tag_212:\n        /* \"#utility.yul\":5613:5616   */\n      dup3\n        /* \"#utility.yul\":5606:5643   */\n      mstore\n        /* \"#utility.yul\":5531:5649   */\n      pop\n      pop\n      jump\t// out\n        /* \"#utility.yul\":5655:5995   */\n    tag_214:\n        /* \"#utility.yul\":5731:5734   */\n      0x00\n        /* \"#utility.yul\":5759:5797   */\n      tag_216\n        /* \"#utility.yul\":5791:5796   */\n      dup3\n        /* \"#utility.yul\":5759:5797   */\n      tag_217\n      jump\t// in\n    tag_216:\n        /* \"#utility.yul\":5813:5873   */\n      tag_218\n        /* \"#utility.yul\":5866:5872   */\n      dup2\n        /* \"#utility.yul\":5861:5864   */\n      dup6\n        /* \"#utility.yul\":5813:5873   */\n      tag_219\n      jump\t// in\n    tag_218:\n        /* \"#utility.yul\":5806:5873   */\n      swap4\n      pop\n        /* \"#utility.yul\":5882:5934   */\n      tag_220\n        /* \"#utility.yul\":5927:5933   */\n      dup2\n        /* \"#utility.yul\":5922:5925   */\n      dup6\n        /* \"#utility.yul\":5915:5919   */\n      0x20\n        /* \"#utility.yul\":5908:5913   */\n      dup7\n        /* \"#utility.yul\":5904:5920   */\n      add\n        /* \"#utility.yul\":5882:5934   */\n      tag_221\n      jump\t// in\n    tag_220:\n        /* \"#utility.yul\":5959:5988   */\n      tag_222\n        /* \"#utility.yul\":5981:5987   */\n      dup2\n        /* \"#utility.yul\":5959:5988   */\n      tag_223\n      jump\t// in\n    tag_222:\n        /* \"#utility.yul\":5954:5957   */\n      dup5\n        /* \"#utility.yul\":5950:5989   */\n      add\n        /* \"#utility.yul\":5943:5989   */\n      swap2\n      pop\n        /* \"#utility.yul\":5735:5995   */\n      pop\n        /* \"#utility.yul\":5655:5995   */\n      swap3\n      swap2\n      pop\n      pop\n      jump\t// out\n        /* \"#utility.yul\":6001:6345   */\n    tag_224:\n        /* \"#utility.yul\":6079:6082   */\n      0x00\n        /* \"#utility.yul\":6107:6146   */\n      tag_226\n        /* \"#utility.yul\":6140:6145   */\n      dup3\n        /* \"#utility.yul\":6107:6146   */\n      tag_227\n      jump\t// in\n    tag_226:\n        /* \"#utility.yul\":6162:6223   */\n      tag_228\n        /* \"#utility.yul\":6216:6222   */\n      dup2\n        /* \"#utility.yul\":6211:6214   */\n      dup6\n        /* \"#utility.yul\":6162:6223   */\n      tag_229\n      jump\t// in\n    tag_228:\n        /* \"#utility.yul\":6155:6223   */\n      swap4\n      pop\n        /* \"#utility.yul\":6232:6284   */\n      tag_230\n        /* \"#utility.yul\":6277:6283   */\n      dup2\n        /* \"#utility.yul\":6272:6275   */\n      dup6\n        /* \"#utility.yul\":6265:6269   */\n      0x20\n        /* \"#utility.yul\":6258:6263   */\n      dup7\n        /* \"#utility.yul\":6254:6270   */\n      add\n        /* \"#utility.yul\":6232:6284   */\n      tag_221\n      jump\t// in\n    tag_230:\n        /* \"#utility.yul\":6309:6338   */\n      tag_231\n        /* \"#utility.yul\":6331:6337   */\n      dup2\n        /* \"#utility.yul\":6309:6338   */\n      tag_223\n      jump\t// in\n    tag_231:\n        /* \"#utility.yul\":6304:6307   */\n      dup5\n        /* \"#utility.yul\":6300:6339   */\n      add\n        /* \"#utility.yul\":6293:6339   */\n      swap2\n      pop\n        /* \"#utility.yul\":6083:6345   */\n      pop\n        /* \"#utility.yul\":6001:6345   */\n      swap3\n      swap2\n      pop\n      pop\n      jump\t// out\n        /* \"#utility.yul\":6351:6728   */\n    tag_232:\n        /* \"#utility.yul\":6457:6460   */\n      0x00\n        /* \"#utility.yul\":6485:6524   */\n      tag_234\n        /* \"#utility.yul\":6518:6523   */\n      dup3\n        /* \"#utility.yul\":6485:6524   */\n      tag_227\n      jump\t// in\n    tag_234:\n        /* \"#utility.yul\":6540:6629   */\n      tag_235\n        /* \"#utility.yul\":6622:6628   */\n      dup2\n        /* \"#utility.yul\":6617:6620   */\n      dup6\n        /* \"#utility.yul\":6540:6629   */\n      tag_236\n      jump\t// in\n    tag_235:\n        /* \"#utility.yul\":6533:6629   */\n      swap4\n      pop\n        /* \"#utility.yul\":6638:6690   */\n      tag_237\n        /* \"#utility.yul\":6683:6689   */\n      dup2\n        /* \"#utility.yul\":6678:6681   */\n      dup6\n        /* \"#utility.yul\":6671:6675   */\n      0x20\n        /* \"#utility.yul\":6664:6669   */\n      dup7\n        /* \"#utility.yul\":6660:6676   */\n      add\n        /* \"#utility.yul\":6638:6690   */\n      tag_221\n      jump\t// in\n    tag_237:\n        /* \"#utility.yul\":6715:6721   */\n      dup1\n        /* \"#utility.yul\":6710:6713   */\n      dup5\n        /* \"#utility.yul\":6706:6722   */\n      add\n        /* \"#utility.yul\":6699:6722   */\n      swap2\n      pop\n        /* \"#utility.yul\":6461:6728   */\n      pop\n        /* \"#utility.yul\":6351:6728   */\n      swap3\n      swap2\n      pop\n      pop\n      jump\t// out\n        /* \"#utility.yul\":6758:7603   */\n    tag_238:\n        /* \"#utility.yul\":6861:6864   */\n      0x00\n        /* \"#utility.yul\":6898:6903   */\n      dup2\n        /* \"#utility.yul\":6892:6904   */\n      sload\n        /* \"#utility.yul\":6927:6963   */\n      tag_240\n        /* \"#utility.yul\":6953:6962   */\n      dup2\n        /* \"#utility.yul\":6927:6963   */\n      tag_47\n      jump\t// in\n    tag_240:\n        /* \"#utility.yul\":6979:7068   */\n      tag_241\n        /* \"#utility.yul\":7061:7067   */\n      dup2\n        /* \"#utility.yul\":7056:7059   */\n      dup7\n        /* \"#utility.yul\":6979:7068   */\n      tag_236\n      jump\t// in\n    tag_241:\n        /* \"#utility.yul\":6972:7068   */\n      swap5\n      pop\n        /* \"#utility.yul\":7099:7100   */\n      0x01\n        /* \"#utility.yul\":7088:7097   */\n      dup3\n        /* \"#utility.yul\":7084:7101   */\n      and\n        /* \"#utility.yul\":7115:7116   */\n      0x00\n        /* \"#utility.yul\":7110:7247   */\n      dup2\n      eq\n      tag_243\n      jumpi\n        /* \"#utility.yul\":7261:7262   */\n      0x01\n        /* \"#utility.yul\":7256:7597   */\n      dup2\n      eq\n      tag_244\n      jumpi\n        /* \"#utility.yul\":7077:7597   */\n      jump(tag_242)\n        /* \"#utility.yul\":7110:7247   */\n    tag_243:\n        /* \"#utility.yul\":7194:7198   */\n      0xff\n        /* \"#utility.yul\":7190:7199   */\n      not\n        /* \"#utility.yul\":7179:7188   */\n      dup4\n        /* \"#utility.yul\":7175:7200   */\n      and\n        /* \"#utility.yul\":7170:7173   */\n      dup7\n        /* \"#utility.yul\":7163:7201   */\n      mstore\n        /* \"#utility.yul\":7230:7236   */\n      dup2\n        /* \"#utility.yul\":7225:7228   */\n      dup7\n        /* \"#utility.yul\":7221:7237   */\n      add\n        /* \"#utility.yul\":7214:7237   */\n      swap4\n      pop\n        /* \"#utility.yul\":7110:7247   */\n      jump(tag_242)\n        /* \"#utility.yul\":7256:7597   */\n    tag_244:\n        /* \"#utility.yul\":7323:7361   */\n      tag_245\n        /* \"#utility.yul\":7355:7360   */\n      dup6\n        /* \"#utility.yul\":7323:7361   */\n      tag_246\n      jump\t// in\n    tag_245:\n        /* \"#utility.yul\":7383:7384   */\n      0x00\n        /* \"#utility.yul\":7397:7551   */\n    tag_247:\n        /* \"#utility.yul\":7411:7417   */\n      dup4\n        /* \"#utility.yul\":7408:7409   */\n      dup2\n        /* \"#utility.yul\":7405:7418   */\n      lt\n        /* \"#utility.yul\":7397:7551   */\n      iszero\n      tag_249\n      jumpi\n        /* \"#utility.yul\":7485:7492   */\n      dup2\n        /* \"#utility.yul\":7479:7493   */\n      sload\n        /* \"#utility.yul\":7475:7476   */\n      dup2\n        /* \"#utility.yul\":7470:7473   */\n      dup10\n        /* \"#utility.yul\":7466:7477   */\n      add\n        /* \"#utility.yul\":7459:7494   */\n      mstore\n        /* \"#utility.yul\":7535:7536   */\n      0x01\n        /* \"#utility.yul\":7526:7533   */\n      dup3\n        /* \"#utility.yul\":7522:7537   */\n      add\n        /* \"#utility.yul\":7511:7537   */\n      swap2\n      pop\n        /* \"#utility.yul\":7433:7437   */\n      0x20\n        /* \"#utility.yul\":7430:7431   */\n      dup2\n        /* \"#utility.yul\":7426:7438   */\n      add\n        /* \"#utility.yul\":7421:7438   */\n      swap1\n      pop\n        /* \"#utility.yul\":7397:7551   */\n      jump(tag_247)\n    tag_249:\n        /* \"#utility.yul\":7580:7586   */\n      dup4\n        /* \"#utility.yul\":7575:7578   */\n      dup9\n        /* \"#utility.yul\":7571:7587   */\n      add\n        /* \"#utility.yul\":7564:7587   */\n      swap6\n      pop\n        /* \"#utility.yul\":7263:7597   */\n      pop\n      pop\n        /* \"#utility.yul\":7077:7597   */\n    tag_242:\n      pop\n        /* \"#utility.yul\":6865:7603   */\n      pop\n      pop\n        /* \"#utility.yul\":6758:7603   */\n      swap3\n      swap2\n      pop\n      pop\n      jump\t// out\n        /* \"#utility.yul\":7609:7975   */\n    tag_250:\n        /* \"#utility.yul\":7751:7754   */\n      0x00\n        /* \"#utility.yul\":7772:7839   */\n      tag_252\n        /* \"#utility.yul\":7836:7838   */\n      0x18\n        /* \"#utility.yul\":7831:7834   */\n      dup4\n        /* \"#utility.yul\":7772:7839   */\n      tag_253\n      jump\t// in\n    tag_252:\n        /* \"#utility.yul\":7765:7839   */\n      swap2\n      pop\n        /* \"#utility.yul\":7848:7941   */\n      tag_254\n        /* \"#utility.yul\":7937:7940   */\n      dup3\n        /* \"#utility.yul\":7848:7941   */\n      tag_255\n      jump\t// in\n    tag_254:\n        /* \"#utility.yul\":7966:7968   */\n      0x20\n        /* \"#utility.yul\":7961:7964   */\n      dup3\n        /* \"#utility.yul\":7957:7969   */\n      add\n        /* \"#utility.yul\":7950:7969   */\n      swap1\n      pop\n        /* \"#utility.yul\":7609:7975   */\n      swap2\n      swap1\n      pop\n      jump\t// out\n        /* \"#utility.yul\":7981:8346   */\n    tag_256:\n        /* \"#utility.yul\":8123:8126   */\n      0x00\n        /* \"#utility.yul\":8144:8210   */\n      tag_258\n        /* \"#utility.yul\":8208:8209   */\n      0x07\n        /* \"#utility.yul\":8203:8206   */\n      dup4\n        /* \"#utility.yul\":8144:8210   */\n      tag_253\n      jump\t// in\n    tag_258:\n        /* \"#utility.yul\":8137:8210   */\n      swap2\n      pop\n        /* \"#utility.yul\":8219:8312   */\n      tag_259\n        /* \"#utility.yul\":8308:8311   */\n      dup3\n        /* \"#utility.yul\":8219:8312   */\n      tag_260\n      jump\t// in\n    tag_259:\n        /* \"#utility.yul\":8337:8339   */\n      0x20\n        /* \"#utility.yul\":8332:8335   */\n      dup3\n        /* \"#utility.yul\":8328:8340   */\n      add\n        /* \"#utility.yul\":8321:8340   */\n      swap1\n      pop\n        /* \"#utility.yul\":7981:8346   */\n      swap2\n      swap1\n      pop\n      jump\t// out\n        /* \"#utility.yul\":8412:9524   */\n    tag_261:\n        /* \"#utility.yul\":8535:8538   */\n      0x00\n        /* \"#utility.yul\":8571:8575   */\n      0x80\n        /* \"#utility.yul\":8566:8569   */\n      dup4\n        /* \"#utility.yul\":8562:8576   */\n      add\n        /* \"#utility.yul\":8664:8668   */\n      0x00\n        /* \"#utility.yul\":8657:8662   */\n      dup4\n        /* \"#utility.yul\":8653:8669   */\n      add\n        /* \"#utility.yul\":8647:8670   */\n      mload\n        /* \"#utility.yul\":8717:8720   */\n      dup5\n        /* \"#utility.yul\":8711:8715   */\n      dup3\n        /* \"#utility.yul\":8707:8721   */\n      sub\n        /* \"#utility.yul\":8700:8704   */\n      0x00\n        /* \"#utility.yul\":8695:8698   */\n      dup7\n        /* \"#utility.yul\":8691:8705   */\n      add\n        /* \"#utility.yul\":8684:8722   */\n      mstore\n        /* \"#utility.yul\":8743:8816   */\n      tag_263\n        /* \"#utility.yul\":8811:8815   */\n      dup3\n        /* \"#utility.yul\":8797:8809   */\n      dup3\n        /* \"#utility.yul\":8743:8816   */\n      tag_224\n      jump\t// in\n    tag_263:\n        /* \"#utility.yul\":8735:8816   */\n      swap2\n      pop\n        /* \"#utility.yul\":8586:8827   */\n      pop\n        /* \"#utility.yul\":8909:8913   */\n      0x20\n        /* \"#utility.yul\":8902:8907   */\n      dup4\n        /* \"#utility.yul\":8898:8914   */\n      add\n        /* \"#utility.yul\":8892:8915   */\n      mload\n        /* \"#utility.yul\":8962:8965   */\n      dup5\n        /* \"#utility.yul\":8956:8960   */\n      dup3\n        /* \"#utility.yul\":8952:8966   */\n      sub\n        /* \"#utility.yul\":8945:8949   */\n      0x20\n        /* \"#utility.yul\":8940:8943   */\n      dup7\n        /* \"#utility.yul\":8936:8950   */\n      add\n        /* \"#utility.yul\":8929:8967   */\n      mstore\n        /* \"#utility.yul\":8988:9061   */\n      tag_264\n        /* \"#utility.yul\":9056:9060   */\n      dup3\n        /* \"#utility.yul\":9042:9054   */\n      dup3\n        /* \"#utility.yul\":8988:9061   */\n      tag_224\n      jump\t// in\n    tag_264:\n        /* \"#utility.yul\":8980:9061   */\n      swap2\n      pop\n        /* \"#utility.yul\":8837:9072   */\n      pop\n        /* \"#utility.yul\":9154:9158   */\n      0x40\n        /* \"#utility.yul\":9147:9152   */\n      dup4\n        /* \"#utility.yul\":9143:9159   */\n      add\n        /* \"#utility.yul\":9137:9160   */\n      mload\n        /* \"#utility.yul\":9207:9210   */\n      dup5\n        /* \"#utility.yul\":9201:9205   */\n      dup3\n        /* \"#utility.yul\":9197:9211   */\n      sub\n        /* \"#utility.yul\":9190:9194   */\n      0x40\n        /* \"#utility.yul\":9185:9188   */\n      dup7\n        /* \"#utility.yul\":9181:9195   */\n      add\n        /* \"#utility.yul\":9174:9212   */\n      mstore\n        /* \"#utility.yul\":9233:9306   */\n      tag_265\n        /* \"#utility.yul\":9301:9305   */\n      dup3\n        /* \"#utility.yul\":9287:9299   */\n      dup3\n        /* \"#utility.yul\":9233:9306   */\n      tag_224\n      jump\t// in\n    tag_265:\n        /* \"#utility.yul\":9225:9306   */\n      swap2\n      pop\n        /* \"#utility.yul\":9082:9317   */\n      pop\n        /* \"#utility.yul\":9405:9409   */\n      0x60\n        /* \"#utility.yul\":9398:9403   */\n      dup4\n        /* \"#utility.yul\":9394:9410   */\n      add\n        /* \"#utility.yul\":9388:9411   */\n      mload\n        /* \"#utility.yul\":9424:9487   */\n      tag_266\n        /* \"#utility.yul\":9481:9485   */\n      0x60\n        /* \"#utility.yul\":9476:9479   */\n      dup7\n        /* \"#utility.yul\":9472:9486   */\n      add\n        /* \"#utility.yul\":9458:9470   */\n      dup3\n        /* \"#utility.yul\":9424:9487   */\n      tag_267\n      jump\t// in\n    tag_266:\n        /* \"#utility.yul\":9327:9497   */\n      pop\n        /* \"#utility.yul\":9514:9518   */\n      dup1\n        /* \"#utility.yul\":9507:9518   */\n      swap2\n      pop\n        /* \"#utility.yul\":8540:9524   */\n      pop\n        /* \"#utility.yul\":8412:9524   */\n      swap3\n      swap2\n      pop\n      pop\n      jump\t// out\n        /* \"#utility.yul\":9590:10644   */\n    tag_268:\n        /* \"#utility.yul\":9713:9716   */\n      0x00\n        /* \"#utility.yul\":9749:9753   */\n      0x80\n        /* \"#utility.yul\":9744:9747   */\n      dup4\n        /* \"#utility.yul\":9740:9754   */\n      add\n        /* \"#utility.yul\":9839:9843   */\n      0x00\n        /* \"#utility.yul\":9832:9837   */\n      dup4\n        /* \"#utility.yul\":9828:9844   */\n      add\n        /* \"#utility.yul\":9822:9845   */\n      mload\n        /* \"#utility.yul\":9892:9895   */\n      dup5\n        /* \"#utility.yul\":9886:9890   */\n      dup3\n        /* \"#utility.yul\":9882:9896   */\n      sub\n        /* \"#utility.yul\":9875:9879   */\n      0x00\n        /* \"#utility.yul\":9870:9873   */\n      dup7\n        /* \"#utility.yul\":9866:9880   */\n      add\n        /* \"#utility.yul\":9859:9897   */\n      mstore\n        /* \"#utility.yul\":9918:9991   */\n      tag_270\n        /* \"#utility.yul\":9986:9990   */\n      dup3\n        /* \"#utility.yul\":9972:9984   */\n      dup3\n        /* \"#utility.yul\":9918:9991   */\n      tag_224\n      jump\t// in\n    tag_270:\n        /* \"#utility.yul\":9910:9991   */\n      swap2\n      pop\n        /* \"#utility.yul\":9764:10002   */\n      pop\n        /* \"#utility.yul\":10094:10098   */\n      0x20\n        /* \"#utility.yul\":10087:10092   */\n      dup4\n        /* \"#utility.yul\":10083:10099   */\n      add\n        /* \"#utility.yul\":10077:10100   */\n      mload\n        /* \"#utility.yul\":10147:10150   */\n      dup5\n        /* \"#utility.yul\":10141:10145   */\n      dup3\n        /* \"#utility.yul\":10137:10151   */\n      sub\n        /* \"#utility.yul\":10130:10134   */\n      0x20\n        /* \"#utility.yul\":10125:10128   */\n      dup7\n        /* \"#utility.yul\":10121:10135   */\n      add\n        /* \"#utility.yul\":10114:10152   */\n      mstore\n        /* \"#utility.yul\":10173:10246   */\n      tag_271\n        /* \"#utility.yul\":10241:10245   */\n      dup3\n        /* \"#utility.yul\":10227:10239   */\n      dup3\n        /* \"#utility.yul\":10173:10246   */\n      tag_224\n      jump\t// in\n    tag_271:\n        /* \"#utility.yul\":10165:10246   */\n      swap2\n      pop\n        /* \"#utility.yul\":10012:10257   */\n      pop\n        /* \"#utility.yul\":10345:10349   */\n      0x40\n        /* \"#utility.yul\":10338:10343   */\n      dup4\n        /* \"#utility.yul\":10334:10350   */\n      add\n        /* \"#utility.yul\":10328:10351   */\n      mload\n        /* \"#utility.yul\":10364:10427   */\n      tag_272\n        /* \"#utility.yul\":10421:10425   */\n      0x40\n        /* \"#utility.yul\":10416:10419   */\n      dup7\n        /* \"#utility.yul\":10412:10426   */\n      add\n        /* \"#utility.yul\":10398:10410   */\n      dup3\n        /* \"#utility.yul\":10364:10427   */\n      tag_267\n      jump\t// in\n    tag_272:\n        /* \"#utility.yul\":10267:10437   */\n      pop\n        /* \"#utility.yul\":10525:10529   */\n      0x60\n        /* \"#utility.yul\":10518:10523   */\n      dup4\n        /* \"#utility.yul\":10514:10530   */\n      add\n        /* \"#utility.yul\":10508:10531   */\n      mload\n        /* \"#utility.yul\":10544:10607   */\n      tag_273\n        /* \"#utility.yul\":10601:10605   */\n      0x60\n        /* \"#utility.yul\":10596:10599   */\n      dup7\n        /* \"#utility.yul\":10592:10606   */\n      add\n        /* \"#utility.yul\":10578:10590   */\n      dup3\n        /* \"#utility.yul\":10544:10607   */\n      tag_267\n      jump\t// in\n    tag_273:\n        /* \"#utility.yul\":10447:10617   */\n      pop\n        /* \"#utility.yul\":10634:10638   */\n      dup1\n        /* \"#utility.yul\":10627:10638   */\n      swap2\n      pop\n        /* \"#utility.yul\":9718:10644   */\n      pop\n        /* \"#utility.yul\":9590:10644   */\n      swap3\n      swap2\n      pop\n      pop\n      jump\t// out\n        /* \"#utility.yul\":10710:11392   */\n    tag_274:\n        /* \"#utility.yul\":10833:10836   */\n      0x00\n        /* \"#utility.yul\":10869:10873   */\n      0x40\n        /* \"#utility.yul\":10864:10867   */\n      dup4\n        /* \"#utility.yul\":10860:10874   */\n      add\n        /* \"#utility.yul\":10959:10963   */\n      0x00\n        /* \"#utility.yul\":10952:10957   */\n      dup4\n        /* \"#utility.yul\":10948:10964   */\n      add\n        /* \"#utility.yul\":10942:10965   */\n      mload\n        /* \"#utility.yul\":11012:11015   */\n      dup5\n        /* \"#utility.yul\":11006:11010   */\n      dup3\n        /* \"#utility.yul\":11002:11016   */\n      sub\n        /* \"#utility.yul\":10995:10999   */\n      0x00\n        /* \"#utility.yul\":10990:10993   */\n      dup7\n        /* \"#utility.yul\":10986:11000   */\n      add\n        /* \"#utility.yul\":10979:11017   */\n      mstore\n        /* \"#utility.yul\":11038:11111   */\n      tag_276\n        /* \"#utility.yul\":11106:11110   */\n      dup3\n        /* \"#utility.yul\":11092:11104   */\n      dup3\n        /* \"#utility.yul\":11038:11111   */\n      tag_224\n      jump\t// in\n    tag_276:\n        /* \"#utility.yul\":11030:11111   */\n      swap2\n      pop\n        /* \"#utility.yul\":10884:11122   */\n      pop\n        /* \"#utility.yul\":11204:11208   */\n      0x20\n        /* \"#utility.yul\":11197:11202   */\n      dup4\n        /* \"#utility.yul\":11193:11209   */\n      add\n        /* \"#utility.yul\":11187:11210   */\n      mload\n        /* \"#utility.yul\":11257:11260   */\n      dup5\n        /* \"#utility.yul\":11251:11255   */\n      dup3\n        /* \"#utility.yul\":11247:11261   */\n      sub\n        /* \"#utility.yul\":11240:11244   */\n      0x20\n        /* \"#utility.yul\":11235:11238   */\n      dup7\n        /* \"#utility.yul\":11231:11245   */\n      add\n        /* \"#utility.yul\":11224:11262   */\n      mstore\n        /* \"#utility.yul\":11283:11354   */\n      tag_277\n        /* \"#utility.yul\":11349:11353   */\n      dup3\n        /* \"#utility.yul\":11335:11347   */\n      dup3\n        /* \"#utility.yul\":11283:11354   */\n      tag_214\n      jump\t// in\n    tag_277:\n        /* \"#utility.yul\":11275:11354   */\n      swap2\n      pop\n        /* \"#utility.yul\":11132:11365   */\n      pop\n        /* \"#utility.yul\":11382:11386   */\n      dup1\n        /* \"#utility.yul\":11375:11386   */\n      swap2\n      pop\n        /* \"#utility.yul\":10838:11392   */\n      pop\n        /* \"#utility.yul\":10710:11392   */\n      swap3\n      swap2\n      pop\n      pop\n      jump\t// out\n        /* \"#utility.yul\":11398:11506   */\n    tag_267:\n        /* \"#utility.yul\":11475:11499   */\n      tag_279\n        /* \"#utility.yul\":11493:11498   */\n      dup2\n        /* \"#utility.yul\":11475:11499   */\n      tag_280\n      jump\t// in\n    tag_279:\n        /* \"#utility.yul\":11470:11473   */\n      dup3\n        /* \"#utility.yul\":11463:11500   */\n      mstore\n        /* \"#utility.yul\":11398:11506   */\n      pop\n      pop\n      jump\t// out\n        /* \"#utility.yul\":11512:11787   */\n    tag_45:\n        /* \"#utility.yul\":11644:11647   */\n      0x00\n        /* \"#utility.yul\":11666:11761   */\n      tag_282\n        /* \"#utility.yul\":11757:11760   */\n      dup3\n        /* \"#utility.yul\":11748:11754   */\n      dup5\n        /* \"#utility.yul\":11666:11761   */\n      tag_232\n      jump\t// in\n    tag_282:\n        /* \"#utility.yul\":11659:11761   */\n      swap2\n      pop\n        /* \"#utility.yul\":11778:11781   */\n      dup2\n        /* \"#utility.yul\":11771:11781   */\n      swap1\n      pop\n        /* \"#utility.yul\":11512:11787   */\n      swap3\n      swap2\n      pop\n      pop\n      jump\t// out\n        /* \"#utility.yul\":11793:12062   */\n    tag_122:\n        /* \"#utility.yul\":11922:11925   */\n      0x00\n        /* \"#utility.yul\":11944:12036   */\n      tag_284\n        /* \"#utility.yul\":12032:12035   */\n      dup3\n        /* \"#utility.yul\":12023:12029   */\n      dup5\n        /* \"#utility.yul\":11944:12036   */\n      tag_238\n      jump\t// in\n    tag_284:\n        /* \"#utility.yul\":11937:12036   */\n      swap2\n      pop\n        /* \"#utility.yul\":12053:12056   */\n      dup2\n        /* \"#utility.yul\":12046:12056   */\n      swap1\n      pop\n        /* \"#utility.yul\":11793:12062   */\n      swap3\n      swap2\n      pop\n      pop\n      jump\t// out\n        /* \"#utility.yul\":12068:12290   */\n    tag_20:\n        /* \"#utility.yul\":12161:12165   */\n      0x00\n        /* \"#utility.yul\":12199:12201   */\n      0x20\n        /* \"#utility.yul\":12188:12197   */\n      dup3\n        /* \"#utility.yul\":12184:12202   */\n      add\n        /* \"#utility.yul\":12176:12202   */\n      swap1\n      pop\n        /* \"#utility.yul\":12212:12283   */\n      tag_286\n        /* \"#utility.yul\":12280:12281   */\n      0x00\n        /* \"#utility.yul\":12269:12278   */\n      dup4\n        /* \"#utility.yul\":12265:12282   */\n      add\n        /* \"#utility.yul\":12256:12262   */\n      dup5\n        /* \"#utility.yul\":12212:12283   */\n      tag_210\n      jump\t// in\n    tag_286:\n        /* \"#utility.yul\":12068:12290   */\n      swap3\n      swap2\n      pop\n      pop\n      jump\t// out\n        /* \"#utility.yul\":12296:12715   */\n    tag_82:\n        /* \"#utility.yul\":12462:12466   */\n      0x00\n        /* \"#utility.yul\":12500:12502   */\n      0x20\n        /* \"#utility.yul\":12489:12498   */\n      dup3\n        /* \"#utility.yul\":12485:12503   */\n      add\n        /* \"#utility.yul\":12477:12503   */\n      swap1\n      pop\n        /* \"#utility.yul\":12549:12558   */\n      dup2\n        /* \"#utility.yul\":12543:12547   */\n      dup2\n        /* \"#utility.yul\":12539:12559   */\n      sub\n        /* \"#utility.yul\":12535:12536   */\n      0x00\n        /* \"#utility.yul\":12524:12533   */\n      dup4\n        /* \"#utility.yul\":12520:12537   */\n      add\n        /* \"#utility.yul\":12513:12560   */\n      mstore\n        /* \"#utility.yul\":12577:12708   */\n      tag_288\n        /* \"#utility.yul\":12703:12707   */\n      dup2\n        /* \"#utility.yul\":12577:12708   */\n      tag_250\n      jump\t// in\n    tag_288:\n        /* \"#utility.yul\":12569:12708   */\n      swap1\n      pop\n        /* \"#utility.yul\":12296:12715   */\n      swap2\n      swap1\n      pop\n      jump\t// out\n        /* \"#utility.yul\":12721:13250   */\n    tag_75:\n        /* \"#utility.yul\":12915:12919   */\n      0x00\n        /* \"#utility.yul\":12953:12955   */\n      0x40\n        /* \"#utility.yul\":12942:12951   */\n      dup3\n        /* \"#utility.yul\":12938:12956   */\n      add\n        /* \"#utility.yul\":12930:12956   */\n      swap1\n      pop\n        /* \"#utility.yul\":13002:13011   */\n      dup2\n        /* \"#utility.yul\":12996:13000   */\n      dup2\n        /* \"#utility.yul\":12992:13012   */\n      sub\n        /* \"#utility.yul\":12988:12989   */\n      0x00\n        /* \"#utility.yul\":12977:12986   */\n      dup4\n        /* \"#utility.yul\":12973:12990   */\n      add\n        /* \"#utility.yul\":12966:13013   */\n      mstore\n        /* \"#utility.yul\":13030:13161   */\n      tag_290\n        /* \"#utility.yul\":13156:13160   */\n      dup2\n        /* \"#utility.yul\":13030:13161   */\n      tag_256\n      jump\t// in\n    tag_290:\n        /* \"#utility.yul\":13022:13161   */\n      swap1\n      pop\n        /* \"#utility.yul\":13171:13243   */\n      tag_291\n        /* \"#utility.yul\":13239:13241   */\n      0x20\n        /* \"#utility.yul\":13228:13237   */\n      dup4\n        /* \"#utility.yul\":13224:13242   */\n      add\n        /* \"#utility.yul\":13215:13221   */\n      dup5\n        /* \"#utility.yul\":13171:13243   */\n      tag_210\n      jump\t// in\n    tag_291:\n        /* \"#utility.yul\":12721:13250   */\n      swap3\n      swap2\n      pop\n      pop\n      jump\t// out\n        /* \"#utility.yul\":13256:13637   */\n    tag_14:\n        /* \"#utility.yul\":13403:13407   */\n      0x00\n        /* \"#utility.yul\":13441:13443   */\n      0x20\n        /* \"#utility.yul\":13430:13439   */\n      dup3\n        /* \"#utility.yul\":13426:13444   */\n      add\n        /* \"#utility.yul\":13418:13444   */\n      swap1\n      pop\n        /* \"#utility.yul\":13490:13499   */\n      dup2\n        /* \"#utility.yul\":13484:13488   */\n      dup2\n        /* \"#utility.yul\":13480:13500   */\n      sub\n        /* \"#utility.yul\":13476:13477   */\n      0x00\n        /* \"#utility.yul\":13465:13474   */\n      dup4\n        /* \"#utility.yul\":13461:13478   */\n      add\n        /* \"#utility.yul\":13454:13501   */\n      mstore\n        /* \"#utility.yul\":13518:13630   */\n      tag_293\n        /* \"#utility.yul\":13625:13629   */\n      dup2\n        /* \"#utility.yul\":13616:13622   */\n      dup5\n        /* \"#utility.yul\":13518:13630   */\n      tag_261\n      jump\t// in\n    tag_293:\n        /* \"#utility.yul\":13510:13630   */\n      swap1\n      pop\n        /* \"#utility.yul\":13256:13637   */\n      swap3\n      swap2\n      pop\n      pop\n      jump\t// out\n        /* \"#utility.yul\":13643:14024   */\n    tag_30:\n        /* \"#utility.yul\":13790:13794   */\n      0x00\n        /* \"#utility.yul\":13828:13830   */\n      0x20\n        /* \"#utility.yul\":13817:13826   */\n      dup3\n        /* \"#utility.yul\":13813:13831   */\n      add\n        /* \"#utility.yul\":13805:13831   */\n      swap1\n      pop\n        /* \"#utility.yul\":13877:13886   */\n      dup2\n        /* \"#utility.yul\":13871:13875   */\n      dup2\n        /* \"#utility.yul\":13867:13887   */\n      sub\n        /* \"#utility.yul\":13863:13864   */\n      0x00\n        /* \"#utility.yul\":13852:13861   */\n      dup4\n        /* \"#utility.yul\":13848:13865   */\n      add\n        /* \"#utility.yul\":13841:13888   */\n      mstore\n        /* \"#utility.yul\":13905:14017   */\n      tag_295\n        /* \"#utility.yul\":14012:14016   */\n      dup2\n        /* \"#utility.yul\":14003:14009   */\n      dup5\n        /* \"#utility.yul\":13905:14017   */\n      tag_268\n      jump\t// in\n    tag_295:\n        /* \"#utility.yul\":13897:14017   */\n      swap1\n      pop\n        /* \"#utility.yul\":13643:14024   */\n      swap3\n      swap2\n      pop\n      pop\n      jump\t// out\n        /* \"#utility.yul\":14030:14411   */\n    tag_40:\n        /* \"#utility.yul\":14177:14181   */\n      0x00\n        /* \"#utility.yul\":14215:14217   */\n      0x20\n        /* \"#utility.yul\":14204:14213   */\n      dup3\n        /* \"#utility.yul\":14200:14218   */\n      add\n        /* \"#utility.yul\":14192:14218   */\n      swap1\n      pop\n        /* \"#utility.yul\":14264:14273   */\n      dup2\n        /* \"#utility.yul\":14258:14262   */\n      dup2\n        /* \"#utility.yul\":14254:14274   */\n      sub\n        /* \"#utility.yul\":14250:14251   */\n      0x00\n        /* \"#utility.yul\":14239:14248   */\n      dup4\n        /* \"#utility.yul\":14235:14252   */\n      add\n        /* \"#utility.yul\":14228:14275   */\n      mstore\n        /* \"#utility.yul\":14292:14404   */\n      tag_297\n        /* \"#utility.yul\":14399:14403   */\n      dup2\n        /* \"#utility.yul\":14390:14396   */\n      dup5\n        /* \"#utility.yul\":14292:14404   */\n      tag_274\n      jump\t// in\n    tag_297:\n        /* \"#utility.yul\":14284:14404   */\n      swap1\n      pop\n        /* \"#utility.yul\":14030:14411   */\n      swap3\n      swap2\n      pop\n      pop\n      jump\t// out\n        /* \"#utility.yul\":14417:14546   */\n    tag_139:\n        /* \"#utility.yul\":14451:14457   */\n      0x00\n        /* \"#utility.yul\":14478:14498   */\n      tag_299\n      tag_300\n      jump\t// in\n    tag_299:\n        /* \"#utility.yul\":14468:14498   */\n      swap1\n      pop\n        /* \"#utility.yul\":14507:14540   */\n      tag_301\n        /* \"#utility.yul\":14535:14539   */\n      dup3\n        /* \"#utility.yul\":14527:14533   */\n      dup3\n        /* \"#utility.yul\":14507:14540   */\n      tag_302\n      jump\t// in\n    tag_301:\n        /* \"#utility.yul\":14417:14546   */\n      swap2\n      swap1\n      pop\n      jump\t// out\n        /* \"#utility.yul\":14552:14627   */\n    tag_300:\n        /* \"#utility.yul\":14585:14591   */\n      0x00\n        /* \"#utility.yul\":14618:14620   */\n      0x40\n        /* \"#utility.yul\":14612:14621   */\n      mload\n        /* \"#utility.yul\":14602:14621   */\n      swap1\n      pop\n        /* \"#utility.yul\":14552:14627   */\n      swap1\n      jump\t// out\n        /* \"#utility.yul\":14633:14940   */\n    tag_138:\n        /* \"#utility.yul\":14694:14698   */\n      0x00\n        /* \"#utility.yul\":14784:14802   */\n      0xffffffffffffffff\n        /* \"#utility.yul\":14776:14782   */\n      dup3\n        /* \"#utility.yul\":14773:14803   */\n      gt\n        /* \"#utility.yul\":14770:14826   */\n      iszero\n      tag_305\n      jumpi\n        /* \"#utility.yul\":14806:14824   */\n      tag_306\n      tag_307\n      jump\t// in\n    tag_306:\n        /* \"#utility.yul\":14770:14826   */\n    tag_305:\n        /* \"#utility.yul\":14844:14873   */\n      tag_308\n        /* \"#utility.yul\":14866:14872   */\n      dup3\n        /* \"#utility.yul\":14844:14873   */\n      tag_223\n      jump\t// in\n    tag_308:\n        /* \"#utility.yul\":14836:14873   */\n      swap1\n      pop\n        /* \"#utility.yul\":14928:14932   */\n      0x20\n        /* \"#utility.yul\":14922:14926   */\n      dup2\n        /* \"#utility.yul\":14918:14933   */\n      add\n        /* \"#utility.yul\":14910:14933   */\n      swap1\n      pop\n        /* \"#utility.yul\":14633:14940   */\n      swap2\n      swap1\n      pop\n      jump\t// out\n        /* \"#utility.yul\":14946:15254   */\n    tag_149:\n        /* \"#utility.yul\":15008:15012   */\n      0x00\n        /* \"#utility.yul\":15098:15116   */\n      0xffffffffffffffff\n        /* \"#utility.yul\":15090:15096   */\n      dup3\n        /* \"#utility.yul\":15087:15117   */\n      gt\n        /* \"#utility.yul\":15084:15140   */\n      iszero\n      tag_310\n      jumpi\n        /* \"#utility.yul\":15120:15138   */\n      tag_311\n      tag_307\n      jump\t// in\n    tag_311:\n        /* \"#utility.yul\":15084:15140   */\n    tag_310:\n        /* \"#utility.yul\":15158:15187   */\n      tag_312\n        /* \"#utility.yul\":15180:15186   */\n      dup3\n        /* \"#utility.yul\":15158:15187   */\n      tag_223\n      jump\t// in\n    tag_312:\n        /* \"#utility.yul\":15150:15187   */\n      swap1\n      pop\n        /* \"#utility.yul\":15242:15246   */\n      0x20\n        /* \"#utility.yul\":15236:15240   */\n      dup2\n        /* \"#utility.yul\":15232:15247   */\n      add\n        /* \"#utility.yul\":15224:15247   */\n      swap1\n      pop\n        /* \"#utility.yul\":14946:15254   */\n      swap2\n      swap1\n      pop\n      jump\t// out\n        /* \"#utility.yul\":15260:15401   */\n    tag_246:\n        /* \"#utility.yul\":15309:15313   */\n      0x00\n        /* \"#utility.yul\":15332:15335   */\n      dup2\n        /* \"#utility.yul\":15324:15335   */\n      swap1\n      pop\n        /* \"#utility.yul\":15355:15358   */\n      dup2\n        /* \"#utility.yul\":15352:15353   */\n      0x00\n        /* \"#utility.yul\":15345:15359   */\n      mstore\n        /* \"#utility.yul\":15389:15393   */\n      0x20\n        /* \"#utility.yul\":15386:15387   */\n      0x00\n        /* \"#utility.yul\":15376:15394   */\n      keccak256\n        /* \"#utility.yul\":15368:15394   */\n      swap1\n      pop\n        /* \"#utility.yul\":15260:15401   */\n      swap2\n      swap1\n      pop\n      jump\t// out\n        /* \"#utility.yul\":15407:15505   */\n    tag_217:\n        /* \"#utility.yul\":15458:15464   */\n      0x00\n        /* \"#utility.yul\":15492:15497   */\n      dup2\n        /* \"#utility.yul\":15486:15498   */\n      mload\n        /* \"#utility.yul\":15476:15498   */\n      swap1\n      pop\n        /* \"#utility.yul\":15407:15505   */\n      swap2\n      swap1\n      pop\n      jump\t// out\n        /* \"#utility.yul\":15511:15610   */\n    tag_227:\n        /* \"#utility.yul\":15563:15569   */\n      0x00\n        /* \"#utility.yul\":15597:15602   */\n      dup2\n        /* \"#utility.yul\":15591:15603   */\n      mload\n        /* \"#utility.yul\":15581:15603   */\n      swap1\n      pop\n        /* \"#utility.yul\":15511:15610   */\n      swap2\n      swap1\n      pop\n      jump\t// out\n        /* \"#utility.yul\":15616:15774   */\n    tag_219:\n        /* \"#utility.yul\":15689:15700   */\n      0x00\n        /* \"#utility.yul\":15723:15729   */\n      dup3\n        /* \"#utility.yul\":15718:15721   */\n      dup3\n        /* \"#utility.yul\":15711:15730   */\n      mstore\n        /* \"#utility.yul\":15763:15767   */\n      0x20\n        /* \"#utility.yul\":15758:15761   */\n      dup3\n        /* \"#utility.yul\":15754:15768   */\n      add\n        /* \"#utility.yul\":15739:15768   */\n      swap1\n      pop\n        /* \"#utility.yul\":15616:15774   */\n      swap3\n      swap2\n      pop\n      pop\n      jump\t// out\n        /* \"#utility.yul\":15780:15939   */\n    tag_229:\n        /* \"#utility.yul\":15854:15865   */\n      0x00\n        /* \"#utility.yul\":15888:15894   */\n      dup3\n        /* \"#utility.yul\":15883:15886   */\n      dup3\n        /* \"#utility.yul\":15876:15895   */\n      mstore\n        /* \"#utility.yul\":15928:15932   */\n      0x20\n        /* \"#utility.yul\":15923:15926   */\n      dup3\n        /* \"#utility.yul\":15919:15933   */\n      add\n        /* \"#utility.yul\":15904:15933   */\n      swap1\n      pop\n        /* \"#utility.yul\":15780:15939   */\n      swap3\n      swap2\n      pop\n      pop\n      jump\t// out\n        /* \"#utility.yul\":15945:16114   */\n    tag_253:\n        /* \"#utility.yul\":16029:16040   */\n      0x00\n        /* \"#utility.yul\":16063:16069   */\n      dup3\n        /* \"#utility.yul\":16058:16061   */\n      dup3\n        /* \"#utility.yul\":16051:16070   */\n      mstore\n        /* \"#utility.yul\":16103:16107   */\n      0x20\n        /* \"#utility.yul\":16098:16101   */\n      dup3\n        /* \"#utility.yul\":16094:16108   */\n      add\n        /* \"#utility.yul\":16079:16108   */\n      swap1\n      pop\n        /* \"#utility.yul\":15945:16114   */\n      swap3\n      swap2\n      pop\n      pop\n      jump\t// out\n        /* \"#utility.yul\":16120:16268   */\n    tag_236:\n        /* \"#utility.yul\":16222:16233   */\n      0x00\n        /* \"#utility.yul\":16259:16262   */\n      dup2\n        /* \"#utility.yul\":16244:16262   */\n      swap1\n      pop\n        /* \"#utility.yul\":16120:16268   */\n      swap3\n      swap2\n      pop\n      pop\n      jump\t// out\n        /* \"#utility.yul\":16274:16351   */\n    tag_213:\n        /* \"#utility.yul\":16311:16318   */\n      0x00\n        /* \"#utility.yul\":16340:16345   */\n      dup2\n        /* \"#utility.yul\":16329:16345   */\n      swap1\n      pop\n        /* \"#utility.yul\":16274:16351   */\n      swap2\n      swap1\n      pop\n      jump\t// out\n        /* \"#utility.yul\":16357:16434   */\n    tag_280:\n        /* \"#utility.yul\":16394:16401   */\n      0x00\n        /* \"#utility.yul\":16423:16428   */\n      dup2\n        /* \"#utility.yul\":16412:16428   */\n      swap1\n      pop\n        /* \"#utility.yul\":16357:16434   */\n      swap2\n      swap1\n      pop\n      jump\t// out\n        /* \"#utility.yul\":16440:16594   */\n    tag_144:\n        /* \"#utility.yul\":16524:16530   */\n      dup3\n        /* \"#utility.yul\":16519:16522   */\n      dup2\n        /* \"#utility.yul\":16514:16517   */\n      dup4\n        /* \"#utility.yul\":16501:16531   */\n      calldatacopy\n        /* \"#utility.yul\":16586:16587   */\n      0x00\n        /* \"#utility.yul\":16577:16583   */\n      dup4\n        /* \"#utility.yul\":16572:16575   */\n      dup4\n        /* \"#utility.yul\":16568:16584   */\n      add\n        /* \"#utility.yul\":16561:16588   */\n      mstore\n        /* \"#utility.yul\":16440:16594   */\n      pop\n      pop\n      pop\n      jump\t// out\n        /* \"#utility.yul\":16600:16907   */\n    tag_221:\n        /* \"#utility.yul\":16668:16669   */\n      0x00\n        /* \"#utility.yul\":16678:16791   */\n    tag_324:\n        /* \"#utility.yul\":16692:16698   */\n      dup4\n        /* \"#utility.yul\":16689:16690   */\n      dup2\n        /* \"#utility.yul\":16686:16699   */\n      lt\n        /* \"#utility.yul\":16678:16791   */\n      iszero\n      tag_326\n      jumpi\n        /* \"#utility.yul\":16777:16778   */\n      dup1\n        /* \"#utility.yul\":16772:16775   */\n      dup3\n        /* \"#utility.yul\":16768:16779   */\n      add\n        /* \"#utility.yul\":16762:16780   */\n      mload\n        /* \"#utility.yul\":16758:16759   */\n      dup2\n        /* \"#utility.yul\":16753:16756   */\n      dup5\n        /* \"#utility.yul\":16749:16760   */\n      add\n        /* \"#utility.yul\":16742:16781   */\n      mstore\n        /* \"#utility.yul\":16714:16716   */\n      0x20\n        /* \"#utility.yul\":16711:16712   */\n      dup2\n        /* \"#utility.yul\":16707:16717   */\n      add\n        /* \"#utility.yul\":16702:16717   */\n      swap1\n      pop\n        /* \"#utility.yul\":16678:16791   */\n      jump(tag_324)\n    tag_326:\n        /* \"#utility.yul\":16809:16815   */\n      dup4\n        /* \"#utility.yul\":16806:16807   */\n      dup2\n        /* \"#utility.yul\":16803:16816   */\n      gt\n        /* \"#utility.yul\":16800:16901   */\n      iszero\n      tag_327\n      jumpi\n        /* \"#utility.yul\":16889:16890   */\n      0x00\n        /* \"#utility.yul\":16880:16886   */\n      dup5\n        /* \"#utility.yul\":16875:16878   */\n      dup5\n        /* \"#utility.yul\":16871:16887   */\n      add\n        /* \"#utility.yul\":16864:16891   */\n      mstore\n        /* \"#utility.yul\":16800:16901   */\n    tag_327:\n        /* \"#utility.yul\":16649:16907   */\n      pop\n        /* \"#utility.yul\":16600:16907   */\n      pop\n      pop\n      pop\n      jump\t// out\n        /* \"#utility.yul\":16913:17233   */\n    tag_47:\n        /* \"#utility.yul\":16957:16963   */\n      0x00\n        /* \"#utility.yul\":16994:16995   */\n      0x02\n        /* \"#utility.yul\":16988:16992   */\n      dup3\n        /* \"#utility.yul\":16984:16996   */\n      div\n        /* \"#utility.yul\":16974:16996   */\n      swap1\n      pop\n        /* \"#utility.yul\":17041:17042   */\n      0x01\n        /* \"#utility.yul\":17035:17039   */\n      dup3\n        /* \"#utility.yul\":17031:17043   */\n      and\n        /* \"#utility.yul\":17062:17080   */\n      dup1\n        /* \"#utility.yul\":17052:17133   */\n      tag_329\n      jumpi\n        /* \"#utility.yul\":17118:17122   */\n      0x7f\n        /* \"#utility.yul\":17110:17116   */\n      dup3\n        /* \"#utility.yul\":17106:17123   */\n      and\n        /* \"#utility.yul\":17096:17123   */\n      swap2\n      pop\n        /* \"#utility.yul\":17052:17133   */\n    tag_329:\n        /* \"#utility.yul\":17180:17182   */\n      0x20\n        /* \"#utility.yul\":17172:17178   */\n      dup3\n        /* \"#utility.yul\":17169:17183   */\n      lt\n        /* \"#utility.yul\":17149:17167   */\n      dup2\n        /* \"#utility.yul\":17146:17184   */\n      eq\n        /* \"#utility.yul\":17143:17227   */\n      iszero\n      tag_330\n      jumpi\n        /* \"#utility.yul\":17199:17217   */\n      tag_331\n      tag_332\n      jump\t// in\n    tag_331:\n        /* \"#utility.yul\":17143:17227   */\n    tag_330:\n        /* \"#utility.yul\":16964:17233   */\n      pop\n        /* \"#utility.yul\":16913:17233   */\n      swap2\n      swap1\n      pop\n      jump\t// out\n        /* \"#utility.yul\":17239:17520   */\n    tag_302:\n        /* \"#utility.yul\":17322:17349   */\n      tag_334\n        /* \"#utility.yul\":17344:17348   */\n      dup3\n        /* \"#utility.yul\":17322:17349   */\n      tag_223\n      jump\t// in\n    tag_334:\n        /* \"#utility.yul\":17314:17320   */\n      dup2\n        /* \"#utility.yul\":17310:17350   */\n      add\n        /* \"#utility.yul\":17452:17458   */\n      dup2\n        /* \"#utility.yul\":17440:17450   */\n      dup2\n        /* \"#utility.yul\":17437:17459   */\n      lt\n        /* \"#utility.yul\":17416:17434   */\n      0xffffffffffffffff\n        /* \"#utility.yul\":17404:17414   */\n      dup3\n        /* \"#utility.yul\":17401:17435   */\n      gt\n        /* \"#utility.yul\":17398:17460   */\n      or\n        /* \"#utility.yul\":17395:17483   */\n      iszero\n      tag_335\n      jumpi\n        /* \"#utility.yul\":17463:17481   */\n      tag_336\n      tag_307\n      jump\t// in\n    tag_336:\n        /* \"#utility.yul\":17395:17483   */\n    tag_335:\n        /* \"#utility.yul\":17503:17513   */\n      dup1\n        /* \"#utility.yul\":17499:17501   */\n      0x40\n        /* \"#utility.yul\":17492:17514   */\n      mstore\n        /* \"#utility.yul\":17282:17520   */\n      pop\n        /* \"#utility.yul\":17239:17520   */\n      pop\n      pop\n      jump\t// out\n        /* \"#utility.yul\":17526:17706   */\n    tag_332:\n        /* \"#utility.yul\":17574:17651   */\n      0x4e487b7100000000000000000000000000000000000000000000000000000000\n        /* \"#utility.yul\":17571:17572   */\n      0x00\n        /* \"#utility.yul\":17564:17652   */\n      mstore\n        /* \"#utility.yul\":17671:17675   */\n      0x22\n        /* \"#utility.yul\":17668:17669   */\n      0x04\n        /* \"#utility.yul\":17661:17676   */\n      mstore\n        /* \"#utility.yul\":17695:17699   */\n      0x24\n        /* \"#utility.yul\":17692:17693   */\n      0x00\n        /* \"#utility.yul\":17685:17700   */\n      revert\n        /* \"#utility.yul\":17712:17892   */\n    tag_307:\n        /* \"#utility.yul\":17760:17837   */\n      0x4e487b7100000000000000000000000000000000000000000000000000000000\n        /* \"#utility.yul\":17757:17758   */\n      0x00\n        /* \"#utility.yul\":17750:17838   */\n      mstore\n        /* \"#utility.yul\":17857:17861   */\n      0x41\n        /* \"#utility.yul\":17854:17855   */\n      0x04\n        /* \"#utility.yul\":17847:17862   */\n      mstore\n        /* \"#utility.yul\":17881:17885   */\n      0x24\n        /* \"#utility.yul\":17878:17879   */\n      0x00\n        /* \"#utility.yul\":17871:17886   */\n      revert\n        /* \"#utility.yul\":17898:18015   */\n    tag_157:\n        /* \"#utility.yul\":18007:18008   */\n      0x00\n        /* \"#utility.yul\":18004:18005   */\n      dup1\n        /* \"#utility.yul\":17997:18009   */\n      revert\n        /* \"#utility.yul\":18021:18138   */\n    tag_142:\n        /* \"#utility.yul\":18130:18131   */\n      0x00\n        /* \"#utility.yul\":18127:18128   */\n      dup1\n        /* \"#utility.yul\":18120:18132   */\n      revert\n        /* \"#utility.yul\":18144:18261   */\n    tag_174:\n        /* \"#utility.yul\":18253:18254   */\n      0x00\n        /* \"#utility.yul\":18250:18251   */\n      dup1\n        /* \"#utility.yul\":18243:18255   */\n      revert\n        /* \"#utility.yul\":18267:18384   */\n    tag_171:\n        /* \"#utility.yul\":18376:18377   */\n      0x00\n        /* \"#utility.yul\":18373:18374   */\n      dup1\n        /* \"#utility.yul\":18366:18378   */\n      revert\n        /* \"#utility.yul\":18390:18492   */\n    tag_223:\n        /* \"#utility.yul\":18431:18437   */\n      0x00\n        /* \"#utility.yul\":18482:18484   */\n      0x1f\n        /* \"#utility.yul\":18478:18485   */\n      not\n        /* \"#utility.yul\":18473:18475   */\n      0x1f\n        /* \"#utility.yul\":18466:18471   */\n      dup4\n        /* \"#utility.yul\":18462:18476   */\n      add\n        /* \"#utility.yul\":18458:18486   */\n      and\n        /* \"#utility.yul\":18448:18486   */\n      swap1\n      pop\n        /* \"#utility.yul\":18390:18492   */\n      swap2\n      swap1\n      pop\n      jump\t// out\n        /* \"#utility.yul\":18498:18672   */\n    tag_255:\n        /* \"#utility.yul\":18638:18664   */\n      0x4163636f756e7420616c7265616479206578697374696e670000000000000000\n        /* \"#utility.yul\":18634:18635   */\n      0x00\n        /* \"#utility.yul\":18626:18632   */\n      dup3\n        /* \"#utility.yul\":18622:18636   */\n      add\n        /* \"#utility.yul\":18615:18665   */\n      mstore\n        /* \"#utility.yul\":18498:18672   */\n      pop\n      jump\t// out\n        /* \"#utility.yul\":18678:18835   */\n    tag_260:\n        /* \"#utility.yul\":18818:18827   */\n      0x7375636365737300000000000000000000000000000000000000000000000000\n        /* \"#utility.yul\":18814:18815   */\n      0x00\n        /* \"#utility.yul\":18806:18812   */\n      dup3\n        /* \"#utility.yul\":18802:18816   */\n      add\n        /* \"#utility.yul\":18795:18828   */\n      mstore\n        /* \"#utility.yul\":18678:18835   */\n      pop\n      jump\t// out\n        /* \"#utility.yul\":18841:18963   */\n    tag_167:\n        /* \"#utility.yul\":18914:18938   */\n      tag_347\n        /* \"#utility.yul\":18932:18937   */\n      dup2\n        /* \"#utility.yul\":18914:18938   */\n      tag_280\n      jump\t// in\n    tag_347:\n        /* \"#utility.yul\":18907:18912   */\n      dup2\n        /* \"#utility.yul\":18904:18939   */\n      eq\n        /* \"#utility.yul\":18894:18957   */\n      tag_348\n      jumpi\n        /* \"#utility.yul\":18953:18954   */\n      0x00\n        /* \"#utility.yul\":18950:18951   */\n      dup1\n        /* \"#utility.yul\":18943:18955   */\n      revert\n        /* \"#utility.yul\":18894:18957   */\n    tag_348:\n        /* \"#utility.yul\":18841:18963   */\n      pop\n      jump\t// out\n\n    auxdata: 0xa26469706673582212204ef86315ee2dd4026cf1e63905bb0dff294a87de7468e82f50362f785195f7ae64736f6c63430008070033\n}\n",
				"bytecode": {
					"linkReferences": {},
					"object": "608060405234801561001057600080fd5b5061152c806100206000396000f3fe608060405234801561001057600080fd5b50600436106100625760003560e01c8063174ba7ff146100675780635b62132d14610097578063b24c908a146100c7578063b8428403146100f7578063c3efbe3814610127578063ca5e208f14610157575b600080fd5b610081600480360381019061007c9190610c9d565b610187565b60405161008e91906111fb565b60405180910390f35b6100b160048036038101906100ac9190610ce6565b61039f565b6040516100be9190611192565b60405180910390f35b6100e160048036038101906100dc9190610d8d565b610566565b6040516100ee9190611192565b60405180910390f35b610111600480360381019061010c9190610c9d565b610688565b60405161011e919061121d565b60405180910390f35b610141600480360381019061013c9190610e34565b6106c1565b60405161014e9190611192565b60405180910390f35b610171600480360381019061016c9190610c9d565b6108b0565b60405161017e919061123f565b60405180910390f35b61018f610a9b565b6000826040516020016101a29190611164565b6040516020818303038152906040528051906020012090506000808281526020019081526020016000206040518060800160405290816000820180546101e7906113a7565b80601f0160208091040260200160405190810160405280929190818152602001828054610213906113a7565b80156102605780601f1061023557610100808354040283529160200191610260565b820191906000526020600020905b81548152906001019060200180831161024357829003601f168201915b50505050508152602001600182018054610279906113a7565b80601f01602080910402602001604051908101604052809291908181526020018280546102a5906113a7565b80156102f25780601f106102c7576101008083540402835291602001916102f2565b820191906000526020600020905b8154815290600101906020018083116102d557829003601f168201915b5050505050815260200160028201805461030b906113a7565b80601f0160208091040260200160405190810160405280929190818152602001828054610337906113a7565b80156103845780601f1061035957610100808354040283529160200191610384565b820191906000526020600020905b81548152906001019060200180831161036757829003601f168201915b50505050508152602001600382015481525050915050919050565b600080846040516020016103b39190611164565b6040516020818303038152906040528051906020012090506000600160008381526020019081526020016000206040518060400160405290816000820180546103fb906113a7565b80601f0160208091040260200160405190810160405280929190818152602001828054610427906113a7565b80156104745780601f1061044957610100808354040283529160200191610474565b820191906000526020600020905b81548152906001019060200180831161045757829003601f168201915b5050505050815260200160018201805461048d906113a7565b80601f01602080910402602001604051908101604052809291908181526020018280546104b9906113a7565b80156105065780601f106104db57610100808354040283529160200191610506565b820191906000526020600020905b8154815290600101906020018083116104e957829003601f168201915b50505050508152505090508481600001819052508381602001819052507fc8922d91fbabbe8df5d667708c678575856a856a2a465ebd9626a40ab6a16f5f8260405161055291906111cd565b60405180910390a181925050509392505050565b6000808460405160200161057a9190611164565b60405160208183030381529060405280519060200120905061059c8186610a2d565b6105db576040517f08c379a00000000000000000000000000000000000000000000000000000000081526004016105d2906111ad565b60405180910390fd5b6000806000838152602001908152602001600020905085816000019080519060200190610609929190610ac3565b5084816001019080519060200190610622929190610ac3565b508381600201908051906020019061063b929190610ac3565b504281600301819055507fc8922d91fbabbe8df5d667708c678575856a856a2a465ebd9626a40ab6a16f5f8260405161067491906111cd565b60405180910390a181925050509392505050565b610690610b49565b6000826040516020016106a39190611164565b60405160208183030381529060405280519060200120905050919050565b600080846040516020016106d59190611164565b60405160208183030381529060405280519060200120905060006002600083815260200190815260200160002060405180608001604052908160008201805461071d906113a7565b80601f0160208091040260200160405190810160405280929190818152602001828054610749906113a7565b80156107965780601f1061076b57610100808354040283529160200191610796565b820191906000526020600020905b81548152906001019060200180831161077957829003601f168201915b505050505081526020016001820180546107af906113a7565b80601f01602080910402602001604051908101604052809291908181526020018280546107db906113a7565b80156108285780601f106107fd57610100808354040283529160200191610828565b820191906000526020600020905b81548152906001019060200180831161080b57829003601f168201915b5050505050815260200160028201548152602001600382015481525050905085816000018190525084816020018190525042816040018181525050838160600181815250507fc8922d91fbabbe8df5d667708c678575856a856a2a465ebd9626a40ab6a16f5f8260405161089c91906111cd565b60405180910390a181925050509392505050565b6108b8610b71565b6000826040516020016108cb9190611164565b60405160208183030381529060405280519060200120905060016000828152602001908152602001600020604051806040016040529081600082018054610911906113a7565b80601f016020809104026020016040519081016040528092919081815260200182805461093d906113a7565b801561098a5780601f1061095f5761010080835404028352916020019161098a565b820191906000526020600020905b81548152906001019060200180831161096d57829003601f168201915b505050505081526020016001820180546109a3906113a7565b80601f01602080910402602001604051908101604052809291908181526020018280546109cf906113a7565b8015610a1c5780601f106109f157610100808354040283529160200191610a1c565b820191906000526020600020905b8154815290600101906020018083116109ff57829003601f168201915b505050505081525050915050919050565b600081604051602001610a409190611164565b60405160208183030381529060405280519060200120600080858152602001908152602001600020600001604051602001610a7b919061117b565b604051602081830303815290604052805190602001201415905092915050565b6040518060800160405280606081526020016060815260200160608152602001600081525090565b828054610acf906113a7565b90600052602060002090601f016020900481019282610af15760008555610b38565b82601f10610b0a57805160ff1916838001178555610b38565b82800160010185558215610b38579182015b82811115610b37578251825591602001919060010190610b1c565b5b509050610b459190610b8b565b5090565b6040518060800160405280606081526020016060815260200160008152602001600081525090565b604051806040016040528060608152602001606081525090565b5b80821115610ba4576000816000905550600101610b8c565b5090565b6000610bbb610bb684611286565b611261565b905082815260208101848484011115610bd757610bd661146d565b5b610be2848285611365565b509392505050565b6000610bfd610bf8846112b7565b611261565b905082815260208101848484011115610c1957610c1861146d565b5b610c24848285611365565b509392505050565b600082601f830112610c4157610c40611468565b5b8135610c51848260208601610ba8565b91505092915050565b600082601f830112610c6f57610c6e611468565b5b8135610c7f848260208601610bea565b91505092915050565b600081359050610c97816114df565b92915050565b600060208284031215610cb357610cb2611477565b5b600082013567ffffffffffffffff811115610cd157610cd0611472565b5b610cdd84828501610c5a565b91505092915050565b600080600060608486031215610cff57610cfe611477565b5b600084013567ffffffffffffffff811115610d1d57610d1c611472565b5b610d2986828701610c5a565b935050602084013567ffffffffffffffff811115610d4a57610d49611472565b5b610d5686828701610c5a565b925050604084013567ffffffffffffffff811115610d7757610d76611472565b5b610d8386828701610c2c565b9150509250925092565b600080600060608486031215610da657610da5611477565b5b600084013567ffffffffffffffff811115610dc457610dc3611472565b5b610dd086828701610c5a565b935050602084013567ffffffffffffffff811115610df157610df0611472565b5b610dfd86828701610c5a565b925050604084013567ffffffffffffffff811115610e1e57610e1d611472565b5b610e2a86828701610c5a565b9150509250925092565b600080600060608486031215610e4d57610e4c611477565b5b600084013567ffffffffffffffff811115610e6b57610e6a611472565b5b610e7786828701610c5a565b935050602084013567ffffffffffffffff811115610e9857610e97611472565b5b610ea486828701610c5a565b9250506040610eb586828701610c88565b9150509250925092565b610ec881611351565b82525050565b6000610ed9826112fd565b610ee38185611313565b9350610ef3818560208601611374565b610efc8161147c565b840191505092915050565b6000610f1282611308565b610f1c8185611324565b9350610f2c818560208601611374565b610f358161147c565b840191505092915050565b6000610f4b82611308565b610f558185611346565b9350610f65818560208601611374565b80840191505092915050565b60008154610f7e816113a7565b610f888186611346565b94506001821660008114610fa35760018114610fb457610fe7565b60ff19831686528186019350610fe7565b610fbd856112e8565b60005b83811015610fdf57815481890152600182019150602081019050610fc0565b838801955050505b50505092915050565b6000610ffd601883611335565b91506110088261148d565b602082019050919050565b6000611020600783611335565b915061102b826114b6565b602082019050919050565b600060808301600083015184820360008601526110538282610f07565b9150506020830151848203602086015261106d8282610f07565b915050604083015184820360408601526110878282610f07565b915050606083015161109c6060860182611155565b508091505092915050565b600060808301600083015184820360008601526110c48282610f07565b915050602083015184820360208601526110de8282610f07565b91505060408301516110f36040860182611155565b5060608301516111066060860182611155565b508091505092915050565b6000604083016000830151848203600086015261112e8282610f07565b915050602083015184820360208601526111488282610ece565b9150508091505092915050565b61115e8161135b565b82525050565b60006111708284610f40565b915081905092915050565b60006111878284610f71565b915081905092915050565b60006020820190506111a76000830184610ebf565b92915050565b600060208201905081810360008301526111c681610ff0565b9050919050565b600060408201905081810360008301526111e681611013565b90506111f56020830184610ebf565b92915050565b600060208201905081810360008301526112158184611036565b905092915050565b6000602082019050818103600083015261123781846110a7565b905092915050565b600060208201905081810360008301526112598184611111565b905092915050565b600061126b61127c565b905061127782826113d9565b919050565b6000604051905090565b600067ffffffffffffffff8211156112a1576112a0611439565b5b6112aa8261147c565b9050602081019050919050565b600067ffffffffffffffff8211156112d2576112d1611439565b5b6112db8261147c565b9050602081019050919050565b60008190508160005260206000209050919050565b600081519050919050565b600081519050919050565b600082825260208201905092915050565b600082825260208201905092915050565b600082825260208201905092915050565b600081905092915050565b6000819050919050565b6000819050919050565b82818337600083830152505050565b60005b83811015611392578082015181840152602081019050611377565b838111156113a1576000848401525b50505050565b600060028204905060018216806113bf57607f821691505b602082108114156113d3576113d261140a565b5b50919050565b6113e28261147c565b810181811067ffffffffffffffff8211171561140157611400611439565b5b80604052505050565b7f4e487b7100000000000000000000000000000000000000000000000000000000600052602260045260246000fd5b7f4e487b7100000000000000000000000000000000000000000000000000000000600052604160045260246000fd5b600080fd5b600080fd5b600080fd5b600080fd5b6000601f19601f8301169050919050565b7f4163636f756e7420616c7265616479206578697374696e670000000000000000600082015250565b7f7375636365737300000000000000000000000000000000000000000000000000600082015250565b6114e88161135b565b81146114f357600080fd5b5056fea26469706673582212204ef86315ee2dd4026cf1e63905bb0dff294a87de7468e82f50362f785195f7ae64736f6c63430008070033",
					"opcodes": "PUSH1 0x80 PUSH1 0x40 MSTORE CALLVALUE DUP1 ISZERO PUSH2 0x10 JUMPI PUSH1 0x0 DUP1 REVERT JUMPDEST POP PUSH2 0x152C DUP1 PUSH2 0x20 PUSH1 0x0 CODECOPY PUSH1 0x0 RETURN INVALID PUSH1 0x80 PUSH1 0x40 MSTORE CALLVALUE DUP1 ISZERO PUSH2 0x10 JUMPI PUSH1 0x0 DUP1 REVERT JUMPDEST POP PUSH1 0x4 CALLDATASIZE LT PUSH2 0x62 JUMPI PUSH1 0x0 CALLDATALOAD PUSH1 0xE0 SHR DUP1 PUSH4 0x174BA7FF EQ PUSH2 0x67 JUMPI DUP1 PUSH4 0x5B62132D EQ PUSH2 0x97 JUMPI DUP1 PUSH4 0xB24C908A EQ PUSH2 0xC7 JUMPI DUP1 PUSH4 0xB8428403 EQ PUSH2 0xF7 JUMPI DUP1 PUSH4 0xC3EFBE38 EQ PUSH2 0x127 JUMPI DUP1 PUSH4 0xCA5E208F EQ PUSH2 0x157 JUMPI JUMPDEST PUSH1 0x0 DUP1 REVERT JUMPDEST PUSH2 0x81 PUSH1 0x4 DUP1 CALLDATASIZE SUB DUP2 ADD SWAP1 PUSH2 0x7C SWAP2 SWAP1 PUSH2 0xC9D JUMP JUMPDEST PUSH2 0x187 JUMP JUMPDEST PUSH1 0x40 MLOAD PUSH2 0x8E SWAP2 SWAP1 PUSH2 0x11FB JUMP JUMPDEST PUSH1 0x40 MLOAD DUP1 SWAP2 SUB SWAP1 RETURN JUMPDEST PUSH2 0xB1 PUSH1 0x4 DUP1 CALLDATASIZE SUB DUP2 ADD SWAP1 PUSH2 0xAC SWAP2 SWAP1 PUSH2 0xCE6 JUMP JUMPDEST PUSH2 0x39F JUMP JUMPDEST PUSH1 0x40 MLOAD PUSH2 0xBE SWAP2 SWAP1 PUSH2 0x1192 JUMP JUMPDEST PUSH1 0x40 MLOAD DUP1 SWAP2 SUB SWAP1 RETURN JUMPDEST PUSH2 0xE1 PUSH1 0x4 DUP1 CALLDATASIZE SUB DUP2 ADD SWAP1 PUSH2 0xDC SWAP2 SWAP1 PUSH2 0xD8D JUMP JUMPDEST PUSH2 0x566 JUMP JUMPDEST PUSH1 0x40 MLOAD PUSH2 0xEE SWAP2 SWAP1 PUSH2 0x1192 JUMP JUMPDEST PUSH1 0x40 MLOAD DUP1 SWAP2 SUB SWAP1 RETURN JUMPDEST PUSH2 0x111 PUSH1 0x4 DUP1 CALLDATASIZE SUB DUP2 ADD SWAP1 PUSH2 0x10C SWAP2 SWAP1 PUSH2 0xC9D JUMP JUMPDEST PUSH2 0x688 JUMP JUMPDEST PUSH1 0x40 MLOAD PUSH2 0x11E SWAP2 SWAP1 PUSH2 0x121D JUMP JUMPDEST PUSH1 0x40 MLOAD DUP1 SWAP2 SUB SWAP1 RETURN JUMPDEST PUSH2 0x141 PUSH1 0x4 DUP1 CALLDATASIZE SUB DUP2 ADD SWAP1 PUSH2 0x13C SWAP2 SWAP1 PUSH2 0xE34 JUMP JUMPDEST PUSH2 0x6C1 JUMP JUMPDEST PUSH1 0x40 MLOAD PUSH2 0x14E SWAP2 SWAP1 PUSH2 0x1192 JUMP JUMPDEST PUSH1 0x40 MLOAD DUP1 SWAP2 SUB SWAP1 RETURN JUMPDEST PUSH2 0x171 PUSH1 0x4 DUP1 CALLDATASIZE SUB DUP2 ADD SWAP1 PUSH2 0x16C SWAP2 SWAP1 PUSH2 0xC9D JUMP JUMPDEST PUSH2 0x8B0 JUMP JUMPDEST PUSH1 0x40 MLOAD PUSH2 0x17E SWAP2 SWAP1 PUSH2 0x123F JUMP JUMPDEST PUSH1 0x40 MLOAD DUP1 SWAP2 SUB SWAP1 RETURN JUMPDEST PUSH2 0x18F PUSH2 0xA9B JUMP JUMPDEST PUSH1 0x0 DUP3 PUSH1 0x40 MLOAD PUSH1 0x20 ADD PUSH2 0x1A2 SWAP2 SWAP1 PUSH2 0x1164 JUMP JUMPDEST PUSH1 0x40 MLOAD PUSH1 0x20 DUP2 DUP4 SUB SUB DUP2 MSTORE SWAP1 PUSH1 0x40 MSTORE DUP1 MLOAD SWAP1 PUSH1 0x20 ADD KECCAK256 SWAP1 POP PUSH1 0x0 DUP1 DUP3 DUP2 MSTORE PUSH1 0x20 ADD SWAP1 DUP2 MSTORE PUSH1 0x20 ADD PUSH1 0x0 KECCAK256 PUSH1 0x40 MLOAD DUP1 PUSH1 0x80 ADD PUSH1 0x40 MSTORE SWAP1 DUP2 PUSH1 0x0 DUP3 ADD DUP1 SLOAD PUSH2 0x1E7 SWAP1 PUSH2 0x13A7 JUMP JUMPDEST DUP1 PUSH1 0x1F ADD PUSH1 0x20 DUP1 SWAP2 DIV MUL PUSH1 0x20 ADD PUSH1 0x40 MLOAD SWAP1 DUP2 ADD PUSH1 0x40 MSTORE DUP1 SWAP3 SWAP2 SWAP1 DUP2 DUP2 MSTORE PUSH1 0x20 ADD DUP3 DUP1 SLOAD PUSH2 0x213 SWAP1 PUSH2 0x13A7 JUMP JUMPDEST DUP1 ISZERO PUSH2 0x260 JUMPI DUP1 PUSH1 0x1F LT PUSH2 0x235 JUMPI PUSH2 0x100 DUP1 DUP4 SLOAD DIV MUL DUP4 MSTORE SWAP2 PUSH1 0x20 ADD SWAP2 PUSH2 0x260 JUMP JUMPDEST DUP3 ADD SWAP2 SWAP1 PUSH1 0x0 MSTORE PUSH1 0x20 PUSH1 0x0 KECCAK256 SWAP1 JUMPDEST DUP2 SLOAD DUP2 MSTORE SWAP1 PUSH1 0x1 ADD SWAP1 PUSH1 0x20 ADD DUP1 DUP4 GT PUSH2 0x243 JUMPI DUP3 SWAP1 SUB PUSH1 0x1F AND DUP3 ADD SWAP2 JUMPDEST POP POP POP POP POP DUP2 MSTORE PUSH1 0x20 ADD PUSH1 0x1 DUP3 ADD DUP1 SLOAD PUSH2 0x279 SWAP1 PUSH2 0x13A7 JUMP JUMPDEST DUP1 PUSH1 0x1F ADD PUSH1 0x20 DUP1 SWAP2 DIV MUL PUSH1 0x20 ADD PUSH1 0x40 MLOAD SWAP1 DUP2 ADD PUSH1 0x40 MSTORE DUP1 SWAP3 SWAP2 SWAP1 DUP2 DUP2 MSTORE PUSH1 0x20 ADD DUP3 DUP1 SLOAD PUSH2 0x2A5 SWAP1 PUSH2 0x13A7 JUMP JUMPDEST DUP1 ISZERO PUSH2 0x2F2 JUMPI DUP1 PUSH1 0x1F LT PUSH2 0x2C7 JUMPI PUSH2 0x100 DUP1 DUP4 SLOAD DIV MUL DUP4 MSTORE SWAP2 PUSH1 0x20 ADD SWAP2 PUSH2 0x2F2 JUMP JUMPDEST DUP3 ADD SWAP2 SWAP1 PUSH1 0x0 MSTORE PUSH1 0x20 PUSH1 0x0 KECCAK256 SWAP1 JUMPDEST DUP2 SLOAD DUP2 MSTORE SWAP1 PUSH1 0x1 ADD SWAP1 PUSH1 0x20 ADD DUP1 DUP4 GT PUSH2 0x2D5 JUMPI DUP3 SWAP1 SUB PUSH1 0x1F AND DUP3 ADD SWAP2 JUMPDEST POP POP POP POP POP DUP2 MSTORE PUSH1 0x20 ADD PUSH1 0x2 DUP3 ADD DUP1 SLOAD PUSH2 0x30B SWAP1 PUSH2 0x13A7 JUMP JUMPDEST DUP1 PUSH1 0x1F ADD PUSH1 0x20 DUP1 SWAP2 DIV MUL PUSH1 0x20 ADD PUSH1 0x40 MLOAD SWAP1 DUP2 ADD PUSH1 0x40 MSTORE DUP1 SWAP3 SWAP2 SWAP1 DUP2 DUP2 MSTORE PUSH1 0x20 ADD DUP3 DUP1 SLOAD PUSH2 0x337 SWAP1 PUSH2 0x13A7 JUMP JUMPDEST DUP1 ISZERO PUSH2 0x384 JUMPI DUP1 PUSH1 0x1F LT PUSH2 0x359 JUMPI PUSH2 0x100 DUP1 DUP4 SLOAD DIV MUL DUP4 MSTORE SWAP2 PUSH1 0x20 ADD SWAP2 PUSH2 0x384 JUMP JUMPDEST DUP3 ADD SWAP2 SWAP1 PUSH1 0x0 MSTORE PUSH1 0x20 PUSH1 0x0 KECCAK256 SWAP1 JUMPDEST DUP2 SLOAD DUP2 MSTORE SWAP1 PUSH1 0x1 ADD SWAP1 PUSH1 0x20 ADD DUP1 DUP4 GT PUSH2 0x367 JUMPI DUP3 SWAP1 SUB PUSH1 0x1F AND DUP3 ADD SWAP2 JUMPDEST POP POP POP POP POP DUP2 MSTORE PUSH1 0x20 ADD PUSH1 0x3 DUP3 ADD SLOAD DUP2 MSTORE POP POP SWAP2 POP POP SWAP2 SWAP1 POP JUMP JUMPDEST PUSH1 0x0 DUP1 DUP5 PUSH1 0x40 MLOAD PUSH1 0x20 ADD PUSH2 0x3B3 SWAP2 SWAP1 PUSH2 0x1164 JUMP JUMPDEST PUSH1 0x40 MLOAD PUSH1 0x20 DUP2 DUP4 SUB SUB DUP2 MSTORE SWAP1 PUSH1 0x40 MSTORE DUP1 MLOAD SWAP1 PUSH1 0x20 ADD KECCAK256 SWAP1 POP PUSH1 0x0 PUSH1 0x1 PUSH1 0x0 DUP4 DUP2 MSTORE PUSH1 0x20 ADD SWAP1 DUP2 MSTORE PUSH1 0x20 ADD PUSH1 0x0 KECCAK256 PUSH1 0x40 MLOAD DUP1 PUSH1 0x40 ADD PUSH1 0x40 MSTORE SWAP1 DUP2 PUSH1 0x0 DUP3 ADD DUP1 SLOAD PUSH2 0x3FB SWAP1 PUSH2 0x13A7 JUMP JUMPDEST DUP1 PUSH1 0x1F ADD PUSH1 0x20 DUP1 SWAP2 DIV MUL PUSH1 0x20 ADD PUSH1 0x40 MLOAD SWAP1 DUP2 ADD PUSH1 0x40 MSTORE DUP1 SWAP3 SWAP2 SWAP1 DUP2 DUP2 MSTORE PUSH1 0x20 ADD DUP3 DUP1 SLOAD PUSH2 0x427 SWAP1 PUSH2 0x13A7 JUMP JUMPDEST DUP1 ISZERO PUSH2 0x474 JUMPI DUP1 PUSH1 0x1F LT PUSH2 0x449 JUMPI PUSH2 0x100 DUP1 DUP4 SLOAD DIV MUL DUP4 MSTORE SWAP2 PUSH1 0x20 ADD SWAP2 PUSH2 0x474 JUMP JUMPDEST DUP3 ADD SWAP2 SWAP1 PUSH1 0x0 MSTORE PUSH1 0x20 PUSH1 0x0 KECCAK256 SWAP1 JUMPDEST DUP2 SLOAD DUP2 MSTORE SWAP1 PUSH1 0x1 ADD SWAP1 PUSH1 0x20 ADD DUP1 DUP4 GT PUSH2 0x457 JUMPI DUP3 SWAP1 SUB PUSH1 0x1F AND DUP3 ADD SWAP2 JUMPDEST POP POP POP POP POP DUP2 MSTORE PUSH1 0x20 ADD PUSH1 0x1 DUP3 ADD DUP1 SLOAD PUSH2 0x48D SWAP1 PUSH2 0x13A7 JUMP JUMPDEST DUP1 PUSH1 0x1F ADD PUSH1 0x20 DUP1 SWAP2 DIV MUL PUSH1 0x20 ADD PUSH1 0x40 MLOAD SWAP1 DUP2 ADD PUSH1 0x40 MSTORE DUP1 SWAP3 SWAP2 SWAP1 DUP2 DUP2 MSTORE PUSH1 0x20 ADD DUP3 DUP1 SLOAD PUSH2 0x4B9 SWAP1 PUSH2 0x13A7 JUMP JUMPDEST DUP1 ISZERO PUSH2 0x506 JUMPI DUP1 PUSH1 0x1F LT PUSH2 0x4DB JUMPI PUSH2 0x100 DUP1 DUP4 SLOAD DIV MUL DUP4 MSTORE SWAP2 PUSH1 0x20 ADD SWAP2 PUSH2 0x506 JUMP JUMPDEST DUP3 ADD SWAP2 SWAP1 PUSH1 0x0 MSTORE PUSH1 0x20 PUSH1 0x0 KECCAK256 SWAP1 JUMPDEST DUP2 SLOAD DUP2 MSTORE SWAP1 PUSH1 0x1 ADD SWAP1 PUSH1 0x20 ADD DUP1 DUP4 GT PUSH2 0x4E9 JUMPI DUP3 SWAP1 SUB PUSH1 0x1F AND DUP3 ADD SWAP2 JUMPDEST POP POP POP POP POP DUP2 MSTORE POP POP SWAP1 POP DUP5 DUP2 PUSH1 0x0 ADD DUP2 SWAP1 MSTORE POP DUP4 DUP2 PUSH1 0x20 ADD DUP2 SWAP1 MSTORE POP PUSH32 0xC8922D91FBABBE8DF5D667708C678575856A856A2A465EBD9626A40AB6A16F5F DUP3 PUSH1 0x40 MLOAD PUSH2 0x552 SWAP2 SWAP1 PUSH2 0x11CD JUMP JUMPDEST PUSH1 0x40 MLOAD DUP1 SWAP2 SUB SWAP1 LOG1 DUP2 SWAP3 POP POP POP SWAP4 SWAP3 POP POP POP JUMP JUMPDEST PUSH1 0x0 DUP1 DUP5 PUSH1 0x40 MLOAD PUSH1 0x20 ADD PUSH2 0x57A SWAP2 SWAP1 PUSH2 0x1164 JUMP JUMPDEST PUSH1 0x40 MLOAD PUSH1 0x20 DUP2 DUP4 SUB SUB DUP2 MSTORE SWAP1 PUSH1 0x40 MSTORE DUP1 MLOAD SWAP1 PUSH1 0x20 ADD KECCAK256 SWAP1 POP PUSH2 0x59C DUP2 DUP7 PUSH2 0xA2D JUMP JUMPDEST PUSH2 0x5DB JUMPI PUSH1 0x40 MLOAD PUSH32 0x8C379A000000000000000000000000000000000000000000000000000000000 DUP2 MSTORE PUSH1 0x4 ADD PUSH2 0x5D2 SWAP1 PUSH2 0x11AD JUMP JUMPDEST PUSH1 0x40 MLOAD DUP1 SWAP2 SUB SWAP1 REVERT JUMPDEST PUSH1 0x0 DUP1 PUSH1 0x0 DUP4 DUP2 MSTORE PUSH1 0x20 ADD SWAP1 DUP2 MSTORE PUSH1 0x20 ADD PUSH1 0x0 KECCAK256 SWAP1 POP DUP6 DUP2 PUSH1 0x0 ADD SWAP1 DUP1 MLOAD SWAP1 PUSH1 0x20 ADD SWAP1 PUSH2 0x609 SWAP3 SWAP2 SWAP1 PUSH2 0xAC3 JUMP JUMPDEST POP DUP5 DUP2 PUSH1 0x1 ADD SWAP1 DUP1 MLOAD SWAP1 PUSH1 0x20 ADD SWAP1 PUSH2 0x622 SWAP3 SWAP2 SWAP1 PUSH2 0xAC3 JUMP JUMPDEST POP DUP4 DUP2 PUSH1 0x2 ADD SWAP1 DUP1 MLOAD SWAP1 PUSH1 0x20 ADD SWAP1 PUSH2 0x63B SWAP3 SWAP2 SWAP1 PUSH2 0xAC3 JUMP JUMPDEST POP TIMESTAMP DUP2 PUSH1 0x3 ADD DUP2 SWAP1 SSTORE POP PUSH32 0xC8922D91FBABBE8DF5D667708C678575856A856A2A465EBD9626A40AB6A16F5F DUP3 PUSH1 0x40 MLOAD PUSH2 0x674 SWAP2 SWAP1 PUSH2 0x11CD JUMP JUMPDEST PUSH1 0x40 MLOAD DUP1 SWAP2 SUB SWAP1 LOG1 DUP2 SWAP3 POP POP POP SWAP4 SWAP3 POP POP POP JUMP JUMPDEST PUSH2 0x690 PUSH2 0xB49 JUMP JUMPDEST PUSH1 0x0 DUP3 PUSH1 0x40 MLOAD PUSH1 0x20 ADD PUSH2 0x6A3 SWAP2 SWAP1 PUSH2 0x1164 JUMP JUMPDEST PUSH1 0x40 MLOAD PUSH1 0x20 DUP2 DUP4 SUB SUB DUP2 MSTORE SWAP1 PUSH1 0x40 MSTORE DUP1 MLOAD SWAP1 PUSH1 0x20 ADD KECCAK256 SWAP1 POP POP SWAP2 SWAP1 POP JUMP JUMPDEST PUSH1 0x0 DUP1 DUP5 PUSH1 0x40 MLOAD PUSH1 0x20 ADD PUSH2 0x6D5 SWAP2 SWAP1 PUSH2 0x1164 JUMP JUMPDEST PUSH1 0x40 MLOAD PUSH1 0x20 DUP2 DUP4 SUB SUB DUP2 MSTORE SWAP1 PUSH1 0x40 MSTORE DUP1 MLOAD SWAP1 PUSH1 0x20 ADD KECCAK256 SWAP1 POP PUSH1 0x0 PUSH1 0x2 PUSH1 0x0 DUP4 DUP2 MSTORE PUSH1 0x20 ADD SWAP1 DUP2 MSTORE PUSH1 0x20 ADD PUSH1 0x0 KECCAK256 PUSH1 0x40 MLOAD DUP1 PUSH1 0x80 ADD PUSH1 0x40 MSTORE SWAP1 DUP2 PUSH1 0x0 DUP3 ADD DUP1 SLOAD PUSH2 0x71D SWAP1 PUSH2 0x13A7 JUMP JUMPDEST DUP1 PUSH1 0x1F ADD PUSH1 0x20 DUP1 SWAP2 DIV MUL PUSH1 0x20 ADD PUSH1 0x40 MLOAD SWAP1 DUP2 ADD PUSH1 0x40 MSTORE DUP1 SWAP3 SWAP2 SWAP1 DUP2 DUP2 MSTORE PUSH1 0x20 ADD DUP3 DUP1 SLOAD PUSH2 0x749 SWAP1 PUSH2 0x13A7 JUMP JUMPDEST DUP1 ISZERO PUSH2 0x796 JUMPI DUP1 PUSH1 0x1F LT PUSH2 0x76B JUMPI PUSH2 0x100 DUP1 DUP4 SLOAD DIV MUL DUP4 MSTORE SWAP2 PUSH1 0x20 ADD SWAP2 PUSH2 0x796 JUMP JUMPDEST DUP3 ADD SWAP2 SWAP1 PUSH1 0x0 MSTORE PUSH1 0x20 PUSH1 0x0 KECCAK256 SWAP1 JUMPDEST DUP2 SLOAD DUP2 MSTORE SWAP1 PUSH1 0x1 ADD SWAP1 PUSH1 0x20 ADD DUP1 DUP4 GT PUSH2 0x779 JUMPI DUP3 SWAP1 SUB PUSH1 0x1F AND DUP3 ADD SWAP2 JUMPDEST POP POP POP POP POP DUP2 MSTORE PUSH1 0x20 ADD PUSH1 0x1 DUP3 ADD DUP1 SLOAD PUSH2 0x7AF SWAP1 PUSH2 0x13A7 JUMP JUMPDEST DUP1 PUSH1 0x1F ADD PUSH1 0x20 DUP1 SWAP2 DIV MUL PUSH1 0x20 ADD PUSH1 0x40 MLOAD SWAP1 DUP2 ADD PUSH1 0x40 MSTORE DUP1 SWAP3 SWAP2 SWAP1 DUP2 DUP2 MSTORE PUSH1 0x20 ADD DUP3 DUP1 SLOAD PUSH2 0x7DB SWAP1 PUSH2 0x13A7 JUMP JUMPDEST DUP1 ISZERO PUSH2 0x828 JUMPI DUP1 PUSH1 0x1F LT PUSH2 0x7FD JUMPI PUSH2 0x100 DUP1 DUP4 SLOAD DIV MUL DUP4 MSTORE SWAP2 PUSH1 0x20 ADD SWAP2 PUSH2 0x828 JUMP JUMPDEST DUP3 ADD SWAP2 SWAP1 PUSH1 0x0 MSTORE PUSH1 0x20 PUSH1 0x0 KECCAK256 SWAP1 JUMPDEST DUP2 SLOAD DUP2 MSTORE SWAP1 PUSH1 0x1 ADD SWAP1 PUSH1 0x20 ADD DUP1 DUP4 GT PUSH2 0x80B JUMPI DUP3 SWAP1 SUB PUSH1 0x1F AND DUP3 ADD SWAP2 JUMPDEST POP POP POP POP POP DUP2 MSTORE PUSH1 0x20 ADD PUSH1 0x2 DUP3 ADD SLOAD DUP2 MSTORE PUSH1 0x20 ADD PUSH1 0x3 DUP3 ADD SLOAD DUP2 MSTORE POP POP SWAP1 POP DUP6 DUP2 PUSH1 0x0 ADD DUP2 SWAP1 MSTORE POP DUP5 DUP2 PUSH1 0x20 ADD DUP2 SWAP1 MSTORE POP TIMESTAMP DUP2 PUSH1 0x40 ADD DUP2 DUP2 MSTORE POP POP DUP4 DUP2 PUSH1 0x60 ADD DUP2 DUP2 MSTORE POP POP PUSH32 0xC8922D91FBABBE8DF5D667708C678575856A856A2A465EBD9626A40AB6A16F5F DUP3 PUSH1 0x40 MLOAD PUSH2 0x89C SWAP2 SWAP1 PUSH2 0x11CD JUMP JUMPDEST PUSH1 0x40 MLOAD DUP1 SWAP2 SUB SWAP1 LOG1 DUP2 SWAP3 POP POP POP SWAP4 SWAP3 POP POP POP JUMP JUMPDEST PUSH2 0x8B8 PUSH2 0xB71 JUMP JUMPDEST PUSH1 0x0 DUP3 PUSH1 0x40 MLOAD PUSH1 0x20 ADD PUSH2 0x8CB SWAP2 SWAP1 PUSH2 0x1164 JUMP JUMPDEST PUSH1 0x40 MLOAD PUSH1 0x20 DUP2 DUP4 SUB SUB DUP2 MSTORE SWAP1 PUSH1 0x40 MSTORE DUP1 MLOAD SWAP1 PUSH1 0x20 ADD KECCAK256 SWAP1 POP PUSH1 0x1 PUSH1 0x0 DUP3 DUP2 MSTORE PUSH1 0x20 ADD SWAP1 DUP2 MSTORE PUSH1 0x20 ADD PUSH1 0x0 KECCAK256 PUSH1 0x40 MLOAD DUP1 PUSH1 0x40 ADD PUSH1 0x40 MSTORE SWAP1 DUP2 PUSH1 0x0 DUP3 ADD DUP1 SLOAD PUSH2 0x911 SWAP1 PUSH2 0x13A7 JUMP JUMPDEST DUP1 PUSH1 0x1F ADD PUSH1 0x20 DUP1 SWAP2 DIV MUL PUSH1 0x20 ADD PUSH1 0x40 MLOAD SWAP1 DUP2 ADD PUSH1 0x40 MSTORE DUP1 SWAP3 SWAP2 SWAP1 DUP2 DUP2 MSTORE PUSH1 0x20 ADD DUP3 DUP1 SLOAD PUSH2 0x93D SWAP1 PUSH2 0x13A7 JUMP JUMPDEST DUP1 ISZERO PUSH2 0x98A JUMPI DUP1 PUSH1 0x1F LT PUSH2 0x95F JUMPI PUSH2 0x100 DUP1 DUP4 SLOAD DIV MUL DUP4 MSTORE SWAP2 PUSH1 0x20 ADD SWAP2 PUSH2 0x98A JUMP JUMPDEST DUP3 ADD SWAP2 SWAP1 PUSH1 0x0 MSTORE PUSH1 0x20 PUSH1 0x0 KECCAK256 SWAP1 JUMPDEST DUP2 SLOAD DUP2 MSTORE SWAP1 PUSH1 0x1 ADD SWAP1 PUSH1 0x20 ADD DUP1 DUP4 GT PUSH2 0x96D JUMPI DUP3 SWAP1 SUB PUSH1 0x1F AND DUP3 ADD SWAP2 JUMPDEST POP POP POP POP POP DUP2 MSTORE PUSH1 0x20 ADD PUSH1 0x1 DUP3 ADD DUP1 SLOAD PUSH2 0x9A3 SWAP1 PUSH2 0x13A7 JUMP JUMPDEST DUP1 PUSH1 0x1F ADD PUSH1 0x20 DUP1 SWAP2 DIV MUL PUSH1 0x20 ADD PUSH1 0x40 MLOAD SWAP1 DUP2 ADD PUSH1 0x40 MSTORE DUP1 SWAP3 SWAP2 SWAP1 DUP2 DUP2 MSTORE PUSH1 0x20 ADD DUP3 DUP1 SLOAD PUSH2 0x9CF SWAP1 PUSH2 0x13A7 JUMP JUMPDEST DUP1 ISZERO PUSH2 0xA1C JUMPI DUP1 PUSH1 0x1F LT PUSH2 0x9F1 JUMPI PUSH2 0x100 DUP1 DUP4 SLOAD DIV MUL DUP4 MSTORE SWAP2 PUSH1 0x20 ADD SWAP2 PUSH2 0xA1C JUMP JUMPDEST DUP3 ADD SWAP2 SWAP1 PUSH1 0x0 MSTORE PUSH1 0x20 PUSH1 0x0 KECCAK256 SWAP1 JUMPDEST DUP2 SLOAD DUP2 MSTORE SWAP1 PUSH1 0x1 ADD SWAP1 PUSH1 0x20 ADD DUP1 DUP4 GT PUSH2 0x9FF JUMPI DUP3 SWAP1 SUB PUSH1 0x1F AND DUP3 ADD SWAP2 JUMPDEST POP POP POP POP POP DUP2 MSTORE POP POP SWAP2 POP POP SWAP2 SWAP1 POP JUMP JUMPDEST PUSH1 0x0 DUP2 PUSH1 0x40 MLOAD PUSH1 0x20 ADD PUSH2 0xA40 SWAP2 SWAP1 PUSH2 0x1164 JUMP JUMPDEST PUSH1 0x40 MLOAD PUSH1 0x20 DUP2 DUP4 SUB SUB DUP2 MSTORE SWAP1 PUSH1 0x40 MSTORE DUP1 MLOAD SWAP1 PUSH1 0x20 ADD KECCAK256 PUSH1 0x0 DUP1 DUP6 DUP2 MSTORE PUSH1 0x20 ADD SWAP1 DUP2 MSTORE PUSH1 0x20 ADD PUSH1 0x0 KECCAK256 PUSH1 0x0 ADD PUSH1 0x40 MLOAD PUSH1 0x20 ADD PUSH2 0xA7B SWAP2 SWAP1 PUSH2 0x117B JUMP JUMPDEST PUSH1 0x40 MLOAD PUSH1 0x20 DUP2 DUP4 SUB SUB DUP2 MSTORE SWAP1 PUSH1 0x40 MSTORE DUP1 MLOAD SWAP1 PUSH1 0x20 ADD KECCAK256 EQ ISZERO SWAP1 POP SWAP3 SWAP2 POP POP JUMP JUMPDEST PUSH1 0x40 MLOAD DUP1 PUSH1 0x80 ADD PUSH1 0x40 MSTORE DUP1 PUSH1 0x60 DUP2 MSTORE PUSH1 0x20 ADD PUSH1 0x60 DUP2 MSTORE PUSH1 0x20 ADD PUSH1 0x60 DUP2 MSTORE PUSH1 0x20 ADD PUSH1 0x0 DUP2 MSTORE POP SWAP1 JUMP JUMPDEST DUP3 DUP1 SLOAD PUSH2 0xACF SWAP1 PUSH2 0x13A7 JUMP JUMPDEST SWAP1 PUSH1 0x0 MSTORE PUSH1 0x20 PUSH1 0x0 KECCAK256 SWAP1 PUSH1 0x1F ADD PUSH1 0x20 SWAP1 DIV DUP2 ADD SWAP3 DUP3 PUSH2 0xAF1 JUMPI PUSH1 0x0 DUP6 SSTORE PUSH2 0xB38 JUMP JUMPDEST DUP3 PUSH1 0x1F LT PUSH2 0xB0A JUMPI DUP1 MLOAD PUSH1 0xFF NOT AND DUP4 DUP1 ADD OR DUP6 SSTORE PUSH2 0xB38 JUMP JUMPDEST DUP3 DUP1 ADD PUSH1 0x1 ADD DUP6 SSTORE DUP3 ISZERO PUSH2 0xB38 JUMPI SWAP2 DUP3 ADD JUMPDEST DUP3 DUP2 GT ISZERO PUSH2 0xB37 JUMPI DUP3 MLOAD DUP3 SSTORE SWAP2 PUSH1 0x20 ADD SWAP2 SWAP1 PUSH1 0x1 ADD SWAP1 PUSH2 0xB1C JUMP JUMPDEST JUMPDEST POP SWAP1 POP PUSH2 0xB45 SWAP2 SWAP1 PUSH2 0xB8B JUMP JUMPDEST POP SWAP1 JUMP JUMPDEST PUSH1 0x40 MLOAD DUP1 PUSH1 0x80 ADD PUSH1 0x40 MSTORE DUP1 PUSH1 0x60 DUP2 MSTORE PUSH1 0x20 ADD PUSH1 0x60 DUP2 MSTORE PUSH1 0x20 ADD PUSH1 0x0 DUP2 MSTORE PUSH1 0x20 ADD PUSH1 0x0 DUP2 MSTORE POP SWAP1 JUMP JUMPDEST PUSH1 0x40 MLOAD DUP1 PUSH1 0x40 ADD PUSH1 0x40 MSTORE DUP1 PUSH1 0x60 DUP2 MSTORE PUSH1 0x20 ADD PUSH1 0x60 DUP2 MSTORE POP SWAP1 JUMP JUMPDEST JUMPDEST DUP1 DUP3 GT ISZERO PUSH2 0xBA4 JUMPI PUSH1 0x0 DUP2 PUSH1 0x0 SWAP1 SSTORE POP PUSH1 0x1 ADD PUSH2 0xB8C JUMP JUMPDEST POP SWAP1 JUMP JUMPDEST PUSH1 0x0 PUSH2 0xBBB PUSH2 0xBB6 DUP5 PUSH2 0x1286 JUMP JUMPDEST PUSH2 0x1261 JUMP JUMPDEST SWAP1 POP DUP3 DUP2 MSTORE PUSH1 0x20 DUP2 ADD DUP5 DUP5 DUP5 ADD GT ISZERO PUSH2 0xBD7 JUMPI PUSH2 0xBD6 PUSH2 0x146D JUMP JUMPDEST JUMPDEST PUSH2 0xBE2 DUP5 DUP3 DUP6 PUSH2 0x1365 JUMP JUMPDEST POP SWAP4 SWAP3 POP POP POP JUMP JUMPDEST PUSH1 0x0 PUSH2 0xBFD PUSH2 0xBF8 DUP5 PUSH2 0x12B7 JUMP JUMPDEST PUSH2 0x1261 JUMP JUMPDEST SWAP1 POP DUP3 DUP2 MSTORE PUSH1 0x20 DUP2 ADD DUP5 DUP5 DUP5 ADD GT ISZERO PUSH2 0xC19 JUMPI PUSH2 0xC18 PUSH2 0x146D JUMP JUMPDEST JUMPDEST PUSH2 0xC24 DUP5 DUP3 DUP6 PUSH2 0x1365 JUMP JUMPDEST POP SWAP4 SWAP3 POP POP POP JUMP JUMPDEST PUSH1 0x0 DUP3 PUSH1 0x1F DUP4 ADD SLT PUSH2 0xC41 JUMPI PUSH2 0xC40 PUSH2 0x1468 JUMP JUMPDEST JUMPDEST DUP2 CALLDATALOAD PUSH2 0xC51 DUP5 DUP3 PUSH1 0x20 DUP7 ADD PUSH2 0xBA8 JUMP JUMPDEST SWAP2 POP POP SWAP3 SWAP2 POP POP JUMP JUMPDEST PUSH1 0x0 DUP3 PUSH1 0x1F DUP4 ADD SLT PUSH2 0xC6F JUMPI PUSH2 0xC6E PUSH2 0x1468 JUMP JUMPDEST JUMPDEST DUP2 CALLDATALOAD PUSH2 0xC7F DUP5 DUP3 PUSH1 0x20 DUP7 ADD PUSH2 0xBEA JUMP JUMPDEST SWAP2 POP POP SWAP3 SWAP2 POP POP JUMP JUMPDEST PUSH1 0x0 DUP2 CALLDATALOAD SWAP1 POP PUSH2 0xC97 DUP2 PUSH2 0x14DF JUMP JUMPDEST SWAP3 SWAP2 POP POP JUMP JUMPDEST PUSH1 0x0 PUSH1 0x20 DUP3 DUP5 SUB SLT ISZERO PUSH2 0xCB3 JUMPI PUSH2 0xCB2 PUSH2 0x1477 JUMP JUMPDEST JUMPDEST PUSH1 0x0 DUP3 ADD CALLDATALOAD PUSH8 0xFFFFFFFFFFFFFFFF DUP2 GT ISZERO PUSH2 0xCD1 JUMPI PUSH2 0xCD0 PUSH2 0x1472 JUMP JUMPDEST JUMPDEST PUSH2 0xCDD DUP5 DUP3 DUP6 ADD PUSH2 0xC5A JUMP JUMPDEST SWAP2 POP POP SWAP3 SWAP2 POP POP JUMP JUMPDEST PUSH1 0x0 DUP1 PUSH1 0x0 PUSH1 0x60 DUP5 DUP7 SUB SLT ISZERO PUSH2 0xCFF JUMPI PUSH2 0xCFE PUSH2 0x1477 JUMP JUMPDEST JUMPDEST PUSH1 0x0 DUP5 ADD CALLDATALOAD PUSH8 0xFFFFFFFFFFFFFFFF DUP2 GT ISZERO PUSH2 0xD1D JUMPI PUSH2 0xD1C PUSH2 0x1472 JUMP JUMPDEST JUMPDEST PUSH2 0xD29 DUP7 DUP3 DUP8 ADD PUSH2 0xC5A JUMP JUMPDEST SWAP4 POP POP PUSH1 0x20 DUP5 ADD CALLDATALOAD PUSH8 0xFFFFFFFFFFFFFFFF DUP2 GT ISZERO PUSH2 0xD4A JUMPI PUSH2 0xD49 PUSH2 0x1472 JUMP JUMPDEST JUMPDEST PUSH2 0xD56 DUP7 DUP3 DUP8 ADD PUSH2 0xC5A JUMP JUMPDEST SWAP3 POP POP PUSH1 0x40 DUP5 ADD CALLDATALOAD PUSH8 0xFFFFFFFFFFFFFFFF DUP2 GT ISZERO PUSH2 0xD77 JUMPI PUSH2 0xD76 PUSH2 0x1472 JUMP JUMPDEST JUMPDEST PUSH2 0xD83 DUP7 DUP3 DUP8 ADD PUSH2 0xC2C JUMP JUMPDEST SWAP2 POP POP SWAP3 POP SWAP3 POP SWAP3 JUMP JUMPDEST PUSH1 0x0 DUP1 PUSH1 0x0 PUSH1 0x60 DUP5 DUP7 SUB SLT ISZERO PUSH2 0xDA6 JUMPI PUSH2 0xDA5 PUSH2 0x1477 JUMP JUMPDEST JUMPDEST PUSH1 0x0 DUP5 ADD CALLDATALOAD PUSH8 0xFFFFFFFFFFFFFFFF DUP2 GT ISZERO PUSH2 0xDC4 JUMPI PUSH2 0xDC3 PUSH2 0x1472 JUMP JUMPDEST JUMPDEST PUSH2 0xDD0 DUP7 DUP3 DUP8 ADD PUSH2 0xC5A JUMP JUMPDEST SWAP4 POP POP PUSH1 0x20 DUP5 ADD CALLDATALOAD PUSH8 0xFFFFFFFFFFFFFFFF DUP2 GT ISZERO PUSH2 0xDF1 JUMPI PUSH2 0xDF0 PUSH2 0x1472 JUMP JUMPDEST JUMPDEST PUSH2 0xDFD DUP7 DUP3 DUP8 ADD PUSH2 0xC5A JUMP JUMPDEST SWAP3 POP POP PUSH1 0x40 DUP5 ADD CALLDATALOAD PUSH8 0xFFFFFFFFFFFFFFFF DUP2 GT ISZERO PUSH2 0xE1E JUMPI PUSH2 0xE1D PUSH2 0x1472 JUMP JUMPDEST JUMPDEST PUSH2 0xE2A DUP7 DUP3 DUP8 ADD PUSH2 0xC5A JUMP JUMPDEST SWAP2 POP POP SWAP3 POP SWAP3 POP SWAP3 JUMP JUMPDEST PUSH1 0x0 DUP1 PUSH1 0x0 PUSH1 0x60 DUP5 DUP7 SUB SLT ISZERO PUSH2 0xE4D JUMPI PUSH2 0xE4C PUSH2 0x1477 JUMP JUMPDEST JUMPDEST PUSH1 0x0 DUP5 ADD CALLDATALOAD PUSH8 0xFFFFFFFFFFFFFFFF DUP2 GT ISZERO PUSH2 0xE6B JUMPI PUSH2 0xE6A PUSH2 0x1472 JUMP JUMPDEST JUMPDEST PUSH2 0xE77 DUP7 DUP3 DUP8 ADD PUSH2 0xC5A JUMP JUMPDEST SWAP4 POP POP PUSH1 0x20 DUP5 ADD CALLDATALOAD PUSH8 0xFFFFFFFFFFFFFFFF DUP2 GT ISZERO PUSH2 0xE98 JUMPI PUSH2 0xE97 PUSH2 0x1472 JUMP JUMPDEST JUMPDEST PUSH2 0xEA4 DUP7 DUP3 DUP8 ADD PUSH2 0xC5A JUMP JUMPDEST SWAP3 POP POP PUSH1 0x40 PUSH2 0xEB5 DUP7 DUP3 DUP8 ADD PUSH2 0xC88 JUMP JUMPDEST SWAP2 POP POP SWAP3 POP SWAP3 POP SWAP3 JUMP JUMPDEST PUSH2 0xEC8 DUP2 PUSH2 0x1351 JUMP JUMPDEST DUP3 MSTORE POP POP JUMP JUMPDEST PUSH1 0x0 PUSH2 0xED9 DUP3 PUSH2 0x12FD JUMP JUMPDEST PUSH2 0xEE3 DUP2 DUP6 PUSH2 0x1313 JUMP JUMPDEST SWAP4 POP PUSH2 0xEF3 DUP2 DUP6 PUSH1 0x20 DUP7 ADD PUSH2 0x1374 JUMP JUMPDEST PUSH2 0xEFC DUP2 PUSH2 0x147C JUMP JUMPDEST DUP5 ADD SWAP2 POP POP SWAP3 SWAP2 POP POP JUMP JUMPDEST PUSH1 0x0 PUSH2 0xF12 DUP3 PUSH2 0x1308 JUMP JUMPDEST PUSH2 0xF1C DUP2 DUP6 PUSH2 0x1324 JUMP JUMPDEST SWAP4 POP PUSH2 0xF2C DUP2 DUP6 PUSH1 0x20 DUP7 ADD PUSH2 0x1374 JUMP JUMPDEST PUSH2 0xF35 DUP2 PUSH2 0x147C JUMP JUMPDEST DUP5 ADD SWAP2 POP POP SWAP3 SWAP2 POP POP JUMP JUMPDEST PUSH1 0x0 PUSH2 0xF4B DUP3 PUSH2 0x1308 JUMP JUMPDEST PUSH2 0xF55 DUP2 DUP6 PUSH2 0x1346 JUMP JUMPDEST SWAP4 POP PUSH2 0xF65 DUP2 DUP6 PUSH1 0x20 DUP7 ADD PUSH2 0x1374 JUMP JUMPDEST DUP1 DUP5 ADD SWAP2 POP POP SWAP3 SWAP2 POP POP JUMP JUMPDEST PUSH1 0x0 DUP2 SLOAD PUSH2 0xF7E DUP2 PUSH2 0x13A7 JUMP JUMPDEST PUSH2 0xF88 DUP2 DUP7 PUSH2 0x1346 JUMP JUMPDEST SWAP5 POP PUSH1 0x1 DUP3 AND PUSH1 0x0 DUP2 EQ PUSH2 0xFA3 JUMPI PUSH1 0x1 DUP2 EQ PUSH2 0xFB4 JUMPI PUSH2 0xFE7 JUMP JUMPDEST PUSH1 0xFF NOT DUP4 AND DUP7 MSTORE DUP2 DUP7 ADD SWAP4 POP PUSH2 0xFE7 JUMP JUMPDEST PUSH2 0xFBD DUP6 PUSH2 0x12E8 JUMP JUMPDEST PUSH1 0x0 JUMPDEST DUP4 DUP2 LT ISZERO PUSH2 0xFDF JUMPI DUP2 SLOAD DUP2 DUP10 ADD MSTORE PUSH1 0x1 DUP3 ADD SWAP2 POP PUSH1 0x20 DUP2 ADD SWAP1 POP PUSH2 0xFC0 JUMP JUMPDEST DUP4 DUP9 ADD SWAP6 POP POP POP JUMPDEST POP POP POP SWAP3 SWAP2 POP POP JUMP JUMPDEST PUSH1 0x0 PUSH2 0xFFD PUSH1 0x18 DUP4 PUSH2 0x1335 JUMP JUMPDEST SWAP2 POP PUSH2 0x1008 DUP3 PUSH2 0x148D JUMP JUMPDEST PUSH1 0x20 DUP3 ADD SWAP1 POP SWAP2 SWAP1 POP JUMP JUMPDEST PUSH1 0x0 PUSH2 0x1020 PUSH1 0x7 DUP4 PUSH2 0x1335 JUMP JUMPDEST SWAP2 POP PUSH2 0x102B DUP3 PUSH2 0x14B6 JUMP JUMPDEST PUSH1 0x20 DUP3 ADD SWAP1 POP SWAP2 SWAP1 POP JUMP JUMPDEST PUSH1 0x0 PUSH1 0x80 DUP4 ADD PUSH1 0x0 DUP4 ADD MLOAD DUP5 DUP3 SUB PUSH1 0x0 DUP7 ADD MSTORE PUSH2 0x1053 DUP3 DUP3 PUSH2 0xF07 JUMP JUMPDEST SWAP2 POP POP PUSH1 0x20 DUP4 ADD MLOAD DUP5 DUP3 SUB PUSH1 0x20 DUP7 ADD MSTORE PUSH2 0x106D DUP3 DUP3 PUSH2 0xF07 JUMP JUMPDEST SWAP2 POP POP PUSH1 0x40 DUP4 ADD MLOAD DUP5 DUP3 SUB PUSH1 0x40 DUP7 ADD MSTORE PUSH2 0x1087 DUP3 DUP3 PUSH2 0xF07 JUMP JUMPDEST SWAP2 POP POP PUSH1 0x60 DUP4 ADD MLOAD PUSH2 0x109C PUSH1 0x60 DUP7 ADD DUP3 PUSH2 0x1155 JUMP JUMPDEST POP DUP1 SWAP2 POP POP SWAP3 SWAP2 POP POP JUMP JUMPDEST PUSH1 0x0 PUSH1 0x80 DUP4 ADD PUSH1 0x0 DUP4 ADD MLOAD DUP5 DUP3 SUB PUSH1 0x0 DUP7 ADD MSTORE PUSH2 0x10C4 DUP3 DUP3 PUSH2 0xF07 JUMP JUMPDEST SWAP2 POP POP PUSH1 0x20 DUP4 ADD MLOAD DUP5 DUP3 SUB PUSH1 0x20 DUP7 ADD MSTORE PUSH2 0x10DE DUP3 DUP3 PUSH2 0xF07 JUMP JUMPDEST SWAP2 POP POP PUSH1 0x40 DUP4 ADD MLOAD PUSH2 0x10F3 PUSH1 0x40 DUP7 ADD DUP3 PUSH2 0x1155 JUMP JUMPDEST POP PUSH1 0x60 DUP4 ADD MLOAD PUSH2 0x1106 PUSH1 0x60 DUP7 ADD DUP3 PUSH2 0x1155 JUMP JUMPDEST POP DUP1 SWAP2 POP POP SWAP3 SWAP2 POP POP JUMP JUMPDEST PUSH1 0x0 PUSH1 0x40 DUP4 ADD PUSH1 0x0 DUP4 ADD MLOAD DUP5 DUP3 SUB PUSH1 0x0 DUP7 ADD MSTORE PUSH2 0x112E DUP3 DUP3 PUSH2 0xF07 JUMP JUMPDEST SWAP2 POP POP PUSH1 0x20 DUP4 ADD MLOAD DUP5 DUP3 SUB PUSH1 0x20 DUP7 ADD MSTORE PUSH2 0x1148 DUP3 DUP3 PUSH2 0xECE JUMP JUMPDEST SWAP2 POP POP DUP1 SWAP2 POP POP SWAP3 SWAP2 POP POP JUMP JUMPDEST PUSH2 0x115E DUP2 PUSH2 0x135B JUMP JUMPDEST DUP3 MSTORE POP POP JUMP JUMPDEST PUSH1 0x0 PUSH2 0x1170 DUP3 DUP5 PUSH2 0xF40 JUMP JUMPDEST SWAP2 POP DUP2 SWAP1 POP SWAP3 SWAP2 POP POP JUMP JUMPDEST PUSH1 0x0 PUSH2 0x1187 DUP3 DUP5 PUSH2 0xF71 JUMP JUMPDEST SWAP2 POP DUP2 SWAP1 POP SWAP3 SWAP2 POP POP JUMP JUMPDEST PUSH1 0x0 PUSH1 0x20 DUP3 ADD SWAP1 POP PUSH2 0x11A7 PUSH1 0x0 DUP4 ADD DUP5 PUSH2 0xEBF JUMP JUMPDEST SWAP3 SWAP2 POP POP JUMP JUMPDEST PUSH1 0x0 PUSH1 0x20 DUP3 ADD SWAP1 POP DUP2 DUP2 SUB PUSH1 0x0 DUP4 ADD MSTORE PUSH2 0x11C6 DUP2 PUSH2 0xFF0 JUMP JUMPDEST SWAP1 POP SWAP2 SWAP1 POP JUMP JUMPDEST PUSH1 0x0 PUSH1 0x40 DUP3 ADD SWAP1 POP DUP2 DUP2 SUB PUSH1 0x0 DUP4 ADD MSTORE PUSH2 0x11E6 DUP2 PUSH2 0x1013 JUMP JUMPDEST SWAP1 POP PUSH2 0x11F5 PUSH1 0x20 DUP4 ADD DUP5 PUSH2 0xEBF JUMP JUMPDEST SWAP3 SWAP2 POP POP JUMP JUMPDEST PUSH1 0x0 PUSH1 0x20 DUP3 ADD SWAP1 POP DUP2 DUP2 SUB PUSH1 0x0 DUP4 ADD MSTORE PUSH2 0x1215 DUP2 DUP5 PUSH2 0x1036 JUMP JUMPDEST SWAP1 POP SWAP3 SWAP2 POP POP JUMP JUMPDEST PUSH1 0x0 PUSH1 0x20 DUP3 ADD SWAP1 POP DUP2 DUP2 SUB PUSH1 0x0 DUP4 ADD MSTORE PUSH2 0x1237 DUP2 DUP5 PUSH2 0x10A7 JUMP JUMPDEST SWAP1 POP SWAP3 SWAP2 POP POP JUMP JUMPDEST PUSH1 0x0 PUSH1 0x20 DUP3 ADD SWAP1 POP DUP2 DUP2 SUB PUSH1 0x0 DUP4 ADD MSTORE PUSH2 0x1259 DUP2 DUP5 PUSH2 0x1111 JUMP JUMPDEST SWAP1 POP SWAP3 SWAP2 POP POP JUMP JUMPDEST PUSH1 0x0 PUSH2 0x126B PUSH2 0x127C JUMP JUMPDEST SWAP1 POP PUSH2 0x1277 DUP3 DUP3 PUSH2 0x13D9 JUMP JUMPDEST SWAP2 SWAP1 POP JUMP JUMPDEST PUSH1 0x0 PUSH1 0x40 MLOAD SWAP1 POP SWAP1 JUMP JUMPDEST PUSH1 0x0 PUSH8 0xFFFFFFFFFFFFFFFF DUP3 GT ISZERO PUSH2 0x12A1 JUMPI PUSH2 0x12A0 PUSH2 0x1439 JUMP JUMPDEST JUMPDEST PUSH2 0x12AA DUP3 PUSH2 0x147C JUMP JUMPDEST SWAP1 POP PUSH1 0x20 DUP2 ADD SWAP1 POP SWAP2 SWAP1 POP JUMP JUMPDEST PUSH1 0x0 PUSH8 0xFFFFFFFFFFFFFFFF DUP3 GT ISZERO PUSH2 0x12D2 JUMPI PUSH2 0x12D1 PUSH2 0x1439 JUMP JUMPDEST JUMPDEST PUSH2 0x12DB DUP3 PUSH2 0x147C JUMP JUMPDEST SWAP1 POP PUSH1 0x20 DUP2 ADD SWAP1 POP SWAP2 SWAP1 POP JUMP JUMPDEST PUSH1 0x0 DUP2 SWAP1 POP DUP2 PUSH1 0x0 MSTORE PUSH1 0x20 PUSH1 0x0 KECCAK256 SWAP1 POP SWAP2 SWAP1 POP JUMP JUMPDEST PUSH1 0x0 DUP2 MLOAD SWAP1 POP SWAP2 SWAP1 POP JUMP JUMPDEST PUSH1 0x0 DUP2 MLOAD SWAP1 POP SWAP2 SWAP1 POP JUMP JUMPDEST PUSH1 0x0 DUP3 DUP3 MSTORE PUSH1 0x20 DUP3 ADD SWAP1 POP SWAP3 SWAP2 POP POP JUMP JUMPDEST PUSH1 0x0 DUP3 DUP3 MSTORE PUSH1 0x20 DUP3 ADD SWAP1 POP SWAP3 SWAP2 POP POP JUMP JUMPDEST PUSH1 0x0 DUP3 DUP3 MSTORE PUSH1 0x20 DUP3 ADD SWAP1 POP SWAP3 SWAP2 POP POP JUMP JUMPDEST PUSH1 0x0 DUP2 SWAP1 POP SWAP3 SWAP2 POP POP JUMP JUMPDEST PUSH1 0x0 DUP2 SWAP1 POP SWAP2 SWAP1 POP JUMP JUMPDEST PUSH1 0x0 DUP2 SWAP1 POP SWAP2 SWAP1 POP JUMP JUMPDEST DUP3 DUP2 DUP4 CALLDATACOPY PUSH1 0x0 DUP4 DUP4 ADD MSTORE POP POP POP JUMP JUMPDEST PUSH1 0x0 JUMPDEST DUP4 DUP2 LT ISZERO PUSH2 0x1392 JUMPI DUP1 DUP3 ADD MLOAD DUP2 DUP5 ADD MSTORE PUSH1 0x20 DUP2 ADD SWAP1 POP PUSH2 0x1377 JUMP JUMPDEST DUP4 DUP2 GT ISZERO PUSH2 0x13A1 JUMPI PUSH1 0x0 DUP5 DUP5 ADD MSTORE JUMPDEST POP POP POP POP JUMP JUMPDEST PUSH1 0x0 PUSH1 0x2 DUP3 DIV SWAP1 POP PUSH1 0x1 DUP3 AND DUP1 PUSH2 0x13BF JUMPI PUSH1 0x7F DUP3 AND SWAP2 POP JUMPDEST PUSH1 0x20 DUP3 LT DUP2 EQ ISZERO PUSH2 0x13D3 JUMPI PUSH2 0x13D2 PUSH2 0x140A JUMP JUMPDEST JUMPDEST POP SWAP2 SWAP1 POP JUMP JUMPDEST PUSH2 0x13E2 DUP3 PUSH2 0x147C JUMP JUMPDEST DUP2 ADD DUP2 DUP2 LT PUSH8 0xFFFFFFFFFFFFFFFF DUP3 GT OR ISZERO PUSH2 0x1401 JUMPI PUSH2 0x1400 PUSH2 0x1439 JUMP JUMPDEST JUMPDEST DUP1 PUSH1 0x40 MSTORE POP POP POP JUMP JUMPDEST PUSH32 0x4E487B7100000000000000000000000000000000000000000000000000000000 PUSH1 0x0 MSTORE PUSH1 0x22 PUSH1 0x4 MSTORE PUSH1 0x24 PUSH1 0x0 REVERT JUMPDEST PUSH32 0x4E487B7100000000000000000000000000000000000000000000000000000000 PUSH1 0x0 MSTORE PUSH1 0x41 PUSH1 0x4 MSTORE PUSH1 0x24 PUSH1 0x0 REVERT JUMPDEST PUSH1 0x0 DUP1 REVERT JUMPDEST PUSH1 0x0 DUP1 REVERT JUMPDEST PUSH1 0x0 DUP1 REVERT JUMPDEST PUSH1 0x0 DUP1 REVERT JUMPDEST PUSH1 0x0 PUSH1 0x1F NOT PUSH1 0x1F DUP4 ADD AND SWAP1 POP SWAP2 SWAP1 POP JUMP JUMPDEST PUSH32 0x4163636F756E7420616C7265616479206578697374696E670000000000000000 PUSH1 0x0 DUP3 ADD MSTORE POP JUMP JUMPDEST PUSH32 0x7375636365737300000000000000000000000000000000000000000000000000 PUSH1 0x0 DUP3 ADD MSTORE POP JUMP JUMPDEST PUSH2 0x14E8 DUP2 PUSH2 0x135B JUMP JUMPDEST DUP2 EQ PUSH2 0x14F3 JUMPI PUSH1 0x0 DUP1 REVERT JUMPDEST POP JUMP INVALID LOG2 PUSH5 0x6970667358 0x22 SLT KECCAK256 0x4E 0xF8 PUSH4 0x15EE2DD4 MUL PUSH13 0xF1E63905BB0DFF294A87DE7468 0xE8 0x2F POP CALLDATASIZE 0x2F PUSH25 0x5195F7AE64736F6C6343000807003300000000000000000000 "
				},
				"gasEstimates": {
					"creation": {
						"codeDepositCost": "1084000",
						"executionCost": "1127",
						"totalCost": "1085127"
					},
					"external": {
						"add_account(string,string,string)": "infinite",
						"add_certificate(string,string,uint256)": "infinite",
						"add_transaction(string,string,bytes)": "infinite",
						"get_account(string)": "infinite",
						"get_certificate(string)": "infinite",
						"get_transaction(string)": "infinite"
					},
					"internal": {
						"account_checker(bytes32,string memory)": "infinite"
					}
				},
				"methodIdentifiers": {
					"add_account(string,string,string)": "b24c908a",
					"add_certificate(string,string,uint256)": "c3efbe38",
					"add_transaction(string,string,bytes)": "5b62132d",
					"get_account(string)": "174ba7ff",
					"get_certificate(string)": "b8428403",
					"get_transaction(string)": "ca5e208f"
				}
			},
			"storageLayout": {
				"storage": [
					{
						"astId": 21,
						"contract": "contracts/Halal.sol:Halal",
						"label": "mappingAccount",
						"offset": 0,
						"slot": "0",
						"type": "t_mapping(t_bytes32,t_struct(accountData)16_storage)"
					},
					{
						"astId": 31,
						"contract": "contracts/Halal.sol:Halal",
						"label": "mappingTransaction",
						"offset": 0,
						"slot": "1",
						"type": "t_mapping(t_bytes32,t_struct(transaction)26_storage)"
					},
					{
						"astId": 45,
						"contract": "contracts/Halal.sol:Halal",
						"label": "mappingCertificate",
						"offset": 0,
						"slot": "2",
						"type": "t_mapping(t_bytes32,t_struct(certificate)40_storage)"
					}
				],
				"types": {
					"t_bytes32": {
						"encoding": "inplace",
						"label": "bytes32",
						"numberOfBytes": "32"
					},
					"t_bytes_storage": {
						"encoding": "bytes",
						"label": "bytes",
						"numberOfBytes": "32"
					},
					"t_mapping(t_bytes32,t_struct(accountData)16_storage)": {
						"encoding": "mapping",
						"key": "t_bytes32",
						"label": "mapping(bytes32 => struct Halal.accountData)",
						"numberOfBytes": "32",
						"value": "t_struct(accountData)16_storage"
					},
					"t_mapping(t_bytes32,t_struct(certificate)40_storage)": {
						"encoding": "mapping",
						"key": "t_bytes32",
						"label": "mapping(bytes32 => struct Halal.certificate)",
						"numberOfBytes": "32",
						"value": "t_struct(certificate)40_storage"
					},
					"t_mapping(t_bytes32,t_struct(transaction)26_storage)": {
						"encoding": "mapping",
						"key": "t_bytes32",
						"label": "mapping(bytes32 => struct Halal.transaction)",
						"numberOfBytes": "32",
						"value": "t_struct(transaction)26_storage"
					},
					"t_string_storage": {
						"encoding": "bytes",
						"label": "string",
						"numberOfBytes": "32"
					},
					"t_struct(accountData)16_storage": {
						"encoding": "inplace",
						"label": "struct Halal.accountData",
						"members": [
							{
								"astId": 9,
								"contract": "contracts/Halal.sol:Halal",
								"label": "account_id",
								"offset": 0,
								"slot": "0",
								"type": "t_string_storage"
							},
							{
								"astId": 11,
								"contract": "contracts/Halal.sol:Halal",
								"label": "name",
								"offset": 0,
								"slot": "1",
								"type": "t_string_storage"
							},
							{
								"astId": 13,
								"contract": "contracts/Halal.sol:Halal",
								"label": "role",
								"offset": 0,
								"slot": "2",
								"type": "t_string_storage"
							},
							{
								"astId": 15,
								"contract": "contracts/Halal.sol:Halal",
								"label": "created_at",
								"offset": 0,
								"slot": "3",
								"type": "t_uint256"
							}
						],
						"numberOfBytes": "128"
					},
					"t_struct(certificate)40_storage": {
						"encoding": "inplace",
						"label": "struct Halal.certificate",
						"members": [
							{
								"astId": 33,
								"contract": "contracts/Halal.sol:Halal",
								"label": "umkm_id",
								"offset": 0,
								"slot": "0",
								"type": "t_string_storage"
							},
							{
								"astId": 35,
								"contract": "contracts/Halal.sol:Halal",
								"label": "certificate_id",
								"offset": 0,
								"slot": "1",
								"type": "t_string_storage"
							},
							{
								"astId": 37,
								"contract": "contracts/Halal.sol:Halal",
								"label": "created_at",
								"offset": 0,
								"slot": "2",
								"type": "t_uint256"
							},
							{
								"astId": 39,
								"contract": "contracts/Halal.sol:Halal",
								"label": "expired_at",
								"offset": 0,
								"slot": "3",
								"type": "t_uint256"
							}
						],
						"numberOfBytes": "128"
					},
					"t_struct(transaction)26_storage": {
						"encoding": "inplace",
						"label": "struct Halal.transaction",
						"members": [
							{
								"astId": 23,
								"contract": "contracts/Halal.sol:Halal",
								"label": "user_id",
								"offset": 0,
								"slot": "0",
								"type": "t_string_storage"
							},
							{
								"astId": 25,
								"contract": "contracts/Halal.sol:Halal",
								"label": "data",
								"offset": 0,
								"slot": "1",
								"type": "t_bytes_storage"
							}
						],
						"numberOfBytes": "64"
					},
					"t_uint256": {
						"encoding": "inplace",
						"label": "uint256",
						"numberOfBytes": "32"
					}
				}
			},
			"userdoc": {
				"kind": "user",
				"methods": {},
				"version": 1
			}
		}
	}
}