{
	"contracts/Halal.sol": {
		"Halal": {
			"abi": [
				{
					"anonymous": false,
					"inputs": [
						{
							"indexed": false,
							"internalType": "string",
							"name": "status",
							"type": "string"
						},
						{
							"indexed": false,
							"internalType": "bytes32",
							"name": "message",
							"type": "bytes32"
						}
					],
					"name": "success",
					"type": "event"
				},
				{
					"inputs": [
						{
							"internalType": "string",
							"name": "account_id",
							"type": "string"
						},
						{
							"internalType": "string",
							"name": "name",
							"type": "string"
						},
						{
							"internalType": "string",
							"name": "role",
							"type": "string"
						}
					],
					"name": "add_account",
					"outputs": [
						{
							"internalType": "bytes32",
							"name": "",
							"type": "bytes32"
						}
					],
					"stateMutability": "nonpayable",
					"type": "function"
				},
				{
					"inputs": [
						{
							"internalType": "string",
							"name": "umkm_id",
							"type": "string"
						},
						{
							"internalType": "string",
							"name": "cert_id",
							"type": "string"
						}
					],
					"name": "add_certificate",
					"outputs": [],
					"stateMutability": "nonpayable",
					"type": "function"
				},
				{
					"inputs": [
						{
							"internalType": "string",
							"name": "transaction_id",
							"type": "string"
						},
						{
							"internalType": "string",
							"name": "user_id",
							"type": "string"
						},
						{
							"internalType": "bytes",
							"name": "data",
							"type": "bytes"
						}
					],
					"name": "add_transaction",
					"outputs": [
						{
							"internalType": "bytes32",
							"name": "",
							"type": "bytes32"
						}
					],
					"stateMutability": "view",
					"type": "function"
				},
				{
					"inputs": [
						{
							"internalType": "string",
							"name": "account_id",
							"type": "string"
						}
					],
					"name": "get_account",
					"outputs": [
						{
							"components": [
								{
									"internalType": "string",
									"name": "account_id",
									"type": "string"
								},
								{
									"internalType": "string",
									"name": "name",
									"type": "string"
								},
								{
									"internalType": "string",
									"name": "role",
									"type": "string"
								},
								{
									"internalType": "uint256",
									"name": "created_at",
									"type": "uint256"
								}
							],
							"internalType": "struct Halal.accountData",
							"name": "",
							"type": "tuple"
						}
					],
					"stateMutability": "view",
					"type": "function"
				},
				{
					"inputs": [
						{
							"internalType": "string",
							"name": "transaction_id",
							"type": "string"
						}
					],
					"name": "get_transaction",
					"outputs": [
						{
							"components": [
								{
									"internalType": "string",
									"name": "user_id",
									"type": "string"
								},
								{
									"internalType": "bytes",
									"name": "data",
									"type": "bytes"
								}
							],
							"internalType": "struct Halal.transaction",
							"name": "",
							"type": "tuple"
						}
					],
					"stateMutability": "view",
					"type": "function"
				}
			],
			"devdoc": {
				"kind": "dev",
				"methods": {},
				"version": 1
			},
			"evm": {
				"assembly": "    /* \"contracts/Halal.sol\":62:2350  contract Halal{... */\n  mstore(0x40, 0x80)\n  callvalue\n  dup1\n  iszero\n  tag_1\n  jumpi\n  0x00\n  dup1\n  revert\ntag_1:\n  pop\n  dataSize(sub_0)\n  dup1\n  dataOffset(sub_0)\n  0x00\n  codecopy\n  0x00\n  return\nstop\n\nsub_0: assembly {\n        /* \"contracts/Halal.sol\":62:2350  contract Halal{... */\n      mstore(0x40, 0x80)\n      callvalue\n      dup1\n      iszero\n      tag_1\n      jumpi\n      0x00\n      dup1\n      revert\n    tag_1:\n      pop\n      jumpi(tag_2, lt(calldatasize, 0x04))\n      shr(0xe0, calldataload(0x00))\n      dup1\n      0x174ba7ff\n      eq\n      tag_3\n      jumpi\n      dup1\n      0x5b62132d\n      eq\n      tag_4\n      jumpi\n      dup1\n      0xb24c908a\n      eq\n      tag_5\n      jumpi\n      dup1\n      0xca5e208f\n      eq\n      tag_6\n      jumpi\n      dup1\n      0xe1096d25\n      eq\n      tag_7\n      jumpi\n    tag_2:\n      0x00\n      dup1\n      revert\n        /* \"contracts/Halal.sol\":1415:1605  function get_account(string memory account_id) public view returns(accountData memory){... */\n    tag_3:\n      tag_8\n      0x04\n      dup1\n      calldatasize\n      sub\n      dup2\n      add\n      swap1\n      tag_9\n      swap2\n      swap1\n      tag_10\n      jump\t// in\n    tag_9:\n      tag_11\n      jump\t// in\n    tag_8:\n      mload(0x40)\n      tag_12\n      swap2\n      swap1\n      tag_13\n      jump\t// in\n    tag_12:\n      mload(0x40)\n      dup1\n      swap2\n      sub\n      swap1\n      return\n        /* \"contracts/Halal.sol\":1611:1980  function add_transaction(... */\n    tag_4:\n      tag_14\n      0x04\n      dup1\n      calldatasize\n      sub\n      dup2\n      add\n      swap1\n      tag_15\n      swap2\n      swap1\n      tag_16\n      jump\t// in\n    tag_15:\n      tag_17\n      jump\t// in\n    tag_14:\n      mload(0x40)\n      tag_18\n      swap2\n      swap1\n      tag_19\n      jump\t// in\n    tag_18:\n      mload(0x40)\n      dup1\n      swap2\n      sub\n      swap1\n      return\n        /* \"contracts/Halal.sol\":881:1409  function add_account(... */\n    tag_5:\n      tag_20\n      0x04\n      dup1\n      calldatasize\n      sub\n      dup2\n      add\n      swap1\n      tag_21\n      swap2\n      swap1\n      tag_22\n      jump\t// in\n    tag_21:\n      tag_23\n      jump\t// in\n    tag_20:\n      mload(0x40)\n      tag_24\n      swap2\n      swap1\n      tag_19\n      jump\t// in\n    tag_24:\n      mload(0x40)\n      dup1\n      swap2\n      sub\n      swap1\n      return\n        /* \"contracts/Halal.sol\":1986:2195  function get_transaction(string memory transaction_id) external view returns(transaction memory){... */\n    tag_6:\n      tag_25\n      0x04\n      dup1\n      calldatasize\n      sub\n      dup2\n      add\n      swap1\n      tag_26\n      swap2\n      swap1\n      tag_10\n      jump\t// in\n    tag_26:\n      tag_27\n      jump\t// in\n    tag_25:\n      mload(0x40)\n      tag_28\n      swap2\n      swap1\n      tag_29\n      jump\t// in\n    tag_28:\n      mload(0x40)\n      dup1\n      swap2\n      sub\n      swap1\n      return\n        /* \"contracts/Halal.sol\":2201:2347  function add_certificate(string memory umkm_id, string memory cert_id) external{... */\n    tag_7:\n      tag_30\n      0x04\n      dup1\n      calldatasize\n      sub\n      dup2\n      add\n      swap1\n      tag_31\n      swap2\n      swap1\n      tag_32\n      jump\t// in\n    tag_31:\n      tag_33\n      jump\t// in\n    tag_30:\n      stop\n        /* \"contracts/Halal.sol\":1415:1605  function get_account(string memory account_id) public view returns(accountData memory){... */\n    tag_11:\n        /* \"contracts/Halal.sol\":1482:1500  accountData memory */\n      tag_34\n      tag_35\n      jump\t// in\n    tag_34:\n        /* \"contracts/Halal.sol\":1511:1521  bytes32 id */\n      0x00\n        /* \"contracts/Halal.sol\":1551:1561  account_id */\n      dup3\n        /* \"contracts/Halal.sol\":1534:1562  abi.encodePacked(account_id) */\n      add(0x20, mload(0x40))\n      tag_37\n      swap2\n      swap1\n      tag_38\n      jump\t// in\n    tag_37:\n      mload(0x40)\n      0x20\n      dup2\n      dup4\n      sub\n      sub\n      dup2\n      mstore\n      swap1\n      0x40\n      mstore\n        /* \"contracts/Halal.sol\":1524:1563  keccak256(abi.encodePacked(account_id)) */\n      dup1\n      mload\n      swap1\n      0x20\n      add\n      keccak256\n        /* \"contracts/Halal.sol\":1511:1563  bytes32 id = keccak256(abi.encodePacked(account_id)) */\n      swap1\n      pop\n        /* \"contracts/Halal.sol\":1580:1594  mappingAccount */\n      0x00\n        /* \"contracts/Halal.sol\":1580:1598  mappingAccount[id] */\n      dup1\n        /* \"contracts/Halal.sol\":1595:1597  id */\n      dup3\n        /* \"contracts/Halal.sol\":1580:1598  mappingAccount[id] */\n      dup2\n      mstore\n      0x20\n      add\n      swap1\n      dup2\n      mstore\n      0x20\n      add\n      0x00\n      keccak256\n        /* \"contracts/Halal.sol\":1573:1598  return mappingAccount[id] */\n      mload(0x40)\n      dup1\n      0x80\n      add\n      0x40\n      mstore\n      swap1\n      dup2\n      0x00\n      dup3\n      add\n      dup1\n      sload\n      tag_39\n      swap1\n      tag_40\n      jump\t// in\n    tag_39:\n      dup1\n      0x1f\n      add\n      0x20\n      dup1\n      swap2\n      div\n      mul\n      0x20\n      add\n      mload(0x40)\n      swap1\n      dup2\n      add\n      0x40\n      mstore\n      dup1\n      swap3\n      swap2\n      swap1\n      dup2\n      dup2\n      mstore\n      0x20\n      add\n      dup3\n      dup1\n      sload\n      tag_41\n      swap1\n      tag_40\n      jump\t// in\n    tag_41:\n      dup1\n      iszero\n      tag_42\n      jumpi\n      dup1\n      0x1f\n      lt\n      tag_43\n      jumpi\n      0x0100\n      dup1\n      dup4\n      sload\n      div\n      mul\n      dup4\n      mstore\n      swap2\n      0x20\n      add\n      swap2\n      jump(tag_42)\n    tag_43:\n      dup3\n      add\n      swap2\n      swap1\n      0x00\n      mstore\n      keccak256(0x00, 0x20)\n      swap1\n    tag_44:\n      dup2\n      sload\n      dup2\n      mstore\n      swap1\n      0x01\n      add\n      swap1\n      0x20\n      add\n      dup1\n      dup4\n      gt\n      tag_44\n      jumpi\n      dup3\n      swap1\n      sub\n      0x1f\n      and\n      dup3\n      add\n      swap2\n    tag_42:\n      pop\n      pop\n      pop\n      pop\n      pop\n      dup2\n      mstore\n      0x20\n      add\n      0x01\n      dup3\n      add\n      dup1\n      sload\n      tag_45\n      swap1\n      tag_40\n      jump\t// in\n    tag_45:\n      dup1\n      0x1f\n      add\n      0x20\n      dup1\n      swap2\n      div\n      mul\n      0x20\n      add\n      mload(0x40)\n      swap1\n      dup2\n      add\n      0x40\n      mstore\n      dup1\n      swap3\n      swap2\n      swap1\n      dup2\n      dup2\n      mstore\n      0x20\n      add\n      dup3\n      dup1\n      sload\n      tag_46\n      swap1\n      tag_40\n      jump\t// in\n    tag_46:\n      dup1\n      iszero\n      tag_47\n      jumpi\n      dup1\n      0x1f\n      lt\n      tag_48\n      jumpi\n      0x0100\n      dup1\n      dup4\n      sload\n      div\n      mul\n      dup4\n      mstore\n      swap2\n      0x20\n      add\n      swap2\n      jump(tag_47)\n    tag_48:\n      dup3\n      add\n      swap2\n      swap1\n      0x00\n      mstore\n      keccak256(0x00, 0x20)\n      swap1\n    tag_49:\n      dup2\n      sload\n      dup2\n      mstore\n      swap1\n      0x01\n      add\n      swap1\n      0x20\n      add\n      dup1\n      dup4\n      gt\n      tag_49\n      jumpi\n      dup3\n      swap1\n      sub\n      0x1f\n      and\n      dup3\n      add\n      swap2\n    tag_47:\n      pop\n      pop\n      pop\n      pop\n      pop\n      dup2\n      mstore\n      0x20\n      add\n      0x02\n      dup3\n      add\n      dup1\n      sload\n      tag_50\n      swap1\n      tag_40\n      jump\t// in\n    tag_50:\n      dup1\n      0x1f\n      add\n      0x20\n      dup1\n      swap2\n      div\n      mul\n      0x20\n      add\n      mload(0x40)\n      swap1\n      dup2\n      add\n      0x40\n      mstore\n      dup1\n      swap3\n      swap2\n      swap1\n      dup2\n      dup2\n      mstore\n      0x20\n      add\n      dup3\n      dup1\n      sload\n      tag_51\n      swap1\n      tag_40\n      jump\t// in\n    tag_51:\n      dup1\n      iszero\n      tag_52\n      jumpi\n      dup1\n      0x1f\n      lt\n      tag_53\n      jumpi\n      0x0100\n      dup1\n      dup4\n      sload\n      div\n      mul\n      dup4\n      mstore\n      swap2\n      0x20\n      add\n      swap2\n      jump(tag_52)\n    tag_53:\n      dup3\n      add\n      swap2\n      swap1\n      0x00\n      mstore\n      keccak256(0x00, 0x20)\n      swap1\n    tag_54:\n      dup2\n      sload\n      dup2\n      mstore\n      swap1\n      0x01\n      add\n      swap1\n      0x20\n      add\n      dup1\n      dup4\n      gt\n      tag_54\n      jumpi\n      dup3\n      swap1\n      sub\n      0x1f\n      and\n      dup3\n      add\n      swap2\n    tag_52:\n      pop\n      pop\n      pop\n      pop\n      pop\n      dup2\n      mstore\n      0x20\n      add\n      0x03\n      dup3\n      add\n      sload\n      dup2\n      mstore\n      pop\n      pop\n      swap2\n      pop\n      pop\n        /* \"contracts/Halal.sol\":1415:1605  function get_account(string memory account_id) public view returns(accountData memory){... */\n      swap2\n      swap1\n      pop\n      jump\t// out\n        /* \"contracts/Halal.sol\":1611:1980  function add_transaction(... */\n    tag_17:\n        /* \"contracts/Halal.sol\":1760:1767  bytes32 */\n      0x00\n        /* \"contracts/Halal.sol\":1779:1789  bytes32 id */\n      dup1\n        /* \"contracts/Halal.sol\":1819:1833  transaction_id */\n      dup5\n        /* \"contracts/Halal.sol\":1802:1834  abi.encodePacked(transaction_id) */\n      add(0x20, mload(0x40))\n      tag_56\n      swap2\n      swap1\n      tag_38\n      jump\t// in\n    tag_56:\n      mload(0x40)\n      0x20\n      dup2\n      dup4\n      sub\n      sub\n      dup2\n      mstore\n      swap1\n      0x40\n      mstore\n        /* \"contracts/Halal.sol\":1792:1835  keccak256(abi.encodePacked(transaction_id)) */\n      dup1\n      mload\n      swap1\n      0x20\n      add\n      keccak256\n        /* \"contracts/Halal.sol\":1779:1835  bytes32 id = keccak256(abi.encodePacked(transaction_id)) */\n      swap1\n      pop\n        /* \"contracts/Halal.sol\":1845:1869  transaction memory trans */\n      0x00\n        /* \"contracts/Halal.sol\":1872:1890  mappingTransaction */\n      0x01\n        /* \"contracts/Halal.sol\":1872:1894  mappingTransaction[id] */\n      0x00\n        /* \"contracts/Halal.sol\":1891:1893  id */\n      dup4\n        /* \"contracts/Halal.sol\":1872:1894  mappingTransaction[id] */\n      dup2\n      mstore\n      0x20\n      add\n      swap1\n      dup2\n      mstore\n      0x20\n      add\n      0x00\n      keccak256\n        /* \"contracts/Halal.sol\":1845:1894  transaction memory trans = mappingTransaction[id] */\n      mload(0x40)\n      dup1\n      0x40\n      add\n      0x40\n      mstore\n      swap1\n      dup2\n      0x00\n      dup3\n      add\n      dup1\n      sload\n      tag_57\n      swap1\n      tag_40\n      jump\t// in\n    tag_57:\n      dup1\n      0x1f\n      add\n      0x20\n      dup1\n      swap2\n      div\n      mul\n      0x20\n      add\n      mload(0x40)\n      swap1\n      dup2\n      add\n      0x40\n      mstore\n      dup1\n      swap3\n      swap2\n      swap1\n      dup2\n      dup2\n      mstore\n      0x20\n      add\n      dup3\n      dup1\n      sload\n      tag_58\n      swap1\n      tag_40\n      jump\t// in\n    tag_58:\n      dup1\n      iszero\n      tag_59\n      jumpi\n      dup1\n      0x1f\n      lt\n      tag_60\n      jumpi\n      0x0100\n      dup1\n      dup4\n      sload\n      div\n      mul\n      dup4\n      mstore\n      swap2\n      0x20\n      add\n      swap2\n      jump(tag_59)\n    tag_60:\n      dup3\n      add\n      swap2\n      swap1\n      0x00\n      mstore\n      keccak256(0x00, 0x20)\n      swap1\n    tag_61:\n      dup2\n      sload\n      dup2\n      mstore\n      swap1\n      0x01\n      add\n      swap1\n      0x20\n      add\n      dup1\n      dup4\n      gt\n      tag_61\n      jumpi\n      dup3\n      swap1\n      sub\n      0x1f\n      and\n      dup3\n      add\n      swap2\n    tag_59:\n      pop\n      pop\n      pop\n      pop\n      pop\n      dup2\n      mstore\n      0x20\n      add\n      0x01\n      dup3\n      add\n      dup1\n      sload\n      tag_62\n      swap1\n      tag_40\n      jump\t// in\n    tag_62:\n      dup1\n      0x1f\n      add\n      0x20\n      dup1\n      swap2\n      div\n      mul\n      0x20\n      add\n      mload(0x40)\n      swap1\n      dup2\n      add\n      0x40\n      mstore\n      dup1\n      swap3\n      swap2\n      swap1\n      dup2\n      dup2\n      mstore\n      0x20\n      add\n      dup3\n      dup1\n      sload\n      tag_63\n      swap1\n      tag_40\n      jump\t// in\n    tag_63:\n      dup1\n      iszero\n      tag_64\n      jumpi\n      dup1\n      0x1f\n      lt\n      tag_65\n      jumpi\n      0x0100\n      dup1\n      dup4\n      sload\n      div\n      mul\n      dup4\n      mstore\n      swap2\n      0x20\n      add\n      swap2\n      jump(tag_64)\n    tag_65:\n      dup3\n      add\n      swap2\n      swap1\n      0x00\n      mstore\n      keccak256(0x00, 0x20)\n      swap1\n    tag_66:\n      dup2\n      sload\n      dup2\n      mstore\n      swap1\n      0x01\n      add\n      swap1\n      0x20\n      add\n      dup1\n      dup4\n      gt\n      tag_66\n      jumpi\n      dup3\n      swap1\n      sub\n      0x1f\n      and\n      dup3\n      add\n      swap2\n    tag_64:\n      pop\n      pop\n      pop\n      pop\n      pop\n      dup2\n      mstore\n      pop\n      pop\n      swap1\n      pop\n        /* \"contracts/Halal.sol\":1920:1927  user_id */\n      dup5\n        /* \"contracts/Halal.sol\":1904:1909  trans */\n      dup2\n        /* \"contracts/Halal.sol\":1904:1917  trans.user_id */\n      0x00\n      add\n        /* \"contracts/Halal.sol\":1904:1927  trans.user_id = user_id */\n      dup2\n      swap1\n      mstore\n      pop\n        /* \"contracts/Halal.sol\":1950:1954  data */\n      dup4\n        /* \"contracts/Halal.sol\":1937:1942  trans */\n      dup2\n        /* \"contracts/Halal.sol\":1937:1947  trans.data */\n      0x20\n      add\n        /* \"contracts/Halal.sol\":1937:1954  trans.data = data */\n      dup2\n      swap1\n      mstore\n      pop\n        /* \"contracts/Halal.sol\":1971:1973  id */\n      dup2\n        /* \"contracts/Halal.sol\":1964:1973  return id */\n      swap3\n      pop\n      pop\n      pop\n        /* \"contracts/Halal.sol\":1611:1980  function add_transaction(... */\n      swap4\n      swap3\n      pop\n      pop\n      pop\n      jump\t// out\n        /* \"contracts/Halal.sol\":881:1409  function add_account(... */\n    tag_23:\n        /* \"contracts/Halal.sol\":1015:1022  bytes32 */\n      0x00\n        /* \"contracts/Halal.sol\":1033:1043  bytes32 id */\n      dup1\n        /* \"contracts/Halal.sol\":1073:1083  account_id */\n      dup5\n        /* \"contracts/Halal.sol\":1056:1084  abi.encodePacked(account_id) */\n      add(0x20, mload(0x40))\n      tag_68\n      swap2\n      swap1\n      tag_38\n      jump\t// in\n    tag_68:\n      mload(0x40)\n      0x20\n      dup2\n      dup4\n      sub\n      sub\n      dup2\n      mstore\n      swap1\n      0x40\n      mstore\n        /* \"contracts/Halal.sol\":1046:1085  keccak256(abi.encodePacked(account_id)) */\n      dup1\n      mload\n      swap1\n      0x20\n      add\n      keccak256\n        /* \"contracts/Halal.sol\":1033:1085  bytes32 id = keccak256(abi.encodePacked(account_id)) */\n      swap1\n      pop\n        /* \"contracts/Halal.sol\":1103:1134  account_checker(id, account_id) */\n      tag_69\n        /* \"contracts/Halal.sol\":1119:1121  id */\n      dup2\n        /* \"contracts/Halal.sol\":1123:1133  account_id */\n      dup7\n        /* \"contracts/Halal.sol\":1103:1118  account_checker */\n      tag_70\n        /* \"contracts/Halal.sol\":1103:1134  account_checker(id, account_id) */\n      jump\t// in\n    tag_69:\n        /* \"contracts/Halal.sol\":1095:1163  require(account_checker(id, account_id), \"Account already existing\") */\n      tag_71\n      jumpi\n      mload(0x40)\n      0x08c379a000000000000000000000000000000000000000000000000000000000\n      dup2\n      mstore\n      0x04\n      add\n      tag_72\n      swap1\n      tag_73\n      jump\t// in\n    tag_72:\n      mload(0x40)\n      dup1\n      swap2\n      sub\n      swap1\n      revert\n    tag_71:\n        /* \"contracts/Halal.sol\":1173:1196  accountData storage acc */\n      0x00\n        /* \"contracts/Halal.sol\":1199:1213  mappingAccount */\n      dup1\n        /* \"contracts/Halal.sol\":1199:1217  mappingAccount[id] */\n      0x00\n        /* \"contracts/Halal.sol\":1214:1216  id */\n      dup4\n        /* \"contracts/Halal.sol\":1199:1217  mappingAccount[id] */\n      dup2\n      mstore\n      0x20\n      add\n      swap1\n      dup2\n      mstore\n      0x20\n      add\n      0x00\n      keccak256\n        /* \"contracts/Halal.sol\":1173:1217  accountData storage acc = mappingAccount[id] */\n      swap1\n      pop\n        /* \"contracts/Halal.sol\":1244:1254  account_id */\n      dup6\n        /* \"contracts/Halal.sol\":1227:1230  acc */\n      dup2\n        /* \"contracts/Halal.sol\":1227:1241  acc.account_id */\n      0x00\n      add\n        /* \"contracts/Halal.sol\":1227:1254  acc.account_id = account_id */\n      swap1\n      dup1\n      mload\n      swap1\n      0x20\n      add\n      swap1\n      tag_74\n      swap3\n      swap2\n      swap1\n      tag_75\n      jump\t// in\n    tag_74:\n      pop\n        /* \"contracts/Halal.sol\":1275:1279  name */\n      dup5\n        /* \"contracts/Halal.sol\":1264:1267  acc */\n      dup2\n        /* \"contracts/Halal.sol\":1264:1272  acc.name */\n      0x01\n      add\n        /* \"contracts/Halal.sol\":1264:1279  acc.name = name */\n      swap1\n      dup1\n      mload\n      swap1\n      0x20\n      add\n      swap1\n      tag_76\n      swap3\n      swap2\n      swap1\n      tag_75\n      jump\t// in\n    tag_76:\n      pop\n        /* \"contracts/Halal.sol\":1300:1304  role */\n      dup4\n        /* \"contracts/Halal.sol\":1289:1292  acc */\n      dup2\n        /* \"contracts/Halal.sol\":1289:1297  acc.role */\n      0x02\n      add\n        /* \"contracts/Halal.sol\":1289:1304  acc.role = role */\n      swap1\n      dup1\n      mload\n      swap1\n      0x20\n      add\n      swap1\n      tag_77\n      swap3\n      swap2\n      swap1\n      tag_75\n      jump\t// in\n    tag_77:\n      pop\n        /* \"contracts/Halal.sol\":1331:1346  block.timestamp */\n      timestamp\n        /* \"contracts/Halal.sol\":1314:1317  acc */\n      dup2\n        /* \"contracts/Halal.sol\":1314:1328  acc.created_at */\n      0x03\n      add\n        /* \"contracts/Halal.sol\":1314:1346  acc.created_at = block.timestamp */\n      dup2\n      swap1\n      sstore\n      pop\n        /* \"contracts/Halal.sol\":1361:1383  success(\"success\", id) */\n      0xc8922d91fbabbe8df5d667708c678575856a856a2a465ebd9626a40ab6a16f5f\n        /* \"contracts/Halal.sol\":1380:1382  id */\n      dup3\n        /* \"contracts/Halal.sol\":1361:1383  success(\"success\", id) */\n      mload(0x40)\n      tag_78\n      swap2\n      swap1\n      tag_79\n      jump\t// in\n    tag_78:\n      mload(0x40)\n      dup1\n      swap2\n      sub\n      swap1\n      log1\n        /* \"contracts/Halal.sol\":1400:1402  id */\n      dup2\n        /* \"contracts/Halal.sol\":1393:1402  return id */\n      swap3\n      pop\n      pop\n      pop\n        /* \"contracts/Halal.sol\":881:1409  function add_account(... */\n      swap4\n      swap3\n      pop\n      pop\n      pop\n      jump\t// out\n        /* \"contracts/Halal.sol\":1986:2195  function get_transaction(string memory transaction_id) external view returns(transaction memory){... */\n    tag_27:\n        /* \"contracts/Halal.sol\":2063:2081  transaction memory */\n      tag_80\n      tag_81\n      jump\t// in\n    tag_80:\n        /* \"contracts/Halal.sol\":2092:2102  bytes32 id */\n      0x00\n        /* \"contracts/Halal.sol\":2132:2146  transaction_id */\n      dup3\n        /* \"contracts/Halal.sol\":2115:2147  abi.encodePacked(transaction_id) */\n      add(0x20, mload(0x40))\n      tag_83\n      swap2\n      swap1\n      tag_38\n      jump\t// in\n    tag_83:\n      mload(0x40)\n      0x20\n      dup2\n      dup4\n      sub\n      sub\n      dup2\n      mstore\n      swap1\n      0x40\n      mstore\n        /* \"contracts/Halal.sol\":2105:2148  keccak256(abi.encodePacked(transaction_id)) */\n      dup1\n      mload\n      swap1\n      0x20\n      add\n      keccak256\n        /* \"contracts/Halal.sol\":2092:2148  bytes32 id = keccak256(abi.encodePacked(transaction_id)) */\n      swap1\n      pop\n        /* \"contracts/Halal.sol\":2165:2183  mappingTransaction */\n      0x01\n        /* \"contracts/Halal.sol\":2165:2187  mappingTransaction[id] */\n      0x00\n        /* \"contracts/Halal.sol\":2184:2186  id */\n      dup3\n        /* \"contracts/Halal.sol\":2165:2187  mappingTransaction[id] */\n      dup2\n      mstore\n      0x20\n      add\n      swap1\n      dup2\n      mstore\n      0x20\n      add\n      0x00\n      keccak256\n        /* \"contracts/Halal.sol\":2158:2187  return mappingTransaction[id] */\n      mload(0x40)\n      dup1\n      0x40\n      add\n      0x40\n      mstore\n      swap1\n      dup2\n      0x00\n      dup3\n      add\n      dup1\n      sload\n      tag_84\n      swap1\n      tag_40\n      jump\t// in\n    tag_84:\n      dup1\n      0x1f\n      add\n      0x20\n      dup1\n      swap2\n      div\n      mul\n      0x20\n      add\n      mload(0x40)\n      swap1\n      dup2\n      add\n      0x40\n      mstore\n      dup1\n      swap3\n      swap2\n      swap1\n      dup2\n      dup2\n      mstore\n      0x20\n      add\n      dup3\n      dup1\n      sload\n      tag_85\n      swap1\n      tag_40\n      jump\t// in\n    tag_85:\n      dup1\n      iszero\n      tag_86\n      jumpi\n      dup1\n      0x1f\n      lt\n      tag_87\n      jumpi\n      0x0100\n      dup1\n      dup4\n      sload\n      div\n      mul\n      dup4\n      mstore\n      swap2\n      0x20\n      add\n      swap2\n      jump(tag_86)\n    tag_87:\n      dup3\n      add\n      swap2\n      swap1\n      0x00\n      mstore\n      keccak256(0x00, 0x20)\n      swap1\n    tag_88:\n      dup2\n      sload\n      dup2\n      mstore\n      swap1\n      0x01\n      add\n      swap1\n      0x20\n      add\n      dup1\n      dup4\n      gt\n      tag_88\n      jumpi\n      dup3\n      swap1\n      sub\n      0x1f\n      and\n      dup3\n      add\n      swap2\n    tag_86:\n      pop\n      pop\n      pop\n      pop\n      pop\n      dup2\n      mstore\n      0x20\n      add\n      0x01\n      dup3\n      add\n      dup1\n      sload\n      tag_89\n      swap1\n      tag_40\n      jump\t// in\n    tag_89:\n      dup1\n      0x1f\n      add\n      0x20\n      dup1\n      swap2\n      div\n      mul\n      0x20\n      add\n      mload(0x40)\n      swap1\n      dup2\n      add\n      0x40\n      mstore\n      dup1\n      swap3\n      swap2\n      swap1\n      dup2\n      dup2\n      mstore\n      0x20\n      add\n      dup3\n      dup1\n      sload\n      tag_90\n      swap1\n      tag_40\n      jump\t// in\n    tag_90:\n      dup1\n      iszero\n      tag_91\n      jumpi\n      dup1\n      0x1f\n      lt\n      tag_92\n      jumpi\n      0x0100\n      dup1\n      dup4\n      sload\n      div\n      mul\n      dup4\n      mstore\n      swap2\n      0x20\n      add\n      swap2\n      jump(tag_91)\n    tag_92:\n      dup3\n      add\n      swap2\n      swap1\n      0x00\n      mstore\n      keccak256(0x00, 0x20)\n      swap1\n    tag_93:\n      dup2\n      sload\n      dup2\n      mstore\n      swap1\n      0x01\n      add\n      swap1\n      0x20\n      add\n      dup1\n      dup4\n      gt\n      tag_93\n      jumpi\n      dup3\n      swap1\n      sub\n      0x1f\n      and\n      dup3\n      add\n      swap2\n    tag_91:\n      pop\n      pop\n      pop\n      pop\n      pop\n      dup2\n      mstore\n      pop\n      pop\n      swap2\n      pop\n      pop\n        /* \"contracts/Halal.sol\":1986:2195  function get_transaction(string memory transaction_id) external view returns(transaction memory){... */\n      swap2\n      swap1\n      pop\n      jump\t// out\n        /* \"contracts/Halal.sol\":2201:2347  function add_certificate(string memory umkm_id, string memory cert_id) external{... */\n    tag_33:\n        /* \"contracts/Halal.sol\":2290:2300  bytes32 id */\n      0x00\n        /* \"contracts/Halal.sol\":2330:2337  umkm_id */\n      dup3\n        /* \"contracts/Halal.sol\":2313:2338  abi.encodePacked(umkm_id) */\n      add(0x20, mload(0x40))\n      tag_95\n      swap2\n      swap1\n      tag_38\n      jump\t// in\n    tag_95:\n      mload(0x40)\n      0x20\n      dup2\n      dup4\n      sub\n      sub\n      dup2\n      mstore\n      swap1\n      0x40\n      mstore\n        /* \"contracts/Halal.sol\":2303:2339  keccak256(abi.encodePacked(umkm_id)) */\n      dup1\n      mload\n      swap1\n      0x20\n      add\n      keccak256\n        /* \"contracts/Halal.sol\":2290:2339  bytes32 id = keccak256(abi.encodePacked(umkm_id)) */\n      swap1\n      pop\n        /* \"contracts/Halal.sol\":2280:2347  {... */\n      pop\n        /* \"contracts/Halal.sol\":2201:2347  function add_certificate(string memory umkm_id, string memory cert_id) external{... */\n      pop\n      pop\n      jump\t// out\n        /* \"contracts/Halal.sol\":667:875  function account_checker(bytes32 id, string memory umkm_id) private view returns(bool){... */\n    tag_70:\n        /* \"contracts/Halal.sol\":748:752  bool */\n      0x00\n        /* \"contracts/Halal.sol\":859:866  umkm_id */\n      dup2\n        /* \"contracts/Halal.sol\":842:867  abi.encodePacked(umkm_id) */\n      add(0x20, mload(0x40))\n      tag_97\n      swap2\n      swap1\n      tag_38\n      jump\t// in\n    tag_97:\n      mload(0x40)\n      0x20\n      dup2\n      dup4\n      sub\n      sub\n      dup2\n      mstore\n      swap1\n      0x40\n      mstore\n        /* \"contracts/Halal.sol\":832:868  keccak256(abi.encodePacked(umkm_id)) */\n      dup1\n      mload\n      swap1\n      0x20\n      add\n      keccak256\n        /* \"contracts/Halal.sol\":797:811  mappingAccount */\n      0x00\n        /* \"contracts/Halal.sol\":797:815  mappingAccount[id] */\n      dup1\n        /* \"contracts/Halal.sol\":812:814  id */\n      dup6\n        /* \"contracts/Halal.sol\":797:815  mappingAccount[id] */\n      dup2\n      mstore\n      0x20\n      add\n      swap1\n      dup2\n      mstore\n      0x20\n      add\n      0x00\n      keccak256\n        /* \"contracts/Halal.sol\":797:826  mappingAccount[id].account_id */\n      0x00\n      add\n        /* \"contracts/Halal.sol\":780:827  abi.encodePacked(mappingAccount[id].account_id) */\n      add(0x20, mload(0x40))\n      tag_98\n      swap2\n      swap1\n      tag_99\n      jump\t// in\n    tag_98:\n      mload(0x40)\n      0x20\n      dup2\n      dup4\n      sub\n      sub\n      dup2\n      mstore\n      swap1\n      0x40\n      mstore\n        /* \"contracts/Halal.sol\":770:828  keccak256(abi.encodePacked(mappingAccount[id].account_id)) */\n      dup1\n      mload\n      swap1\n      0x20\n      add\n      keccak256\n        /* \"contracts/Halal.sol\":770:868  keccak256(abi.encodePacked(mappingAccount[id].account_id)) != keccak256(abi.encodePacked(umkm_id)) */\n      eq\n      iszero\n        /* \"contracts/Halal.sol\":763:868  return keccak256(abi.encodePacked(mappingAccount[id].account_id)) != keccak256(abi.encodePacked(umkm_id)) */\n      swap1\n      pop\n        /* \"contracts/Halal.sol\":667:875  function account_checker(bytes32 id, string memory umkm_id) private view returns(bool){... */\n      swap3\n      swap2\n      pop\n      pop\n      jump\t// out\n    tag_35:\n      mload(0x40)\n      dup1\n      0x80\n      add\n      0x40\n      mstore\n      dup1\n      0x60\n      dup2\n      mstore\n      0x20\n      add\n      0x60\n      dup2\n      mstore\n      0x20\n      add\n      0x60\n      dup2\n      mstore\n      0x20\n      add\n      0x00\n      dup2\n      mstore\n      pop\n      swap1\n      jump\t// out\n    tag_75:\n      dup3\n      dup1\n      sload\n      tag_100\n      swap1\n      tag_40\n      jump\t// in\n    tag_100:\n      swap1\n      0x00\n      mstore\n      keccak256(0x00, 0x20)\n      swap1\n      0x1f\n      add\n      0x20\n      swap1\n      div\n      dup2\n      add\n      swap3\n      dup3\n      tag_102\n      jumpi\n      0x00\n      dup6\n      sstore\n      jump(tag_101)\n    tag_102:\n      dup3\n      0x1f\n      lt\n      tag_103\n      jumpi\n      dup1\n      mload\n      not(0xff)\n      and\n      dup4\n      dup1\n      add\n      or\n      dup6\n      sstore\n      jump(tag_101)\n    tag_103:\n      dup3\n      dup1\n      add\n      0x01\n      add\n      dup6\n      sstore\n      dup3\n      iszero\n      tag_101\n      jumpi\n      swap2\n      dup3\n      add\n    tag_104:\n      dup3\n      dup2\n      gt\n      iszero\n      tag_105\n      jumpi\n      dup3\n      mload\n      dup3\n      sstore\n      swap2\n      0x20\n      add\n      swap2\n      swap1\n      0x01\n      add\n      swap1\n      jump(tag_104)\n    tag_105:\n    tag_101:\n      pop\n      swap1\n      pop\n      tag_106\n      swap2\n      swap1\n      tag_107\n      jump\t// in\n    tag_106:\n      pop\n      swap1\n      jump\t// out\n    tag_81:\n      mload(0x40)\n      dup1\n      0x40\n      add\n      0x40\n      mstore\n      dup1\n      0x60\n      dup2\n      mstore\n      0x20\n      add\n      0x60\n      dup2\n      mstore\n      pop\n      swap1\n      jump\t// out\n    tag_107:\n    tag_108:\n      dup1\n      dup3\n      gt\n      iszero\n      tag_109\n      jumpi\n      0x00\n      dup2\n      0x00\n      swap1\n      sstore\n      pop\n      0x01\n      add\n      jump(tag_108)\n    tag_109:\n      pop\n      swap1\n      jump\t// out\n        /* \"#utility.yul\":7:417   */\n    tag_111:\n        /* \"#utility.yul\":84:89   */\n      0x00\n        /* \"#utility.yul\":109:174   */\n      tag_113\n        /* \"#utility.yul\":125:173   */\n      tag_114\n        /* \"#utility.yul\":166:172   */\n      dup5\n        /* \"#utility.yul\":125:173   */\n      tag_115\n      jump\t// in\n    tag_114:\n        /* \"#utility.yul\":109:174   */\n      tag_116\n      jump\t// in\n    tag_113:\n        /* \"#utility.yul\":100:174   */\n      swap1\n      pop\n        /* \"#utility.yul\":197:203   */\n      dup3\n        /* \"#utility.yul\":190:195   */\n      dup2\n        /* \"#utility.yul\":183:204   */\n      mstore\n        /* \"#utility.yul\":235:239   */\n      0x20\n        /* \"#utility.yul\":228:233   */\n      dup2\n        /* \"#utility.yul\":224:240   */\n      add\n        /* \"#utility.yul\":273:276   */\n      dup5\n        /* \"#utility.yul\":264:270   */\n      dup5\n        /* \"#utility.yul\":259:262   */\n      dup5\n        /* \"#utility.yul\":255:271   */\n      add\n        /* \"#utility.yul\":252:277   */\n      gt\n        /* \"#utility.yul\":249:361   */\n      iszero\n      tag_117\n      jumpi\n        /* \"#utility.yul\":280:359   */\n      tag_118\n      tag_119\n      jump\t// in\n    tag_118:\n        /* \"#utility.yul\":249:361   */\n    tag_117:\n        /* \"#utility.yul\":370:411   */\n      tag_120\n        /* \"#utility.yul\":404:410   */\n      dup5\n        /* \"#utility.yul\":399:402   */\n      dup3\n        /* \"#utility.yul\":394:397   */\n      dup6\n        /* \"#utility.yul\":370:411   */\n      tag_121\n      jump\t// in\n    tag_120:\n        /* \"#utility.yul\":90:417   */\n      pop\n        /* \"#utility.yul\":7:417   */\n      swap4\n      swap3\n      pop\n      pop\n      pop\n      jump\t// out\n        /* \"#utility.yul\":423:835   */\n    tag_122:\n        /* \"#utility.yul\":501:506   */\n      0x00\n        /* \"#utility.yul\":526:592   */\n      tag_124\n        /* \"#utility.yul\":542:591   */\n      tag_125\n        /* \"#utility.yul\":584:590   */\n      dup5\n        /* \"#utility.yul\":542:591   */\n      tag_126\n      jump\t// in\n    tag_125:\n        /* \"#utility.yul\":526:592   */\n      tag_116\n      jump\t// in\n    tag_124:\n        /* \"#utility.yul\":517:592   */\n      swap1\n      pop\n        /* \"#utility.yul\":615:621   */\n      dup3\n        /* \"#utility.yul\":608:613   */\n      dup2\n        /* \"#utility.yul\":601:622   */\n      mstore\n        /* \"#utility.yul\":653:657   */\n      0x20\n        /* \"#utility.yul\":646:651   */\n      dup2\n        /* \"#utility.yul\":642:658   */\n      add\n        /* \"#utility.yul\":691:694   */\n      dup5\n        /* \"#utility.yul\":682:688   */\n      dup5\n        /* \"#utility.yul\":677:680   */\n      dup5\n        /* \"#utility.yul\":673:689   */\n      add\n        /* \"#utility.yul\":670:695   */\n      gt\n        /* \"#utility.yul\":667:779   */\n      iszero\n      tag_127\n      jumpi\n        /* \"#utility.yul\":698:777   */\n      tag_128\n      tag_119\n      jump\t// in\n    tag_128:\n        /* \"#utility.yul\":667:779   */\n    tag_127:\n        /* \"#utility.yul\":788:829   */\n      tag_129\n        /* \"#utility.yul\":822:828   */\n      dup5\n        /* \"#utility.yul\":817:820   */\n      dup3\n        /* \"#utility.yul\":812:815   */\n      dup6\n        /* \"#utility.yul\":788:829   */\n      tag_121\n      jump\t// in\n    tag_129:\n        /* \"#utility.yul\":507:835   */\n      pop\n        /* \"#utility.yul\":423:835   */\n      swap4\n      swap3\n      pop\n      pop\n      pop\n      jump\t// out\n        /* \"#utility.yul\":854:1192   */\n    tag_130:\n        /* \"#utility.yul\":909:914   */\n      0x00\n        /* \"#utility.yul\":958:961   */\n      dup3\n        /* \"#utility.yul\":951:955   */\n      0x1f\n        /* \"#utility.yul\":943:949   */\n      dup4\n        /* \"#utility.yul\":939:956   */\n      add\n        /* \"#utility.yul\":935:962   */\n      slt\n        /* \"#utility.yul\":925:1047   */\n      tag_132\n      jumpi\n        /* \"#utility.yul\":966:1045   */\n      tag_133\n      tag_134\n      jump\t// in\n    tag_133:\n        /* \"#utility.yul\":925:1047   */\n    tag_132:\n        /* \"#utility.yul\":1083:1089   */\n      dup2\n        /* \"#utility.yul\":1070:1090   */\n      calldataload\n        /* \"#utility.yul\":1108:1186   */\n      tag_135\n        /* \"#utility.yul\":1182:1185   */\n      dup5\n        /* \"#utility.yul\":1174:1180   */\n      dup3\n        /* \"#utility.yul\":1167:1171   */\n      0x20\n        /* \"#utility.yul\":1159:1165   */\n      dup7\n        /* \"#utility.yul\":1155:1172   */\n      add\n        /* \"#utility.yul\":1108:1186   */\n      tag_111\n      jump\t// in\n    tag_135:\n        /* \"#utility.yul\":1099:1186   */\n      swap2\n      pop\n        /* \"#utility.yul\":915:1192   */\n      pop\n        /* \"#utility.yul\":854:1192   */\n      swap3\n      swap2\n      pop\n      pop\n      jump\t// out\n        /* \"#utility.yul\":1212:1552   */\n    tag_136:\n        /* \"#utility.yul\":1268:1273   */\n      0x00\n        /* \"#utility.yul\":1317:1320   */\n      dup3\n        /* \"#utility.yul\":1310:1314   */\n      0x1f\n        /* \"#utility.yul\":1302:1308   */\n      dup4\n        /* \"#utility.yul\":1298:1315   */\n      add\n        /* \"#utility.yul\":1294:1321   */\n      slt\n        /* \"#utility.yul\":1284:1406   */\n      tag_138\n      jumpi\n        /* \"#utility.yul\":1325:1404   */\n      tag_139\n      tag_134\n      jump\t// in\n    tag_139:\n        /* \"#utility.yul\":1284:1406   */\n    tag_138:\n        /* \"#utility.yul\":1442:1448   */\n      dup2\n        /* \"#utility.yul\":1429:1449   */\n      calldataload\n        /* \"#utility.yul\":1467:1546   */\n      tag_140\n        /* \"#utility.yul\":1542:1545   */\n      dup5\n        /* \"#utility.yul\":1534:1540   */\n      dup3\n        /* \"#utility.yul\":1527:1531   */\n      0x20\n        /* \"#utility.yul\":1519:1525   */\n      dup7\n        /* \"#utility.yul\":1515:1532   */\n      add\n        /* \"#utility.yul\":1467:1546   */\n      tag_122\n      jump\t// in\n    tag_140:\n        /* \"#utility.yul\":1458:1546   */\n      swap2\n      pop\n        /* \"#utility.yul\":1274:1552   */\n      pop\n        /* \"#utility.yul\":1212:1552   */\n      swap3\n      swap2\n      pop\n      pop\n      jump\t// out\n        /* \"#utility.yul\":1558:2067   */\n    tag_10:\n        /* \"#utility.yul\":1627:1633   */\n      0x00\n        /* \"#utility.yul\":1676:1678   */\n      0x20\n        /* \"#utility.yul\":1664:1673   */\n      dup3\n        /* \"#utility.yul\":1655:1662   */\n      dup5\n        /* \"#utility.yul\":1651:1674   */\n      sub\n        /* \"#utility.yul\":1647:1679   */\n      slt\n        /* \"#utility.yul\":1644:1763   */\n      iszero\n      tag_142\n      jumpi\n        /* \"#utility.yul\":1682:1761   */\n      tag_143\n      tag_144\n      jump\t// in\n    tag_143:\n        /* \"#utility.yul\":1644:1763   */\n    tag_142:\n        /* \"#utility.yul\":1830:1831   */\n      0x00\n        /* \"#utility.yul\":1819:1828   */\n      dup3\n        /* \"#utility.yul\":1815:1832   */\n      add\n        /* \"#utility.yul\":1802:1833   */\n      calldataload\n        /* \"#utility.yul\":1860:1878   */\n      0xffffffffffffffff\n        /* \"#utility.yul\":1852:1858   */\n      dup2\n        /* \"#utility.yul\":1849:1879   */\n      gt\n        /* \"#utility.yul\":1846:1963   */\n      iszero\n      tag_145\n      jumpi\n        /* \"#utility.yul\":1882:1961   */\n      tag_146\n      tag_147\n      jump\t// in\n    tag_146:\n        /* \"#utility.yul\":1846:1963   */\n    tag_145:\n        /* \"#utility.yul\":1987:2050   */\n      tag_148\n        /* \"#utility.yul\":2042:2049   */\n      dup5\n        /* \"#utility.yul\":2033:2039   */\n      dup3\n        /* \"#utility.yul\":2022:2031   */\n      dup6\n        /* \"#utility.yul\":2018:2040   */\n      add\n        /* \"#utility.yul\":1987:2050   */\n      tag_136\n      jump\t// in\n    tag_148:\n        /* \"#utility.yul\":1977:2050   */\n      swap2\n      pop\n        /* \"#utility.yul\":1773:2060   */\n      pop\n        /* \"#utility.yul\":1558:2067   */\n      swap3\n      swap2\n      pop\n      pop\n      jump\t// out\n        /* \"#utility.yul\":2073:2907   */\n    tag_32:\n        /* \"#utility.yul\":2161:2167   */\n      0x00\n        /* \"#utility.yul\":2169:2175   */\n      dup1\n        /* \"#utility.yul\":2218:2220   */\n      0x40\n        /* \"#utility.yul\":2206:2215   */\n      dup4\n        /* \"#utility.yul\":2197:2204   */\n      dup6\n        /* \"#utility.yul\":2193:2216   */\n      sub\n        /* \"#utility.yul\":2189:2221   */\n      slt\n        /* \"#utility.yul\":2186:2305   */\n      iszero\n      tag_150\n      jumpi\n        /* \"#utility.yul\":2224:2303   */\n      tag_151\n      tag_144\n      jump\t// in\n    tag_151:\n        /* \"#utility.yul\":2186:2305   */\n    tag_150:\n        /* \"#utility.yul\":2372:2373   */\n      0x00\n        /* \"#utility.yul\":2361:2370   */\n      dup4\n        /* \"#utility.yul\":2357:2374   */\n      add\n        /* \"#utility.yul\":2344:2375   */\n      calldataload\n        /* \"#utility.yul\":2402:2420   */\n      0xffffffffffffffff\n        /* \"#utility.yul\":2394:2400   */\n      dup2\n        /* \"#utility.yul\":2391:2421   */\n      gt\n        /* \"#utility.yul\":2388:2505   */\n      iszero\n      tag_152\n      jumpi\n        /* \"#utility.yul\":2424:2503   */\n      tag_153\n      tag_147\n      jump\t// in\n    tag_153:\n        /* \"#utility.yul\":2388:2505   */\n    tag_152:\n        /* \"#utility.yul\":2529:2592   */\n      tag_154\n        /* \"#utility.yul\":2584:2591   */\n      dup6\n        /* \"#utility.yul\":2575:2581   */\n      dup3\n        /* \"#utility.yul\":2564:2573   */\n      dup7\n        /* \"#utility.yul\":2560:2582   */\n      add\n        /* \"#utility.yul\":2529:2592   */\n      tag_136\n      jump\t// in\n    tag_154:\n        /* \"#utility.yul\":2519:2592   */\n      swap3\n      pop\n        /* \"#utility.yul\":2315:2602   */\n      pop\n        /* \"#utility.yul\":2669:2671   */\n      0x20\n        /* \"#utility.yul\":2658:2667   */\n      dup4\n        /* \"#utility.yul\":2654:2672   */\n      add\n        /* \"#utility.yul\":2641:2673   */\n      calldataload\n        /* \"#utility.yul\":2700:2718   */\n      0xffffffffffffffff\n        /* \"#utility.yul\":2692:2698   */\n      dup2\n        /* \"#utility.yul\":2689:2719   */\n      gt\n        /* \"#utility.yul\":2686:2803   */\n      iszero\n      tag_155\n      jumpi\n        /* \"#utility.yul\":2722:2801   */\n      tag_156\n      tag_147\n      jump\t// in\n    tag_156:\n        /* \"#utility.yul\":2686:2803   */\n    tag_155:\n        /* \"#utility.yul\":2827:2890   */\n      tag_157\n        /* \"#utility.yul\":2882:2889   */\n      dup6\n        /* \"#utility.yul\":2873:2879   */\n      dup3\n        /* \"#utility.yul\":2862:2871   */\n      dup7\n        /* \"#utility.yul\":2858:2880   */\n      add\n        /* \"#utility.yul\":2827:2890   */\n      tag_136\n      jump\t// in\n    tag_157:\n        /* \"#utility.yul\":2817:2890   */\n      swap2\n      pop\n        /* \"#utility.yul\":2612:2900   */\n      pop\n        /* \"#utility.yul\":2073:2907   */\n      swap3\n      pop\n      swap3\n      swap1\n      pop\n      jump\t// out\n        /* \"#utility.yul\":2913:4070   */\n    tag_16:\n        /* \"#utility.yul\":3019:3025   */\n      0x00\n        /* \"#utility.yul\":3027:3033   */\n      dup1\n        /* \"#utility.yul\":3035:3041   */\n      0x00\n        /* \"#utility.yul\":3084:3086   */\n      0x60\n        /* \"#utility.yul\":3072:3081   */\n      dup5\n        /* \"#utility.yul\":3063:3070   */\n      dup7\n        /* \"#utility.yul\":3059:3082   */\n      sub\n        /* \"#utility.yul\":3055:3087   */\n      slt\n        /* \"#utility.yul\":3052:3171   */\n      iszero\n      tag_159\n      jumpi\n        /* \"#utility.yul\":3090:3169   */\n      tag_160\n      tag_144\n      jump\t// in\n    tag_160:\n        /* \"#utility.yul\":3052:3171   */\n    tag_159:\n        /* \"#utility.yul\":3238:3239   */\n      0x00\n        /* \"#utility.yul\":3227:3236   */\n      dup5\n        /* \"#utility.yul\":3223:3240   */\n      add\n        /* \"#utility.yul\":3210:3241   */\n      calldataload\n        /* \"#utility.yul\":3268:3286   */\n      0xffffffffffffffff\n        /* \"#utility.yul\":3260:3266   */\n      dup2\n        /* \"#utility.yul\":3257:3287   */\n      gt\n        /* \"#utility.yul\":3254:3371   */\n      iszero\n      tag_161\n      jumpi\n        /* \"#utility.yul\":3290:3369   */\n      tag_162\n      tag_147\n      jump\t// in\n    tag_162:\n        /* \"#utility.yul\":3254:3371   */\n    tag_161:\n        /* \"#utility.yul\":3395:3458   */\n      tag_163\n        /* \"#utility.yul\":3450:3457   */\n      dup7\n        /* \"#utility.yul\":3441:3447   */\n      dup3\n        /* \"#utility.yul\":3430:3439   */\n      dup8\n        /* \"#utility.yul\":3426:3448   */\n      add\n        /* \"#utility.yul\":3395:3458   */\n      tag_136\n      jump\t// in\n    tag_163:\n        /* \"#utility.yul\":3385:3458   */\n      swap4\n      pop\n        /* \"#utility.yul\":3181:3468   */\n      pop\n        /* \"#utility.yul\":3535:3537   */\n      0x20\n        /* \"#utility.yul\":3524:3533   */\n      dup5\n        /* \"#utility.yul\":3520:3538   */\n      add\n        /* \"#utility.yul\":3507:3539   */\n      calldataload\n        /* \"#utility.yul\":3566:3584   */\n      0xffffffffffffffff\n        /* \"#utility.yul\":3558:3564   */\n      dup2\n        /* \"#utility.yul\":3555:3585   */\n      gt\n        /* \"#utility.yul\":3552:3669   */\n      iszero\n      tag_164\n      jumpi\n        /* \"#utility.yul\":3588:3667   */\n      tag_165\n      tag_147\n      jump\t// in\n    tag_165:\n        /* \"#utility.yul\":3552:3669   */\n    tag_164:\n        /* \"#utility.yul\":3693:3756   */\n      tag_166\n        /* \"#utility.yul\":3748:3755   */\n      dup7\n        /* \"#utility.yul\":3739:3745   */\n      dup3\n        /* \"#utility.yul\":3728:3737   */\n      dup8\n        /* \"#utility.yul\":3724:3746   */\n      add\n        /* \"#utility.yul\":3693:3756   */\n      tag_136\n      jump\t// in\n    tag_166:\n        /* \"#utility.yul\":3683:3756   */\n      swap3\n      pop\n        /* \"#utility.yul\":3478:3766   */\n      pop\n        /* \"#utility.yul\":3833:3835   */\n      0x40\n        /* \"#utility.yul\":3822:3831   */\n      dup5\n        /* \"#utility.yul\":3818:3836   */\n      add\n        /* \"#utility.yul\":3805:3837   */\n      calldataload\n        /* \"#utility.yul\":3864:3882   */\n      0xffffffffffffffff\n        /* \"#utility.yul\":3856:3862   */\n      dup2\n        /* \"#utility.yul\":3853:3883   */\n      gt\n        /* \"#utility.yul\":3850:3967   */\n      iszero\n      tag_167\n      jumpi\n        /* \"#utility.yul\":3886:3965   */\n      tag_168\n      tag_147\n      jump\t// in\n    tag_168:\n        /* \"#utility.yul\":3850:3967   */\n    tag_167:\n        /* \"#utility.yul\":3991:4053   */\n      tag_169\n        /* \"#utility.yul\":4045:4052   */\n      dup7\n        /* \"#utility.yul\":4036:4042   */\n      dup3\n        /* \"#utility.yul\":4025:4034   */\n      dup8\n        /* \"#utility.yul\":4021:4043   */\n      add\n        /* \"#utility.yul\":3991:4053   */\n      tag_130\n      jump\t// in\n    tag_169:\n        /* \"#utility.yul\":3981:4053   */\n      swap2\n      pop\n        /* \"#utility.yul\":3776:4063   */\n      pop\n        /* \"#utility.yul\":2913:4070   */\n      swap3\n      pop\n      swap3\n      pop\n      swap3\n      jump\t// out\n        /* \"#utility.yul\":4076:5235   */\n    tag_22:\n        /* \"#utility.yul\":4183:4189   */\n      0x00\n        /* \"#utility.yul\":4191:4197   */\n      dup1\n        /* \"#utility.yul\":4199:4205   */\n      0x00\n        /* \"#utility.yul\":4248:4250   */\n      0x60\n        /* \"#utility.yul\":4236:4245   */\n      dup5\n        /* \"#utility.yul\":4227:4234   */\n      dup7\n        /* \"#utility.yul\":4223:4246   */\n      sub\n        /* \"#utility.yul\":4219:4251   */\n      slt\n        /* \"#utility.yul\":4216:4335   */\n      iszero\n      tag_171\n      jumpi\n        /* \"#utility.yul\":4254:4333   */\n      tag_172\n      tag_144\n      jump\t// in\n    tag_172:\n        /* \"#utility.yul\":4216:4335   */\n    tag_171:\n        /* \"#utility.yul\":4402:4403   */\n      0x00\n        /* \"#utility.yul\":4391:4400   */\n      dup5\n        /* \"#utility.yul\":4387:4404   */\n      add\n        /* \"#utility.yul\":4374:4405   */\n      calldataload\n        /* \"#utility.yul\":4432:4450   */\n      0xffffffffffffffff\n        /* \"#utility.yul\":4424:4430   */\n      dup2\n        /* \"#utility.yul\":4421:4451   */\n      gt\n        /* \"#utility.yul\":4418:4535   */\n      iszero\n      tag_173\n      jumpi\n        /* \"#utility.yul\":4454:4533   */\n      tag_174\n      tag_147\n      jump\t// in\n    tag_174:\n        /* \"#utility.yul\":4418:4535   */\n    tag_173:\n        /* \"#utility.yul\":4559:4622   */\n      tag_175\n        /* \"#utility.yul\":4614:4621   */\n      dup7\n        /* \"#utility.yul\":4605:4611   */\n      dup3\n        /* \"#utility.yul\":4594:4603   */\n      dup8\n        /* \"#utility.yul\":4590:4612   */\n      add\n        /* \"#utility.yul\":4559:4622   */\n      tag_136\n      jump\t// in\n    tag_175:\n        /* \"#utility.yul\":4549:4622   */\n      swap4\n      pop\n        /* \"#utility.yul\":4345:4632   */\n      pop\n        /* \"#utility.yul\":4699:4701   */\n      0x20\n        /* \"#utility.yul\":4688:4697   */\n      dup5\n        /* \"#utility.yul\":4684:4702   */\n      add\n        /* \"#utility.yul\":4671:4703   */\n      calldataload\n        /* \"#utility.yul\":4730:4748   */\n      0xffffffffffffffff\n        /* \"#utility.yul\":4722:4728   */\n      dup2\n        /* \"#utility.yul\":4719:4749   */\n      gt\n        /* \"#utility.yul\":4716:4833   */\n      iszero\n      tag_176\n      jumpi\n        /* \"#utility.yul\":4752:4831   */\n      tag_177\n      tag_147\n      jump\t// in\n    tag_177:\n        /* \"#utility.yul\":4716:4833   */\n    tag_176:\n        /* \"#utility.yul\":4857:4920   */\n      tag_178\n        /* \"#utility.yul\":4912:4919   */\n      dup7\n        /* \"#utility.yul\":4903:4909   */\n      dup3\n        /* \"#utility.yul\":4892:4901   */\n      dup8\n        /* \"#utility.yul\":4888:4910   */\n      add\n        /* \"#utility.yul\":4857:4920   */\n      tag_136\n      jump\t// in\n    tag_178:\n        /* \"#utility.yul\":4847:4920   */\n      swap3\n      pop\n        /* \"#utility.yul\":4642:4930   */\n      pop\n        /* \"#utility.yul\":4997:4999   */\n      0x40\n        /* \"#utility.yul\":4986:4995   */\n      dup5\n        /* \"#utility.yul\":4982:5000   */\n      add\n        /* \"#utility.yul\":4969:5001   */\n      calldataload\n        /* \"#utility.yul\":5028:5046   */\n      0xffffffffffffffff\n        /* \"#utility.yul\":5020:5026   */\n      dup2\n        /* \"#utility.yul\":5017:5047   */\n      gt\n        /* \"#utility.yul\":5014:5131   */\n      iszero\n      tag_179\n      jumpi\n        /* \"#utility.yul\":5050:5129   */\n      tag_180\n      tag_147\n      jump\t// in\n    tag_180:\n        /* \"#utility.yul\":5014:5131   */\n    tag_179:\n        /* \"#utility.yul\":5155:5218   */\n      tag_181\n        /* \"#utility.yul\":5210:5217   */\n      dup7\n        /* \"#utility.yul\":5201:5207   */\n      dup3\n        /* \"#utility.yul\":5190:5199   */\n      dup8\n        /* \"#utility.yul\":5186:5208   */\n      add\n        /* \"#utility.yul\":5155:5218   */\n      tag_136\n      jump\t// in\n    tag_181:\n        /* \"#utility.yul\":5145:5218   */\n      swap2\n      pop\n        /* \"#utility.yul\":4940:5228   */\n      pop\n        /* \"#utility.yul\":4076:5235   */\n      swap3\n      pop\n      swap3\n      pop\n      swap3\n      jump\t// out\n        /* \"#utility.yul\":5241:5359   */\n    tag_182:\n        /* \"#utility.yul\":5328:5352   */\n      tag_184\n        /* \"#utility.yul\":5346:5351   */\n      dup2\n        /* \"#utility.yul\":5328:5352   */\n      tag_185\n      jump\t// in\n    tag_184:\n        /* \"#utility.yul\":5323:5326   */\n      dup3\n        /* \"#utility.yul\":5316:5353   */\n      mstore\n        /* \"#utility.yul\":5241:5359   */\n      pop\n      pop\n      jump\t// out\n        /* \"#utility.yul\":5365:5705   */\n    tag_186:\n        /* \"#utility.yul\":5441:5444   */\n      0x00\n        /* \"#utility.yul\":5469:5507   */\n      tag_188\n        /* \"#utility.yul\":5501:5506   */\n      dup3\n        /* \"#utility.yul\":5469:5507   */\n      tag_189\n      jump\t// in\n    tag_188:\n        /* \"#utility.yul\":5523:5583   */\n      tag_190\n        /* \"#utility.yul\":5576:5582   */\n      dup2\n        /* \"#utility.yul\":5571:5574   */\n      dup6\n        /* \"#utility.yul\":5523:5583   */\n      tag_191\n      jump\t// in\n    tag_190:\n        /* \"#utility.yul\":5516:5583   */\n      swap4\n      pop\n        /* \"#utility.yul\":5592:5644   */\n      tag_192\n        /* \"#utility.yul\":5637:5643   */\n      dup2\n        /* \"#utility.yul\":5632:5635   */\n      dup6\n        /* \"#utility.yul\":5625:5629   */\n      0x20\n        /* \"#utility.yul\":5618:5623   */\n      dup7\n        /* \"#utility.yul\":5614:5630   */\n      add\n        /* \"#utility.yul\":5592:5644   */\n      tag_193\n      jump\t// in\n    tag_192:\n        /* \"#utility.yul\":5669:5698   */\n      tag_194\n        /* \"#utility.yul\":5691:5697   */\n      dup2\n        /* \"#utility.yul\":5669:5698   */\n      tag_195\n      jump\t// in\n    tag_194:\n        /* \"#utility.yul\":5664:5667   */\n      dup5\n        /* \"#utility.yul\":5660:5699   */\n      add\n        /* \"#utility.yul\":5653:5699   */\n      swap2\n      pop\n        /* \"#utility.yul\":5445:5705   */\n      pop\n        /* \"#utility.yul\":5365:5705   */\n      swap3\n      swap2\n      pop\n      pop\n      jump\t// out\n        /* \"#utility.yul\":5711:6055   */\n    tag_196:\n        /* \"#utility.yul\":5789:5792   */\n      0x00\n        /* \"#utility.yul\":5817:5856   */\n      tag_198\n        /* \"#utility.yul\":5850:5855   */\n      dup3\n        /* \"#utility.yul\":5817:5856   */\n      tag_199\n      jump\t// in\n    tag_198:\n        /* \"#utility.yul\":5872:5933   */\n      tag_200\n        /* \"#utility.yul\":5926:5932   */\n      dup2\n        /* \"#utility.yul\":5921:5924   */\n      dup6\n        /* \"#utility.yul\":5872:5933   */\n      tag_201\n      jump\t// in\n    tag_200:\n        /* \"#utility.yul\":5865:5933   */\n      swap4\n      pop\n        /* \"#utility.yul\":5942:5994   */\n      tag_202\n        /* \"#utility.yul\":5987:5993   */\n      dup2\n        /* \"#utility.yul\":5982:5985   */\n      dup6\n        /* \"#utility.yul\":5975:5979   */\n      0x20\n        /* \"#utility.yul\":5968:5973   */\n      dup7\n        /* \"#utility.yul\":5964:5980   */\n      add\n        /* \"#utility.yul\":5942:5994   */\n      tag_193\n      jump\t// in\n    tag_202:\n        /* \"#utility.yul\":6019:6048   */\n      tag_203\n        /* \"#utility.yul\":6041:6047   */\n      dup2\n        /* \"#utility.yul\":6019:6048   */\n      tag_195\n      jump\t// in\n    tag_203:\n        /* \"#utility.yul\":6014:6017   */\n      dup5\n        /* \"#utility.yul\":6010:6049   */\n      add\n        /* \"#utility.yul\":6003:6049   */\n      swap2\n      pop\n        /* \"#utility.yul\":5793:6055   */\n      pop\n        /* \"#utility.yul\":5711:6055   */\n      swap3\n      swap2\n      pop\n      pop\n      jump\t// out\n        /* \"#utility.yul\":6061:6438   */\n    tag_204:\n        /* \"#utility.yul\":6167:6170   */\n      0x00\n        /* \"#utility.yul\":6195:6234   */\n      tag_206\n        /* \"#utility.yul\":6228:6233   */\n      dup3\n        /* \"#utility.yul\":6195:6234   */\n      tag_199\n      jump\t// in\n    tag_206:\n        /* \"#utility.yul\":6250:6339   */\n      tag_207\n        /* \"#utility.yul\":6332:6338   */\n      dup2\n        /* \"#utility.yul\":6327:6330   */\n      dup6\n        /* \"#utility.yul\":6250:6339   */\n      tag_208\n      jump\t// in\n    tag_207:\n        /* \"#utility.yul\":6243:6339   */\n      swap4\n      pop\n        /* \"#utility.yul\":6348:6400   */\n      tag_209\n        /* \"#utility.yul\":6393:6399   */\n      dup2\n        /* \"#utility.yul\":6388:6391   */\n      dup6\n        /* \"#utility.yul\":6381:6385   */\n      0x20\n        /* \"#utility.yul\":6374:6379   */\n      dup7\n        /* \"#utility.yul\":6370:6386   */\n      add\n        /* \"#utility.yul\":6348:6400   */\n      tag_193\n      jump\t// in\n    tag_209:\n        /* \"#utility.yul\":6425:6431   */\n      dup1\n        /* \"#utility.yul\":6420:6423   */\n      dup5\n        /* \"#utility.yul\":6416:6432   */\n      add\n        /* \"#utility.yul\":6409:6432   */\n      swap2\n      pop\n        /* \"#utility.yul\":6171:6438   */\n      pop\n        /* \"#utility.yul\":6061:6438   */\n      swap3\n      swap2\n      pop\n      pop\n      jump\t// out\n        /* \"#utility.yul\":6468:7313   */\n    tag_210:\n        /* \"#utility.yul\":6571:6574   */\n      0x00\n        /* \"#utility.yul\":6608:6613   */\n      dup2\n        /* \"#utility.yul\":6602:6614   */\n      sload\n        /* \"#utility.yul\":6637:6673   */\n      tag_212\n        /* \"#utility.yul\":6663:6672   */\n      dup2\n        /* \"#utility.yul\":6637:6673   */\n      tag_40\n      jump\t// in\n    tag_212:\n        /* \"#utility.yul\":6689:6778   */\n      tag_213\n        /* \"#utility.yul\":6771:6777   */\n      dup2\n        /* \"#utility.yul\":6766:6769   */\n      dup7\n        /* \"#utility.yul\":6689:6778   */\n      tag_208\n      jump\t// in\n    tag_213:\n        /* \"#utility.yul\":6682:6778   */\n      swap5\n      pop\n        /* \"#utility.yul\":6809:6810   */\n      0x01\n        /* \"#utility.yul\":6798:6807   */\n      dup3\n        /* \"#utility.yul\":6794:6811   */\n      and\n        /* \"#utility.yul\":6825:6826   */\n      0x00\n        /* \"#utility.yul\":6820:6957   */\n      dup2\n      eq\n      tag_215\n      jumpi\n        /* \"#utility.yul\":6971:6972   */\n      0x01\n        /* \"#utility.yul\":6966:7307   */\n      dup2\n      eq\n      tag_216\n      jumpi\n        /* \"#utility.yul\":6787:7307   */\n      jump(tag_214)\n        /* \"#utility.yul\":6820:6957   */\n    tag_215:\n        /* \"#utility.yul\":6904:6908   */\n      0xff\n        /* \"#utility.yul\":6900:6909   */\n      not\n        /* \"#utility.yul\":6889:6898   */\n      dup4\n        /* \"#utility.yul\":6885:6910   */\n      and\n        /* \"#utility.yul\":6880:6883   */\n      dup7\n        /* \"#utility.yul\":6873:6911   */\n      mstore\n        /* \"#utility.yul\":6940:6946   */\n      dup2\n        /* \"#utility.yul\":6935:6938   */\n      dup7\n        /* \"#utility.yul\":6931:6947   */\n      add\n        /* \"#utility.yul\":6924:6947   */\n      swap4\n      pop\n        /* \"#utility.yul\":6820:6957   */\n      jump(tag_214)\n        /* \"#utility.yul\":6966:7307   */\n    tag_216:\n        /* \"#utility.yul\":7033:7071   */\n      tag_217\n        /* \"#utility.yul\":7065:7070   */\n      dup6\n        /* \"#utility.yul\":7033:7071   */\n      tag_218\n      jump\t// in\n    tag_217:\n        /* \"#utility.yul\":7093:7094   */\n      0x00\n        /* \"#utility.yul\":7107:7261   */\n    tag_219:\n        /* \"#utility.yul\":7121:7127   */\n      dup4\n        /* \"#utility.yul\":7118:7119   */\n      dup2\n        /* \"#utility.yul\":7115:7128   */\n      lt\n        /* \"#utility.yul\":7107:7261   */\n      iszero\n      tag_221\n      jumpi\n        /* \"#utility.yul\":7195:7202   */\n      dup2\n        /* \"#utility.yul\":7189:7203   */\n      sload\n        /* \"#utility.yul\":7185:7186   */\n      dup2\n        /* \"#utility.yul\":7180:7183   */\n      dup10\n        /* \"#utility.yul\":7176:7187   */\n      add\n        /* \"#utility.yul\":7169:7204   */\n      mstore\n        /* \"#utility.yul\":7245:7246   */\n      0x01\n        /* \"#utility.yul\":7236:7243   */\n      dup3\n        /* \"#utility.yul\":7232:7247   */\n      add\n        /* \"#utility.yul\":7221:7247   */\n      swap2\n      pop\n        /* \"#utility.yul\":7143:7147   */\n      0x20\n        /* \"#utility.yul\":7140:7141   */\n      dup2\n        /* \"#utility.yul\":7136:7148   */\n      add\n        /* \"#utility.yul\":7131:7148   */\n      swap1\n      pop\n        /* \"#utility.yul\":7107:7261   */\n      jump(tag_219)\n    tag_221:\n        /* \"#utility.yul\":7290:7296   */\n      dup4\n        /* \"#utility.yul\":7285:7288   */\n      dup9\n        /* \"#utility.yul\":7281:7297   */\n      add\n        /* \"#utility.yul\":7274:7297   */\n      swap6\n      pop\n        /* \"#utility.yul\":6973:7307   */\n      pop\n      pop\n        /* \"#utility.yul\":6787:7307   */\n    tag_214:\n      pop\n        /* \"#utility.yul\":6575:7313   */\n      pop\n      pop\n        /* \"#utility.yul\":6468:7313   */\n      swap3\n      swap2\n      pop\n      pop\n      jump\t// out\n        /* \"#utility.yul\":7319:7685   */\n    tag_222:\n        /* \"#utility.yul\":7461:7464   */\n      0x00\n        /* \"#utility.yul\":7482:7549   */\n      tag_224\n        /* \"#utility.yul\":7546:7548   */\n      0x18\n        /* \"#utility.yul\":7541:7544   */\n      dup4\n        /* \"#utility.yul\":7482:7549   */\n      tag_225\n      jump\t// in\n    tag_224:\n        /* \"#utility.yul\":7475:7549   */\n      swap2\n      pop\n        /* \"#utility.yul\":7558:7651   */\n      tag_226\n        /* \"#utility.yul\":7647:7650   */\n      dup3\n        /* \"#utility.yul\":7558:7651   */\n      tag_227\n      jump\t// in\n    tag_226:\n        /* \"#utility.yul\":7676:7678   */\n      0x20\n        /* \"#utility.yul\":7671:7674   */\n      dup3\n        /* \"#utility.yul\":7667:7679   */\n      add\n        /* \"#utility.yul\":7660:7679   */\n      swap1\n      pop\n        /* \"#utility.yul\":7319:7685   */\n      swap2\n      swap1\n      pop\n      jump\t// out\n        /* \"#utility.yul\":7691:8056   */\n    tag_228:\n        /* \"#utility.yul\":7833:7836   */\n      0x00\n        /* \"#utility.yul\":7854:7920   */\n      tag_230\n        /* \"#utility.yul\":7918:7919   */\n      0x07\n        /* \"#utility.yul\":7913:7916   */\n      dup4\n        /* \"#utility.yul\":7854:7920   */\n      tag_225\n      jump\t// in\n    tag_230:\n        /* \"#utility.yul\":7847:7920   */\n      swap2\n      pop\n        /* \"#utility.yul\":7929:8022   */\n      tag_231\n        /* \"#utility.yul\":8018:8021   */\n      dup3\n        /* \"#utility.yul\":7929:8022   */\n      tag_232\n      jump\t// in\n    tag_231:\n        /* \"#utility.yul\":8047:8049   */\n      0x20\n        /* \"#utility.yul\":8042:8045   */\n      dup3\n        /* \"#utility.yul\":8038:8050   */\n      add\n        /* \"#utility.yul\":8031:8050   */\n      swap1\n      pop\n        /* \"#utility.yul\":7691:8056   */\n      swap2\n      swap1\n      pop\n      jump\t// out\n        /* \"#utility.yul\":8122:9234   */\n    tag_233:\n        /* \"#utility.yul\":8245:8248   */\n      0x00\n        /* \"#utility.yul\":8281:8285   */\n      0x80\n        /* \"#utility.yul\":8276:8279   */\n      dup4\n        /* \"#utility.yul\":8272:8286   */\n      add\n        /* \"#utility.yul\":8374:8378   */\n      0x00\n        /* \"#utility.yul\":8367:8372   */\n      dup4\n        /* \"#utility.yul\":8363:8379   */\n      add\n        /* \"#utility.yul\":8357:8380   */\n      mload\n        /* \"#utility.yul\":8427:8430   */\n      dup5\n        /* \"#utility.yul\":8421:8425   */\n      dup3\n        /* \"#utility.yul\":8417:8431   */\n      sub\n        /* \"#utility.yul\":8410:8414   */\n      0x00\n        /* \"#utility.yul\":8405:8408   */\n      dup7\n        /* \"#utility.yul\":8401:8415   */\n      add\n        /* \"#utility.yul\":8394:8432   */\n      mstore\n        /* \"#utility.yul\":8453:8526   */\n      tag_235\n        /* \"#utility.yul\":8521:8525   */\n      dup3\n        /* \"#utility.yul\":8507:8519   */\n      dup3\n        /* \"#utility.yul\":8453:8526   */\n      tag_196\n      jump\t// in\n    tag_235:\n        /* \"#utility.yul\":8445:8526   */\n      swap2\n      pop\n        /* \"#utility.yul\":8296:8537   */\n      pop\n        /* \"#utility.yul\":8619:8623   */\n      0x20\n        /* \"#utility.yul\":8612:8617   */\n      dup4\n        /* \"#utility.yul\":8608:8624   */\n      add\n        /* \"#utility.yul\":8602:8625   */\n      mload\n        /* \"#utility.yul\":8672:8675   */\n      dup5\n        /* \"#utility.yul\":8666:8670   */\n      dup3\n        /* \"#utility.yul\":8662:8676   */\n      sub\n        /* \"#utility.yul\":8655:8659   */\n      0x20\n        /* \"#utility.yul\":8650:8653   */\n      dup7\n        /* \"#utility.yul\":8646:8660   */\n      add\n        /* \"#utility.yul\":8639:8677   */\n      mstore\n        /* \"#utility.yul\":8698:8771   */\n      tag_236\n        /* \"#utility.yul\":8766:8770   */\n      dup3\n        /* \"#utility.yul\":8752:8764   */\n      dup3\n        /* \"#utility.yul\":8698:8771   */\n      tag_196\n      jump\t// in\n    tag_236:\n        /* \"#utility.yul\":8690:8771   */\n      swap2\n      pop\n        /* \"#utility.yul\":8547:8782   */\n      pop\n        /* \"#utility.yul\":8864:8868   */\n      0x40\n        /* \"#utility.yul\":8857:8862   */\n      dup4\n        /* \"#utility.yul\":8853:8869   */\n      add\n        /* \"#utility.yul\":8847:8870   */\n      mload\n        /* \"#utility.yul\":8917:8920   */\n      dup5\n        /* \"#utility.yul\":8911:8915   */\n      dup3\n        /* \"#utility.yul\":8907:8921   */\n      sub\n        /* \"#utility.yul\":8900:8904   */\n      0x40\n        /* \"#utility.yul\":8895:8898   */\n      dup7\n        /* \"#utility.yul\":8891:8905   */\n      add\n        /* \"#utility.yul\":8884:8922   */\n      mstore\n        /* \"#utility.yul\":8943:9016   */\n      tag_237\n        /* \"#utility.yul\":9011:9015   */\n      dup3\n        /* \"#utility.yul\":8997:9009   */\n      dup3\n        /* \"#utility.yul\":8943:9016   */\n      tag_196\n      jump\t// in\n    tag_237:\n        /* \"#utility.yul\":8935:9016   */\n      swap2\n      pop\n        /* \"#utility.yul\":8792:9027   */\n      pop\n        /* \"#utility.yul\":9115:9119   */\n      0x60\n        /* \"#utility.yul\":9108:9113   */\n      dup4\n        /* \"#utility.yul\":9104:9120   */\n      add\n        /* \"#utility.yul\":9098:9121   */\n      mload\n        /* \"#utility.yul\":9134:9197   */\n      tag_238\n        /* \"#utility.yul\":9191:9195   */\n      0x60\n        /* \"#utility.yul\":9186:9189   */\n      dup7\n        /* \"#utility.yul\":9182:9196   */\n      add\n        /* \"#utility.yul\":9168:9180   */\n      dup3\n        /* \"#utility.yul\":9134:9197   */\n      tag_239\n      jump\t// in\n    tag_238:\n        /* \"#utility.yul\":9037:9207   */\n      pop\n        /* \"#utility.yul\":9224:9228   */\n      dup1\n        /* \"#utility.yul\":9217:9228   */\n      swap2\n      pop\n        /* \"#utility.yul\":8250:9234   */\n      pop\n        /* \"#utility.yul\":8122:9234   */\n      swap3\n      swap2\n      pop\n      pop\n      jump\t// out\n        /* \"#utility.yul\":9300:9982   */\n    tag_240:\n        /* \"#utility.yul\":9423:9426   */\n      0x00\n        /* \"#utility.yul\":9459:9463   */\n      0x40\n        /* \"#utility.yul\":9454:9457   */\n      dup4\n        /* \"#utility.yul\":9450:9464   */\n      add\n        /* \"#utility.yul\":9549:9553   */\n      0x00\n        /* \"#utility.yul\":9542:9547   */\n      dup4\n        /* \"#utility.yul\":9538:9554   */\n      add\n        /* \"#utility.yul\":9532:9555   */\n      mload\n        /* \"#utility.yul\":9602:9605   */\n      dup5\n        /* \"#utility.yul\":9596:9600   */\n      dup3\n        /* \"#utility.yul\":9592:9606   */\n      sub\n        /* \"#utility.yul\":9585:9589   */\n      0x00\n        /* \"#utility.yul\":9580:9583   */\n      dup7\n        /* \"#utility.yul\":9576:9590   */\n      add\n        /* \"#utility.yul\":9569:9607   */\n      mstore\n        /* \"#utility.yul\":9628:9701   */\n      tag_242\n        /* \"#utility.yul\":9696:9700   */\n      dup3\n        /* \"#utility.yul\":9682:9694   */\n      dup3\n        /* \"#utility.yul\":9628:9701   */\n      tag_196\n      jump\t// in\n    tag_242:\n        /* \"#utility.yul\":9620:9701   */\n      swap2\n      pop\n        /* \"#utility.yul\":9474:9712   */\n      pop\n        /* \"#utility.yul\":9794:9798   */\n      0x20\n        /* \"#utility.yul\":9787:9792   */\n      dup4\n        /* \"#utility.yul\":9783:9799   */\n      add\n        /* \"#utility.yul\":9777:9800   */\n      mload\n        /* \"#utility.yul\":9847:9850   */\n      dup5\n        /* \"#utility.yul\":9841:9845   */\n      dup3\n        /* \"#utility.yul\":9837:9851   */\n      sub\n        /* \"#utility.yul\":9830:9834   */\n      0x20\n        /* \"#utility.yul\":9825:9828   */\n      dup7\n        /* \"#utility.yul\":9821:9835   */\n      add\n        /* \"#utility.yul\":9814:9852   */\n      mstore\n        /* \"#utility.yul\":9873:9944   */\n      tag_243\n        /* \"#utility.yul\":9939:9943   */\n      dup3\n        /* \"#utility.yul\":9925:9937   */\n      dup3\n        /* \"#utility.yul\":9873:9944   */\n      tag_186\n      jump\t// in\n    tag_243:\n        /* \"#utility.yul\":9865:9944   */\n      swap2\n      pop\n        /* \"#utility.yul\":9722:9955   */\n      pop\n        /* \"#utility.yul\":9972:9976   */\n      dup1\n        /* \"#utility.yul\":9965:9976   */\n      swap2\n      pop\n        /* \"#utility.yul\":9428:9982   */\n      pop\n        /* \"#utility.yul\":9300:9982   */\n      swap3\n      swap2\n      pop\n      pop\n      jump\t// out\n        /* \"#utility.yul\":9988:10096   */\n    tag_239:\n        /* \"#utility.yul\":10065:10089   */\n      tag_245\n        /* \"#utility.yul\":10083:10088   */\n      dup2\n        /* \"#utility.yul\":10065:10089   */\n      tag_246\n      jump\t// in\n    tag_245:\n        /* \"#utility.yul\":10060:10063   */\n      dup3\n        /* \"#utility.yul\":10053:10090   */\n      mstore\n        /* \"#utility.yul\":9988:10096   */\n      pop\n      pop\n      jump\t// out\n        /* \"#utility.yul\":10102:10377   */\n    tag_38:\n        /* \"#utility.yul\":10234:10237   */\n      0x00\n        /* \"#utility.yul\":10256:10351   */\n      tag_248\n        /* \"#utility.yul\":10347:10350   */\n      dup3\n        /* \"#utility.yul\":10338:10344   */\n      dup5\n        /* \"#utility.yul\":10256:10351   */\n      tag_204\n      jump\t// in\n    tag_248:\n        /* \"#utility.yul\":10249:10351   */\n      swap2\n      pop\n        /* \"#utility.yul\":10368:10371   */\n      dup2\n        /* \"#utility.yul\":10361:10371   */\n      swap1\n      pop\n        /* \"#utility.yul\":10102:10377   */\n      swap3\n      swap2\n      pop\n      pop\n      jump\t// out\n        /* \"#utility.yul\":10383:10652   */\n    tag_99:\n        /* \"#utility.yul\":10512:10515   */\n      0x00\n        /* \"#utility.yul\":10534:10626   */\n      tag_250\n        /* \"#utility.yul\":10622:10625   */\n      dup3\n        /* \"#utility.yul\":10613:10619   */\n      dup5\n        /* \"#utility.yul\":10534:10626   */\n      tag_210\n      jump\t// in\n    tag_250:\n        /* \"#utility.yul\":10527:10626   */\n      swap2\n      pop\n        /* \"#utility.yul\":10643:10646   */\n      dup2\n        /* \"#utility.yul\":10636:10646   */\n      swap1\n      pop\n        /* \"#utility.yul\":10383:10652   */\n      swap3\n      swap2\n      pop\n      pop\n      jump\t// out\n        /* \"#utility.yul\":10658:10880   */\n    tag_19:\n        /* \"#utility.yul\":10751:10755   */\n      0x00\n        /* \"#utility.yul\":10789:10791   */\n      0x20\n        /* \"#utility.yul\":10778:10787   */\n      dup3\n        /* \"#utility.yul\":10774:10792   */\n      add\n        /* \"#utility.yul\":10766:10792   */\n      swap1\n      pop\n        /* \"#utility.yul\":10802:10873   */\n      tag_252\n        /* \"#utility.yul\":10870:10871   */\n      0x00\n        /* \"#utility.yul\":10859:10868   */\n      dup4\n        /* \"#utility.yul\":10855:10872   */\n      add\n        /* \"#utility.yul\":10846:10852   */\n      dup5\n        /* \"#utility.yul\":10802:10873   */\n      tag_182\n      jump\t// in\n    tag_252:\n        /* \"#utility.yul\":10658:10880   */\n      swap3\n      swap2\n      pop\n      pop\n      jump\t// out\n        /* \"#utility.yul\":10886:11305   */\n    tag_73:\n        /* \"#utility.yul\":11052:11056   */\n      0x00\n        /* \"#utility.yul\":11090:11092   */\n      0x20\n        /* \"#utility.yul\":11079:11088   */\n      dup3\n        /* \"#utility.yul\":11075:11093   */\n      add\n        /* \"#utility.yul\":11067:11093   */\n      swap1\n      pop\n        /* \"#utility.yul\":11139:11148   */\n      dup2\n        /* \"#utility.yul\":11133:11137   */\n      dup2\n        /* \"#utility.yul\":11129:11149   */\n      sub\n        /* \"#utility.yul\":11125:11126   */\n      0x00\n        /* \"#utility.yul\":11114:11123   */\n      dup4\n        /* \"#utility.yul\":11110:11127   */\n      add\n        /* \"#utility.yul\":11103:11150   */\n      mstore\n        /* \"#utility.yul\":11167:11298   */\n      tag_254\n        /* \"#utility.yul\":11293:11297   */\n      dup2\n        /* \"#utility.yul\":11167:11298   */\n      tag_222\n      jump\t// in\n    tag_254:\n        /* \"#utility.yul\":11159:11298   */\n      swap1\n      pop\n        /* \"#utility.yul\":10886:11305   */\n      swap2\n      swap1\n      pop\n      jump\t// out\n        /* \"#utility.yul\":11311:11840   */\n    tag_79:\n        /* \"#utility.yul\":11505:11509   */\n      0x00\n        /* \"#utility.yul\":11543:11545   */\n      0x40\n        /* \"#utility.yul\":11532:11541   */\n      dup3\n        /* \"#utility.yul\":11528:11546   */\n      add\n        /* \"#utility.yul\":11520:11546   */\n      swap1\n      pop\n        /* \"#utility.yul\":11592:11601   */\n      dup2\n        /* \"#utility.yul\":11586:11590   */\n      dup2\n        /* \"#utility.yul\":11582:11602   */\n      sub\n        /* \"#utility.yul\":11578:11579   */\n      0x00\n        /* \"#utility.yul\":11567:11576   */\n      dup4\n        /* \"#utility.yul\":11563:11580   */\n      add\n        /* \"#utility.yul\":11556:11603   */\n      mstore\n        /* \"#utility.yul\":11620:11751   */\n      tag_256\n        /* \"#utility.yul\":11746:11750   */\n      dup2\n        /* \"#utility.yul\":11620:11751   */\n      tag_228\n      jump\t// in\n    tag_256:\n        /* \"#utility.yul\":11612:11751   */\n      swap1\n      pop\n        /* \"#utility.yul\":11761:11833   */\n      tag_257\n        /* \"#utility.yul\":11829:11831   */\n      0x20\n        /* \"#utility.yul\":11818:11827   */\n      dup4\n        /* \"#utility.yul\":11814:11832   */\n      add\n        /* \"#utility.yul\":11805:11811   */\n      dup5\n        /* \"#utility.yul\":11761:11833   */\n      tag_182\n      jump\t// in\n    tag_257:\n        /* \"#utility.yul\":11311:11840   */\n      swap3\n      swap2\n      pop\n      pop\n      jump\t// out\n        /* \"#utility.yul\":11846:12227   */\n    tag_13:\n        /* \"#utility.yul\":11993:11997   */\n      0x00\n        /* \"#utility.yul\":12031:12033   */\n      0x20\n        /* \"#utility.yul\":12020:12029   */\n      dup3\n        /* \"#utility.yul\":12016:12034   */\n      add\n        /* \"#utility.yul\":12008:12034   */\n      swap1\n      pop\n        /* \"#utility.yul\":12080:12089   */\n      dup2\n        /* \"#utility.yul\":12074:12078   */\n      dup2\n        /* \"#utility.yul\":12070:12090   */\n      sub\n        /* \"#utility.yul\":12066:12067   */\n      0x00\n        /* \"#utility.yul\":12055:12064   */\n      dup4\n        /* \"#utility.yul\":12051:12068   */\n      add\n        /* \"#utility.yul\":12044:12091   */\n      mstore\n        /* \"#utility.yul\":12108:12220   */\n      tag_259\n        /* \"#utility.yul\":12215:12219   */\n      dup2\n        /* \"#utility.yul\":12206:12212   */\n      dup5\n        /* \"#utility.yul\":12108:12220   */\n      tag_233\n      jump\t// in\n    tag_259:\n        /* \"#utility.yul\":12100:12220   */\n      swap1\n      pop\n        /* \"#utility.yul\":11846:12227   */\n      swap3\n      swap2\n      pop\n      pop\n      jump\t// out\n        /* \"#utility.yul\":12233:12614   */\n    tag_29:\n        /* \"#utility.yul\":12380:12384   */\n      0x00\n        /* \"#utility.yul\":12418:12420   */\n      0x20\n        /* \"#utility.yul\":12407:12416   */\n      dup3\n        /* \"#utility.yul\":12403:12421   */\n      add\n        /* \"#utility.yul\":12395:12421   */\n      swap1\n      pop\n        /* \"#utility.yul\":12467:12476   */\n      dup2\n        /* \"#utility.yul\":12461:12465   */\n      dup2\n        /* \"#utility.yul\":12457:12477   */\n      sub\n        /* \"#utility.yul\":12453:12454   */\n      0x00\n        /* \"#utility.yul\":12442:12451   */\n      dup4\n        /* \"#utility.yul\":12438:12455   */\n      add\n        /* \"#utility.yul\":12431:12478   */\n      mstore\n        /* \"#utility.yul\":12495:12607   */\n      tag_261\n        /* \"#utility.yul\":12602:12606   */\n      dup2\n        /* \"#utility.yul\":12593:12599   */\n      dup5\n        /* \"#utility.yul\":12495:12607   */\n      tag_240\n      jump\t// in\n    tag_261:\n        /* \"#utility.yul\":12487:12607   */\n      swap1\n      pop\n        /* \"#utility.yul\":12233:12614   */\n      swap3\n      swap2\n      pop\n      pop\n      jump\t// out\n        /* \"#utility.yul\":12620:12749   */\n    tag_116:\n        /* \"#utility.yul\":12654:12660   */\n      0x00\n        /* \"#utility.yul\":12681:12701   */\n      tag_263\n      tag_264\n      jump\t// in\n    tag_263:\n        /* \"#utility.yul\":12671:12701   */\n      swap1\n      pop\n        /* \"#utility.yul\":12710:12743   */\n      tag_265\n        /* \"#utility.yul\":12738:12742   */\n      dup3\n        /* \"#utility.yul\":12730:12736   */\n      dup3\n        /* \"#utility.yul\":12710:12743   */\n      tag_266\n      jump\t// in\n    tag_265:\n        /* \"#utility.yul\":12620:12749   */\n      swap2\n      swap1\n      pop\n      jump\t// out\n        /* \"#utility.yul\":12755:12830   */\n    tag_264:\n        /* \"#utility.yul\":12788:12794   */\n      0x00\n        /* \"#utility.yul\":12821:12823   */\n      0x40\n        /* \"#utility.yul\":12815:12824   */\n      mload\n        /* \"#utility.yul\":12805:12824   */\n      swap1\n      pop\n        /* \"#utility.yul\":12755:12830   */\n      swap1\n      jump\t// out\n        /* \"#utility.yul\":12836:13143   */\n    tag_115:\n        /* \"#utility.yul\":12897:12901   */\n      0x00\n        /* \"#utility.yul\":12987:13005   */\n      0xffffffffffffffff\n        /* \"#utility.yul\":12979:12985   */\n      dup3\n        /* \"#utility.yul\":12976:13006   */\n      gt\n        /* \"#utility.yul\":12973:13029   */\n      iszero\n      tag_269\n      jumpi\n        /* \"#utility.yul\":13009:13027   */\n      tag_270\n      tag_271\n      jump\t// in\n    tag_270:\n        /* \"#utility.yul\":12973:13029   */\n    tag_269:\n        /* \"#utility.yul\":13047:13076   */\n      tag_272\n        /* \"#utility.yul\":13069:13075   */\n      dup3\n        /* \"#utility.yul\":13047:13076   */\n      tag_195\n      jump\t// in\n    tag_272:\n        /* \"#utility.yul\":13039:13076   */\n      swap1\n      pop\n        /* \"#utility.yul\":13131:13135   */\n      0x20\n        /* \"#utility.yul\":13125:13129   */\n      dup2\n        /* \"#utility.yul\":13121:13136   */\n      add\n        /* \"#utility.yul\":13113:13136   */\n      swap1\n      pop\n        /* \"#utility.yul\":12836:13143   */\n      swap2\n      swap1\n      pop\n      jump\t// out\n        /* \"#utility.yul\":13149:13457   */\n    tag_126:\n        /* \"#utility.yul\":13211:13215   */\n      0x00\n        /* \"#utility.yul\":13301:13319   */\n      0xffffffffffffffff\n        /* \"#utility.yul\":13293:13299   */\n      dup3\n        /* \"#utility.yul\":13290:13320   */\n      gt\n        /* \"#utility.yul\":13287:13343   */\n      iszero\n      tag_274\n      jumpi\n        /* \"#utility.yul\":13323:13341   */\n      tag_275\n      tag_271\n      jump\t// in\n    tag_275:\n        /* \"#utility.yul\":13287:13343   */\n    tag_274:\n        /* \"#utility.yul\":13361:13390   */\n      tag_276\n        /* \"#utility.yul\":13383:13389   */\n      dup3\n        /* \"#utility.yul\":13361:13390   */\n      tag_195\n      jump\t// in\n    tag_276:\n        /* \"#utility.yul\":13353:13390   */\n      swap1\n      pop\n        /* \"#utility.yul\":13445:13449   */\n      0x20\n        /* \"#utility.yul\":13439:13443   */\n      dup2\n        /* \"#utility.yul\":13435:13450   */\n      add\n        /* \"#utility.yul\":13427:13450   */\n      swap1\n      pop\n        /* \"#utility.yul\":13149:13457   */\n      swap2\n      swap1\n      pop\n      jump\t// out\n        /* \"#utility.yul\":13463:13604   */\n    tag_218:\n        /* \"#utility.yul\":13512:13516   */\n      0x00\n        /* \"#utility.yul\":13535:13538   */\n      dup2\n        /* \"#utility.yul\":13527:13538   */\n      swap1\n      pop\n        /* \"#utility.yul\":13558:13561   */\n      dup2\n        /* \"#utility.yul\":13555:13556   */\n      0x00\n        /* \"#utility.yul\":13548:13562   */\n      mstore\n        /* \"#utility.yul\":13592:13596   */\n      0x20\n        /* \"#utility.yul\":13589:13590   */\n      0x00\n        /* \"#utility.yul\":13579:13597   */\n      keccak256\n        /* \"#utility.yul\":13571:13597   */\n      swap1\n      pop\n        /* \"#utility.yul\":13463:13604   */\n      swap2\n      swap1\n      pop\n      jump\t// out\n        /* \"#utility.yul\":13610:13708   */\n    tag_189:\n        /* \"#utility.yul\":13661:13667   */\n      0x00\n        /* \"#utility.yul\":13695:13700   */\n      dup2\n        /* \"#utility.yul\":13689:13701   */\n      mload\n        /* \"#utility.yul\":13679:13701   */\n      swap1\n      pop\n        /* \"#utility.yul\":13610:13708   */\n      swap2\n      swap1\n      pop\n      jump\t// out\n        /* \"#utility.yul\":13714:13813   */\n    tag_199:\n        /* \"#utility.yul\":13766:13772   */\n      0x00\n        /* \"#utility.yul\":13800:13805   */\n      dup2\n        /* \"#utility.yul\":13794:13806   */\n      mload\n        /* \"#utility.yul\":13784:13806   */\n      swap1\n      pop\n        /* \"#utility.yul\":13714:13813   */\n      swap2\n      swap1\n      pop\n      jump\t// out\n        /* \"#utility.yul\":13819:13977   */\n    tag_191:\n        /* \"#utility.yul\":13892:13903   */\n      0x00\n        /* \"#utility.yul\":13926:13932   */\n      dup3\n        /* \"#utility.yul\":13921:13924   */\n      dup3\n        /* \"#utility.yul\":13914:13933   */\n      mstore\n        /* \"#utility.yul\":13966:13970   */\n      0x20\n        /* \"#utility.yul\":13961:13964   */\n      dup3\n        /* \"#utility.yul\":13957:13971   */\n      add\n        /* \"#utility.yul\":13942:13971   */\n      swap1\n      pop\n        /* \"#utility.yul\":13819:13977   */\n      swap3\n      swap2\n      pop\n      pop\n      jump\t// out\n        /* \"#utility.yul\":13983:14142   */\n    tag_201:\n        /* \"#utility.yul\":14057:14068   */\n      0x00\n        /* \"#utility.yul\":14091:14097   */\n      dup3\n        /* \"#utility.yul\":14086:14089   */\n      dup3\n        /* \"#utility.yul\":14079:14098   */\n      mstore\n        /* \"#utility.yul\":14131:14135   */\n      0x20\n        /* \"#utility.yul\":14126:14129   */\n      dup3\n        /* \"#utility.yul\":14122:14136   */\n      add\n        /* \"#utility.yul\":14107:14136   */\n      swap1\n      pop\n        /* \"#utility.yul\":13983:14142   */\n      swap3\n      swap2\n      pop\n      pop\n      jump\t// out\n        /* \"#utility.yul\":14148:14317   */\n    tag_225:\n        /* \"#utility.yul\":14232:14243   */\n      0x00\n        /* \"#utility.yul\":14266:14272   */\n      dup3\n        /* \"#utility.yul\":14261:14264   */\n      dup3\n        /* \"#utility.yul\":14254:14273   */\n      mstore\n        /* \"#utility.yul\":14306:14310   */\n      0x20\n        /* \"#utility.yul\":14301:14304   */\n      dup3\n        /* \"#utility.yul\":14297:14311   */\n      add\n        /* \"#utility.yul\":14282:14311   */\n      swap1\n      pop\n        /* \"#utility.yul\":14148:14317   */\n      swap3\n      swap2\n      pop\n      pop\n      jump\t// out\n        /* \"#utility.yul\":14323:14471   */\n    tag_208:\n        /* \"#utility.yul\":14425:14436   */\n      0x00\n        /* \"#utility.yul\":14462:14465   */\n      dup2\n        /* \"#utility.yul\":14447:14465   */\n      swap1\n      pop\n        /* \"#utility.yul\":14323:14471   */\n      swap3\n      swap2\n      pop\n      pop\n      jump\t// out\n        /* \"#utility.yul\":14477:14554   */\n    tag_185:\n        /* \"#utility.yul\":14514:14521   */\n      0x00\n        /* \"#utility.yul\":14543:14548   */\n      dup2\n        /* \"#utility.yul\":14532:14548   */\n      swap1\n      pop\n        /* \"#utility.yul\":14477:14554   */\n      swap2\n      swap1\n      pop\n      jump\t// out\n        /* \"#utility.yul\":14560:14637   */\n    tag_246:\n        /* \"#utility.yul\":14597:14604   */\n      0x00\n        /* \"#utility.yul\":14626:14631   */\n      dup2\n        /* \"#utility.yul\":14615:14631   */\n      swap1\n      pop\n        /* \"#utility.yul\":14560:14637   */\n      swap2\n      swap1\n      pop\n      jump\t// out\n        /* \"#utility.yul\":14643:14797   */\n    tag_121:\n        /* \"#utility.yul\":14727:14733   */\n      dup3\n        /* \"#utility.yul\":14722:14725   */\n      dup2\n        /* \"#utility.yul\":14717:14720   */\n      dup4\n        /* \"#utility.yul\":14704:14734   */\n      calldatacopy\n        /* \"#utility.yul\":14789:14790   */\n      0x00\n        /* \"#utility.yul\":14780:14786   */\n      dup4\n        /* \"#utility.yul\":14775:14778   */\n      dup4\n        /* \"#utility.yul\":14771:14787   */\n      add\n        /* \"#utility.yul\":14764:14791   */\n      mstore\n        /* \"#utility.yul\":14643:14797   */\n      pop\n      pop\n      pop\n      jump\t// out\n        /* \"#utility.yul\":14803:15110   */\n    tag_193:\n        /* \"#utility.yul\":14871:14872   */\n      0x00\n        /* \"#utility.yul\":14881:14994   */\n    tag_288:\n        /* \"#utility.yul\":14895:14901   */\n      dup4\n        /* \"#utility.yul\":14892:14893   */\n      dup2\n        /* \"#utility.yul\":14889:14902   */\n      lt\n        /* \"#utility.yul\":14881:14994   */\n      iszero\n      tag_290\n      jumpi\n        /* \"#utility.yul\":14980:14981   */\n      dup1\n        /* \"#utility.yul\":14975:14978   */\n      dup3\n        /* \"#utility.yul\":14971:14982   */\n      add\n        /* \"#utility.yul\":14965:14983   */\n      mload\n        /* \"#utility.yul\":14961:14962   */\n      dup2\n        /* \"#utility.yul\":14956:14959   */\n      dup5\n        /* \"#utility.yul\":14952:14963   */\n      add\n        /* \"#utility.yul\":14945:14984   */\n      mstore\n        /* \"#utility.yul\":14917:14919   */\n      0x20\n        /* \"#utility.yul\":14914:14915   */\n      dup2\n        /* \"#utility.yul\":14910:14920   */\n      add\n        /* \"#utility.yul\":14905:14920   */\n      swap1\n      pop\n        /* \"#utility.yul\":14881:14994   */\n      jump(tag_288)\n    tag_290:\n        /* \"#utility.yul\":15012:15018   */\n      dup4\n        /* \"#utility.yul\":15009:15010   */\n      dup2\n        /* \"#utility.yul\":15006:15019   */\n      gt\n        /* \"#utility.yul\":15003:15104   */\n      iszero\n      tag_291\n      jumpi\n        /* \"#utility.yul\":15092:15093   */\n      0x00\n        /* \"#utility.yul\":15083:15089   */\n      dup5\n        /* \"#utility.yul\":15078:15081   */\n      dup5\n        /* \"#utility.yul\":15074:15090   */\n      add\n        /* \"#utility.yul\":15067:15094   */\n      mstore\n        /* \"#utility.yul\":15003:15104   */\n    tag_291:\n        /* \"#utility.yul\":14852:15110   */\n      pop\n        /* \"#utility.yul\":14803:15110   */\n      pop\n      pop\n      pop\n      jump\t// out\n        /* \"#utility.yul\":15116:15436   */\n    tag_40:\n        /* \"#utility.yul\":15160:15166   */\n      0x00\n        /* \"#utility.yul\":15197:15198   */\n      0x02\n        /* \"#utility.yul\":15191:15195   */\n      dup3\n        /* \"#utility.yul\":15187:15199   */\n      div\n        /* \"#utility.yul\":15177:15199   */\n      swap1\n      pop\n        /* \"#utility.yul\":15244:15245   */\n      0x01\n        /* \"#utility.yul\":15238:15242   */\n      dup3\n        /* \"#utility.yul\":15234:15246   */\n      and\n        /* \"#utility.yul\":15265:15283   */\n      dup1\n        /* \"#utility.yul\":15255:15336   */\n      tag_293\n      jumpi\n        /* \"#utility.yul\":15321:15325   */\n      0x7f\n        /* \"#utility.yul\":15313:15319   */\n      dup3\n        /* \"#utility.yul\":15309:15326   */\n      and\n        /* \"#utility.yul\":15299:15326   */\n      swap2\n      pop\n        /* \"#utility.yul\":15255:15336   */\n    tag_293:\n        /* \"#utility.yul\":15383:15385   */\n      0x20\n        /* \"#utility.yul\":15375:15381   */\n      dup3\n        /* \"#utility.yul\":15372:15386   */\n      lt\n        /* \"#utility.yul\":15352:15370   */\n      dup2\n        /* \"#utility.yul\":15349:15387   */\n      eq\n        /* \"#utility.yul\":15346:15430   */\n      iszero\n      tag_294\n      jumpi\n        /* \"#utility.yul\":15402:15420   */\n      tag_295\n      tag_296\n      jump\t// in\n    tag_295:\n        /* \"#utility.yul\":15346:15430   */\n    tag_294:\n        /* \"#utility.yul\":15167:15436   */\n      pop\n        /* \"#utility.yul\":15116:15436   */\n      swap2\n      swap1\n      pop\n      jump\t// out\n        /* \"#utility.yul\":15442:15723   */\n    tag_266:\n        /* \"#utility.yul\":15525:15552   */\n      tag_298\n        /* \"#utility.yul\":15547:15551   */\n      dup3\n        /* \"#utility.yul\":15525:15552   */\n      tag_195\n      jump\t// in\n    tag_298:\n        /* \"#utility.yul\":15517:15523   */\n      dup2\n        /* \"#utility.yul\":15513:15553   */\n      add\n        /* \"#utility.yul\":15655:15661   */\n      dup2\n        /* \"#utility.yul\":15643:15653   */\n      dup2\n        /* \"#utility.yul\":15640:15662   */\n      lt\n        /* \"#utility.yul\":15619:15637   */\n      0xffffffffffffffff\n        /* \"#utility.yul\":15607:15617   */\n      dup3\n        /* \"#utility.yul\":15604:15638   */\n      gt\n        /* \"#utility.yul\":15601:15663   */\n      or\n        /* \"#utility.yul\":15598:15686   */\n      iszero\n      tag_299\n      jumpi\n        /* \"#utility.yul\":15666:15684   */\n      tag_300\n      tag_271\n      jump\t// in\n    tag_300:\n        /* \"#utility.yul\":15598:15686   */\n    tag_299:\n        /* \"#utility.yul\":15706:15716   */\n      dup1\n        /* \"#utility.yul\":15702:15704   */\n      0x40\n        /* \"#utility.yul\":15695:15717   */\n      mstore\n        /* \"#utility.yul\":15485:15723   */\n      pop\n        /* \"#utility.yul\":15442:15723   */\n      pop\n      pop\n      jump\t// out\n        /* \"#utility.yul\":15729:15909   */\n    tag_296:\n        /* \"#utility.yul\":15777:15854   */\n      0x4e487b7100000000000000000000000000000000000000000000000000000000\n        /* \"#utility.yul\":15774:15775   */\n      0x00\n        /* \"#utility.yul\":15767:15855   */\n      mstore\n        /* \"#utility.yul\":15874:15878   */\n      0x22\n        /* \"#utility.yul\":15871:15872   */\n      0x04\n        /* \"#utility.yul\":15864:15879   */\n      mstore\n        /* \"#utility.yul\":15898:15902   */\n      0x24\n        /* \"#utility.yul\":15895:15896   */\n      0x00\n        /* \"#utility.yul\":15888:15903   */\n      revert\n        /* \"#utility.yul\":15915:16095   */\n    tag_271:\n        /* \"#utility.yul\":15963:16040   */\n      0x4e487b7100000000000000000000000000000000000000000000000000000000\n        /* \"#utility.yul\":15960:15961   */\n      0x00\n        /* \"#utility.yul\":15953:16041   */\n      mstore\n        /* \"#utility.yul\":16060:16064   */\n      0x41\n        /* \"#utility.yul\":16057:16058   */\n      0x04\n        /* \"#utility.yul\":16050:16065   */\n      mstore\n        /* \"#utility.yul\":16084:16088   */\n      0x24\n        /* \"#utility.yul\":16081:16082   */\n      0x00\n        /* \"#utility.yul\":16074:16089   */\n      revert\n        /* \"#utility.yul\":16101:16218   */\n    tag_134:\n        /* \"#utility.yul\":16210:16211   */\n      0x00\n        /* \"#utility.yul\":16207:16208   */\n      dup1\n        /* \"#utility.yul\":16200:16212   */\n      revert\n        /* \"#utility.yul\":16224:16341   */\n    tag_119:\n        /* \"#utility.yul\":16333:16334   */\n      0x00\n        /* \"#utility.yul\":16330:16331   */\n      dup1\n        /* \"#utility.yul\":16323:16335   */\n      revert\n        /* \"#utility.yul\":16347:16464   */\n    tag_147:\n        /* \"#utility.yul\":16456:16457   */\n      0x00\n        /* \"#utility.yul\":16453:16454   */\n      dup1\n        /* \"#utility.yul\":16446:16458   */\n      revert\n        /* \"#utility.yul\":16470:16587   */\n    tag_144:\n        /* \"#utility.yul\":16579:16580   */\n      0x00\n        /* \"#utility.yul\":16576:16577   */\n      dup1\n        /* \"#utility.yul\":16569:16581   */\n      revert\n        /* \"#utility.yul\":16593:16695   */\n    tag_195:\n        /* \"#utility.yul\":16634:16640   */\n      0x00\n        /* \"#utility.yul\":16685:16687   */\n      0x1f\n        /* \"#utility.yul\":16681:16688   */\n      not\n        /* \"#utility.yul\":16676:16678   */\n      0x1f\n        /* \"#utility.yul\":16669:16674   */\n      dup4\n        /* \"#utility.yul\":16665:16679   */\n      add\n        /* \"#utility.yul\":16661:16689   */\n      and\n        /* \"#utility.yul\":16651:16689   */\n      swap1\n      pop\n        /* \"#utility.yul\":16593:16695   */\n      swap2\n      swap1\n      pop\n      jump\t// out\n        /* \"#utility.yul\":16701:16875   */\n    tag_227:\n        /* \"#utility.yul\":16841:16867   */\n      0x4163636f756e7420616c7265616479206578697374696e670000000000000000\n        /* \"#utility.yul\":16837:16838   */\n      0x00\n        /* \"#utility.yul\":16829:16835   */\n      dup3\n        /* \"#utility.yul\":16825:16839   */\n      add\n        /* \"#utility.yul\":16818:16868   */\n      mstore\n        /* \"#utility.yul\":16701:16875   */\n      pop\n      jump\t// out\n        /* \"#utility.yul\":16881:17038   */\n    tag_232:\n        /* \"#utility.yul\":17021:17030   */\n      0x7375636365737300000000000000000000000000000000000000000000000000\n        /* \"#utility.yul\":17017:17018   */\n      0x00\n        /* \"#utility.yul\":17009:17015   */\n      dup3\n        /* \"#utility.yul\":17005:17019   */\n      add\n        /* \"#utility.yul\":16998:17031   */\n      mstore\n        /* \"#utility.yul\":16881:17038   */\n      pop\n      jump\t// out\n\n    auxdata: 0xa264697066735822122014c03502c380e32af1f57d7067de4c64799b385086810f2a8e88d3f2195adb8464736f6c63430008070033\n}\n",
				"bytecode": {
					"linkReferences": {},
					"object": "608060405234801561001057600080fd5b506111bb806100206000396000f3fe608060405234801561001057600080fd5b50600436106100575760003560e01c8063174ba7ff1461005c5780635b62132d1461008c578063b24c908a146100bc578063ca5e208f146100ec578063e1096d251461011c575b600080fd5b610076600480360381019061007191906109e2565b610138565b6040516100839190610ec3565b60405180910390f35b6100a660048036038101906100a19190610aa3565b610350565b6040516100b39190610e5a565b60405180910390f35b6100d660048036038101906100d19190610b4a565b6104e0565b6040516100e39190610e5a565b60405180910390f35b610106600480360381019061010191906109e2565b610602565b6040516101139190610ee5565b60405180910390f35b61013660048036038101906101319190610a2b565b61077f565b005b61014061081d565b6000826040516020016101539190610e2c565b6040516020818303038152906040528051906020012090506000808281526020019081526020016000206040518060800160405290816000820180546101989061104d565b80601f01602080910402602001604051908101604052809291908181526020018280546101c49061104d565b80156102115780601f106101e657610100808354040283529160200191610211565b820191906000526020600020905b8154815290600101906020018083116101f457829003601f168201915b5050505050815260200160018201805461022a9061104d565b80601f01602080910402602001604051908101604052809291908181526020018280546102569061104d565b80156102a35780601f10610278576101008083540402835291602001916102a3565b820191906000526020600020905b81548152906001019060200180831161028657829003601f168201915b505050505081526020016002820180546102bc9061104d565b80601f01602080910402602001604051908101604052809291908181526020018280546102e89061104d565b80156103355780601f1061030a57610100808354040283529160200191610335565b820191906000526020600020905b81548152906001019060200180831161031857829003601f168201915b50505050508152602001600382015481525050915050919050565b600080846040516020016103649190610e2c565b6040516020818303038152906040528051906020012090506000600160008381526020019081526020016000206040518060400160405290816000820180546103ac9061104d565b80601f01602080910402602001604051908101604052809291908181526020018280546103d89061104d565b80156104255780601f106103fa57610100808354040283529160200191610425565b820191906000526020600020905b81548152906001019060200180831161040857829003601f168201915b5050505050815260200160018201805461043e9061104d565b80601f016020809104026020016040519081016040528092919081815260200182805461046a9061104d565b80156104b75780601f1061048c576101008083540402835291602001916104b7565b820191906000526020600020905b81548152906001019060200180831161049a57829003601f168201915b505050505081525050905084816000018190525083816020018190525081925050509392505050565b600080846040516020016104f49190610e2c565b60405160208183030381529060405280519060200120905061051681866107af565b610555576040517f08c379a000000000000000000000000000000000000000000000000000000000815260040161054c90610e75565b60405180910390fd5b6000806000838152602001908152602001600020905085816000019080519060200190610583929190610845565b508481600101908051906020019061059c929190610845565b50838160020190805190602001906105b5929190610845565b504281600301819055507fc8922d91fbabbe8df5d667708c678575856a856a2a465ebd9626a40ab6a16f5f826040516105ee9190610e95565b60405180910390a181925050509392505050565b61060a6108cb565b60008260405160200161061d9190610e2c565b604051602081830303815290604052805190602001209050600160008281526020019081526020016000206040518060400160405290816000820180546106639061104d565b80601f016020809104026020016040519081016040528092919081815260200182805461068f9061104d565b80156106dc5780601f106106b1576101008083540402835291602001916106dc565b820191906000526020600020905b8154815290600101906020018083116106bf57829003601f168201915b505050505081526020016001820180546106f59061104d565b80601f01602080910402602001604051908101604052809291908181526020018280546107219061104d565b801561076e5780601f106107435761010080835404028352916020019161076e565b820191906000526020600020905b81548152906001019060200180831161075157829003601f168201915b505050505081525050915050919050565b6000826040516020016107929190610e2c565b604051602081830303815290604052805190602001209050505050565b6000816040516020016107c29190610e2c565b604051602081830303815290604052805190602001206000808581526020019081526020016000206000016040516020016107fd9190610e43565b604051602081830303815290604052805190602001201415905092915050565b6040518060800160405280606081526020016060815260200160608152602001600081525090565b8280546108519061104d565b90600052602060002090601f01602090048101928261087357600085556108ba565b82601f1061088c57805160ff19168380011785556108ba565b828001600101855582156108ba579182015b828111156108b957825182559160200191906001019061089e565b5b5090506108c791906108e5565b5090565b604051806040016040528060608152602001606081525090565b5b808211156108fe5760008160009055506001016108e6565b5090565b600061091561091084610f2c565b610f07565b90508281526020810184848401111561093157610930611113565b5b61093c84828561100b565b509392505050565b600061095761095284610f5d565b610f07565b90508281526020810184848401111561097357610972611113565b5b61097e84828561100b565b509392505050565b600082601f83011261099b5761099a61110e565b5b81356109ab848260208601610902565b91505092915050565b600082601f8301126109c9576109c861110e565b5b81356109d9848260208601610944565b91505092915050565b6000602082840312156109f8576109f761111d565b5b600082013567ffffffffffffffff811115610a1657610a15611118565b5b610a22848285016109b4565b91505092915050565b60008060408385031215610a4257610a4161111d565b5b600083013567ffffffffffffffff811115610a6057610a5f611118565b5b610a6c858286016109b4565b925050602083013567ffffffffffffffff811115610a8d57610a8c611118565b5b610a99858286016109b4565b9150509250929050565b600080600060608486031215610abc57610abb61111d565b5b600084013567ffffffffffffffff811115610ada57610ad9611118565b5b610ae6868287016109b4565b935050602084013567ffffffffffffffff811115610b0757610b06611118565b5b610b13868287016109b4565b925050604084013567ffffffffffffffff811115610b3457610b33611118565b5b610b4086828701610986565b9150509250925092565b600080600060608486031215610b6357610b6261111d565b5b600084013567ffffffffffffffff811115610b8157610b80611118565b5b610b8d868287016109b4565b935050602084013567ffffffffffffffff811115610bae57610bad611118565b5b610bba868287016109b4565b925050604084013567ffffffffffffffff811115610bdb57610bda611118565b5b610be7868287016109b4565b9150509250925092565b610bfa81610ff7565b82525050565b6000610c0b82610fa3565b610c158185610fb9565b9350610c2581856020860161101a565b610c2e81611122565b840191505092915050565b6000610c4482610fae565b610c4e8185610fca565b9350610c5e81856020860161101a565b610c6781611122565b840191505092915050565b6000610c7d82610fae565b610c878185610fec565b9350610c9781856020860161101a565b80840191505092915050565b60008154610cb08161104d565b610cba8186610fec565b94506001821660008114610cd55760018114610ce657610d19565b60ff19831686528186019350610d19565b610cef85610f8e565b60005b83811015610d1157815481890152600182019150602081019050610cf2565b838801955050505b50505092915050565b6000610d2f601883610fdb565b9150610d3a82611133565b602082019050919050565b6000610d52600783610fdb565b9150610d5d8261115c565b602082019050919050565b60006080830160008301518482036000860152610d858282610c39565b91505060208301518482036020860152610d9f8282610c39565b91505060408301518482036040860152610db98282610c39565b9150506060830151610dce6060860182610e1d565b508091505092915050565b60006040830160008301518482036000860152610df68282610c39565b91505060208301518482036020860152610e108282610c00565b9150508091505092915050565b610e2681611001565b82525050565b6000610e388284610c72565b915081905092915050565b6000610e4f8284610ca3565b915081905092915050565b6000602082019050610e6f6000830184610bf1565b92915050565b60006020820190508181036000830152610e8e81610d22565b9050919050565b60006040820190508181036000830152610eae81610d45565b9050610ebd6020830184610bf1565b92915050565b60006020820190508181036000830152610edd8184610d68565b905092915050565b60006020820190508181036000830152610eff8184610dd9565b905092915050565b6000610f11610f22565b9050610f1d828261107f565b919050565b6000604051905090565b600067ffffffffffffffff821115610f4757610f466110df565b5b610f5082611122565b9050602081019050919050565b600067ffffffffffffffff821115610f7857610f776110df565b5b610f8182611122565b9050602081019050919050565b60008190508160005260206000209050919050565b600081519050919050565b600081519050919050565b600082825260208201905092915050565b600082825260208201905092915050565b600082825260208201905092915050565b600081905092915050565b6000819050919050565b6000819050919050565b82818337600083830152505050565b60005b8381101561103857808201518184015260208101905061101d565b83811115611047576000848401525b50505050565b6000600282049050600182168061106557607f821691505b60208210811415611079576110786110b0565b5b50919050565b61108882611122565b810181811067ffffffffffffffff821117156110a7576110a66110df565b5b80604052505050565b7f4e487b7100000000000000000000000000000000000000000000000000000000600052602260045260246000fd5b7f4e487b7100000000000000000000000000000000000000000000000000000000600052604160045260246000fd5b600080fd5b600080fd5b600080fd5b600080fd5b6000601f19601f8301169050919050565b7f4163636f756e7420616c7265616479206578697374696e670000000000000000600082015250565b7f737563636573730000000000000000000000000000000000000000000000000060008201525056fea264697066735822122014c03502c380e32af1f57d7067de4c64799b385086810f2a8e88d3f2195adb8464736f6c63430008070033",
					"opcodes": "PUSH1 0x80 PUSH1 0x40 MSTORE CALLVALUE DUP1 ISZERO PUSH2 0x10 JUMPI PUSH1 0x0 DUP1 REVERT JUMPDEST POP PUSH2 0x11BB DUP1 PUSH2 0x20 PUSH1 0x0 CODECOPY PUSH1 0x0 RETURN INVALID PUSH1 0x80 PUSH1 0x40 MSTORE CALLVALUE DUP1 ISZERO PUSH2 0x10 JUMPI PUSH1 0x0 DUP1 REVERT JUMPDEST POP PUSH1 0x4 CALLDATASIZE LT PUSH2 0x57 JUMPI PUSH1 0x0 CALLDATALOAD PUSH1 0xE0 SHR DUP1 PUSH4 0x174BA7FF EQ PUSH2 0x5C JUMPI DUP1 PUSH4 0x5B62132D EQ PUSH2 0x8C JUMPI DUP1 PUSH4 0xB24C908A EQ PUSH2 0xBC JUMPI DUP1 PUSH4 0xCA5E208F EQ PUSH2 0xEC JUMPI DUP1 PUSH4 0xE1096D25 EQ PUSH2 0x11C JUMPI JUMPDEST PUSH1 0x0 DUP1 REVERT JUMPDEST PUSH2 0x76 PUSH1 0x4 DUP1 CALLDATASIZE SUB DUP2 ADD SWAP1 PUSH2 0x71 SWAP2 SWAP1 PUSH2 0x9E2 JUMP JUMPDEST PUSH2 0x138 JUMP JUMPDEST PUSH1 0x40 MLOAD PUSH2 0x83 SWAP2 SWAP1 PUSH2 0xEC3 JUMP JUMPDEST PUSH1 0x40 MLOAD DUP1 SWAP2 SUB SWAP1 RETURN JUMPDEST PUSH2 0xA6 PUSH1 0x4 DUP1 CALLDATASIZE SUB DUP2 ADD SWAP1 PUSH2 0xA1 SWAP2 SWAP1 PUSH2 0xAA3 JUMP JUMPDEST PUSH2 0x350 JUMP JUMPDEST PUSH1 0x40 MLOAD PUSH2 0xB3 SWAP2 SWAP1 PUSH2 0xE5A JUMP JUMPDEST PUSH1 0x40 MLOAD DUP1 SWAP2 SUB SWAP1 RETURN JUMPDEST PUSH2 0xD6 PUSH1 0x4 DUP1 CALLDATASIZE SUB DUP2 ADD SWAP1 PUSH2 0xD1 SWAP2 SWAP1 PUSH2 0xB4A JUMP JUMPDEST PUSH2 0x4E0 JUMP JUMPDEST PUSH1 0x40 MLOAD PUSH2 0xE3 SWAP2 SWAP1 PUSH2 0xE5A JUMP JUMPDEST PUSH1 0x40 MLOAD DUP1 SWAP2 SUB SWAP1 RETURN JUMPDEST PUSH2 0x106 PUSH1 0x4 DUP1 CALLDATASIZE SUB DUP2 ADD SWAP1 PUSH2 0x101 SWAP2 SWAP1 PUSH2 0x9E2 JUMP JUMPDEST PUSH2 0x602 JUMP JUMPDEST PUSH1 0x40 MLOAD PUSH2 0x113 SWAP2 SWAP1 PUSH2 0xEE5 JUMP JUMPDEST PUSH1 0x40 MLOAD DUP1 SWAP2 SUB SWAP1 RETURN JUMPDEST PUSH2 0x136 PUSH1 0x4 DUP1 CALLDATASIZE SUB DUP2 ADD SWAP1 PUSH2 0x131 SWAP2 SWAP1 PUSH2 0xA2B JUMP JUMPDEST PUSH2 0x77F JUMP JUMPDEST STOP JUMPDEST PUSH2 0x140 PUSH2 0x81D JUMP JUMPDEST PUSH1 0x0 DUP3 PUSH1 0x40 MLOAD PUSH1 0x20 ADD PUSH2 0x153 SWAP2 SWAP1 PUSH2 0xE2C JUMP JUMPDEST PUSH1 0x40 MLOAD PUSH1 0x20 DUP2 DUP4 SUB SUB DUP2 MSTORE SWAP1 PUSH1 0x40 MSTORE DUP1 MLOAD SWAP1 PUSH1 0x20 ADD KECCAK256 SWAP1 POP PUSH1 0x0 DUP1 DUP3 DUP2 MSTORE PUSH1 0x20 ADD SWAP1 DUP2 MSTORE PUSH1 0x20 ADD PUSH1 0x0 KECCAK256 PUSH1 0x40 MLOAD DUP1 PUSH1 0x80 ADD PUSH1 0x40 MSTORE SWAP1 DUP2 PUSH1 0x0 DUP3 ADD DUP1 SLOAD PUSH2 0x198 SWAP1 PUSH2 0x104D JUMP JUMPDEST DUP1 PUSH1 0x1F ADD PUSH1 0x20 DUP1 SWAP2 DIV MUL PUSH1 0x20 ADD PUSH1 0x40 MLOAD SWAP1 DUP2 ADD PUSH1 0x40 MSTORE DUP1 SWAP3 SWAP2 SWAP1 DUP2 DUP2 MSTORE PUSH1 0x20 ADD DUP3 DUP1 SLOAD PUSH2 0x1C4 SWAP1 PUSH2 0x104D JUMP JUMPDEST DUP1 ISZERO PUSH2 0x211 JUMPI DUP1 PUSH1 0x1F LT PUSH2 0x1E6 JUMPI PUSH2 0x100 DUP1 DUP4 SLOAD DIV MUL DUP4 MSTORE SWAP2 PUSH1 0x20 ADD SWAP2 PUSH2 0x211 JUMP JUMPDEST DUP3 ADD SWAP2 SWAP1 PUSH1 0x0 MSTORE PUSH1 0x20 PUSH1 0x0 KECCAK256 SWAP1 JUMPDEST DUP2 SLOAD DUP2 MSTORE SWAP1 PUSH1 0x1 ADD SWAP1 PUSH1 0x20 ADD DUP1 DUP4 GT PUSH2 0x1F4 JUMPI DUP3 SWAP1 SUB PUSH1 0x1F AND DUP3 ADD SWAP2 JUMPDEST POP POP POP POP POP DUP2 MSTORE PUSH1 0x20 ADD PUSH1 0x1 DUP3 ADD DUP1 SLOAD PUSH2 0x22A SWAP1 PUSH2 0x104D JUMP JUMPDEST DUP1 PUSH1 0x1F ADD PUSH1 0x20 DUP1 SWAP2 DIV MUL PUSH1 0x20 ADD PUSH1 0x40 MLOAD SWAP1 DUP2 ADD PUSH1 0x40 MSTORE DUP1 SWAP3 SWAP2 SWAP1 DUP2 DUP2 MSTORE PUSH1 0x20 ADD DUP3 DUP1 SLOAD PUSH2 0x256 SWAP1 PUSH2 0x104D JUMP JUMPDEST DUP1 ISZERO PUSH2 0x2A3 JUMPI DUP1 PUSH1 0x1F LT PUSH2 0x278 JUMPI PUSH2 0x100 DUP1 DUP4 SLOAD DIV MUL DUP4 MSTORE SWAP2 PUSH1 0x20 ADD SWAP2 PUSH2 0x2A3 JUMP JUMPDEST DUP3 ADD SWAP2 SWAP1 PUSH1 0x0 MSTORE PUSH1 0x20 PUSH1 0x0 KECCAK256 SWAP1 JUMPDEST DUP2 SLOAD DUP2 MSTORE SWAP1 PUSH1 0x1 ADD SWAP1 PUSH1 0x20 ADD DUP1 DUP4 GT PUSH2 0x286 JUMPI DUP3 SWAP1 SUB PUSH1 0x1F AND DUP3 ADD SWAP2 JUMPDEST POP POP POP POP POP DUP2 MSTORE PUSH1 0x20 ADD PUSH1 0x2 DUP3 ADD DUP1 SLOAD PUSH2 0x2BC SWAP1 PUSH2 0x104D JUMP JUMPDEST DUP1 PUSH1 0x1F ADD PUSH1 0x20 DUP1 SWAP2 DIV MUL PUSH1 0x20 ADD PUSH1 0x40 MLOAD SWAP1 DUP2 ADD PUSH1 0x40 MSTORE DUP1 SWAP3 SWAP2 SWAP1 DUP2 DUP2 MSTORE PUSH1 0x20 ADD DUP3 DUP1 SLOAD PUSH2 0x2E8 SWAP1 PUSH2 0x104D JUMP JUMPDEST DUP1 ISZERO PUSH2 0x335 JUMPI DUP1 PUSH1 0x1F LT PUSH2 0x30A JUMPI PUSH2 0x100 DUP1 DUP4 SLOAD DIV MUL DUP4 MSTORE SWAP2 PUSH1 0x20 ADD SWAP2 PUSH2 0x335 JUMP JUMPDEST DUP3 ADD SWAP2 SWAP1 PUSH1 0x0 MSTORE PUSH1 0x20 PUSH1 0x0 KECCAK256 SWAP1 JUMPDEST DUP2 SLOAD DUP2 MSTORE SWAP1 PUSH1 0x1 ADD SWAP1 PUSH1 0x20 ADD DUP1 DUP4 GT PUSH2 0x318 JUMPI DUP3 SWAP1 SUB PUSH1 0x1F AND DUP3 ADD SWAP2 JUMPDEST POP POP POP POP POP DUP2 MSTORE PUSH1 0x20 ADD PUSH1 0x3 DUP3 ADD SLOAD DUP2 MSTORE POP POP SWAP2 POP POP SWAP2 SWAP1 POP JUMP JUMPDEST PUSH1 0x0 DUP1 DUP5 PUSH1 0x40 MLOAD PUSH1 0x20 ADD PUSH2 0x364 SWAP2 SWAP1 PUSH2 0xE2C JUMP JUMPDEST PUSH1 0x40 MLOAD PUSH1 0x20 DUP2 DUP4 SUB SUB DUP2 MSTORE SWAP1 PUSH1 0x40 MSTORE DUP1 MLOAD SWAP1 PUSH1 0x20 ADD KECCAK256 SWAP1 POP PUSH1 0x0 PUSH1 0x1 PUSH1 0x0 DUP4 DUP2 MSTORE PUSH1 0x20 ADD SWAP1 DUP2 MSTORE PUSH1 0x20 ADD PUSH1 0x0 KECCAK256 PUSH1 0x40 MLOAD DUP1 PUSH1 0x40 ADD PUSH1 0x40 MSTORE SWAP1 DUP2 PUSH1 0x0 DUP3 ADD DUP1 SLOAD PUSH2 0x3AC SWAP1 PUSH2 0x104D JUMP JUMPDEST DUP1 PUSH1 0x1F ADD PUSH1 0x20 DUP1 SWAP2 DIV MUL PUSH1 0x20 ADD PUSH1 0x40 MLOAD SWAP1 DUP2 ADD PUSH1 0x40 MSTORE DUP1 SWAP3 SWAP2 SWAP1 DUP2 DUP2 MSTORE PUSH1 0x20 ADD DUP3 DUP1 SLOAD PUSH2 0x3D8 SWAP1 PUSH2 0x104D JUMP JUMPDEST DUP1 ISZERO PUSH2 0x425 JUMPI DUP1 PUSH1 0x1F LT PUSH2 0x3FA JUMPI PUSH2 0x100 DUP1 DUP4 SLOAD DIV MUL DUP4 MSTORE SWAP2 PUSH1 0x20 ADD SWAP2 PUSH2 0x425 JUMP JUMPDEST DUP3 ADD SWAP2 SWAP1 PUSH1 0x0 MSTORE PUSH1 0x20 PUSH1 0x0 KECCAK256 SWAP1 JUMPDEST DUP2 SLOAD DUP2 MSTORE SWAP1 PUSH1 0x1 ADD SWAP1 PUSH1 0x20 ADD DUP1 DUP4 GT PUSH2 0x408 JUMPI DUP3 SWAP1 SUB PUSH1 0x1F AND DUP3 ADD SWAP2 JUMPDEST POP POP POP POP POP DUP2 MSTORE PUSH1 0x20 ADD PUSH1 0x1 DUP3 ADD DUP1 SLOAD PUSH2 0x43E SWAP1 PUSH2 0x104D JUMP JUMPDEST DUP1 PUSH1 0x1F ADD PUSH1 0x20 DUP1 SWAP2 DIV MUL PUSH1 0x20 ADD PUSH1 0x40 MLOAD SWAP1 DUP2 ADD PUSH1 0x40 MSTORE DUP1 SWAP3 SWAP2 SWAP1 DUP2 DUP2 MSTORE PUSH1 0x20 ADD DUP3 DUP1 SLOAD PUSH2 0x46A SWAP1 PUSH2 0x104D JUMP JUMPDEST DUP1 ISZERO PUSH2 0x4B7 JUMPI DUP1 PUSH1 0x1F LT PUSH2 0x48C JUMPI PUSH2 0x100 DUP1 DUP4 SLOAD DIV MUL DUP4 MSTORE SWAP2 PUSH1 0x20 ADD SWAP2 PUSH2 0x4B7 JUMP JUMPDEST DUP3 ADD SWAP2 SWAP1 PUSH1 0x0 MSTORE PUSH1 0x20 PUSH1 0x0 KECCAK256 SWAP1 JUMPDEST DUP2 SLOAD DUP2 MSTORE SWAP1 PUSH1 0x1 ADD SWAP1 PUSH1 0x20 ADD DUP1 DUP4 GT PUSH2 0x49A JUMPI DUP3 SWAP1 SUB PUSH1 0x1F AND DUP3 ADD SWAP2 JUMPDEST POP POP POP POP POP DUP2 MSTORE POP POP SWAP1 POP DUP5 DUP2 PUSH1 0x0 ADD DUP2 SWAP1 MSTORE POP DUP4 DUP2 PUSH1 0x20 ADD DUP2 SWAP1 MSTORE POP DUP2 SWAP3 POP POP POP SWAP4 SWAP3 POP POP POP JUMP JUMPDEST PUSH1 0x0 DUP1 DUP5 PUSH1 0x40 MLOAD PUSH1 0x20 ADD PUSH2 0x4F4 SWAP2 SWAP1 PUSH2 0xE2C JUMP JUMPDEST PUSH1 0x40 MLOAD PUSH1 0x20 DUP2 DUP4 SUB SUB DUP2 MSTORE SWAP1 PUSH1 0x40 MSTORE DUP1 MLOAD SWAP1 PUSH1 0x20 ADD KECCAK256 SWAP1 POP PUSH2 0x516 DUP2 DUP7 PUSH2 0x7AF JUMP JUMPDEST PUSH2 0x555 JUMPI PUSH1 0x40 MLOAD PUSH32 0x8C379A000000000000000000000000000000000000000000000000000000000 DUP2 MSTORE PUSH1 0x4 ADD PUSH2 0x54C SWAP1 PUSH2 0xE75 JUMP JUMPDEST PUSH1 0x40 MLOAD DUP1 SWAP2 SUB SWAP1 REVERT JUMPDEST PUSH1 0x0 DUP1 PUSH1 0x0 DUP4 DUP2 MSTORE PUSH1 0x20 ADD SWAP1 DUP2 MSTORE PUSH1 0x20 ADD PUSH1 0x0 KECCAK256 SWAP1 POP DUP6 DUP2 PUSH1 0x0 ADD SWAP1 DUP1 MLOAD SWAP1 PUSH1 0x20 ADD SWAP1 PUSH2 0x583 SWAP3 SWAP2 SWAP1 PUSH2 0x845 JUMP JUMPDEST POP DUP5 DUP2 PUSH1 0x1 ADD SWAP1 DUP1 MLOAD SWAP1 PUSH1 0x20 ADD SWAP1 PUSH2 0x59C SWAP3 SWAP2 SWAP1 PUSH2 0x845 JUMP JUMPDEST POP DUP4 DUP2 PUSH1 0x2 ADD SWAP1 DUP1 MLOAD SWAP1 PUSH1 0x20 ADD SWAP1 PUSH2 0x5B5 SWAP3 SWAP2 SWAP1 PUSH2 0x845 JUMP JUMPDEST POP TIMESTAMP DUP2 PUSH1 0x3 ADD DUP2 SWAP1 SSTORE POP PUSH32 0xC8922D91FBABBE8DF5D667708C678575856A856A2A465EBD9626A40AB6A16F5F DUP3 PUSH1 0x40 MLOAD PUSH2 0x5EE SWAP2 SWAP1 PUSH2 0xE95 JUMP JUMPDEST PUSH1 0x40 MLOAD DUP1 SWAP2 SUB SWAP1 LOG1 DUP2 SWAP3 POP POP POP SWAP4 SWAP3 POP POP POP JUMP JUMPDEST PUSH2 0x60A PUSH2 0x8CB JUMP JUMPDEST PUSH1 0x0 DUP3 PUSH1 0x40 MLOAD PUSH1 0x20 ADD PUSH2 0x61D SWAP2 SWAP1 PUSH2 0xE2C JUMP JUMPDEST PUSH1 0x40 MLOAD PUSH1 0x20 DUP2 DUP4 SUB SUB DUP2 MSTORE SWAP1 PUSH1 0x40 MSTORE DUP1 MLOAD SWAP1 PUSH1 0x20 ADD KECCAK256 SWAP1 POP PUSH1 0x1 PUSH1 0x0 DUP3 DUP2 MSTORE PUSH1 0x20 ADD SWAP1 DUP2 MSTORE PUSH1 0x20 ADD PUSH1 0x0 KECCAK256 PUSH1 0x40 MLOAD DUP1 PUSH1 0x40 ADD PUSH1 0x40 MSTORE SWAP1 DUP2 PUSH1 0x0 DUP3 ADD DUP1 SLOAD PUSH2 0x663 SWAP1 PUSH2 0x104D JUMP JUMPDEST DUP1 PUSH1 0x1F ADD PUSH1 0x20 DUP1 SWAP2 DIV MUL PUSH1 0x20 ADD PUSH1 0x40 MLOAD SWAP1 DUP2 ADD PUSH1 0x40 MSTORE DUP1 SWAP3 SWAP2 SWAP1 DUP2 DUP2 MSTORE PUSH1 0x20 ADD DUP3 DUP1 SLOAD PUSH2 0x68F SWAP1 PUSH2 0x104D JUMP JUMPDEST DUP1 ISZERO PUSH2 0x6DC JUMPI DUP1 PUSH1 0x1F LT PUSH2 0x6B1 JUMPI PUSH2 0x100 DUP1 DUP4 SLOAD DIV MUL DUP4 MSTORE SWAP2 PUSH1 0x20 ADD SWAP2 PUSH2 0x6DC JUMP JUMPDEST DUP3 ADD SWAP2 SWAP1 PUSH1 0x0 MSTORE PUSH1 0x20 PUSH1 0x0 KECCAK256 SWAP1 JUMPDEST DUP2 SLOAD DUP2 MSTORE SWAP1 PUSH1 0x1 ADD SWAP1 PUSH1 0x20 ADD DUP1 DUP4 GT PUSH2 0x6BF JUMPI DUP3 SWAP1 SUB PUSH1 0x1F AND DUP3 ADD SWAP2 JUMPDEST POP POP POP POP POP DUP2 MSTORE PUSH1 0x20 ADD PUSH1 0x1 DUP3 ADD DUP1 SLOAD PUSH2 0x6F5 SWAP1 PUSH2 0x104D JUMP JUMPDEST DUP1 PUSH1 0x1F ADD PUSH1 0x20 DUP1 SWAP2 DIV MUL PUSH1 0x20 ADD PUSH1 0x40 MLOAD SWAP1 DUP2 ADD PUSH1 0x40 MSTORE DUP1 SWAP3 SWAP2 SWAP1 DUP2 DUP2 MSTORE PUSH1 0x20 ADD DUP3 DUP1 SLOAD PUSH2 0x721 SWAP1 PUSH2 0x104D JUMP JUMPDEST DUP1 ISZERO PUSH2 0x76E JUMPI DUP1 PUSH1 0x1F LT PUSH2 0x743 JUMPI PUSH2 0x100 DUP1 DUP4 SLOAD DIV MUL DUP4 MSTORE SWAP2 PUSH1 0x20 ADD SWAP2 PUSH2 0x76E JUMP JUMPDEST DUP3 ADD SWAP2 SWAP1 PUSH1 0x0 MSTORE PUSH1 0x20 PUSH1 0x0 KECCAK256 SWAP1 JUMPDEST DUP2 SLOAD DUP2 MSTORE SWAP1 PUSH1 0x1 ADD SWAP1 PUSH1 0x20 ADD DUP1 DUP4 GT PUSH2 0x751 JUMPI DUP3 SWAP1 SUB PUSH1 0x1F AND DUP3 ADD SWAP2 JUMPDEST POP POP POP POP POP DUP2 MSTORE POP POP SWAP2 POP POP SWAP2 SWAP1 POP JUMP JUMPDEST PUSH1 0x0 DUP3 PUSH1 0x40 MLOAD PUSH1 0x20 ADD PUSH2 0x792 SWAP2 SWAP1 PUSH2 0xE2C JUMP JUMPDEST PUSH1 0x40 MLOAD PUSH1 0x20 DUP2 DUP4 SUB SUB DUP2 MSTORE SWAP1 PUSH1 0x40 MSTORE DUP1 MLOAD SWAP1 PUSH1 0x20 ADD KECCAK256 SWAP1 POP POP POP POP JUMP JUMPDEST PUSH1 0x0 DUP2 PUSH1 0x40 MLOAD PUSH1 0x20 ADD PUSH2 0x7C2 SWAP2 SWAP1 PUSH2 0xE2C JUMP JUMPDEST PUSH1 0x40 MLOAD PUSH1 0x20 DUP2 DUP4 SUB SUB DUP2 MSTORE SWAP1 PUSH1 0x40 MSTORE DUP1 MLOAD SWAP1 PUSH1 0x20 ADD KECCAK256 PUSH1 0x0 DUP1 DUP6 DUP2 MSTORE PUSH1 0x20 ADD SWAP1 DUP2 MSTORE PUSH1 0x20 ADD PUSH1 0x0 KECCAK256 PUSH1 0x0 ADD PUSH1 0x40 MLOAD PUSH1 0x20 ADD PUSH2 0x7FD SWAP2 SWAP1 PUSH2 0xE43 JUMP JUMPDEST PUSH1 0x40 MLOAD PUSH1 0x20 DUP2 DUP4 SUB SUB DUP2 MSTORE SWAP1 PUSH1 0x40 MSTORE DUP1 MLOAD SWAP1 PUSH1 0x20 ADD KECCAK256 EQ ISZERO SWAP1 POP SWAP3 SWAP2 POP POP JUMP JUMPDEST PUSH1 0x40 MLOAD DUP1 PUSH1 0x80 ADD PUSH1 0x40 MSTORE DUP1 PUSH1 0x60 DUP2 MSTORE PUSH1 0x20 ADD PUSH1 0x60 DUP2 MSTORE PUSH1 0x20 ADD PUSH1 0x60 DUP2 MSTORE PUSH1 0x20 ADD PUSH1 0x0 DUP2 MSTORE POP SWAP1 JUMP JUMPDEST DUP3 DUP1 SLOAD PUSH2 0x851 SWAP1 PUSH2 0x104D JUMP JUMPDEST SWAP1 PUSH1 0x0 MSTORE PUSH1 0x20 PUSH1 0x0 KECCAK256 SWAP1 PUSH1 0x1F ADD PUSH1 0x20 SWAP1 DIV DUP2 ADD SWAP3 DUP3 PUSH2 0x873 JUMPI PUSH1 0x0 DUP6 SSTORE PUSH2 0x8BA JUMP JUMPDEST DUP3 PUSH1 0x1F LT PUSH2 0x88C JUMPI DUP1 MLOAD PUSH1 0xFF NOT AND DUP4 DUP1 ADD OR DUP6 SSTORE PUSH2 0x8BA JUMP JUMPDEST DUP3 DUP1 ADD PUSH1 0x1 ADD DUP6 SSTORE DUP3 ISZERO PUSH2 0x8BA JUMPI SWAP2 DUP3 ADD JUMPDEST DUP3 DUP2 GT ISZERO PUSH2 0x8B9 JUMPI DUP3 MLOAD DUP3 SSTORE SWAP2 PUSH1 0x20 ADD SWAP2 SWAP1 PUSH1 0x1 ADD SWAP1 PUSH2 0x89E JUMP JUMPDEST JUMPDEST POP SWAP1 POP PUSH2 0x8C7 SWAP2 SWAP1 PUSH2 0x8E5 JUMP JUMPDEST POP SWAP1 JUMP JUMPDEST PUSH1 0x40 MLOAD DUP1 PUSH1 0x40 ADD PUSH1 0x40 MSTORE DUP1 PUSH1 0x60 DUP2 MSTORE PUSH1 0x20 ADD PUSH1 0x60 DUP2 MSTORE POP SWAP1 JUMP JUMPDEST JUMPDEST DUP1 DUP3 GT ISZERO PUSH2 0x8FE JUMPI PUSH1 0x0 DUP2 PUSH1 0x0 SWAP1 SSTORE POP PUSH1 0x1 ADD PUSH2 0x8E6 JUMP JUMPDEST POP SWAP1 JUMP JUMPDEST PUSH1 0x0 PUSH2 0x915 PUSH2 0x910 DUP5 PUSH2 0xF2C JUMP JUMPDEST PUSH2 0xF07 JUMP JUMPDEST SWAP1 POP DUP3 DUP2 MSTORE PUSH1 0x20 DUP2 ADD DUP5 DUP5 DUP5 ADD GT ISZERO PUSH2 0x931 JUMPI PUSH2 0x930 PUSH2 0x1113 JUMP JUMPDEST JUMPDEST PUSH2 0x93C DUP5 DUP3 DUP6 PUSH2 0x100B JUMP JUMPDEST POP SWAP4 SWAP3 POP POP POP JUMP JUMPDEST PUSH1 0x0 PUSH2 0x957 PUSH2 0x952 DUP5 PUSH2 0xF5D JUMP JUMPDEST PUSH2 0xF07 JUMP JUMPDEST SWAP1 POP DUP3 DUP2 MSTORE PUSH1 0x20 DUP2 ADD DUP5 DUP5 DUP5 ADD GT ISZERO PUSH2 0x973 JUMPI PUSH2 0x972 PUSH2 0x1113 JUMP JUMPDEST JUMPDEST PUSH2 0x97E DUP5 DUP3 DUP6 PUSH2 0x100B JUMP JUMPDEST POP SWAP4 SWAP3 POP POP POP JUMP JUMPDEST PUSH1 0x0 DUP3 PUSH1 0x1F DUP4 ADD SLT PUSH2 0x99B JUMPI PUSH2 0x99A PUSH2 0x110E JUMP JUMPDEST JUMPDEST DUP2 CALLDATALOAD PUSH2 0x9AB DUP5 DUP3 PUSH1 0x20 DUP7 ADD PUSH2 0x902 JUMP JUMPDEST SWAP2 POP POP SWAP3 SWAP2 POP POP JUMP JUMPDEST PUSH1 0x0 DUP3 PUSH1 0x1F DUP4 ADD SLT PUSH2 0x9C9 JUMPI PUSH2 0x9C8 PUSH2 0x110E JUMP JUMPDEST JUMPDEST DUP2 CALLDATALOAD PUSH2 0x9D9 DUP5 DUP3 PUSH1 0x20 DUP7 ADD PUSH2 0x944 JUMP JUMPDEST SWAP2 POP POP SWAP3 SWAP2 POP POP JUMP JUMPDEST PUSH1 0x0 PUSH1 0x20 DUP3 DUP5 SUB SLT ISZERO PUSH2 0x9F8 JUMPI PUSH2 0x9F7 PUSH2 0x111D JUMP JUMPDEST JUMPDEST PUSH1 0x0 DUP3 ADD CALLDATALOAD PUSH8 0xFFFFFFFFFFFFFFFF DUP2 GT ISZERO PUSH2 0xA16 JUMPI PUSH2 0xA15 PUSH2 0x1118 JUMP JUMPDEST JUMPDEST PUSH2 0xA22 DUP5 DUP3 DUP6 ADD PUSH2 0x9B4 JUMP JUMPDEST SWAP2 POP POP SWAP3 SWAP2 POP POP JUMP JUMPDEST PUSH1 0x0 DUP1 PUSH1 0x40 DUP4 DUP6 SUB SLT ISZERO PUSH2 0xA42 JUMPI PUSH2 0xA41 PUSH2 0x111D JUMP JUMPDEST JUMPDEST PUSH1 0x0 DUP4 ADD CALLDATALOAD PUSH8 0xFFFFFFFFFFFFFFFF DUP2 GT ISZERO PUSH2 0xA60 JUMPI PUSH2 0xA5F PUSH2 0x1118 JUMP JUMPDEST JUMPDEST PUSH2 0xA6C DUP6 DUP3 DUP7 ADD PUSH2 0x9B4 JUMP JUMPDEST SWAP3 POP POP PUSH1 0x20 DUP4 ADD CALLDATALOAD PUSH8 0xFFFFFFFFFFFFFFFF DUP2 GT ISZERO PUSH2 0xA8D JUMPI PUSH2 0xA8C PUSH2 0x1118 JUMP JUMPDEST JUMPDEST PUSH2 0xA99 DUP6 DUP3 DUP7 ADD PUSH2 0x9B4 JUMP JUMPDEST SWAP2 POP POP SWAP3 POP SWAP3 SWAP1 POP JUMP JUMPDEST PUSH1 0x0 DUP1 PUSH1 0x0 PUSH1 0x60 DUP5 DUP7 SUB SLT ISZERO PUSH2 0xABC JUMPI PUSH2 0xABB PUSH2 0x111D JUMP JUMPDEST JUMPDEST PUSH1 0x0 DUP5 ADD CALLDATALOAD PUSH8 0xFFFFFFFFFFFFFFFF DUP2 GT ISZERO PUSH2 0xADA JUMPI PUSH2 0xAD9 PUSH2 0x1118 JUMP JUMPDEST JUMPDEST PUSH2 0xAE6 DUP7 DUP3 DUP8 ADD PUSH2 0x9B4 JUMP JUMPDEST SWAP4 POP POP PUSH1 0x20 DUP5 ADD CALLDATALOAD PUSH8 0xFFFFFFFFFFFFFFFF DUP2 GT ISZERO PUSH2 0xB07 JUMPI PUSH2 0xB06 PUSH2 0x1118 JUMP JUMPDEST JUMPDEST PUSH2 0xB13 DUP7 DUP3 DUP8 ADD PUSH2 0x9B4 JUMP JUMPDEST SWAP3 POP POP PUSH1 0x40 DUP5 ADD CALLDATALOAD PUSH8 0xFFFFFFFFFFFFFFFF DUP2 GT ISZERO PUSH2 0xB34 JUMPI PUSH2 0xB33 PUSH2 0x1118 JUMP JUMPDEST JUMPDEST PUSH2 0xB40 DUP7 DUP3 DUP8 ADD PUSH2 0x986 JUMP JUMPDEST SWAP2 POP POP SWAP3 POP SWAP3 POP SWAP3 JUMP JUMPDEST PUSH1 0x0 DUP1 PUSH1 0x0 PUSH1 0x60 DUP5 DUP7 SUB SLT ISZERO PUSH2 0xB63 JUMPI PUSH2 0xB62 PUSH2 0x111D JUMP JUMPDEST JUMPDEST PUSH1 0x0 DUP5 ADD CALLDATALOAD PUSH8 0xFFFFFFFFFFFFFFFF DUP2 GT ISZERO PUSH2 0xB81 JUMPI PUSH2 0xB80 PUSH2 0x1118 JUMP JUMPDEST JUMPDEST PUSH2 0xB8D DUP7 DUP3 DUP8 ADD PUSH2 0x9B4 JUMP JUMPDEST SWAP4 POP POP PUSH1 0x20 DUP5 ADD CALLDATALOAD PUSH8 0xFFFFFFFFFFFFFFFF DUP2 GT ISZERO PUSH2 0xBAE JUMPI PUSH2 0xBAD PUSH2 0x1118 JUMP JUMPDEST JUMPDEST PUSH2 0xBBA DUP7 DUP3 DUP8 ADD PUSH2 0x9B4 JUMP JUMPDEST SWAP3 POP POP PUSH1 0x40 DUP5 ADD CALLDATALOAD PUSH8 0xFFFFFFFFFFFFFFFF DUP2 GT ISZERO PUSH2 0xBDB JUMPI PUSH2 0xBDA PUSH2 0x1118 JUMP JUMPDEST JUMPDEST PUSH2 0xBE7 DUP7 DUP3 DUP8 ADD PUSH2 0x9B4 JUMP JUMPDEST SWAP2 POP POP SWAP3 POP SWAP3 POP SWAP3 JUMP JUMPDEST PUSH2 0xBFA DUP2 PUSH2 0xFF7 JUMP JUMPDEST DUP3 MSTORE POP POP JUMP JUMPDEST PUSH1 0x0 PUSH2 0xC0B DUP3 PUSH2 0xFA3 JUMP JUMPDEST PUSH2 0xC15 DUP2 DUP6 PUSH2 0xFB9 JUMP JUMPDEST SWAP4 POP PUSH2 0xC25 DUP2 DUP6 PUSH1 0x20 DUP7 ADD PUSH2 0x101A JUMP JUMPDEST PUSH2 0xC2E DUP2 PUSH2 0x1122 JUMP JUMPDEST DUP5 ADD SWAP2 POP POP SWAP3 SWAP2 POP POP JUMP JUMPDEST PUSH1 0x0 PUSH2 0xC44 DUP3 PUSH2 0xFAE JUMP JUMPDEST PUSH2 0xC4E DUP2 DUP6 PUSH2 0xFCA JUMP JUMPDEST SWAP4 POP PUSH2 0xC5E DUP2 DUP6 PUSH1 0x20 DUP7 ADD PUSH2 0x101A JUMP JUMPDEST PUSH2 0xC67 DUP2 PUSH2 0x1122 JUMP JUMPDEST DUP5 ADD SWAP2 POP POP SWAP3 SWAP2 POP POP JUMP JUMPDEST PUSH1 0x0 PUSH2 0xC7D DUP3 PUSH2 0xFAE JUMP JUMPDEST PUSH2 0xC87 DUP2 DUP6 PUSH2 0xFEC JUMP JUMPDEST SWAP4 POP PUSH2 0xC97 DUP2 DUP6 PUSH1 0x20 DUP7 ADD PUSH2 0x101A JUMP JUMPDEST DUP1 DUP5 ADD SWAP2 POP POP SWAP3 SWAP2 POP POP JUMP JUMPDEST PUSH1 0x0 DUP2 SLOAD PUSH2 0xCB0 DUP2 PUSH2 0x104D JUMP JUMPDEST PUSH2 0xCBA DUP2 DUP7 PUSH2 0xFEC JUMP JUMPDEST SWAP5 POP PUSH1 0x1 DUP3 AND PUSH1 0x0 DUP2 EQ PUSH2 0xCD5 JUMPI PUSH1 0x1 DUP2 EQ PUSH2 0xCE6 JUMPI PUSH2 0xD19 JUMP JUMPDEST PUSH1 0xFF NOT DUP4 AND DUP7 MSTORE DUP2 DUP7 ADD SWAP4 POP PUSH2 0xD19 JUMP JUMPDEST PUSH2 0xCEF DUP6 PUSH2 0xF8E JUMP JUMPDEST PUSH1 0x0 JUMPDEST DUP4 DUP2 LT ISZERO PUSH2 0xD11 JUMPI DUP2 SLOAD DUP2 DUP10 ADD MSTORE PUSH1 0x1 DUP3 ADD SWAP2 POP PUSH1 0x20 DUP2 ADD SWAP1 POP PUSH2 0xCF2 JUMP JUMPDEST DUP4 DUP9 ADD SWAP6 POP POP POP JUMPDEST POP POP POP SWAP3 SWAP2 POP POP JUMP JUMPDEST PUSH1 0x0 PUSH2 0xD2F PUSH1 0x18 DUP4 PUSH2 0xFDB JUMP JUMPDEST SWAP2 POP PUSH2 0xD3A DUP3 PUSH2 0x1133 JUMP JUMPDEST PUSH1 0x20 DUP3 ADD SWAP1 POP SWAP2 SWAP1 POP JUMP JUMPDEST PUSH1 0x0 PUSH2 0xD52 PUSH1 0x7 DUP4 PUSH2 0xFDB JUMP JUMPDEST SWAP2 POP PUSH2 0xD5D DUP3 PUSH2 0x115C JUMP JUMPDEST PUSH1 0x20 DUP3 ADD SWAP1 POP SWAP2 SWAP1 POP JUMP JUMPDEST PUSH1 0x0 PUSH1 0x80 DUP4 ADD PUSH1 0x0 DUP4 ADD MLOAD DUP5 DUP3 SUB PUSH1 0x0 DUP7 ADD MSTORE PUSH2 0xD85 DUP3 DUP3 PUSH2 0xC39 JUMP JUMPDEST SWAP2 POP POP PUSH1 0x20 DUP4 ADD MLOAD DUP5 DUP3 SUB PUSH1 0x20 DUP7 ADD MSTORE PUSH2 0xD9F DUP3 DUP3 PUSH2 0xC39 JUMP JUMPDEST SWAP2 POP POP PUSH1 0x40 DUP4 ADD MLOAD DUP5 DUP3 SUB PUSH1 0x40 DUP7 ADD MSTORE PUSH2 0xDB9 DUP3 DUP3 PUSH2 0xC39 JUMP JUMPDEST SWAP2 POP POP PUSH1 0x60 DUP4 ADD MLOAD PUSH2 0xDCE PUSH1 0x60 DUP7 ADD DUP3 PUSH2 0xE1D JUMP JUMPDEST POP DUP1 SWAP2 POP POP SWAP3 SWAP2 POP POP JUMP JUMPDEST PUSH1 0x0 PUSH1 0x40 DUP4 ADD PUSH1 0x0 DUP4 ADD MLOAD DUP5 DUP3 SUB PUSH1 0x0 DUP7 ADD MSTORE PUSH2 0xDF6 DUP3 DUP3 PUSH2 0xC39 JUMP JUMPDEST SWAP2 POP POP PUSH1 0x20 DUP4 ADD MLOAD DUP5 DUP3 SUB PUSH1 0x20 DUP7 ADD MSTORE PUSH2 0xE10 DUP3 DUP3 PUSH2 0xC00 JUMP JUMPDEST SWAP2 POP POP DUP1 SWAP2 POP POP SWAP3 SWAP2 POP POP JUMP JUMPDEST PUSH2 0xE26 DUP2 PUSH2 0x1001 JUMP JUMPDEST DUP3 MSTORE POP POP JUMP JUMPDEST PUSH1 0x0 PUSH2 0xE38 DUP3 DUP5 PUSH2 0xC72 JUMP JUMPDEST SWAP2 POP DUP2 SWAP1 POP SWAP3 SWAP2 POP POP JUMP JUMPDEST PUSH1 0x0 PUSH2 0xE4F DUP3 DUP5 PUSH2 0xCA3 JUMP JUMPDEST SWAP2 POP DUP2 SWAP1 POP SWAP3 SWAP2 POP POP JUMP JUMPDEST PUSH1 0x0 PUSH1 0x20 DUP3 ADD SWAP1 POP PUSH2 0xE6F PUSH1 0x0 DUP4 ADD DUP5 PUSH2 0xBF1 JUMP JUMPDEST SWAP3 SWAP2 POP POP JUMP JUMPDEST PUSH1 0x0 PUSH1 0x20 DUP3 ADD SWAP1 POP DUP2 DUP2 SUB PUSH1 0x0 DUP4 ADD MSTORE PUSH2 0xE8E DUP2 PUSH2 0xD22 JUMP JUMPDEST SWAP1 POP SWAP2 SWAP1 POP JUMP JUMPDEST PUSH1 0x0 PUSH1 0x40 DUP3 ADD SWAP1 POP DUP2 DUP2 SUB PUSH1 0x0 DUP4 ADD MSTORE PUSH2 0xEAE DUP2 PUSH2 0xD45 JUMP JUMPDEST SWAP1 POP PUSH2 0xEBD PUSH1 0x20 DUP4 ADD DUP5 PUSH2 0xBF1 JUMP JUMPDEST SWAP3 SWAP2 POP POP JUMP JUMPDEST PUSH1 0x0 PUSH1 0x20 DUP3 ADD SWAP1 POP DUP2 DUP2 SUB PUSH1 0x0 DUP4 ADD MSTORE PUSH2 0xEDD DUP2 DUP5 PUSH2 0xD68 JUMP JUMPDEST SWAP1 POP SWAP3 SWAP2 POP POP JUMP JUMPDEST PUSH1 0x0 PUSH1 0x20 DUP3 ADD SWAP1 POP DUP2 DUP2 SUB PUSH1 0x0 DUP4 ADD MSTORE PUSH2 0xEFF DUP2 DUP5 PUSH2 0xDD9 JUMP JUMPDEST SWAP1 POP SWAP3 SWAP2 POP POP JUMP JUMPDEST PUSH1 0x0 PUSH2 0xF11 PUSH2 0xF22 JUMP JUMPDEST SWAP1 POP PUSH2 0xF1D DUP3 DUP3 PUSH2 0x107F JUMP JUMPDEST SWAP2 SWAP1 POP JUMP JUMPDEST PUSH1 0x0 PUSH1 0x40 MLOAD SWAP1 POP SWAP1 JUMP JUMPDEST PUSH1 0x0 PUSH8 0xFFFFFFFFFFFFFFFF DUP3 GT ISZERO PUSH2 0xF47 JUMPI PUSH2 0xF46 PUSH2 0x10DF JUMP JUMPDEST JUMPDEST PUSH2 0xF50 DUP3 PUSH2 0x1122 JUMP JUMPDEST SWAP1 POP PUSH1 0x20 DUP2 ADD SWAP1 POP SWAP2 SWAP1 POP JUMP JUMPDEST PUSH1 0x0 PUSH8 0xFFFFFFFFFFFFFFFF DUP3 GT ISZERO PUSH2 0xF78 JUMPI PUSH2 0xF77 PUSH2 0x10DF JUMP JUMPDEST JUMPDEST PUSH2 0xF81 DUP3 PUSH2 0x1122 JUMP JUMPDEST SWAP1 POP PUSH1 0x20 DUP2 ADD SWAP1 POP SWAP2 SWAP1 POP JUMP JUMPDEST PUSH1 0x0 DUP2 SWAP1 POP DUP2 PUSH1 0x0 MSTORE PUSH1 0x20 PUSH1 0x0 KECCAK256 SWAP1 POP SWAP2 SWAP1 POP JUMP JUMPDEST PUSH1 0x0 DUP2 MLOAD SWAP1 POP SWAP2 SWAP1 POP JUMP JUMPDEST PUSH1 0x0 DUP2 MLOAD SWAP1 POP SWAP2 SWAP1 POP JUMP JUMPDEST PUSH1 0x0 DUP3 DUP3 MSTORE PUSH1 0x20 DUP3 ADD SWAP1 POP SWAP3 SWAP2 POP POP JUMP JUMPDEST PUSH1 0x0 DUP3 DUP3 MSTORE PUSH1 0x20 DUP3 ADD SWAP1 POP SWAP3 SWAP2 POP POP JUMP JUMPDEST PUSH1 0x0 DUP3 DUP3 MSTORE PUSH1 0x20 DUP3 ADD SWAP1 POP SWAP3 SWAP2 POP POP JUMP JUMPDEST PUSH1 0x0 DUP2 SWAP1 POP SWAP3 SWAP2 POP POP JUMP JUMPDEST PUSH1 0x0 DUP2 SWAP1 POP SWAP2 SWAP1 POP JUMP JUMPDEST PUSH1 0x0 DUP2 SWAP1 POP SWAP2 SWAP1 POP JUMP JUMPDEST DUP3 DUP2 DUP4 CALLDATACOPY PUSH1 0x0 DUP4 DUP4 ADD MSTORE POP POP POP JUMP JUMPDEST PUSH1 0x0 JUMPDEST DUP4 DUP2 LT ISZERO PUSH2 0x1038 JUMPI DUP1 DUP3 ADD MLOAD DUP2 DUP5 ADD MSTORE PUSH1 0x20 DUP2 ADD SWAP1 POP PUSH2 0x101D JUMP JUMPDEST DUP4 DUP2 GT ISZERO PUSH2 0x1047 JUMPI PUSH1 0x0 DUP5 DUP5 ADD MSTORE JUMPDEST POP POP POP POP JUMP JUMPDEST PUSH1 0x0 PUSH1 0x2 DUP3 DIV SWAP1 POP PUSH1 0x1 DUP3 AND DUP1 PUSH2 0x1065 JUMPI PUSH1 0x7F DUP3 AND SWAP2 POP JUMPDEST PUSH1 0x20 DUP3 LT DUP2 EQ ISZERO PUSH2 0x1079 JUMPI PUSH2 0x1078 PUSH2 0x10B0 JUMP JUMPDEST JUMPDEST POP SWAP2 SWAP1 POP JUMP JUMPDEST PUSH2 0x1088 DUP3 PUSH2 0x1122 JUMP JUMPDEST DUP2 ADD DUP2 DUP2 LT PUSH8 0xFFFFFFFFFFFFFFFF DUP3 GT OR ISZERO PUSH2 0x10A7 JUMPI PUSH2 0x10A6 PUSH2 0x10DF JUMP JUMPDEST JUMPDEST DUP1 PUSH1 0x40 MSTORE POP POP POP JUMP JUMPDEST PUSH32 0x4E487B7100000000000000000000000000000000000000000000000000000000 PUSH1 0x0 MSTORE PUSH1 0x22 PUSH1 0x4 MSTORE PUSH1 0x24 PUSH1 0x0 REVERT JUMPDEST PUSH32 0x4E487B7100000000000000000000000000000000000000000000000000000000 PUSH1 0x0 MSTORE PUSH1 0x41 PUSH1 0x4 MSTORE PUSH1 0x24 PUSH1 0x0 REVERT JUMPDEST PUSH1 0x0 DUP1 REVERT JUMPDEST PUSH1 0x0 DUP1 REVERT JUMPDEST PUSH1 0x0 DUP1 REVERT JUMPDEST PUSH1 0x0 DUP1 REVERT JUMPDEST PUSH1 0x0 PUSH1 0x1F NOT PUSH1 0x1F DUP4 ADD AND SWAP1 POP SWAP2 SWAP1 POP JUMP JUMPDEST PUSH32 0x4163636F756E7420616C7265616479206578697374696E670000000000000000 PUSH1 0x0 DUP3 ADD MSTORE POP JUMP JUMPDEST PUSH32 0x7375636365737300000000000000000000000000000000000000000000000000 PUSH1 0x0 DUP3 ADD MSTORE POP JUMP INVALID LOG2 PUSH5 0x6970667358 0x22 SLT KECCAK256 EQ 0xC0 CALLDATALOAD MUL 0xC3 DUP1 0xE3 0x2A CALL CREATE2 PUSH30 0x7067DE4C64799B385086810F2A8E88D3F2195ADB8464736F6C6343000807 STOP CALLER "
				},
				"gasEstimates": {
					"creation": {
						"codeDepositCost": "907800",
						"executionCost": "942",
						"totalCost": "908742"
					},
					"external": {
						"add_account(string,string,string)": "infinite",
						"add_certificate(string,string)": "infinite",
						"add_transaction(string,string,bytes)": "infinite",
						"get_account(string)": "infinite",
						"get_transaction(string)": "infinite"
					},
					"internal": {
						"account_checker(bytes32,string memory)": "infinite"
					}
				},
				"methodIdentifiers": {
					"add_account(string,string,string)": "b24c908a",
					"add_certificate(string,string)": "e1096d25",
					"add_transaction(string,string,bytes)": "5b62132d",
					"get_account(string)": "174ba7ff",
					"get_transaction(string)": "ca5e208f"
				}
			},
			"storageLayout": {
				"storage": [
					{
						"astId": 21,
						"contract": "contracts/Halal.sol:Halal",
						"label": "mappingAccount",
						"offset": 0,
						"slot": "0",
						"type": "t_mapping(t_bytes32,t_struct(accountData)16_storage)"
					},
					{
						"astId": 31,
						"contract": "contracts/Halal.sol:Halal",
						"label": "mappingTransaction",
						"offset": 0,
						"slot": "1",
						"type": "t_mapping(t_bytes32,t_struct(transaction)26_storage)"
					},
					{
						"astId": 45,
						"contract": "contracts/Halal.sol:Halal",
						"label": "mappingCertificate",
						"offset": 0,
						"slot": "2",
						"type": "t_mapping(t_bytes32,t_struct(certificate)40_storage)"
					}
				],
				"types": {
					"t_bytes32": {
						"encoding": "inplace",
						"label": "bytes32",
						"numberOfBytes": "32"
					},
					"t_bytes_storage": {
						"encoding": "bytes",
						"label": "bytes",
						"numberOfBytes": "32"
					},
					"t_mapping(t_bytes32,t_struct(accountData)16_storage)": {
						"encoding": "mapping",
						"key": "t_bytes32",
						"label": "mapping(bytes32 => struct Halal.accountData)",
						"numberOfBytes": "32",
						"value": "t_struct(accountData)16_storage"
					},
					"t_mapping(t_bytes32,t_struct(certificate)40_storage)": {
						"encoding": "mapping",
						"key": "t_bytes32",
						"label": "mapping(bytes32 => struct Halal.certificate)",
						"numberOfBytes": "32",
						"value": "t_struct(certificate)40_storage"
					},
					"t_mapping(t_bytes32,t_struct(transaction)26_storage)": {
						"encoding": "mapping",
						"key": "t_bytes32",
						"label": "mapping(bytes32 => struct Halal.transaction)",
						"numberOfBytes": "32",
						"value": "t_struct(transaction)26_storage"
					},
					"t_string_storage": {
						"encoding": "bytes",
						"label": "string",
						"numberOfBytes": "32"
					},
					"t_struct(accountData)16_storage": {
						"encoding": "inplace",
						"label": "struct Halal.accountData",
						"members": [
							{
								"astId": 9,
								"contract": "contracts/Halal.sol:Halal",
								"label": "account_id",
								"offset": 0,
								"slot": "0",
								"type": "t_string_storage"
							},
							{
								"astId": 11,
								"contract": "contracts/Halal.sol:Halal",
								"label": "name",
								"offset": 0,
								"slot": "1",
								"type": "t_string_storage"
							},
							{
								"astId": 13,
								"contract": "contracts/Halal.sol:Halal",
								"label": "role",
								"offset": 0,
								"slot": "2",
								"type": "t_string_storage"
							},
							{
								"astId": 15,
								"contract": "contracts/Halal.sol:Halal",
								"label": "created_at",
								"offset": 0,
								"slot": "3",
								"type": "t_uint256"
							}
						],
						"numberOfBytes": "128"
					},
					"t_struct(certificate)40_storage": {
						"encoding": "inplace",
						"label": "struct Halal.certificate",
						"members": [
							{
								"astId": 33,
								"contract": "contracts/Halal.sol:Halal",
								"label": "umkm_id",
								"offset": 0,
								"slot": "0",
								"type": "t_string_storage"
							},
							{
								"astId": 35,
								"contract": "contracts/Halal.sol:Halal",
								"label": "certificate_id",
								"offset": 0,
								"slot": "1",
								"type": "t_string_storage"
							},
							{
								"astId": 37,
								"contract": "contracts/Halal.sol:Halal",
								"label": "created_at",
								"offset": 0,
								"slot": "2",
								"type": "t_uint256"
							},
							{
								"astId": 39,
								"contract": "contracts/Halal.sol:Halal",
								"label": "expired_at",
								"offset": 0,
								"slot": "3",
								"type": "t_uint256"
							}
						],
						"numberOfBytes": "128"
					},
					"t_struct(transaction)26_storage": {
						"encoding": "inplace",
						"label": "struct Halal.transaction",
						"members": [
							{
								"astId": 23,
								"contract": "contracts/Halal.sol:Halal",
								"label": "user_id",
								"offset": 0,
								"slot": "0",
								"type": "t_string_storage"
							},
							{
								"astId": 25,
								"contract": "contracts/Halal.sol:Halal",
								"label": "data",
								"offset": 0,
								"slot": "1",
								"type": "t_bytes_storage"
							}
						],
						"numberOfBytes": "64"
					},
					"t_uint256": {
						"encoding": "inplace",
						"label": "uint256",
						"numberOfBytes": "32"
					}
				}
			},
			"userdoc": {
				"kind": "user",
				"methods": {},
				"version": 1
			}
		}
	}
}