{
	"contracts/Halal.sol": {
		"Halal": {
			"abi": [
				{
					"anonymous": false,
					"inputs": [
						{
							"indexed": false,
							"internalType": "string",
							"name": "status",
							"type": "string"
						},
						{
							"indexed": false,
							"internalType": "bytes32",
							"name": "message",
							"type": "bytes32"
						}
					],
					"name": "success",
					"type": "event"
				},
				{
					"inputs": [
						{
							"internalType": "string",
							"name": "account_id",
							"type": "string"
						},
						{
							"internalType": "string",
							"name": "name",
							"type": "string"
						},
						{
							"internalType": "string",
							"name": "role",
							"type": "string"
						}
					],
					"name": "add_account",
					"outputs": [
						{
							"internalType": "bytes32",
							"name": "",
							"type": "bytes32"
						}
					],
					"stateMutability": "nonpayable",
					"type": "function"
				},
				{
					"inputs": [
						{
							"internalType": "string",
							"name": "transaction_id",
							"type": "string"
						},
						{
							"internalType": "string",
							"name": "umkm_id",
							"type": "string"
						},
						{
							"internalType": "bytes",
							"name": "data",
							"type": "bytes"
						}
					],
					"name": "add_transaction",
					"outputs": [
						{
							"internalType": "bytes32",
							"name": "",
							"type": "bytes32"
						}
					],
					"stateMutability": "nonpayable",
					"type": "function"
				},
				{
					"inputs": [
						{
							"internalType": "string",
							"name": "account_id",
							"type": "string"
						}
					],
					"name": "get_account",
					"outputs": [
						{
							"components": [
								{
									"internalType": "string",
									"name": "account_id",
									"type": "string"
								},
								{
									"internalType": "string",
									"name": "name",
									"type": "string"
								},
								{
									"internalType": "string",
									"name": "role",
									"type": "string"
								},
								{
									"internalType": "uint256",
									"name": "created_at",
									"type": "uint256"
								}
							],
							"internalType": "struct Halal.accountData",
							"name": "",
							"type": "tuple"
						}
					],
					"stateMutability": "view",
					"type": "function"
				}
			],
			"devdoc": {
				"kind": "dev",
				"methods": {},
				"version": 1
			},
			"evm": {
				"assembly": "    /* \"contracts/Halal.sol\":62:2135  contract Halal{... */\n  mstore(0x40, 0x80)\n  callvalue\n  dup1\n  iszero\n  tag_1\n  jumpi\n  0x00\n  dup1\n  revert\ntag_1:\n  pop\n  dataSize(sub_0)\n  dup1\n  dataOffset(sub_0)\n  0x00\n  codecopy\n  0x00\n  return\nstop\n\nsub_0: assembly {\n        /* \"contracts/Halal.sol\":62:2135  contract Halal{... */\n      mstore(0x40, 0x80)\n      callvalue\n      dup1\n      iszero\n      tag_1\n      jumpi\n      0x00\n      dup1\n      revert\n    tag_1:\n      pop\n      jumpi(tag_2, lt(calldatasize, 0x04))\n      shr(0xe0, calldataload(0x00))\n      dup1\n      0x174ba7ff\n      eq\n      tag_3\n      jumpi\n      dup1\n      0x5b62132d\n      eq\n      tag_4\n      jumpi\n      dup1\n      0xb24c908a\n      eq\n      tag_5\n      jumpi\n    tag_2:\n      0x00\n      dup1\n      revert\n        /* \"contracts/Halal.sol\":1607:1797  function get_account(string memory account_id) public view returns(accountData memory){... */\n    tag_3:\n      tag_6\n      0x04\n      dup1\n      calldatasize\n      sub\n      dup2\n      add\n      swap1\n      tag_7\n      swap2\n      swap1\n      tag_8\n      jump\t// in\n    tag_7:\n      tag_9\n      jump\t// in\n    tag_6:\n      mload(0x40)\n      tag_10\n      swap2\n      swap1\n      tag_11\n      jump\t// in\n    tag_10:\n      mload(0x40)\n      dup1\n      swap2\n      sub\n      swap1\n      return\n        /* \"contracts/Halal.sol\":1803:2132  function add_transaction(... */\n    tag_4:\n      tag_12\n      0x04\n      dup1\n      calldatasize\n      sub\n      dup2\n      add\n      swap1\n      tag_13\n      swap2\n      swap1\n      tag_14\n      jump\t// in\n    tag_13:\n      tag_15\n      jump\t// in\n    tag_12:\n      mload(0x40)\n      tag_16\n      swap2\n      swap1\n      tag_17\n      jump\t// in\n    tag_16:\n      mload(0x40)\n      dup1\n      swap2\n      sub\n      swap1\n      return\n        /* \"contracts/Halal.sol\":1073:1601  function add_account(... */\n    tag_5:\n      tag_18\n      0x04\n      dup1\n      calldatasize\n      sub\n      dup2\n      add\n      swap1\n      tag_19\n      swap2\n      swap1\n      tag_20\n      jump\t// in\n    tag_19:\n      tag_21\n      jump\t// in\n    tag_18:\n      mload(0x40)\n      tag_22\n      swap2\n      swap1\n      tag_17\n      jump\t// in\n    tag_22:\n      mload(0x40)\n      dup1\n      swap2\n      sub\n      swap1\n      return\n        /* \"contracts/Halal.sol\":1607:1797  function get_account(string memory account_id) public view returns(accountData memory){... */\n    tag_9:\n        /* \"contracts/Halal.sol\":1674:1692  accountData memory */\n      tag_23\n      tag_24\n      jump\t// in\n    tag_23:\n        /* \"contracts/Halal.sol\":1703:1713  bytes32 id */\n      0x00\n        /* \"contracts/Halal.sol\":1743:1753  account_id */\n      dup3\n        /* \"contracts/Halal.sol\":1726:1754  abi.encodePacked(account_id) */\n      add(0x20, mload(0x40))\n      tag_26\n      swap2\n      swap1\n      tag_27\n      jump\t// in\n    tag_26:\n      mload(0x40)\n      0x20\n      dup2\n      dup4\n      sub\n      sub\n      dup2\n      mstore\n      swap1\n      0x40\n      mstore\n        /* \"contracts/Halal.sol\":1716:1755  keccak256(abi.encodePacked(account_id)) */\n      dup1\n      mload\n      swap1\n      0x20\n      add\n      keccak256\n        /* \"contracts/Halal.sol\":1703:1755  bytes32 id = keccak256(abi.encodePacked(account_id)) */\n      swap1\n      pop\n        /* \"contracts/Halal.sol\":1772:1786  mappingAccount */\n      0x00\n        /* \"contracts/Halal.sol\":1772:1790  mappingAccount[id] */\n      dup1\n        /* \"contracts/Halal.sol\":1787:1789  id */\n      dup3\n        /* \"contracts/Halal.sol\":1772:1790  mappingAccount[id] */\n      dup2\n      mstore\n      0x20\n      add\n      swap1\n      dup2\n      mstore\n      0x20\n      add\n      0x00\n      keccak256\n        /* \"contracts/Halal.sol\":1765:1790  return mappingAccount[id] */\n      mload(0x40)\n      dup1\n      0x80\n      add\n      0x40\n      mstore\n      swap1\n      dup2\n      0x00\n      dup3\n      add\n      dup1\n      sload\n      tag_28\n      swap1\n      tag_29\n      jump\t// in\n    tag_28:\n      dup1\n      0x1f\n      add\n      0x20\n      dup1\n      swap2\n      div\n      mul\n      0x20\n      add\n      mload(0x40)\n      swap1\n      dup2\n      add\n      0x40\n      mstore\n      dup1\n      swap3\n      swap2\n      swap1\n      dup2\n      dup2\n      mstore\n      0x20\n      add\n      dup3\n      dup1\n      sload\n      tag_30\n      swap1\n      tag_29\n      jump\t// in\n    tag_30:\n      dup1\n      iszero\n      tag_31\n      jumpi\n      dup1\n      0x1f\n      lt\n      tag_32\n      jumpi\n      0x0100\n      dup1\n      dup4\n      sload\n      div\n      mul\n      dup4\n      mstore\n      swap2\n      0x20\n      add\n      swap2\n      jump(tag_31)\n    tag_32:\n      dup3\n      add\n      swap2\n      swap1\n      0x00\n      mstore\n      keccak256(0x00, 0x20)\n      swap1\n    tag_33:\n      dup2\n      sload\n      dup2\n      mstore\n      swap1\n      0x01\n      add\n      swap1\n      0x20\n      add\n      dup1\n      dup4\n      gt\n      tag_33\n      jumpi\n      dup3\n      swap1\n      sub\n      0x1f\n      and\n      dup3\n      add\n      swap2\n    tag_31:\n      pop\n      pop\n      pop\n      pop\n      pop\n      dup2\n      mstore\n      0x20\n      add\n      0x01\n      dup3\n      add\n      dup1\n      sload\n      tag_34\n      swap1\n      tag_29\n      jump\t// in\n    tag_34:\n      dup1\n      0x1f\n      add\n      0x20\n      dup1\n      swap2\n      div\n      mul\n      0x20\n      add\n      mload(0x40)\n      swap1\n      dup2\n      add\n      0x40\n      mstore\n      dup1\n      swap3\n      swap2\n      swap1\n      dup2\n      dup2\n      mstore\n      0x20\n      add\n      dup3\n      dup1\n      sload\n      tag_35\n      swap1\n      tag_29\n      jump\t// in\n    tag_35:\n      dup1\n      iszero\n      tag_36\n      jumpi\n      dup1\n      0x1f\n      lt\n      tag_37\n      jumpi\n      0x0100\n      dup1\n      dup4\n      sload\n      div\n      mul\n      dup4\n      mstore\n      swap2\n      0x20\n      add\n      swap2\n      jump(tag_36)\n    tag_37:\n      dup3\n      add\n      swap2\n      swap1\n      0x00\n      mstore\n      keccak256(0x00, 0x20)\n      swap1\n    tag_38:\n      dup2\n      sload\n      dup2\n      mstore\n      swap1\n      0x01\n      add\n      swap1\n      0x20\n      add\n      dup1\n      dup4\n      gt\n      tag_38\n      jumpi\n      dup3\n      swap1\n      sub\n      0x1f\n      and\n      dup3\n      add\n      swap2\n    tag_36:\n      pop\n      pop\n      pop\n      pop\n      pop\n      dup2\n      mstore\n      0x20\n      add\n      0x02\n      dup3\n      add\n      dup1\n      sload\n      tag_39\n      swap1\n      tag_29\n      jump\t// in\n    tag_39:\n      dup1\n      0x1f\n      add\n      0x20\n      dup1\n      swap2\n      div\n      mul\n      0x20\n      add\n      mload(0x40)\n      swap1\n      dup2\n      add\n      0x40\n      mstore\n      dup1\n      swap3\n      swap2\n      swap1\n      dup2\n      dup2\n      mstore\n      0x20\n      add\n      dup3\n      dup1\n      sload\n      tag_40\n      swap1\n      tag_29\n      jump\t// in\n    tag_40:\n      dup1\n      iszero\n      tag_41\n      jumpi\n      dup1\n      0x1f\n      lt\n      tag_42\n      jumpi\n      0x0100\n      dup1\n      dup4\n      sload\n      div\n      mul\n      dup4\n      mstore\n      swap2\n      0x20\n      add\n      swap2\n      jump(tag_41)\n    tag_42:\n      dup3\n      add\n      swap2\n      swap1\n      0x00\n      mstore\n      keccak256(0x00, 0x20)\n      swap1\n    tag_43:\n      dup2\n      sload\n      dup2\n      mstore\n      swap1\n      0x01\n      add\n      swap1\n      0x20\n      add\n      dup1\n      dup4\n      gt\n      tag_43\n      jumpi\n      dup3\n      swap1\n      sub\n      0x1f\n      and\n      dup3\n      add\n      swap2\n    tag_41:\n      pop\n      pop\n      pop\n      pop\n      pop\n      dup2\n      mstore\n      0x20\n      add\n      0x03\n      dup3\n      add\n      sload\n      dup2\n      mstore\n      pop\n      pop\n      swap2\n      pop\n      pop\n        /* \"contracts/Halal.sol\":1607:1797  function get_account(string memory account_id) public view returns(accountData memory){... */\n      swap2\n      swap1\n      pop\n      jump\t// out\n        /* \"contracts/Halal.sol\":1803:2132  function add_transaction(... */\n    tag_15:\n        /* \"contracts/Halal.sol\":1947:1954  bytes32 */\n      0x00\n        /* \"contracts/Halal.sol\":1966:1976  bytes32 id */\n      dup1\n        /* \"contracts/Halal.sol\":2006:2020  transaction_id */\n      dup5\n        /* \"contracts/Halal.sol\":1989:2021  abi.encodePacked(transaction_id) */\n      add(0x20, mload(0x40))\n      tag_45\n      swap2\n      swap1\n      tag_27\n      jump\t// in\n    tag_45:\n      mload(0x40)\n      0x20\n      dup2\n      dup4\n      sub\n      sub\n      dup2\n      mstore\n      swap1\n      0x40\n      mstore\n        /* \"contracts/Halal.sol\":1979:2022  keccak256(abi.encodePacked(transaction_id)) */\n      dup1\n      mload\n      swap1\n      0x20\n      add\n      keccak256\n        /* \"contracts/Halal.sol\":1966:2022  bytes32 id = keccak256(abi.encodePacked(transaction_id)) */\n      swap1\n      pop\n        /* \"contracts/Halal.sol\":2032:2057  transaction storage trans */\n      0x00\n        /* \"contracts/Halal.sol\":2060:2078  mappingTransaction */\n      0x01\n        /* \"contracts/Halal.sol\":2060:2082  mappingTransaction[id] */\n      0x00\n        /* \"contracts/Halal.sol\":2079:2081  id */\n      dup4\n        /* \"contracts/Halal.sol\":2060:2082  mappingTransaction[id] */\n      dup2\n      mstore\n      0x20\n      add\n      swap1\n      dup2\n      mstore\n      0x20\n      add\n      0x00\n      keccak256\n        /* \"contracts/Halal.sol\":2032:2082  transaction storage trans = mappingTransaction[id] */\n      swap1\n      pop\n        /* \"contracts/Halal.sol\":2108:2115  umkm_id */\n      dup5\n        /* \"contracts/Halal.sol\":2092:2097  trans */\n      dup2\n        /* \"contracts/Halal.sol\":2092:2105  trans.umkm_id */\n      0x00\n      add\n        /* \"contracts/Halal.sol\":2092:2115  trans.umkm_id = umkm_id */\n      swap1\n      dup1\n      mload\n      swap1\n      0x20\n      add\n      swap1\n      tag_46\n      swap3\n      swap2\n      swap1\n      tag_47\n      jump\t// in\n    tag_46:\n      pop\n        /* \"contracts/Halal.sol\":1956:2132  {... */\n      pop\n      pop\n        /* \"contracts/Halal.sol\":1803:2132  function add_transaction(... */\n      swap4\n      swap3\n      pop\n      pop\n      pop\n      jump\t// out\n        /* \"contracts/Halal.sol\":1073:1601  function add_account(... */\n    tag_21:\n        /* \"contracts/Halal.sol\":1207:1214  bytes32 */\n      0x00\n        /* \"contracts/Halal.sol\":1225:1235  bytes32 id */\n      dup1\n        /* \"contracts/Halal.sol\":1265:1275  account_id */\n      dup5\n        /* \"contracts/Halal.sol\":1248:1276  abi.encodePacked(account_id) */\n      add(0x20, mload(0x40))\n      tag_49\n      swap2\n      swap1\n      tag_27\n      jump\t// in\n    tag_49:\n      mload(0x40)\n      0x20\n      dup2\n      dup4\n      sub\n      sub\n      dup2\n      mstore\n      swap1\n      0x40\n      mstore\n        /* \"contracts/Halal.sol\":1238:1277  keccak256(abi.encodePacked(account_id)) */\n      dup1\n      mload\n      swap1\n      0x20\n      add\n      keccak256\n        /* \"contracts/Halal.sol\":1225:1277  bytes32 id = keccak256(abi.encodePacked(account_id)) */\n      swap1\n      pop\n        /* \"contracts/Halal.sol\":1295:1326  account_checker(id, account_id) */\n      tag_50\n        /* \"contracts/Halal.sol\":1311:1313  id */\n      dup2\n        /* \"contracts/Halal.sol\":1315:1325  account_id */\n      dup7\n        /* \"contracts/Halal.sol\":1295:1310  account_checker */\n      tag_51\n        /* \"contracts/Halal.sol\":1295:1326  account_checker(id, account_id) */\n      jump\t// in\n    tag_50:\n        /* \"contracts/Halal.sol\":1287:1355  require(account_checker(id, account_id), \"Account already existing\") */\n      tag_52\n      jumpi\n      mload(0x40)\n      0x08c379a000000000000000000000000000000000000000000000000000000000\n      dup2\n      mstore\n      0x04\n      add\n      tag_53\n      swap1\n      tag_54\n      jump\t// in\n    tag_53:\n      mload(0x40)\n      dup1\n      swap2\n      sub\n      swap1\n      revert\n    tag_52:\n        /* \"contracts/Halal.sol\":1365:1388  accountData storage acc */\n      0x00\n        /* \"contracts/Halal.sol\":1391:1405  mappingAccount */\n      dup1\n        /* \"contracts/Halal.sol\":1391:1409  mappingAccount[id] */\n      0x00\n        /* \"contracts/Halal.sol\":1406:1408  id */\n      dup4\n        /* \"contracts/Halal.sol\":1391:1409  mappingAccount[id] */\n      dup2\n      mstore\n      0x20\n      add\n      swap1\n      dup2\n      mstore\n      0x20\n      add\n      0x00\n      keccak256\n        /* \"contracts/Halal.sol\":1365:1409  accountData storage acc = mappingAccount[id] */\n      swap1\n      pop\n        /* \"contracts/Halal.sol\":1436:1446  account_id */\n      dup6\n        /* \"contracts/Halal.sol\":1419:1422  acc */\n      dup2\n        /* \"contracts/Halal.sol\":1419:1433  acc.account_id */\n      0x00\n      add\n        /* \"contracts/Halal.sol\":1419:1446  acc.account_id = account_id */\n      swap1\n      dup1\n      mload\n      swap1\n      0x20\n      add\n      swap1\n      tag_55\n      swap3\n      swap2\n      swap1\n      tag_47\n      jump\t// in\n    tag_55:\n      pop\n        /* \"contracts/Halal.sol\":1467:1471  name */\n      dup5\n        /* \"contracts/Halal.sol\":1456:1459  acc */\n      dup2\n        /* \"contracts/Halal.sol\":1456:1464  acc.name */\n      0x01\n      add\n        /* \"contracts/Halal.sol\":1456:1471  acc.name = name */\n      swap1\n      dup1\n      mload\n      swap1\n      0x20\n      add\n      swap1\n      tag_56\n      swap3\n      swap2\n      swap1\n      tag_47\n      jump\t// in\n    tag_56:\n      pop\n        /* \"contracts/Halal.sol\":1492:1496  role */\n      dup4\n        /* \"contracts/Halal.sol\":1481:1484  acc */\n      dup2\n        /* \"contracts/Halal.sol\":1481:1489  acc.role */\n      0x02\n      add\n        /* \"contracts/Halal.sol\":1481:1496  acc.role = role */\n      swap1\n      dup1\n      mload\n      swap1\n      0x20\n      add\n      swap1\n      tag_57\n      swap3\n      swap2\n      swap1\n      tag_47\n      jump\t// in\n    tag_57:\n      pop\n        /* \"contracts/Halal.sol\":1523:1538  block.timestamp */\n      timestamp\n        /* \"contracts/Halal.sol\":1506:1509  acc */\n      dup2\n        /* \"contracts/Halal.sol\":1506:1520  acc.created_at */\n      0x03\n      add\n        /* \"contracts/Halal.sol\":1506:1538  acc.created_at = block.timestamp */\n      dup2\n      swap1\n      sstore\n      pop\n        /* \"contracts/Halal.sol\":1553:1575  success(\"success\", id) */\n      0xc8922d91fbabbe8df5d667708c678575856a856a2a465ebd9626a40ab6a16f5f\n        /* \"contracts/Halal.sol\":1572:1574  id */\n      dup3\n        /* \"contracts/Halal.sol\":1553:1575  success(\"success\", id) */\n      mload(0x40)\n      tag_58\n      swap2\n      swap1\n      tag_59\n      jump\t// in\n    tag_58:\n      mload(0x40)\n      dup1\n      swap2\n      sub\n      swap1\n      log1\n        /* \"contracts/Halal.sol\":1592:1594  id */\n      dup2\n        /* \"contracts/Halal.sol\":1585:1594  return id */\n      swap3\n      pop\n      pop\n      pop\n        /* \"contracts/Halal.sol\":1073:1601  function add_account(... */\n      swap4\n      swap3\n      pop\n      pop\n      pop\n      jump\t// out\n        /* \"contracts/Halal.sol\":859:1067  function account_checker(bytes32 id, string memory umkm_id) private view returns(bool){... */\n    tag_51:\n        /* \"contracts/Halal.sol\":940:944  bool */\n      0x00\n        /* \"contracts/Halal.sol\":1051:1058  umkm_id */\n      dup2\n        /* \"contracts/Halal.sol\":1034:1059  abi.encodePacked(umkm_id) */\n      add(0x20, mload(0x40))\n      tag_61\n      swap2\n      swap1\n      tag_27\n      jump\t// in\n    tag_61:\n      mload(0x40)\n      0x20\n      dup2\n      dup4\n      sub\n      sub\n      dup2\n      mstore\n      swap1\n      0x40\n      mstore\n        /* \"contracts/Halal.sol\":1024:1060  keccak256(abi.encodePacked(umkm_id)) */\n      dup1\n      mload\n      swap1\n      0x20\n      add\n      keccak256\n        /* \"contracts/Halal.sol\":989:1003  mappingAccount */\n      0x00\n        /* \"contracts/Halal.sol\":989:1007  mappingAccount[id] */\n      dup1\n        /* \"contracts/Halal.sol\":1004:1006  id */\n      dup6\n        /* \"contracts/Halal.sol\":989:1007  mappingAccount[id] */\n      dup2\n      mstore\n      0x20\n      add\n      swap1\n      dup2\n      mstore\n      0x20\n      add\n      0x00\n      keccak256\n        /* \"contracts/Halal.sol\":989:1018  mappingAccount[id].account_id */\n      0x00\n      add\n        /* \"contracts/Halal.sol\":972:1019  abi.encodePacked(mappingAccount[id].account_id) */\n      add(0x20, mload(0x40))\n      tag_62\n      swap2\n      swap1\n      tag_63\n      jump\t// in\n    tag_62:\n      mload(0x40)\n      0x20\n      dup2\n      dup4\n      sub\n      sub\n      dup2\n      mstore\n      swap1\n      0x40\n      mstore\n        /* \"contracts/Halal.sol\":962:1020  keccak256(abi.encodePacked(mappingAccount[id].account_id)) */\n      dup1\n      mload\n      swap1\n      0x20\n      add\n      keccak256\n        /* \"contracts/Halal.sol\":962:1060  keccak256(abi.encodePacked(mappingAccount[id].account_id)) != keccak256(abi.encodePacked(umkm_id)) */\n      eq\n      iszero\n        /* \"contracts/Halal.sol\":955:1060  return keccak256(abi.encodePacked(mappingAccount[id].account_id)) != keccak256(abi.encodePacked(umkm_id)) */\n      swap1\n      pop\n        /* \"contracts/Halal.sol\":859:1067  function account_checker(bytes32 id, string memory umkm_id) private view returns(bool){... */\n      swap3\n      swap2\n      pop\n      pop\n      jump\t// out\n    tag_24:\n      mload(0x40)\n      dup1\n      0x80\n      add\n      0x40\n      mstore\n      dup1\n      0x60\n      dup2\n      mstore\n      0x20\n      add\n      0x60\n      dup2\n      mstore\n      0x20\n      add\n      0x60\n      dup2\n      mstore\n      0x20\n      add\n      0x00\n      dup2\n      mstore\n      pop\n      swap1\n      jump\t// out\n    tag_47:\n      dup3\n      dup1\n      sload\n      tag_64\n      swap1\n      tag_29\n      jump\t// in\n    tag_64:\n      swap1\n      0x00\n      mstore\n      keccak256(0x00, 0x20)\n      swap1\n      0x1f\n      add\n      0x20\n      swap1\n      div\n      dup2\n      add\n      swap3\n      dup3\n      tag_66\n      jumpi\n      0x00\n      dup6\n      sstore\n      jump(tag_65)\n    tag_66:\n      dup3\n      0x1f\n      lt\n      tag_67\n      jumpi\n      dup1\n      mload\n      not(0xff)\n      and\n      dup4\n      dup1\n      add\n      or\n      dup6\n      sstore\n      jump(tag_65)\n    tag_67:\n      dup3\n      dup1\n      add\n      0x01\n      add\n      dup6\n      sstore\n      dup3\n      iszero\n      tag_65\n      jumpi\n      swap2\n      dup3\n      add\n    tag_68:\n      dup3\n      dup2\n      gt\n      iszero\n      tag_69\n      jumpi\n      dup3\n      mload\n      dup3\n      sstore\n      swap2\n      0x20\n      add\n      swap2\n      swap1\n      0x01\n      add\n      swap1\n      jump(tag_68)\n    tag_69:\n    tag_65:\n      pop\n      swap1\n      pop\n      tag_70\n      swap2\n      swap1\n      tag_71\n      jump\t// in\n    tag_70:\n      pop\n      swap1\n      jump\t// out\n    tag_71:\n    tag_72:\n      dup1\n      dup3\n      gt\n      iszero\n      tag_73\n      jumpi\n      0x00\n      dup2\n      0x00\n      swap1\n      sstore\n      pop\n      0x01\n      add\n      jump(tag_72)\n    tag_73:\n      pop\n      swap1\n      jump\t// out\n        /* \"#utility.yul\":7:417   */\n    tag_75:\n        /* \"#utility.yul\":84:89   */\n      0x00\n        /* \"#utility.yul\":109:174   */\n      tag_77\n        /* \"#utility.yul\":125:173   */\n      tag_78\n        /* \"#utility.yul\":166:172   */\n      dup5\n        /* \"#utility.yul\":125:173   */\n      tag_79\n      jump\t// in\n    tag_78:\n        /* \"#utility.yul\":109:174   */\n      tag_80\n      jump\t// in\n    tag_77:\n        /* \"#utility.yul\":100:174   */\n      swap1\n      pop\n        /* \"#utility.yul\":197:203   */\n      dup3\n        /* \"#utility.yul\":190:195   */\n      dup2\n        /* \"#utility.yul\":183:204   */\n      mstore\n        /* \"#utility.yul\":235:239   */\n      0x20\n        /* \"#utility.yul\":228:233   */\n      dup2\n        /* \"#utility.yul\":224:240   */\n      add\n        /* \"#utility.yul\":273:276   */\n      dup5\n        /* \"#utility.yul\":264:270   */\n      dup5\n        /* \"#utility.yul\":259:262   */\n      dup5\n        /* \"#utility.yul\":255:271   */\n      add\n        /* \"#utility.yul\":252:277   */\n      gt\n        /* \"#utility.yul\":249:361   */\n      iszero\n      tag_81\n      jumpi\n        /* \"#utility.yul\":280:359   */\n      tag_82\n      tag_83\n      jump\t// in\n    tag_82:\n        /* \"#utility.yul\":249:361   */\n    tag_81:\n        /* \"#utility.yul\":370:411   */\n      tag_84\n        /* \"#utility.yul\":404:410   */\n      dup5\n        /* \"#utility.yul\":399:402   */\n      dup3\n        /* \"#utility.yul\":394:397   */\n      dup6\n        /* \"#utility.yul\":370:411   */\n      tag_85\n      jump\t// in\n    tag_84:\n        /* \"#utility.yul\":90:417   */\n      pop\n        /* \"#utility.yul\":7:417   */\n      swap4\n      swap3\n      pop\n      pop\n      pop\n      jump\t// out\n        /* \"#utility.yul\":423:835   */\n    tag_86:\n        /* \"#utility.yul\":501:506   */\n      0x00\n        /* \"#utility.yul\":526:592   */\n      tag_88\n        /* \"#utility.yul\":542:591   */\n      tag_89\n        /* \"#utility.yul\":584:590   */\n      dup5\n        /* \"#utility.yul\":542:591   */\n      tag_90\n      jump\t// in\n    tag_89:\n        /* \"#utility.yul\":526:592   */\n      tag_80\n      jump\t// in\n    tag_88:\n        /* \"#utility.yul\":517:592   */\n      swap1\n      pop\n        /* \"#utility.yul\":615:621   */\n      dup3\n        /* \"#utility.yul\":608:613   */\n      dup2\n        /* \"#utility.yul\":601:622   */\n      mstore\n        /* \"#utility.yul\":653:657   */\n      0x20\n        /* \"#utility.yul\":646:651   */\n      dup2\n        /* \"#utility.yul\":642:658   */\n      add\n        /* \"#utility.yul\":691:694   */\n      dup5\n        /* \"#utility.yul\":682:688   */\n      dup5\n        /* \"#utility.yul\":677:680   */\n      dup5\n        /* \"#utility.yul\":673:689   */\n      add\n        /* \"#utility.yul\":670:695   */\n      gt\n        /* \"#utility.yul\":667:779   */\n      iszero\n      tag_91\n      jumpi\n        /* \"#utility.yul\":698:777   */\n      tag_92\n      tag_83\n      jump\t// in\n    tag_92:\n        /* \"#utility.yul\":667:779   */\n    tag_91:\n        /* \"#utility.yul\":788:829   */\n      tag_93\n        /* \"#utility.yul\":822:828   */\n      dup5\n        /* \"#utility.yul\":817:820   */\n      dup3\n        /* \"#utility.yul\":812:815   */\n      dup6\n        /* \"#utility.yul\":788:829   */\n      tag_85\n      jump\t// in\n    tag_93:\n        /* \"#utility.yul\":507:835   */\n      pop\n        /* \"#utility.yul\":423:835   */\n      swap4\n      swap3\n      pop\n      pop\n      pop\n      jump\t// out\n        /* \"#utility.yul\":854:1192   */\n    tag_94:\n        /* \"#utility.yul\":909:914   */\n      0x00\n        /* \"#utility.yul\":958:961   */\n      dup3\n        /* \"#utility.yul\":951:955   */\n      0x1f\n        /* \"#utility.yul\":943:949   */\n      dup4\n        /* \"#utility.yul\":939:956   */\n      add\n        /* \"#utility.yul\":935:962   */\n      slt\n        /* \"#utility.yul\":925:1047   */\n      tag_96\n      jumpi\n        /* \"#utility.yul\":966:1045   */\n      tag_97\n      tag_98\n      jump\t// in\n    tag_97:\n        /* \"#utility.yul\":925:1047   */\n    tag_96:\n        /* \"#utility.yul\":1083:1089   */\n      dup2\n        /* \"#utility.yul\":1070:1090   */\n      calldataload\n        /* \"#utility.yul\":1108:1186   */\n      tag_99\n        /* \"#utility.yul\":1182:1185   */\n      dup5\n        /* \"#utility.yul\":1174:1180   */\n      dup3\n        /* \"#utility.yul\":1167:1171   */\n      0x20\n        /* \"#utility.yul\":1159:1165   */\n      dup7\n        /* \"#utility.yul\":1155:1172   */\n      add\n        /* \"#utility.yul\":1108:1186   */\n      tag_75\n      jump\t// in\n    tag_99:\n        /* \"#utility.yul\":1099:1186   */\n      swap2\n      pop\n        /* \"#utility.yul\":915:1192   */\n      pop\n        /* \"#utility.yul\":854:1192   */\n      swap3\n      swap2\n      pop\n      pop\n      jump\t// out\n        /* \"#utility.yul\":1212:1552   */\n    tag_100:\n        /* \"#utility.yul\":1268:1273   */\n      0x00\n        /* \"#utility.yul\":1317:1320   */\n      dup3\n        /* \"#utility.yul\":1310:1314   */\n      0x1f\n        /* \"#utility.yul\":1302:1308   */\n      dup4\n        /* \"#utility.yul\":1298:1315   */\n      add\n        /* \"#utility.yul\":1294:1321   */\n      slt\n        /* \"#utility.yul\":1284:1406   */\n      tag_102\n      jumpi\n        /* \"#utility.yul\":1325:1404   */\n      tag_103\n      tag_98\n      jump\t// in\n    tag_103:\n        /* \"#utility.yul\":1284:1406   */\n    tag_102:\n        /* \"#utility.yul\":1442:1448   */\n      dup2\n        /* \"#utility.yul\":1429:1449   */\n      calldataload\n        /* \"#utility.yul\":1467:1546   */\n      tag_104\n        /* \"#utility.yul\":1542:1545   */\n      dup5\n        /* \"#utility.yul\":1534:1540   */\n      dup3\n        /* \"#utility.yul\":1527:1531   */\n      0x20\n        /* \"#utility.yul\":1519:1525   */\n      dup7\n        /* \"#utility.yul\":1515:1532   */\n      add\n        /* \"#utility.yul\":1467:1546   */\n      tag_86\n      jump\t// in\n    tag_104:\n        /* \"#utility.yul\":1458:1546   */\n      swap2\n      pop\n        /* \"#utility.yul\":1274:1552   */\n      pop\n        /* \"#utility.yul\":1212:1552   */\n      swap3\n      swap2\n      pop\n      pop\n      jump\t// out\n        /* \"#utility.yul\":1558:2067   */\n    tag_8:\n        /* \"#utility.yul\":1627:1633   */\n      0x00\n        /* \"#utility.yul\":1676:1678   */\n      0x20\n        /* \"#utility.yul\":1664:1673   */\n      dup3\n        /* \"#utility.yul\":1655:1662   */\n      dup5\n        /* \"#utility.yul\":1651:1674   */\n      sub\n        /* \"#utility.yul\":1647:1679   */\n      slt\n        /* \"#utility.yul\":1644:1763   */\n      iszero\n      tag_106\n      jumpi\n        /* \"#utility.yul\":1682:1761   */\n      tag_107\n      tag_108\n      jump\t// in\n    tag_107:\n        /* \"#utility.yul\":1644:1763   */\n    tag_106:\n        /* \"#utility.yul\":1830:1831   */\n      0x00\n        /* \"#utility.yul\":1819:1828   */\n      dup3\n        /* \"#utility.yul\":1815:1832   */\n      add\n        /* \"#utility.yul\":1802:1833   */\n      calldataload\n        /* \"#utility.yul\":1860:1878   */\n      0xffffffffffffffff\n        /* \"#utility.yul\":1852:1858   */\n      dup2\n        /* \"#utility.yul\":1849:1879   */\n      gt\n        /* \"#utility.yul\":1846:1963   */\n      iszero\n      tag_109\n      jumpi\n        /* \"#utility.yul\":1882:1961   */\n      tag_110\n      tag_111\n      jump\t// in\n    tag_110:\n        /* \"#utility.yul\":1846:1963   */\n    tag_109:\n        /* \"#utility.yul\":1987:2050   */\n      tag_112\n        /* \"#utility.yul\":2042:2049   */\n      dup5\n        /* \"#utility.yul\":2033:2039   */\n      dup3\n        /* \"#utility.yul\":2022:2031   */\n      dup6\n        /* \"#utility.yul\":2018:2040   */\n      add\n        /* \"#utility.yul\":1987:2050   */\n      tag_100\n      jump\t// in\n    tag_112:\n        /* \"#utility.yul\":1977:2050   */\n      swap2\n      pop\n        /* \"#utility.yul\":1773:2060   */\n      pop\n        /* \"#utility.yul\":1558:2067   */\n      swap3\n      swap2\n      pop\n      pop\n      jump\t// out\n        /* \"#utility.yul\":2073:3230   */\n    tag_14:\n        /* \"#utility.yul\":2179:2185   */\n      0x00\n        /* \"#utility.yul\":2187:2193   */\n      dup1\n        /* \"#utility.yul\":2195:2201   */\n      0x00\n        /* \"#utility.yul\":2244:2246   */\n      0x60\n        /* \"#utility.yul\":2232:2241   */\n      dup5\n        /* \"#utility.yul\":2223:2230   */\n      dup7\n        /* \"#utility.yul\":2219:2242   */\n      sub\n        /* \"#utility.yul\":2215:2247   */\n      slt\n        /* \"#utility.yul\":2212:2331   */\n      iszero\n      tag_114\n      jumpi\n        /* \"#utility.yul\":2250:2329   */\n      tag_115\n      tag_108\n      jump\t// in\n    tag_115:\n        /* \"#utility.yul\":2212:2331   */\n    tag_114:\n        /* \"#utility.yul\":2398:2399   */\n      0x00\n        /* \"#utility.yul\":2387:2396   */\n      dup5\n        /* \"#utility.yul\":2383:2400   */\n      add\n        /* \"#utility.yul\":2370:2401   */\n      calldataload\n        /* \"#utility.yul\":2428:2446   */\n      0xffffffffffffffff\n        /* \"#utility.yul\":2420:2426   */\n      dup2\n        /* \"#utility.yul\":2417:2447   */\n      gt\n        /* \"#utility.yul\":2414:2531   */\n      iszero\n      tag_116\n      jumpi\n        /* \"#utility.yul\":2450:2529   */\n      tag_117\n      tag_111\n      jump\t// in\n    tag_117:\n        /* \"#utility.yul\":2414:2531   */\n    tag_116:\n        /* \"#utility.yul\":2555:2618   */\n      tag_118\n        /* \"#utility.yul\":2610:2617   */\n      dup7\n        /* \"#utility.yul\":2601:2607   */\n      dup3\n        /* \"#utility.yul\":2590:2599   */\n      dup8\n        /* \"#utility.yul\":2586:2608   */\n      add\n        /* \"#utility.yul\":2555:2618   */\n      tag_100\n      jump\t// in\n    tag_118:\n        /* \"#utility.yul\":2545:2618   */\n      swap4\n      pop\n        /* \"#utility.yul\":2341:2628   */\n      pop\n        /* \"#utility.yul\":2695:2697   */\n      0x20\n        /* \"#utility.yul\":2684:2693   */\n      dup5\n        /* \"#utility.yul\":2680:2698   */\n      add\n        /* \"#utility.yul\":2667:2699   */\n      calldataload\n        /* \"#utility.yul\":2726:2744   */\n      0xffffffffffffffff\n        /* \"#utility.yul\":2718:2724   */\n      dup2\n        /* \"#utility.yul\":2715:2745   */\n      gt\n        /* \"#utility.yul\":2712:2829   */\n      iszero\n      tag_119\n      jumpi\n        /* \"#utility.yul\":2748:2827   */\n      tag_120\n      tag_111\n      jump\t// in\n    tag_120:\n        /* \"#utility.yul\":2712:2829   */\n    tag_119:\n        /* \"#utility.yul\":2853:2916   */\n      tag_121\n        /* \"#utility.yul\":2908:2915   */\n      dup7\n        /* \"#utility.yul\":2899:2905   */\n      dup3\n        /* \"#utility.yul\":2888:2897   */\n      dup8\n        /* \"#utility.yul\":2884:2906   */\n      add\n        /* \"#utility.yul\":2853:2916   */\n      tag_100\n      jump\t// in\n    tag_121:\n        /* \"#utility.yul\":2843:2916   */\n      swap3\n      pop\n        /* \"#utility.yul\":2638:2926   */\n      pop\n        /* \"#utility.yul\":2993:2995   */\n      0x40\n        /* \"#utility.yul\":2982:2991   */\n      dup5\n        /* \"#utility.yul\":2978:2996   */\n      add\n        /* \"#utility.yul\":2965:2997   */\n      calldataload\n        /* \"#utility.yul\":3024:3042   */\n      0xffffffffffffffff\n        /* \"#utility.yul\":3016:3022   */\n      dup2\n        /* \"#utility.yul\":3013:3043   */\n      gt\n        /* \"#utility.yul\":3010:3127   */\n      iszero\n      tag_122\n      jumpi\n        /* \"#utility.yul\":3046:3125   */\n      tag_123\n      tag_111\n      jump\t// in\n    tag_123:\n        /* \"#utility.yul\":3010:3127   */\n    tag_122:\n        /* \"#utility.yul\":3151:3213   */\n      tag_124\n        /* \"#utility.yul\":3205:3212   */\n      dup7\n        /* \"#utility.yul\":3196:3202   */\n      dup3\n        /* \"#utility.yul\":3185:3194   */\n      dup8\n        /* \"#utility.yul\":3181:3203   */\n      add\n        /* \"#utility.yul\":3151:3213   */\n      tag_94\n      jump\t// in\n    tag_124:\n        /* \"#utility.yul\":3141:3213   */\n      swap2\n      pop\n        /* \"#utility.yul\":2936:3223   */\n      pop\n        /* \"#utility.yul\":2073:3230   */\n      swap3\n      pop\n      swap3\n      pop\n      swap3\n      jump\t// out\n        /* \"#utility.yul\":3236:4395   */\n    tag_20:\n        /* \"#utility.yul\":3343:3349   */\n      0x00\n        /* \"#utility.yul\":3351:3357   */\n      dup1\n        /* \"#utility.yul\":3359:3365   */\n      0x00\n        /* \"#utility.yul\":3408:3410   */\n      0x60\n        /* \"#utility.yul\":3396:3405   */\n      dup5\n        /* \"#utility.yul\":3387:3394   */\n      dup7\n        /* \"#utility.yul\":3383:3406   */\n      sub\n        /* \"#utility.yul\":3379:3411   */\n      slt\n        /* \"#utility.yul\":3376:3495   */\n      iszero\n      tag_126\n      jumpi\n        /* \"#utility.yul\":3414:3493   */\n      tag_127\n      tag_108\n      jump\t// in\n    tag_127:\n        /* \"#utility.yul\":3376:3495   */\n    tag_126:\n        /* \"#utility.yul\":3562:3563   */\n      0x00\n        /* \"#utility.yul\":3551:3560   */\n      dup5\n        /* \"#utility.yul\":3547:3564   */\n      add\n        /* \"#utility.yul\":3534:3565   */\n      calldataload\n        /* \"#utility.yul\":3592:3610   */\n      0xffffffffffffffff\n        /* \"#utility.yul\":3584:3590   */\n      dup2\n        /* \"#utility.yul\":3581:3611   */\n      gt\n        /* \"#utility.yul\":3578:3695   */\n      iszero\n      tag_128\n      jumpi\n        /* \"#utility.yul\":3614:3693   */\n      tag_129\n      tag_111\n      jump\t// in\n    tag_129:\n        /* \"#utility.yul\":3578:3695   */\n    tag_128:\n        /* \"#utility.yul\":3719:3782   */\n      tag_130\n        /* \"#utility.yul\":3774:3781   */\n      dup7\n        /* \"#utility.yul\":3765:3771   */\n      dup3\n        /* \"#utility.yul\":3754:3763   */\n      dup8\n        /* \"#utility.yul\":3750:3772   */\n      add\n        /* \"#utility.yul\":3719:3782   */\n      tag_100\n      jump\t// in\n    tag_130:\n        /* \"#utility.yul\":3709:3782   */\n      swap4\n      pop\n        /* \"#utility.yul\":3505:3792   */\n      pop\n        /* \"#utility.yul\":3859:3861   */\n      0x20\n        /* \"#utility.yul\":3848:3857   */\n      dup5\n        /* \"#utility.yul\":3844:3862   */\n      add\n        /* \"#utility.yul\":3831:3863   */\n      calldataload\n        /* \"#utility.yul\":3890:3908   */\n      0xffffffffffffffff\n        /* \"#utility.yul\":3882:3888   */\n      dup2\n        /* \"#utility.yul\":3879:3909   */\n      gt\n        /* \"#utility.yul\":3876:3993   */\n      iszero\n      tag_131\n      jumpi\n        /* \"#utility.yul\":3912:3991   */\n      tag_132\n      tag_111\n      jump\t// in\n    tag_132:\n        /* \"#utility.yul\":3876:3993   */\n    tag_131:\n        /* \"#utility.yul\":4017:4080   */\n      tag_133\n        /* \"#utility.yul\":4072:4079   */\n      dup7\n        /* \"#utility.yul\":4063:4069   */\n      dup3\n        /* \"#utility.yul\":4052:4061   */\n      dup8\n        /* \"#utility.yul\":4048:4070   */\n      add\n        /* \"#utility.yul\":4017:4080   */\n      tag_100\n      jump\t// in\n    tag_133:\n        /* \"#utility.yul\":4007:4080   */\n      swap3\n      pop\n        /* \"#utility.yul\":3802:4090   */\n      pop\n        /* \"#utility.yul\":4157:4159   */\n      0x40\n        /* \"#utility.yul\":4146:4155   */\n      dup5\n        /* \"#utility.yul\":4142:4160   */\n      add\n        /* \"#utility.yul\":4129:4161   */\n      calldataload\n        /* \"#utility.yul\":4188:4206   */\n      0xffffffffffffffff\n        /* \"#utility.yul\":4180:4186   */\n      dup2\n        /* \"#utility.yul\":4177:4207   */\n      gt\n        /* \"#utility.yul\":4174:4291   */\n      iszero\n      tag_134\n      jumpi\n        /* \"#utility.yul\":4210:4289   */\n      tag_135\n      tag_111\n      jump\t// in\n    tag_135:\n        /* \"#utility.yul\":4174:4291   */\n    tag_134:\n        /* \"#utility.yul\":4315:4378   */\n      tag_136\n        /* \"#utility.yul\":4370:4377   */\n      dup7\n        /* \"#utility.yul\":4361:4367   */\n      dup3\n        /* \"#utility.yul\":4350:4359   */\n      dup8\n        /* \"#utility.yul\":4346:4368   */\n      add\n        /* \"#utility.yul\":4315:4378   */\n      tag_100\n      jump\t// in\n    tag_136:\n        /* \"#utility.yul\":4305:4378   */\n      swap2\n      pop\n        /* \"#utility.yul\":4100:4388   */\n      pop\n        /* \"#utility.yul\":3236:4395   */\n      swap3\n      pop\n      swap3\n      pop\n      swap3\n      jump\t// out\n        /* \"#utility.yul\":4401:4519   */\n    tag_137:\n        /* \"#utility.yul\":4488:4512   */\n      tag_139\n        /* \"#utility.yul\":4506:4511   */\n      dup2\n        /* \"#utility.yul\":4488:4512   */\n      tag_140\n      jump\t// in\n    tag_139:\n        /* \"#utility.yul\":4483:4486   */\n      dup3\n        /* \"#utility.yul\":4476:4513   */\n      mstore\n        /* \"#utility.yul\":4401:4519   */\n      pop\n      pop\n      jump\t// out\n        /* \"#utility.yul\":4525:4869   */\n    tag_141:\n        /* \"#utility.yul\":4603:4606   */\n      0x00\n        /* \"#utility.yul\":4631:4670   */\n      tag_143\n        /* \"#utility.yul\":4664:4669   */\n      dup3\n        /* \"#utility.yul\":4631:4670   */\n      tag_144\n      jump\t// in\n    tag_143:\n        /* \"#utility.yul\":4686:4747   */\n      tag_145\n        /* \"#utility.yul\":4740:4746   */\n      dup2\n        /* \"#utility.yul\":4735:4738   */\n      dup6\n        /* \"#utility.yul\":4686:4747   */\n      tag_146\n      jump\t// in\n    tag_145:\n        /* \"#utility.yul\":4679:4747   */\n      swap4\n      pop\n        /* \"#utility.yul\":4756:4808   */\n      tag_147\n        /* \"#utility.yul\":4801:4807   */\n      dup2\n        /* \"#utility.yul\":4796:4799   */\n      dup6\n        /* \"#utility.yul\":4789:4793   */\n      0x20\n        /* \"#utility.yul\":4782:4787   */\n      dup7\n        /* \"#utility.yul\":4778:4794   */\n      add\n        /* \"#utility.yul\":4756:4808   */\n      tag_148\n      jump\t// in\n    tag_147:\n        /* \"#utility.yul\":4833:4862   */\n      tag_149\n        /* \"#utility.yul\":4855:4861   */\n      dup2\n        /* \"#utility.yul\":4833:4862   */\n      tag_150\n      jump\t// in\n    tag_149:\n        /* \"#utility.yul\":4828:4831   */\n      dup5\n        /* \"#utility.yul\":4824:4863   */\n      add\n        /* \"#utility.yul\":4817:4863   */\n      swap2\n      pop\n        /* \"#utility.yul\":4607:4869   */\n      pop\n        /* \"#utility.yul\":4525:4869   */\n      swap3\n      swap2\n      pop\n      pop\n      jump\t// out\n        /* \"#utility.yul\":4875:5252   */\n    tag_151:\n        /* \"#utility.yul\":4981:4984   */\n      0x00\n        /* \"#utility.yul\":5009:5048   */\n      tag_153\n        /* \"#utility.yul\":5042:5047   */\n      dup3\n        /* \"#utility.yul\":5009:5048   */\n      tag_144\n      jump\t// in\n    tag_153:\n        /* \"#utility.yul\":5064:5153   */\n      tag_154\n        /* \"#utility.yul\":5146:5152   */\n      dup2\n        /* \"#utility.yul\":5141:5144   */\n      dup6\n        /* \"#utility.yul\":5064:5153   */\n      tag_155\n      jump\t// in\n    tag_154:\n        /* \"#utility.yul\":5057:5153   */\n      swap4\n      pop\n        /* \"#utility.yul\":5162:5214   */\n      tag_156\n        /* \"#utility.yul\":5207:5213   */\n      dup2\n        /* \"#utility.yul\":5202:5205   */\n      dup6\n        /* \"#utility.yul\":5195:5199   */\n      0x20\n        /* \"#utility.yul\":5188:5193   */\n      dup7\n        /* \"#utility.yul\":5184:5200   */\n      add\n        /* \"#utility.yul\":5162:5214   */\n      tag_148\n      jump\t// in\n    tag_156:\n        /* \"#utility.yul\":5239:5245   */\n      dup1\n        /* \"#utility.yul\":5234:5237   */\n      dup5\n        /* \"#utility.yul\":5230:5246   */\n      add\n        /* \"#utility.yul\":5223:5246   */\n      swap2\n      pop\n        /* \"#utility.yul\":4985:5252   */\n      pop\n        /* \"#utility.yul\":4875:5252   */\n      swap3\n      swap2\n      pop\n      pop\n      jump\t// out\n        /* \"#utility.yul\":5282:6127   */\n    tag_157:\n        /* \"#utility.yul\":5385:5388   */\n      0x00\n        /* \"#utility.yul\":5422:5427   */\n      dup2\n        /* \"#utility.yul\":5416:5428   */\n      sload\n        /* \"#utility.yul\":5451:5487   */\n      tag_159\n        /* \"#utility.yul\":5477:5486   */\n      dup2\n        /* \"#utility.yul\":5451:5487   */\n      tag_29\n      jump\t// in\n    tag_159:\n        /* \"#utility.yul\":5503:5592   */\n      tag_160\n        /* \"#utility.yul\":5585:5591   */\n      dup2\n        /* \"#utility.yul\":5580:5583   */\n      dup7\n        /* \"#utility.yul\":5503:5592   */\n      tag_155\n      jump\t// in\n    tag_160:\n        /* \"#utility.yul\":5496:5592   */\n      swap5\n      pop\n        /* \"#utility.yul\":5623:5624   */\n      0x01\n        /* \"#utility.yul\":5612:5621   */\n      dup3\n        /* \"#utility.yul\":5608:5625   */\n      and\n        /* \"#utility.yul\":5639:5640   */\n      0x00\n        /* \"#utility.yul\":5634:5771   */\n      dup2\n      eq\n      tag_162\n      jumpi\n        /* \"#utility.yul\":5785:5786   */\n      0x01\n        /* \"#utility.yul\":5780:6121   */\n      dup2\n      eq\n      tag_163\n      jumpi\n        /* \"#utility.yul\":5601:6121   */\n      jump(tag_161)\n        /* \"#utility.yul\":5634:5771   */\n    tag_162:\n        /* \"#utility.yul\":5718:5722   */\n      0xff\n        /* \"#utility.yul\":5714:5723   */\n      not\n        /* \"#utility.yul\":5703:5712   */\n      dup4\n        /* \"#utility.yul\":5699:5724   */\n      and\n        /* \"#utility.yul\":5694:5697   */\n      dup7\n        /* \"#utility.yul\":5687:5725   */\n      mstore\n        /* \"#utility.yul\":5754:5760   */\n      dup2\n        /* \"#utility.yul\":5749:5752   */\n      dup7\n        /* \"#utility.yul\":5745:5761   */\n      add\n        /* \"#utility.yul\":5738:5761   */\n      swap4\n      pop\n        /* \"#utility.yul\":5634:5771   */\n      jump(tag_161)\n        /* \"#utility.yul\":5780:6121   */\n    tag_163:\n        /* \"#utility.yul\":5847:5885   */\n      tag_164\n        /* \"#utility.yul\":5879:5884   */\n      dup6\n        /* \"#utility.yul\":5847:5885   */\n      tag_165\n      jump\t// in\n    tag_164:\n        /* \"#utility.yul\":5907:5908   */\n      0x00\n        /* \"#utility.yul\":5921:6075   */\n    tag_166:\n        /* \"#utility.yul\":5935:5941   */\n      dup4\n        /* \"#utility.yul\":5932:5933   */\n      dup2\n        /* \"#utility.yul\":5929:5942   */\n      lt\n        /* \"#utility.yul\":5921:6075   */\n      iszero\n      tag_168\n      jumpi\n        /* \"#utility.yul\":6009:6016   */\n      dup2\n        /* \"#utility.yul\":6003:6017   */\n      sload\n        /* \"#utility.yul\":5999:6000   */\n      dup2\n        /* \"#utility.yul\":5994:5997   */\n      dup10\n        /* \"#utility.yul\":5990:6001   */\n      add\n        /* \"#utility.yul\":5983:6018   */\n      mstore\n        /* \"#utility.yul\":6059:6060   */\n      0x01\n        /* \"#utility.yul\":6050:6057   */\n      dup3\n        /* \"#utility.yul\":6046:6061   */\n      add\n        /* \"#utility.yul\":6035:6061   */\n      swap2\n      pop\n        /* \"#utility.yul\":5957:5961   */\n      0x20\n        /* \"#utility.yul\":5954:5955   */\n      dup2\n        /* \"#utility.yul\":5950:5962   */\n      add\n        /* \"#utility.yul\":5945:5962   */\n      swap1\n      pop\n        /* \"#utility.yul\":5921:6075   */\n      jump(tag_166)\n    tag_168:\n        /* \"#utility.yul\":6104:6110   */\n      dup4\n        /* \"#utility.yul\":6099:6102   */\n      dup9\n        /* \"#utility.yul\":6095:6111   */\n      add\n        /* \"#utility.yul\":6088:6111   */\n      swap6\n      pop\n        /* \"#utility.yul\":5787:6121   */\n      pop\n      pop\n        /* \"#utility.yul\":5601:6121   */\n    tag_161:\n      pop\n        /* \"#utility.yul\":5389:6127   */\n      pop\n      pop\n        /* \"#utility.yul\":5282:6127   */\n      swap3\n      swap2\n      pop\n      pop\n      jump\t// out\n        /* \"#utility.yul\":6133:6499   */\n    tag_169:\n        /* \"#utility.yul\":6275:6278   */\n      0x00\n        /* \"#utility.yul\":6296:6363   */\n      tag_171\n        /* \"#utility.yul\":6360:6362   */\n      0x18\n        /* \"#utility.yul\":6355:6358   */\n      dup4\n        /* \"#utility.yul\":6296:6363   */\n      tag_172\n      jump\t// in\n    tag_171:\n        /* \"#utility.yul\":6289:6363   */\n      swap2\n      pop\n        /* \"#utility.yul\":6372:6465   */\n      tag_173\n        /* \"#utility.yul\":6461:6464   */\n      dup3\n        /* \"#utility.yul\":6372:6465   */\n      tag_174\n      jump\t// in\n    tag_173:\n        /* \"#utility.yul\":6490:6492   */\n      0x20\n        /* \"#utility.yul\":6485:6488   */\n      dup3\n        /* \"#utility.yul\":6481:6493   */\n      add\n        /* \"#utility.yul\":6474:6493   */\n      swap1\n      pop\n        /* \"#utility.yul\":6133:6499   */\n      swap2\n      swap1\n      pop\n      jump\t// out\n        /* \"#utility.yul\":6505:6870   */\n    tag_175:\n        /* \"#utility.yul\":6647:6650   */\n      0x00\n        /* \"#utility.yul\":6668:6734   */\n      tag_177\n        /* \"#utility.yul\":6732:6733   */\n      0x07\n        /* \"#utility.yul\":6727:6730   */\n      dup4\n        /* \"#utility.yul\":6668:6734   */\n      tag_172\n      jump\t// in\n    tag_177:\n        /* \"#utility.yul\":6661:6734   */\n      swap2\n      pop\n        /* \"#utility.yul\":6743:6836   */\n      tag_178\n        /* \"#utility.yul\":6832:6835   */\n      dup3\n        /* \"#utility.yul\":6743:6836   */\n      tag_179\n      jump\t// in\n    tag_178:\n        /* \"#utility.yul\":6861:6863   */\n      0x20\n        /* \"#utility.yul\":6856:6859   */\n      dup3\n        /* \"#utility.yul\":6852:6864   */\n      add\n        /* \"#utility.yul\":6845:6864   */\n      swap1\n      pop\n        /* \"#utility.yul\":6505:6870   */\n      swap2\n      swap1\n      pop\n      jump\t// out\n        /* \"#utility.yul\":6936:8048   */\n    tag_180:\n        /* \"#utility.yul\":7059:7062   */\n      0x00\n        /* \"#utility.yul\":7095:7099   */\n      0x80\n        /* \"#utility.yul\":7090:7093   */\n      dup4\n        /* \"#utility.yul\":7086:7100   */\n      add\n        /* \"#utility.yul\":7188:7192   */\n      0x00\n        /* \"#utility.yul\":7181:7186   */\n      dup4\n        /* \"#utility.yul\":7177:7193   */\n      add\n        /* \"#utility.yul\":7171:7194   */\n      mload\n        /* \"#utility.yul\":7241:7244   */\n      dup5\n        /* \"#utility.yul\":7235:7239   */\n      dup3\n        /* \"#utility.yul\":7231:7245   */\n      sub\n        /* \"#utility.yul\":7224:7228   */\n      0x00\n        /* \"#utility.yul\":7219:7222   */\n      dup7\n        /* \"#utility.yul\":7215:7229   */\n      add\n        /* \"#utility.yul\":7208:7246   */\n      mstore\n        /* \"#utility.yul\":7267:7340   */\n      tag_182\n        /* \"#utility.yul\":7335:7339   */\n      dup3\n        /* \"#utility.yul\":7321:7333   */\n      dup3\n        /* \"#utility.yul\":7267:7340   */\n      tag_141\n      jump\t// in\n    tag_182:\n        /* \"#utility.yul\":7259:7340   */\n      swap2\n      pop\n        /* \"#utility.yul\":7110:7351   */\n      pop\n        /* \"#utility.yul\":7433:7437   */\n      0x20\n        /* \"#utility.yul\":7426:7431   */\n      dup4\n        /* \"#utility.yul\":7422:7438   */\n      add\n        /* \"#utility.yul\":7416:7439   */\n      mload\n        /* \"#utility.yul\":7486:7489   */\n      dup5\n        /* \"#utility.yul\":7480:7484   */\n      dup3\n        /* \"#utility.yul\":7476:7490   */\n      sub\n        /* \"#utility.yul\":7469:7473   */\n      0x20\n        /* \"#utility.yul\":7464:7467   */\n      dup7\n        /* \"#utility.yul\":7460:7474   */\n      add\n        /* \"#utility.yul\":7453:7491   */\n      mstore\n        /* \"#utility.yul\":7512:7585   */\n      tag_183\n        /* \"#utility.yul\":7580:7584   */\n      dup3\n        /* \"#utility.yul\":7566:7578   */\n      dup3\n        /* \"#utility.yul\":7512:7585   */\n      tag_141\n      jump\t// in\n    tag_183:\n        /* \"#utility.yul\":7504:7585   */\n      swap2\n      pop\n        /* \"#utility.yul\":7361:7596   */\n      pop\n        /* \"#utility.yul\":7678:7682   */\n      0x40\n        /* \"#utility.yul\":7671:7676   */\n      dup4\n        /* \"#utility.yul\":7667:7683   */\n      add\n        /* \"#utility.yul\":7661:7684   */\n      mload\n        /* \"#utility.yul\":7731:7734   */\n      dup5\n        /* \"#utility.yul\":7725:7729   */\n      dup3\n        /* \"#utility.yul\":7721:7735   */\n      sub\n        /* \"#utility.yul\":7714:7718   */\n      0x40\n        /* \"#utility.yul\":7709:7712   */\n      dup7\n        /* \"#utility.yul\":7705:7719   */\n      add\n        /* \"#utility.yul\":7698:7736   */\n      mstore\n        /* \"#utility.yul\":7757:7830   */\n      tag_184\n        /* \"#utility.yul\":7825:7829   */\n      dup3\n        /* \"#utility.yul\":7811:7823   */\n      dup3\n        /* \"#utility.yul\":7757:7830   */\n      tag_141\n      jump\t// in\n    tag_184:\n        /* \"#utility.yul\":7749:7830   */\n      swap2\n      pop\n        /* \"#utility.yul\":7606:7841   */\n      pop\n        /* \"#utility.yul\":7929:7933   */\n      0x60\n        /* \"#utility.yul\":7922:7927   */\n      dup4\n        /* \"#utility.yul\":7918:7934   */\n      add\n        /* \"#utility.yul\":7912:7935   */\n      mload\n        /* \"#utility.yul\":7948:8011   */\n      tag_185\n        /* \"#utility.yul\":8005:8009   */\n      0x60\n        /* \"#utility.yul\":8000:8003   */\n      dup7\n        /* \"#utility.yul\":7996:8010   */\n      add\n        /* \"#utility.yul\":7982:7994   */\n      dup3\n        /* \"#utility.yul\":7948:8011   */\n      tag_186\n      jump\t// in\n    tag_185:\n        /* \"#utility.yul\":7851:8021   */\n      pop\n        /* \"#utility.yul\":8038:8042   */\n      dup1\n        /* \"#utility.yul\":8031:8042   */\n      swap2\n      pop\n        /* \"#utility.yul\":7064:8048   */\n      pop\n        /* \"#utility.yul\":6936:8048   */\n      swap3\n      swap2\n      pop\n      pop\n      jump\t// out\n        /* \"#utility.yul\":8054:8162   */\n    tag_186:\n        /* \"#utility.yul\":8131:8155   */\n      tag_188\n        /* \"#utility.yul\":8149:8154   */\n      dup2\n        /* \"#utility.yul\":8131:8155   */\n      tag_189\n      jump\t// in\n    tag_188:\n        /* \"#utility.yul\":8126:8129   */\n      dup3\n        /* \"#utility.yul\":8119:8156   */\n      mstore\n        /* \"#utility.yul\":8054:8162   */\n      pop\n      pop\n      jump\t// out\n        /* \"#utility.yul\":8168:8443   */\n    tag_27:\n        /* \"#utility.yul\":8300:8303   */\n      0x00\n        /* \"#utility.yul\":8322:8417   */\n      tag_191\n        /* \"#utility.yul\":8413:8416   */\n      dup3\n        /* \"#utility.yul\":8404:8410   */\n      dup5\n        /* \"#utility.yul\":8322:8417   */\n      tag_151\n      jump\t// in\n    tag_191:\n        /* \"#utility.yul\":8315:8417   */\n      swap2\n      pop\n        /* \"#utility.yul\":8434:8437   */\n      dup2\n        /* \"#utility.yul\":8427:8437   */\n      swap1\n      pop\n        /* \"#utility.yul\":8168:8443   */\n      swap3\n      swap2\n      pop\n      pop\n      jump\t// out\n        /* \"#utility.yul\":8449:8718   */\n    tag_63:\n        /* \"#utility.yul\":8578:8581   */\n      0x00\n        /* \"#utility.yul\":8600:8692   */\n      tag_193\n        /* \"#utility.yul\":8688:8691   */\n      dup3\n        /* \"#utility.yul\":8679:8685   */\n      dup5\n        /* \"#utility.yul\":8600:8692   */\n      tag_157\n      jump\t// in\n    tag_193:\n        /* \"#utility.yul\":8593:8692   */\n      swap2\n      pop\n        /* \"#utility.yul\":8709:8712   */\n      dup2\n        /* \"#utility.yul\":8702:8712   */\n      swap1\n      pop\n        /* \"#utility.yul\":8449:8718   */\n      swap3\n      swap2\n      pop\n      pop\n      jump\t// out\n        /* \"#utility.yul\":8724:8946   */\n    tag_17:\n        /* \"#utility.yul\":8817:8821   */\n      0x00\n        /* \"#utility.yul\":8855:8857   */\n      0x20\n        /* \"#utility.yul\":8844:8853   */\n      dup3\n        /* \"#utility.yul\":8840:8858   */\n      add\n        /* \"#utility.yul\":8832:8858   */\n      swap1\n      pop\n        /* \"#utility.yul\":8868:8939   */\n      tag_195\n        /* \"#utility.yul\":8936:8937   */\n      0x00\n        /* \"#utility.yul\":8925:8934   */\n      dup4\n        /* \"#utility.yul\":8921:8938   */\n      add\n        /* \"#utility.yul\":8912:8918   */\n      dup5\n        /* \"#utility.yul\":8868:8939   */\n      tag_137\n      jump\t// in\n    tag_195:\n        /* \"#utility.yul\":8724:8946   */\n      swap3\n      swap2\n      pop\n      pop\n      jump\t// out\n        /* \"#utility.yul\":8952:9371   */\n    tag_54:\n        /* \"#utility.yul\":9118:9122   */\n      0x00\n        /* \"#utility.yul\":9156:9158   */\n      0x20\n        /* \"#utility.yul\":9145:9154   */\n      dup3\n        /* \"#utility.yul\":9141:9159   */\n      add\n        /* \"#utility.yul\":9133:9159   */\n      swap1\n      pop\n        /* \"#utility.yul\":9205:9214   */\n      dup2\n        /* \"#utility.yul\":9199:9203   */\n      dup2\n        /* \"#utility.yul\":9195:9215   */\n      sub\n        /* \"#utility.yul\":9191:9192   */\n      0x00\n        /* \"#utility.yul\":9180:9189   */\n      dup4\n        /* \"#utility.yul\":9176:9193   */\n      add\n        /* \"#utility.yul\":9169:9216   */\n      mstore\n        /* \"#utility.yul\":9233:9364   */\n      tag_197\n        /* \"#utility.yul\":9359:9363   */\n      dup2\n        /* \"#utility.yul\":9233:9364   */\n      tag_169\n      jump\t// in\n    tag_197:\n        /* \"#utility.yul\":9225:9364   */\n      swap1\n      pop\n        /* \"#utility.yul\":8952:9371   */\n      swap2\n      swap1\n      pop\n      jump\t// out\n        /* \"#utility.yul\":9377:9906   */\n    tag_59:\n        /* \"#utility.yul\":9571:9575   */\n      0x00\n        /* \"#utility.yul\":9609:9611   */\n      0x40\n        /* \"#utility.yul\":9598:9607   */\n      dup3\n        /* \"#utility.yul\":9594:9612   */\n      add\n        /* \"#utility.yul\":9586:9612   */\n      swap1\n      pop\n        /* \"#utility.yul\":9658:9667   */\n      dup2\n        /* \"#utility.yul\":9652:9656   */\n      dup2\n        /* \"#utility.yul\":9648:9668   */\n      sub\n        /* \"#utility.yul\":9644:9645   */\n      0x00\n        /* \"#utility.yul\":9633:9642   */\n      dup4\n        /* \"#utility.yul\":9629:9646   */\n      add\n        /* \"#utility.yul\":9622:9669   */\n      mstore\n        /* \"#utility.yul\":9686:9817   */\n      tag_199\n        /* \"#utility.yul\":9812:9816   */\n      dup2\n        /* \"#utility.yul\":9686:9817   */\n      tag_175\n      jump\t// in\n    tag_199:\n        /* \"#utility.yul\":9678:9817   */\n      swap1\n      pop\n        /* \"#utility.yul\":9827:9899   */\n      tag_200\n        /* \"#utility.yul\":9895:9897   */\n      0x20\n        /* \"#utility.yul\":9884:9893   */\n      dup4\n        /* \"#utility.yul\":9880:9898   */\n      add\n        /* \"#utility.yul\":9871:9877   */\n      dup5\n        /* \"#utility.yul\":9827:9899   */\n      tag_137\n      jump\t// in\n    tag_200:\n        /* \"#utility.yul\":9377:9906   */\n      swap3\n      swap2\n      pop\n      pop\n      jump\t// out\n        /* \"#utility.yul\":9912:10293   */\n    tag_11:\n        /* \"#utility.yul\":10059:10063   */\n      0x00\n        /* \"#utility.yul\":10097:10099   */\n      0x20\n        /* \"#utility.yul\":10086:10095   */\n      dup3\n        /* \"#utility.yul\":10082:10100   */\n      add\n        /* \"#utility.yul\":10074:10100   */\n      swap1\n      pop\n        /* \"#utility.yul\":10146:10155   */\n      dup2\n        /* \"#utility.yul\":10140:10144   */\n      dup2\n        /* \"#utility.yul\":10136:10156   */\n      sub\n        /* \"#utility.yul\":10132:10133   */\n      0x00\n        /* \"#utility.yul\":10121:10130   */\n      dup4\n        /* \"#utility.yul\":10117:10134   */\n      add\n        /* \"#utility.yul\":10110:10157   */\n      mstore\n        /* \"#utility.yul\":10174:10286   */\n      tag_202\n        /* \"#utility.yul\":10281:10285   */\n      dup2\n        /* \"#utility.yul\":10272:10278   */\n      dup5\n        /* \"#utility.yul\":10174:10286   */\n      tag_180\n      jump\t// in\n    tag_202:\n        /* \"#utility.yul\":10166:10286   */\n      swap1\n      pop\n        /* \"#utility.yul\":9912:10293   */\n      swap3\n      swap2\n      pop\n      pop\n      jump\t// out\n        /* \"#utility.yul\":10299:10428   */\n    tag_80:\n        /* \"#utility.yul\":10333:10339   */\n      0x00\n        /* \"#utility.yul\":10360:10380   */\n      tag_204\n      tag_205\n      jump\t// in\n    tag_204:\n        /* \"#utility.yul\":10350:10380   */\n      swap1\n      pop\n        /* \"#utility.yul\":10389:10422   */\n      tag_206\n        /* \"#utility.yul\":10417:10421   */\n      dup3\n        /* \"#utility.yul\":10409:10415   */\n      dup3\n        /* \"#utility.yul\":10389:10422   */\n      tag_207\n      jump\t// in\n    tag_206:\n        /* \"#utility.yul\":10299:10428   */\n      swap2\n      swap1\n      pop\n      jump\t// out\n        /* \"#utility.yul\":10434:10509   */\n    tag_205:\n        /* \"#utility.yul\":10467:10473   */\n      0x00\n        /* \"#utility.yul\":10500:10502   */\n      0x40\n        /* \"#utility.yul\":10494:10503   */\n      mload\n        /* \"#utility.yul\":10484:10503   */\n      swap1\n      pop\n        /* \"#utility.yul\":10434:10509   */\n      swap1\n      jump\t// out\n        /* \"#utility.yul\":10515:10822   */\n    tag_79:\n        /* \"#utility.yul\":10576:10580   */\n      0x00\n        /* \"#utility.yul\":10666:10684   */\n      0xffffffffffffffff\n        /* \"#utility.yul\":10658:10664   */\n      dup3\n        /* \"#utility.yul\":10655:10685   */\n      gt\n        /* \"#utility.yul\":10652:10708   */\n      iszero\n      tag_210\n      jumpi\n        /* \"#utility.yul\":10688:10706   */\n      tag_211\n      tag_212\n      jump\t// in\n    tag_211:\n        /* \"#utility.yul\":10652:10708   */\n    tag_210:\n        /* \"#utility.yul\":10726:10755   */\n      tag_213\n        /* \"#utility.yul\":10748:10754   */\n      dup3\n        /* \"#utility.yul\":10726:10755   */\n      tag_150\n      jump\t// in\n    tag_213:\n        /* \"#utility.yul\":10718:10755   */\n      swap1\n      pop\n        /* \"#utility.yul\":10810:10814   */\n      0x20\n        /* \"#utility.yul\":10804:10808   */\n      dup2\n        /* \"#utility.yul\":10800:10815   */\n      add\n        /* \"#utility.yul\":10792:10815   */\n      swap1\n      pop\n        /* \"#utility.yul\":10515:10822   */\n      swap2\n      swap1\n      pop\n      jump\t// out\n        /* \"#utility.yul\":10828:11136   */\n    tag_90:\n        /* \"#utility.yul\":10890:10894   */\n      0x00\n        /* \"#utility.yul\":10980:10998   */\n      0xffffffffffffffff\n        /* \"#utility.yul\":10972:10978   */\n      dup3\n        /* \"#utility.yul\":10969:10999   */\n      gt\n        /* \"#utility.yul\":10966:11022   */\n      iszero\n      tag_215\n      jumpi\n        /* \"#utility.yul\":11002:11020   */\n      tag_216\n      tag_212\n      jump\t// in\n    tag_216:\n        /* \"#utility.yul\":10966:11022   */\n    tag_215:\n        /* \"#utility.yul\":11040:11069   */\n      tag_217\n        /* \"#utility.yul\":11062:11068   */\n      dup3\n        /* \"#utility.yul\":11040:11069   */\n      tag_150\n      jump\t// in\n    tag_217:\n        /* \"#utility.yul\":11032:11069   */\n      swap1\n      pop\n        /* \"#utility.yul\":11124:11128   */\n      0x20\n        /* \"#utility.yul\":11118:11122   */\n      dup2\n        /* \"#utility.yul\":11114:11129   */\n      add\n        /* \"#utility.yul\":11106:11129   */\n      swap1\n      pop\n        /* \"#utility.yul\":10828:11136   */\n      swap2\n      swap1\n      pop\n      jump\t// out\n        /* \"#utility.yul\":11142:11283   */\n    tag_165:\n        /* \"#utility.yul\":11191:11195   */\n      0x00\n        /* \"#utility.yul\":11214:11217   */\n      dup2\n        /* \"#utility.yul\":11206:11217   */\n      swap1\n      pop\n        /* \"#utility.yul\":11237:11240   */\n      dup2\n        /* \"#utility.yul\":11234:11235   */\n      0x00\n        /* \"#utility.yul\":11227:11241   */\n      mstore\n        /* \"#utility.yul\":11271:11275   */\n      0x20\n        /* \"#utility.yul\":11268:11269   */\n      0x00\n        /* \"#utility.yul\":11258:11276   */\n      keccak256\n        /* \"#utility.yul\":11250:11276   */\n      swap1\n      pop\n        /* \"#utility.yul\":11142:11283   */\n      swap2\n      swap1\n      pop\n      jump\t// out\n        /* \"#utility.yul\":11289:11388   */\n    tag_144:\n        /* \"#utility.yul\":11341:11347   */\n      0x00\n        /* \"#utility.yul\":11375:11380   */\n      dup2\n        /* \"#utility.yul\":11369:11381   */\n      mload\n        /* \"#utility.yul\":11359:11381   */\n      swap1\n      pop\n        /* \"#utility.yul\":11289:11388   */\n      swap2\n      swap1\n      pop\n      jump\t// out\n        /* \"#utility.yul\":11394:11553   */\n    tag_146:\n        /* \"#utility.yul\":11468:11479   */\n      0x00\n        /* \"#utility.yul\":11502:11508   */\n      dup3\n        /* \"#utility.yul\":11497:11500   */\n      dup3\n        /* \"#utility.yul\":11490:11509   */\n      mstore\n        /* \"#utility.yul\":11542:11546   */\n      0x20\n        /* \"#utility.yul\":11537:11540   */\n      dup3\n        /* \"#utility.yul\":11533:11547   */\n      add\n        /* \"#utility.yul\":11518:11547   */\n      swap1\n      pop\n        /* \"#utility.yul\":11394:11553   */\n      swap3\n      swap2\n      pop\n      pop\n      jump\t// out\n        /* \"#utility.yul\":11559:11728   */\n    tag_172:\n        /* \"#utility.yul\":11643:11654   */\n      0x00\n        /* \"#utility.yul\":11677:11683   */\n      dup3\n        /* \"#utility.yul\":11672:11675   */\n      dup3\n        /* \"#utility.yul\":11665:11684   */\n      mstore\n        /* \"#utility.yul\":11717:11721   */\n      0x20\n        /* \"#utility.yul\":11712:11715   */\n      dup3\n        /* \"#utility.yul\":11708:11722   */\n      add\n        /* \"#utility.yul\":11693:11722   */\n      swap1\n      pop\n        /* \"#utility.yul\":11559:11728   */\n      swap3\n      swap2\n      pop\n      pop\n      jump\t// out\n        /* \"#utility.yul\":11734:11882   */\n    tag_155:\n        /* \"#utility.yul\":11836:11847   */\n      0x00\n        /* \"#utility.yul\":11873:11876   */\n      dup2\n        /* \"#utility.yul\":11858:11876   */\n      swap1\n      pop\n        /* \"#utility.yul\":11734:11882   */\n      swap3\n      swap2\n      pop\n      pop\n      jump\t// out\n        /* \"#utility.yul\":11888:11965   */\n    tag_140:\n        /* \"#utility.yul\":11925:11932   */\n      0x00\n        /* \"#utility.yul\":11954:11959   */\n      dup2\n        /* \"#utility.yul\":11943:11959   */\n      swap1\n      pop\n        /* \"#utility.yul\":11888:11965   */\n      swap2\n      swap1\n      pop\n      jump\t// out\n        /* \"#utility.yul\":11971:12048   */\n    tag_189:\n        /* \"#utility.yul\":12008:12015   */\n      0x00\n        /* \"#utility.yul\":12037:12042   */\n      dup2\n        /* \"#utility.yul\":12026:12042   */\n      swap1\n      pop\n        /* \"#utility.yul\":11971:12048   */\n      swap2\n      swap1\n      pop\n      jump\t// out\n        /* \"#utility.yul\":12054:12208   */\n    tag_85:\n        /* \"#utility.yul\":12138:12144   */\n      dup3\n        /* \"#utility.yul\":12133:12136   */\n      dup2\n        /* \"#utility.yul\":12128:12131   */\n      dup4\n        /* \"#utility.yul\":12115:12145   */\n      calldatacopy\n        /* \"#utility.yul\":12200:12201   */\n      0x00\n        /* \"#utility.yul\":12191:12197   */\n      dup4\n        /* \"#utility.yul\":12186:12189   */\n      dup4\n        /* \"#utility.yul\":12182:12198   */\n      add\n        /* \"#utility.yul\":12175:12202   */\n      mstore\n        /* \"#utility.yul\":12054:12208   */\n      pop\n      pop\n      pop\n      jump\t// out\n        /* \"#utility.yul\":12214:12521   */\n    tag_148:\n        /* \"#utility.yul\":12282:12283   */\n      0x00\n        /* \"#utility.yul\":12292:12405   */\n    tag_227:\n        /* \"#utility.yul\":12306:12312   */\n      dup4\n        /* \"#utility.yul\":12303:12304   */\n      dup2\n        /* \"#utility.yul\":12300:12313   */\n      lt\n        /* \"#utility.yul\":12292:12405   */\n      iszero\n      tag_229\n      jumpi\n        /* \"#utility.yul\":12391:12392   */\n      dup1\n        /* \"#utility.yul\":12386:12389   */\n      dup3\n        /* \"#utility.yul\":12382:12393   */\n      add\n        /* \"#utility.yul\":12376:12394   */\n      mload\n        /* \"#utility.yul\":12372:12373   */\n      dup2\n        /* \"#utility.yul\":12367:12370   */\n      dup5\n        /* \"#utility.yul\":12363:12374   */\n      add\n        /* \"#utility.yul\":12356:12395   */\n      mstore\n        /* \"#utility.yul\":12328:12330   */\n      0x20\n        /* \"#utility.yul\":12325:12326   */\n      dup2\n        /* \"#utility.yul\":12321:12331   */\n      add\n        /* \"#utility.yul\":12316:12331   */\n      swap1\n      pop\n        /* \"#utility.yul\":12292:12405   */\n      jump(tag_227)\n    tag_229:\n        /* \"#utility.yul\":12423:12429   */\n      dup4\n        /* \"#utility.yul\":12420:12421   */\n      dup2\n        /* \"#utility.yul\":12417:12430   */\n      gt\n        /* \"#utility.yul\":12414:12515   */\n      iszero\n      tag_230\n      jumpi\n        /* \"#utility.yul\":12503:12504   */\n      0x00\n        /* \"#utility.yul\":12494:12500   */\n      dup5\n        /* \"#utility.yul\":12489:12492   */\n      dup5\n        /* \"#utility.yul\":12485:12501   */\n      add\n        /* \"#utility.yul\":12478:12505   */\n      mstore\n        /* \"#utility.yul\":12414:12515   */\n    tag_230:\n        /* \"#utility.yul\":12263:12521   */\n      pop\n        /* \"#utility.yul\":12214:12521   */\n      pop\n      pop\n      pop\n      jump\t// out\n        /* \"#utility.yul\":12527:12847   */\n    tag_29:\n        /* \"#utility.yul\":12571:12577   */\n      0x00\n        /* \"#utility.yul\":12608:12609   */\n      0x02\n        /* \"#utility.yul\":12602:12606   */\n      dup3\n        /* \"#utility.yul\":12598:12610   */\n      div\n        /* \"#utility.yul\":12588:12610   */\n      swap1\n      pop\n        /* \"#utility.yul\":12655:12656   */\n      0x01\n        /* \"#utility.yul\":12649:12653   */\n      dup3\n        /* \"#utility.yul\":12645:12657   */\n      and\n        /* \"#utility.yul\":12676:12694   */\n      dup1\n        /* \"#utility.yul\":12666:12747   */\n      tag_232\n      jumpi\n        /* \"#utility.yul\":12732:12736   */\n      0x7f\n        /* \"#utility.yul\":12724:12730   */\n      dup3\n        /* \"#utility.yul\":12720:12737   */\n      and\n        /* \"#utility.yul\":12710:12737   */\n      swap2\n      pop\n        /* \"#utility.yul\":12666:12747   */\n    tag_232:\n        /* \"#utility.yul\":12794:12796   */\n      0x20\n        /* \"#utility.yul\":12786:12792   */\n      dup3\n        /* \"#utility.yul\":12783:12797   */\n      lt\n        /* \"#utility.yul\":12763:12781   */\n      dup2\n        /* \"#utility.yul\":12760:12798   */\n      eq\n        /* \"#utility.yul\":12757:12841   */\n      iszero\n      tag_233\n      jumpi\n        /* \"#utility.yul\":12813:12831   */\n      tag_234\n      tag_235\n      jump\t// in\n    tag_234:\n        /* \"#utility.yul\":12757:12841   */\n    tag_233:\n        /* \"#utility.yul\":12578:12847   */\n      pop\n        /* \"#utility.yul\":12527:12847   */\n      swap2\n      swap1\n      pop\n      jump\t// out\n        /* \"#utility.yul\":12853:13134   */\n    tag_207:\n        /* \"#utility.yul\":12936:12963   */\n      tag_237\n        /* \"#utility.yul\":12958:12962   */\n      dup3\n        /* \"#utility.yul\":12936:12963   */\n      tag_150\n      jump\t// in\n    tag_237:\n        /* \"#utility.yul\":12928:12934   */\n      dup2\n        /* \"#utility.yul\":12924:12964   */\n      add\n        /* \"#utility.yul\":13066:13072   */\n      dup2\n        /* \"#utility.yul\":13054:13064   */\n      dup2\n        /* \"#utility.yul\":13051:13073   */\n      lt\n        /* \"#utility.yul\":13030:13048   */\n      0xffffffffffffffff\n        /* \"#utility.yul\":13018:13028   */\n      dup3\n        /* \"#utility.yul\":13015:13049   */\n      gt\n        /* \"#utility.yul\":13012:13074   */\n      or\n        /* \"#utility.yul\":13009:13097   */\n      iszero\n      tag_238\n      jumpi\n        /* \"#utility.yul\":13077:13095   */\n      tag_239\n      tag_212\n      jump\t// in\n    tag_239:\n        /* \"#utility.yul\":13009:13097   */\n    tag_238:\n        /* \"#utility.yul\":13117:13127   */\n      dup1\n        /* \"#utility.yul\":13113:13115   */\n      0x40\n        /* \"#utility.yul\":13106:13128   */\n      mstore\n        /* \"#utility.yul\":12896:13134   */\n      pop\n        /* \"#utility.yul\":12853:13134   */\n      pop\n      pop\n      jump\t// out\n        /* \"#utility.yul\":13140:13320   */\n    tag_235:\n        /* \"#utility.yul\":13188:13265   */\n      0x4e487b7100000000000000000000000000000000000000000000000000000000\n        /* \"#utility.yul\":13185:13186   */\n      0x00\n        /* \"#utility.yul\":13178:13266   */\n      mstore\n        /* \"#utility.yul\":13285:13289   */\n      0x22\n        /* \"#utility.yul\":13282:13283   */\n      0x04\n        /* \"#utility.yul\":13275:13290   */\n      mstore\n        /* \"#utility.yul\":13309:13313   */\n      0x24\n        /* \"#utility.yul\":13306:13307   */\n      0x00\n        /* \"#utility.yul\":13299:13314   */\n      revert\n        /* \"#utility.yul\":13326:13506   */\n    tag_212:\n        /* \"#utility.yul\":13374:13451   */\n      0x4e487b7100000000000000000000000000000000000000000000000000000000\n        /* \"#utility.yul\":13371:13372   */\n      0x00\n        /* \"#utility.yul\":13364:13452   */\n      mstore\n        /* \"#utility.yul\":13471:13475   */\n      0x41\n        /* \"#utility.yul\":13468:13469   */\n      0x04\n        /* \"#utility.yul\":13461:13476   */\n      mstore\n        /* \"#utility.yul\":13495:13499   */\n      0x24\n        /* \"#utility.yul\":13492:13493   */\n      0x00\n        /* \"#utility.yul\":13485:13500   */\n      revert\n        /* \"#utility.yul\":13512:13629   */\n    tag_98:\n        /* \"#utility.yul\":13621:13622   */\n      0x00\n        /* \"#utility.yul\":13618:13619   */\n      dup1\n        /* \"#utility.yul\":13611:13623   */\n      revert\n        /* \"#utility.yul\":13635:13752   */\n    tag_83:\n        /* \"#utility.yul\":13744:13745   */\n      0x00\n        /* \"#utility.yul\":13741:13742   */\n      dup1\n        /* \"#utility.yul\":13734:13746   */\n      revert\n        /* \"#utility.yul\":13758:13875   */\n    tag_111:\n        /* \"#utility.yul\":13867:13868   */\n      0x00\n        /* \"#utility.yul\":13864:13865   */\n      dup1\n        /* \"#utility.yul\":13857:13869   */\n      revert\n        /* \"#utility.yul\":13881:13998   */\n    tag_108:\n        /* \"#utility.yul\":13990:13991   */\n      0x00\n        /* \"#utility.yul\":13987:13988   */\n      dup1\n        /* \"#utility.yul\":13980:13992   */\n      revert\n        /* \"#utility.yul\":14004:14106   */\n    tag_150:\n        /* \"#utility.yul\":14045:14051   */\n      0x00\n        /* \"#utility.yul\":14096:14098   */\n      0x1f\n        /* \"#utility.yul\":14092:14099   */\n      not\n        /* \"#utility.yul\":14087:14089   */\n      0x1f\n        /* \"#utility.yul\":14080:14085   */\n      dup4\n        /* \"#utility.yul\":14076:14090   */\n      add\n        /* \"#utility.yul\":14072:14100   */\n      and\n        /* \"#utility.yul\":14062:14100   */\n      swap1\n      pop\n        /* \"#utility.yul\":14004:14106   */\n      swap2\n      swap1\n      pop\n      jump\t// out\n        /* \"#utility.yul\":14112:14286   */\n    tag_174:\n        /* \"#utility.yul\":14252:14278   */\n      0x4163636f756e7420616c7265616479206578697374696e670000000000000000\n        /* \"#utility.yul\":14248:14249   */\n      0x00\n        /* \"#utility.yul\":14240:14246   */\n      dup3\n        /* \"#utility.yul\":14236:14250   */\n      add\n        /* \"#utility.yul\":14229:14279   */\n      mstore\n        /* \"#utility.yul\":14112:14286   */\n      pop\n      jump\t// out\n        /* \"#utility.yul\":14292:14449   */\n    tag_179:\n        /* \"#utility.yul\":14432:14441   */\n      0x7375636365737300000000000000000000000000000000000000000000000000\n        /* \"#utility.yul\":14428:14429   */\n      0x00\n        /* \"#utility.yul\":14420:14426   */\n      dup3\n        /* \"#utility.yul\":14416:14430   */\n      add\n        /* \"#utility.yul\":14409:14442   */\n      mstore\n        /* \"#utility.yul\":14292:14449   */\n      pop\n      jump\t// out\n\n    auxdata: 0xa26469706673582212207de79e28b4727d78be528322817a4bc13e0c3fb666788e286b29d2a06ed301d164736f6c63430008070033\n}\n",
				"bytecode": {
					"linkReferences": {},
					"object": "608060405234801561001057600080fd5b50610d34806100206000396000f3fe608060405234801561001057600080fd5b50600436106100415760003560e01c8063174ba7ff146100465780635b62132d14610076578063b24c908a146100a6575b600080fd5b610060600480360381019061005b919061068e565b6100d6565b60405161006d9190610a7a565b60405180910390f35b610090600480360381019061008b91906106d7565b6102ee565b60405161009d9190610a11565b60405180910390f35b6100c060048036038101906100bb919061077e565b610353565b6040516100cd9190610a11565b60405180910390f35b6100de6104e3565b6000826040516020016100f191906109e3565b60405160208183030381529060405280519060200120905060008082815260200190815260200160002060405180608001604052908160008201805461013690610bc6565b80601f016020809104026020016040519081016040528092919081815260200182805461016290610bc6565b80156101af5780601f10610184576101008083540402835291602001916101af565b820191906000526020600020905b81548152906001019060200180831161019257829003601f168201915b505050505081526020016001820180546101c890610bc6565b80601f01602080910402602001604051908101604052809291908181526020018280546101f490610bc6565b80156102415780601f1061021657610100808354040283529160200191610241565b820191906000526020600020905b81548152906001019060200180831161022457829003601f168201915b5050505050815260200160028201805461025a90610bc6565b80601f016020809104026020016040519081016040528092919081815260200182805461028690610bc6565b80156102d35780601f106102a8576101008083540402835291602001916102d3565b820191906000526020600020905b8154815290600101906020018083116102b657829003601f168201915b50505050508152602001600382015481525050915050919050565b6000808460405160200161030291906109e3565b60405160208183030381529060405280519060200120905060006001600083815260200190815260200160002090508481600001908051906020019061034992919061050b565b5050509392505050565b6000808460405160200161036791906109e3565b6040516020818303038152906040528051906020012090506103898186610475565b6103c8576040517f08c379a00000000000000000000000000000000000000000000000000000000081526004016103bf90610a2c565b60405180910390fd5b60008060008381526020019081526020016000209050858160000190805190602001906103f692919061050b565b508481600101908051906020019061040f92919061050b565b508381600201908051906020019061042892919061050b565b504281600301819055507fc8922d91fbabbe8df5d667708c678575856a856a2a465ebd9626a40ab6a16f5f826040516104619190610a4c565b60405180910390a181925050509392505050565b60008160405160200161048891906109e3565b604051602081830303815290604052805190602001206000808581526020019081526020016000206000016040516020016104c391906109fa565b604051602081830303815290604052805190602001201415905092915050565b6040518060800160405280606081526020016060815260200160608152602001600081525090565b82805461051790610bc6565b90600052602060002090601f0160209004810192826105395760008555610580565b82601f1061055257805160ff1916838001178555610580565b82800160010185558215610580579182015b8281111561057f578251825591602001919060010190610564565b5b50905061058d9190610591565b5090565b5b808211156105aa576000816000905550600101610592565b5090565b60006105c16105bc84610ac1565b610a9c565b9050828152602081018484840111156105dd576105dc610c8c565b5b6105e8848285610b84565b509392505050565b60006106036105fe84610af2565b610a9c565b90508281526020810184848401111561061f5761061e610c8c565b5b61062a848285610b84565b509392505050565b600082601f83011261064757610646610c87565b5b81356106578482602086016105ae565b91505092915050565b600082601f83011261067557610674610c87565b5b81356106858482602086016105f0565b91505092915050565b6000602082840312156106a4576106a3610c96565b5b600082013567ffffffffffffffff8111156106c2576106c1610c91565b5b6106ce84828501610660565b91505092915050565b6000806000606084860312156106f0576106ef610c96565b5b600084013567ffffffffffffffff81111561070e5761070d610c91565b5b61071a86828701610660565b935050602084013567ffffffffffffffff81111561073b5761073a610c91565b5b61074786828701610660565b925050604084013567ffffffffffffffff81111561076857610767610c91565b5b61077486828701610632565b9150509250925092565b60008060006060848603121561079757610796610c96565b5b600084013567ffffffffffffffff8111156107b5576107b4610c91565b5b6107c186828701610660565b935050602084013567ffffffffffffffff8111156107e2576107e1610c91565b5b6107ee86828701610660565b925050604084013567ffffffffffffffff81111561080f5761080e610c91565b5b61081b86828701610660565b9150509250925092565b61082e81610b70565b82525050565b600061083f82610b38565b6108498185610b43565b9350610859818560208601610b93565b61086281610c9b565b840191505092915050565b600061087882610b38565b6108828185610b65565b9350610892818560208601610b93565b80840191505092915050565b600081546108ab81610bc6565b6108b58186610b65565b945060018216600081146108d057600181146108e157610914565b60ff19831686528186019350610914565b6108ea85610b23565b60005b8381101561090c578154818901526001820191506020810190506108ed565b838801955050505b50505092915050565b600061092a601883610b54565b915061093582610cac565b602082019050919050565b600061094d600783610b54565b915061095882610cd5565b602082019050919050565b600060808301600083015184820360008601526109808282610834565b9150506020830151848203602086015261099a8282610834565b915050604083015184820360408601526109b48282610834565b91505060608301516109c960608601826109d4565b508091505092915050565b6109dd81610b7a565b82525050565b60006109ef828461086d565b915081905092915050565b6000610a06828461089e565b915081905092915050565b6000602082019050610a266000830184610825565b92915050565b60006020820190508181036000830152610a458161091d565b9050919050565b60006040820190508181036000830152610a6581610940565b9050610a746020830184610825565b92915050565b60006020820190508181036000830152610a948184610963565b905092915050565b6000610aa6610ab7565b9050610ab28282610bf8565b919050565b6000604051905090565b600067ffffffffffffffff821115610adc57610adb610c58565b5b610ae582610c9b565b9050602081019050919050565b600067ffffffffffffffff821115610b0d57610b0c610c58565b5b610b1682610c9b565b9050602081019050919050565b60008190508160005260206000209050919050565b600081519050919050565b600082825260208201905092915050565b600082825260208201905092915050565b600081905092915050565b6000819050919050565b6000819050919050565b82818337600083830152505050565b60005b83811015610bb1578082015181840152602081019050610b96565b83811115610bc0576000848401525b50505050565b60006002820490506001821680610bde57607f821691505b60208210811415610bf257610bf1610c29565b5b50919050565b610c0182610c9b565b810181811067ffffffffffffffff82111715610c2057610c1f610c58565b5b80604052505050565b7f4e487b7100000000000000000000000000000000000000000000000000000000600052602260045260246000fd5b7f4e487b7100000000000000000000000000000000000000000000000000000000600052604160045260246000fd5b600080fd5b600080fd5b600080fd5b600080fd5b6000601f19601f8301169050919050565b7f4163636f756e7420616c7265616479206578697374696e670000000000000000600082015250565b7f737563636573730000000000000000000000000000000000000000000000000060008201525056fea26469706673582212207de79e28b4727d78be528322817a4bc13e0c3fb666788e286b29d2a06ed301d164736f6c63430008070033",
					"opcodes": "PUSH1 0x80 PUSH1 0x40 MSTORE CALLVALUE DUP1 ISZERO PUSH2 0x10 JUMPI PUSH1 0x0 DUP1 REVERT JUMPDEST POP PUSH2 0xD34 DUP1 PUSH2 0x20 PUSH1 0x0 CODECOPY PUSH1 0x0 RETURN INVALID PUSH1 0x80 PUSH1 0x40 MSTORE CALLVALUE DUP1 ISZERO PUSH2 0x10 JUMPI PUSH1 0x0 DUP1 REVERT JUMPDEST POP PUSH1 0x4 CALLDATASIZE LT PUSH2 0x41 JUMPI PUSH1 0x0 CALLDATALOAD PUSH1 0xE0 SHR DUP1 PUSH4 0x174BA7FF EQ PUSH2 0x46 JUMPI DUP1 PUSH4 0x5B62132D EQ PUSH2 0x76 JUMPI DUP1 PUSH4 0xB24C908A EQ PUSH2 0xA6 JUMPI JUMPDEST PUSH1 0x0 DUP1 REVERT JUMPDEST PUSH2 0x60 PUSH1 0x4 DUP1 CALLDATASIZE SUB DUP2 ADD SWAP1 PUSH2 0x5B SWAP2 SWAP1 PUSH2 0x68E JUMP JUMPDEST PUSH2 0xD6 JUMP JUMPDEST PUSH1 0x40 MLOAD PUSH2 0x6D SWAP2 SWAP1 PUSH2 0xA7A JUMP JUMPDEST PUSH1 0x40 MLOAD DUP1 SWAP2 SUB SWAP1 RETURN JUMPDEST PUSH2 0x90 PUSH1 0x4 DUP1 CALLDATASIZE SUB DUP2 ADD SWAP1 PUSH2 0x8B SWAP2 SWAP1 PUSH2 0x6D7 JUMP JUMPDEST PUSH2 0x2EE JUMP JUMPDEST PUSH1 0x40 MLOAD PUSH2 0x9D SWAP2 SWAP1 PUSH2 0xA11 JUMP JUMPDEST PUSH1 0x40 MLOAD DUP1 SWAP2 SUB SWAP1 RETURN JUMPDEST PUSH2 0xC0 PUSH1 0x4 DUP1 CALLDATASIZE SUB DUP2 ADD SWAP1 PUSH2 0xBB SWAP2 SWAP1 PUSH2 0x77E JUMP JUMPDEST PUSH2 0x353 JUMP JUMPDEST PUSH1 0x40 MLOAD PUSH2 0xCD SWAP2 SWAP1 PUSH2 0xA11 JUMP JUMPDEST PUSH1 0x40 MLOAD DUP1 SWAP2 SUB SWAP1 RETURN JUMPDEST PUSH2 0xDE PUSH2 0x4E3 JUMP JUMPDEST PUSH1 0x0 DUP3 PUSH1 0x40 MLOAD PUSH1 0x20 ADD PUSH2 0xF1 SWAP2 SWAP1 PUSH2 0x9E3 JUMP JUMPDEST PUSH1 0x40 MLOAD PUSH1 0x20 DUP2 DUP4 SUB SUB DUP2 MSTORE SWAP1 PUSH1 0x40 MSTORE DUP1 MLOAD SWAP1 PUSH1 0x20 ADD KECCAK256 SWAP1 POP PUSH1 0x0 DUP1 DUP3 DUP2 MSTORE PUSH1 0x20 ADD SWAP1 DUP2 MSTORE PUSH1 0x20 ADD PUSH1 0x0 KECCAK256 PUSH1 0x40 MLOAD DUP1 PUSH1 0x80 ADD PUSH1 0x40 MSTORE SWAP1 DUP2 PUSH1 0x0 DUP3 ADD DUP1 SLOAD PUSH2 0x136 SWAP1 PUSH2 0xBC6 JUMP JUMPDEST DUP1 PUSH1 0x1F ADD PUSH1 0x20 DUP1 SWAP2 DIV MUL PUSH1 0x20 ADD PUSH1 0x40 MLOAD SWAP1 DUP2 ADD PUSH1 0x40 MSTORE DUP1 SWAP3 SWAP2 SWAP1 DUP2 DUP2 MSTORE PUSH1 0x20 ADD DUP3 DUP1 SLOAD PUSH2 0x162 SWAP1 PUSH2 0xBC6 JUMP JUMPDEST DUP1 ISZERO PUSH2 0x1AF JUMPI DUP1 PUSH1 0x1F LT PUSH2 0x184 JUMPI PUSH2 0x100 DUP1 DUP4 SLOAD DIV MUL DUP4 MSTORE SWAP2 PUSH1 0x20 ADD SWAP2 PUSH2 0x1AF JUMP JUMPDEST DUP3 ADD SWAP2 SWAP1 PUSH1 0x0 MSTORE PUSH1 0x20 PUSH1 0x0 KECCAK256 SWAP1 JUMPDEST DUP2 SLOAD DUP2 MSTORE SWAP1 PUSH1 0x1 ADD SWAP1 PUSH1 0x20 ADD DUP1 DUP4 GT PUSH2 0x192 JUMPI DUP3 SWAP1 SUB PUSH1 0x1F AND DUP3 ADD SWAP2 JUMPDEST POP POP POP POP POP DUP2 MSTORE PUSH1 0x20 ADD PUSH1 0x1 DUP3 ADD DUP1 SLOAD PUSH2 0x1C8 SWAP1 PUSH2 0xBC6 JUMP JUMPDEST DUP1 PUSH1 0x1F ADD PUSH1 0x20 DUP1 SWAP2 DIV MUL PUSH1 0x20 ADD PUSH1 0x40 MLOAD SWAP1 DUP2 ADD PUSH1 0x40 MSTORE DUP1 SWAP3 SWAP2 SWAP1 DUP2 DUP2 MSTORE PUSH1 0x20 ADD DUP3 DUP1 SLOAD PUSH2 0x1F4 SWAP1 PUSH2 0xBC6 JUMP JUMPDEST DUP1 ISZERO PUSH2 0x241 JUMPI DUP1 PUSH1 0x1F LT PUSH2 0x216 JUMPI PUSH2 0x100 DUP1 DUP4 SLOAD DIV MUL DUP4 MSTORE SWAP2 PUSH1 0x20 ADD SWAP2 PUSH2 0x241 JUMP JUMPDEST DUP3 ADD SWAP2 SWAP1 PUSH1 0x0 MSTORE PUSH1 0x20 PUSH1 0x0 KECCAK256 SWAP1 JUMPDEST DUP2 SLOAD DUP2 MSTORE SWAP1 PUSH1 0x1 ADD SWAP1 PUSH1 0x20 ADD DUP1 DUP4 GT PUSH2 0x224 JUMPI DUP3 SWAP1 SUB PUSH1 0x1F AND DUP3 ADD SWAP2 JUMPDEST POP POP POP POP POP DUP2 MSTORE PUSH1 0x20 ADD PUSH1 0x2 DUP3 ADD DUP1 SLOAD PUSH2 0x25A SWAP1 PUSH2 0xBC6 JUMP JUMPDEST DUP1 PUSH1 0x1F ADD PUSH1 0x20 DUP1 SWAP2 DIV MUL PUSH1 0x20 ADD PUSH1 0x40 MLOAD SWAP1 DUP2 ADD PUSH1 0x40 MSTORE DUP1 SWAP3 SWAP2 SWAP1 DUP2 DUP2 MSTORE PUSH1 0x20 ADD DUP3 DUP1 SLOAD PUSH2 0x286 SWAP1 PUSH2 0xBC6 JUMP JUMPDEST DUP1 ISZERO PUSH2 0x2D3 JUMPI DUP1 PUSH1 0x1F LT PUSH2 0x2A8 JUMPI PUSH2 0x100 DUP1 DUP4 SLOAD DIV MUL DUP4 MSTORE SWAP2 PUSH1 0x20 ADD SWAP2 PUSH2 0x2D3 JUMP JUMPDEST DUP3 ADD SWAP2 SWAP1 PUSH1 0x0 MSTORE PUSH1 0x20 PUSH1 0x0 KECCAK256 SWAP1 JUMPDEST DUP2 SLOAD DUP2 MSTORE SWAP1 PUSH1 0x1 ADD SWAP1 PUSH1 0x20 ADD DUP1 DUP4 GT PUSH2 0x2B6 JUMPI DUP3 SWAP1 SUB PUSH1 0x1F AND DUP3 ADD SWAP2 JUMPDEST POP POP POP POP POP DUP2 MSTORE PUSH1 0x20 ADD PUSH1 0x3 DUP3 ADD SLOAD DUP2 MSTORE POP POP SWAP2 POP POP SWAP2 SWAP1 POP JUMP JUMPDEST PUSH1 0x0 DUP1 DUP5 PUSH1 0x40 MLOAD PUSH1 0x20 ADD PUSH2 0x302 SWAP2 SWAP1 PUSH2 0x9E3 JUMP JUMPDEST PUSH1 0x40 MLOAD PUSH1 0x20 DUP2 DUP4 SUB SUB DUP2 MSTORE SWAP1 PUSH1 0x40 MSTORE DUP1 MLOAD SWAP1 PUSH1 0x20 ADD KECCAK256 SWAP1 POP PUSH1 0x0 PUSH1 0x1 PUSH1 0x0 DUP4 DUP2 MSTORE PUSH1 0x20 ADD SWAP1 DUP2 MSTORE PUSH1 0x20 ADD PUSH1 0x0 KECCAK256 SWAP1 POP DUP5 DUP2 PUSH1 0x0 ADD SWAP1 DUP1 MLOAD SWAP1 PUSH1 0x20 ADD SWAP1 PUSH2 0x349 SWAP3 SWAP2 SWAP1 PUSH2 0x50B JUMP JUMPDEST POP POP POP SWAP4 SWAP3 POP POP POP JUMP JUMPDEST PUSH1 0x0 DUP1 DUP5 PUSH1 0x40 MLOAD PUSH1 0x20 ADD PUSH2 0x367 SWAP2 SWAP1 PUSH2 0x9E3 JUMP JUMPDEST PUSH1 0x40 MLOAD PUSH1 0x20 DUP2 DUP4 SUB SUB DUP2 MSTORE SWAP1 PUSH1 0x40 MSTORE DUP1 MLOAD SWAP1 PUSH1 0x20 ADD KECCAK256 SWAP1 POP PUSH2 0x389 DUP2 DUP7 PUSH2 0x475 JUMP JUMPDEST PUSH2 0x3C8 JUMPI PUSH1 0x40 MLOAD PUSH32 0x8C379A000000000000000000000000000000000000000000000000000000000 DUP2 MSTORE PUSH1 0x4 ADD PUSH2 0x3BF SWAP1 PUSH2 0xA2C JUMP JUMPDEST PUSH1 0x40 MLOAD DUP1 SWAP2 SUB SWAP1 REVERT JUMPDEST PUSH1 0x0 DUP1 PUSH1 0x0 DUP4 DUP2 MSTORE PUSH1 0x20 ADD SWAP1 DUP2 MSTORE PUSH1 0x20 ADD PUSH1 0x0 KECCAK256 SWAP1 POP DUP6 DUP2 PUSH1 0x0 ADD SWAP1 DUP1 MLOAD SWAP1 PUSH1 0x20 ADD SWAP1 PUSH2 0x3F6 SWAP3 SWAP2 SWAP1 PUSH2 0x50B JUMP JUMPDEST POP DUP5 DUP2 PUSH1 0x1 ADD SWAP1 DUP1 MLOAD SWAP1 PUSH1 0x20 ADD SWAP1 PUSH2 0x40F SWAP3 SWAP2 SWAP1 PUSH2 0x50B JUMP JUMPDEST POP DUP4 DUP2 PUSH1 0x2 ADD SWAP1 DUP1 MLOAD SWAP1 PUSH1 0x20 ADD SWAP1 PUSH2 0x428 SWAP3 SWAP2 SWAP1 PUSH2 0x50B JUMP JUMPDEST POP TIMESTAMP DUP2 PUSH1 0x3 ADD DUP2 SWAP1 SSTORE POP PUSH32 0xC8922D91FBABBE8DF5D667708C678575856A856A2A465EBD9626A40AB6A16F5F DUP3 PUSH1 0x40 MLOAD PUSH2 0x461 SWAP2 SWAP1 PUSH2 0xA4C JUMP JUMPDEST PUSH1 0x40 MLOAD DUP1 SWAP2 SUB SWAP1 LOG1 DUP2 SWAP3 POP POP POP SWAP4 SWAP3 POP POP POP JUMP JUMPDEST PUSH1 0x0 DUP2 PUSH1 0x40 MLOAD PUSH1 0x20 ADD PUSH2 0x488 SWAP2 SWAP1 PUSH2 0x9E3 JUMP JUMPDEST PUSH1 0x40 MLOAD PUSH1 0x20 DUP2 DUP4 SUB SUB DUP2 MSTORE SWAP1 PUSH1 0x40 MSTORE DUP1 MLOAD SWAP1 PUSH1 0x20 ADD KECCAK256 PUSH1 0x0 DUP1 DUP6 DUP2 MSTORE PUSH1 0x20 ADD SWAP1 DUP2 MSTORE PUSH1 0x20 ADD PUSH1 0x0 KECCAK256 PUSH1 0x0 ADD PUSH1 0x40 MLOAD PUSH1 0x20 ADD PUSH2 0x4C3 SWAP2 SWAP1 PUSH2 0x9FA JUMP JUMPDEST PUSH1 0x40 MLOAD PUSH1 0x20 DUP2 DUP4 SUB SUB DUP2 MSTORE SWAP1 PUSH1 0x40 MSTORE DUP1 MLOAD SWAP1 PUSH1 0x20 ADD KECCAK256 EQ ISZERO SWAP1 POP SWAP3 SWAP2 POP POP JUMP JUMPDEST PUSH1 0x40 MLOAD DUP1 PUSH1 0x80 ADD PUSH1 0x40 MSTORE DUP1 PUSH1 0x60 DUP2 MSTORE PUSH1 0x20 ADD PUSH1 0x60 DUP2 MSTORE PUSH1 0x20 ADD PUSH1 0x60 DUP2 MSTORE PUSH1 0x20 ADD PUSH1 0x0 DUP2 MSTORE POP SWAP1 JUMP JUMPDEST DUP3 DUP1 SLOAD PUSH2 0x517 SWAP1 PUSH2 0xBC6 JUMP JUMPDEST SWAP1 PUSH1 0x0 MSTORE PUSH1 0x20 PUSH1 0x0 KECCAK256 SWAP1 PUSH1 0x1F ADD PUSH1 0x20 SWAP1 DIV DUP2 ADD SWAP3 DUP3 PUSH2 0x539 JUMPI PUSH1 0x0 DUP6 SSTORE PUSH2 0x580 JUMP JUMPDEST DUP3 PUSH1 0x1F LT PUSH2 0x552 JUMPI DUP1 MLOAD PUSH1 0xFF NOT AND DUP4 DUP1 ADD OR DUP6 SSTORE PUSH2 0x580 JUMP JUMPDEST DUP3 DUP1 ADD PUSH1 0x1 ADD DUP6 SSTORE DUP3 ISZERO PUSH2 0x580 JUMPI SWAP2 DUP3 ADD JUMPDEST DUP3 DUP2 GT ISZERO PUSH2 0x57F JUMPI DUP3 MLOAD DUP3 SSTORE SWAP2 PUSH1 0x20 ADD SWAP2 SWAP1 PUSH1 0x1 ADD SWAP1 PUSH2 0x564 JUMP JUMPDEST JUMPDEST POP SWAP1 POP PUSH2 0x58D SWAP2 SWAP1 PUSH2 0x591 JUMP JUMPDEST POP SWAP1 JUMP JUMPDEST JUMPDEST DUP1 DUP3 GT ISZERO PUSH2 0x5AA JUMPI PUSH1 0x0 DUP2 PUSH1 0x0 SWAP1 SSTORE POP PUSH1 0x1 ADD PUSH2 0x592 JUMP JUMPDEST POP SWAP1 JUMP JUMPDEST PUSH1 0x0 PUSH2 0x5C1 PUSH2 0x5BC DUP5 PUSH2 0xAC1 JUMP JUMPDEST PUSH2 0xA9C JUMP JUMPDEST SWAP1 POP DUP3 DUP2 MSTORE PUSH1 0x20 DUP2 ADD DUP5 DUP5 DUP5 ADD GT ISZERO PUSH2 0x5DD JUMPI PUSH2 0x5DC PUSH2 0xC8C JUMP JUMPDEST JUMPDEST PUSH2 0x5E8 DUP5 DUP3 DUP6 PUSH2 0xB84 JUMP JUMPDEST POP SWAP4 SWAP3 POP POP POP JUMP JUMPDEST PUSH1 0x0 PUSH2 0x603 PUSH2 0x5FE DUP5 PUSH2 0xAF2 JUMP JUMPDEST PUSH2 0xA9C JUMP JUMPDEST SWAP1 POP DUP3 DUP2 MSTORE PUSH1 0x20 DUP2 ADD DUP5 DUP5 DUP5 ADD GT ISZERO PUSH2 0x61F JUMPI PUSH2 0x61E PUSH2 0xC8C JUMP JUMPDEST JUMPDEST PUSH2 0x62A DUP5 DUP3 DUP6 PUSH2 0xB84 JUMP JUMPDEST POP SWAP4 SWAP3 POP POP POP JUMP JUMPDEST PUSH1 0x0 DUP3 PUSH1 0x1F DUP4 ADD SLT PUSH2 0x647 JUMPI PUSH2 0x646 PUSH2 0xC87 JUMP JUMPDEST JUMPDEST DUP2 CALLDATALOAD PUSH2 0x657 DUP5 DUP3 PUSH1 0x20 DUP7 ADD PUSH2 0x5AE JUMP JUMPDEST SWAP2 POP POP SWAP3 SWAP2 POP POP JUMP JUMPDEST PUSH1 0x0 DUP3 PUSH1 0x1F DUP4 ADD SLT PUSH2 0x675 JUMPI PUSH2 0x674 PUSH2 0xC87 JUMP JUMPDEST JUMPDEST DUP2 CALLDATALOAD PUSH2 0x685 DUP5 DUP3 PUSH1 0x20 DUP7 ADD PUSH2 0x5F0 JUMP JUMPDEST SWAP2 POP POP SWAP3 SWAP2 POP POP JUMP JUMPDEST PUSH1 0x0 PUSH1 0x20 DUP3 DUP5 SUB SLT ISZERO PUSH2 0x6A4 JUMPI PUSH2 0x6A3 PUSH2 0xC96 JUMP JUMPDEST JUMPDEST PUSH1 0x0 DUP3 ADD CALLDATALOAD PUSH8 0xFFFFFFFFFFFFFFFF DUP2 GT ISZERO PUSH2 0x6C2 JUMPI PUSH2 0x6C1 PUSH2 0xC91 JUMP JUMPDEST JUMPDEST PUSH2 0x6CE DUP5 DUP3 DUP6 ADD PUSH2 0x660 JUMP JUMPDEST SWAP2 POP POP SWAP3 SWAP2 POP POP JUMP JUMPDEST PUSH1 0x0 DUP1 PUSH1 0x0 PUSH1 0x60 DUP5 DUP7 SUB SLT ISZERO PUSH2 0x6F0 JUMPI PUSH2 0x6EF PUSH2 0xC96 JUMP JUMPDEST JUMPDEST PUSH1 0x0 DUP5 ADD CALLDATALOAD PUSH8 0xFFFFFFFFFFFFFFFF DUP2 GT ISZERO PUSH2 0x70E JUMPI PUSH2 0x70D PUSH2 0xC91 JUMP JUMPDEST JUMPDEST PUSH2 0x71A DUP7 DUP3 DUP8 ADD PUSH2 0x660 JUMP JUMPDEST SWAP4 POP POP PUSH1 0x20 DUP5 ADD CALLDATALOAD PUSH8 0xFFFFFFFFFFFFFFFF DUP2 GT ISZERO PUSH2 0x73B JUMPI PUSH2 0x73A PUSH2 0xC91 JUMP JUMPDEST JUMPDEST PUSH2 0x747 DUP7 DUP3 DUP8 ADD PUSH2 0x660 JUMP JUMPDEST SWAP3 POP POP PUSH1 0x40 DUP5 ADD CALLDATALOAD PUSH8 0xFFFFFFFFFFFFFFFF DUP2 GT ISZERO PUSH2 0x768 JUMPI PUSH2 0x767 PUSH2 0xC91 JUMP JUMPDEST JUMPDEST PUSH2 0x774 DUP7 DUP3 DUP8 ADD PUSH2 0x632 JUMP JUMPDEST SWAP2 POP POP SWAP3 POP SWAP3 POP SWAP3 JUMP JUMPDEST PUSH1 0x0 DUP1 PUSH1 0x0 PUSH1 0x60 DUP5 DUP7 SUB SLT ISZERO PUSH2 0x797 JUMPI PUSH2 0x796 PUSH2 0xC96 JUMP JUMPDEST JUMPDEST PUSH1 0x0 DUP5 ADD CALLDATALOAD PUSH8 0xFFFFFFFFFFFFFFFF DUP2 GT ISZERO PUSH2 0x7B5 JUMPI PUSH2 0x7B4 PUSH2 0xC91 JUMP JUMPDEST JUMPDEST PUSH2 0x7C1 DUP7 DUP3 DUP8 ADD PUSH2 0x660 JUMP JUMPDEST SWAP4 POP POP PUSH1 0x20 DUP5 ADD CALLDATALOAD PUSH8 0xFFFFFFFFFFFFFFFF DUP2 GT ISZERO PUSH2 0x7E2 JUMPI PUSH2 0x7E1 PUSH2 0xC91 JUMP JUMPDEST JUMPDEST PUSH2 0x7EE DUP7 DUP3 DUP8 ADD PUSH2 0x660 JUMP JUMPDEST SWAP3 POP POP PUSH1 0x40 DUP5 ADD CALLDATALOAD PUSH8 0xFFFFFFFFFFFFFFFF DUP2 GT ISZERO PUSH2 0x80F JUMPI PUSH2 0x80E PUSH2 0xC91 JUMP JUMPDEST JUMPDEST PUSH2 0x81B DUP7 DUP3 DUP8 ADD PUSH2 0x660 JUMP JUMPDEST SWAP2 POP POP SWAP3 POP SWAP3 POP SWAP3 JUMP JUMPDEST PUSH2 0x82E DUP2 PUSH2 0xB70 JUMP JUMPDEST DUP3 MSTORE POP POP JUMP JUMPDEST PUSH1 0x0 PUSH2 0x83F DUP3 PUSH2 0xB38 JUMP JUMPDEST PUSH2 0x849 DUP2 DUP6 PUSH2 0xB43 JUMP JUMPDEST SWAP4 POP PUSH2 0x859 DUP2 DUP6 PUSH1 0x20 DUP7 ADD PUSH2 0xB93 JUMP JUMPDEST PUSH2 0x862 DUP2 PUSH2 0xC9B JUMP JUMPDEST DUP5 ADD SWAP2 POP POP SWAP3 SWAP2 POP POP JUMP JUMPDEST PUSH1 0x0 PUSH2 0x878 DUP3 PUSH2 0xB38 JUMP JUMPDEST PUSH2 0x882 DUP2 DUP6 PUSH2 0xB65 JUMP JUMPDEST SWAP4 POP PUSH2 0x892 DUP2 DUP6 PUSH1 0x20 DUP7 ADD PUSH2 0xB93 JUMP JUMPDEST DUP1 DUP5 ADD SWAP2 POP POP SWAP3 SWAP2 POP POP JUMP JUMPDEST PUSH1 0x0 DUP2 SLOAD PUSH2 0x8AB DUP2 PUSH2 0xBC6 JUMP JUMPDEST PUSH2 0x8B5 DUP2 DUP7 PUSH2 0xB65 JUMP JUMPDEST SWAP5 POP PUSH1 0x1 DUP3 AND PUSH1 0x0 DUP2 EQ PUSH2 0x8D0 JUMPI PUSH1 0x1 DUP2 EQ PUSH2 0x8E1 JUMPI PUSH2 0x914 JUMP JUMPDEST PUSH1 0xFF NOT DUP4 AND DUP7 MSTORE DUP2 DUP7 ADD SWAP4 POP PUSH2 0x914 JUMP JUMPDEST PUSH2 0x8EA DUP6 PUSH2 0xB23 JUMP JUMPDEST PUSH1 0x0 JUMPDEST DUP4 DUP2 LT ISZERO PUSH2 0x90C JUMPI DUP2 SLOAD DUP2 DUP10 ADD MSTORE PUSH1 0x1 DUP3 ADD SWAP2 POP PUSH1 0x20 DUP2 ADD SWAP1 POP PUSH2 0x8ED JUMP JUMPDEST DUP4 DUP9 ADD SWAP6 POP POP POP JUMPDEST POP POP POP SWAP3 SWAP2 POP POP JUMP JUMPDEST PUSH1 0x0 PUSH2 0x92A PUSH1 0x18 DUP4 PUSH2 0xB54 JUMP JUMPDEST SWAP2 POP PUSH2 0x935 DUP3 PUSH2 0xCAC JUMP JUMPDEST PUSH1 0x20 DUP3 ADD SWAP1 POP SWAP2 SWAP1 POP JUMP JUMPDEST PUSH1 0x0 PUSH2 0x94D PUSH1 0x7 DUP4 PUSH2 0xB54 JUMP JUMPDEST SWAP2 POP PUSH2 0x958 DUP3 PUSH2 0xCD5 JUMP JUMPDEST PUSH1 0x20 DUP3 ADD SWAP1 POP SWAP2 SWAP1 POP JUMP JUMPDEST PUSH1 0x0 PUSH1 0x80 DUP4 ADD PUSH1 0x0 DUP4 ADD MLOAD DUP5 DUP3 SUB PUSH1 0x0 DUP7 ADD MSTORE PUSH2 0x980 DUP3 DUP3 PUSH2 0x834 JUMP JUMPDEST SWAP2 POP POP PUSH1 0x20 DUP4 ADD MLOAD DUP5 DUP3 SUB PUSH1 0x20 DUP7 ADD MSTORE PUSH2 0x99A DUP3 DUP3 PUSH2 0x834 JUMP JUMPDEST SWAP2 POP POP PUSH1 0x40 DUP4 ADD MLOAD DUP5 DUP3 SUB PUSH1 0x40 DUP7 ADD MSTORE PUSH2 0x9B4 DUP3 DUP3 PUSH2 0x834 JUMP JUMPDEST SWAP2 POP POP PUSH1 0x60 DUP4 ADD MLOAD PUSH2 0x9C9 PUSH1 0x60 DUP7 ADD DUP3 PUSH2 0x9D4 JUMP JUMPDEST POP DUP1 SWAP2 POP POP SWAP3 SWAP2 POP POP JUMP JUMPDEST PUSH2 0x9DD DUP2 PUSH2 0xB7A JUMP JUMPDEST DUP3 MSTORE POP POP JUMP JUMPDEST PUSH1 0x0 PUSH2 0x9EF DUP3 DUP5 PUSH2 0x86D JUMP JUMPDEST SWAP2 POP DUP2 SWAP1 POP SWAP3 SWAP2 POP POP JUMP JUMPDEST PUSH1 0x0 PUSH2 0xA06 DUP3 DUP5 PUSH2 0x89E JUMP JUMPDEST SWAP2 POP DUP2 SWAP1 POP SWAP3 SWAP2 POP POP JUMP JUMPDEST PUSH1 0x0 PUSH1 0x20 DUP3 ADD SWAP1 POP PUSH2 0xA26 PUSH1 0x0 DUP4 ADD DUP5 PUSH2 0x825 JUMP JUMPDEST SWAP3 SWAP2 POP POP JUMP JUMPDEST PUSH1 0x0 PUSH1 0x20 DUP3 ADD SWAP1 POP DUP2 DUP2 SUB PUSH1 0x0 DUP4 ADD MSTORE PUSH2 0xA45 DUP2 PUSH2 0x91D JUMP JUMPDEST SWAP1 POP SWAP2 SWAP1 POP JUMP JUMPDEST PUSH1 0x0 PUSH1 0x40 DUP3 ADD SWAP1 POP DUP2 DUP2 SUB PUSH1 0x0 DUP4 ADD MSTORE PUSH2 0xA65 DUP2 PUSH2 0x940 JUMP JUMPDEST SWAP1 POP PUSH2 0xA74 PUSH1 0x20 DUP4 ADD DUP5 PUSH2 0x825 JUMP JUMPDEST SWAP3 SWAP2 POP POP JUMP JUMPDEST PUSH1 0x0 PUSH1 0x20 DUP3 ADD SWAP1 POP DUP2 DUP2 SUB PUSH1 0x0 DUP4 ADD MSTORE PUSH2 0xA94 DUP2 DUP5 PUSH2 0x963 JUMP JUMPDEST SWAP1 POP SWAP3 SWAP2 POP POP JUMP JUMPDEST PUSH1 0x0 PUSH2 0xAA6 PUSH2 0xAB7 JUMP JUMPDEST SWAP1 POP PUSH2 0xAB2 DUP3 DUP3 PUSH2 0xBF8 JUMP JUMPDEST SWAP2 SWAP1 POP JUMP JUMPDEST PUSH1 0x0 PUSH1 0x40 MLOAD SWAP1 POP SWAP1 JUMP JUMPDEST PUSH1 0x0 PUSH8 0xFFFFFFFFFFFFFFFF DUP3 GT ISZERO PUSH2 0xADC JUMPI PUSH2 0xADB PUSH2 0xC58 JUMP JUMPDEST JUMPDEST PUSH2 0xAE5 DUP3 PUSH2 0xC9B JUMP JUMPDEST SWAP1 POP PUSH1 0x20 DUP2 ADD SWAP1 POP SWAP2 SWAP1 POP JUMP JUMPDEST PUSH1 0x0 PUSH8 0xFFFFFFFFFFFFFFFF DUP3 GT ISZERO PUSH2 0xB0D JUMPI PUSH2 0xB0C PUSH2 0xC58 JUMP JUMPDEST JUMPDEST PUSH2 0xB16 DUP3 PUSH2 0xC9B JUMP JUMPDEST SWAP1 POP PUSH1 0x20 DUP2 ADD SWAP1 POP SWAP2 SWAP1 POP JUMP JUMPDEST PUSH1 0x0 DUP2 SWAP1 POP DUP2 PUSH1 0x0 MSTORE PUSH1 0x20 PUSH1 0x0 KECCAK256 SWAP1 POP SWAP2 SWAP1 POP JUMP JUMPDEST PUSH1 0x0 DUP2 MLOAD SWAP1 POP SWAP2 SWAP1 POP JUMP JUMPDEST PUSH1 0x0 DUP3 DUP3 MSTORE PUSH1 0x20 DUP3 ADD SWAP1 POP SWAP3 SWAP2 POP POP JUMP JUMPDEST PUSH1 0x0 DUP3 DUP3 MSTORE PUSH1 0x20 DUP3 ADD SWAP1 POP SWAP3 SWAP2 POP POP JUMP JUMPDEST PUSH1 0x0 DUP2 SWAP1 POP SWAP3 SWAP2 POP POP JUMP JUMPDEST PUSH1 0x0 DUP2 SWAP1 POP SWAP2 SWAP1 POP JUMP JUMPDEST PUSH1 0x0 DUP2 SWAP1 POP SWAP2 SWAP1 POP JUMP JUMPDEST DUP3 DUP2 DUP4 CALLDATACOPY PUSH1 0x0 DUP4 DUP4 ADD MSTORE POP POP POP JUMP JUMPDEST PUSH1 0x0 JUMPDEST DUP4 DUP2 LT ISZERO PUSH2 0xBB1 JUMPI DUP1 DUP3 ADD MLOAD DUP2 DUP5 ADD MSTORE PUSH1 0x20 DUP2 ADD SWAP1 POP PUSH2 0xB96 JUMP JUMPDEST DUP4 DUP2 GT ISZERO PUSH2 0xBC0 JUMPI PUSH1 0x0 DUP5 DUP5 ADD MSTORE JUMPDEST POP POP POP POP JUMP JUMPDEST PUSH1 0x0 PUSH1 0x2 DUP3 DIV SWAP1 POP PUSH1 0x1 DUP3 AND DUP1 PUSH2 0xBDE JUMPI PUSH1 0x7F DUP3 AND SWAP2 POP JUMPDEST PUSH1 0x20 DUP3 LT DUP2 EQ ISZERO PUSH2 0xBF2 JUMPI PUSH2 0xBF1 PUSH2 0xC29 JUMP JUMPDEST JUMPDEST POP SWAP2 SWAP1 POP JUMP JUMPDEST PUSH2 0xC01 DUP3 PUSH2 0xC9B JUMP JUMPDEST DUP2 ADD DUP2 DUP2 LT PUSH8 0xFFFFFFFFFFFFFFFF DUP3 GT OR ISZERO PUSH2 0xC20 JUMPI PUSH2 0xC1F PUSH2 0xC58 JUMP JUMPDEST JUMPDEST DUP1 PUSH1 0x40 MSTORE POP POP POP JUMP JUMPDEST PUSH32 0x4E487B7100000000000000000000000000000000000000000000000000000000 PUSH1 0x0 MSTORE PUSH1 0x22 PUSH1 0x4 MSTORE PUSH1 0x24 PUSH1 0x0 REVERT JUMPDEST PUSH32 0x4E487B7100000000000000000000000000000000000000000000000000000000 PUSH1 0x0 MSTORE PUSH1 0x41 PUSH1 0x4 MSTORE PUSH1 0x24 PUSH1 0x0 REVERT JUMPDEST PUSH1 0x0 DUP1 REVERT JUMPDEST PUSH1 0x0 DUP1 REVERT JUMPDEST PUSH1 0x0 DUP1 REVERT JUMPDEST PUSH1 0x0 DUP1 REVERT JUMPDEST PUSH1 0x0 PUSH1 0x1F NOT PUSH1 0x1F DUP4 ADD AND SWAP1 POP SWAP2 SWAP1 POP JUMP JUMPDEST PUSH32 0x4163636F756E7420616C7265616479206578697374696E670000000000000000 PUSH1 0x0 DUP3 ADD MSTORE POP JUMP JUMPDEST PUSH32 0x7375636365737300000000000000000000000000000000000000000000000000 PUSH1 0x0 DUP3 ADD MSTORE POP JUMP INVALID LOG2 PUSH5 0x6970667358 0x22 SLT KECCAK256 PUSH30 0xE79E28B4727D78BE528322817A4BC13E0C3FB666788E286B29D2A06ED301 0xD1 PUSH5 0x736F6C6343 STOP ADDMOD SMOD STOP CALLER "
				},
				"gasEstimates": {
					"creation": {
						"codeDepositCost": "676000",
						"executionCost": "708",
						"totalCost": "676708"
					},
					"external": {
						"add_account(string,string,string)": "infinite",
						"add_transaction(string,string,bytes)": "infinite",
						"get_account(string)": "infinite"
					},
					"internal": {
						"account_checker(bytes32,string memory)": "infinite"
					}
				},
				"methodIdentifiers": {
					"add_account(string,string,string)": "b24c908a",
					"add_transaction(string,string,bytes)": "5b62132d",
					"get_account(string)": "174ba7ff"
				}
			},
			"storageLayout": {
				"storage": [
					{
						"astId": 21,
						"contract": "contracts/Halal.sol:Halal",
						"label": "mappingAccount",
						"offset": 0,
						"slot": "0",
						"type": "t_mapping(t_bytes32,t_struct(accountData)16_storage)"
					},
					{
						"astId": 31,
						"contract": "contracts/Halal.sol:Halal",
						"label": "mappingTransaction",
						"offset": 0,
						"slot": "1",
						"type": "t_mapping(t_bytes32,t_struct(transaction)26_storage)"
					}
				],
				"types": {
					"t_bytes32": {
						"encoding": "inplace",
						"label": "bytes32",
						"numberOfBytes": "32"
					},
					"t_bytes_storage": {
						"encoding": "bytes",
						"label": "bytes",
						"numberOfBytes": "32"
					},
					"t_mapping(t_bytes32,t_struct(accountData)16_storage)": {
						"encoding": "mapping",
						"key": "t_bytes32",
						"label": "mapping(bytes32 => struct Halal.accountData)",
						"numberOfBytes": "32",
						"value": "t_struct(accountData)16_storage"
					},
					"t_mapping(t_bytes32,t_struct(transaction)26_storage)": {
						"encoding": "mapping",
						"key": "t_bytes32",
						"label": "mapping(bytes32 => struct Halal.transaction)",
						"numberOfBytes": "32",
						"value": "t_struct(transaction)26_storage"
					},
					"t_string_storage": {
						"encoding": "bytes",
						"label": "string",
						"numberOfBytes": "32"
					},
					"t_struct(accountData)16_storage": {
						"encoding": "inplace",
						"label": "struct Halal.accountData",
						"members": [
							{
								"astId": 9,
								"contract": "contracts/Halal.sol:Halal",
								"label": "account_id",
								"offset": 0,
								"slot": "0",
								"type": "t_string_storage"
							},
							{
								"astId": 11,
								"contract": "contracts/Halal.sol:Halal",
								"label": "name",
								"offset": 0,
								"slot": "1",
								"type": "t_string_storage"
							},
							{
								"astId": 13,
								"contract": "contracts/Halal.sol:Halal",
								"label": "role",
								"offset": 0,
								"slot": "2",
								"type": "t_string_storage"
							},
							{
								"astId": 15,
								"contract": "contracts/Halal.sol:Halal",
								"label": "created_at",
								"offset": 0,
								"slot": "3",
								"type": "t_uint256"
							}
						],
						"numberOfBytes": "128"
					},
					"t_struct(transaction)26_storage": {
						"encoding": "inplace",
						"label": "struct Halal.transaction",
						"members": [
							{
								"astId": 23,
								"contract": "contracts/Halal.sol:Halal",
								"label": "umkm_id",
								"offset": 0,
								"slot": "0",
								"type": "t_string_storage"
							},
							{
								"astId": 25,
								"contract": "contracts/Halal.sol:Halal",
								"label": "data",
								"offset": 0,
								"slot": "1",
								"type": "t_bytes_storage"
							}
						],
						"numberOfBytes": "64"
					},
					"t_uint256": {
						"encoding": "inplace",
						"label": "uint256",
						"numberOfBytes": "32"
					}
				}
			},
			"userdoc": {
				"kind": "user",
				"methods": {},
				"version": 1
			}
		}
	}
}