{
	"contracts/Halal.sol": {
		"Halal": {
			"abi": [
				{
					"anonymous": false,
					"inputs": [
						{
							"indexed": false,
							"internalType": "string",
							"name": "status",
							"type": "string"
						},
						{
							"indexed": false,
							"internalType": "bytes32",
							"name": "message",
							"type": "bytes32"
						}
					],
					"name": "success",
					"type": "event"
				},
				{
					"inputs": [
						{
							"internalType": "string",
							"name": "account_id",
							"type": "string"
						},
						{
							"internalType": "string",
							"name": "name",
							"type": "string"
						},
						{
							"internalType": "string",
							"name": "role",
							"type": "string"
						}
					],
					"name": "add_account",
					"outputs": [
						{
							"internalType": "bytes32",
							"name": "",
							"type": "bytes32"
						}
					],
					"stateMutability": "nonpayable",
					"type": "function"
				},
				{
					"inputs": [
						{
							"internalType": "string",
							"name": "umkm_id",
							"type": "string"
						},
						{
							"internalType": "string",
							"name": "cert_id",
							"type": "string"
						},
						{
							"internalType": "uint256",
							"name": "expired_at",
							"type": "uint256"
						}
					],
					"name": "add_certificate",
					"outputs": [],
					"stateMutability": "nonpayable",
					"type": "function"
				},
				{
					"inputs": [
						{
							"internalType": "string",
							"name": "transaction_id",
							"type": "string"
						},
						{
							"internalType": "string",
							"name": "user_id",
							"type": "string"
						},
						{
							"internalType": "bytes",
							"name": "data",
							"type": "bytes"
						}
					],
					"name": "add_transaction",
					"outputs": [
						{
							"internalType": "bytes32",
							"name": "",
							"type": "bytes32"
						}
					],
					"stateMutability": "view",
					"type": "function"
				},
				{
					"inputs": [
						{
							"internalType": "string",
							"name": "account_id",
							"type": "string"
						}
					],
					"name": "get_account",
					"outputs": [
						{
							"components": [
								{
									"internalType": "string",
									"name": "account_id",
									"type": "string"
								},
								{
									"internalType": "string",
									"name": "name",
									"type": "string"
								},
								{
									"internalType": "string",
									"name": "role",
									"type": "string"
								},
								{
									"internalType": "uint256",
									"name": "created_at",
									"type": "uint256"
								}
							],
							"internalType": "struct Halal.accountData",
							"name": "",
							"type": "tuple"
						}
					],
					"stateMutability": "view",
					"type": "function"
				},
				{
					"inputs": [
						{
							"internalType": "string",
							"name": "transaction_id",
							"type": "string"
						}
					],
					"name": "get_transaction",
					"outputs": [
						{
							"components": [
								{
									"internalType": "string",
									"name": "user_id",
									"type": "string"
								},
								{
									"internalType": "bytes",
									"name": "data",
									"type": "bytes"
								}
							],
							"internalType": "struct Halal.transaction",
							"name": "",
							"type": "tuple"
						}
					],
					"stateMutability": "view",
					"type": "function"
				}
			],
			"devdoc": {
				"kind": "dev",
				"methods": {},
				"version": 1
			},
			"evm": {
				"assembly": "    /* \"contracts/Halal.sol\":62:2576  contract Halal{... */\n  mstore(0x40, 0x80)\n  callvalue\n  dup1\n  iszero\n  tag_1\n  jumpi\n  0x00\n  dup1\n  revert\ntag_1:\n  pop\n  dataSize(sub_0)\n  dup1\n  dataOffset(sub_0)\n  0x00\n  codecopy\n  0x00\n  return\nstop\n\nsub_0: assembly {\n        /* \"contracts/Halal.sol\":62:2576  contract Halal{... */\n      mstore(0x40, 0x80)\n      callvalue\n      dup1\n      iszero\n      tag_1\n      jumpi\n      0x00\n      dup1\n      revert\n    tag_1:\n      pop\n      jumpi(tag_2, lt(calldatasize, 0x04))\n      shr(0xe0, calldataload(0x00))\n      dup1\n      0x174ba7ff\n      eq\n      tag_3\n      jumpi\n      dup1\n      0x5b62132d\n      eq\n      tag_4\n      jumpi\n      dup1\n      0xb24c908a\n      eq\n      tag_5\n      jumpi\n      dup1\n      0xc3efbe38\n      eq\n      tag_6\n      jumpi\n      dup1\n      0xca5e208f\n      eq\n      tag_7\n      jumpi\n    tag_2:\n      0x00\n      dup1\n      revert\n        /* \"contracts/Halal.sol\":1415:1605  function get_account(string memory account_id) public view returns(accountData memory){... */\n    tag_3:\n      tag_8\n      0x04\n      dup1\n      calldatasize\n      sub\n      dup2\n      add\n      swap1\n      tag_9\n      swap2\n      swap1\n      tag_10\n      jump\t// in\n    tag_9:\n      tag_11\n      jump\t// in\n    tag_8:\n      mload(0x40)\n      tag_12\n      swap2\n      swap1\n      tag_13\n      jump\t// in\n    tag_12:\n      mload(0x40)\n      dup1\n      swap2\n      sub\n      swap1\n      return\n        /* \"contracts/Halal.sol\":1611:1980  function add_transaction(... */\n    tag_4:\n      tag_14\n      0x04\n      dup1\n      calldatasize\n      sub\n      dup2\n      add\n      swap1\n      tag_15\n      swap2\n      swap1\n      tag_16\n      jump\t// in\n    tag_15:\n      tag_17\n      jump\t// in\n    tag_14:\n      mload(0x40)\n      tag_18\n      swap2\n      swap1\n      tag_19\n      jump\t// in\n    tag_18:\n      mload(0x40)\n      dup1\n      swap2\n      sub\n      swap1\n      return\n        /* \"contracts/Halal.sol\":881:1409  function add_account(... */\n    tag_5:\n      tag_20\n      0x04\n      dup1\n      calldatasize\n      sub\n      dup2\n      add\n      swap1\n      tag_21\n      swap2\n      swap1\n      tag_22\n      jump\t// in\n    tag_21:\n      tag_23\n      jump\t// in\n    tag_20:\n      mload(0x40)\n      tag_24\n      swap2\n      swap1\n      tag_19\n      jump\t// in\n    tag_24:\n      mload(0x40)\n      dup1\n      swap2\n      sub\n      swap1\n      return\n        /* \"contracts/Halal.sol\":2201:2573  function add_certificate(string memory umkm_id, string memory cert_id, uint expired_at) external{... */\n    tag_6:\n      tag_25\n      0x04\n      dup1\n      calldatasize\n      sub\n      dup2\n      add\n      swap1\n      tag_26\n      swap2\n      swap1\n      tag_27\n      jump\t// in\n    tag_26:\n      tag_28\n      jump\t// in\n    tag_25:\n      stop\n        /* \"contracts/Halal.sol\":1986:2195  function get_transaction(string memory transaction_id) external view returns(transaction memory){... */\n    tag_7:\n      tag_29\n      0x04\n      dup1\n      calldatasize\n      sub\n      dup2\n      add\n      swap1\n      tag_30\n      swap2\n      swap1\n      tag_10\n      jump\t// in\n    tag_30:\n      tag_31\n      jump\t// in\n    tag_29:\n      mload(0x40)\n      tag_32\n      swap2\n      swap1\n      tag_33\n      jump\t// in\n    tag_32:\n      mload(0x40)\n      dup1\n      swap2\n      sub\n      swap1\n      return\n        /* \"contracts/Halal.sol\":1415:1605  function get_account(string memory account_id) public view returns(accountData memory){... */\n    tag_11:\n        /* \"contracts/Halal.sol\":1482:1500  accountData memory */\n      tag_34\n      tag_35\n      jump\t// in\n    tag_34:\n        /* \"contracts/Halal.sol\":1511:1521  bytes32 id */\n      0x00\n        /* \"contracts/Halal.sol\":1551:1561  account_id */\n      dup3\n        /* \"contracts/Halal.sol\":1534:1562  abi.encodePacked(account_id) */\n      add(0x20, mload(0x40))\n      tag_37\n      swap2\n      swap1\n      tag_38\n      jump\t// in\n    tag_37:\n      mload(0x40)\n      0x20\n      dup2\n      dup4\n      sub\n      sub\n      dup2\n      mstore\n      swap1\n      0x40\n      mstore\n        /* \"contracts/Halal.sol\":1524:1563  keccak256(abi.encodePacked(account_id)) */\n      dup1\n      mload\n      swap1\n      0x20\n      add\n      keccak256\n        /* \"contracts/Halal.sol\":1511:1563  bytes32 id = keccak256(abi.encodePacked(account_id)) */\n      swap1\n      pop\n        /* \"contracts/Halal.sol\":1580:1594  mappingAccount */\n      0x00\n        /* \"contracts/Halal.sol\":1580:1598  mappingAccount[id] */\n      dup1\n        /* \"contracts/Halal.sol\":1595:1597  id */\n      dup3\n        /* \"contracts/Halal.sol\":1580:1598  mappingAccount[id] */\n      dup2\n      mstore\n      0x20\n      add\n      swap1\n      dup2\n      mstore\n      0x20\n      add\n      0x00\n      keccak256\n        /* \"contracts/Halal.sol\":1573:1598  return mappingAccount[id] */\n      mload(0x40)\n      dup1\n      0x80\n      add\n      0x40\n      mstore\n      swap1\n      dup2\n      0x00\n      dup3\n      add\n      dup1\n      sload\n      tag_39\n      swap1\n      tag_40\n      jump\t// in\n    tag_39:\n      dup1\n      0x1f\n      add\n      0x20\n      dup1\n      swap2\n      div\n      mul\n      0x20\n      add\n      mload(0x40)\n      swap1\n      dup2\n      add\n      0x40\n      mstore\n      dup1\n      swap3\n      swap2\n      swap1\n      dup2\n      dup2\n      mstore\n      0x20\n      add\n      dup3\n      dup1\n      sload\n      tag_41\n      swap1\n      tag_40\n      jump\t// in\n    tag_41:\n      dup1\n      iszero\n      tag_42\n      jumpi\n      dup1\n      0x1f\n      lt\n      tag_43\n      jumpi\n      0x0100\n      dup1\n      dup4\n      sload\n      div\n      mul\n      dup4\n      mstore\n      swap2\n      0x20\n      add\n      swap2\n      jump(tag_42)\n    tag_43:\n      dup3\n      add\n      swap2\n      swap1\n      0x00\n      mstore\n      keccak256(0x00, 0x20)\n      swap1\n    tag_44:\n      dup2\n      sload\n      dup2\n      mstore\n      swap1\n      0x01\n      add\n      swap1\n      0x20\n      add\n      dup1\n      dup4\n      gt\n      tag_44\n      jumpi\n      dup3\n      swap1\n      sub\n      0x1f\n      and\n      dup3\n      add\n      swap2\n    tag_42:\n      pop\n      pop\n      pop\n      pop\n      pop\n      dup2\n      mstore\n      0x20\n      add\n      0x01\n      dup3\n      add\n      dup1\n      sload\n      tag_45\n      swap1\n      tag_40\n      jump\t// in\n    tag_45:\n      dup1\n      0x1f\n      add\n      0x20\n      dup1\n      swap2\n      div\n      mul\n      0x20\n      add\n      mload(0x40)\n      swap1\n      dup2\n      add\n      0x40\n      mstore\n      dup1\n      swap3\n      swap2\n      swap1\n      dup2\n      dup2\n      mstore\n      0x20\n      add\n      dup3\n      dup1\n      sload\n      tag_46\n      swap1\n      tag_40\n      jump\t// in\n    tag_46:\n      dup1\n      iszero\n      tag_47\n      jumpi\n      dup1\n      0x1f\n      lt\n      tag_48\n      jumpi\n      0x0100\n      dup1\n      dup4\n      sload\n      div\n      mul\n      dup4\n      mstore\n      swap2\n      0x20\n      add\n      swap2\n      jump(tag_47)\n    tag_48:\n      dup3\n      add\n      swap2\n      swap1\n      0x00\n      mstore\n      keccak256(0x00, 0x20)\n      swap1\n    tag_49:\n      dup2\n      sload\n      dup2\n      mstore\n      swap1\n      0x01\n      add\n      swap1\n      0x20\n      add\n      dup1\n      dup4\n      gt\n      tag_49\n      jumpi\n      dup3\n      swap1\n      sub\n      0x1f\n      and\n      dup3\n      add\n      swap2\n    tag_47:\n      pop\n      pop\n      pop\n      pop\n      pop\n      dup2\n      mstore\n      0x20\n      add\n      0x02\n      dup3\n      add\n      dup1\n      sload\n      tag_50\n      swap1\n      tag_40\n      jump\t// in\n    tag_50:\n      dup1\n      0x1f\n      add\n      0x20\n      dup1\n      swap2\n      div\n      mul\n      0x20\n      add\n      mload(0x40)\n      swap1\n      dup2\n      add\n      0x40\n      mstore\n      dup1\n      swap3\n      swap2\n      swap1\n      dup2\n      dup2\n      mstore\n      0x20\n      add\n      dup3\n      dup1\n      sload\n      tag_51\n      swap1\n      tag_40\n      jump\t// in\n    tag_51:\n      dup1\n      iszero\n      tag_52\n      jumpi\n      dup1\n      0x1f\n      lt\n      tag_53\n      jumpi\n      0x0100\n      dup1\n      dup4\n      sload\n      div\n      mul\n      dup4\n      mstore\n      swap2\n      0x20\n      add\n      swap2\n      jump(tag_52)\n    tag_53:\n      dup3\n      add\n      swap2\n      swap1\n      0x00\n      mstore\n      keccak256(0x00, 0x20)\n      swap1\n    tag_54:\n      dup2\n      sload\n      dup2\n      mstore\n      swap1\n      0x01\n      add\n      swap1\n      0x20\n      add\n      dup1\n      dup4\n      gt\n      tag_54\n      jumpi\n      dup3\n      swap1\n      sub\n      0x1f\n      and\n      dup3\n      add\n      swap2\n    tag_52:\n      pop\n      pop\n      pop\n      pop\n      pop\n      dup2\n      mstore\n      0x20\n      add\n      0x03\n      dup3\n      add\n      sload\n      dup2\n      mstore\n      pop\n      pop\n      swap2\n      pop\n      pop\n        /* \"contracts/Halal.sol\":1415:1605  function get_account(string memory account_id) public view returns(accountData memory){... */\n      swap2\n      swap1\n      pop\n      jump\t// out\n        /* \"contracts/Halal.sol\":1611:1980  function add_transaction(... */\n    tag_17:\n        /* \"contracts/Halal.sol\":1760:1767  bytes32 */\n      0x00\n        /* \"contracts/Halal.sol\":1779:1789  bytes32 id */\n      dup1\n        /* \"contracts/Halal.sol\":1819:1833  transaction_id */\n      dup5\n        /* \"contracts/Halal.sol\":1802:1834  abi.encodePacked(transaction_id) */\n      add(0x20, mload(0x40))\n      tag_56\n      swap2\n      swap1\n      tag_38\n      jump\t// in\n    tag_56:\n      mload(0x40)\n      0x20\n      dup2\n      dup4\n      sub\n      sub\n      dup2\n      mstore\n      swap1\n      0x40\n      mstore\n        /* \"contracts/Halal.sol\":1792:1835  keccak256(abi.encodePacked(transaction_id)) */\n      dup1\n      mload\n      swap1\n      0x20\n      add\n      keccak256\n        /* \"contracts/Halal.sol\":1779:1835  bytes32 id = keccak256(abi.encodePacked(transaction_id)) */\n      swap1\n      pop\n        /* \"contracts/Halal.sol\":1845:1869  transaction memory trans */\n      0x00\n        /* \"contracts/Halal.sol\":1872:1890  mappingTransaction */\n      0x01\n        /* \"contracts/Halal.sol\":1872:1894  mappingTransaction[id] */\n      0x00\n        /* \"contracts/Halal.sol\":1891:1893  id */\n      dup4\n        /* \"contracts/Halal.sol\":1872:1894  mappingTransaction[id] */\n      dup2\n      mstore\n      0x20\n      add\n      swap1\n      dup2\n      mstore\n      0x20\n      add\n      0x00\n      keccak256\n        /* \"contracts/Halal.sol\":1845:1894  transaction memory trans = mappingTransaction[id] */\n      mload(0x40)\n      dup1\n      0x40\n      add\n      0x40\n      mstore\n      swap1\n      dup2\n      0x00\n      dup3\n      add\n      dup1\n      sload\n      tag_57\n      swap1\n      tag_40\n      jump\t// in\n    tag_57:\n      dup1\n      0x1f\n      add\n      0x20\n      dup1\n      swap2\n      div\n      mul\n      0x20\n      add\n      mload(0x40)\n      swap1\n      dup2\n      add\n      0x40\n      mstore\n      dup1\n      swap3\n      swap2\n      swap1\n      dup2\n      dup2\n      mstore\n      0x20\n      add\n      dup3\n      dup1\n      sload\n      tag_58\n      swap1\n      tag_40\n      jump\t// in\n    tag_58:\n      dup1\n      iszero\n      tag_59\n      jumpi\n      dup1\n      0x1f\n      lt\n      tag_60\n      jumpi\n      0x0100\n      dup1\n      dup4\n      sload\n      div\n      mul\n      dup4\n      mstore\n      swap2\n      0x20\n      add\n      swap2\n      jump(tag_59)\n    tag_60:\n      dup3\n      add\n      swap2\n      swap1\n      0x00\n      mstore\n      keccak256(0x00, 0x20)\n      swap1\n    tag_61:\n      dup2\n      sload\n      dup2\n      mstore\n      swap1\n      0x01\n      add\n      swap1\n      0x20\n      add\n      dup1\n      dup4\n      gt\n      tag_61\n      jumpi\n      dup3\n      swap1\n      sub\n      0x1f\n      and\n      dup3\n      add\n      swap2\n    tag_59:\n      pop\n      pop\n      pop\n      pop\n      pop\n      dup2\n      mstore\n      0x20\n      add\n      0x01\n      dup3\n      add\n      dup1\n      sload\n      tag_62\n      swap1\n      tag_40\n      jump\t// in\n    tag_62:\n      dup1\n      0x1f\n      add\n      0x20\n      dup1\n      swap2\n      div\n      mul\n      0x20\n      add\n      mload(0x40)\n      swap1\n      dup2\n      add\n      0x40\n      mstore\n      dup1\n      swap3\n      swap2\n      swap1\n      dup2\n      dup2\n      mstore\n      0x20\n      add\n      dup3\n      dup1\n      sload\n      tag_63\n      swap1\n      tag_40\n      jump\t// in\n    tag_63:\n      dup1\n      iszero\n      tag_64\n      jumpi\n      dup1\n      0x1f\n      lt\n      tag_65\n      jumpi\n      0x0100\n      dup1\n      dup4\n      sload\n      div\n      mul\n      dup4\n      mstore\n      swap2\n      0x20\n      add\n      swap2\n      jump(tag_64)\n    tag_65:\n      dup3\n      add\n      swap2\n      swap1\n      0x00\n      mstore\n      keccak256(0x00, 0x20)\n      swap1\n    tag_66:\n      dup2\n      sload\n      dup2\n      mstore\n      swap1\n      0x01\n      add\n      swap1\n      0x20\n      add\n      dup1\n      dup4\n      gt\n      tag_66\n      jumpi\n      dup3\n      swap1\n      sub\n      0x1f\n      and\n      dup3\n      add\n      swap2\n    tag_64:\n      pop\n      pop\n      pop\n      pop\n      pop\n      dup2\n      mstore\n      pop\n      pop\n      swap1\n      pop\n        /* \"contracts/Halal.sol\":1920:1927  user_id */\n      dup5\n        /* \"contracts/Halal.sol\":1904:1909  trans */\n      dup2\n        /* \"contracts/Halal.sol\":1904:1917  trans.user_id */\n      0x00\n      add\n        /* \"contracts/Halal.sol\":1904:1927  trans.user_id = user_id */\n      dup2\n      swap1\n      mstore\n      pop\n        /* \"contracts/Halal.sol\":1950:1954  data */\n      dup4\n        /* \"contracts/Halal.sol\":1937:1942  trans */\n      dup2\n        /* \"contracts/Halal.sol\":1937:1947  trans.data */\n      0x20\n      add\n        /* \"contracts/Halal.sol\":1937:1954  trans.data = data */\n      dup2\n      swap1\n      mstore\n      pop\n        /* \"contracts/Halal.sol\":1971:1973  id */\n      dup2\n        /* \"contracts/Halal.sol\":1964:1973  return id */\n      swap3\n      pop\n      pop\n      pop\n        /* \"contracts/Halal.sol\":1611:1980  function add_transaction(... */\n      swap4\n      swap3\n      pop\n      pop\n      pop\n      jump\t// out\n        /* \"contracts/Halal.sol\":881:1409  function add_account(... */\n    tag_23:\n        /* \"contracts/Halal.sol\":1015:1022  bytes32 */\n      0x00\n        /* \"contracts/Halal.sol\":1033:1043  bytes32 id */\n      dup1\n        /* \"contracts/Halal.sol\":1073:1083  account_id */\n      dup5\n        /* \"contracts/Halal.sol\":1056:1084  abi.encodePacked(account_id) */\n      add(0x20, mload(0x40))\n      tag_68\n      swap2\n      swap1\n      tag_38\n      jump\t// in\n    tag_68:\n      mload(0x40)\n      0x20\n      dup2\n      dup4\n      sub\n      sub\n      dup2\n      mstore\n      swap1\n      0x40\n      mstore\n        /* \"contracts/Halal.sol\":1046:1085  keccak256(abi.encodePacked(account_id)) */\n      dup1\n      mload\n      swap1\n      0x20\n      add\n      keccak256\n        /* \"contracts/Halal.sol\":1033:1085  bytes32 id = keccak256(abi.encodePacked(account_id)) */\n      swap1\n      pop\n        /* \"contracts/Halal.sol\":1103:1134  account_checker(id, account_id) */\n      tag_69\n        /* \"contracts/Halal.sol\":1119:1121  id */\n      dup2\n        /* \"contracts/Halal.sol\":1123:1133  account_id */\n      dup7\n        /* \"contracts/Halal.sol\":1103:1118  account_checker */\n      tag_70\n        /* \"contracts/Halal.sol\":1103:1134  account_checker(id, account_id) */\n      jump\t// in\n    tag_69:\n        /* \"contracts/Halal.sol\":1095:1163  require(account_checker(id, account_id), \"Account already existing\") */\n      tag_71\n      jumpi\n      mload(0x40)\n      0x08c379a000000000000000000000000000000000000000000000000000000000\n      dup2\n      mstore\n      0x04\n      add\n      tag_72\n      swap1\n      tag_73\n      jump\t// in\n    tag_72:\n      mload(0x40)\n      dup1\n      swap2\n      sub\n      swap1\n      revert\n    tag_71:\n        /* \"contracts/Halal.sol\":1173:1196  accountData storage acc */\n      0x00\n        /* \"contracts/Halal.sol\":1199:1213  mappingAccount */\n      dup1\n        /* \"contracts/Halal.sol\":1199:1217  mappingAccount[id] */\n      0x00\n        /* \"contracts/Halal.sol\":1214:1216  id */\n      dup4\n        /* \"contracts/Halal.sol\":1199:1217  mappingAccount[id] */\n      dup2\n      mstore\n      0x20\n      add\n      swap1\n      dup2\n      mstore\n      0x20\n      add\n      0x00\n      keccak256\n        /* \"contracts/Halal.sol\":1173:1217  accountData storage acc = mappingAccount[id] */\n      swap1\n      pop\n        /* \"contracts/Halal.sol\":1244:1254  account_id */\n      dup6\n        /* \"contracts/Halal.sol\":1227:1230  acc */\n      dup2\n        /* \"contracts/Halal.sol\":1227:1241  acc.account_id */\n      0x00\n      add\n        /* \"contracts/Halal.sol\":1227:1254  acc.account_id = account_id */\n      swap1\n      dup1\n      mload\n      swap1\n      0x20\n      add\n      swap1\n      tag_74\n      swap3\n      swap2\n      swap1\n      tag_75\n      jump\t// in\n    tag_74:\n      pop\n        /* \"contracts/Halal.sol\":1275:1279  name */\n      dup5\n        /* \"contracts/Halal.sol\":1264:1267  acc */\n      dup2\n        /* \"contracts/Halal.sol\":1264:1272  acc.name */\n      0x01\n      add\n        /* \"contracts/Halal.sol\":1264:1279  acc.name = name */\n      swap1\n      dup1\n      mload\n      swap1\n      0x20\n      add\n      swap1\n      tag_76\n      swap3\n      swap2\n      swap1\n      tag_75\n      jump\t// in\n    tag_76:\n      pop\n        /* \"contracts/Halal.sol\":1300:1304  role */\n      dup4\n        /* \"contracts/Halal.sol\":1289:1292  acc */\n      dup2\n        /* \"contracts/Halal.sol\":1289:1297  acc.role */\n      0x02\n      add\n        /* \"contracts/Halal.sol\":1289:1304  acc.role = role */\n      swap1\n      dup1\n      mload\n      swap1\n      0x20\n      add\n      swap1\n      tag_77\n      swap3\n      swap2\n      swap1\n      tag_75\n      jump\t// in\n    tag_77:\n      pop\n        /* \"contracts/Halal.sol\":1331:1346  block.timestamp */\n      timestamp\n        /* \"contracts/Halal.sol\":1314:1317  acc */\n      dup2\n        /* \"contracts/Halal.sol\":1314:1328  acc.created_at */\n      0x03\n      add\n        /* \"contracts/Halal.sol\":1314:1346  acc.created_at = block.timestamp */\n      dup2\n      swap1\n      sstore\n      pop\n        /* \"contracts/Halal.sol\":1361:1383  success(\"success\", id) */\n      0xc8922d91fbabbe8df5d667708c678575856a856a2a465ebd9626a40ab6a16f5f\n        /* \"contracts/Halal.sol\":1380:1382  id */\n      dup3\n        /* \"contracts/Halal.sol\":1361:1383  success(\"success\", id) */\n      mload(0x40)\n      tag_78\n      swap2\n      swap1\n      tag_79\n      jump\t// in\n    tag_78:\n      mload(0x40)\n      dup1\n      swap2\n      sub\n      swap1\n      log1\n        /* \"contracts/Halal.sol\":1400:1402  id */\n      dup2\n        /* \"contracts/Halal.sol\":1393:1402  return id */\n      swap3\n      pop\n      pop\n      pop\n        /* \"contracts/Halal.sol\":881:1409  function add_account(... */\n      swap4\n      swap3\n      pop\n      pop\n      pop\n      jump\t// out\n        /* \"contracts/Halal.sol\":2201:2573  function add_certificate(string memory umkm_id, string memory cert_id, uint expired_at) external{... */\n    tag_28:\n        /* \"contracts/Halal.sol\":2307:2317  bytes32 id */\n      0x00\n        /* \"contracts/Halal.sol\":2347:2354  umkm_id */\n      dup4\n        /* \"contracts/Halal.sol\":2330:2355  abi.encodePacked(umkm_id) */\n      add(0x20, mload(0x40))\n      tag_81\n      swap2\n      swap1\n      tag_38\n      jump\t// in\n    tag_81:\n      mload(0x40)\n      0x20\n      dup2\n      dup4\n      sub\n      sub\n      dup2\n      mstore\n      swap1\n      0x40\n      mstore\n        /* \"contracts/Halal.sol\":2320:2356  keccak256(abi.encodePacked(umkm_id)) */\n      dup1\n      mload\n      swap1\n      0x20\n      add\n      keccak256\n        /* \"contracts/Halal.sol\":2307:2356  bytes32 id = keccak256(abi.encodePacked(umkm_id)) */\n      swap1\n      pop\n        /* \"contracts/Halal.sol\":2366:2389  certificate memory cert */\n      0x00\n        /* \"contracts/Halal.sol\":2392:2410  mappingCertificate */\n      0x02\n        /* \"contracts/Halal.sol\":2392:2414  mappingCertificate[id] */\n      0x00\n        /* \"contracts/Halal.sol\":2411:2413  id */\n      dup4\n        /* \"contracts/Halal.sol\":2392:2414  mappingCertificate[id] */\n      dup2\n      mstore\n      0x20\n      add\n      swap1\n      dup2\n      mstore\n      0x20\n      add\n      0x00\n      keccak256\n        /* \"contracts/Halal.sol\":2366:2414  certificate memory cert = mappingCertificate[id] */\n      mload(0x40)\n      dup1\n      0x80\n      add\n      0x40\n      mstore\n      swap1\n      dup2\n      0x00\n      dup3\n      add\n      dup1\n      sload\n      tag_82\n      swap1\n      tag_40\n      jump\t// in\n    tag_82:\n      dup1\n      0x1f\n      add\n      0x20\n      dup1\n      swap2\n      div\n      mul\n      0x20\n      add\n      mload(0x40)\n      swap1\n      dup2\n      add\n      0x40\n      mstore\n      dup1\n      swap3\n      swap2\n      swap1\n      dup2\n      dup2\n      mstore\n      0x20\n      add\n      dup3\n      dup1\n      sload\n      tag_83\n      swap1\n      tag_40\n      jump\t// in\n    tag_83:\n      dup1\n      iszero\n      tag_84\n      jumpi\n      dup1\n      0x1f\n      lt\n      tag_85\n      jumpi\n      0x0100\n      dup1\n      dup4\n      sload\n      div\n      mul\n      dup4\n      mstore\n      swap2\n      0x20\n      add\n      swap2\n      jump(tag_84)\n    tag_85:\n      dup3\n      add\n      swap2\n      swap1\n      0x00\n      mstore\n      keccak256(0x00, 0x20)\n      swap1\n    tag_86:\n      dup2\n      sload\n      dup2\n      mstore\n      swap1\n      0x01\n      add\n      swap1\n      0x20\n      add\n      dup1\n      dup4\n      gt\n      tag_86\n      jumpi\n      dup3\n      swap1\n      sub\n      0x1f\n      and\n      dup3\n      add\n      swap2\n    tag_84:\n      pop\n      pop\n      pop\n      pop\n      pop\n      dup2\n      mstore\n      0x20\n      add\n      0x01\n      dup3\n      add\n      dup1\n      sload\n      tag_87\n      swap1\n      tag_40\n      jump\t// in\n    tag_87:\n      dup1\n      0x1f\n      add\n      0x20\n      dup1\n      swap2\n      div\n      mul\n      0x20\n      add\n      mload(0x40)\n      swap1\n      dup2\n      add\n      0x40\n      mstore\n      dup1\n      swap3\n      swap2\n      swap1\n      dup2\n      dup2\n      mstore\n      0x20\n      add\n      dup3\n      dup1\n      sload\n      tag_88\n      swap1\n      tag_40\n      jump\t// in\n    tag_88:\n      dup1\n      iszero\n      tag_89\n      jumpi\n      dup1\n      0x1f\n      lt\n      tag_90\n      jumpi\n      0x0100\n      dup1\n      dup4\n      sload\n      div\n      mul\n      dup4\n      mstore\n      swap2\n      0x20\n      add\n      swap2\n      jump(tag_89)\n    tag_90:\n      dup3\n      add\n      swap2\n      swap1\n      0x00\n      mstore\n      keccak256(0x00, 0x20)\n      swap1\n    tag_91:\n      dup2\n      sload\n      dup2\n      mstore\n      swap1\n      0x01\n      add\n      swap1\n      0x20\n      add\n      dup1\n      dup4\n      gt\n      tag_91\n      jumpi\n      dup3\n      swap1\n      sub\n      0x1f\n      and\n      dup3\n      add\n      swap2\n    tag_89:\n      pop\n      pop\n      pop\n      pop\n      pop\n      dup2\n      mstore\n      0x20\n      add\n      0x02\n      dup3\n      add\n      sload\n      dup2\n      mstore\n      0x20\n      add\n      0x03\n      dup3\n      add\n      sload\n      dup2\n      mstore\n      pop\n      pop\n      swap1\n      pop\n        /* \"contracts/Halal.sol\":2439:2446  umkm_id */\n      dup5\n        /* \"contracts/Halal.sol\":2424:2428  cert */\n      dup2\n        /* \"contracts/Halal.sol\":2424:2436  cert.umkm_id */\n      0x00\n      add\n        /* \"contracts/Halal.sol\":2424:2446  cert.umkm_id = umkm_id */\n      dup2\n      swap1\n      mstore\n      pop\n        /* \"contracts/Halal.sol\":2478:2485  cert_id */\n      dup4\n        /* \"contracts/Halal.sol\":2456:2460  cert */\n      dup2\n        /* \"contracts/Halal.sol\":2456:2475  cert.certificate_id */\n      0x20\n      add\n        /* \"contracts/Halal.sol\":2456:2485  cert.certificate_id = cert_id */\n      dup2\n      swap1\n      mstore\n      pop\n        /* \"contracts/Halal.sol\":2513:2528  block.timestamp */\n      timestamp\n        /* \"contracts/Halal.sol\":2495:2499  cert */\n      dup2\n        /* \"contracts/Halal.sol\":2495:2510  cert.created_at */\n      0x40\n      add\n        /* \"contracts/Halal.sol\":2495:2528  cert.created_at = block.timestamp */\n      dup2\n      dup2\n      mstore\n      pop\n      pop\n        /* \"contracts/Halal.sol\":2556:2566  expired_at */\n      dup3\n        /* \"contracts/Halal.sol\":2538:2542  cert */\n      dup2\n        /* \"contracts/Halal.sol\":2538:2553  cert.expired_at */\n      0x60\n      add\n        /* \"contracts/Halal.sol\":2538:2566  cert.expired_at = expired_at */\n      dup2\n      dup2\n      mstore\n      pop\n      pop\n        /* \"contracts/Halal.sol\":2297:2573  {... */\n      pop\n      pop\n        /* \"contracts/Halal.sol\":2201:2573  function add_certificate(string memory umkm_id, string memory cert_id, uint expired_at) external{... */\n      pop\n      pop\n      pop\n      jump\t// out\n        /* \"contracts/Halal.sol\":1986:2195  function get_transaction(string memory transaction_id) external view returns(transaction memory){... */\n    tag_31:\n        /* \"contracts/Halal.sol\":2063:2081  transaction memory */\n      tag_92\n      tag_93\n      jump\t// in\n    tag_92:\n        /* \"contracts/Halal.sol\":2092:2102  bytes32 id */\n      0x00\n        /* \"contracts/Halal.sol\":2132:2146  transaction_id */\n      dup3\n        /* \"contracts/Halal.sol\":2115:2147  abi.encodePacked(transaction_id) */\n      add(0x20, mload(0x40))\n      tag_95\n      swap2\n      swap1\n      tag_38\n      jump\t// in\n    tag_95:\n      mload(0x40)\n      0x20\n      dup2\n      dup4\n      sub\n      sub\n      dup2\n      mstore\n      swap1\n      0x40\n      mstore\n        /* \"contracts/Halal.sol\":2105:2148  keccak256(abi.encodePacked(transaction_id)) */\n      dup1\n      mload\n      swap1\n      0x20\n      add\n      keccak256\n        /* \"contracts/Halal.sol\":2092:2148  bytes32 id = keccak256(abi.encodePacked(transaction_id)) */\n      swap1\n      pop\n        /* \"contracts/Halal.sol\":2165:2183  mappingTransaction */\n      0x01\n        /* \"contracts/Halal.sol\":2165:2187  mappingTransaction[id] */\n      0x00\n        /* \"contracts/Halal.sol\":2184:2186  id */\n      dup3\n        /* \"contracts/Halal.sol\":2165:2187  mappingTransaction[id] */\n      dup2\n      mstore\n      0x20\n      add\n      swap1\n      dup2\n      mstore\n      0x20\n      add\n      0x00\n      keccak256\n        /* \"contracts/Halal.sol\":2158:2187  return mappingTransaction[id] */\n      mload(0x40)\n      dup1\n      0x40\n      add\n      0x40\n      mstore\n      swap1\n      dup2\n      0x00\n      dup3\n      add\n      dup1\n      sload\n      tag_96\n      swap1\n      tag_40\n      jump\t// in\n    tag_96:\n      dup1\n      0x1f\n      add\n      0x20\n      dup1\n      swap2\n      div\n      mul\n      0x20\n      add\n      mload(0x40)\n      swap1\n      dup2\n      add\n      0x40\n      mstore\n      dup1\n      swap3\n      swap2\n      swap1\n      dup2\n      dup2\n      mstore\n      0x20\n      add\n      dup3\n      dup1\n      sload\n      tag_97\n      swap1\n      tag_40\n      jump\t// in\n    tag_97:\n      dup1\n      iszero\n      tag_98\n      jumpi\n      dup1\n      0x1f\n      lt\n      tag_99\n      jumpi\n      0x0100\n      dup1\n      dup4\n      sload\n      div\n      mul\n      dup4\n      mstore\n      swap2\n      0x20\n      add\n      swap2\n      jump(tag_98)\n    tag_99:\n      dup3\n      add\n      swap2\n      swap1\n      0x00\n      mstore\n      keccak256(0x00, 0x20)\n      swap1\n    tag_100:\n      dup2\n      sload\n      dup2\n      mstore\n      swap1\n      0x01\n      add\n      swap1\n      0x20\n      add\n      dup1\n      dup4\n      gt\n      tag_100\n      jumpi\n      dup3\n      swap1\n      sub\n      0x1f\n      and\n      dup3\n      add\n      swap2\n    tag_98:\n      pop\n      pop\n      pop\n      pop\n      pop\n      dup2\n      mstore\n      0x20\n      add\n      0x01\n      dup3\n      add\n      dup1\n      sload\n      tag_101\n      swap1\n      tag_40\n      jump\t// in\n    tag_101:\n      dup1\n      0x1f\n      add\n      0x20\n      dup1\n      swap2\n      div\n      mul\n      0x20\n      add\n      mload(0x40)\n      swap1\n      dup2\n      add\n      0x40\n      mstore\n      dup1\n      swap3\n      swap2\n      swap1\n      dup2\n      dup2\n      mstore\n      0x20\n      add\n      dup3\n      dup1\n      sload\n      tag_102\n      swap1\n      tag_40\n      jump\t// in\n    tag_102:\n      dup1\n      iszero\n      tag_103\n      jumpi\n      dup1\n      0x1f\n      lt\n      tag_104\n      jumpi\n      0x0100\n      dup1\n      dup4\n      sload\n      div\n      mul\n      dup4\n      mstore\n      swap2\n      0x20\n      add\n      swap2\n      jump(tag_103)\n    tag_104:\n      dup3\n      add\n      swap2\n      swap1\n      0x00\n      mstore\n      keccak256(0x00, 0x20)\n      swap1\n    tag_105:\n      dup2\n      sload\n      dup2\n      mstore\n      swap1\n      0x01\n      add\n      swap1\n      0x20\n      add\n      dup1\n      dup4\n      gt\n      tag_105\n      jumpi\n      dup3\n      swap1\n      sub\n      0x1f\n      and\n      dup3\n      add\n      swap2\n    tag_103:\n      pop\n      pop\n      pop\n      pop\n      pop\n      dup2\n      mstore\n      pop\n      pop\n      swap2\n      pop\n      pop\n        /* \"contracts/Halal.sol\":1986:2195  function get_transaction(string memory transaction_id) external view returns(transaction memory){... */\n      swap2\n      swap1\n      pop\n      jump\t// out\n        /* \"contracts/Halal.sol\":667:875  function account_checker(bytes32 id, string memory umkm_id) private view returns(bool){... */\n    tag_70:\n        /* \"contracts/Halal.sol\":748:752  bool */\n      0x00\n        /* \"contracts/Halal.sol\":859:866  umkm_id */\n      dup2\n        /* \"contracts/Halal.sol\":842:867  abi.encodePacked(umkm_id) */\n      add(0x20, mload(0x40))\n      tag_107\n      swap2\n      swap1\n      tag_38\n      jump\t// in\n    tag_107:\n      mload(0x40)\n      0x20\n      dup2\n      dup4\n      sub\n      sub\n      dup2\n      mstore\n      swap1\n      0x40\n      mstore\n        /* \"contracts/Halal.sol\":832:868  keccak256(abi.encodePacked(umkm_id)) */\n      dup1\n      mload\n      swap1\n      0x20\n      add\n      keccak256\n        /* \"contracts/Halal.sol\":797:811  mappingAccount */\n      0x00\n        /* \"contracts/Halal.sol\":797:815  mappingAccount[id] */\n      dup1\n        /* \"contracts/Halal.sol\":812:814  id */\n      dup6\n        /* \"contracts/Halal.sol\":797:815  mappingAccount[id] */\n      dup2\n      mstore\n      0x20\n      add\n      swap1\n      dup2\n      mstore\n      0x20\n      add\n      0x00\n      keccak256\n        /* \"contracts/Halal.sol\":797:826  mappingAccount[id].account_id */\n      0x00\n      add\n        /* \"contracts/Halal.sol\":780:827  abi.encodePacked(mappingAccount[id].account_id) */\n      add(0x20, mload(0x40))\n      tag_108\n      swap2\n      swap1\n      tag_109\n      jump\t// in\n    tag_108:\n      mload(0x40)\n      0x20\n      dup2\n      dup4\n      sub\n      sub\n      dup2\n      mstore\n      swap1\n      0x40\n      mstore\n        /* \"contracts/Halal.sol\":770:828  keccak256(abi.encodePacked(mappingAccount[id].account_id)) */\n      dup1\n      mload\n      swap1\n      0x20\n      add\n      keccak256\n        /* \"contracts/Halal.sol\":770:868  keccak256(abi.encodePacked(mappingAccount[id].account_id)) != keccak256(abi.encodePacked(umkm_id)) */\n      eq\n      iszero\n        /* \"contracts/Halal.sol\":763:868  return keccak256(abi.encodePacked(mappingAccount[id].account_id)) != keccak256(abi.encodePacked(umkm_id)) */\n      swap1\n      pop\n        /* \"contracts/Halal.sol\":667:875  function account_checker(bytes32 id, string memory umkm_id) private view returns(bool){... */\n      swap3\n      swap2\n      pop\n      pop\n      jump\t// out\n    tag_35:\n      mload(0x40)\n      dup1\n      0x80\n      add\n      0x40\n      mstore\n      dup1\n      0x60\n      dup2\n      mstore\n      0x20\n      add\n      0x60\n      dup2\n      mstore\n      0x20\n      add\n      0x60\n      dup2\n      mstore\n      0x20\n      add\n      0x00\n      dup2\n      mstore\n      pop\n      swap1\n      jump\t// out\n    tag_75:\n      dup3\n      dup1\n      sload\n      tag_110\n      swap1\n      tag_40\n      jump\t// in\n    tag_110:\n      swap1\n      0x00\n      mstore\n      keccak256(0x00, 0x20)\n      swap1\n      0x1f\n      add\n      0x20\n      swap1\n      div\n      dup2\n      add\n      swap3\n      dup3\n      tag_112\n      jumpi\n      0x00\n      dup6\n      sstore\n      jump(tag_111)\n    tag_112:\n      dup3\n      0x1f\n      lt\n      tag_113\n      jumpi\n      dup1\n      mload\n      not(0xff)\n      and\n      dup4\n      dup1\n      add\n      or\n      dup6\n      sstore\n      jump(tag_111)\n    tag_113:\n      dup3\n      dup1\n      add\n      0x01\n      add\n      dup6\n      sstore\n      dup3\n      iszero\n      tag_111\n      jumpi\n      swap2\n      dup3\n      add\n    tag_114:\n      dup3\n      dup2\n      gt\n      iszero\n      tag_115\n      jumpi\n      dup3\n      mload\n      dup3\n      sstore\n      swap2\n      0x20\n      add\n      swap2\n      swap1\n      0x01\n      add\n      swap1\n      jump(tag_114)\n    tag_115:\n    tag_111:\n      pop\n      swap1\n      pop\n      tag_116\n      swap2\n      swap1\n      tag_117\n      jump\t// in\n    tag_116:\n      pop\n      swap1\n      jump\t// out\n    tag_93:\n      mload(0x40)\n      dup1\n      0x40\n      add\n      0x40\n      mstore\n      dup1\n      0x60\n      dup2\n      mstore\n      0x20\n      add\n      0x60\n      dup2\n      mstore\n      pop\n      swap1\n      jump\t// out\n    tag_117:\n    tag_118:\n      dup1\n      dup3\n      gt\n      iszero\n      tag_119\n      jumpi\n      0x00\n      dup2\n      0x00\n      swap1\n      sstore\n      pop\n      0x01\n      add\n      jump(tag_118)\n    tag_119:\n      pop\n      swap1\n      jump\t// out\n        /* \"#utility.yul\":7:417   */\n    tag_121:\n        /* \"#utility.yul\":84:89   */\n      0x00\n        /* \"#utility.yul\":109:174   */\n      tag_123\n        /* \"#utility.yul\":125:173   */\n      tag_124\n        /* \"#utility.yul\":166:172   */\n      dup5\n        /* \"#utility.yul\":125:173   */\n      tag_125\n      jump\t// in\n    tag_124:\n        /* \"#utility.yul\":109:174   */\n      tag_126\n      jump\t// in\n    tag_123:\n        /* \"#utility.yul\":100:174   */\n      swap1\n      pop\n        /* \"#utility.yul\":197:203   */\n      dup3\n        /* \"#utility.yul\":190:195   */\n      dup2\n        /* \"#utility.yul\":183:204   */\n      mstore\n        /* \"#utility.yul\":235:239   */\n      0x20\n        /* \"#utility.yul\":228:233   */\n      dup2\n        /* \"#utility.yul\":224:240   */\n      add\n        /* \"#utility.yul\":273:276   */\n      dup5\n        /* \"#utility.yul\":264:270   */\n      dup5\n        /* \"#utility.yul\":259:262   */\n      dup5\n        /* \"#utility.yul\":255:271   */\n      add\n        /* \"#utility.yul\":252:277   */\n      gt\n        /* \"#utility.yul\":249:361   */\n      iszero\n      tag_127\n      jumpi\n        /* \"#utility.yul\":280:359   */\n      tag_128\n      tag_129\n      jump\t// in\n    tag_128:\n        /* \"#utility.yul\":249:361   */\n    tag_127:\n        /* \"#utility.yul\":370:411   */\n      tag_130\n        /* \"#utility.yul\":404:410   */\n      dup5\n        /* \"#utility.yul\":399:402   */\n      dup3\n        /* \"#utility.yul\":394:397   */\n      dup6\n        /* \"#utility.yul\":370:411   */\n      tag_131\n      jump\t// in\n    tag_130:\n        /* \"#utility.yul\":90:417   */\n      pop\n        /* \"#utility.yul\":7:417   */\n      swap4\n      swap3\n      pop\n      pop\n      pop\n      jump\t// out\n        /* \"#utility.yul\":423:835   */\n    tag_132:\n        /* \"#utility.yul\":501:506   */\n      0x00\n        /* \"#utility.yul\":526:592   */\n      tag_134\n        /* \"#utility.yul\":542:591   */\n      tag_135\n        /* \"#utility.yul\":584:590   */\n      dup5\n        /* \"#utility.yul\":542:591   */\n      tag_136\n      jump\t// in\n    tag_135:\n        /* \"#utility.yul\":526:592   */\n      tag_126\n      jump\t// in\n    tag_134:\n        /* \"#utility.yul\":517:592   */\n      swap1\n      pop\n        /* \"#utility.yul\":615:621   */\n      dup3\n        /* \"#utility.yul\":608:613   */\n      dup2\n        /* \"#utility.yul\":601:622   */\n      mstore\n        /* \"#utility.yul\":653:657   */\n      0x20\n        /* \"#utility.yul\":646:651   */\n      dup2\n        /* \"#utility.yul\":642:658   */\n      add\n        /* \"#utility.yul\":691:694   */\n      dup5\n        /* \"#utility.yul\":682:688   */\n      dup5\n        /* \"#utility.yul\":677:680   */\n      dup5\n        /* \"#utility.yul\":673:689   */\n      add\n        /* \"#utility.yul\":670:695   */\n      gt\n        /* \"#utility.yul\":667:779   */\n      iszero\n      tag_137\n      jumpi\n        /* \"#utility.yul\":698:777   */\n      tag_138\n      tag_129\n      jump\t// in\n    tag_138:\n        /* \"#utility.yul\":667:779   */\n    tag_137:\n        /* \"#utility.yul\":788:829   */\n      tag_139\n        /* \"#utility.yul\":822:828   */\n      dup5\n        /* \"#utility.yul\":817:820   */\n      dup3\n        /* \"#utility.yul\":812:815   */\n      dup6\n        /* \"#utility.yul\":788:829   */\n      tag_131\n      jump\t// in\n    tag_139:\n        /* \"#utility.yul\":507:835   */\n      pop\n        /* \"#utility.yul\":423:835   */\n      swap4\n      swap3\n      pop\n      pop\n      pop\n      jump\t// out\n        /* \"#utility.yul\":854:1192   */\n    tag_140:\n        /* \"#utility.yul\":909:914   */\n      0x00\n        /* \"#utility.yul\":958:961   */\n      dup3\n        /* \"#utility.yul\":951:955   */\n      0x1f\n        /* \"#utility.yul\":943:949   */\n      dup4\n        /* \"#utility.yul\":939:956   */\n      add\n        /* \"#utility.yul\":935:962   */\n      slt\n        /* \"#utility.yul\":925:1047   */\n      tag_142\n      jumpi\n        /* \"#utility.yul\":966:1045   */\n      tag_143\n      tag_144\n      jump\t// in\n    tag_143:\n        /* \"#utility.yul\":925:1047   */\n    tag_142:\n        /* \"#utility.yul\":1083:1089   */\n      dup2\n        /* \"#utility.yul\":1070:1090   */\n      calldataload\n        /* \"#utility.yul\":1108:1186   */\n      tag_145\n        /* \"#utility.yul\":1182:1185   */\n      dup5\n        /* \"#utility.yul\":1174:1180   */\n      dup3\n        /* \"#utility.yul\":1167:1171   */\n      0x20\n        /* \"#utility.yul\":1159:1165   */\n      dup7\n        /* \"#utility.yul\":1155:1172   */\n      add\n        /* \"#utility.yul\":1108:1186   */\n      tag_121\n      jump\t// in\n    tag_145:\n        /* \"#utility.yul\":1099:1186   */\n      swap2\n      pop\n        /* \"#utility.yul\":915:1192   */\n      pop\n        /* \"#utility.yul\":854:1192   */\n      swap3\n      swap2\n      pop\n      pop\n      jump\t// out\n        /* \"#utility.yul\":1212:1552   */\n    tag_146:\n        /* \"#utility.yul\":1268:1273   */\n      0x00\n        /* \"#utility.yul\":1317:1320   */\n      dup3\n        /* \"#utility.yul\":1310:1314   */\n      0x1f\n        /* \"#utility.yul\":1302:1308   */\n      dup4\n        /* \"#utility.yul\":1298:1315   */\n      add\n        /* \"#utility.yul\":1294:1321   */\n      slt\n        /* \"#utility.yul\":1284:1406   */\n      tag_148\n      jumpi\n        /* \"#utility.yul\":1325:1404   */\n      tag_149\n      tag_144\n      jump\t// in\n    tag_149:\n        /* \"#utility.yul\":1284:1406   */\n    tag_148:\n        /* \"#utility.yul\":1442:1448   */\n      dup2\n        /* \"#utility.yul\":1429:1449   */\n      calldataload\n        /* \"#utility.yul\":1467:1546   */\n      tag_150\n        /* \"#utility.yul\":1542:1545   */\n      dup5\n        /* \"#utility.yul\":1534:1540   */\n      dup3\n        /* \"#utility.yul\":1527:1531   */\n      0x20\n        /* \"#utility.yul\":1519:1525   */\n      dup7\n        /* \"#utility.yul\":1515:1532   */\n      add\n        /* \"#utility.yul\":1467:1546   */\n      tag_132\n      jump\t// in\n    tag_150:\n        /* \"#utility.yul\":1458:1546   */\n      swap2\n      pop\n        /* \"#utility.yul\":1274:1552   */\n      pop\n        /* \"#utility.yul\":1212:1552   */\n      swap3\n      swap2\n      pop\n      pop\n      jump\t// out\n        /* \"#utility.yul\":1558:1697   */\n    tag_151:\n        /* \"#utility.yul\":1604:1609   */\n      0x00\n        /* \"#utility.yul\":1642:1648   */\n      dup2\n        /* \"#utility.yul\":1629:1649   */\n      calldataload\n        /* \"#utility.yul\":1620:1649   */\n      swap1\n      pop\n        /* \"#utility.yul\":1658:1691   */\n      tag_153\n        /* \"#utility.yul\":1685:1690   */\n      dup2\n        /* \"#utility.yul\":1658:1691   */\n      tag_154\n      jump\t// in\n    tag_153:\n        /* \"#utility.yul\":1558:1697   */\n      swap3\n      swap2\n      pop\n      pop\n      jump\t// out\n        /* \"#utility.yul\":1703:2212   */\n    tag_10:\n        /* \"#utility.yul\":1772:1778   */\n      0x00\n        /* \"#utility.yul\":1821:1823   */\n      0x20\n        /* \"#utility.yul\":1809:1818   */\n      dup3\n        /* \"#utility.yul\":1800:1807   */\n      dup5\n        /* \"#utility.yul\":1796:1819   */\n      sub\n        /* \"#utility.yul\":1792:1824   */\n      slt\n        /* \"#utility.yul\":1789:1908   */\n      iszero\n      tag_156\n      jumpi\n        /* \"#utility.yul\":1827:1906   */\n      tag_157\n      tag_158\n      jump\t// in\n    tag_157:\n        /* \"#utility.yul\":1789:1908   */\n    tag_156:\n        /* \"#utility.yul\":1975:1976   */\n      0x00\n        /* \"#utility.yul\":1964:1973   */\n      dup3\n        /* \"#utility.yul\":1960:1977   */\n      add\n        /* \"#utility.yul\":1947:1978   */\n      calldataload\n        /* \"#utility.yul\":2005:2023   */\n      0xffffffffffffffff\n        /* \"#utility.yul\":1997:2003   */\n      dup2\n        /* \"#utility.yul\":1994:2024   */\n      gt\n        /* \"#utility.yul\":1991:2108   */\n      iszero\n      tag_159\n      jumpi\n        /* \"#utility.yul\":2027:2106   */\n      tag_160\n      tag_161\n      jump\t// in\n    tag_160:\n        /* \"#utility.yul\":1991:2108   */\n    tag_159:\n        /* \"#utility.yul\":2132:2195   */\n      tag_162\n        /* \"#utility.yul\":2187:2194   */\n      dup5\n        /* \"#utility.yul\":2178:2184   */\n      dup3\n        /* \"#utility.yul\":2167:2176   */\n      dup6\n        /* \"#utility.yul\":2163:2185   */\n      add\n        /* \"#utility.yul\":2132:2195   */\n      tag_146\n      jump\t// in\n    tag_162:\n        /* \"#utility.yul\":2122:2195   */\n      swap2\n      pop\n        /* \"#utility.yul\":1918:2205   */\n      pop\n        /* \"#utility.yul\":1703:2212   */\n      swap3\n      swap2\n      pop\n      pop\n      jump\t// out\n        /* \"#utility.yul\":2218:3375   */\n    tag_16:\n        /* \"#utility.yul\":2324:2330   */\n      0x00\n        /* \"#utility.yul\":2332:2338   */\n      dup1\n        /* \"#utility.yul\":2340:2346   */\n      0x00\n        /* \"#utility.yul\":2389:2391   */\n      0x60\n        /* \"#utility.yul\":2377:2386   */\n      dup5\n        /* \"#utility.yul\":2368:2375   */\n      dup7\n        /* \"#utility.yul\":2364:2387   */\n      sub\n        /* \"#utility.yul\":2360:2392   */\n      slt\n        /* \"#utility.yul\":2357:2476   */\n      iszero\n      tag_164\n      jumpi\n        /* \"#utility.yul\":2395:2474   */\n      tag_165\n      tag_158\n      jump\t// in\n    tag_165:\n        /* \"#utility.yul\":2357:2476   */\n    tag_164:\n        /* \"#utility.yul\":2543:2544   */\n      0x00\n        /* \"#utility.yul\":2532:2541   */\n      dup5\n        /* \"#utility.yul\":2528:2545   */\n      add\n        /* \"#utility.yul\":2515:2546   */\n      calldataload\n        /* \"#utility.yul\":2573:2591   */\n      0xffffffffffffffff\n        /* \"#utility.yul\":2565:2571   */\n      dup2\n        /* \"#utility.yul\":2562:2592   */\n      gt\n        /* \"#utility.yul\":2559:2676   */\n      iszero\n      tag_166\n      jumpi\n        /* \"#utility.yul\":2595:2674   */\n      tag_167\n      tag_161\n      jump\t// in\n    tag_167:\n        /* \"#utility.yul\":2559:2676   */\n    tag_166:\n        /* \"#utility.yul\":2700:2763   */\n      tag_168\n        /* \"#utility.yul\":2755:2762   */\n      dup7\n        /* \"#utility.yul\":2746:2752   */\n      dup3\n        /* \"#utility.yul\":2735:2744   */\n      dup8\n        /* \"#utility.yul\":2731:2753   */\n      add\n        /* \"#utility.yul\":2700:2763   */\n      tag_146\n      jump\t// in\n    tag_168:\n        /* \"#utility.yul\":2690:2763   */\n      swap4\n      pop\n        /* \"#utility.yul\":2486:2773   */\n      pop\n        /* \"#utility.yul\":2840:2842   */\n      0x20\n        /* \"#utility.yul\":2829:2838   */\n      dup5\n        /* \"#utility.yul\":2825:2843   */\n      add\n        /* \"#utility.yul\":2812:2844   */\n      calldataload\n        /* \"#utility.yul\":2871:2889   */\n      0xffffffffffffffff\n        /* \"#utility.yul\":2863:2869   */\n      dup2\n        /* \"#utility.yul\":2860:2890   */\n      gt\n        /* \"#utility.yul\":2857:2974   */\n      iszero\n      tag_169\n      jumpi\n        /* \"#utility.yul\":2893:2972   */\n      tag_170\n      tag_161\n      jump\t// in\n    tag_170:\n        /* \"#utility.yul\":2857:2974   */\n    tag_169:\n        /* \"#utility.yul\":2998:3061   */\n      tag_171\n        /* \"#utility.yul\":3053:3060   */\n      dup7\n        /* \"#utility.yul\":3044:3050   */\n      dup3\n        /* \"#utility.yul\":3033:3042   */\n      dup8\n        /* \"#utility.yul\":3029:3051   */\n      add\n        /* \"#utility.yul\":2998:3061   */\n      tag_146\n      jump\t// in\n    tag_171:\n        /* \"#utility.yul\":2988:3061   */\n      swap3\n      pop\n        /* \"#utility.yul\":2783:3071   */\n      pop\n        /* \"#utility.yul\":3138:3140   */\n      0x40\n        /* \"#utility.yul\":3127:3136   */\n      dup5\n        /* \"#utility.yul\":3123:3141   */\n      add\n        /* \"#utility.yul\":3110:3142   */\n      calldataload\n        /* \"#utility.yul\":3169:3187   */\n      0xffffffffffffffff\n        /* \"#utility.yul\":3161:3167   */\n      dup2\n        /* \"#utility.yul\":3158:3188   */\n      gt\n        /* \"#utility.yul\":3155:3272   */\n      iszero\n      tag_172\n      jumpi\n        /* \"#utility.yul\":3191:3270   */\n      tag_173\n      tag_161\n      jump\t// in\n    tag_173:\n        /* \"#utility.yul\":3155:3272   */\n    tag_172:\n        /* \"#utility.yul\":3296:3358   */\n      tag_174\n        /* \"#utility.yul\":3350:3357   */\n      dup7\n        /* \"#utility.yul\":3341:3347   */\n      dup3\n        /* \"#utility.yul\":3330:3339   */\n      dup8\n        /* \"#utility.yul\":3326:3348   */\n      add\n        /* \"#utility.yul\":3296:3358   */\n      tag_140\n      jump\t// in\n    tag_174:\n        /* \"#utility.yul\":3286:3358   */\n      swap2\n      pop\n        /* \"#utility.yul\":3081:3368   */\n      pop\n        /* \"#utility.yul\":2218:3375   */\n      swap3\n      pop\n      swap3\n      pop\n      swap3\n      jump\t// out\n        /* \"#utility.yul\":3381:4540   */\n    tag_22:\n        /* \"#utility.yul\":3488:3494   */\n      0x00\n        /* \"#utility.yul\":3496:3502   */\n      dup1\n        /* \"#utility.yul\":3504:3510   */\n      0x00\n        /* \"#utility.yul\":3553:3555   */\n      0x60\n        /* \"#utility.yul\":3541:3550   */\n      dup5\n        /* \"#utility.yul\":3532:3539   */\n      dup7\n        /* \"#utility.yul\":3528:3551   */\n      sub\n        /* \"#utility.yul\":3524:3556   */\n      slt\n        /* \"#utility.yul\":3521:3640   */\n      iszero\n      tag_176\n      jumpi\n        /* \"#utility.yul\":3559:3638   */\n      tag_177\n      tag_158\n      jump\t// in\n    tag_177:\n        /* \"#utility.yul\":3521:3640   */\n    tag_176:\n        /* \"#utility.yul\":3707:3708   */\n      0x00\n        /* \"#utility.yul\":3696:3705   */\n      dup5\n        /* \"#utility.yul\":3692:3709   */\n      add\n        /* \"#utility.yul\":3679:3710   */\n      calldataload\n        /* \"#utility.yul\":3737:3755   */\n      0xffffffffffffffff\n        /* \"#utility.yul\":3729:3735   */\n      dup2\n        /* \"#utility.yul\":3726:3756   */\n      gt\n        /* \"#utility.yul\":3723:3840   */\n      iszero\n      tag_178\n      jumpi\n        /* \"#utility.yul\":3759:3838   */\n      tag_179\n      tag_161\n      jump\t// in\n    tag_179:\n        /* \"#utility.yul\":3723:3840   */\n    tag_178:\n        /* \"#utility.yul\":3864:3927   */\n      tag_180\n        /* \"#utility.yul\":3919:3926   */\n      dup7\n        /* \"#utility.yul\":3910:3916   */\n      dup3\n        /* \"#utility.yul\":3899:3908   */\n      dup8\n        /* \"#utility.yul\":3895:3917   */\n      add\n        /* \"#utility.yul\":3864:3927   */\n      tag_146\n      jump\t// in\n    tag_180:\n        /* \"#utility.yul\":3854:3927   */\n      swap4\n      pop\n        /* \"#utility.yul\":3650:3937   */\n      pop\n        /* \"#utility.yul\":4004:4006   */\n      0x20\n        /* \"#utility.yul\":3993:4002   */\n      dup5\n        /* \"#utility.yul\":3989:4007   */\n      add\n        /* \"#utility.yul\":3976:4008   */\n      calldataload\n        /* \"#utility.yul\":4035:4053   */\n      0xffffffffffffffff\n        /* \"#utility.yul\":4027:4033   */\n      dup2\n        /* \"#utility.yul\":4024:4054   */\n      gt\n        /* \"#utility.yul\":4021:4138   */\n      iszero\n      tag_181\n      jumpi\n        /* \"#utility.yul\":4057:4136   */\n      tag_182\n      tag_161\n      jump\t// in\n    tag_182:\n        /* \"#utility.yul\":4021:4138   */\n    tag_181:\n        /* \"#utility.yul\":4162:4225   */\n      tag_183\n        /* \"#utility.yul\":4217:4224   */\n      dup7\n        /* \"#utility.yul\":4208:4214   */\n      dup3\n        /* \"#utility.yul\":4197:4206   */\n      dup8\n        /* \"#utility.yul\":4193:4215   */\n      add\n        /* \"#utility.yul\":4162:4225   */\n      tag_146\n      jump\t// in\n    tag_183:\n        /* \"#utility.yul\":4152:4225   */\n      swap3\n      pop\n        /* \"#utility.yul\":3947:4235   */\n      pop\n        /* \"#utility.yul\":4302:4304   */\n      0x40\n        /* \"#utility.yul\":4291:4300   */\n      dup5\n        /* \"#utility.yul\":4287:4305   */\n      add\n        /* \"#utility.yul\":4274:4306   */\n      calldataload\n        /* \"#utility.yul\":4333:4351   */\n      0xffffffffffffffff\n        /* \"#utility.yul\":4325:4331   */\n      dup2\n        /* \"#utility.yul\":4322:4352   */\n      gt\n        /* \"#utility.yul\":4319:4436   */\n      iszero\n      tag_184\n      jumpi\n        /* \"#utility.yul\":4355:4434   */\n      tag_185\n      tag_161\n      jump\t// in\n    tag_185:\n        /* \"#utility.yul\":4319:4436   */\n    tag_184:\n        /* \"#utility.yul\":4460:4523   */\n      tag_186\n        /* \"#utility.yul\":4515:4522   */\n      dup7\n        /* \"#utility.yul\":4506:4512   */\n      dup3\n        /* \"#utility.yul\":4495:4504   */\n      dup8\n        /* \"#utility.yul\":4491:4513   */\n      add\n        /* \"#utility.yul\":4460:4523   */\n      tag_146\n      jump\t// in\n    tag_186:\n        /* \"#utility.yul\":4450:4523   */\n      swap2\n      pop\n        /* \"#utility.yul\":4245:4533   */\n      pop\n        /* \"#utility.yul\":3381:4540   */\n      swap3\n      pop\n      swap3\n      pop\n      swap3\n      jump\t// out\n        /* \"#utility.yul\":4546:5525   */\n    tag_27:\n        /* \"#utility.yul\":4643:4649   */\n      0x00\n        /* \"#utility.yul\":4651:4657   */\n      dup1\n        /* \"#utility.yul\":4659:4665   */\n      0x00\n        /* \"#utility.yul\":4708:4710   */\n      0x60\n        /* \"#utility.yul\":4696:4705   */\n      dup5\n        /* \"#utility.yul\":4687:4694   */\n      dup7\n        /* \"#utility.yul\":4683:4706   */\n      sub\n        /* \"#utility.yul\":4679:4711   */\n      slt\n        /* \"#utility.yul\":4676:4795   */\n      iszero\n      tag_188\n      jumpi\n        /* \"#utility.yul\":4714:4793   */\n      tag_189\n      tag_158\n      jump\t// in\n    tag_189:\n        /* \"#utility.yul\":4676:4795   */\n    tag_188:\n        /* \"#utility.yul\":4862:4863   */\n      0x00\n        /* \"#utility.yul\":4851:4860   */\n      dup5\n        /* \"#utility.yul\":4847:4864   */\n      add\n        /* \"#utility.yul\":4834:4865   */\n      calldataload\n        /* \"#utility.yul\":4892:4910   */\n      0xffffffffffffffff\n        /* \"#utility.yul\":4884:4890   */\n      dup2\n        /* \"#utility.yul\":4881:4911   */\n      gt\n        /* \"#utility.yul\":4878:4995   */\n      iszero\n      tag_190\n      jumpi\n        /* \"#utility.yul\":4914:4993   */\n      tag_191\n      tag_161\n      jump\t// in\n    tag_191:\n        /* \"#utility.yul\":4878:4995   */\n    tag_190:\n        /* \"#utility.yul\":5019:5082   */\n      tag_192\n        /* \"#utility.yul\":5074:5081   */\n      dup7\n        /* \"#utility.yul\":5065:5071   */\n      dup3\n        /* \"#utility.yul\":5054:5063   */\n      dup8\n        /* \"#utility.yul\":5050:5072   */\n      add\n        /* \"#utility.yul\":5019:5082   */\n      tag_146\n      jump\t// in\n    tag_192:\n        /* \"#utility.yul\":5009:5082   */\n      swap4\n      pop\n        /* \"#utility.yul\":4805:5092   */\n      pop\n        /* \"#utility.yul\":5159:5161   */\n      0x20\n        /* \"#utility.yul\":5148:5157   */\n      dup5\n        /* \"#utility.yul\":5144:5162   */\n      add\n        /* \"#utility.yul\":5131:5163   */\n      calldataload\n        /* \"#utility.yul\":5190:5208   */\n      0xffffffffffffffff\n        /* \"#utility.yul\":5182:5188   */\n      dup2\n        /* \"#utility.yul\":5179:5209   */\n      gt\n        /* \"#utility.yul\":5176:5293   */\n      iszero\n      tag_193\n      jumpi\n        /* \"#utility.yul\":5212:5291   */\n      tag_194\n      tag_161\n      jump\t// in\n    tag_194:\n        /* \"#utility.yul\":5176:5293   */\n    tag_193:\n        /* \"#utility.yul\":5317:5380   */\n      tag_195\n        /* \"#utility.yul\":5372:5379   */\n      dup7\n        /* \"#utility.yul\":5363:5369   */\n      dup3\n        /* \"#utility.yul\":5352:5361   */\n      dup8\n        /* \"#utility.yul\":5348:5370   */\n      add\n        /* \"#utility.yul\":5317:5380   */\n      tag_146\n      jump\t// in\n    tag_195:\n        /* \"#utility.yul\":5307:5380   */\n      swap3\n      pop\n        /* \"#utility.yul\":5102:5390   */\n      pop\n        /* \"#utility.yul\":5429:5431   */\n      0x40\n        /* \"#utility.yul\":5455:5508   */\n      tag_196\n        /* \"#utility.yul\":5500:5507   */\n      dup7\n        /* \"#utility.yul\":5491:5497   */\n      dup3\n        /* \"#utility.yul\":5480:5489   */\n      dup8\n        /* \"#utility.yul\":5476:5498   */\n      add\n        /* \"#utility.yul\":5455:5508   */\n      tag_151\n      jump\t// in\n    tag_196:\n        /* \"#utility.yul\":5445:5508   */\n      swap2\n      pop\n        /* \"#utility.yul\":5400:5518   */\n      pop\n        /* \"#utility.yul\":4546:5525   */\n      swap3\n      pop\n      swap3\n      pop\n      swap3\n      jump\t// out\n        /* \"#utility.yul\":5531:5649   */\n    tag_197:\n        /* \"#utility.yul\":5618:5642   */\n      tag_199\n        /* \"#utility.yul\":5636:5641   */\n      dup2\n        /* \"#utility.yul\":5618:5642   */\n      tag_200\n      jump\t// in\n    tag_199:\n        /* \"#utility.yul\":5613:5616   */\n      dup3\n        /* \"#utility.yul\":5606:5643   */\n      mstore\n        /* \"#utility.yul\":5531:5649   */\n      pop\n      pop\n      jump\t// out\n        /* \"#utility.yul\":5655:5995   */\n    tag_201:\n        /* \"#utility.yul\":5731:5734   */\n      0x00\n        /* \"#utility.yul\":5759:5797   */\n      tag_203\n        /* \"#utility.yul\":5791:5796   */\n      dup3\n        /* \"#utility.yul\":5759:5797   */\n      tag_204\n      jump\t// in\n    tag_203:\n        /* \"#utility.yul\":5813:5873   */\n      tag_205\n        /* \"#utility.yul\":5866:5872   */\n      dup2\n        /* \"#utility.yul\":5861:5864   */\n      dup6\n        /* \"#utility.yul\":5813:5873   */\n      tag_206\n      jump\t// in\n    tag_205:\n        /* \"#utility.yul\":5806:5873   */\n      swap4\n      pop\n        /* \"#utility.yul\":5882:5934   */\n      tag_207\n        /* \"#utility.yul\":5927:5933   */\n      dup2\n        /* \"#utility.yul\":5922:5925   */\n      dup6\n        /* \"#utility.yul\":5915:5919   */\n      0x20\n        /* \"#utility.yul\":5908:5913   */\n      dup7\n        /* \"#utility.yul\":5904:5920   */\n      add\n        /* \"#utility.yul\":5882:5934   */\n      tag_208\n      jump\t// in\n    tag_207:\n        /* \"#utility.yul\":5959:5988   */\n      tag_209\n        /* \"#utility.yul\":5981:5987   */\n      dup2\n        /* \"#utility.yul\":5959:5988   */\n      tag_210\n      jump\t// in\n    tag_209:\n        /* \"#utility.yul\":5954:5957   */\n      dup5\n        /* \"#utility.yul\":5950:5989   */\n      add\n        /* \"#utility.yul\":5943:5989   */\n      swap2\n      pop\n        /* \"#utility.yul\":5735:5995   */\n      pop\n        /* \"#utility.yul\":5655:5995   */\n      swap3\n      swap2\n      pop\n      pop\n      jump\t// out\n        /* \"#utility.yul\":6001:6345   */\n    tag_211:\n        /* \"#utility.yul\":6079:6082   */\n      0x00\n        /* \"#utility.yul\":6107:6146   */\n      tag_213\n        /* \"#utility.yul\":6140:6145   */\n      dup3\n        /* \"#utility.yul\":6107:6146   */\n      tag_214\n      jump\t// in\n    tag_213:\n        /* \"#utility.yul\":6162:6223   */\n      tag_215\n        /* \"#utility.yul\":6216:6222   */\n      dup2\n        /* \"#utility.yul\":6211:6214   */\n      dup6\n        /* \"#utility.yul\":6162:6223   */\n      tag_216\n      jump\t// in\n    tag_215:\n        /* \"#utility.yul\":6155:6223   */\n      swap4\n      pop\n        /* \"#utility.yul\":6232:6284   */\n      tag_217\n        /* \"#utility.yul\":6277:6283   */\n      dup2\n        /* \"#utility.yul\":6272:6275   */\n      dup6\n        /* \"#utility.yul\":6265:6269   */\n      0x20\n        /* \"#utility.yul\":6258:6263   */\n      dup7\n        /* \"#utility.yul\":6254:6270   */\n      add\n        /* \"#utility.yul\":6232:6284   */\n      tag_208\n      jump\t// in\n    tag_217:\n        /* \"#utility.yul\":6309:6338   */\n      tag_218\n        /* \"#utility.yul\":6331:6337   */\n      dup2\n        /* \"#utility.yul\":6309:6338   */\n      tag_210\n      jump\t// in\n    tag_218:\n        /* \"#utility.yul\":6304:6307   */\n      dup5\n        /* \"#utility.yul\":6300:6339   */\n      add\n        /* \"#utility.yul\":6293:6339   */\n      swap2\n      pop\n        /* \"#utility.yul\":6083:6345   */\n      pop\n        /* \"#utility.yul\":6001:6345   */\n      swap3\n      swap2\n      pop\n      pop\n      jump\t// out\n        /* \"#utility.yul\":6351:6728   */\n    tag_219:\n        /* \"#utility.yul\":6457:6460   */\n      0x00\n        /* \"#utility.yul\":6485:6524   */\n      tag_221\n        /* \"#utility.yul\":6518:6523   */\n      dup3\n        /* \"#utility.yul\":6485:6524   */\n      tag_214\n      jump\t// in\n    tag_221:\n        /* \"#utility.yul\":6540:6629   */\n      tag_222\n        /* \"#utility.yul\":6622:6628   */\n      dup2\n        /* \"#utility.yul\":6617:6620   */\n      dup6\n        /* \"#utility.yul\":6540:6629   */\n      tag_223\n      jump\t// in\n    tag_222:\n        /* \"#utility.yul\":6533:6629   */\n      swap4\n      pop\n        /* \"#utility.yul\":6638:6690   */\n      tag_224\n        /* \"#utility.yul\":6683:6689   */\n      dup2\n        /* \"#utility.yul\":6678:6681   */\n      dup6\n        /* \"#utility.yul\":6671:6675   */\n      0x20\n        /* \"#utility.yul\":6664:6669   */\n      dup7\n        /* \"#utility.yul\":6660:6676   */\n      add\n        /* \"#utility.yul\":6638:6690   */\n      tag_208\n      jump\t// in\n    tag_224:\n        /* \"#utility.yul\":6715:6721   */\n      dup1\n        /* \"#utility.yul\":6710:6713   */\n      dup5\n        /* \"#utility.yul\":6706:6722   */\n      add\n        /* \"#utility.yul\":6699:6722   */\n      swap2\n      pop\n        /* \"#utility.yul\":6461:6728   */\n      pop\n        /* \"#utility.yul\":6351:6728   */\n      swap3\n      swap2\n      pop\n      pop\n      jump\t// out\n        /* \"#utility.yul\":6758:7603   */\n    tag_225:\n        /* \"#utility.yul\":6861:6864   */\n      0x00\n        /* \"#utility.yul\":6898:6903   */\n      dup2\n        /* \"#utility.yul\":6892:6904   */\n      sload\n        /* \"#utility.yul\":6927:6963   */\n      tag_227\n        /* \"#utility.yul\":6953:6962   */\n      dup2\n        /* \"#utility.yul\":6927:6963   */\n      tag_40\n      jump\t// in\n    tag_227:\n        /* \"#utility.yul\":6979:7068   */\n      tag_228\n        /* \"#utility.yul\":7061:7067   */\n      dup2\n        /* \"#utility.yul\":7056:7059   */\n      dup7\n        /* \"#utility.yul\":6979:7068   */\n      tag_223\n      jump\t// in\n    tag_228:\n        /* \"#utility.yul\":6972:7068   */\n      swap5\n      pop\n        /* \"#utility.yul\":7099:7100   */\n      0x01\n        /* \"#utility.yul\":7088:7097   */\n      dup3\n        /* \"#utility.yul\":7084:7101   */\n      and\n        /* \"#utility.yul\":7115:7116   */\n      0x00\n        /* \"#utility.yul\":7110:7247   */\n      dup2\n      eq\n      tag_230\n      jumpi\n        /* \"#utility.yul\":7261:7262   */\n      0x01\n        /* \"#utility.yul\":7256:7597   */\n      dup2\n      eq\n      tag_231\n      jumpi\n        /* \"#utility.yul\":7077:7597   */\n      jump(tag_229)\n        /* \"#utility.yul\":7110:7247   */\n    tag_230:\n        /* \"#utility.yul\":7194:7198   */\n      0xff\n        /* \"#utility.yul\":7190:7199   */\n      not\n        /* \"#utility.yul\":7179:7188   */\n      dup4\n        /* \"#utility.yul\":7175:7200   */\n      and\n        /* \"#utility.yul\":7170:7173   */\n      dup7\n        /* \"#utility.yul\":7163:7201   */\n      mstore\n        /* \"#utility.yul\":7230:7236   */\n      dup2\n        /* \"#utility.yul\":7225:7228   */\n      dup7\n        /* \"#utility.yul\":7221:7237   */\n      add\n        /* \"#utility.yul\":7214:7237   */\n      swap4\n      pop\n        /* \"#utility.yul\":7110:7247   */\n      jump(tag_229)\n        /* \"#utility.yul\":7256:7597   */\n    tag_231:\n        /* \"#utility.yul\":7323:7361   */\n      tag_232\n        /* \"#utility.yul\":7355:7360   */\n      dup6\n        /* \"#utility.yul\":7323:7361   */\n      tag_233\n      jump\t// in\n    tag_232:\n        /* \"#utility.yul\":7383:7384   */\n      0x00\n        /* \"#utility.yul\":7397:7551   */\n    tag_234:\n        /* \"#utility.yul\":7411:7417   */\n      dup4\n        /* \"#utility.yul\":7408:7409   */\n      dup2\n        /* \"#utility.yul\":7405:7418   */\n      lt\n        /* \"#utility.yul\":7397:7551   */\n      iszero\n      tag_236\n      jumpi\n        /* \"#utility.yul\":7485:7492   */\n      dup2\n        /* \"#utility.yul\":7479:7493   */\n      sload\n        /* \"#utility.yul\":7475:7476   */\n      dup2\n        /* \"#utility.yul\":7470:7473   */\n      dup10\n        /* \"#utility.yul\":7466:7477   */\n      add\n        /* \"#utility.yul\":7459:7494   */\n      mstore\n        /* \"#utility.yul\":7535:7536   */\n      0x01\n        /* \"#utility.yul\":7526:7533   */\n      dup3\n        /* \"#utility.yul\":7522:7537   */\n      add\n        /* \"#utility.yul\":7511:7537   */\n      swap2\n      pop\n        /* \"#utility.yul\":7433:7437   */\n      0x20\n        /* \"#utility.yul\":7430:7431   */\n      dup2\n        /* \"#utility.yul\":7426:7438   */\n      add\n        /* \"#utility.yul\":7421:7438   */\n      swap1\n      pop\n        /* \"#utility.yul\":7397:7551   */\n      jump(tag_234)\n    tag_236:\n        /* \"#utility.yul\":7580:7586   */\n      dup4\n        /* \"#utility.yul\":7575:7578   */\n      dup9\n        /* \"#utility.yul\":7571:7587   */\n      add\n        /* \"#utility.yul\":7564:7587   */\n      swap6\n      pop\n        /* \"#utility.yul\":7263:7597   */\n      pop\n      pop\n        /* \"#utility.yul\":7077:7597   */\n    tag_229:\n      pop\n        /* \"#utility.yul\":6865:7603   */\n      pop\n      pop\n        /* \"#utility.yul\":6758:7603   */\n      swap3\n      swap2\n      pop\n      pop\n      jump\t// out\n        /* \"#utility.yul\":7609:7975   */\n    tag_237:\n        /* \"#utility.yul\":7751:7754   */\n      0x00\n        /* \"#utility.yul\":7772:7839   */\n      tag_239\n        /* \"#utility.yul\":7836:7838   */\n      0x18\n        /* \"#utility.yul\":7831:7834   */\n      dup4\n        /* \"#utility.yul\":7772:7839   */\n      tag_240\n      jump\t// in\n    tag_239:\n        /* \"#utility.yul\":7765:7839   */\n      swap2\n      pop\n        /* \"#utility.yul\":7848:7941   */\n      tag_241\n        /* \"#utility.yul\":7937:7940   */\n      dup3\n        /* \"#utility.yul\":7848:7941   */\n      tag_242\n      jump\t// in\n    tag_241:\n        /* \"#utility.yul\":7966:7968   */\n      0x20\n        /* \"#utility.yul\":7961:7964   */\n      dup3\n        /* \"#utility.yul\":7957:7969   */\n      add\n        /* \"#utility.yul\":7950:7969   */\n      swap1\n      pop\n        /* \"#utility.yul\":7609:7975   */\n      swap2\n      swap1\n      pop\n      jump\t// out\n        /* \"#utility.yul\":7981:8346   */\n    tag_243:\n        /* \"#utility.yul\":8123:8126   */\n      0x00\n        /* \"#utility.yul\":8144:8210   */\n      tag_245\n        /* \"#utility.yul\":8208:8209   */\n      0x07\n        /* \"#utility.yul\":8203:8206   */\n      dup4\n        /* \"#utility.yul\":8144:8210   */\n      tag_240\n      jump\t// in\n    tag_245:\n        /* \"#utility.yul\":8137:8210   */\n      swap2\n      pop\n        /* \"#utility.yul\":8219:8312   */\n      tag_246\n        /* \"#utility.yul\":8308:8311   */\n      dup3\n        /* \"#utility.yul\":8219:8312   */\n      tag_247\n      jump\t// in\n    tag_246:\n        /* \"#utility.yul\":8337:8339   */\n      0x20\n        /* \"#utility.yul\":8332:8335   */\n      dup3\n        /* \"#utility.yul\":8328:8340   */\n      add\n        /* \"#utility.yul\":8321:8340   */\n      swap1\n      pop\n        /* \"#utility.yul\":7981:8346   */\n      swap2\n      swap1\n      pop\n      jump\t// out\n        /* \"#utility.yul\":8412:9524   */\n    tag_248:\n        /* \"#utility.yul\":8535:8538   */\n      0x00\n        /* \"#utility.yul\":8571:8575   */\n      0x80\n        /* \"#utility.yul\":8566:8569   */\n      dup4\n        /* \"#utility.yul\":8562:8576   */\n      add\n        /* \"#utility.yul\":8664:8668   */\n      0x00\n        /* \"#utility.yul\":8657:8662   */\n      dup4\n        /* \"#utility.yul\":8653:8669   */\n      add\n        /* \"#utility.yul\":8647:8670   */\n      mload\n        /* \"#utility.yul\":8717:8720   */\n      dup5\n        /* \"#utility.yul\":8711:8715   */\n      dup3\n        /* \"#utility.yul\":8707:8721   */\n      sub\n        /* \"#utility.yul\":8700:8704   */\n      0x00\n        /* \"#utility.yul\":8695:8698   */\n      dup7\n        /* \"#utility.yul\":8691:8705   */\n      add\n        /* \"#utility.yul\":8684:8722   */\n      mstore\n        /* \"#utility.yul\":8743:8816   */\n      tag_250\n        /* \"#utility.yul\":8811:8815   */\n      dup3\n        /* \"#utility.yul\":8797:8809   */\n      dup3\n        /* \"#utility.yul\":8743:8816   */\n      tag_211\n      jump\t// in\n    tag_250:\n        /* \"#utility.yul\":8735:8816   */\n      swap2\n      pop\n        /* \"#utility.yul\":8586:8827   */\n      pop\n        /* \"#utility.yul\":8909:8913   */\n      0x20\n        /* \"#utility.yul\":8902:8907   */\n      dup4\n        /* \"#utility.yul\":8898:8914   */\n      add\n        /* \"#utility.yul\":8892:8915   */\n      mload\n        /* \"#utility.yul\":8962:8965   */\n      dup5\n        /* \"#utility.yul\":8956:8960   */\n      dup3\n        /* \"#utility.yul\":8952:8966   */\n      sub\n        /* \"#utility.yul\":8945:8949   */\n      0x20\n        /* \"#utility.yul\":8940:8943   */\n      dup7\n        /* \"#utility.yul\":8936:8950   */\n      add\n        /* \"#utility.yul\":8929:8967   */\n      mstore\n        /* \"#utility.yul\":8988:9061   */\n      tag_251\n        /* \"#utility.yul\":9056:9060   */\n      dup3\n        /* \"#utility.yul\":9042:9054   */\n      dup3\n        /* \"#utility.yul\":8988:9061   */\n      tag_211\n      jump\t// in\n    tag_251:\n        /* \"#utility.yul\":8980:9061   */\n      swap2\n      pop\n        /* \"#utility.yul\":8837:9072   */\n      pop\n        /* \"#utility.yul\":9154:9158   */\n      0x40\n        /* \"#utility.yul\":9147:9152   */\n      dup4\n        /* \"#utility.yul\":9143:9159   */\n      add\n        /* \"#utility.yul\":9137:9160   */\n      mload\n        /* \"#utility.yul\":9207:9210   */\n      dup5\n        /* \"#utility.yul\":9201:9205   */\n      dup3\n        /* \"#utility.yul\":9197:9211   */\n      sub\n        /* \"#utility.yul\":9190:9194   */\n      0x40\n        /* \"#utility.yul\":9185:9188   */\n      dup7\n        /* \"#utility.yul\":9181:9195   */\n      add\n        /* \"#utility.yul\":9174:9212   */\n      mstore\n        /* \"#utility.yul\":9233:9306   */\n      tag_252\n        /* \"#utility.yul\":9301:9305   */\n      dup3\n        /* \"#utility.yul\":9287:9299   */\n      dup3\n        /* \"#utility.yul\":9233:9306   */\n      tag_211\n      jump\t// in\n    tag_252:\n        /* \"#utility.yul\":9225:9306   */\n      swap2\n      pop\n        /* \"#utility.yul\":9082:9317   */\n      pop\n        /* \"#utility.yul\":9405:9409   */\n      0x60\n        /* \"#utility.yul\":9398:9403   */\n      dup4\n        /* \"#utility.yul\":9394:9410   */\n      add\n        /* \"#utility.yul\":9388:9411   */\n      mload\n        /* \"#utility.yul\":9424:9487   */\n      tag_253\n        /* \"#utility.yul\":9481:9485   */\n      0x60\n        /* \"#utility.yul\":9476:9479   */\n      dup7\n        /* \"#utility.yul\":9472:9486   */\n      add\n        /* \"#utility.yul\":9458:9470   */\n      dup3\n        /* \"#utility.yul\":9424:9487   */\n      tag_254\n      jump\t// in\n    tag_253:\n        /* \"#utility.yul\":9327:9497   */\n      pop\n        /* \"#utility.yul\":9514:9518   */\n      dup1\n        /* \"#utility.yul\":9507:9518   */\n      swap2\n      pop\n        /* \"#utility.yul\":8540:9524   */\n      pop\n        /* \"#utility.yul\":8412:9524   */\n      swap3\n      swap2\n      pop\n      pop\n      jump\t// out\n        /* \"#utility.yul\":9590:10272   */\n    tag_255:\n        /* \"#utility.yul\":9713:9716   */\n      0x00\n        /* \"#utility.yul\":9749:9753   */\n      0x40\n        /* \"#utility.yul\":9744:9747   */\n      dup4\n        /* \"#utility.yul\":9740:9754   */\n      add\n        /* \"#utility.yul\":9839:9843   */\n      0x00\n        /* \"#utility.yul\":9832:9837   */\n      dup4\n        /* \"#utility.yul\":9828:9844   */\n      add\n        /* \"#utility.yul\":9822:9845   */\n      mload\n        /* \"#utility.yul\":9892:9895   */\n      dup5\n        /* \"#utility.yul\":9886:9890   */\n      dup3\n        /* \"#utility.yul\":9882:9896   */\n      sub\n        /* \"#utility.yul\":9875:9879   */\n      0x00\n        /* \"#utility.yul\":9870:9873   */\n      dup7\n        /* \"#utility.yul\":9866:9880   */\n      add\n        /* \"#utility.yul\":9859:9897   */\n      mstore\n        /* \"#utility.yul\":9918:9991   */\n      tag_257\n        /* \"#utility.yul\":9986:9990   */\n      dup3\n        /* \"#utility.yul\":9972:9984   */\n      dup3\n        /* \"#utility.yul\":9918:9991   */\n      tag_211\n      jump\t// in\n    tag_257:\n        /* \"#utility.yul\":9910:9991   */\n      swap2\n      pop\n        /* \"#utility.yul\":9764:10002   */\n      pop\n        /* \"#utility.yul\":10084:10088   */\n      0x20\n        /* \"#utility.yul\":10077:10082   */\n      dup4\n        /* \"#utility.yul\":10073:10089   */\n      add\n        /* \"#utility.yul\":10067:10090   */\n      mload\n        /* \"#utility.yul\":10137:10140   */\n      dup5\n        /* \"#utility.yul\":10131:10135   */\n      dup3\n        /* \"#utility.yul\":10127:10141   */\n      sub\n        /* \"#utility.yul\":10120:10124   */\n      0x20\n        /* \"#utility.yul\":10115:10118   */\n      dup7\n        /* \"#utility.yul\":10111:10125   */\n      add\n        /* \"#utility.yul\":10104:10142   */\n      mstore\n        /* \"#utility.yul\":10163:10234   */\n      tag_258\n        /* \"#utility.yul\":10229:10233   */\n      dup3\n        /* \"#utility.yul\":10215:10227   */\n      dup3\n        /* \"#utility.yul\":10163:10234   */\n      tag_201\n      jump\t// in\n    tag_258:\n        /* \"#utility.yul\":10155:10234   */\n      swap2\n      pop\n        /* \"#utility.yul\":10012:10245   */\n      pop\n        /* \"#utility.yul\":10262:10266   */\n      dup1\n        /* \"#utility.yul\":10255:10266   */\n      swap2\n      pop\n        /* \"#utility.yul\":9718:10272   */\n      pop\n        /* \"#utility.yul\":9590:10272   */\n      swap3\n      swap2\n      pop\n      pop\n      jump\t// out\n        /* \"#utility.yul\":10278:10386   */\n    tag_254:\n        /* \"#utility.yul\":10355:10379   */\n      tag_260\n        /* \"#utility.yul\":10373:10378   */\n      dup2\n        /* \"#utility.yul\":10355:10379   */\n      tag_261\n      jump\t// in\n    tag_260:\n        /* \"#utility.yul\":10350:10353   */\n      dup3\n        /* \"#utility.yul\":10343:10380   */\n      mstore\n        /* \"#utility.yul\":10278:10386   */\n      pop\n      pop\n      jump\t// out\n        /* \"#utility.yul\":10392:10667   */\n    tag_38:\n        /* \"#utility.yul\":10524:10527   */\n      0x00\n        /* \"#utility.yul\":10546:10641   */\n      tag_263\n        /* \"#utility.yul\":10637:10640   */\n      dup3\n        /* \"#utility.yul\":10628:10634   */\n      dup5\n        /* \"#utility.yul\":10546:10641   */\n      tag_219\n      jump\t// in\n    tag_263:\n        /* \"#utility.yul\":10539:10641   */\n      swap2\n      pop\n        /* \"#utility.yul\":10658:10661   */\n      dup2\n        /* \"#utility.yul\":10651:10661   */\n      swap1\n      pop\n        /* \"#utility.yul\":10392:10667   */\n      swap3\n      swap2\n      pop\n      pop\n      jump\t// out\n        /* \"#utility.yul\":10673:10942   */\n    tag_109:\n        /* \"#utility.yul\":10802:10805   */\n      0x00\n        /* \"#utility.yul\":10824:10916   */\n      tag_265\n        /* \"#utility.yul\":10912:10915   */\n      dup3\n        /* \"#utility.yul\":10903:10909   */\n      dup5\n        /* \"#utility.yul\":10824:10916   */\n      tag_225\n      jump\t// in\n    tag_265:\n        /* \"#utility.yul\":10817:10916   */\n      swap2\n      pop\n        /* \"#utility.yul\":10933:10936   */\n      dup2\n        /* \"#utility.yul\":10926:10936   */\n      swap1\n      pop\n        /* \"#utility.yul\":10673:10942   */\n      swap3\n      swap2\n      pop\n      pop\n      jump\t// out\n        /* \"#utility.yul\":10948:11170   */\n    tag_19:\n        /* \"#utility.yul\":11041:11045   */\n      0x00\n        /* \"#utility.yul\":11079:11081   */\n      0x20\n        /* \"#utility.yul\":11068:11077   */\n      dup3\n        /* \"#utility.yul\":11064:11082   */\n      add\n        /* \"#utility.yul\":11056:11082   */\n      swap1\n      pop\n        /* \"#utility.yul\":11092:11163   */\n      tag_267\n        /* \"#utility.yul\":11160:11161   */\n      0x00\n        /* \"#utility.yul\":11149:11158   */\n      dup4\n        /* \"#utility.yul\":11145:11162   */\n      add\n        /* \"#utility.yul\":11136:11142   */\n      dup5\n        /* \"#utility.yul\":11092:11163   */\n      tag_197\n      jump\t// in\n    tag_267:\n        /* \"#utility.yul\":10948:11170   */\n      swap3\n      swap2\n      pop\n      pop\n      jump\t// out\n        /* \"#utility.yul\":11176:11595   */\n    tag_73:\n        /* \"#utility.yul\":11342:11346   */\n      0x00\n        /* \"#utility.yul\":11380:11382   */\n      0x20\n        /* \"#utility.yul\":11369:11378   */\n      dup3\n        /* \"#utility.yul\":11365:11383   */\n      add\n        /* \"#utility.yul\":11357:11383   */\n      swap1\n      pop\n        /* \"#utility.yul\":11429:11438   */\n      dup2\n        /* \"#utility.yul\":11423:11427   */\n      dup2\n        /* \"#utility.yul\":11419:11439   */\n      sub\n        /* \"#utility.yul\":11415:11416   */\n      0x00\n        /* \"#utility.yul\":11404:11413   */\n      dup4\n        /* \"#utility.yul\":11400:11417   */\n      add\n        /* \"#utility.yul\":11393:11440   */\n      mstore\n        /* \"#utility.yul\":11457:11588   */\n      tag_269\n        /* \"#utility.yul\":11583:11587   */\n      dup2\n        /* \"#utility.yul\":11457:11588   */\n      tag_237\n      jump\t// in\n    tag_269:\n        /* \"#utility.yul\":11449:11588   */\n      swap1\n      pop\n        /* \"#utility.yul\":11176:11595   */\n      swap2\n      swap1\n      pop\n      jump\t// out\n        /* \"#utility.yul\":11601:12130   */\n    tag_79:\n        /* \"#utility.yul\":11795:11799   */\n      0x00\n        /* \"#utility.yul\":11833:11835   */\n      0x40\n        /* \"#utility.yul\":11822:11831   */\n      dup3\n        /* \"#utility.yul\":11818:11836   */\n      add\n        /* \"#utility.yul\":11810:11836   */\n      swap1\n      pop\n        /* \"#utility.yul\":11882:11891   */\n      dup2\n        /* \"#utility.yul\":11876:11880   */\n      dup2\n        /* \"#utility.yul\":11872:11892   */\n      sub\n        /* \"#utility.yul\":11868:11869   */\n      0x00\n        /* \"#utility.yul\":11857:11866   */\n      dup4\n        /* \"#utility.yul\":11853:11870   */\n      add\n        /* \"#utility.yul\":11846:11893   */\n      mstore\n        /* \"#utility.yul\":11910:12041   */\n      tag_271\n        /* \"#utility.yul\":12036:12040   */\n      dup2\n        /* \"#utility.yul\":11910:12041   */\n      tag_243\n      jump\t// in\n    tag_271:\n        /* \"#utility.yul\":11902:12041   */\n      swap1\n      pop\n        /* \"#utility.yul\":12051:12123   */\n      tag_272\n        /* \"#utility.yul\":12119:12121   */\n      0x20\n        /* \"#utility.yul\":12108:12117   */\n      dup4\n        /* \"#utility.yul\":12104:12122   */\n      add\n        /* \"#utility.yul\":12095:12101   */\n      dup5\n        /* \"#utility.yul\":12051:12123   */\n      tag_197\n      jump\t// in\n    tag_272:\n        /* \"#utility.yul\":11601:12130   */\n      swap3\n      swap2\n      pop\n      pop\n      jump\t// out\n        /* \"#utility.yul\":12136:12517   */\n    tag_13:\n        /* \"#utility.yul\":12283:12287   */\n      0x00\n        /* \"#utility.yul\":12321:12323   */\n      0x20\n        /* \"#utility.yul\":12310:12319   */\n      dup3\n        /* \"#utility.yul\":12306:12324   */\n      add\n        /* \"#utility.yul\":12298:12324   */\n      swap1\n      pop\n        /* \"#utility.yul\":12370:12379   */\n      dup2\n        /* \"#utility.yul\":12364:12368   */\n      dup2\n        /* \"#utility.yul\":12360:12380   */\n      sub\n        /* \"#utility.yul\":12356:12357   */\n      0x00\n        /* \"#utility.yul\":12345:12354   */\n      dup4\n        /* \"#utility.yul\":12341:12358   */\n      add\n        /* \"#utility.yul\":12334:12381   */\n      mstore\n        /* \"#utility.yul\":12398:12510   */\n      tag_274\n        /* \"#utility.yul\":12505:12509   */\n      dup2\n        /* \"#utility.yul\":12496:12502   */\n      dup5\n        /* \"#utility.yul\":12398:12510   */\n      tag_248\n      jump\t// in\n    tag_274:\n        /* \"#utility.yul\":12390:12510   */\n      swap1\n      pop\n        /* \"#utility.yul\":12136:12517   */\n      swap3\n      swap2\n      pop\n      pop\n      jump\t// out\n        /* \"#utility.yul\":12523:12904   */\n    tag_33:\n        /* \"#utility.yul\":12670:12674   */\n      0x00\n        /* \"#utility.yul\":12708:12710   */\n      0x20\n        /* \"#utility.yul\":12697:12706   */\n      dup3\n        /* \"#utility.yul\":12693:12711   */\n      add\n        /* \"#utility.yul\":12685:12711   */\n      swap1\n      pop\n        /* \"#utility.yul\":12757:12766   */\n      dup2\n        /* \"#utility.yul\":12751:12755   */\n      dup2\n        /* \"#utility.yul\":12747:12767   */\n      sub\n        /* \"#utility.yul\":12743:12744   */\n      0x00\n        /* \"#utility.yul\":12732:12741   */\n      dup4\n        /* \"#utility.yul\":12728:12745   */\n      add\n        /* \"#utility.yul\":12721:12768   */\n      mstore\n        /* \"#utility.yul\":12785:12897   */\n      tag_276\n        /* \"#utility.yul\":12892:12896   */\n      dup2\n        /* \"#utility.yul\":12883:12889   */\n      dup5\n        /* \"#utility.yul\":12785:12897   */\n      tag_255\n      jump\t// in\n    tag_276:\n        /* \"#utility.yul\":12777:12897   */\n      swap1\n      pop\n        /* \"#utility.yul\":12523:12904   */\n      swap3\n      swap2\n      pop\n      pop\n      jump\t// out\n        /* \"#utility.yul\":12910:13039   */\n    tag_126:\n        /* \"#utility.yul\":12944:12950   */\n      0x00\n        /* \"#utility.yul\":12971:12991   */\n      tag_278\n      tag_279\n      jump\t// in\n    tag_278:\n        /* \"#utility.yul\":12961:12991   */\n      swap1\n      pop\n        /* \"#utility.yul\":13000:13033   */\n      tag_280\n        /* \"#utility.yul\":13028:13032   */\n      dup3\n        /* \"#utility.yul\":13020:13026   */\n      dup3\n        /* \"#utility.yul\":13000:13033   */\n      tag_281\n      jump\t// in\n    tag_280:\n        /* \"#utility.yul\":12910:13039   */\n      swap2\n      swap1\n      pop\n      jump\t// out\n        /* \"#utility.yul\":13045:13120   */\n    tag_279:\n        /* \"#utility.yul\":13078:13084   */\n      0x00\n        /* \"#utility.yul\":13111:13113   */\n      0x40\n        /* \"#utility.yul\":13105:13114   */\n      mload\n        /* \"#utility.yul\":13095:13114   */\n      swap1\n      pop\n        /* \"#utility.yul\":13045:13120   */\n      swap1\n      jump\t// out\n        /* \"#utility.yul\":13126:13433   */\n    tag_125:\n        /* \"#utility.yul\":13187:13191   */\n      0x00\n        /* \"#utility.yul\":13277:13295   */\n      0xffffffffffffffff\n        /* \"#utility.yul\":13269:13275   */\n      dup3\n        /* \"#utility.yul\":13266:13296   */\n      gt\n        /* \"#utility.yul\":13263:13319   */\n      iszero\n      tag_284\n      jumpi\n        /* \"#utility.yul\":13299:13317   */\n      tag_285\n      tag_286\n      jump\t// in\n    tag_285:\n        /* \"#utility.yul\":13263:13319   */\n    tag_284:\n        /* \"#utility.yul\":13337:13366   */\n      tag_287\n        /* \"#utility.yul\":13359:13365   */\n      dup3\n        /* \"#utility.yul\":13337:13366   */\n      tag_210\n      jump\t// in\n    tag_287:\n        /* \"#utility.yul\":13329:13366   */\n      swap1\n      pop\n        /* \"#utility.yul\":13421:13425   */\n      0x20\n        /* \"#utility.yul\":13415:13419   */\n      dup2\n        /* \"#utility.yul\":13411:13426   */\n      add\n        /* \"#utility.yul\":13403:13426   */\n      swap1\n      pop\n        /* \"#utility.yul\":13126:13433   */\n      swap2\n      swap1\n      pop\n      jump\t// out\n        /* \"#utility.yul\":13439:13747   */\n    tag_136:\n        /* \"#utility.yul\":13501:13505   */\n      0x00\n        /* \"#utility.yul\":13591:13609   */\n      0xffffffffffffffff\n        /* \"#utility.yul\":13583:13589   */\n      dup3\n        /* \"#utility.yul\":13580:13610   */\n      gt\n        /* \"#utility.yul\":13577:13633   */\n      iszero\n      tag_289\n      jumpi\n        /* \"#utility.yul\":13613:13631   */\n      tag_290\n      tag_286\n      jump\t// in\n    tag_290:\n        /* \"#utility.yul\":13577:13633   */\n    tag_289:\n        /* \"#utility.yul\":13651:13680   */\n      tag_291\n        /* \"#utility.yul\":13673:13679   */\n      dup3\n        /* \"#utility.yul\":13651:13680   */\n      tag_210\n      jump\t// in\n    tag_291:\n        /* \"#utility.yul\":13643:13680   */\n      swap1\n      pop\n        /* \"#utility.yul\":13735:13739   */\n      0x20\n        /* \"#utility.yul\":13729:13733   */\n      dup2\n        /* \"#utility.yul\":13725:13740   */\n      add\n        /* \"#utility.yul\":13717:13740   */\n      swap1\n      pop\n        /* \"#utility.yul\":13439:13747   */\n      swap2\n      swap1\n      pop\n      jump\t// out\n        /* \"#utility.yul\":13753:13894   */\n    tag_233:\n        /* \"#utility.yul\":13802:13806   */\n      0x00\n        /* \"#utility.yul\":13825:13828   */\n      dup2\n        /* \"#utility.yul\":13817:13828   */\n      swap1\n      pop\n        /* \"#utility.yul\":13848:13851   */\n      dup2\n        /* \"#utility.yul\":13845:13846   */\n      0x00\n        /* \"#utility.yul\":13838:13852   */\n      mstore\n        /* \"#utility.yul\":13882:13886   */\n      0x20\n        /* \"#utility.yul\":13879:13880   */\n      0x00\n        /* \"#utility.yul\":13869:13887   */\n      keccak256\n        /* \"#utility.yul\":13861:13887   */\n      swap1\n      pop\n        /* \"#utility.yul\":13753:13894   */\n      swap2\n      swap1\n      pop\n      jump\t// out\n        /* \"#utility.yul\":13900:13998   */\n    tag_204:\n        /* \"#utility.yul\":13951:13957   */\n      0x00\n        /* \"#utility.yul\":13985:13990   */\n      dup2\n        /* \"#utility.yul\":13979:13991   */\n      mload\n        /* \"#utility.yul\":13969:13991   */\n      swap1\n      pop\n        /* \"#utility.yul\":13900:13998   */\n      swap2\n      swap1\n      pop\n      jump\t// out\n        /* \"#utility.yul\":14004:14103   */\n    tag_214:\n        /* \"#utility.yul\":14056:14062   */\n      0x00\n        /* \"#utility.yul\":14090:14095   */\n      dup2\n        /* \"#utility.yul\":14084:14096   */\n      mload\n        /* \"#utility.yul\":14074:14096   */\n      swap1\n      pop\n        /* \"#utility.yul\":14004:14103   */\n      swap2\n      swap1\n      pop\n      jump\t// out\n        /* \"#utility.yul\":14109:14267   */\n    tag_206:\n        /* \"#utility.yul\":14182:14193   */\n      0x00\n        /* \"#utility.yul\":14216:14222   */\n      dup3\n        /* \"#utility.yul\":14211:14214   */\n      dup3\n        /* \"#utility.yul\":14204:14223   */\n      mstore\n        /* \"#utility.yul\":14256:14260   */\n      0x20\n        /* \"#utility.yul\":14251:14254   */\n      dup3\n        /* \"#utility.yul\":14247:14261   */\n      add\n        /* \"#utility.yul\":14232:14261   */\n      swap1\n      pop\n        /* \"#utility.yul\":14109:14267   */\n      swap3\n      swap2\n      pop\n      pop\n      jump\t// out\n        /* \"#utility.yul\":14273:14432   */\n    tag_216:\n        /* \"#utility.yul\":14347:14358   */\n      0x00\n        /* \"#utility.yul\":14381:14387   */\n      dup3\n        /* \"#utility.yul\":14376:14379   */\n      dup3\n        /* \"#utility.yul\":14369:14388   */\n      mstore\n        /* \"#utility.yul\":14421:14425   */\n      0x20\n        /* \"#utility.yul\":14416:14419   */\n      dup3\n        /* \"#utility.yul\":14412:14426   */\n      add\n        /* \"#utility.yul\":14397:14426   */\n      swap1\n      pop\n        /* \"#utility.yul\":14273:14432   */\n      swap3\n      swap2\n      pop\n      pop\n      jump\t// out\n        /* \"#utility.yul\":14438:14607   */\n    tag_240:\n        /* \"#utility.yul\":14522:14533   */\n      0x00\n        /* \"#utility.yul\":14556:14562   */\n      dup3\n        /* \"#utility.yul\":14551:14554   */\n      dup3\n        /* \"#utility.yul\":14544:14563   */\n      mstore\n        /* \"#utility.yul\":14596:14600   */\n      0x20\n        /* \"#utility.yul\":14591:14594   */\n      dup3\n        /* \"#utility.yul\":14587:14601   */\n      add\n        /* \"#utility.yul\":14572:14601   */\n      swap1\n      pop\n        /* \"#utility.yul\":14438:14607   */\n      swap3\n      swap2\n      pop\n      pop\n      jump\t// out\n        /* \"#utility.yul\":14613:14761   */\n    tag_223:\n        /* \"#utility.yul\":14715:14726   */\n      0x00\n        /* \"#utility.yul\":14752:14755   */\n      dup2\n        /* \"#utility.yul\":14737:14755   */\n      swap1\n      pop\n        /* \"#utility.yul\":14613:14761   */\n      swap3\n      swap2\n      pop\n      pop\n      jump\t// out\n        /* \"#utility.yul\":14767:14844   */\n    tag_200:\n        /* \"#utility.yul\":14804:14811   */\n      0x00\n        /* \"#utility.yul\":14833:14838   */\n      dup2\n        /* \"#utility.yul\":14822:14838   */\n      swap1\n      pop\n        /* \"#utility.yul\":14767:14844   */\n      swap2\n      swap1\n      pop\n      jump\t// out\n        /* \"#utility.yul\":14850:14927   */\n    tag_261:\n        /* \"#utility.yul\":14887:14894   */\n      0x00\n        /* \"#utility.yul\":14916:14921   */\n      dup2\n        /* \"#utility.yul\":14905:14921   */\n      swap1\n      pop\n        /* \"#utility.yul\":14850:14927   */\n      swap2\n      swap1\n      pop\n      jump\t// out\n        /* \"#utility.yul\":14933:15087   */\n    tag_131:\n        /* \"#utility.yul\":15017:15023   */\n      dup3\n        /* \"#utility.yul\":15012:15015   */\n      dup2\n        /* \"#utility.yul\":15007:15010   */\n      dup4\n        /* \"#utility.yul\":14994:15024   */\n      calldatacopy\n        /* \"#utility.yul\":15079:15080   */\n      0x00\n        /* \"#utility.yul\":15070:15076   */\n      dup4\n        /* \"#utility.yul\":15065:15068   */\n      dup4\n        /* \"#utility.yul\":15061:15077   */\n      add\n        /* \"#utility.yul\":15054:15081   */\n      mstore\n        /* \"#utility.yul\":14933:15087   */\n      pop\n      pop\n      pop\n      jump\t// out\n        /* \"#utility.yul\":15093:15400   */\n    tag_208:\n        /* \"#utility.yul\":15161:15162   */\n      0x00\n        /* \"#utility.yul\":15171:15284   */\n    tag_303:\n        /* \"#utility.yul\":15185:15191   */\n      dup4\n        /* \"#utility.yul\":15182:15183   */\n      dup2\n        /* \"#utility.yul\":15179:15192   */\n      lt\n        /* \"#utility.yul\":15171:15284   */\n      iszero\n      tag_305\n      jumpi\n        /* \"#utility.yul\":15270:15271   */\n      dup1\n        /* \"#utility.yul\":15265:15268   */\n      dup3\n        /* \"#utility.yul\":15261:15272   */\n      add\n        /* \"#utility.yul\":15255:15273   */\n      mload\n        /* \"#utility.yul\":15251:15252   */\n      dup2\n        /* \"#utility.yul\":15246:15249   */\n      dup5\n        /* \"#utility.yul\":15242:15253   */\n      add\n        /* \"#utility.yul\":15235:15274   */\n      mstore\n        /* \"#utility.yul\":15207:15209   */\n      0x20\n        /* \"#utility.yul\":15204:15205   */\n      dup2\n        /* \"#utility.yul\":15200:15210   */\n      add\n        /* \"#utility.yul\":15195:15210   */\n      swap1\n      pop\n        /* \"#utility.yul\":15171:15284   */\n      jump(tag_303)\n    tag_305:\n        /* \"#utility.yul\":15302:15308   */\n      dup4\n        /* \"#utility.yul\":15299:15300   */\n      dup2\n        /* \"#utility.yul\":15296:15309   */\n      gt\n        /* \"#utility.yul\":15293:15394   */\n      iszero\n      tag_306\n      jumpi\n        /* \"#utility.yul\":15382:15383   */\n      0x00\n        /* \"#utility.yul\":15373:15379   */\n      dup5\n        /* \"#utility.yul\":15368:15371   */\n      dup5\n        /* \"#utility.yul\":15364:15380   */\n      add\n        /* \"#utility.yul\":15357:15384   */\n      mstore\n        /* \"#utility.yul\":15293:15394   */\n    tag_306:\n        /* \"#utility.yul\":15142:15400   */\n      pop\n        /* \"#utility.yul\":15093:15400   */\n      pop\n      pop\n      pop\n      jump\t// out\n        /* \"#utility.yul\":15406:15726   */\n    tag_40:\n        /* \"#utility.yul\":15450:15456   */\n      0x00\n        /* \"#utility.yul\":15487:15488   */\n      0x02\n        /* \"#utility.yul\":15481:15485   */\n      dup3\n        /* \"#utility.yul\":15477:15489   */\n      div\n        /* \"#utility.yul\":15467:15489   */\n      swap1\n      pop\n        /* \"#utility.yul\":15534:15535   */\n      0x01\n        /* \"#utility.yul\":15528:15532   */\n      dup3\n        /* \"#utility.yul\":15524:15536   */\n      and\n        /* \"#utility.yul\":15555:15573   */\n      dup1\n        /* \"#utility.yul\":15545:15626   */\n      tag_308\n      jumpi\n        /* \"#utility.yul\":15611:15615   */\n      0x7f\n        /* \"#utility.yul\":15603:15609   */\n      dup3\n        /* \"#utility.yul\":15599:15616   */\n      and\n        /* \"#utility.yul\":15589:15616   */\n      swap2\n      pop\n        /* \"#utility.yul\":15545:15626   */\n    tag_308:\n        /* \"#utility.yul\":15673:15675   */\n      0x20\n        /* \"#utility.yul\":15665:15671   */\n      dup3\n        /* \"#utility.yul\":15662:15676   */\n      lt\n        /* \"#utility.yul\":15642:15660   */\n      dup2\n        /* \"#utility.yul\":15639:15677   */\n      eq\n        /* \"#utility.yul\":15636:15720   */\n      iszero\n      tag_309\n      jumpi\n        /* \"#utility.yul\":15692:15710   */\n      tag_310\n      tag_311\n      jump\t// in\n    tag_310:\n        /* \"#utility.yul\":15636:15720   */\n    tag_309:\n        /* \"#utility.yul\":15457:15726   */\n      pop\n        /* \"#utility.yul\":15406:15726   */\n      swap2\n      swap1\n      pop\n      jump\t// out\n        /* \"#utility.yul\":15732:16013   */\n    tag_281:\n        /* \"#utility.yul\":15815:15842   */\n      tag_313\n        /* \"#utility.yul\":15837:15841   */\n      dup3\n        /* \"#utility.yul\":15815:15842   */\n      tag_210\n      jump\t// in\n    tag_313:\n        /* \"#utility.yul\":15807:15813   */\n      dup2\n        /* \"#utility.yul\":15803:15843   */\n      add\n        /* \"#utility.yul\":15945:15951   */\n      dup2\n        /* \"#utility.yul\":15933:15943   */\n      dup2\n        /* \"#utility.yul\":15930:15952   */\n      lt\n        /* \"#utility.yul\":15909:15927   */\n      0xffffffffffffffff\n        /* \"#utility.yul\":15897:15907   */\n      dup3\n        /* \"#utility.yul\":15894:15928   */\n      gt\n        /* \"#utility.yul\":15891:15953   */\n      or\n        /* \"#utility.yul\":15888:15976   */\n      iszero\n      tag_314\n      jumpi\n        /* \"#utility.yul\":15956:15974   */\n      tag_315\n      tag_286\n      jump\t// in\n    tag_315:\n        /* \"#utility.yul\":15888:15976   */\n    tag_314:\n        /* \"#utility.yul\":15996:16006   */\n      dup1\n        /* \"#utility.yul\":15992:15994   */\n      0x40\n        /* \"#utility.yul\":15985:16007   */\n      mstore\n        /* \"#utility.yul\":15775:16013   */\n      pop\n        /* \"#utility.yul\":15732:16013   */\n      pop\n      pop\n      jump\t// out\n        /* \"#utility.yul\":16019:16199   */\n    tag_311:\n        /* \"#utility.yul\":16067:16144   */\n      0x4e487b7100000000000000000000000000000000000000000000000000000000\n        /* \"#utility.yul\":16064:16065   */\n      0x00\n        /* \"#utility.yul\":16057:16145   */\n      mstore\n        /* \"#utility.yul\":16164:16168   */\n      0x22\n        /* \"#utility.yul\":16161:16162   */\n      0x04\n        /* \"#utility.yul\":16154:16169   */\n      mstore\n        /* \"#utility.yul\":16188:16192   */\n      0x24\n        /* \"#utility.yul\":16185:16186   */\n      0x00\n        /* \"#utility.yul\":16178:16193   */\n      revert\n        /* \"#utility.yul\":16205:16385   */\n    tag_286:\n        /* \"#utility.yul\":16253:16330   */\n      0x4e487b7100000000000000000000000000000000000000000000000000000000\n        /* \"#utility.yul\":16250:16251   */\n      0x00\n        /* \"#utility.yul\":16243:16331   */\n      mstore\n        /* \"#utility.yul\":16350:16354   */\n      0x41\n        /* \"#utility.yul\":16347:16348   */\n      0x04\n        /* \"#utility.yul\":16340:16355   */\n      mstore\n        /* \"#utility.yul\":16374:16378   */\n      0x24\n        /* \"#utility.yul\":16371:16372   */\n      0x00\n        /* \"#utility.yul\":16364:16379   */\n      revert\n        /* \"#utility.yul\":16391:16508   */\n    tag_144:\n        /* \"#utility.yul\":16500:16501   */\n      0x00\n        /* \"#utility.yul\":16497:16498   */\n      dup1\n        /* \"#utility.yul\":16490:16502   */\n      revert\n        /* \"#utility.yul\":16514:16631   */\n    tag_129:\n        /* \"#utility.yul\":16623:16624   */\n      0x00\n        /* \"#utility.yul\":16620:16621   */\n      dup1\n        /* \"#utility.yul\":16613:16625   */\n      revert\n        /* \"#utility.yul\":16637:16754   */\n    tag_161:\n        /* \"#utility.yul\":16746:16747   */\n      0x00\n        /* \"#utility.yul\":16743:16744   */\n      dup1\n        /* \"#utility.yul\":16736:16748   */\n      revert\n        /* \"#utility.yul\":16760:16877   */\n    tag_158:\n        /* \"#utility.yul\":16869:16870   */\n      0x00\n        /* \"#utility.yul\":16866:16867   */\n      dup1\n        /* \"#utility.yul\":16859:16871   */\n      revert\n        /* \"#utility.yul\":16883:16985   */\n    tag_210:\n        /* \"#utility.yul\":16924:16930   */\n      0x00\n        /* \"#utility.yul\":16975:16977   */\n      0x1f\n        /* \"#utility.yul\":16971:16978   */\n      not\n        /* \"#utility.yul\":16966:16968   */\n      0x1f\n        /* \"#utility.yul\":16959:16964   */\n      dup4\n        /* \"#utility.yul\":16955:16969   */\n      add\n        /* \"#utility.yul\":16951:16979   */\n      and\n        /* \"#utility.yul\":16941:16979   */\n      swap1\n      pop\n        /* \"#utility.yul\":16883:16985   */\n      swap2\n      swap1\n      pop\n      jump\t// out\n        /* \"#utility.yul\":16991:17165   */\n    tag_242:\n        /* \"#utility.yul\":17131:17157   */\n      0x4163636f756e7420616c7265616479206578697374696e670000000000000000\n        /* \"#utility.yul\":17127:17128   */\n      0x00\n        /* \"#utility.yul\":17119:17125   */\n      dup3\n        /* \"#utility.yul\":17115:17129   */\n      add\n        /* \"#utility.yul\":17108:17158   */\n      mstore\n        /* \"#utility.yul\":16991:17165   */\n      pop\n      jump\t// out\n        /* \"#utility.yul\":17171:17328   */\n    tag_247:\n        /* \"#utility.yul\":17311:17320   */\n      0x7375636365737300000000000000000000000000000000000000000000000000\n        /* \"#utility.yul\":17307:17308   */\n      0x00\n        /* \"#utility.yul\":17299:17305   */\n      dup3\n        /* \"#utility.yul\":17295:17309   */\n      add\n        /* \"#utility.yul\":17288:17321   */\n      mstore\n        /* \"#utility.yul\":17171:17328   */\n      pop\n      jump\t// out\n        /* \"#utility.yul\":17334:17456   */\n    tag_154:\n        /* \"#utility.yul\":17407:17431   */\n      tag_326\n        /* \"#utility.yul\":17425:17430   */\n      dup2\n        /* \"#utility.yul\":17407:17431   */\n      tag_261\n      jump\t// in\n    tag_326:\n        /* \"#utility.yul\":17400:17405   */\n      dup2\n        /* \"#utility.yul\":17397:17432   */\n      eq\n        /* \"#utility.yul\":17387:17450   */\n      tag_327\n      jumpi\n        /* \"#utility.yul\":17446:17447   */\n      0x00\n        /* \"#utility.yul\":17443:17444   */\n      dup1\n        /* \"#utility.yul\":17436:17448   */\n      revert\n        /* \"#utility.yul\":17387:17450   */\n    tag_327:\n        /* \"#utility.yul\":17334:17456   */\n      pop\n      jump\t// out\n\n    auxdata: 0xa2646970667358221220049979c61e4bfe8478586d1778e593fb4a9510f0269182d9d371e4cf2aa5fd2564736f6c63430008070033\n}\n",
				"bytecode": {
					"linkReferences": {},
					"object": "608060405234801561001057600080fd5b5061137c806100206000396000f3fe608060405234801561001057600080fd5b50600436106100575760003560e01c8063174ba7ff1461005c5780635b62132d1461008c578063b24c908a146100bc578063c3efbe38146100ec578063ca5e208f14610108575b600080fd5b61007660048036038101906100719190610b79565b610138565b604051610083919061106d565b60405180910390f35b6100a660048036038101906100a19190610bc2565b610350565b6040516100b39190611004565b60405180910390f35b6100d660048036038101906100d19190610c69565b6104e0565b6040516100e39190611004565b60405180910390f35b61010660048036038101906101019190610d10565b610602565b005b610122600480360381019061011d9190610b79565b6107b4565b60405161012f919061108f565b60405180910390f35b61014061099f565b6000826040516020016101539190610fd6565b604051602081830303815290604052805190602001209050600080828152602001908152602001600020604051806080016040529081600082018054610198906111f7565b80601f01602080910402602001604051908101604052809291908181526020018280546101c4906111f7565b80156102115780601f106101e657610100808354040283529160200191610211565b820191906000526020600020905b8154815290600101906020018083116101f457829003601f168201915b5050505050815260200160018201805461022a906111f7565b80601f0160208091040260200160405190810160405280929190818152602001828054610256906111f7565b80156102a35780601f10610278576101008083540402835291602001916102a3565b820191906000526020600020905b81548152906001019060200180831161028657829003601f168201915b505050505081526020016002820180546102bc906111f7565b80601f01602080910402602001604051908101604052809291908181526020018280546102e8906111f7565b80156103355780601f1061030a57610100808354040283529160200191610335565b820191906000526020600020905b81548152906001019060200180831161031857829003601f168201915b50505050508152602001600382015481525050915050919050565b600080846040516020016103649190610fd6565b6040516020818303038152906040528051906020012090506000600160008381526020019081526020016000206040518060400160405290816000820180546103ac906111f7565b80601f01602080910402602001604051908101604052809291908181526020018280546103d8906111f7565b80156104255780601f106103fa57610100808354040283529160200191610425565b820191906000526020600020905b81548152906001019060200180831161040857829003601f168201915b5050505050815260200160018201805461043e906111f7565b80601f016020809104026020016040519081016040528092919081815260200182805461046a906111f7565b80156104b75780601f1061048c576101008083540402835291602001916104b7565b820191906000526020600020905b81548152906001019060200180831161049a57829003601f168201915b505050505081525050905084816000018190525083816020018190525081925050509392505050565b600080846040516020016104f49190610fd6565b6040516020818303038152906040528051906020012090506105168186610931565b610555576040517f08c379a000000000000000000000000000000000000000000000000000000000815260040161054c9061101f565b60405180910390fd5b60008060008381526020019081526020016000209050858160000190805190602001906105839291906109c7565b508481600101908051906020019061059c9291906109c7565b50838160020190805190602001906105b59291906109c7565b504281600301819055507fc8922d91fbabbe8df5d667708c678575856a856a2a465ebd9626a40ab6a16f5f826040516105ee919061103f565b60405180910390a181925050509392505050565b6000836040516020016106159190610fd6565b60405160208183030381529060405280519060200120905060006002600083815260200190815260200160002060405180608001604052908160008201805461065d906111f7565b80601f0160208091040260200160405190810160405280929190818152602001828054610689906111f7565b80156106d65780601f106106ab576101008083540402835291602001916106d6565b820191906000526020600020905b8154815290600101906020018083116106b957829003601f168201915b505050505081526020016001820180546106ef906111f7565b80601f016020809104026020016040519081016040528092919081815260200182805461071b906111f7565b80156107685780601f1061073d57610100808354040283529160200191610768565b820191906000526020600020905b81548152906001019060200180831161074b57829003601f168201915b5050505050815260200160028201548152602001600382015481525050905084816000018190525083816020018190525042816040018181525050828160600181815250505050505050565b6107bc610a4d565b6000826040516020016107cf9190610fd6565b60405160208183030381529060405280519060200120905060016000828152602001908152602001600020604051806040016040529081600082018054610815906111f7565b80601f0160208091040260200160405190810160405280929190818152602001828054610841906111f7565b801561088e5780601f106108635761010080835404028352916020019161088e565b820191906000526020600020905b81548152906001019060200180831161087157829003601f168201915b505050505081526020016001820180546108a7906111f7565b80601f01602080910402602001604051908101604052809291908181526020018280546108d3906111f7565b80156109205780601f106108f557610100808354040283529160200191610920565b820191906000526020600020905b81548152906001019060200180831161090357829003601f168201915b505050505081525050915050919050565b6000816040516020016109449190610fd6565b6040516020818303038152906040528051906020012060008085815260200190815260200160002060000160405160200161097f9190610fed565b604051602081830303815290604052805190602001201415905092915050565b6040518060800160405280606081526020016060815260200160608152602001600081525090565b8280546109d3906111f7565b90600052602060002090601f0160209004810192826109f55760008555610a3c565b82601f10610a0e57805160ff1916838001178555610a3c565b82800160010185558215610a3c579182015b82811115610a3b578251825591602001919060010190610a20565b5b509050610a499190610a67565b5090565b604051806040016040528060608152602001606081525090565b5b80821115610a80576000816000905550600101610a68565b5090565b6000610a97610a92846110d6565b6110b1565b905082815260208101848484011115610ab357610ab26112bd565b5b610abe8482856111b5565b509392505050565b6000610ad9610ad484611107565b6110b1565b905082815260208101848484011115610af557610af46112bd565b5b610b008482856111b5565b509392505050565b600082601f830112610b1d57610b1c6112b8565b5b8135610b2d848260208601610a84565b91505092915050565b600082601f830112610b4b57610b4a6112b8565b5b8135610b5b848260208601610ac6565b91505092915050565b600081359050610b738161132f565b92915050565b600060208284031215610b8f57610b8e6112c7565b5b600082013567ffffffffffffffff811115610bad57610bac6112c2565b5b610bb984828501610b36565b91505092915050565b600080600060608486031215610bdb57610bda6112c7565b5b600084013567ffffffffffffffff811115610bf957610bf86112c2565b5b610c0586828701610b36565b935050602084013567ffffffffffffffff811115610c2657610c256112c2565b5b610c3286828701610b36565b925050604084013567ffffffffffffffff811115610c5357610c526112c2565b5b610c5f86828701610b08565b9150509250925092565b600080600060608486031215610c8257610c816112c7565b5b600084013567ffffffffffffffff811115610ca057610c9f6112c2565b5b610cac86828701610b36565b935050602084013567ffffffffffffffff811115610ccd57610ccc6112c2565b5b610cd986828701610b36565b925050604084013567ffffffffffffffff811115610cfa57610cf96112c2565b5b610d0686828701610b36565b9150509250925092565b600080600060608486031215610d2957610d286112c7565b5b600084013567ffffffffffffffff811115610d4757610d466112c2565b5b610d5386828701610b36565b935050602084013567ffffffffffffffff811115610d7457610d736112c2565b5b610d8086828701610b36565b9250506040610d9186828701610b64565b9150509250925092565b610da4816111a1565b82525050565b6000610db58261114d565b610dbf8185611163565b9350610dcf8185602086016111c4565b610dd8816112cc565b840191505092915050565b6000610dee82611158565b610df88185611174565b9350610e088185602086016111c4565b610e11816112cc565b840191505092915050565b6000610e2782611158565b610e318185611196565b9350610e418185602086016111c4565b80840191505092915050565b60008154610e5a816111f7565b610e648186611196565b94506001821660008114610e7f5760018114610e9057610ec3565b60ff19831686528186019350610ec3565b610e9985611138565b60005b83811015610ebb57815481890152600182019150602081019050610e9c565b838801955050505b50505092915050565b6000610ed9601883611185565b9150610ee4826112dd565b602082019050919050565b6000610efc600783611185565b9150610f0782611306565b602082019050919050565b60006080830160008301518482036000860152610f2f8282610de3565b91505060208301518482036020860152610f498282610de3565b91505060408301518482036040860152610f638282610de3565b9150506060830151610f786060860182610fc7565b508091505092915050565b60006040830160008301518482036000860152610fa08282610de3565b91505060208301518482036020860152610fba8282610daa565b9150508091505092915050565b610fd0816111ab565b82525050565b6000610fe28284610e1c565b915081905092915050565b6000610ff98284610e4d565b915081905092915050565b60006020820190506110196000830184610d9b565b92915050565b6000602082019050818103600083015261103881610ecc565b9050919050565b6000604082019050818103600083015261105881610eef565b90506110676020830184610d9b565b92915050565b600060208201905081810360008301526110878184610f12565b905092915050565b600060208201905081810360008301526110a98184610f83565b905092915050565b60006110bb6110cc565b90506110c78282611229565b919050565b6000604051905090565b600067ffffffffffffffff8211156110f1576110f0611289565b5b6110fa826112cc565b9050602081019050919050565b600067ffffffffffffffff82111561112257611121611289565b5b61112b826112cc565b9050602081019050919050565b60008190508160005260206000209050919050565b600081519050919050565b600081519050919050565b600082825260208201905092915050565b600082825260208201905092915050565b600082825260208201905092915050565b600081905092915050565b6000819050919050565b6000819050919050565b82818337600083830152505050565b60005b838110156111e25780820151818401526020810190506111c7565b838111156111f1576000848401525b50505050565b6000600282049050600182168061120f57607f821691505b602082108114156112235761122261125a565b5b50919050565b611232826112cc565b810181811067ffffffffffffffff8211171561125157611250611289565b5b80604052505050565b7f4e487b7100000000000000000000000000000000000000000000000000000000600052602260045260246000fd5b7f4e487b7100000000000000000000000000000000000000000000000000000000600052604160045260246000fd5b600080fd5b600080fd5b600080fd5b600080fd5b6000601f19601f8301169050919050565b7f4163636f756e7420616c7265616479206578697374696e670000000000000000600082015250565b7f7375636365737300000000000000000000000000000000000000000000000000600082015250565b611338816111ab565b811461134357600080fd5b5056fea2646970667358221220049979c61e4bfe8478586d1778e593fb4a9510f0269182d9d371e4cf2aa5fd2564736f6c63430008070033",
					"opcodes": "PUSH1 0x80 PUSH1 0x40 MSTORE CALLVALUE DUP1 ISZERO PUSH2 0x10 JUMPI PUSH1 0x0 DUP1 REVERT JUMPDEST POP PUSH2 0x137C DUP1 PUSH2 0x20 PUSH1 0x0 CODECOPY PUSH1 0x0 RETURN INVALID PUSH1 0x80 PUSH1 0x40 MSTORE CALLVALUE DUP1 ISZERO PUSH2 0x10 JUMPI PUSH1 0x0 DUP1 REVERT JUMPDEST POP PUSH1 0x4 CALLDATASIZE LT PUSH2 0x57 JUMPI PUSH1 0x0 CALLDATALOAD PUSH1 0xE0 SHR DUP1 PUSH4 0x174BA7FF EQ PUSH2 0x5C JUMPI DUP1 PUSH4 0x5B62132D EQ PUSH2 0x8C JUMPI DUP1 PUSH4 0xB24C908A EQ PUSH2 0xBC JUMPI DUP1 PUSH4 0xC3EFBE38 EQ PUSH2 0xEC JUMPI DUP1 PUSH4 0xCA5E208F EQ PUSH2 0x108 JUMPI JUMPDEST PUSH1 0x0 DUP1 REVERT JUMPDEST PUSH2 0x76 PUSH1 0x4 DUP1 CALLDATASIZE SUB DUP2 ADD SWAP1 PUSH2 0x71 SWAP2 SWAP1 PUSH2 0xB79 JUMP JUMPDEST PUSH2 0x138 JUMP JUMPDEST PUSH1 0x40 MLOAD PUSH2 0x83 SWAP2 SWAP1 PUSH2 0x106D JUMP JUMPDEST PUSH1 0x40 MLOAD DUP1 SWAP2 SUB SWAP1 RETURN JUMPDEST PUSH2 0xA6 PUSH1 0x4 DUP1 CALLDATASIZE SUB DUP2 ADD SWAP1 PUSH2 0xA1 SWAP2 SWAP1 PUSH2 0xBC2 JUMP JUMPDEST PUSH2 0x350 JUMP JUMPDEST PUSH1 0x40 MLOAD PUSH2 0xB3 SWAP2 SWAP1 PUSH2 0x1004 JUMP JUMPDEST PUSH1 0x40 MLOAD DUP1 SWAP2 SUB SWAP1 RETURN JUMPDEST PUSH2 0xD6 PUSH1 0x4 DUP1 CALLDATASIZE SUB DUP2 ADD SWAP1 PUSH2 0xD1 SWAP2 SWAP1 PUSH2 0xC69 JUMP JUMPDEST PUSH2 0x4E0 JUMP JUMPDEST PUSH1 0x40 MLOAD PUSH2 0xE3 SWAP2 SWAP1 PUSH2 0x1004 JUMP JUMPDEST PUSH1 0x40 MLOAD DUP1 SWAP2 SUB SWAP1 RETURN JUMPDEST PUSH2 0x106 PUSH1 0x4 DUP1 CALLDATASIZE SUB DUP2 ADD SWAP1 PUSH2 0x101 SWAP2 SWAP1 PUSH2 0xD10 JUMP JUMPDEST PUSH2 0x602 JUMP JUMPDEST STOP JUMPDEST PUSH2 0x122 PUSH1 0x4 DUP1 CALLDATASIZE SUB DUP2 ADD SWAP1 PUSH2 0x11D SWAP2 SWAP1 PUSH2 0xB79 JUMP JUMPDEST PUSH2 0x7B4 JUMP JUMPDEST PUSH1 0x40 MLOAD PUSH2 0x12F SWAP2 SWAP1 PUSH2 0x108F JUMP JUMPDEST PUSH1 0x40 MLOAD DUP1 SWAP2 SUB SWAP1 RETURN JUMPDEST PUSH2 0x140 PUSH2 0x99F JUMP JUMPDEST PUSH1 0x0 DUP3 PUSH1 0x40 MLOAD PUSH1 0x20 ADD PUSH2 0x153 SWAP2 SWAP1 PUSH2 0xFD6 JUMP JUMPDEST PUSH1 0x40 MLOAD PUSH1 0x20 DUP2 DUP4 SUB SUB DUP2 MSTORE SWAP1 PUSH1 0x40 MSTORE DUP1 MLOAD SWAP1 PUSH1 0x20 ADD KECCAK256 SWAP1 POP PUSH1 0x0 DUP1 DUP3 DUP2 MSTORE PUSH1 0x20 ADD SWAP1 DUP2 MSTORE PUSH1 0x20 ADD PUSH1 0x0 KECCAK256 PUSH1 0x40 MLOAD DUP1 PUSH1 0x80 ADD PUSH1 0x40 MSTORE SWAP1 DUP2 PUSH1 0x0 DUP3 ADD DUP1 SLOAD PUSH2 0x198 SWAP1 PUSH2 0x11F7 JUMP JUMPDEST DUP1 PUSH1 0x1F ADD PUSH1 0x20 DUP1 SWAP2 DIV MUL PUSH1 0x20 ADD PUSH1 0x40 MLOAD SWAP1 DUP2 ADD PUSH1 0x40 MSTORE DUP1 SWAP3 SWAP2 SWAP1 DUP2 DUP2 MSTORE PUSH1 0x20 ADD DUP3 DUP1 SLOAD PUSH2 0x1C4 SWAP1 PUSH2 0x11F7 JUMP JUMPDEST DUP1 ISZERO PUSH2 0x211 JUMPI DUP1 PUSH1 0x1F LT PUSH2 0x1E6 JUMPI PUSH2 0x100 DUP1 DUP4 SLOAD DIV MUL DUP4 MSTORE SWAP2 PUSH1 0x20 ADD SWAP2 PUSH2 0x211 JUMP JUMPDEST DUP3 ADD SWAP2 SWAP1 PUSH1 0x0 MSTORE PUSH1 0x20 PUSH1 0x0 KECCAK256 SWAP1 JUMPDEST DUP2 SLOAD DUP2 MSTORE SWAP1 PUSH1 0x1 ADD SWAP1 PUSH1 0x20 ADD DUP1 DUP4 GT PUSH2 0x1F4 JUMPI DUP3 SWAP1 SUB PUSH1 0x1F AND DUP3 ADD SWAP2 JUMPDEST POP POP POP POP POP DUP2 MSTORE PUSH1 0x20 ADD PUSH1 0x1 DUP3 ADD DUP1 SLOAD PUSH2 0x22A SWAP1 PUSH2 0x11F7 JUMP JUMPDEST DUP1 PUSH1 0x1F ADD PUSH1 0x20 DUP1 SWAP2 DIV MUL PUSH1 0x20 ADD PUSH1 0x40 MLOAD SWAP1 DUP2 ADD PUSH1 0x40 MSTORE DUP1 SWAP3 SWAP2 SWAP1 DUP2 DUP2 MSTORE PUSH1 0x20 ADD DUP3 DUP1 SLOAD PUSH2 0x256 SWAP1 PUSH2 0x11F7 JUMP JUMPDEST DUP1 ISZERO PUSH2 0x2A3 JUMPI DUP1 PUSH1 0x1F LT PUSH2 0x278 JUMPI PUSH2 0x100 DUP1 DUP4 SLOAD DIV MUL DUP4 MSTORE SWAP2 PUSH1 0x20 ADD SWAP2 PUSH2 0x2A3 JUMP JUMPDEST DUP3 ADD SWAP2 SWAP1 PUSH1 0x0 MSTORE PUSH1 0x20 PUSH1 0x0 KECCAK256 SWAP1 JUMPDEST DUP2 SLOAD DUP2 MSTORE SWAP1 PUSH1 0x1 ADD SWAP1 PUSH1 0x20 ADD DUP1 DUP4 GT PUSH2 0x286 JUMPI DUP3 SWAP1 SUB PUSH1 0x1F AND DUP3 ADD SWAP2 JUMPDEST POP POP POP POP POP DUP2 MSTORE PUSH1 0x20 ADD PUSH1 0x2 DUP3 ADD DUP1 SLOAD PUSH2 0x2BC SWAP1 PUSH2 0x11F7 JUMP JUMPDEST DUP1 PUSH1 0x1F ADD PUSH1 0x20 DUP1 SWAP2 DIV MUL PUSH1 0x20 ADD PUSH1 0x40 MLOAD SWAP1 DUP2 ADD PUSH1 0x40 MSTORE DUP1 SWAP3 SWAP2 SWAP1 DUP2 DUP2 MSTORE PUSH1 0x20 ADD DUP3 DUP1 SLOAD PUSH2 0x2E8 SWAP1 PUSH2 0x11F7 JUMP JUMPDEST DUP1 ISZERO PUSH2 0x335 JUMPI DUP1 PUSH1 0x1F LT PUSH2 0x30A JUMPI PUSH2 0x100 DUP1 DUP4 SLOAD DIV MUL DUP4 MSTORE SWAP2 PUSH1 0x20 ADD SWAP2 PUSH2 0x335 JUMP JUMPDEST DUP3 ADD SWAP2 SWAP1 PUSH1 0x0 MSTORE PUSH1 0x20 PUSH1 0x0 KECCAK256 SWAP1 JUMPDEST DUP2 SLOAD DUP2 MSTORE SWAP1 PUSH1 0x1 ADD SWAP1 PUSH1 0x20 ADD DUP1 DUP4 GT PUSH2 0x318 JUMPI DUP3 SWAP1 SUB PUSH1 0x1F AND DUP3 ADD SWAP2 JUMPDEST POP POP POP POP POP DUP2 MSTORE PUSH1 0x20 ADD PUSH1 0x3 DUP3 ADD SLOAD DUP2 MSTORE POP POP SWAP2 POP POP SWAP2 SWAP1 POP JUMP JUMPDEST PUSH1 0x0 DUP1 DUP5 PUSH1 0x40 MLOAD PUSH1 0x20 ADD PUSH2 0x364 SWAP2 SWAP1 PUSH2 0xFD6 JUMP JUMPDEST PUSH1 0x40 MLOAD PUSH1 0x20 DUP2 DUP4 SUB SUB DUP2 MSTORE SWAP1 PUSH1 0x40 MSTORE DUP1 MLOAD SWAP1 PUSH1 0x20 ADD KECCAK256 SWAP1 POP PUSH1 0x0 PUSH1 0x1 PUSH1 0x0 DUP4 DUP2 MSTORE PUSH1 0x20 ADD SWAP1 DUP2 MSTORE PUSH1 0x20 ADD PUSH1 0x0 KECCAK256 PUSH1 0x40 MLOAD DUP1 PUSH1 0x40 ADD PUSH1 0x40 MSTORE SWAP1 DUP2 PUSH1 0x0 DUP3 ADD DUP1 SLOAD PUSH2 0x3AC SWAP1 PUSH2 0x11F7 JUMP JUMPDEST DUP1 PUSH1 0x1F ADD PUSH1 0x20 DUP1 SWAP2 DIV MUL PUSH1 0x20 ADD PUSH1 0x40 MLOAD SWAP1 DUP2 ADD PUSH1 0x40 MSTORE DUP1 SWAP3 SWAP2 SWAP1 DUP2 DUP2 MSTORE PUSH1 0x20 ADD DUP3 DUP1 SLOAD PUSH2 0x3D8 SWAP1 PUSH2 0x11F7 JUMP JUMPDEST DUP1 ISZERO PUSH2 0x425 JUMPI DUP1 PUSH1 0x1F LT PUSH2 0x3FA JUMPI PUSH2 0x100 DUP1 DUP4 SLOAD DIV MUL DUP4 MSTORE SWAP2 PUSH1 0x20 ADD SWAP2 PUSH2 0x425 JUMP JUMPDEST DUP3 ADD SWAP2 SWAP1 PUSH1 0x0 MSTORE PUSH1 0x20 PUSH1 0x0 KECCAK256 SWAP1 JUMPDEST DUP2 SLOAD DUP2 MSTORE SWAP1 PUSH1 0x1 ADD SWAP1 PUSH1 0x20 ADD DUP1 DUP4 GT PUSH2 0x408 JUMPI DUP3 SWAP1 SUB PUSH1 0x1F AND DUP3 ADD SWAP2 JUMPDEST POP POP POP POP POP DUP2 MSTORE PUSH1 0x20 ADD PUSH1 0x1 DUP3 ADD DUP1 SLOAD PUSH2 0x43E SWAP1 PUSH2 0x11F7 JUMP JUMPDEST DUP1 PUSH1 0x1F ADD PUSH1 0x20 DUP1 SWAP2 DIV MUL PUSH1 0x20 ADD PUSH1 0x40 MLOAD SWAP1 DUP2 ADD PUSH1 0x40 MSTORE DUP1 SWAP3 SWAP2 SWAP1 DUP2 DUP2 MSTORE PUSH1 0x20 ADD DUP3 DUP1 SLOAD PUSH2 0x46A SWAP1 PUSH2 0x11F7 JUMP JUMPDEST DUP1 ISZERO PUSH2 0x4B7 JUMPI DUP1 PUSH1 0x1F LT PUSH2 0x48C JUMPI PUSH2 0x100 DUP1 DUP4 SLOAD DIV MUL DUP4 MSTORE SWAP2 PUSH1 0x20 ADD SWAP2 PUSH2 0x4B7 JUMP JUMPDEST DUP3 ADD SWAP2 SWAP1 PUSH1 0x0 MSTORE PUSH1 0x20 PUSH1 0x0 KECCAK256 SWAP1 JUMPDEST DUP2 SLOAD DUP2 MSTORE SWAP1 PUSH1 0x1 ADD SWAP1 PUSH1 0x20 ADD DUP1 DUP4 GT PUSH2 0x49A JUMPI DUP3 SWAP1 SUB PUSH1 0x1F AND DUP3 ADD SWAP2 JUMPDEST POP POP POP POP POP DUP2 MSTORE POP POP SWAP1 POP DUP5 DUP2 PUSH1 0x0 ADD DUP2 SWAP1 MSTORE POP DUP4 DUP2 PUSH1 0x20 ADD DUP2 SWAP1 MSTORE POP DUP2 SWAP3 POP POP POP SWAP4 SWAP3 POP POP POP JUMP JUMPDEST PUSH1 0x0 DUP1 DUP5 PUSH1 0x40 MLOAD PUSH1 0x20 ADD PUSH2 0x4F4 SWAP2 SWAP1 PUSH2 0xFD6 JUMP JUMPDEST PUSH1 0x40 MLOAD PUSH1 0x20 DUP2 DUP4 SUB SUB DUP2 MSTORE SWAP1 PUSH1 0x40 MSTORE DUP1 MLOAD SWAP1 PUSH1 0x20 ADD KECCAK256 SWAP1 POP PUSH2 0x516 DUP2 DUP7 PUSH2 0x931 JUMP JUMPDEST PUSH2 0x555 JUMPI PUSH1 0x40 MLOAD PUSH32 0x8C379A000000000000000000000000000000000000000000000000000000000 DUP2 MSTORE PUSH1 0x4 ADD PUSH2 0x54C SWAP1 PUSH2 0x101F JUMP JUMPDEST PUSH1 0x40 MLOAD DUP1 SWAP2 SUB SWAP1 REVERT JUMPDEST PUSH1 0x0 DUP1 PUSH1 0x0 DUP4 DUP2 MSTORE PUSH1 0x20 ADD SWAP1 DUP2 MSTORE PUSH1 0x20 ADD PUSH1 0x0 KECCAK256 SWAP1 POP DUP6 DUP2 PUSH1 0x0 ADD SWAP1 DUP1 MLOAD SWAP1 PUSH1 0x20 ADD SWAP1 PUSH2 0x583 SWAP3 SWAP2 SWAP1 PUSH2 0x9C7 JUMP JUMPDEST POP DUP5 DUP2 PUSH1 0x1 ADD SWAP1 DUP1 MLOAD SWAP1 PUSH1 0x20 ADD SWAP1 PUSH2 0x59C SWAP3 SWAP2 SWAP1 PUSH2 0x9C7 JUMP JUMPDEST POP DUP4 DUP2 PUSH1 0x2 ADD SWAP1 DUP1 MLOAD SWAP1 PUSH1 0x20 ADD SWAP1 PUSH2 0x5B5 SWAP3 SWAP2 SWAP1 PUSH2 0x9C7 JUMP JUMPDEST POP TIMESTAMP DUP2 PUSH1 0x3 ADD DUP2 SWAP1 SSTORE POP PUSH32 0xC8922D91FBABBE8DF5D667708C678575856A856A2A465EBD9626A40AB6A16F5F DUP3 PUSH1 0x40 MLOAD PUSH2 0x5EE SWAP2 SWAP1 PUSH2 0x103F JUMP JUMPDEST PUSH1 0x40 MLOAD DUP1 SWAP2 SUB SWAP1 LOG1 DUP2 SWAP3 POP POP POP SWAP4 SWAP3 POP POP POP JUMP JUMPDEST PUSH1 0x0 DUP4 PUSH1 0x40 MLOAD PUSH1 0x20 ADD PUSH2 0x615 SWAP2 SWAP1 PUSH2 0xFD6 JUMP JUMPDEST PUSH1 0x40 MLOAD PUSH1 0x20 DUP2 DUP4 SUB SUB DUP2 MSTORE SWAP1 PUSH1 0x40 MSTORE DUP1 MLOAD SWAP1 PUSH1 0x20 ADD KECCAK256 SWAP1 POP PUSH1 0x0 PUSH1 0x2 PUSH1 0x0 DUP4 DUP2 MSTORE PUSH1 0x20 ADD SWAP1 DUP2 MSTORE PUSH1 0x20 ADD PUSH1 0x0 KECCAK256 PUSH1 0x40 MLOAD DUP1 PUSH1 0x80 ADD PUSH1 0x40 MSTORE SWAP1 DUP2 PUSH1 0x0 DUP3 ADD DUP1 SLOAD PUSH2 0x65D SWAP1 PUSH2 0x11F7 JUMP JUMPDEST DUP1 PUSH1 0x1F ADD PUSH1 0x20 DUP1 SWAP2 DIV MUL PUSH1 0x20 ADD PUSH1 0x40 MLOAD SWAP1 DUP2 ADD PUSH1 0x40 MSTORE DUP1 SWAP3 SWAP2 SWAP1 DUP2 DUP2 MSTORE PUSH1 0x20 ADD DUP3 DUP1 SLOAD PUSH2 0x689 SWAP1 PUSH2 0x11F7 JUMP JUMPDEST DUP1 ISZERO PUSH2 0x6D6 JUMPI DUP1 PUSH1 0x1F LT PUSH2 0x6AB JUMPI PUSH2 0x100 DUP1 DUP4 SLOAD DIV MUL DUP4 MSTORE SWAP2 PUSH1 0x20 ADD SWAP2 PUSH2 0x6D6 JUMP JUMPDEST DUP3 ADD SWAP2 SWAP1 PUSH1 0x0 MSTORE PUSH1 0x20 PUSH1 0x0 KECCAK256 SWAP1 JUMPDEST DUP2 SLOAD DUP2 MSTORE SWAP1 PUSH1 0x1 ADD SWAP1 PUSH1 0x20 ADD DUP1 DUP4 GT PUSH2 0x6B9 JUMPI DUP3 SWAP1 SUB PUSH1 0x1F AND DUP3 ADD SWAP2 JUMPDEST POP POP POP POP POP DUP2 MSTORE PUSH1 0x20 ADD PUSH1 0x1 DUP3 ADD DUP1 SLOAD PUSH2 0x6EF SWAP1 PUSH2 0x11F7 JUMP JUMPDEST DUP1 PUSH1 0x1F ADD PUSH1 0x20 DUP1 SWAP2 DIV MUL PUSH1 0x20 ADD PUSH1 0x40 MLOAD SWAP1 DUP2 ADD PUSH1 0x40 MSTORE DUP1 SWAP3 SWAP2 SWAP1 DUP2 DUP2 MSTORE PUSH1 0x20 ADD DUP3 DUP1 SLOAD PUSH2 0x71B SWAP1 PUSH2 0x11F7 JUMP JUMPDEST DUP1 ISZERO PUSH2 0x768 JUMPI DUP1 PUSH1 0x1F LT PUSH2 0x73D JUMPI PUSH2 0x100 DUP1 DUP4 SLOAD DIV MUL DUP4 MSTORE SWAP2 PUSH1 0x20 ADD SWAP2 PUSH2 0x768 JUMP JUMPDEST DUP3 ADD SWAP2 SWAP1 PUSH1 0x0 MSTORE PUSH1 0x20 PUSH1 0x0 KECCAK256 SWAP1 JUMPDEST DUP2 SLOAD DUP2 MSTORE SWAP1 PUSH1 0x1 ADD SWAP1 PUSH1 0x20 ADD DUP1 DUP4 GT PUSH2 0x74B JUMPI DUP3 SWAP1 SUB PUSH1 0x1F AND DUP3 ADD SWAP2 JUMPDEST POP POP POP POP POP DUP2 MSTORE PUSH1 0x20 ADD PUSH1 0x2 DUP3 ADD SLOAD DUP2 MSTORE PUSH1 0x20 ADD PUSH1 0x3 DUP3 ADD SLOAD DUP2 MSTORE POP POP SWAP1 POP DUP5 DUP2 PUSH1 0x0 ADD DUP2 SWAP1 MSTORE POP DUP4 DUP2 PUSH1 0x20 ADD DUP2 SWAP1 MSTORE POP TIMESTAMP DUP2 PUSH1 0x40 ADD DUP2 DUP2 MSTORE POP POP DUP3 DUP2 PUSH1 0x60 ADD DUP2 DUP2 MSTORE POP POP POP POP POP POP POP JUMP JUMPDEST PUSH2 0x7BC PUSH2 0xA4D JUMP JUMPDEST PUSH1 0x0 DUP3 PUSH1 0x40 MLOAD PUSH1 0x20 ADD PUSH2 0x7CF SWAP2 SWAP1 PUSH2 0xFD6 JUMP JUMPDEST PUSH1 0x40 MLOAD PUSH1 0x20 DUP2 DUP4 SUB SUB DUP2 MSTORE SWAP1 PUSH1 0x40 MSTORE DUP1 MLOAD SWAP1 PUSH1 0x20 ADD KECCAK256 SWAP1 POP PUSH1 0x1 PUSH1 0x0 DUP3 DUP2 MSTORE PUSH1 0x20 ADD SWAP1 DUP2 MSTORE PUSH1 0x20 ADD PUSH1 0x0 KECCAK256 PUSH1 0x40 MLOAD DUP1 PUSH1 0x40 ADD PUSH1 0x40 MSTORE SWAP1 DUP2 PUSH1 0x0 DUP3 ADD DUP1 SLOAD PUSH2 0x815 SWAP1 PUSH2 0x11F7 JUMP JUMPDEST DUP1 PUSH1 0x1F ADD PUSH1 0x20 DUP1 SWAP2 DIV MUL PUSH1 0x20 ADD PUSH1 0x40 MLOAD SWAP1 DUP2 ADD PUSH1 0x40 MSTORE DUP1 SWAP3 SWAP2 SWAP1 DUP2 DUP2 MSTORE PUSH1 0x20 ADD DUP3 DUP1 SLOAD PUSH2 0x841 SWAP1 PUSH2 0x11F7 JUMP JUMPDEST DUP1 ISZERO PUSH2 0x88E JUMPI DUP1 PUSH1 0x1F LT PUSH2 0x863 JUMPI PUSH2 0x100 DUP1 DUP4 SLOAD DIV MUL DUP4 MSTORE SWAP2 PUSH1 0x20 ADD SWAP2 PUSH2 0x88E JUMP JUMPDEST DUP3 ADD SWAP2 SWAP1 PUSH1 0x0 MSTORE PUSH1 0x20 PUSH1 0x0 KECCAK256 SWAP1 JUMPDEST DUP2 SLOAD DUP2 MSTORE SWAP1 PUSH1 0x1 ADD SWAP1 PUSH1 0x20 ADD DUP1 DUP4 GT PUSH2 0x871 JUMPI DUP3 SWAP1 SUB PUSH1 0x1F AND DUP3 ADD SWAP2 JUMPDEST POP POP POP POP POP DUP2 MSTORE PUSH1 0x20 ADD PUSH1 0x1 DUP3 ADD DUP1 SLOAD PUSH2 0x8A7 SWAP1 PUSH2 0x11F7 JUMP JUMPDEST DUP1 PUSH1 0x1F ADD PUSH1 0x20 DUP1 SWAP2 DIV MUL PUSH1 0x20 ADD PUSH1 0x40 MLOAD SWAP1 DUP2 ADD PUSH1 0x40 MSTORE DUP1 SWAP3 SWAP2 SWAP1 DUP2 DUP2 MSTORE PUSH1 0x20 ADD DUP3 DUP1 SLOAD PUSH2 0x8D3 SWAP1 PUSH2 0x11F7 JUMP JUMPDEST DUP1 ISZERO PUSH2 0x920 JUMPI DUP1 PUSH1 0x1F LT PUSH2 0x8F5 JUMPI PUSH2 0x100 DUP1 DUP4 SLOAD DIV MUL DUP4 MSTORE SWAP2 PUSH1 0x20 ADD SWAP2 PUSH2 0x920 JUMP JUMPDEST DUP3 ADD SWAP2 SWAP1 PUSH1 0x0 MSTORE PUSH1 0x20 PUSH1 0x0 KECCAK256 SWAP1 JUMPDEST DUP2 SLOAD DUP2 MSTORE SWAP1 PUSH1 0x1 ADD SWAP1 PUSH1 0x20 ADD DUP1 DUP4 GT PUSH2 0x903 JUMPI DUP3 SWAP1 SUB PUSH1 0x1F AND DUP3 ADD SWAP2 JUMPDEST POP POP POP POP POP DUP2 MSTORE POP POP SWAP2 POP POP SWAP2 SWAP1 POP JUMP JUMPDEST PUSH1 0x0 DUP2 PUSH1 0x40 MLOAD PUSH1 0x20 ADD PUSH2 0x944 SWAP2 SWAP1 PUSH2 0xFD6 JUMP JUMPDEST PUSH1 0x40 MLOAD PUSH1 0x20 DUP2 DUP4 SUB SUB DUP2 MSTORE SWAP1 PUSH1 0x40 MSTORE DUP1 MLOAD SWAP1 PUSH1 0x20 ADD KECCAK256 PUSH1 0x0 DUP1 DUP6 DUP2 MSTORE PUSH1 0x20 ADD SWAP1 DUP2 MSTORE PUSH1 0x20 ADD PUSH1 0x0 KECCAK256 PUSH1 0x0 ADD PUSH1 0x40 MLOAD PUSH1 0x20 ADD PUSH2 0x97F SWAP2 SWAP1 PUSH2 0xFED JUMP JUMPDEST PUSH1 0x40 MLOAD PUSH1 0x20 DUP2 DUP4 SUB SUB DUP2 MSTORE SWAP1 PUSH1 0x40 MSTORE DUP1 MLOAD SWAP1 PUSH1 0x20 ADD KECCAK256 EQ ISZERO SWAP1 POP SWAP3 SWAP2 POP POP JUMP JUMPDEST PUSH1 0x40 MLOAD DUP1 PUSH1 0x80 ADD PUSH1 0x40 MSTORE DUP1 PUSH1 0x60 DUP2 MSTORE PUSH1 0x20 ADD PUSH1 0x60 DUP2 MSTORE PUSH1 0x20 ADD PUSH1 0x60 DUP2 MSTORE PUSH1 0x20 ADD PUSH1 0x0 DUP2 MSTORE POP SWAP1 JUMP JUMPDEST DUP3 DUP1 SLOAD PUSH2 0x9D3 SWAP1 PUSH2 0x11F7 JUMP JUMPDEST SWAP1 PUSH1 0x0 MSTORE PUSH1 0x20 PUSH1 0x0 KECCAK256 SWAP1 PUSH1 0x1F ADD PUSH1 0x20 SWAP1 DIV DUP2 ADD SWAP3 DUP3 PUSH2 0x9F5 JUMPI PUSH1 0x0 DUP6 SSTORE PUSH2 0xA3C JUMP JUMPDEST DUP3 PUSH1 0x1F LT PUSH2 0xA0E JUMPI DUP1 MLOAD PUSH1 0xFF NOT AND DUP4 DUP1 ADD OR DUP6 SSTORE PUSH2 0xA3C JUMP JUMPDEST DUP3 DUP1 ADD PUSH1 0x1 ADD DUP6 SSTORE DUP3 ISZERO PUSH2 0xA3C JUMPI SWAP2 DUP3 ADD JUMPDEST DUP3 DUP2 GT ISZERO PUSH2 0xA3B JUMPI DUP3 MLOAD DUP3 SSTORE SWAP2 PUSH1 0x20 ADD SWAP2 SWAP1 PUSH1 0x1 ADD SWAP1 PUSH2 0xA20 JUMP JUMPDEST JUMPDEST POP SWAP1 POP PUSH2 0xA49 SWAP2 SWAP1 PUSH2 0xA67 JUMP JUMPDEST POP SWAP1 JUMP JUMPDEST PUSH1 0x40 MLOAD DUP1 PUSH1 0x40 ADD PUSH1 0x40 MSTORE DUP1 PUSH1 0x60 DUP2 MSTORE PUSH1 0x20 ADD PUSH1 0x60 DUP2 MSTORE POP SWAP1 JUMP JUMPDEST JUMPDEST DUP1 DUP3 GT ISZERO PUSH2 0xA80 JUMPI PUSH1 0x0 DUP2 PUSH1 0x0 SWAP1 SSTORE POP PUSH1 0x1 ADD PUSH2 0xA68 JUMP JUMPDEST POP SWAP1 JUMP JUMPDEST PUSH1 0x0 PUSH2 0xA97 PUSH2 0xA92 DUP5 PUSH2 0x10D6 JUMP JUMPDEST PUSH2 0x10B1 JUMP JUMPDEST SWAP1 POP DUP3 DUP2 MSTORE PUSH1 0x20 DUP2 ADD DUP5 DUP5 DUP5 ADD GT ISZERO PUSH2 0xAB3 JUMPI PUSH2 0xAB2 PUSH2 0x12BD JUMP JUMPDEST JUMPDEST PUSH2 0xABE DUP5 DUP3 DUP6 PUSH2 0x11B5 JUMP JUMPDEST POP SWAP4 SWAP3 POP POP POP JUMP JUMPDEST PUSH1 0x0 PUSH2 0xAD9 PUSH2 0xAD4 DUP5 PUSH2 0x1107 JUMP JUMPDEST PUSH2 0x10B1 JUMP JUMPDEST SWAP1 POP DUP3 DUP2 MSTORE PUSH1 0x20 DUP2 ADD DUP5 DUP5 DUP5 ADD GT ISZERO PUSH2 0xAF5 JUMPI PUSH2 0xAF4 PUSH2 0x12BD JUMP JUMPDEST JUMPDEST PUSH2 0xB00 DUP5 DUP3 DUP6 PUSH2 0x11B5 JUMP JUMPDEST POP SWAP4 SWAP3 POP POP POP JUMP JUMPDEST PUSH1 0x0 DUP3 PUSH1 0x1F DUP4 ADD SLT PUSH2 0xB1D JUMPI PUSH2 0xB1C PUSH2 0x12B8 JUMP JUMPDEST JUMPDEST DUP2 CALLDATALOAD PUSH2 0xB2D DUP5 DUP3 PUSH1 0x20 DUP7 ADD PUSH2 0xA84 JUMP JUMPDEST SWAP2 POP POP SWAP3 SWAP2 POP POP JUMP JUMPDEST PUSH1 0x0 DUP3 PUSH1 0x1F DUP4 ADD SLT PUSH2 0xB4B JUMPI PUSH2 0xB4A PUSH2 0x12B8 JUMP JUMPDEST JUMPDEST DUP2 CALLDATALOAD PUSH2 0xB5B DUP5 DUP3 PUSH1 0x20 DUP7 ADD PUSH2 0xAC6 JUMP JUMPDEST SWAP2 POP POP SWAP3 SWAP2 POP POP JUMP JUMPDEST PUSH1 0x0 DUP2 CALLDATALOAD SWAP1 POP PUSH2 0xB73 DUP2 PUSH2 0x132F JUMP JUMPDEST SWAP3 SWAP2 POP POP JUMP JUMPDEST PUSH1 0x0 PUSH1 0x20 DUP3 DUP5 SUB SLT ISZERO PUSH2 0xB8F JUMPI PUSH2 0xB8E PUSH2 0x12C7 JUMP JUMPDEST JUMPDEST PUSH1 0x0 DUP3 ADD CALLDATALOAD PUSH8 0xFFFFFFFFFFFFFFFF DUP2 GT ISZERO PUSH2 0xBAD JUMPI PUSH2 0xBAC PUSH2 0x12C2 JUMP JUMPDEST JUMPDEST PUSH2 0xBB9 DUP5 DUP3 DUP6 ADD PUSH2 0xB36 JUMP JUMPDEST SWAP2 POP POP SWAP3 SWAP2 POP POP JUMP JUMPDEST PUSH1 0x0 DUP1 PUSH1 0x0 PUSH1 0x60 DUP5 DUP7 SUB SLT ISZERO PUSH2 0xBDB JUMPI PUSH2 0xBDA PUSH2 0x12C7 JUMP JUMPDEST JUMPDEST PUSH1 0x0 DUP5 ADD CALLDATALOAD PUSH8 0xFFFFFFFFFFFFFFFF DUP2 GT ISZERO PUSH2 0xBF9 JUMPI PUSH2 0xBF8 PUSH2 0x12C2 JUMP JUMPDEST JUMPDEST PUSH2 0xC05 DUP7 DUP3 DUP8 ADD PUSH2 0xB36 JUMP JUMPDEST SWAP4 POP POP PUSH1 0x20 DUP5 ADD CALLDATALOAD PUSH8 0xFFFFFFFFFFFFFFFF DUP2 GT ISZERO PUSH2 0xC26 JUMPI PUSH2 0xC25 PUSH2 0x12C2 JUMP JUMPDEST JUMPDEST PUSH2 0xC32 DUP7 DUP3 DUP8 ADD PUSH2 0xB36 JUMP JUMPDEST SWAP3 POP POP PUSH1 0x40 DUP5 ADD CALLDATALOAD PUSH8 0xFFFFFFFFFFFFFFFF DUP2 GT ISZERO PUSH2 0xC53 JUMPI PUSH2 0xC52 PUSH2 0x12C2 JUMP JUMPDEST JUMPDEST PUSH2 0xC5F DUP7 DUP3 DUP8 ADD PUSH2 0xB08 JUMP JUMPDEST SWAP2 POP POP SWAP3 POP SWAP3 POP SWAP3 JUMP JUMPDEST PUSH1 0x0 DUP1 PUSH1 0x0 PUSH1 0x60 DUP5 DUP7 SUB SLT ISZERO PUSH2 0xC82 JUMPI PUSH2 0xC81 PUSH2 0x12C7 JUMP JUMPDEST JUMPDEST PUSH1 0x0 DUP5 ADD CALLDATALOAD PUSH8 0xFFFFFFFFFFFFFFFF DUP2 GT ISZERO PUSH2 0xCA0 JUMPI PUSH2 0xC9F PUSH2 0x12C2 JUMP JUMPDEST JUMPDEST PUSH2 0xCAC DUP7 DUP3 DUP8 ADD PUSH2 0xB36 JUMP JUMPDEST SWAP4 POP POP PUSH1 0x20 DUP5 ADD CALLDATALOAD PUSH8 0xFFFFFFFFFFFFFFFF DUP2 GT ISZERO PUSH2 0xCCD JUMPI PUSH2 0xCCC PUSH2 0x12C2 JUMP JUMPDEST JUMPDEST PUSH2 0xCD9 DUP7 DUP3 DUP8 ADD PUSH2 0xB36 JUMP JUMPDEST SWAP3 POP POP PUSH1 0x40 DUP5 ADD CALLDATALOAD PUSH8 0xFFFFFFFFFFFFFFFF DUP2 GT ISZERO PUSH2 0xCFA JUMPI PUSH2 0xCF9 PUSH2 0x12C2 JUMP JUMPDEST JUMPDEST PUSH2 0xD06 DUP7 DUP3 DUP8 ADD PUSH2 0xB36 JUMP JUMPDEST SWAP2 POP POP SWAP3 POP SWAP3 POP SWAP3 JUMP JUMPDEST PUSH1 0x0 DUP1 PUSH1 0x0 PUSH1 0x60 DUP5 DUP7 SUB SLT ISZERO PUSH2 0xD29 JUMPI PUSH2 0xD28 PUSH2 0x12C7 JUMP JUMPDEST JUMPDEST PUSH1 0x0 DUP5 ADD CALLDATALOAD PUSH8 0xFFFFFFFFFFFFFFFF DUP2 GT ISZERO PUSH2 0xD47 JUMPI PUSH2 0xD46 PUSH2 0x12C2 JUMP JUMPDEST JUMPDEST PUSH2 0xD53 DUP7 DUP3 DUP8 ADD PUSH2 0xB36 JUMP JUMPDEST SWAP4 POP POP PUSH1 0x20 DUP5 ADD CALLDATALOAD PUSH8 0xFFFFFFFFFFFFFFFF DUP2 GT ISZERO PUSH2 0xD74 JUMPI PUSH2 0xD73 PUSH2 0x12C2 JUMP JUMPDEST JUMPDEST PUSH2 0xD80 DUP7 DUP3 DUP8 ADD PUSH2 0xB36 JUMP JUMPDEST SWAP3 POP POP PUSH1 0x40 PUSH2 0xD91 DUP7 DUP3 DUP8 ADD PUSH2 0xB64 JUMP JUMPDEST SWAP2 POP POP SWAP3 POP SWAP3 POP SWAP3 JUMP JUMPDEST PUSH2 0xDA4 DUP2 PUSH2 0x11A1 JUMP JUMPDEST DUP3 MSTORE POP POP JUMP JUMPDEST PUSH1 0x0 PUSH2 0xDB5 DUP3 PUSH2 0x114D JUMP JUMPDEST PUSH2 0xDBF DUP2 DUP6 PUSH2 0x1163 JUMP JUMPDEST SWAP4 POP PUSH2 0xDCF DUP2 DUP6 PUSH1 0x20 DUP7 ADD PUSH2 0x11C4 JUMP JUMPDEST PUSH2 0xDD8 DUP2 PUSH2 0x12CC JUMP JUMPDEST DUP5 ADD SWAP2 POP POP SWAP3 SWAP2 POP POP JUMP JUMPDEST PUSH1 0x0 PUSH2 0xDEE DUP3 PUSH2 0x1158 JUMP JUMPDEST PUSH2 0xDF8 DUP2 DUP6 PUSH2 0x1174 JUMP JUMPDEST SWAP4 POP PUSH2 0xE08 DUP2 DUP6 PUSH1 0x20 DUP7 ADD PUSH2 0x11C4 JUMP JUMPDEST PUSH2 0xE11 DUP2 PUSH2 0x12CC JUMP JUMPDEST DUP5 ADD SWAP2 POP POP SWAP3 SWAP2 POP POP JUMP JUMPDEST PUSH1 0x0 PUSH2 0xE27 DUP3 PUSH2 0x1158 JUMP JUMPDEST PUSH2 0xE31 DUP2 DUP6 PUSH2 0x1196 JUMP JUMPDEST SWAP4 POP PUSH2 0xE41 DUP2 DUP6 PUSH1 0x20 DUP7 ADD PUSH2 0x11C4 JUMP JUMPDEST DUP1 DUP5 ADD SWAP2 POP POP SWAP3 SWAP2 POP POP JUMP JUMPDEST PUSH1 0x0 DUP2 SLOAD PUSH2 0xE5A DUP2 PUSH2 0x11F7 JUMP JUMPDEST PUSH2 0xE64 DUP2 DUP7 PUSH2 0x1196 JUMP JUMPDEST SWAP5 POP PUSH1 0x1 DUP3 AND PUSH1 0x0 DUP2 EQ PUSH2 0xE7F JUMPI PUSH1 0x1 DUP2 EQ PUSH2 0xE90 JUMPI PUSH2 0xEC3 JUMP JUMPDEST PUSH1 0xFF NOT DUP4 AND DUP7 MSTORE DUP2 DUP7 ADD SWAP4 POP PUSH2 0xEC3 JUMP JUMPDEST PUSH2 0xE99 DUP6 PUSH2 0x1138 JUMP JUMPDEST PUSH1 0x0 JUMPDEST DUP4 DUP2 LT ISZERO PUSH2 0xEBB JUMPI DUP2 SLOAD DUP2 DUP10 ADD MSTORE PUSH1 0x1 DUP3 ADD SWAP2 POP PUSH1 0x20 DUP2 ADD SWAP1 POP PUSH2 0xE9C JUMP JUMPDEST DUP4 DUP9 ADD SWAP6 POP POP POP JUMPDEST POP POP POP SWAP3 SWAP2 POP POP JUMP JUMPDEST PUSH1 0x0 PUSH2 0xED9 PUSH1 0x18 DUP4 PUSH2 0x1185 JUMP JUMPDEST SWAP2 POP PUSH2 0xEE4 DUP3 PUSH2 0x12DD JUMP JUMPDEST PUSH1 0x20 DUP3 ADD SWAP1 POP SWAP2 SWAP1 POP JUMP JUMPDEST PUSH1 0x0 PUSH2 0xEFC PUSH1 0x7 DUP4 PUSH2 0x1185 JUMP JUMPDEST SWAP2 POP PUSH2 0xF07 DUP3 PUSH2 0x1306 JUMP JUMPDEST PUSH1 0x20 DUP3 ADD SWAP1 POP SWAP2 SWAP1 POP JUMP JUMPDEST PUSH1 0x0 PUSH1 0x80 DUP4 ADD PUSH1 0x0 DUP4 ADD MLOAD DUP5 DUP3 SUB PUSH1 0x0 DUP7 ADD MSTORE PUSH2 0xF2F DUP3 DUP3 PUSH2 0xDE3 JUMP JUMPDEST SWAP2 POP POP PUSH1 0x20 DUP4 ADD MLOAD DUP5 DUP3 SUB PUSH1 0x20 DUP7 ADD MSTORE PUSH2 0xF49 DUP3 DUP3 PUSH2 0xDE3 JUMP JUMPDEST SWAP2 POP POP PUSH1 0x40 DUP4 ADD MLOAD DUP5 DUP3 SUB PUSH1 0x40 DUP7 ADD MSTORE PUSH2 0xF63 DUP3 DUP3 PUSH2 0xDE3 JUMP JUMPDEST SWAP2 POP POP PUSH1 0x60 DUP4 ADD MLOAD PUSH2 0xF78 PUSH1 0x60 DUP7 ADD DUP3 PUSH2 0xFC7 JUMP JUMPDEST POP DUP1 SWAP2 POP POP SWAP3 SWAP2 POP POP JUMP JUMPDEST PUSH1 0x0 PUSH1 0x40 DUP4 ADD PUSH1 0x0 DUP4 ADD MLOAD DUP5 DUP3 SUB PUSH1 0x0 DUP7 ADD MSTORE PUSH2 0xFA0 DUP3 DUP3 PUSH2 0xDE3 JUMP JUMPDEST SWAP2 POP POP PUSH1 0x20 DUP4 ADD MLOAD DUP5 DUP3 SUB PUSH1 0x20 DUP7 ADD MSTORE PUSH2 0xFBA DUP3 DUP3 PUSH2 0xDAA JUMP JUMPDEST SWAP2 POP POP DUP1 SWAP2 POP POP SWAP3 SWAP2 POP POP JUMP JUMPDEST PUSH2 0xFD0 DUP2 PUSH2 0x11AB JUMP JUMPDEST DUP3 MSTORE POP POP JUMP JUMPDEST PUSH1 0x0 PUSH2 0xFE2 DUP3 DUP5 PUSH2 0xE1C JUMP JUMPDEST SWAP2 POP DUP2 SWAP1 POP SWAP3 SWAP2 POP POP JUMP JUMPDEST PUSH1 0x0 PUSH2 0xFF9 DUP3 DUP5 PUSH2 0xE4D JUMP JUMPDEST SWAP2 POP DUP2 SWAP1 POP SWAP3 SWAP2 POP POP JUMP JUMPDEST PUSH1 0x0 PUSH1 0x20 DUP3 ADD SWAP1 POP PUSH2 0x1019 PUSH1 0x0 DUP4 ADD DUP5 PUSH2 0xD9B JUMP JUMPDEST SWAP3 SWAP2 POP POP JUMP JUMPDEST PUSH1 0x0 PUSH1 0x20 DUP3 ADD SWAP1 POP DUP2 DUP2 SUB PUSH1 0x0 DUP4 ADD MSTORE PUSH2 0x1038 DUP2 PUSH2 0xECC JUMP JUMPDEST SWAP1 POP SWAP2 SWAP1 POP JUMP JUMPDEST PUSH1 0x0 PUSH1 0x40 DUP3 ADD SWAP1 POP DUP2 DUP2 SUB PUSH1 0x0 DUP4 ADD MSTORE PUSH2 0x1058 DUP2 PUSH2 0xEEF JUMP JUMPDEST SWAP1 POP PUSH2 0x1067 PUSH1 0x20 DUP4 ADD DUP5 PUSH2 0xD9B JUMP JUMPDEST SWAP3 SWAP2 POP POP JUMP JUMPDEST PUSH1 0x0 PUSH1 0x20 DUP3 ADD SWAP1 POP DUP2 DUP2 SUB PUSH1 0x0 DUP4 ADD MSTORE PUSH2 0x1087 DUP2 DUP5 PUSH2 0xF12 JUMP JUMPDEST SWAP1 POP SWAP3 SWAP2 POP POP JUMP JUMPDEST PUSH1 0x0 PUSH1 0x20 DUP3 ADD SWAP1 POP DUP2 DUP2 SUB PUSH1 0x0 DUP4 ADD MSTORE PUSH2 0x10A9 DUP2 DUP5 PUSH2 0xF83 JUMP JUMPDEST SWAP1 POP SWAP3 SWAP2 POP POP JUMP JUMPDEST PUSH1 0x0 PUSH2 0x10BB PUSH2 0x10CC JUMP JUMPDEST SWAP1 POP PUSH2 0x10C7 DUP3 DUP3 PUSH2 0x1229 JUMP JUMPDEST SWAP2 SWAP1 POP JUMP JUMPDEST PUSH1 0x0 PUSH1 0x40 MLOAD SWAP1 POP SWAP1 JUMP JUMPDEST PUSH1 0x0 PUSH8 0xFFFFFFFFFFFFFFFF DUP3 GT ISZERO PUSH2 0x10F1 JUMPI PUSH2 0x10F0 PUSH2 0x1289 JUMP JUMPDEST JUMPDEST PUSH2 0x10FA DUP3 PUSH2 0x12CC JUMP JUMPDEST SWAP1 POP PUSH1 0x20 DUP2 ADD SWAP1 POP SWAP2 SWAP1 POP JUMP JUMPDEST PUSH1 0x0 PUSH8 0xFFFFFFFFFFFFFFFF DUP3 GT ISZERO PUSH2 0x1122 JUMPI PUSH2 0x1121 PUSH2 0x1289 JUMP JUMPDEST JUMPDEST PUSH2 0x112B DUP3 PUSH2 0x12CC JUMP JUMPDEST SWAP1 POP PUSH1 0x20 DUP2 ADD SWAP1 POP SWAP2 SWAP1 POP JUMP JUMPDEST PUSH1 0x0 DUP2 SWAP1 POP DUP2 PUSH1 0x0 MSTORE PUSH1 0x20 PUSH1 0x0 KECCAK256 SWAP1 POP SWAP2 SWAP1 POP JUMP JUMPDEST PUSH1 0x0 DUP2 MLOAD SWAP1 POP SWAP2 SWAP1 POP JUMP JUMPDEST PUSH1 0x0 DUP2 MLOAD SWAP1 POP SWAP2 SWAP1 POP JUMP JUMPDEST PUSH1 0x0 DUP3 DUP3 MSTORE PUSH1 0x20 DUP3 ADD SWAP1 POP SWAP3 SWAP2 POP POP JUMP JUMPDEST PUSH1 0x0 DUP3 DUP3 MSTORE PUSH1 0x20 DUP3 ADD SWAP1 POP SWAP3 SWAP2 POP POP JUMP JUMPDEST PUSH1 0x0 DUP3 DUP3 MSTORE PUSH1 0x20 DUP3 ADD SWAP1 POP SWAP3 SWAP2 POP POP JUMP JUMPDEST PUSH1 0x0 DUP2 SWAP1 POP SWAP3 SWAP2 POP POP JUMP JUMPDEST PUSH1 0x0 DUP2 SWAP1 POP SWAP2 SWAP1 POP JUMP JUMPDEST PUSH1 0x0 DUP2 SWAP1 POP SWAP2 SWAP1 POP JUMP JUMPDEST DUP3 DUP2 DUP4 CALLDATACOPY PUSH1 0x0 DUP4 DUP4 ADD MSTORE POP POP POP JUMP JUMPDEST PUSH1 0x0 JUMPDEST DUP4 DUP2 LT ISZERO PUSH2 0x11E2 JUMPI DUP1 DUP3 ADD MLOAD DUP2 DUP5 ADD MSTORE PUSH1 0x20 DUP2 ADD SWAP1 POP PUSH2 0x11C7 JUMP JUMPDEST DUP4 DUP2 GT ISZERO PUSH2 0x11F1 JUMPI PUSH1 0x0 DUP5 DUP5 ADD MSTORE JUMPDEST POP POP POP POP JUMP JUMPDEST PUSH1 0x0 PUSH1 0x2 DUP3 DIV SWAP1 POP PUSH1 0x1 DUP3 AND DUP1 PUSH2 0x120F JUMPI PUSH1 0x7F DUP3 AND SWAP2 POP JUMPDEST PUSH1 0x20 DUP3 LT DUP2 EQ ISZERO PUSH2 0x1223 JUMPI PUSH2 0x1222 PUSH2 0x125A JUMP JUMPDEST JUMPDEST POP SWAP2 SWAP1 POP JUMP JUMPDEST PUSH2 0x1232 DUP3 PUSH2 0x12CC JUMP JUMPDEST DUP2 ADD DUP2 DUP2 LT PUSH8 0xFFFFFFFFFFFFFFFF DUP3 GT OR ISZERO PUSH2 0x1251 JUMPI PUSH2 0x1250 PUSH2 0x1289 JUMP JUMPDEST JUMPDEST DUP1 PUSH1 0x40 MSTORE POP POP POP JUMP JUMPDEST PUSH32 0x4E487B7100000000000000000000000000000000000000000000000000000000 PUSH1 0x0 MSTORE PUSH1 0x22 PUSH1 0x4 MSTORE PUSH1 0x24 PUSH1 0x0 REVERT JUMPDEST PUSH32 0x4E487B7100000000000000000000000000000000000000000000000000000000 PUSH1 0x0 MSTORE PUSH1 0x41 PUSH1 0x4 MSTORE PUSH1 0x24 PUSH1 0x0 REVERT JUMPDEST PUSH1 0x0 DUP1 REVERT JUMPDEST PUSH1 0x0 DUP1 REVERT JUMPDEST PUSH1 0x0 DUP1 REVERT JUMPDEST PUSH1 0x0 DUP1 REVERT JUMPDEST PUSH1 0x0 PUSH1 0x1F NOT PUSH1 0x1F DUP4 ADD AND SWAP1 POP SWAP2 SWAP1 POP JUMP JUMPDEST PUSH32 0x4163636F756E7420616C7265616479206578697374696E670000000000000000 PUSH1 0x0 DUP3 ADD MSTORE POP JUMP JUMPDEST PUSH32 0x7375636365737300000000000000000000000000000000000000000000000000 PUSH1 0x0 DUP3 ADD MSTORE POP JUMP JUMPDEST PUSH2 0x1338 DUP2 PUSH2 0x11AB JUMP JUMPDEST DUP2 EQ PUSH2 0x1343 JUMPI PUSH1 0x0 DUP1 REVERT JUMPDEST POP JUMP INVALID LOG2 PUSH5 0x6970667358 0x22 SLT KECCAK256 DIV SWAP10 PUSH26 0xC61E4BFE8478586D1778E593FB4A9510F0269182D9D371E4CF2A 0xA5 REVERT 0x25 PUSH5 0x736F6C6343 STOP ADDMOD SMOD STOP CALLER "
				},
				"gasEstimates": {
					"creation": {
						"codeDepositCost": "997600",
						"executionCost": "1034",
						"totalCost": "998634"
					},
					"external": {
						"add_account(string,string,string)": "infinite",
						"add_certificate(string,string,uint256)": "infinite",
						"add_transaction(string,string,bytes)": "infinite",
						"get_account(string)": "infinite",
						"get_transaction(string)": "infinite"
					},
					"internal": {
						"account_checker(bytes32,string memory)": "infinite"
					}
				},
				"methodIdentifiers": {
					"add_account(string,string,string)": "b24c908a",
					"add_certificate(string,string,uint256)": "c3efbe38",
					"add_transaction(string,string,bytes)": "5b62132d",
					"get_account(string)": "174ba7ff",
					"get_transaction(string)": "ca5e208f"
				}
			},
			"storageLayout": {
				"storage": [
					{
						"astId": 21,
						"contract": "contracts/Halal.sol:Halal",
						"label": "mappingAccount",
						"offset": 0,
						"slot": "0",
						"type": "t_mapping(t_bytes32,t_struct(accountData)16_storage)"
					},
					{
						"astId": 31,
						"contract": "contracts/Halal.sol:Halal",
						"label": "mappingTransaction",
						"offset": 0,
						"slot": "1",
						"type": "t_mapping(t_bytes32,t_struct(transaction)26_storage)"
					},
					{
						"astId": 45,
						"contract": "contracts/Halal.sol:Halal",
						"label": "mappingCertificate",
						"offset": 0,
						"slot": "2",
						"type": "t_mapping(t_bytes32,t_struct(certificate)40_storage)"
					}
				],
				"types": {
					"t_bytes32": {
						"encoding": "inplace",
						"label": "bytes32",
						"numberOfBytes": "32"
					},
					"t_bytes_storage": {
						"encoding": "bytes",
						"label": "bytes",
						"numberOfBytes": "32"
					},
					"t_mapping(t_bytes32,t_struct(accountData)16_storage)": {
						"encoding": "mapping",
						"key": "t_bytes32",
						"label": "mapping(bytes32 => struct Halal.accountData)",
						"numberOfBytes": "32",
						"value": "t_struct(accountData)16_storage"
					},
					"t_mapping(t_bytes32,t_struct(certificate)40_storage)": {
						"encoding": "mapping",
						"key": "t_bytes32",
						"label": "mapping(bytes32 => struct Halal.certificate)",
						"numberOfBytes": "32",
						"value": "t_struct(certificate)40_storage"
					},
					"t_mapping(t_bytes32,t_struct(transaction)26_storage)": {
						"encoding": "mapping",
						"key": "t_bytes32",
						"label": "mapping(bytes32 => struct Halal.transaction)",
						"numberOfBytes": "32",
						"value": "t_struct(transaction)26_storage"
					},
					"t_string_storage": {
						"encoding": "bytes",
						"label": "string",
						"numberOfBytes": "32"
					},
					"t_struct(accountData)16_storage": {
						"encoding": "inplace",
						"label": "struct Halal.accountData",
						"members": [
							{
								"astId": 9,
								"contract": "contracts/Halal.sol:Halal",
								"label": "account_id",
								"offset": 0,
								"slot": "0",
								"type": "t_string_storage"
							},
							{
								"astId": 11,
								"contract": "contracts/Halal.sol:Halal",
								"label": "name",
								"offset": 0,
								"slot": "1",
								"type": "t_string_storage"
							},
							{
								"astId": 13,
								"contract": "contracts/Halal.sol:Halal",
								"label": "role",
								"offset": 0,
								"slot": "2",
								"type": "t_string_storage"
							},
							{
								"astId": 15,
								"contract": "contracts/Halal.sol:Halal",
								"label": "created_at",
								"offset": 0,
								"slot": "3",
								"type": "t_uint256"
							}
						],
						"numberOfBytes": "128"
					},
					"t_struct(certificate)40_storage": {
						"encoding": "inplace",
						"label": "struct Halal.certificate",
						"members": [
							{
								"astId": 33,
								"contract": "contracts/Halal.sol:Halal",
								"label": "umkm_id",
								"offset": 0,
								"slot": "0",
								"type": "t_string_storage"
							},
							{
								"astId": 35,
								"contract": "contracts/Halal.sol:Halal",
								"label": "certificate_id",
								"offset": 0,
								"slot": "1",
								"type": "t_string_storage"
							},
							{
								"astId": 37,
								"contract": "contracts/Halal.sol:Halal",
								"label": "created_at",
								"offset": 0,
								"slot": "2",
								"type": "t_uint256"
							},
							{
								"astId": 39,
								"contract": "contracts/Halal.sol:Halal",
								"label": "expired_at",
								"offset": 0,
								"slot": "3",
								"type": "t_uint256"
							}
						],
						"numberOfBytes": "128"
					},
					"t_struct(transaction)26_storage": {
						"encoding": "inplace",
						"label": "struct Halal.transaction",
						"members": [
							{
								"astId": 23,
								"contract": "contracts/Halal.sol:Halal",
								"label": "user_id",
								"offset": 0,
								"slot": "0",
								"type": "t_string_storage"
							},
							{
								"astId": 25,
								"contract": "contracts/Halal.sol:Halal",
								"label": "data",
								"offset": 0,
								"slot": "1",
								"type": "t_bytes_storage"
							}
						],
						"numberOfBytes": "64"
					},
					"t_uint256": {
						"encoding": "inplace",
						"label": "uint256",
						"numberOfBytes": "32"
					}
				}
			},
			"userdoc": {
				"kind": "user",
				"methods": {},
				"version": 1
			}
		}
	}
}