{
	"contracts/Halal.sol": {
		"Halal": {
			"abi": [
				{
					"anonymous": false,
					"inputs": [
						{
							"indexed": false,
							"internalType": "string",
							"name": "status",
							"type": "string"
						},
						{
							"indexed": false,
							"internalType": "bytes32",
							"name": "message",
							"type": "bytes32"
						}
					],
					"name": "success",
					"type": "event"
				},
				{
					"inputs": [
						{
							"internalType": "string",
							"name": "account_id",
							"type": "string"
						},
						{
							"internalType": "string",
							"name": "name",
							"type": "string"
						},
						{
							"internalType": "string",
							"name": "role",
							"type": "string"
						}
					],
					"name": "add_account",
					"outputs": [
						{
							"internalType": "bytes32",
							"name": "",
							"type": "bytes32"
						}
					],
					"stateMutability": "nonpayable",
					"type": "function"
				},
				{
					"inputs": [
						{
							"internalType": "string",
							"name": "account_id",
							"type": "string"
						}
					],
					"name": "get_account",
					"outputs": [
						{
							"components": [
								{
									"internalType": "string",
									"name": "account_id",
									"type": "string"
								},
								{
									"internalType": "string",
									"name": "name",
									"type": "string"
								},
								{
									"internalType": "string",
									"name": "role",
									"type": "string"
								},
								{
									"internalType": "uint256",
									"name": "created_at",
									"type": "uint256"
								}
							],
							"internalType": "struct Halal.accountData",
							"name": "",
							"type": "tuple"
						}
					],
					"stateMutability": "view",
					"type": "function"
				},
				{
					"inputs": [
						{
							"internalType": "bytes32",
							"name": "",
							"type": "bytes32"
						}
					],
					"name": "mappingAccount",
					"outputs": [
						{
							"internalType": "string",
							"name": "account_id",
							"type": "string"
						},
						{
							"internalType": "string",
							"name": "name",
							"type": "string"
						},
						{
							"internalType": "string",
							"name": "role",
							"type": "string"
						},
						{
							"internalType": "uint256",
							"name": "created_at",
							"type": "uint256"
						}
					],
					"stateMutability": "view",
					"type": "function"
				},
				{
					"inputs": [
						{
							"internalType": "bytes32",
							"name": "",
							"type": "bytes32"
						}
					],
					"name": "mappingTransaction",
					"outputs": [
						{
							"internalType": "string",
							"name": "umkm_id",
							"type": "string"
						},
						{
							"internalType": "bool",
							"name": "reg_status",
							"type": "bool"
						},
						{
							"internalType": "uint256",
							"name": "reg_date",
							"type": "uint256"
						},
						{
							"internalType": "string",
							"name": "bpjph_desc",
							"type": "string"
						},
						{
							"internalType": "string",
							"name": "bpjph_result",
							"type": "string"
						},
						{
							"internalType": "string",
							"name": "lph_appintment",
							"type": "string"
						},
						{
							"internalType": "string",
							"name": "bpjph_id",
							"type": "string"
						},
						{
							"internalType": "string",
							"name": "lph_desc",
							"type": "string"
						},
						{
							"internalType": "string",
							"name": "review_status",
							"type": "string"
						},
						{
							"internalType": "string",
							"name": "desicion_mui",
							"type": "string"
						},
						{
							"internalType": "bool",
							"name": "mui_approved",
							"type": "bool"
						},
						{
							"internalType": "string",
							"name": "cert_data",
							"type": "string"
						}
					],
					"stateMutability": "view",
					"type": "function"
				}
			],
			"devdoc": {
				"kind": "dev",
				"methods": {},
				"version": 1
			},
			"evm": {
				"assembly": "    /* \"contracts/Halal.sol\":62:1299  contract Halal{... */\n  mstore(0x40, 0x80)\n  callvalue\n  dup1\n  iszero\n  tag_1\n  jumpi\n  0x00\n  dup1\n  revert\ntag_1:\n  pop\n  dataSize(sub_0)\n  dup1\n  dataOffset(sub_0)\n  0x00\n  codecopy\n  0x00\n  return\nstop\n\nsub_0: assembly {\n        /* \"contracts/Halal.sol\":62:1299  contract Halal{... */\n      mstore(0x40, 0x80)\n      callvalue\n      dup1\n      iszero\n      tag_1\n      jumpi\n      0x00\n      dup1\n      revert\n    tag_1:\n      pop\n      jumpi(tag_2, lt(calldatasize, 0x04))\n      shr(0xe0, calldataload(0x00))\n      dup1\n      0x174ba7ff\n      eq\n      tag_3\n      jumpi\n      dup1\n      0x30ee52a9\n      eq\n      tag_4\n      jumpi\n      dup1\n      0x462e1eed\n      eq\n      tag_5\n      jumpi\n      dup1\n      0xb24c908a\n      eq\n      tag_6\n      jumpi\n    tag_2:\n      0x00\n      dup1\n      revert\n        /* \"contracts/Halal.sol\":1194:1296  function get_account(string memory account_id) public view returns(accountData memory){... */\n    tag_3:\n      tag_7\n      0x04\n      dup1\n      calldatasize\n      sub\n      dup2\n      add\n      swap1\n      tag_8\n      swap2\n      swap1\n      tag_9\n      jump\t// in\n    tag_8:\n      tag_10\n      jump\t// in\n    tag_7:\n      mload(0x40)\n      tag_11\n      swap2\n      swap1\n      tag_12\n      jump\t// in\n    tag_11:\n      mload(0x40)\n      dup1\n      swap2\n      sub\n      swap1\n      return\n        /* \"contracts/Halal.sol\":675:733  mapping (bytes32 => transaction) public mappingTransaction */\n    tag_4:\n      tag_13\n      0x04\n      dup1\n      calldatasize\n      sub\n      dup2\n      add\n      swap1\n      tag_14\n      swap2\n      swap1\n      tag_15\n      jump\t// in\n    tag_14:\n      tag_16\n      jump\t// in\n    tag_13:\n      mload(0x40)\n      tag_17\n      swap13\n      swap12\n      swap11\n      swap10\n      swap9\n      swap8\n      swap7\n      swap6\n      swap5\n      swap4\n      swap3\n      swap2\n      swap1\n      tag_18\n      jump\t// in\n    tag_17:\n      mload(0x40)\n      dup1\n      swap2\n      sub\n      swap1\n      return\n        /* \"contracts/Halal.sol\":260:315  mapping( bytes32 => accountData ) public mappingAccount */\n    tag_5:\n      tag_19\n      0x04\n      dup1\n      calldatasize\n      sub\n      dup2\n      add\n      swap1\n      tag_20\n      swap2\n      swap1\n      tag_15\n      jump\t// in\n    tag_20:\n      tag_21\n      jump\t// in\n    tag_19:\n      mload(0x40)\n      tag_22\n      swap5\n      swap4\n      swap3\n      swap2\n      swap1\n      tag_23\n      jump\t// in\n    tag_22:\n      mload(0x40)\n      dup1\n      swap2\n      sub\n      swap1\n      return\n        /* \"contracts/Halal.sol\":740:1188  function add_account(... */\n    tag_6:\n      tag_24\n      0x04\n      dup1\n      calldatasize\n      sub\n      dup2\n      add\n      swap1\n      tag_25\n      swap2\n      swap1\n      tag_26\n      jump\t// in\n    tag_25:\n      tag_27\n      jump\t// in\n    tag_24:\n      mload(0x40)\n      tag_28\n      swap2\n      swap1\n      tag_29\n      jump\t// in\n    tag_28:\n      mload(0x40)\n      dup1\n      swap2\n      sub\n      swap1\n      return\n        /* \"contracts/Halal.sol\":1194:1296  function get_account(string memory account_id) public view returns(accountData memory){... */\n    tag_10:\n        /* \"contracts/Halal.sol\":1261:1279  accountData memory */\n      tag_30\n      tag_31\n      jump\t// in\n    tag_30:\n        /* \"contracts/Halal.sol\":1194:1296  function get_account(string memory account_id) public view returns(accountData memory){... */\n      swap2\n      swap1\n      pop\n      jump\t// out\n        /* \"contracts/Halal.sol\":675:733  mapping (bytes32 => transaction) public mappingTransaction */\n    tag_16:\n      mstore(0x20, 0x01)\n      dup1\n      0x00\n      mstore\n      keccak256(0x00, 0x40)\n      0x00\n      swap2\n      pop\n      swap1\n      pop\n      dup1\n      0x00\n      add\n      dup1\n      sload\n      tag_33\n      swap1\n      tag_34\n      jump\t// in\n    tag_33:\n      dup1\n      0x1f\n      add\n      0x20\n      dup1\n      swap2\n      div\n      mul\n      0x20\n      add\n      mload(0x40)\n      swap1\n      dup2\n      add\n      0x40\n      mstore\n      dup1\n      swap3\n      swap2\n      swap1\n      dup2\n      dup2\n      mstore\n      0x20\n      add\n      dup3\n      dup1\n      sload\n      tag_35\n      swap1\n      tag_34\n      jump\t// in\n    tag_35:\n      dup1\n      iszero\n      tag_36\n      jumpi\n      dup1\n      0x1f\n      lt\n      tag_37\n      jumpi\n      0x0100\n      dup1\n      dup4\n      sload\n      div\n      mul\n      dup4\n      mstore\n      swap2\n      0x20\n      add\n      swap2\n      jump(tag_36)\n    tag_37:\n      dup3\n      add\n      swap2\n      swap1\n      0x00\n      mstore\n      keccak256(0x00, 0x20)\n      swap1\n    tag_38:\n      dup2\n      sload\n      dup2\n      mstore\n      swap1\n      0x01\n      add\n      swap1\n      0x20\n      add\n      dup1\n      dup4\n      gt\n      tag_38\n      jumpi\n      dup3\n      swap1\n      sub\n      0x1f\n      and\n      dup3\n      add\n      swap2\n    tag_36:\n      pop\n      pop\n      pop\n      pop\n      pop\n      swap1\n      dup1\n      0x01\n      add\n      0x00\n      swap1\n      sload\n      swap1\n      0x0100\n      exp\n      swap1\n      div\n      0xff\n      and\n      swap1\n      dup1\n      0x02\n      add\n      sload\n      swap1\n      dup1\n      0x03\n      add\n      dup1\n      sload\n      tag_39\n      swap1\n      tag_34\n      jump\t// in\n    tag_39:\n      dup1\n      0x1f\n      add\n      0x20\n      dup1\n      swap2\n      div\n      mul\n      0x20\n      add\n      mload(0x40)\n      swap1\n      dup2\n      add\n      0x40\n      mstore\n      dup1\n      swap3\n      swap2\n      swap1\n      dup2\n      dup2\n      mstore\n      0x20\n      add\n      dup3\n      dup1\n      sload\n      tag_40\n      swap1\n      tag_34\n      jump\t// in\n    tag_40:\n      dup1\n      iszero\n      tag_41\n      jumpi\n      dup1\n      0x1f\n      lt\n      tag_42\n      jumpi\n      0x0100\n      dup1\n      dup4\n      sload\n      div\n      mul\n      dup4\n      mstore\n      swap2\n      0x20\n      add\n      swap2\n      jump(tag_41)\n    tag_42:\n      dup3\n      add\n      swap2\n      swap1\n      0x00\n      mstore\n      keccak256(0x00, 0x20)\n      swap1\n    tag_43:\n      dup2\n      sload\n      dup2\n      mstore\n      swap1\n      0x01\n      add\n      swap1\n      0x20\n      add\n      dup1\n      dup4\n      gt\n      tag_43\n      jumpi\n      dup3\n      swap1\n      sub\n      0x1f\n      and\n      dup3\n      add\n      swap2\n    tag_41:\n      pop\n      pop\n      pop\n      pop\n      pop\n      swap1\n      dup1\n      0x04\n      add\n      dup1\n      sload\n      tag_44\n      swap1\n      tag_34\n      jump\t// in\n    tag_44:\n      dup1\n      0x1f\n      add\n      0x20\n      dup1\n      swap2\n      div\n      mul\n      0x20\n      add\n      mload(0x40)\n      swap1\n      dup2\n      add\n      0x40\n      mstore\n      dup1\n      swap3\n      swap2\n      swap1\n      dup2\n      dup2\n      mstore\n      0x20\n      add\n      dup3\n      dup1\n      sload\n      tag_45\n      swap1\n      tag_34\n      jump\t// in\n    tag_45:\n      dup1\n      iszero\n      tag_46\n      jumpi\n      dup1\n      0x1f\n      lt\n      tag_47\n      jumpi\n      0x0100\n      dup1\n      dup4\n      sload\n      div\n      mul\n      dup4\n      mstore\n      swap2\n      0x20\n      add\n      swap2\n      jump(tag_46)\n    tag_47:\n      dup3\n      add\n      swap2\n      swap1\n      0x00\n      mstore\n      keccak256(0x00, 0x20)\n      swap1\n    tag_48:\n      dup2\n      sload\n      dup2\n      mstore\n      swap1\n      0x01\n      add\n      swap1\n      0x20\n      add\n      dup1\n      dup4\n      gt\n      tag_48\n      jumpi\n      dup3\n      swap1\n      sub\n      0x1f\n      and\n      dup3\n      add\n      swap2\n    tag_46:\n      pop\n      pop\n      pop\n      pop\n      pop\n      swap1\n      dup1\n      0x05\n      add\n      dup1\n      sload\n      tag_49\n      swap1\n      tag_34\n      jump\t// in\n    tag_49:\n      dup1\n      0x1f\n      add\n      0x20\n      dup1\n      swap2\n      div\n      mul\n      0x20\n      add\n      mload(0x40)\n      swap1\n      dup2\n      add\n      0x40\n      mstore\n      dup1\n      swap3\n      swap2\n      swap1\n      dup2\n      dup2\n      mstore\n      0x20\n      add\n      dup3\n      dup1\n      sload\n      tag_50\n      swap1\n      tag_34\n      jump\t// in\n    tag_50:\n      dup1\n      iszero\n      tag_51\n      jumpi\n      dup1\n      0x1f\n      lt\n      tag_52\n      jumpi\n      0x0100\n      dup1\n      dup4\n      sload\n      div\n      mul\n      dup4\n      mstore\n      swap2\n      0x20\n      add\n      swap2\n      jump(tag_51)\n    tag_52:\n      dup3\n      add\n      swap2\n      swap1\n      0x00\n      mstore\n      keccak256(0x00, 0x20)\n      swap1\n    tag_53:\n      dup2\n      sload\n      dup2\n      mstore\n      swap1\n      0x01\n      add\n      swap1\n      0x20\n      add\n      dup1\n      dup4\n      gt\n      tag_53\n      jumpi\n      dup3\n      swap1\n      sub\n      0x1f\n      and\n      dup3\n      add\n      swap2\n    tag_51:\n      pop\n      pop\n      pop\n      pop\n      pop\n      swap1\n      dup1\n      0x06\n      add\n      dup1\n      sload\n      tag_54\n      swap1\n      tag_34\n      jump\t// in\n    tag_54:\n      dup1\n      0x1f\n      add\n      0x20\n      dup1\n      swap2\n      div\n      mul\n      0x20\n      add\n      mload(0x40)\n      swap1\n      dup2\n      add\n      0x40\n      mstore\n      dup1\n      swap3\n      swap2\n      swap1\n      dup2\n      dup2\n      mstore\n      0x20\n      add\n      dup3\n      dup1\n      sload\n      tag_55\n      swap1\n      tag_34\n      jump\t// in\n    tag_55:\n      dup1\n      iszero\n      tag_56\n      jumpi\n      dup1\n      0x1f\n      lt\n      tag_57\n      jumpi\n      0x0100\n      dup1\n      dup4\n      sload\n      div\n      mul\n      dup4\n      mstore\n      swap2\n      0x20\n      add\n      swap2\n      jump(tag_56)\n    tag_57:\n      dup3\n      add\n      swap2\n      swap1\n      0x00\n      mstore\n      keccak256(0x00, 0x20)\n      swap1\n    tag_58:\n      dup2\n      sload\n      dup2\n      mstore\n      swap1\n      0x01\n      add\n      swap1\n      0x20\n      add\n      dup1\n      dup4\n      gt\n      tag_58\n      jumpi\n      dup3\n      swap1\n      sub\n      0x1f\n      and\n      dup3\n      add\n      swap2\n    tag_56:\n      pop\n      pop\n      pop\n      pop\n      pop\n      swap1\n      dup1\n      0x07\n      add\n      dup1\n      sload\n      tag_59\n      swap1\n      tag_34\n      jump\t// in\n    tag_59:\n      dup1\n      0x1f\n      add\n      0x20\n      dup1\n      swap2\n      div\n      mul\n      0x20\n      add\n      mload(0x40)\n      swap1\n      dup2\n      add\n      0x40\n      mstore\n      dup1\n      swap3\n      swap2\n      swap1\n      dup2\n      dup2\n      mstore\n      0x20\n      add\n      dup3\n      dup1\n      sload\n      tag_60\n      swap1\n      tag_34\n      jump\t// in\n    tag_60:\n      dup1\n      iszero\n      tag_61\n      jumpi\n      dup1\n      0x1f\n      lt\n      tag_62\n      jumpi\n      0x0100\n      dup1\n      dup4\n      sload\n      div\n      mul\n      dup4\n      mstore\n      swap2\n      0x20\n      add\n      swap2\n      jump(tag_61)\n    tag_62:\n      dup3\n      add\n      swap2\n      swap1\n      0x00\n      mstore\n      keccak256(0x00, 0x20)\n      swap1\n    tag_63:\n      dup2\n      sload\n      dup2\n      mstore\n      swap1\n      0x01\n      add\n      swap1\n      0x20\n      add\n      dup1\n      dup4\n      gt\n      tag_63\n      jumpi\n      dup3\n      swap1\n      sub\n      0x1f\n      and\n      dup3\n      add\n      swap2\n    tag_61:\n      pop\n      pop\n      pop\n      pop\n      pop\n      swap1\n      dup1\n      0x08\n      add\n      dup1\n      sload\n      tag_64\n      swap1\n      tag_34\n      jump\t// in\n    tag_64:\n      dup1\n      0x1f\n      add\n      0x20\n      dup1\n      swap2\n      div\n      mul\n      0x20\n      add\n      mload(0x40)\n      swap1\n      dup2\n      add\n      0x40\n      mstore\n      dup1\n      swap3\n      swap2\n      swap1\n      dup2\n      dup2\n      mstore\n      0x20\n      add\n      dup3\n      dup1\n      sload\n      tag_65\n      swap1\n      tag_34\n      jump\t// in\n    tag_65:\n      dup1\n      iszero\n      tag_66\n      jumpi\n      dup1\n      0x1f\n      lt\n      tag_67\n      jumpi\n      0x0100\n      dup1\n      dup4\n      sload\n      div\n      mul\n      dup4\n      mstore\n      swap2\n      0x20\n      add\n      swap2\n      jump(tag_66)\n    tag_67:\n      dup3\n      add\n      swap2\n      swap1\n      0x00\n      mstore\n      keccak256(0x00, 0x20)\n      swap1\n    tag_68:\n      dup2\n      sload\n      dup2\n      mstore\n      swap1\n      0x01\n      add\n      swap1\n      0x20\n      add\n      dup1\n      dup4\n      gt\n      tag_68\n      jumpi\n      dup3\n      swap1\n      sub\n      0x1f\n      and\n      dup3\n      add\n      swap2\n    tag_66:\n      pop\n      pop\n      pop\n      pop\n      pop\n      swap1\n      dup1\n      0x09\n      add\n      dup1\n      sload\n      tag_69\n      swap1\n      tag_34\n      jump\t// in\n    tag_69:\n      dup1\n      0x1f\n      add\n      0x20\n      dup1\n      swap2\n      div\n      mul\n      0x20\n      add\n      mload(0x40)\n      swap1\n      dup2\n      add\n      0x40\n      mstore\n      dup1\n      swap3\n      swap2\n      swap1\n      dup2\n      dup2\n      mstore\n      0x20\n      add\n      dup3\n      dup1\n      sload\n      tag_70\n      swap1\n      tag_34\n      jump\t// in\n    tag_70:\n      dup1\n      iszero\n      tag_71\n      jumpi\n      dup1\n      0x1f\n      lt\n      tag_72\n      jumpi\n      0x0100\n      dup1\n      dup4\n      sload\n      div\n      mul\n      dup4\n      mstore\n      swap2\n      0x20\n      add\n      swap2\n      jump(tag_71)\n    tag_72:\n      dup3\n      add\n      swap2\n      swap1\n      0x00\n      mstore\n      keccak256(0x00, 0x20)\n      swap1\n    tag_73:\n      dup2\n      sload\n      dup2\n      mstore\n      swap1\n      0x01\n      add\n      swap1\n      0x20\n      add\n      dup1\n      dup4\n      gt\n      tag_73\n      jumpi\n      dup3\n      swap1\n      sub\n      0x1f\n      and\n      dup3\n      add\n      swap2\n    tag_71:\n      pop\n      pop\n      pop\n      pop\n      pop\n      swap1\n      dup1\n      0x0a\n      add\n      0x00\n      swap1\n      sload\n      swap1\n      0x0100\n      exp\n      swap1\n      div\n      0xff\n      and\n      swap1\n      dup1\n      0x0b\n      add\n      dup1\n      sload\n      tag_74\n      swap1\n      tag_34\n      jump\t// in\n    tag_74:\n      dup1\n      0x1f\n      add\n      0x20\n      dup1\n      swap2\n      div\n      mul\n      0x20\n      add\n      mload(0x40)\n      swap1\n      dup2\n      add\n      0x40\n      mstore\n      dup1\n      swap3\n      swap2\n      swap1\n      dup2\n      dup2\n      mstore\n      0x20\n      add\n      dup3\n      dup1\n      sload\n      tag_75\n      swap1\n      tag_34\n      jump\t// in\n    tag_75:\n      dup1\n      iszero\n      tag_76\n      jumpi\n      dup1\n      0x1f\n      lt\n      tag_77\n      jumpi\n      0x0100\n      dup1\n      dup4\n      sload\n      div\n      mul\n      dup4\n      mstore\n      swap2\n      0x20\n      add\n      swap2\n      jump(tag_76)\n    tag_77:\n      dup3\n      add\n      swap2\n      swap1\n      0x00\n      mstore\n      keccak256(0x00, 0x20)\n      swap1\n    tag_78:\n      dup2\n      sload\n      dup2\n      mstore\n      swap1\n      0x01\n      add\n      swap1\n      0x20\n      add\n      dup1\n      dup4\n      gt\n      tag_78\n      jumpi\n      dup3\n      swap1\n      sub\n      0x1f\n      and\n      dup3\n      add\n      swap2\n    tag_76:\n      pop\n      pop\n      pop\n      pop\n      pop\n      swap1\n      pop\n      dup13\n      jump\t// out\n        /* \"contracts/Halal.sol\":260:315  mapping( bytes32 => accountData ) public mappingAccount */\n    tag_21:\n      mstore(0x20, 0x00)\n      dup1\n      0x00\n      mstore\n      keccak256(0x00, 0x40)\n      0x00\n      swap2\n      pop\n      swap1\n      pop\n      dup1\n      0x00\n      add\n      dup1\n      sload\n      tag_79\n      swap1\n      tag_34\n      jump\t// in\n    tag_79:\n      dup1\n      0x1f\n      add\n      0x20\n      dup1\n      swap2\n      div\n      mul\n      0x20\n      add\n      mload(0x40)\n      swap1\n      dup2\n      add\n      0x40\n      mstore\n      dup1\n      swap3\n      swap2\n      swap1\n      dup2\n      dup2\n      mstore\n      0x20\n      add\n      dup3\n      dup1\n      sload\n      tag_80\n      swap1\n      tag_34\n      jump\t// in\n    tag_80:\n      dup1\n      iszero\n      tag_81\n      jumpi\n      dup1\n      0x1f\n      lt\n      tag_82\n      jumpi\n      0x0100\n      dup1\n      dup4\n      sload\n      div\n      mul\n      dup4\n      mstore\n      swap2\n      0x20\n      add\n      swap2\n      jump(tag_81)\n    tag_82:\n      dup3\n      add\n      swap2\n      swap1\n      0x00\n      mstore\n      keccak256(0x00, 0x20)\n      swap1\n    tag_83:\n      dup2\n      sload\n      dup2\n      mstore\n      swap1\n      0x01\n      add\n      swap1\n      0x20\n      add\n      dup1\n      dup4\n      gt\n      tag_83\n      jumpi\n      dup3\n      swap1\n      sub\n      0x1f\n      and\n      dup3\n      add\n      swap2\n    tag_81:\n      pop\n      pop\n      pop\n      pop\n      pop\n      swap1\n      dup1\n      0x01\n      add\n      dup1\n      sload\n      tag_84\n      swap1\n      tag_34\n      jump\t// in\n    tag_84:\n      dup1\n      0x1f\n      add\n      0x20\n      dup1\n      swap2\n      div\n      mul\n      0x20\n      add\n      mload(0x40)\n      swap1\n      dup2\n      add\n      0x40\n      mstore\n      dup1\n      swap3\n      swap2\n      swap1\n      dup2\n      dup2\n      mstore\n      0x20\n      add\n      dup3\n      dup1\n      sload\n      tag_85\n      swap1\n      tag_34\n      jump\t// in\n    tag_85:\n      dup1\n      iszero\n      tag_86\n      jumpi\n      dup1\n      0x1f\n      lt\n      tag_87\n      jumpi\n      0x0100\n      dup1\n      dup4\n      sload\n      div\n      mul\n      dup4\n      mstore\n      swap2\n      0x20\n      add\n      swap2\n      jump(tag_86)\n    tag_87:\n      dup3\n      add\n      swap2\n      swap1\n      0x00\n      mstore\n      keccak256(0x00, 0x20)\n      swap1\n    tag_88:\n      dup2\n      sload\n      dup2\n      mstore\n      swap1\n      0x01\n      add\n      swap1\n      0x20\n      add\n      dup1\n      dup4\n      gt\n      tag_88\n      jumpi\n      dup3\n      swap1\n      sub\n      0x1f\n      and\n      dup3\n      add\n      swap2\n    tag_86:\n      pop\n      pop\n      pop\n      pop\n      pop\n      swap1\n      dup1\n      0x02\n      add\n      dup1\n      sload\n      tag_89\n      swap1\n      tag_34\n      jump\t// in\n    tag_89:\n      dup1\n      0x1f\n      add\n      0x20\n      dup1\n      swap2\n      div\n      mul\n      0x20\n      add\n      mload(0x40)\n      swap1\n      dup2\n      add\n      0x40\n      mstore\n      dup1\n      swap3\n      swap2\n      swap1\n      dup2\n      dup2\n      mstore\n      0x20\n      add\n      dup3\n      dup1\n      sload\n      tag_90\n      swap1\n      tag_34\n      jump\t// in\n    tag_90:\n      dup1\n      iszero\n      tag_91\n      jumpi\n      dup1\n      0x1f\n      lt\n      tag_92\n      jumpi\n      0x0100\n      dup1\n      dup4\n      sload\n      div\n      mul\n      dup4\n      mstore\n      swap2\n      0x20\n      add\n      swap2\n      jump(tag_91)\n    tag_92:\n      dup3\n      add\n      swap2\n      swap1\n      0x00\n      mstore\n      keccak256(0x00, 0x20)\n      swap1\n    tag_93:\n      dup2\n      sload\n      dup2\n      mstore\n      swap1\n      0x01\n      add\n      swap1\n      0x20\n      add\n      dup1\n      dup4\n      gt\n      tag_93\n      jumpi\n      dup3\n      swap1\n      sub\n      0x1f\n      and\n      dup3\n      add\n      swap2\n    tag_91:\n      pop\n      pop\n      pop\n      pop\n      pop\n      swap1\n      dup1\n      0x03\n      add\n      sload\n      swap1\n      pop\n      dup5\n      jump\t// out\n        /* \"contracts/Halal.sol\":740:1188  function add_account(... */\n    tag_27:\n        /* \"contracts/Halal.sol\":872:879  bytes32 */\n      0x00\n        /* \"contracts/Halal.sol\":890:900  bytes32 id */\n      dup1\n        /* \"contracts/Halal.sol\":930:940  account_id */\n      dup5\n        /* \"contracts/Halal.sol\":913:941  abi.encodePacked(account_id) */\n      add(0x20, mload(0x40))\n      tag_95\n      swap2\n      swap1\n      tag_96\n      jump\t// in\n    tag_95:\n      mload(0x40)\n      0x20\n      dup2\n      dup4\n      sub\n      sub\n      dup2\n      mstore\n      swap1\n      0x40\n      mstore\n        /* \"contracts/Halal.sol\":903:942  keccak256(abi.encodePacked(account_id)) */\n      dup1\n      mload\n      swap1\n      0x20\n      add\n      keccak256\n        /* \"contracts/Halal.sol\":890:942  bytes32 id = keccak256(abi.encodePacked(account_id)) */\n      swap1\n      pop\n        /* \"contracts/Halal.sol\":952:975  accountData storage acc */\n      0x00\n        /* \"contracts/Halal.sol\":978:992  mappingAccount */\n      dup1\n        /* \"contracts/Halal.sol\":978:996  mappingAccount[id] */\n      0x00\n        /* \"contracts/Halal.sol\":993:995  id */\n      dup4\n        /* \"contracts/Halal.sol\":978:996  mappingAccount[id] */\n      dup2\n      mstore\n      0x20\n      add\n      swap1\n      dup2\n      mstore\n      0x20\n      add\n      0x00\n      keccak256\n        /* \"contracts/Halal.sol\":952:996  accountData storage acc = mappingAccount[id] */\n      swap1\n      pop\n        /* \"contracts/Halal.sol\":1023:1033  account_id */\n      dup6\n        /* \"contracts/Halal.sol\":1006:1009  acc */\n      dup2\n        /* \"contracts/Halal.sol\":1006:1020  acc.account_id */\n      0x00\n      add\n        /* \"contracts/Halal.sol\":1006:1033  acc.account_id = account_id */\n      swap1\n      dup1\n      mload\n      swap1\n      0x20\n      add\n      swap1\n      tag_97\n      swap3\n      swap2\n      swap1\n      tag_98\n      jump\t// in\n    tag_97:\n      pop\n        /* \"contracts/Halal.sol\":1054:1058  name */\n      dup5\n        /* \"contracts/Halal.sol\":1043:1046  acc */\n      dup2\n        /* \"contracts/Halal.sol\":1043:1051  acc.name */\n      0x01\n      add\n        /* \"contracts/Halal.sol\":1043:1058  acc.name = name */\n      swap1\n      dup1\n      mload\n      swap1\n      0x20\n      add\n      swap1\n      tag_99\n      swap3\n      swap2\n      swap1\n      tag_98\n      jump\t// in\n    tag_99:\n      pop\n        /* \"contracts/Halal.sol\":1079:1083  role */\n      dup4\n        /* \"contracts/Halal.sol\":1068:1071  acc */\n      dup2\n        /* \"contracts/Halal.sol\":1068:1076  acc.role */\n      0x02\n      add\n        /* \"contracts/Halal.sol\":1068:1083  acc.role = role */\n      swap1\n      dup1\n      mload\n      swap1\n      0x20\n      add\n      swap1\n      tag_100\n      swap3\n      swap2\n      swap1\n      tag_98\n      jump\t// in\n    tag_100:\n      pop\n        /* \"contracts/Halal.sol\":1110:1125  block.timestamp */\n      timestamp\n        /* \"contracts/Halal.sol\":1093:1096  acc */\n      dup2\n        /* \"contracts/Halal.sol\":1093:1107  acc.created_at */\n      0x03\n      add\n        /* \"contracts/Halal.sol\":1093:1125  acc.created_at = block.timestamp */\n      dup2\n      swap1\n      sstore\n      pop\n        /* \"contracts/Halal.sol\":1140:1162  success(\"success\", id) */\n      0xc8922d91fbabbe8df5d667708c678575856a856a2a465ebd9626a40ab6a16f5f\n        /* \"contracts/Halal.sol\":1159:1161  id */\n      dup3\n        /* \"contracts/Halal.sol\":1140:1162  success(\"success\", id) */\n      mload(0x40)\n      tag_101\n      swap2\n      swap1\n      tag_102\n      jump\t// in\n    tag_101:\n      mload(0x40)\n      dup1\n      swap2\n      sub\n      swap1\n      log1\n        /* \"contracts/Halal.sol\":1179:1181  id */\n      dup2\n        /* \"contracts/Halal.sol\":1172:1181  return id */\n      swap3\n      pop\n      pop\n      pop\n        /* \"contracts/Halal.sol\":740:1188  function add_account(... */\n      swap4\n      swap3\n      pop\n      pop\n      pop\n      jump\t// out\n    tag_31:\n      mload(0x40)\n      dup1\n      0x80\n      add\n      0x40\n      mstore\n      dup1\n      0x60\n      dup2\n      mstore\n      0x20\n      add\n      0x60\n      dup2\n      mstore\n      0x20\n      add\n      0x60\n      dup2\n      mstore\n      0x20\n      add\n      0x00\n      dup2\n      mstore\n      pop\n      swap1\n      jump\t// out\n    tag_98:\n      dup3\n      dup1\n      sload\n      tag_103\n      swap1\n      tag_34\n      jump\t// in\n    tag_103:\n      swap1\n      0x00\n      mstore\n      keccak256(0x00, 0x20)\n      swap1\n      0x1f\n      add\n      0x20\n      swap1\n      div\n      dup2\n      add\n      swap3\n      dup3\n      tag_105\n      jumpi\n      0x00\n      dup6\n      sstore\n      jump(tag_104)\n    tag_105:\n      dup3\n      0x1f\n      lt\n      tag_106\n      jumpi\n      dup1\n      mload\n      not(0xff)\n      and\n      dup4\n      dup1\n      add\n      or\n      dup6\n      sstore\n      jump(tag_104)\n    tag_106:\n      dup3\n      dup1\n      add\n      0x01\n      add\n      dup6\n      sstore\n      dup3\n      iszero\n      tag_104\n      jumpi\n      swap2\n      dup3\n      add\n    tag_107:\n      dup3\n      dup2\n      gt\n      iszero\n      tag_108\n      jumpi\n      dup3\n      mload\n      dup3\n      sstore\n      swap2\n      0x20\n      add\n      swap2\n      swap1\n      0x01\n      add\n      swap1\n      jump(tag_107)\n    tag_108:\n    tag_104:\n      pop\n      swap1\n      pop\n      tag_109\n      swap2\n      swap1\n      tag_110\n      jump\t// in\n    tag_109:\n      pop\n      swap1\n      jump\t// out\n    tag_110:\n    tag_111:\n      dup1\n      dup3\n      gt\n      iszero\n      tag_112\n      jumpi\n      0x00\n      dup2\n      0x00\n      swap1\n      sstore\n      pop\n      0x01\n      add\n      jump(tag_111)\n    tag_112:\n      pop\n      swap1\n      jump\t// out\n        /* \"#utility.yul\":7:419   */\n    tag_114:\n        /* \"#utility.yul\":85:90   */\n      0x00\n        /* \"#utility.yul\":110:176   */\n      tag_116\n        /* \"#utility.yul\":126:175   */\n      tag_117\n        /* \"#utility.yul\":168:174   */\n      dup5\n        /* \"#utility.yul\":126:175   */\n      tag_118\n      jump\t// in\n    tag_117:\n        /* \"#utility.yul\":110:176   */\n      tag_119\n      jump\t// in\n    tag_116:\n        /* \"#utility.yul\":101:176   */\n      swap1\n      pop\n        /* \"#utility.yul\":199:205   */\n      dup3\n        /* \"#utility.yul\":192:197   */\n      dup2\n        /* \"#utility.yul\":185:206   */\n      mstore\n        /* \"#utility.yul\":237:241   */\n      0x20\n        /* \"#utility.yul\":230:235   */\n      dup2\n        /* \"#utility.yul\":226:242   */\n      add\n        /* \"#utility.yul\":275:278   */\n      dup5\n        /* \"#utility.yul\":266:272   */\n      dup5\n        /* \"#utility.yul\":261:264   */\n      dup5\n        /* \"#utility.yul\":257:273   */\n      add\n        /* \"#utility.yul\":254:279   */\n      gt\n        /* \"#utility.yul\":251:363   */\n      iszero\n      tag_120\n      jumpi\n        /* \"#utility.yul\":282:361   */\n      tag_121\n      tag_122\n      jump\t// in\n    tag_121:\n        /* \"#utility.yul\":251:363   */\n    tag_120:\n        /* \"#utility.yul\":372:413   */\n      tag_123\n        /* \"#utility.yul\":406:412   */\n      dup5\n        /* \"#utility.yul\":401:404   */\n      dup3\n        /* \"#utility.yul\":396:399   */\n      dup6\n        /* \"#utility.yul\":372:413   */\n      tag_124\n      jump\t// in\n    tag_123:\n        /* \"#utility.yul\":91:419   */\n      pop\n        /* \"#utility.yul\":7:419   */\n      swap4\n      swap3\n      pop\n      pop\n      pop\n      jump\t// out\n        /* \"#utility.yul\":425:564   */\n    tag_125:\n        /* \"#utility.yul\":471:476   */\n      0x00\n        /* \"#utility.yul\":509:515   */\n      dup2\n        /* \"#utility.yul\":496:516   */\n      calldataload\n        /* \"#utility.yul\":487:516   */\n      swap1\n      pop\n        /* \"#utility.yul\":525:558   */\n      tag_127\n        /* \"#utility.yul\":552:557   */\n      dup2\n        /* \"#utility.yul\":525:558   */\n      tag_128\n      jump\t// in\n    tag_127:\n        /* \"#utility.yul\":425:564   */\n      swap3\n      swap2\n      pop\n      pop\n      jump\t// out\n        /* \"#utility.yul\":584:924   */\n    tag_129:\n        /* \"#utility.yul\":640:645   */\n      0x00\n        /* \"#utility.yul\":689:692   */\n      dup3\n        /* \"#utility.yul\":682:686   */\n      0x1f\n        /* \"#utility.yul\":674:680   */\n      dup4\n        /* \"#utility.yul\":670:687   */\n      add\n        /* \"#utility.yul\":666:693   */\n      slt\n        /* \"#utility.yul\":656:778   */\n      tag_131\n      jumpi\n        /* \"#utility.yul\":697:776   */\n      tag_132\n      tag_133\n      jump\t// in\n    tag_132:\n        /* \"#utility.yul\":656:778   */\n    tag_131:\n        /* \"#utility.yul\":814:820   */\n      dup2\n        /* \"#utility.yul\":801:821   */\n      calldataload\n        /* \"#utility.yul\":839:918   */\n      tag_134\n        /* \"#utility.yul\":914:917   */\n      dup5\n        /* \"#utility.yul\":906:912   */\n      dup3\n        /* \"#utility.yul\":899:903   */\n      0x20\n        /* \"#utility.yul\":891:897   */\n      dup7\n        /* \"#utility.yul\":887:904   */\n      add\n        /* \"#utility.yul\":839:918   */\n      tag_114\n      jump\t// in\n    tag_134:\n        /* \"#utility.yul\":830:918   */\n      swap2\n      pop\n        /* \"#utility.yul\":646:924   */\n      pop\n        /* \"#utility.yul\":584:924   */\n      swap3\n      swap2\n      pop\n      pop\n      jump\t// out\n        /* \"#utility.yul\":930:1259   */\n    tag_15:\n        /* \"#utility.yul\":989:995   */\n      0x00\n        /* \"#utility.yul\":1038:1040   */\n      0x20\n        /* \"#utility.yul\":1026:1035   */\n      dup3\n        /* \"#utility.yul\":1017:1024   */\n      dup5\n        /* \"#utility.yul\":1013:1036   */\n      sub\n        /* \"#utility.yul\":1009:1041   */\n      slt\n        /* \"#utility.yul\":1006:1125   */\n      iszero\n      tag_136\n      jumpi\n        /* \"#utility.yul\":1044:1123   */\n      tag_137\n      tag_138\n      jump\t// in\n    tag_137:\n        /* \"#utility.yul\":1006:1125   */\n    tag_136:\n        /* \"#utility.yul\":1164:1165   */\n      0x00\n        /* \"#utility.yul\":1189:1242   */\n      tag_139\n        /* \"#utility.yul\":1234:1241   */\n      dup5\n        /* \"#utility.yul\":1225:1231   */\n      dup3\n        /* \"#utility.yul\":1214:1223   */\n      dup6\n        /* \"#utility.yul\":1210:1232   */\n      add\n        /* \"#utility.yul\":1189:1242   */\n      tag_125\n      jump\t// in\n    tag_139:\n        /* \"#utility.yul\":1179:1242   */\n      swap2\n      pop\n        /* \"#utility.yul\":1135:1252   */\n      pop\n        /* \"#utility.yul\":930:1259   */\n      swap3\n      swap2\n      pop\n      pop\n      jump\t// out\n        /* \"#utility.yul\":1265:1774   */\n    tag_9:\n        /* \"#utility.yul\":1334:1340   */\n      0x00\n        /* \"#utility.yul\":1383:1385   */\n      0x20\n        /* \"#utility.yul\":1371:1380   */\n      dup3\n        /* \"#utility.yul\":1362:1369   */\n      dup5\n        /* \"#utility.yul\":1358:1381   */\n      sub\n        /* \"#utility.yul\":1354:1386   */\n      slt\n        /* \"#utility.yul\":1351:1470   */\n      iszero\n      tag_141\n      jumpi\n        /* \"#utility.yul\":1389:1468   */\n      tag_142\n      tag_138\n      jump\t// in\n    tag_142:\n        /* \"#utility.yul\":1351:1470   */\n    tag_141:\n        /* \"#utility.yul\":1537:1538   */\n      0x00\n        /* \"#utility.yul\":1526:1535   */\n      dup3\n        /* \"#utility.yul\":1522:1539   */\n      add\n        /* \"#utility.yul\":1509:1540   */\n      calldataload\n        /* \"#utility.yul\":1567:1585   */\n      0xffffffffffffffff\n        /* \"#utility.yul\":1559:1565   */\n      dup2\n        /* \"#utility.yul\":1556:1586   */\n      gt\n        /* \"#utility.yul\":1553:1670   */\n      iszero\n      tag_143\n      jumpi\n        /* \"#utility.yul\":1589:1668   */\n      tag_144\n      tag_145\n      jump\t// in\n    tag_144:\n        /* \"#utility.yul\":1553:1670   */\n    tag_143:\n        /* \"#utility.yul\":1694:1757   */\n      tag_146\n        /* \"#utility.yul\":1749:1756   */\n      dup5\n        /* \"#utility.yul\":1740:1746   */\n      dup3\n        /* \"#utility.yul\":1729:1738   */\n      dup6\n        /* \"#utility.yul\":1725:1747   */\n      add\n        /* \"#utility.yul\":1694:1757   */\n      tag_129\n      jump\t// in\n    tag_146:\n        /* \"#utility.yul\":1684:1757   */\n      swap2\n      pop\n        /* \"#utility.yul\":1480:1767   */\n      pop\n        /* \"#utility.yul\":1265:1774   */\n      swap3\n      swap2\n      pop\n      pop\n      jump\t// out\n        /* \"#utility.yul\":1780:2939   */\n    tag_26:\n        /* \"#utility.yul\":1887:1893   */\n      0x00\n        /* \"#utility.yul\":1895:1901   */\n      dup1\n        /* \"#utility.yul\":1903:1909   */\n      0x00\n        /* \"#utility.yul\":1952:1954   */\n      0x60\n        /* \"#utility.yul\":1940:1949   */\n      dup5\n        /* \"#utility.yul\":1931:1938   */\n      dup7\n        /* \"#utility.yul\":1927:1950   */\n      sub\n        /* \"#utility.yul\":1923:1955   */\n      slt\n        /* \"#utility.yul\":1920:2039   */\n      iszero\n      tag_148\n      jumpi\n        /* \"#utility.yul\":1958:2037   */\n      tag_149\n      tag_138\n      jump\t// in\n    tag_149:\n        /* \"#utility.yul\":1920:2039   */\n    tag_148:\n        /* \"#utility.yul\":2106:2107   */\n      0x00\n        /* \"#utility.yul\":2095:2104   */\n      dup5\n        /* \"#utility.yul\":2091:2108   */\n      add\n        /* \"#utility.yul\":2078:2109   */\n      calldataload\n        /* \"#utility.yul\":2136:2154   */\n      0xffffffffffffffff\n        /* \"#utility.yul\":2128:2134   */\n      dup2\n        /* \"#utility.yul\":2125:2155   */\n      gt\n        /* \"#utility.yul\":2122:2239   */\n      iszero\n      tag_150\n      jumpi\n        /* \"#utility.yul\":2158:2237   */\n      tag_151\n      tag_145\n      jump\t// in\n    tag_151:\n        /* \"#utility.yul\":2122:2239   */\n    tag_150:\n        /* \"#utility.yul\":2263:2326   */\n      tag_152\n        /* \"#utility.yul\":2318:2325   */\n      dup7\n        /* \"#utility.yul\":2309:2315   */\n      dup3\n        /* \"#utility.yul\":2298:2307   */\n      dup8\n        /* \"#utility.yul\":2294:2316   */\n      add\n        /* \"#utility.yul\":2263:2326   */\n      tag_129\n      jump\t// in\n    tag_152:\n        /* \"#utility.yul\":2253:2326   */\n      swap4\n      pop\n        /* \"#utility.yul\":2049:2336   */\n      pop\n        /* \"#utility.yul\":2403:2405   */\n      0x20\n        /* \"#utility.yul\":2392:2401   */\n      dup5\n        /* \"#utility.yul\":2388:2406   */\n      add\n        /* \"#utility.yul\":2375:2407   */\n      calldataload\n        /* \"#utility.yul\":2434:2452   */\n      0xffffffffffffffff\n        /* \"#utility.yul\":2426:2432   */\n      dup2\n        /* \"#utility.yul\":2423:2453   */\n      gt\n        /* \"#utility.yul\":2420:2537   */\n      iszero\n      tag_153\n      jumpi\n        /* \"#utility.yul\":2456:2535   */\n      tag_154\n      tag_145\n      jump\t// in\n    tag_154:\n        /* \"#utility.yul\":2420:2537   */\n    tag_153:\n        /* \"#utility.yul\":2561:2624   */\n      tag_155\n        /* \"#utility.yul\":2616:2623   */\n      dup7\n        /* \"#utility.yul\":2607:2613   */\n      dup3\n        /* \"#utility.yul\":2596:2605   */\n      dup8\n        /* \"#utility.yul\":2592:2614   */\n      add\n        /* \"#utility.yul\":2561:2624   */\n      tag_129\n      jump\t// in\n    tag_155:\n        /* \"#utility.yul\":2551:2624   */\n      swap3\n      pop\n        /* \"#utility.yul\":2346:2634   */\n      pop\n        /* \"#utility.yul\":2701:2703   */\n      0x40\n        /* \"#utility.yul\":2690:2699   */\n      dup5\n        /* \"#utility.yul\":2686:2704   */\n      add\n        /* \"#utility.yul\":2673:2705   */\n      calldataload\n        /* \"#utility.yul\":2732:2750   */\n      0xffffffffffffffff\n        /* \"#utility.yul\":2724:2730   */\n      dup2\n        /* \"#utility.yul\":2721:2751   */\n      gt\n        /* \"#utility.yul\":2718:2835   */\n      iszero\n      tag_156\n      jumpi\n        /* \"#utility.yul\":2754:2833   */\n      tag_157\n      tag_145\n      jump\t// in\n    tag_157:\n        /* \"#utility.yul\":2718:2835   */\n    tag_156:\n        /* \"#utility.yul\":2859:2922   */\n      tag_158\n        /* \"#utility.yul\":2914:2921   */\n      dup7\n        /* \"#utility.yul\":2905:2911   */\n      dup3\n        /* \"#utility.yul\":2894:2903   */\n      dup8\n        /* \"#utility.yul\":2890:2912   */\n      add\n        /* \"#utility.yul\":2859:2922   */\n      tag_129\n      jump\t// in\n    tag_158:\n        /* \"#utility.yul\":2849:2922   */\n      swap2\n      pop\n        /* \"#utility.yul\":2644:2932   */\n      pop\n        /* \"#utility.yul\":1780:2939   */\n      swap3\n      pop\n      swap3\n      pop\n      swap3\n      jump\t// out\n        /* \"#utility.yul\":2945:3054   */\n    tag_159:\n        /* \"#utility.yul\":3026:3047   */\n      tag_161\n        /* \"#utility.yul\":3041:3046   */\n      dup2\n        /* \"#utility.yul\":3026:3047   */\n      tag_162\n      jump\t// in\n    tag_161:\n        /* \"#utility.yul\":3021:3024   */\n      dup3\n        /* \"#utility.yul\":3014:3048   */\n      mstore\n        /* \"#utility.yul\":2945:3054   */\n      pop\n      pop\n      jump\t// out\n        /* \"#utility.yul\":3060:3178   */\n    tag_163:\n        /* \"#utility.yul\":3147:3171   */\n      tag_165\n        /* \"#utility.yul\":3165:3170   */\n      dup2\n        /* \"#utility.yul\":3147:3171   */\n      tag_166\n      jump\t// in\n    tag_165:\n        /* \"#utility.yul\":3142:3145   */\n      dup3\n        /* \"#utility.yul\":3135:3172   */\n      mstore\n        /* \"#utility.yul\":3060:3178   */\n      pop\n      pop\n      jump\t// out\n        /* \"#utility.yul\":3184:3528   */\n    tag_167:\n        /* \"#utility.yul\":3262:3265   */\n      0x00\n        /* \"#utility.yul\":3290:3329   */\n      tag_169\n        /* \"#utility.yul\":3323:3328   */\n      dup3\n        /* \"#utility.yul\":3290:3329   */\n      tag_170\n      jump\t// in\n    tag_169:\n        /* \"#utility.yul\":3345:3406   */\n      tag_171\n        /* \"#utility.yul\":3399:3405   */\n      dup2\n        /* \"#utility.yul\":3394:3397   */\n      dup6\n        /* \"#utility.yul\":3345:3406   */\n      tag_172\n      jump\t// in\n    tag_171:\n        /* \"#utility.yul\":3338:3406   */\n      swap4\n      pop\n        /* \"#utility.yul\":3415:3467   */\n      tag_173\n        /* \"#utility.yul\":3460:3466   */\n      dup2\n        /* \"#utility.yul\":3455:3458   */\n      dup6\n        /* \"#utility.yul\":3448:3452   */\n      0x20\n        /* \"#utility.yul\":3441:3446   */\n      dup7\n        /* \"#utility.yul\":3437:3453   */\n      add\n        /* \"#utility.yul\":3415:3467   */\n      tag_174\n      jump\t// in\n    tag_173:\n        /* \"#utility.yul\":3492:3521   */\n      tag_175\n        /* \"#utility.yul\":3514:3520   */\n      dup2\n        /* \"#utility.yul\":3492:3521   */\n      tag_176\n      jump\t// in\n    tag_175:\n        /* \"#utility.yul\":3487:3490   */\n      dup5\n        /* \"#utility.yul\":3483:3522   */\n      add\n        /* \"#utility.yul\":3476:3522   */\n      swap2\n      pop\n        /* \"#utility.yul\":3266:3528   */\n      pop\n        /* \"#utility.yul\":3184:3528   */\n      swap3\n      swap2\n      pop\n      pop\n      jump\t// out\n        /* \"#utility.yul\":3534:3898   */\n    tag_177:\n        /* \"#utility.yul\":3622:3625   */\n      0x00\n        /* \"#utility.yul\":3650:3689   */\n      tag_179\n        /* \"#utility.yul\":3683:3688   */\n      dup3\n        /* \"#utility.yul\":3650:3689   */\n      tag_170\n      jump\t// in\n    tag_179:\n        /* \"#utility.yul\":3705:3776   */\n      tag_180\n        /* \"#utility.yul\":3769:3775   */\n      dup2\n        /* \"#utility.yul\":3764:3767   */\n      dup6\n        /* \"#utility.yul\":3705:3776   */\n      tag_181\n      jump\t// in\n    tag_180:\n        /* \"#utility.yul\":3698:3776   */\n      swap4\n      pop\n        /* \"#utility.yul\":3785:3837   */\n      tag_182\n        /* \"#utility.yul\":3830:3836   */\n      dup2\n        /* \"#utility.yul\":3825:3828   */\n      dup6\n        /* \"#utility.yul\":3818:3822   */\n      0x20\n        /* \"#utility.yul\":3811:3816   */\n      dup7\n        /* \"#utility.yul\":3807:3823   */\n      add\n        /* \"#utility.yul\":3785:3837   */\n      tag_174\n      jump\t// in\n    tag_182:\n        /* \"#utility.yul\":3862:3891   */\n      tag_183\n        /* \"#utility.yul\":3884:3890   */\n      dup2\n        /* \"#utility.yul\":3862:3891   */\n      tag_176\n      jump\t// in\n    tag_183:\n        /* \"#utility.yul\":3857:3860   */\n      dup5\n        /* \"#utility.yul\":3853:3892   */\n      add\n        /* \"#utility.yul\":3846:3892   */\n      swap2\n      pop\n        /* \"#utility.yul\":3626:3898   */\n      pop\n        /* \"#utility.yul\":3534:3898   */\n      swap3\n      swap2\n      pop\n      pop\n      jump\t// out\n        /* \"#utility.yul\":3904:4281   */\n    tag_184:\n        /* \"#utility.yul\":4010:4013   */\n      0x00\n        /* \"#utility.yul\":4038:4077   */\n      tag_186\n        /* \"#utility.yul\":4071:4076   */\n      dup3\n        /* \"#utility.yul\":4038:4077   */\n      tag_170\n      jump\t// in\n    tag_186:\n        /* \"#utility.yul\":4093:4182   */\n      tag_187\n        /* \"#utility.yul\":4175:4181   */\n      dup2\n        /* \"#utility.yul\":4170:4173   */\n      dup6\n        /* \"#utility.yul\":4093:4182   */\n      tag_188\n      jump\t// in\n    tag_187:\n        /* \"#utility.yul\":4086:4182   */\n      swap4\n      pop\n        /* \"#utility.yul\":4191:4243   */\n      tag_189\n        /* \"#utility.yul\":4236:4242   */\n      dup2\n        /* \"#utility.yul\":4231:4234   */\n      dup6\n        /* \"#utility.yul\":4224:4228   */\n      0x20\n        /* \"#utility.yul\":4217:4222   */\n      dup7\n        /* \"#utility.yul\":4213:4229   */\n      add\n        /* \"#utility.yul\":4191:4243   */\n      tag_174\n      jump\t// in\n    tag_189:\n        /* \"#utility.yul\":4268:4274   */\n      dup1\n        /* \"#utility.yul\":4263:4266   */\n      dup5\n        /* \"#utility.yul\":4259:4275   */\n      add\n        /* \"#utility.yul\":4252:4275   */\n      swap2\n      pop\n        /* \"#utility.yul\":4014:4281   */\n      pop\n        /* \"#utility.yul\":3904:4281   */\n      swap3\n      swap2\n      pop\n      pop\n      jump\t// out\n        /* \"#utility.yul\":4287:4652   */\n    tag_190:\n        /* \"#utility.yul\":4429:4432   */\n      0x00\n        /* \"#utility.yul\":4450:4516   */\n      tag_192\n        /* \"#utility.yul\":4514:4515   */\n      0x07\n        /* \"#utility.yul\":4509:4512   */\n      dup4\n        /* \"#utility.yul\":4450:4516   */\n      tag_181\n      jump\t// in\n    tag_192:\n        /* \"#utility.yul\":4443:4516   */\n      swap2\n      pop\n        /* \"#utility.yul\":4525:4618   */\n      tag_193\n        /* \"#utility.yul\":4614:4617   */\n      dup3\n        /* \"#utility.yul\":4525:4618   */\n      tag_194\n      jump\t// in\n    tag_193:\n        /* \"#utility.yul\":4643:4645   */\n      0x20\n        /* \"#utility.yul\":4638:4641   */\n      dup3\n        /* \"#utility.yul\":4634:4646   */\n      add\n        /* \"#utility.yul\":4627:4646   */\n      swap1\n      pop\n        /* \"#utility.yul\":4287:4652   */\n      swap2\n      swap1\n      pop\n      jump\t// out\n        /* \"#utility.yul\":4718:5830   */\n    tag_195:\n        /* \"#utility.yul\":4841:4844   */\n      0x00\n        /* \"#utility.yul\":4877:4881   */\n      0x80\n        /* \"#utility.yul\":4872:4875   */\n      dup4\n        /* \"#utility.yul\":4868:4882   */\n      add\n        /* \"#utility.yul\":4970:4974   */\n      0x00\n        /* \"#utility.yul\":4963:4968   */\n      dup4\n        /* \"#utility.yul\":4959:4975   */\n      add\n        /* \"#utility.yul\":4953:4976   */\n      mload\n        /* \"#utility.yul\":5023:5026   */\n      dup5\n        /* \"#utility.yul\":5017:5021   */\n      dup3\n        /* \"#utility.yul\":5013:5027   */\n      sub\n        /* \"#utility.yul\":5006:5010   */\n      0x00\n        /* \"#utility.yul\":5001:5004   */\n      dup7\n        /* \"#utility.yul\":4997:5011   */\n      add\n        /* \"#utility.yul\":4990:5028   */\n      mstore\n        /* \"#utility.yul\":5049:5122   */\n      tag_197\n        /* \"#utility.yul\":5117:5121   */\n      dup3\n        /* \"#utility.yul\":5103:5115   */\n      dup3\n        /* \"#utility.yul\":5049:5122   */\n      tag_167\n      jump\t// in\n    tag_197:\n        /* \"#utility.yul\":5041:5122   */\n      swap2\n      pop\n        /* \"#utility.yul\":4892:5133   */\n      pop\n        /* \"#utility.yul\":5215:5219   */\n      0x20\n        /* \"#utility.yul\":5208:5213   */\n      dup4\n        /* \"#utility.yul\":5204:5220   */\n      add\n        /* \"#utility.yul\":5198:5221   */\n      mload\n        /* \"#utility.yul\":5268:5271   */\n      dup5\n        /* \"#utility.yul\":5262:5266   */\n      dup3\n        /* \"#utility.yul\":5258:5272   */\n      sub\n        /* \"#utility.yul\":5251:5255   */\n      0x20\n        /* \"#utility.yul\":5246:5249   */\n      dup7\n        /* \"#utility.yul\":5242:5256   */\n      add\n        /* \"#utility.yul\":5235:5273   */\n      mstore\n        /* \"#utility.yul\":5294:5367   */\n      tag_198\n        /* \"#utility.yul\":5362:5366   */\n      dup3\n        /* \"#utility.yul\":5348:5360   */\n      dup3\n        /* \"#utility.yul\":5294:5367   */\n      tag_167\n      jump\t// in\n    tag_198:\n        /* \"#utility.yul\":5286:5367   */\n      swap2\n      pop\n        /* \"#utility.yul\":5143:5378   */\n      pop\n        /* \"#utility.yul\":5460:5464   */\n      0x40\n        /* \"#utility.yul\":5453:5458   */\n      dup4\n        /* \"#utility.yul\":5449:5465   */\n      add\n        /* \"#utility.yul\":5443:5466   */\n      mload\n        /* \"#utility.yul\":5513:5516   */\n      dup5\n        /* \"#utility.yul\":5507:5511   */\n      dup3\n        /* \"#utility.yul\":5503:5517   */\n      sub\n        /* \"#utility.yul\":5496:5500   */\n      0x40\n        /* \"#utility.yul\":5491:5494   */\n      dup7\n        /* \"#utility.yul\":5487:5501   */\n      add\n        /* \"#utility.yul\":5480:5518   */\n      mstore\n        /* \"#utility.yul\":5539:5612   */\n      tag_199\n        /* \"#utility.yul\":5607:5611   */\n      dup3\n        /* \"#utility.yul\":5593:5605   */\n      dup3\n        /* \"#utility.yul\":5539:5612   */\n      tag_167\n      jump\t// in\n    tag_199:\n        /* \"#utility.yul\":5531:5612   */\n      swap2\n      pop\n        /* \"#utility.yul\":5388:5623   */\n      pop\n        /* \"#utility.yul\":5711:5715   */\n      0x60\n        /* \"#utility.yul\":5704:5709   */\n      dup4\n        /* \"#utility.yul\":5700:5716   */\n      add\n        /* \"#utility.yul\":5694:5717   */\n      mload\n        /* \"#utility.yul\":5730:5793   */\n      tag_200\n        /* \"#utility.yul\":5787:5791   */\n      0x60\n        /* \"#utility.yul\":5782:5785   */\n      dup7\n        /* \"#utility.yul\":5778:5792   */\n      add\n        /* \"#utility.yul\":5764:5776   */\n      dup3\n        /* \"#utility.yul\":5730:5793   */\n      tag_201\n      jump\t// in\n    tag_200:\n        /* \"#utility.yul\":5633:5803   */\n      pop\n        /* \"#utility.yul\":5820:5824   */\n      dup1\n        /* \"#utility.yul\":5813:5824   */\n      swap2\n      pop\n        /* \"#utility.yul\":4846:5830   */\n      pop\n        /* \"#utility.yul\":4718:5830   */\n      swap3\n      swap2\n      pop\n      pop\n      jump\t// out\n        /* \"#utility.yul\":5836:5944   */\n    tag_201:\n        /* \"#utility.yul\":5913:5937   */\n      tag_203\n        /* \"#utility.yul\":5931:5936   */\n      dup2\n        /* \"#utility.yul\":5913:5937   */\n      tag_204\n      jump\t// in\n    tag_203:\n        /* \"#utility.yul\":5908:5911   */\n      dup3\n        /* \"#utility.yul\":5901:5938   */\n      mstore\n        /* \"#utility.yul\":5836:5944   */\n      pop\n      pop\n      jump\t// out\n        /* \"#utility.yul\":5950:6068   */\n    tag_205:\n        /* \"#utility.yul\":6037:6061   */\n      tag_207\n        /* \"#utility.yul\":6055:6060   */\n      dup2\n        /* \"#utility.yul\":6037:6061   */\n      tag_204\n      jump\t// in\n    tag_207:\n        /* \"#utility.yul\":6032:6035   */\n      dup3\n        /* \"#utility.yul\":6025:6062   */\n      mstore\n        /* \"#utility.yul\":5950:6068   */\n      pop\n      pop\n      jump\t// out\n        /* \"#utility.yul\":6074:6349   */\n    tag_96:\n        /* \"#utility.yul\":6206:6209   */\n      0x00\n        /* \"#utility.yul\":6228:6323   */\n      tag_209\n        /* \"#utility.yul\":6319:6322   */\n      dup3\n        /* \"#utility.yul\":6310:6316   */\n      dup5\n        /* \"#utility.yul\":6228:6323   */\n      tag_184\n      jump\t// in\n    tag_209:\n        /* \"#utility.yul\":6221:6323   */\n      swap2\n      pop\n        /* \"#utility.yul\":6340:6343   */\n      dup2\n        /* \"#utility.yul\":6333:6343   */\n      swap1\n      pop\n        /* \"#utility.yul\":6074:6349   */\n      swap3\n      swap2\n      pop\n      pop\n      jump\t// out\n        /* \"#utility.yul\":6355:6577   */\n    tag_29:\n        /* \"#utility.yul\":6448:6452   */\n      0x00\n        /* \"#utility.yul\":6486:6488   */\n      0x20\n        /* \"#utility.yul\":6475:6484   */\n      dup3\n        /* \"#utility.yul\":6471:6489   */\n      add\n        /* \"#utility.yul\":6463:6489   */\n      swap1\n      pop\n        /* \"#utility.yul\":6499:6570   */\n      tag_211\n        /* \"#utility.yul\":6567:6568   */\n      0x00\n        /* \"#utility.yul\":6556:6565   */\n      dup4\n        /* \"#utility.yul\":6552:6569   */\n      add\n        /* \"#utility.yul\":6543:6549   */\n      dup5\n        /* \"#utility.yul\":6499:6570   */\n      tag_163\n      jump\t// in\n    tag_211:\n        /* \"#utility.yul\":6355:6577   */\n      swap3\n      swap2\n      pop\n      pop\n      jump\t// out\n        /* \"#utility.yul\":6583:8823   */\n    tag_18:\n        /* \"#utility.yul\":7154:7158   */\n      0x00\n        /* \"#utility.yul\":7192:7195   */\n      0x0180\n        /* \"#utility.yul\":7181:7190   */\n      dup3\n        /* \"#utility.yul\":7177:7196   */\n      add\n        /* \"#utility.yul\":7169:7196   */\n      swap1\n      pop\n        /* \"#utility.yul\":7242:7251   */\n      dup2\n        /* \"#utility.yul\":7236:7240   */\n      dup2\n        /* \"#utility.yul\":7232:7252   */\n      sub\n        /* \"#utility.yul\":7228:7229   */\n      0x00\n        /* \"#utility.yul\":7217:7226   */\n      dup4\n        /* \"#utility.yul\":7213:7230   */\n      add\n        /* \"#utility.yul\":7206:7253   */\n      mstore\n        /* \"#utility.yul\":7270:7348   */\n      tag_213\n        /* \"#utility.yul\":7343:7347   */\n      dup2\n        /* \"#utility.yul\":7334:7340   */\n      dup16\n        /* \"#utility.yul\":7270:7348   */\n      tag_177\n      jump\t// in\n    tag_213:\n        /* \"#utility.yul\":7262:7348   */\n      swap1\n      pop\n        /* \"#utility.yul\":7358:7424   */\n      tag_214\n        /* \"#utility.yul\":7420:7422   */\n      0x20\n        /* \"#utility.yul\":7409:7418   */\n      dup4\n        /* \"#utility.yul\":7405:7423   */\n      add\n        /* \"#utility.yul\":7396:7402   */\n      dup15\n        /* \"#utility.yul\":7358:7424   */\n      tag_159\n      jump\t// in\n    tag_214:\n        /* \"#utility.yul\":7434:7506   */\n      tag_215\n        /* \"#utility.yul\":7502:7504   */\n      0x40\n        /* \"#utility.yul\":7491:7500   */\n      dup4\n        /* \"#utility.yul\":7487:7505   */\n      add\n        /* \"#utility.yul\":7478:7484   */\n      dup14\n        /* \"#utility.yul\":7434:7506   */\n      tag_205\n      jump\t// in\n    tag_215:\n        /* \"#utility.yul\":7553:7562   */\n      dup2\n        /* \"#utility.yul\":7547:7551   */\n      dup2\n        /* \"#utility.yul\":7543:7563   */\n      sub\n        /* \"#utility.yul\":7538:7540   */\n      0x60\n        /* \"#utility.yul\":7527:7536   */\n      dup4\n        /* \"#utility.yul\":7523:7541   */\n      add\n        /* \"#utility.yul\":7516:7564   */\n      mstore\n        /* \"#utility.yul\":7581:7659   */\n      tag_216\n        /* \"#utility.yul\":7654:7658   */\n      dup2\n        /* \"#utility.yul\":7645:7651   */\n      dup13\n        /* \"#utility.yul\":7581:7659   */\n      tag_177\n      jump\t// in\n    tag_216:\n        /* \"#utility.yul\":7573:7659   */\n      swap1\n      pop\n        /* \"#utility.yul\":7707:7716   */\n      dup2\n        /* \"#utility.yul\":7701:7705   */\n      dup2\n        /* \"#utility.yul\":7697:7717   */\n      sub\n        /* \"#utility.yul\":7691:7694   */\n      0x80\n        /* \"#utility.yul\":7680:7689   */\n      dup4\n        /* \"#utility.yul\":7676:7695   */\n      add\n        /* \"#utility.yul\":7669:7718   */\n      mstore\n        /* \"#utility.yul\":7735:7813   */\n      tag_217\n        /* \"#utility.yul\":7808:7812   */\n      dup2\n        /* \"#utility.yul\":7799:7805   */\n      dup12\n        /* \"#utility.yul\":7735:7813   */\n      tag_177\n      jump\t// in\n    tag_217:\n        /* \"#utility.yul\":7727:7813   */\n      swap1\n      pop\n        /* \"#utility.yul\":7861:7870   */\n      dup2\n        /* \"#utility.yul\":7855:7859   */\n      dup2\n        /* \"#utility.yul\":7851:7871   */\n      sub\n        /* \"#utility.yul\":7845:7848   */\n      0xa0\n        /* \"#utility.yul\":7834:7843   */\n      dup4\n        /* \"#utility.yul\":7830:7849   */\n      add\n        /* \"#utility.yul\":7823:7872   */\n      mstore\n        /* \"#utility.yul\":7889:7967   */\n      tag_218\n        /* \"#utility.yul\":7962:7966   */\n      dup2\n        /* \"#utility.yul\":7953:7959   */\n      dup11\n        /* \"#utility.yul\":7889:7967   */\n      tag_177\n      jump\t// in\n    tag_218:\n        /* \"#utility.yul\":7881:7967   */\n      swap1\n      pop\n        /* \"#utility.yul\":8015:8024   */\n      dup2\n        /* \"#utility.yul\":8009:8013   */\n      dup2\n        /* \"#utility.yul\":8005:8025   */\n      sub\n        /* \"#utility.yul\":7999:8002   */\n      0xc0\n        /* \"#utility.yul\":7988:7997   */\n      dup4\n        /* \"#utility.yul\":7984:8003   */\n      add\n        /* \"#utility.yul\":7977:8026   */\n      mstore\n        /* \"#utility.yul\":8043:8121   */\n      tag_219\n        /* \"#utility.yul\":8116:8120   */\n      dup2\n        /* \"#utility.yul\":8107:8113   */\n      dup10\n        /* \"#utility.yul\":8043:8121   */\n      tag_177\n      jump\t// in\n    tag_219:\n        /* \"#utility.yul\":8035:8121   */\n      swap1\n      pop\n        /* \"#utility.yul\":8169:8178   */\n      dup2\n        /* \"#utility.yul\":8163:8167   */\n      dup2\n        /* \"#utility.yul\":8159:8179   */\n      sub\n        /* \"#utility.yul\":8153:8156   */\n      0xe0\n        /* \"#utility.yul\":8142:8151   */\n      dup4\n        /* \"#utility.yul\":8138:8157   */\n      add\n        /* \"#utility.yul\":8131:8180   */\n      mstore\n        /* \"#utility.yul\":8197:8275   */\n      tag_220\n        /* \"#utility.yul\":8270:8274   */\n      dup2\n        /* \"#utility.yul\":8261:8267   */\n      dup9\n        /* \"#utility.yul\":8197:8275   */\n      tag_177\n      jump\t// in\n    tag_220:\n        /* \"#utility.yul\":8189:8275   */\n      swap1\n      pop\n        /* \"#utility.yul\":8323:8332   */\n      dup2\n        /* \"#utility.yul\":8317:8321   */\n      dup2\n        /* \"#utility.yul\":8313:8333   */\n      sub\n        /* \"#utility.yul\":8307:8310   */\n      0x0100\n        /* \"#utility.yul\":8296:8305   */\n      dup4\n        /* \"#utility.yul\":8292:8311   */\n      add\n        /* \"#utility.yul\":8285:8334   */\n      mstore\n        /* \"#utility.yul\":8351:8429   */\n      tag_221\n        /* \"#utility.yul\":8424:8428   */\n      dup2\n        /* \"#utility.yul\":8415:8421   */\n      dup8\n        /* \"#utility.yul\":8351:8429   */\n      tag_177\n      jump\t// in\n    tag_221:\n        /* \"#utility.yul\":8343:8429   */\n      swap1\n      pop\n        /* \"#utility.yul\":8477:8486   */\n      dup2\n        /* \"#utility.yul\":8471:8475   */\n      dup2\n        /* \"#utility.yul\":8467:8487   */\n      sub\n        /* \"#utility.yul\":8461:8464   */\n      0x0120\n        /* \"#utility.yul\":8450:8459   */\n      dup4\n        /* \"#utility.yul\":8446:8465   */\n      add\n        /* \"#utility.yul\":8439:8488   */\n      mstore\n        /* \"#utility.yul\":8505:8583   */\n      tag_222\n        /* \"#utility.yul\":8578:8582   */\n      dup2\n        /* \"#utility.yul\":8569:8575   */\n      dup7\n        /* \"#utility.yul\":8505:8583   */\n      tag_177\n      jump\t// in\n    tag_222:\n        /* \"#utility.yul\":8497:8583   */\n      swap1\n      pop\n        /* \"#utility.yul\":8593:8661   */\n      tag_223\n        /* \"#utility.yul\":8656:8659   */\n      0x0140\n        /* \"#utility.yul\":8645:8654   */\n      dup4\n        /* \"#utility.yul\":8641:8660   */\n      add\n        /* \"#utility.yul\":8631:8638   */\n      dup6\n        /* \"#utility.yul\":8593:8661   */\n      tag_159\n      jump\t// in\n    tag_223:\n        /* \"#utility.yul\":8709:8718   */\n      dup2\n        /* \"#utility.yul\":8703:8707   */\n      dup2\n        /* \"#utility.yul\":8699:8719   */\n      sub\n        /* \"#utility.yul\":8693:8696   */\n      0x0160\n        /* \"#utility.yul\":8682:8691   */\n      dup4\n        /* \"#utility.yul\":8678:8697   */\n      add\n        /* \"#utility.yul\":8671:8720   */\n      mstore\n        /* \"#utility.yul\":8737:8816   */\n      tag_224\n        /* \"#utility.yul\":8811:8815   */\n      dup2\n        /* \"#utility.yul\":8801:8808   */\n      dup5\n        /* \"#utility.yul\":8737:8816   */\n      tag_177\n      jump\t// in\n    tag_224:\n        /* \"#utility.yul\":8729:8816   */\n      swap1\n      pop\n        /* \"#utility.yul\":6583:8823   */\n      swap14\n      swap13\n      pop\n      pop\n      pop\n      pop\n      pop\n      pop\n      pop\n      pop\n      pop\n      pop\n      pop\n      pop\n      pop\n      jump\t// out\n        /* \"#utility.yul\":8829:9655   */\n    tag_23:\n        /* \"#utility.yul\":9066:9070   */\n      0x00\n        /* \"#utility.yul\":9104:9107   */\n      0x80\n        /* \"#utility.yul\":9093:9102   */\n      dup3\n        /* \"#utility.yul\":9089:9108   */\n      add\n        /* \"#utility.yul\":9081:9108   */\n      swap1\n      pop\n        /* \"#utility.yul\":9154:9163   */\n      dup2\n        /* \"#utility.yul\":9148:9152   */\n      dup2\n        /* \"#utility.yul\":9144:9164   */\n      sub\n        /* \"#utility.yul\":9140:9141   */\n      0x00\n        /* \"#utility.yul\":9129:9138   */\n      dup4\n        /* \"#utility.yul\":9125:9142   */\n      add\n        /* \"#utility.yul\":9118:9165   */\n      mstore\n        /* \"#utility.yul\":9182:9260   */\n      tag_226\n        /* \"#utility.yul\":9255:9259   */\n      dup2\n        /* \"#utility.yul\":9246:9252   */\n      dup8\n        /* \"#utility.yul\":9182:9260   */\n      tag_177\n      jump\t// in\n    tag_226:\n        /* \"#utility.yul\":9174:9260   */\n      swap1\n      pop\n        /* \"#utility.yul\":9307:9316   */\n      dup2\n        /* \"#utility.yul\":9301:9305   */\n      dup2\n        /* \"#utility.yul\":9297:9317   */\n      sub\n        /* \"#utility.yul\":9292:9294   */\n      0x20\n        /* \"#utility.yul\":9281:9290   */\n      dup4\n        /* \"#utility.yul\":9277:9295   */\n      add\n        /* \"#utility.yul\":9270:9318   */\n      mstore\n        /* \"#utility.yul\":9335:9413   */\n      tag_227\n        /* \"#utility.yul\":9408:9412   */\n      dup2\n        /* \"#utility.yul\":9399:9405   */\n      dup7\n        /* \"#utility.yul\":9335:9413   */\n      tag_177\n      jump\t// in\n    tag_227:\n        /* \"#utility.yul\":9327:9413   */\n      swap1\n      pop\n        /* \"#utility.yul\":9460:9469   */\n      dup2\n        /* \"#utility.yul\":9454:9458   */\n      dup2\n        /* \"#utility.yul\":9450:9470   */\n      sub\n        /* \"#utility.yul\":9445:9447   */\n      0x40\n        /* \"#utility.yul\":9434:9443   */\n      dup4\n        /* \"#utility.yul\":9430:9448   */\n      add\n        /* \"#utility.yul\":9423:9471   */\n      mstore\n        /* \"#utility.yul\":9488:9566   */\n      tag_228\n        /* \"#utility.yul\":9561:9565   */\n      dup2\n        /* \"#utility.yul\":9552:9558   */\n      dup6\n        /* \"#utility.yul\":9488:9566   */\n      tag_177\n      jump\t// in\n    tag_228:\n        /* \"#utility.yul\":9480:9566   */\n      swap1\n      pop\n        /* \"#utility.yul\":9576:9648   */\n      tag_229\n        /* \"#utility.yul\":9644:9646   */\n      0x60\n        /* \"#utility.yul\":9633:9642   */\n      dup4\n        /* \"#utility.yul\":9629:9647   */\n      add\n        /* \"#utility.yul\":9620:9626   */\n      dup5\n        /* \"#utility.yul\":9576:9648   */\n      tag_205\n      jump\t// in\n    tag_229:\n        /* \"#utility.yul\":8829:9655   */\n      swap6\n      swap5\n      pop\n      pop\n      pop\n      pop\n      pop\n      jump\t// out\n        /* \"#utility.yul\":9661:10190   */\n    tag_102:\n        /* \"#utility.yul\":9855:9859   */\n      0x00\n        /* \"#utility.yul\":9893:9895   */\n      0x40\n        /* \"#utility.yul\":9882:9891   */\n      dup3\n        /* \"#utility.yul\":9878:9896   */\n      add\n        /* \"#utility.yul\":9870:9896   */\n      swap1\n      pop\n        /* \"#utility.yul\":9942:9951   */\n      dup2\n        /* \"#utility.yul\":9936:9940   */\n      dup2\n        /* \"#utility.yul\":9932:9952   */\n      sub\n        /* \"#utility.yul\":9928:9929   */\n      0x00\n        /* \"#utility.yul\":9917:9926   */\n      dup4\n        /* \"#utility.yul\":9913:9930   */\n      add\n        /* \"#utility.yul\":9906:9953   */\n      mstore\n        /* \"#utility.yul\":9970:10101   */\n      tag_231\n        /* \"#utility.yul\":10096:10100   */\n      dup2\n        /* \"#utility.yul\":9970:10101   */\n      tag_190\n      jump\t// in\n    tag_231:\n        /* \"#utility.yul\":9962:10101   */\n      swap1\n      pop\n        /* \"#utility.yul\":10111:10183   */\n      tag_232\n        /* \"#utility.yul\":10179:10181   */\n      0x20\n        /* \"#utility.yul\":10168:10177   */\n      dup4\n        /* \"#utility.yul\":10164:10182   */\n      add\n        /* \"#utility.yul\":10155:10161   */\n      dup5\n        /* \"#utility.yul\":10111:10183   */\n      tag_163\n      jump\t// in\n    tag_232:\n        /* \"#utility.yul\":9661:10190   */\n      swap3\n      swap2\n      pop\n      pop\n      jump\t// out\n        /* \"#utility.yul\":10196:10577   */\n    tag_12:\n        /* \"#utility.yul\":10343:10347   */\n      0x00\n        /* \"#utility.yul\":10381:10383   */\n      0x20\n        /* \"#utility.yul\":10370:10379   */\n      dup3\n        /* \"#utility.yul\":10366:10384   */\n      add\n        /* \"#utility.yul\":10358:10384   */\n      swap1\n      pop\n        /* \"#utility.yul\":10430:10439   */\n      dup2\n        /* \"#utility.yul\":10424:10428   */\n      dup2\n        /* \"#utility.yul\":10420:10440   */\n      sub\n        /* \"#utility.yul\":10416:10417   */\n      0x00\n        /* \"#utility.yul\":10405:10414   */\n      dup4\n        /* \"#utility.yul\":10401:10418   */\n      add\n        /* \"#utility.yul\":10394:10441   */\n      mstore\n        /* \"#utility.yul\":10458:10570   */\n      tag_234\n        /* \"#utility.yul\":10565:10569   */\n      dup2\n        /* \"#utility.yul\":10556:10562   */\n      dup5\n        /* \"#utility.yul\":10458:10570   */\n      tag_195\n      jump\t// in\n    tag_234:\n        /* \"#utility.yul\":10450:10570   */\n      swap1\n      pop\n        /* \"#utility.yul\":10196:10577   */\n      swap3\n      swap2\n      pop\n      pop\n      jump\t// out\n        /* \"#utility.yul\":10583:10712   */\n    tag_119:\n        /* \"#utility.yul\":10617:10623   */\n      0x00\n        /* \"#utility.yul\":10644:10664   */\n      tag_236\n      tag_237\n      jump\t// in\n    tag_236:\n        /* \"#utility.yul\":10634:10664   */\n      swap1\n      pop\n        /* \"#utility.yul\":10673:10706   */\n      tag_238\n        /* \"#utility.yul\":10701:10705   */\n      dup3\n        /* \"#utility.yul\":10693:10699   */\n      dup3\n        /* \"#utility.yul\":10673:10706   */\n      tag_239\n      jump\t// in\n    tag_238:\n        /* \"#utility.yul\":10583:10712   */\n      swap2\n      swap1\n      pop\n      jump\t// out\n        /* \"#utility.yul\":10718:10793   */\n    tag_237:\n        /* \"#utility.yul\":10751:10757   */\n      0x00\n        /* \"#utility.yul\":10784:10786   */\n      0x40\n        /* \"#utility.yul\":10778:10787   */\n      mload\n        /* \"#utility.yul\":10768:10787   */\n      swap1\n      pop\n        /* \"#utility.yul\":10718:10793   */\n      swap1\n      jump\t// out\n        /* \"#utility.yul\":10799:11107   */\n    tag_118:\n        /* \"#utility.yul\":10861:10865   */\n      0x00\n        /* \"#utility.yul\":10951:10969   */\n      0xffffffffffffffff\n        /* \"#utility.yul\":10943:10949   */\n      dup3\n        /* \"#utility.yul\":10940:10970   */\n      gt\n        /* \"#utility.yul\":10937:10993   */\n      iszero\n      tag_242\n      jumpi\n        /* \"#utility.yul\":10973:10991   */\n      tag_243\n      tag_244\n      jump\t// in\n    tag_243:\n        /* \"#utility.yul\":10937:10993   */\n    tag_242:\n        /* \"#utility.yul\":11011:11040   */\n      tag_245\n        /* \"#utility.yul\":11033:11039   */\n      dup3\n        /* \"#utility.yul\":11011:11040   */\n      tag_176\n      jump\t// in\n    tag_245:\n        /* \"#utility.yul\":11003:11040   */\n      swap1\n      pop\n        /* \"#utility.yul\":11095:11099   */\n      0x20\n        /* \"#utility.yul\":11089:11093   */\n      dup2\n        /* \"#utility.yul\":11085:11100   */\n      add\n        /* \"#utility.yul\":11077:11100   */\n      swap1\n      pop\n        /* \"#utility.yul\":10799:11107   */\n      swap2\n      swap1\n      pop\n      jump\t// out\n        /* \"#utility.yul\":11113:11212   */\n    tag_170:\n        /* \"#utility.yul\":11165:11171   */\n      0x00\n        /* \"#utility.yul\":11199:11204   */\n      dup2\n        /* \"#utility.yul\":11193:11205   */\n      mload\n        /* \"#utility.yul\":11183:11205   */\n      swap1\n      pop\n        /* \"#utility.yul\":11113:11212   */\n      swap2\n      swap1\n      pop\n      jump\t// out\n        /* \"#utility.yul\":11218:11377   */\n    tag_172:\n        /* \"#utility.yul\":11292:11303   */\n      0x00\n        /* \"#utility.yul\":11326:11332   */\n      dup3\n        /* \"#utility.yul\":11321:11324   */\n      dup3\n        /* \"#utility.yul\":11314:11333   */\n      mstore\n        /* \"#utility.yul\":11366:11370   */\n      0x20\n        /* \"#utility.yul\":11361:11364   */\n      dup3\n        /* \"#utility.yul\":11357:11371   */\n      add\n        /* \"#utility.yul\":11342:11371   */\n      swap1\n      pop\n        /* \"#utility.yul\":11218:11377   */\n      swap3\n      swap2\n      pop\n      pop\n      jump\t// out\n        /* \"#utility.yul\":11383:11552   */\n    tag_181:\n        /* \"#utility.yul\":11467:11478   */\n      0x00\n        /* \"#utility.yul\":11501:11507   */\n      dup3\n        /* \"#utility.yul\":11496:11499   */\n      dup3\n        /* \"#utility.yul\":11489:11508   */\n      mstore\n        /* \"#utility.yul\":11541:11545   */\n      0x20\n        /* \"#utility.yul\":11536:11539   */\n      dup3\n        /* \"#utility.yul\":11532:11546   */\n      add\n        /* \"#utility.yul\":11517:11546   */\n      swap1\n      pop\n        /* \"#utility.yul\":11383:11552   */\n      swap3\n      swap2\n      pop\n      pop\n      jump\t// out\n        /* \"#utility.yul\":11558:11706   */\n    tag_188:\n        /* \"#utility.yul\":11660:11671   */\n      0x00\n        /* \"#utility.yul\":11697:11700   */\n      dup2\n        /* \"#utility.yul\":11682:11700   */\n      swap1\n      pop\n        /* \"#utility.yul\":11558:11706   */\n      swap3\n      swap2\n      pop\n      pop\n      jump\t// out\n        /* \"#utility.yul\":11712:11802   */\n    tag_162:\n        /* \"#utility.yul\":11746:11753   */\n      0x00\n        /* \"#utility.yul\":11789:11794   */\n      dup2\n        /* \"#utility.yul\":11782:11795   */\n      iszero\n        /* \"#utility.yul\":11775:11796   */\n      iszero\n        /* \"#utility.yul\":11764:11796   */\n      swap1\n      pop\n        /* \"#utility.yul\":11712:11802   */\n      swap2\n      swap1\n      pop\n      jump\t// out\n        /* \"#utility.yul\":11808:11885   */\n    tag_166:\n        /* \"#utility.yul\":11845:11852   */\n      0x00\n        /* \"#utility.yul\":11874:11879   */\n      dup2\n        /* \"#utility.yul\":11863:11879   */\n      swap1\n      pop\n        /* \"#utility.yul\":11808:11885   */\n      swap2\n      swap1\n      pop\n      jump\t// out\n        /* \"#utility.yul\":11891:11968   */\n    tag_204:\n        /* \"#utility.yul\":11928:11935   */\n      0x00\n        /* \"#utility.yul\":11957:11962   */\n      dup2\n        /* \"#utility.yul\":11946:11962   */\n      swap1\n      pop\n        /* \"#utility.yul\":11891:11968   */\n      swap2\n      swap1\n      pop\n      jump\t// out\n        /* \"#utility.yul\":11974:12128   */\n    tag_124:\n        /* \"#utility.yul\":12058:12064   */\n      dup3\n        /* \"#utility.yul\":12053:12056   */\n      dup2\n        /* \"#utility.yul\":12048:12051   */\n      dup4\n        /* \"#utility.yul\":12035:12065   */\n      calldatacopy\n        /* \"#utility.yul\":12120:12121   */\n      0x00\n        /* \"#utility.yul\":12111:12117   */\n      dup4\n        /* \"#utility.yul\":12106:12109   */\n      dup4\n        /* \"#utility.yul\":12102:12118   */\n      add\n        /* \"#utility.yul\":12095:12122   */\n      mstore\n        /* \"#utility.yul\":11974:12128   */\n      pop\n      pop\n      pop\n      jump\t// out\n        /* \"#utility.yul\":12134:12441   */\n    tag_174:\n        /* \"#utility.yul\":12202:12203   */\n      0x00\n        /* \"#utility.yul\":12212:12325   */\n    tag_255:\n        /* \"#utility.yul\":12226:12232   */\n      dup4\n        /* \"#utility.yul\":12223:12224   */\n      dup2\n        /* \"#utility.yul\":12220:12233   */\n      lt\n        /* \"#utility.yul\":12212:12325   */\n      iszero\n      tag_257\n      jumpi\n        /* \"#utility.yul\":12311:12312   */\n      dup1\n        /* \"#utility.yul\":12306:12309   */\n      dup3\n        /* \"#utility.yul\":12302:12313   */\n      add\n        /* \"#utility.yul\":12296:12314   */\n      mload\n        /* \"#utility.yul\":12292:12293   */\n      dup2\n        /* \"#utility.yul\":12287:12290   */\n      dup5\n        /* \"#utility.yul\":12283:12294   */\n      add\n        /* \"#utility.yul\":12276:12315   */\n      mstore\n        /* \"#utility.yul\":12248:12250   */\n      0x20\n        /* \"#utility.yul\":12245:12246   */\n      dup2\n        /* \"#utility.yul\":12241:12251   */\n      add\n        /* \"#utility.yul\":12236:12251   */\n      swap1\n      pop\n        /* \"#utility.yul\":12212:12325   */\n      jump(tag_255)\n    tag_257:\n        /* \"#utility.yul\":12343:12349   */\n      dup4\n        /* \"#utility.yul\":12340:12341   */\n      dup2\n        /* \"#utility.yul\":12337:12350   */\n      gt\n        /* \"#utility.yul\":12334:12435   */\n      iszero\n      tag_258\n      jumpi\n        /* \"#utility.yul\":12423:12424   */\n      0x00\n        /* \"#utility.yul\":12414:12420   */\n      dup5\n        /* \"#utility.yul\":12409:12412   */\n      dup5\n        /* \"#utility.yul\":12405:12421   */\n      add\n        /* \"#utility.yul\":12398:12425   */\n      mstore\n        /* \"#utility.yul\":12334:12435   */\n    tag_258:\n        /* \"#utility.yul\":12183:12441   */\n      pop\n        /* \"#utility.yul\":12134:12441   */\n      pop\n      pop\n      pop\n      jump\t// out\n        /* \"#utility.yul\":12447:12767   */\n    tag_34:\n        /* \"#utility.yul\":12491:12497   */\n      0x00\n        /* \"#utility.yul\":12528:12529   */\n      0x02\n        /* \"#utility.yul\":12522:12526   */\n      dup3\n        /* \"#utility.yul\":12518:12530   */\n      div\n        /* \"#utility.yul\":12508:12530   */\n      swap1\n      pop\n        /* \"#utility.yul\":12575:12576   */\n      0x01\n        /* \"#utility.yul\":12569:12573   */\n      dup3\n        /* \"#utility.yul\":12565:12577   */\n      and\n        /* \"#utility.yul\":12596:12614   */\n      dup1\n        /* \"#utility.yul\":12586:12667   */\n      tag_260\n      jumpi\n        /* \"#utility.yul\":12652:12656   */\n      0x7f\n        /* \"#utility.yul\":12644:12650   */\n      dup3\n        /* \"#utility.yul\":12640:12657   */\n      and\n        /* \"#utility.yul\":12630:12657   */\n      swap2\n      pop\n        /* \"#utility.yul\":12586:12667   */\n    tag_260:\n        /* \"#utility.yul\":12714:12716   */\n      0x20\n        /* \"#utility.yul\":12706:12712   */\n      dup3\n        /* \"#utility.yul\":12703:12717   */\n      lt\n        /* \"#utility.yul\":12683:12701   */\n      dup2\n        /* \"#utility.yul\":12680:12718   */\n      eq\n        /* \"#utility.yul\":12677:12761   */\n      iszero\n      tag_261\n      jumpi\n        /* \"#utility.yul\":12733:12751   */\n      tag_262\n      tag_263\n      jump\t// in\n    tag_262:\n        /* \"#utility.yul\":12677:12761   */\n    tag_261:\n        /* \"#utility.yul\":12498:12767   */\n      pop\n        /* \"#utility.yul\":12447:12767   */\n      swap2\n      swap1\n      pop\n      jump\t// out\n        /* \"#utility.yul\":12773:13054   */\n    tag_239:\n        /* \"#utility.yul\":12856:12883   */\n      tag_265\n        /* \"#utility.yul\":12878:12882   */\n      dup3\n        /* \"#utility.yul\":12856:12883   */\n      tag_176\n      jump\t// in\n    tag_265:\n        /* \"#utility.yul\":12848:12854   */\n      dup2\n        /* \"#utility.yul\":12844:12884   */\n      add\n        /* \"#utility.yul\":12986:12992   */\n      dup2\n        /* \"#utility.yul\":12974:12984   */\n      dup2\n        /* \"#utility.yul\":12971:12993   */\n      lt\n        /* \"#utility.yul\":12950:12968   */\n      0xffffffffffffffff\n        /* \"#utility.yul\":12938:12948   */\n      dup3\n        /* \"#utility.yul\":12935:12969   */\n      gt\n        /* \"#utility.yul\":12932:12994   */\n      or\n        /* \"#utility.yul\":12929:13017   */\n      iszero\n      tag_266\n      jumpi\n        /* \"#utility.yul\":12997:13015   */\n      tag_267\n      tag_244\n      jump\t// in\n    tag_267:\n        /* \"#utility.yul\":12929:13017   */\n    tag_266:\n        /* \"#utility.yul\":13037:13047   */\n      dup1\n        /* \"#utility.yul\":13033:13035   */\n      0x40\n        /* \"#utility.yul\":13026:13048   */\n      mstore\n        /* \"#utility.yul\":12816:13054   */\n      pop\n        /* \"#utility.yul\":12773:13054   */\n      pop\n      pop\n      jump\t// out\n        /* \"#utility.yul\":13060:13240   */\n    tag_263:\n        /* \"#utility.yul\":13108:13185   */\n      0x4e487b7100000000000000000000000000000000000000000000000000000000\n        /* \"#utility.yul\":13105:13106   */\n      0x00\n        /* \"#utility.yul\":13098:13186   */\n      mstore\n        /* \"#utility.yul\":13205:13209   */\n      0x22\n        /* \"#utility.yul\":13202:13203   */\n      0x04\n        /* \"#utility.yul\":13195:13210   */\n      mstore\n        /* \"#utility.yul\":13229:13233   */\n      0x24\n        /* \"#utility.yul\":13226:13227   */\n      0x00\n        /* \"#utility.yul\":13219:13234   */\n      revert\n        /* \"#utility.yul\":13246:13426   */\n    tag_244:\n        /* \"#utility.yul\":13294:13371   */\n      0x4e487b7100000000000000000000000000000000000000000000000000000000\n        /* \"#utility.yul\":13291:13292   */\n      0x00\n        /* \"#utility.yul\":13284:13372   */\n      mstore\n        /* \"#utility.yul\":13391:13395   */\n      0x41\n        /* \"#utility.yul\":13388:13389   */\n      0x04\n        /* \"#utility.yul\":13381:13396   */\n      mstore\n        /* \"#utility.yul\":13415:13419   */\n      0x24\n        /* \"#utility.yul\":13412:13413   */\n      0x00\n        /* \"#utility.yul\":13405:13420   */\n      revert\n        /* \"#utility.yul\":13432:13549   */\n    tag_133:\n        /* \"#utility.yul\":13541:13542   */\n      0x00\n        /* \"#utility.yul\":13538:13539   */\n      dup1\n        /* \"#utility.yul\":13531:13543   */\n      revert\n        /* \"#utility.yul\":13555:13672   */\n    tag_122:\n        /* \"#utility.yul\":13664:13665   */\n      0x00\n        /* \"#utility.yul\":13661:13662   */\n      dup1\n        /* \"#utility.yul\":13654:13666   */\n      revert\n        /* \"#utility.yul\":13678:13795   */\n    tag_145:\n        /* \"#utility.yul\":13787:13788   */\n      0x00\n        /* \"#utility.yul\":13784:13785   */\n      dup1\n        /* \"#utility.yul\":13777:13789   */\n      revert\n        /* \"#utility.yul\":13801:13918   */\n    tag_138:\n        /* \"#utility.yul\":13910:13911   */\n      0x00\n        /* \"#utility.yul\":13907:13908   */\n      dup1\n        /* \"#utility.yul\":13900:13912   */\n      revert\n        /* \"#utility.yul\":13924:14026   */\n    tag_176:\n        /* \"#utility.yul\":13965:13971   */\n      0x00\n        /* \"#utility.yul\":14016:14018   */\n      0x1f\n        /* \"#utility.yul\":14012:14019   */\n      not\n        /* \"#utility.yul\":14007:14009   */\n      0x1f\n        /* \"#utility.yul\":14000:14005   */\n      dup4\n        /* \"#utility.yul\":13996:14010   */\n      add\n        /* \"#utility.yul\":13992:14020   */\n      and\n        /* \"#utility.yul\":13982:14020   */\n      swap1\n      pop\n        /* \"#utility.yul\":13924:14026   */\n      swap2\n      swap1\n      pop\n      jump\t// out\n        /* \"#utility.yul\":14032:14189   */\n    tag_194:\n        /* \"#utility.yul\":14172:14181   */\n      0x7375636365737300000000000000000000000000000000000000000000000000\n        /* \"#utility.yul\":14168:14169   */\n      0x00\n        /* \"#utility.yul\":14160:14166   */\n      dup3\n        /* \"#utility.yul\":14156:14170   */\n      add\n        /* \"#utility.yul\":14149:14182   */\n      mstore\n        /* \"#utility.yul\":14032:14189   */\n      pop\n      jump\t// out\n        /* \"#utility.yul\":14195:14317   */\n    tag_128:\n        /* \"#utility.yul\":14268:14292   */\n      tag_277\n        /* \"#utility.yul\":14286:14291   */\n      dup2\n        /* \"#utility.yul\":14268:14292   */\n      tag_166\n      jump\t// in\n    tag_277:\n        /* \"#utility.yul\":14261:14266   */\n      dup2\n        /* \"#utility.yul\":14258:14293   */\n      eq\n        /* \"#utility.yul\":14248:14311   */\n      tag_278\n      jumpi\n        /* \"#utility.yul\":14307:14308   */\n      0x00\n        /* \"#utility.yul\":14304:14305   */\n      dup1\n        /* \"#utility.yul\":14297:14309   */\n      revert\n        /* \"#utility.yul\":14248:14311   */\n    tag_278:\n        /* \"#utility.yul\":14195:14317   */\n      pop\n      jump\t// out\n\n    auxdata: 0xa26469706673582212201c8cb76578bff49b55031eae44cb5b2d61202123253446b9ceffdb3b8d0d94bc64736f6c63430008070033\n}\n",
				"bytecode": {
					"linkReferences": {},
					"object": "608060405234801561001057600080fd5b50611110806100206000396000f3fe608060405234801561001057600080fd5b506004361061004c5760003560e01c8063174ba7ff1461005157806330ee52a914610081578063462e1eed146100bc578063b24c908a146100ef575b600080fd5b61006b60048036038101906100669190610a8c565b61011f565b6040516100789190610ea2565b60405180910390f35b61009b60048036038101906100969190610a5f565b61012c565b6040516100b39c9b9a99989796959493929190610d21565b60405180910390f35b6100d660048036038101906100d19190610a5f565b61066e565b6040516100e69493929190610e1a565b60405180910390f35b61010960048036038101906101049190610ad5565b610836565b6040516101169190610d06565b60405180910390f35b61012761090f565b919050565b600160205280600052604060002060009150905080600001805461014f90610fb4565b80601f016020809104026020016040519081016040528092919081815260200182805461017b90610fb4565b80156101c85780601f1061019d576101008083540402835291602001916101c8565b820191906000526020600020905b8154815290600101906020018083116101ab57829003601f168201915b5050505050908060010160009054906101000a900460ff16908060020154908060030180546101f690610fb4565b80601f016020809104026020016040519081016040528092919081815260200182805461022290610fb4565b801561026f5780601f106102445761010080835404028352916020019161026f565b820191906000526020600020905b81548152906001019060200180831161025257829003601f168201915b50505050509080600401805461028490610fb4565b80601f01602080910402602001604051908101604052809291908181526020018280546102b090610fb4565b80156102fd5780601f106102d2576101008083540402835291602001916102fd565b820191906000526020600020905b8154815290600101906020018083116102e057829003601f168201915b50505050509080600501805461031290610fb4565b80601f016020809104026020016040519081016040528092919081815260200182805461033e90610fb4565b801561038b5780601f106103605761010080835404028352916020019161038b565b820191906000526020600020905b81548152906001019060200180831161036e57829003601f168201915b5050505050908060060180546103a090610fb4565b80601f01602080910402602001604051908101604052809291908181526020018280546103cc90610fb4565b80156104195780601f106103ee57610100808354040283529160200191610419565b820191906000526020600020905b8154815290600101906020018083116103fc57829003601f168201915b50505050509080600701805461042e90610fb4565b80601f016020809104026020016040519081016040528092919081815260200182805461045a90610fb4565b80156104a75780601f1061047c576101008083540402835291602001916104a7565b820191906000526020600020905b81548152906001019060200180831161048a57829003601f168201915b5050505050908060080180546104bc90610fb4565b80601f01602080910402602001604051908101604052809291908181526020018280546104e890610fb4565b80156105355780601f1061050a57610100808354040283529160200191610535565b820191906000526020600020905b81548152906001019060200180831161051857829003601f168201915b50505050509080600901805461054a90610fb4565b80601f016020809104026020016040519081016040528092919081815260200182805461057690610fb4565b80156105c35780601f10610598576101008083540402835291602001916105c3565b820191906000526020600020905b8154815290600101906020018083116105a657829003601f168201915b50505050509080600a0160009054906101000a900460ff169080600b0180546105eb90610fb4565b80601f016020809104026020016040519081016040528092919081815260200182805461061790610fb4565b80156106645780601f1061063957610100808354040283529160200191610664565b820191906000526020600020905b81548152906001019060200180831161064757829003601f168201915b505050505090508c565b600060205280600052604060002060009150905080600001805461069190610fb4565b80601f01602080910402602001604051908101604052809291908181526020018280546106bd90610fb4565b801561070a5780601f106106df5761010080835404028352916020019161070a565b820191906000526020600020905b8154815290600101906020018083116106ed57829003601f168201915b50505050509080600101805461071f90610fb4565b80601f016020809104026020016040519081016040528092919081815260200182805461074b90610fb4565b80156107985780601f1061076d57610100808354040283529160200191610798565b820191906000526020600020905b81548152906001019060200180831161077b57829003601f168201915b5050505050908060020180546107ad90610fb4565b80601f01602080910402602001604051908101604052809291908181526020018280546107d990610fb4565b80156108265780601f106107fb57610100808354040283529160200191610826565b820191906000526020600020905b81548152906001019060200180831161080957829003601f168201915b5050505050908060030154905084565b6000808460405160200161084a9190610cef565b6040516020818303038152906040528051906020012090506000806000838152602001908152602001600020905085816000019080519060200190610890929190610937565b50848160010190805190602001906108a9929190610937565b50838160020190805190602001906108c2929190610937565b504281600301819055507fc8922d91fbabbe8df5d667708c678575856a856a2a465ebd9626a40ab6a16f5f826040516108fb9190610e74565b60405180910390a181925050509392505050565b6040518060800160405280606081526020016060815260200160608152602001600081525090565b82805461094390610fb4565b90600052602060002090601f01602090048101928261096557600085556109ac565b82601f1061097e57805160ff19168380011785556109ac565b828001600101855582156109ac579182015b828111156109ab578251825591602001919060010190610990565b5b5090506109b991906109bd565b5090565b5b808211156109d65760008160009055506001016109be565b5090565b60006109ed6109e884610ee9565b610ec4565b905082815260208101848484011115610a0957610a0861107a565b5b610a14848285610f72565b509392505050565b600081359050610a2b816110c3565b92915050565b600082601f830112610a4657610a45611075565b5b8135610a568482602086016109da565b91505092915050565b600060208284031215610a7557610a74611084565b5b6000610a8384828501610a1c565b91505092915050565b600060208284031215610aa257610aa1611084565b5b600082013567ffffffffffffffff811115610ac057610abf61107f565b5b610acc84828501610a31565b91505092915050565b600080600060608486031215610aee57610aed611084565b5b600084013567ffffffffffffffff811115610b0c57610b0b61107f565b5b610b1886828701610a31565b935050602084013567ffffffffffffffff811115610b3957610b3861107f565b5b610b4586828701610a31565b925050604084013567ffffffffffffffff811115610b6657610b6561107f565b5b610b7286828701610a31565b9150509250925092565b610b8581610f52565b82525050565b610b9481610f5e565b82525050565b6000610ba582610f1a565b610baf8185610f25565b9350610bbf818560208601610f81565b610bc881611089565b840191505092915050565b6000610bde82610f1a565b610be88185610f36565b9350610bf8818560208601610f81565b610c0181611089565b840191505092915050565b6000610c1782610f1a565b610c218185610f47565b9350610c31818560208601610f81565b80840191505092915050565b6000610c4a600783610f36565b9150610c558261109a565b602082019050919050565b60006080830160008301518482036000860152610c7d8282610b9a565b91505060208301518482036020860152610c978282610b9a565b91505060408301518482036040860152610cb18282610b9a565b9150506060830151610cc66060860182610cd1565b508091505092915050565b610cda81610f68565b82525050565b610ce981610f68565b82525050565b6000610cfb8284610c0c565b915081905092915050565b6000602082019050610d1b6000830184610b8b565b92915050565b6000610180820190508181036000830152610d3c818f610bd3565b9050610d4b602083018e610b7c565b610d58604083018d610ce0565b8181036060830152610d6a818c610bd3565b90508181036080830152610d7e818b610bd3565b905081810360a0830152610d92818a610bd3565b905081810360c0830152610da68189610bd3565b905081810360e0830152610dba8188610bd3565b9050818103610100830152610dcf8187610bd3565b9050818103610120830152610de48186610bd3565b9050610df4610140830185610b7c565b818103610160830152610e078184610bd3565b90509d9c50505050505050505050505050565b60006080820190508181036000830152610e348187610bd3565b90508181036020830152610e488186610bd3565b90508181036040830152610e5c8185610bd3565b9050610e6b6060830184610ce0565b95945050505050565b60006040820190508181036000830152610e8d81610c3d565b9050610e9c6020830184610b8b565b92915050565b60006020820190508181036000830152610ebc8184610c60565b905092915050565b6000610ece610edf565b9050610eda8282610fe6565b919050565b6000604051905090565b600067ffffffffffffffff821115610f0457610f03611046565b5b610f0d82611089565b9050602081019050919050565b600081519050919050565b600082825260208201905092915050565b600082825260208201905092915050565b600081905092915050565b60008115159050919050565b6000819050919050565b6000819050919050565b82818337600083830152505050565b60005b83811015610f9f578082015181840152602081019050610f84565b83811115610fae576000848401525b50505050565b60006002820490506001821680610fcc57607f821691505b60208210811415610fe057610fdf611017565b5b50919050565b610fef82611089565b810181811067ffffffffffffffff8211171561100e5761100d611046565b5b80604052505050565b7f4e487b7100000000000000000000000000000000000000000000000000000000600052602260045260246000fd5b7f4e487b7100000000000000000000000000000000000000000000000000000000600052604160045260246000fd5b600080fd5b600080fd5b600080fd5b600080fd5b6000601f19601f8301169050919050565b7f7375636365737300000000000000000000000000000000000000000000000000600082015250565b6110cc81610f5e565b81146110d757600080fd5b5056fea26469706673582212201c8cb76578bff49b55031eae44cb5b2d61202123253446b9ceffdb3b8d0d94bc64736f6c63430008070033",
					"opcodes": "PUSH1 0x80 PUSH1 0x40 MSTORE CALLVALUE DUP1 ISZERO PUSH2 0x10 JUMPI PUSH1 0x0 DUP1 REVERT JUMPDEST POP PUSH2 0x1110 DUP1 PUSH2 0x20 PUSH1 0x0 CODECOPY PUSH1 0x0 RETURN INVALID PUSH1 0x80 PUSH1 0x40 MSTORE CALLVALUE DUP1 ISZERO PUSH2 0x10 JUMPI PUSH1 0x0 DUP1 REVERT JUMPDEST POP PUSH1 0x4 CALLDATASIZE LT PUSH2 0x4C JUMPI PUSH1 0x0 CALLDATALOAD PUSH1 0xE0 SHR DUP1 PUSH4 0x174BA7FF EQ PUSH2 0x51 JUMPI DUP1 PUSH4 0x30EE52A9 EQ PUSH2 0x81 JUMPI DUP1 PUSH4 0x462E1EED EQ PUSH2 0xBC JUMPI DUP1 PUSH4 0xB24C908A EQ PUSH2 0xEF JUMPI JUMPDEST PUSH1 0x0 DUP1 REVERT JUMPDEST PUSH2 0x6B PUSH1 0x4 DUP1 CALLDATASIZE SUB DUP2 ADD SWAP1 PUSH2 0x66 SWAP2 SWAP1 PUSH2 0xA8C JUMP JUMPDEST PUSH2 0x11F JUMP JUMPDEST PUSH1 0x40 MLOAD PUSH2 0x78 SWAP2 SWAP1 PUSH2 0xEA2 JUMP JUMPDEST PUSH1 0x40 MLOAD DUP1 SWAP2 SUB SWAP1 RETURN JUMPDEST PUSH2 0x9B PUSH1 0x4 DUP1 CALLDATASIZE SUB DUP2 ADD SWAP1 PUSH2 0x96 SWAP2 SWAP1 PUSH2 0xA5F JUMP JUMPDEST PUSH2 0x12C JUMP JUMPDEST PUSH1 0x40 MLOAD PUSH2 0xB3 SWAP13 SWAP12 SWAP11 SWAP10 SWAP9 SWAP8 SWAP7 SWAP6 SWAP5 SWAP4 SWAP3 SWAP2 SWAP1 PUSH2 0xD21 JUMP JUMPDEST PUSH1 0x40 MLOAD DUP1 SWAP2 SUB SWAP1 RETURN JUMPDEST PUSH2 0xD6 PUSH1 0x4 DUP1 CALLDATASIZE SUB DUP2 ADD SWAP1 PUSH2 0xD1 SWAP2 SWAP1 PUSH2 0xA5F JUMP JUMPDEST PUSH2 0x66E JUMP JUMPDEST PUSH1 0x40 MLOAD PUSH2 0xE6 SWAP5 SWAP4 SWAP3 SWAP2 SWAP1 PUSH2 0xE1A JUMP JUMPDEST PUSH1 0x40 MLOAD DUP1 SWAP2 SUB SWAP1 RETURN JUMPDEST PUSH2 0x109 PUSH1 0x4 DUP1 CALLDATASIZE SUB DUP2 ADD SWAP1 PUSH2 0x104 SWAP2 SWAP1 PUSH2 0xAD5 JUMP JUMPDEST PUSH2 0x836 JUMP JUMPDEST PUSH1 0x40 MLOAD PUSH2 0x116 SWAP2 SWAP1 PUSH2 0xD06 JUMP JUMPDEST PUSH1 0x40 MLOAD DUP1 SWAP2 SUB SWAP1 RETURN JUMPDEST PUSH2 0x127 PUSH2 0x90F JUMP JUMPDEST SWAP2 SWAP1 POP JUMP JUMPDEST PUSH1 0x1 PUSH1 0x20 MSTORE DUP1 PUSH1 0x0 MSTORE PUSH1 0x40 PUSH1 0x0 KECCAK256 PUSH1 0x0 SWAP2 POP SWAP1 POP DUP1 PUSH1 0x0 ADD DUP1 SLOAD PUSH2 0x14F SWAP1 PUSH2 0xFB4 JUMP JUMPDEST DUP1 PUSH1 0x1F ADD PUSH1 0x20 DUP1 SWAP2 DIV MUL PUSH1 0x20 ADD PUSH1 0x40 MLOAD SWAP1 DUP2 ADD PUSH1 0x40 MSTORE DUP1 SWAP3 SWAP2 SWAP1 DUP2 DUP2 MSTORE PUSH1 0x20 ADD DUP3 DUP1 SLOAD PUSH2 0x17B SWAP1 PUSH2 0xFB4 JUMP JUMPDEST DUP1 ISZERO PUSH2 0x1C8 JUMPI DUP1 PUSH1 0x1F LT PUSH2 0x19D JUMPI PUSH2 0x100 DUP1 DUP4 SLOAD DIV MUL DUP4 MSTORE SWAP2 PUSH1 0x20 ADD SWAP2 PUSH2 0x1C8 JUMP JUMPDEST DUP3 ADD SWAP2 SWAP1 PUSH1 0x0 MSTORE PUSH1 0x20 PUSH1 0x0 KECCAK256 SWAP1 JUMPDEST DUP2 SLOAD DUP2 MSTORE SWAP1 PUSH1 0x1 ADD SWAP1 PUSH1 0x20 ADD DUP1 DUP4 GT PUSH2 0x1AB JUMPI DUP3 SWAP1 SUB PUSH1 0x1F AND DUP3 ADD SWAP2 JUMPDEST POP POP POP POP POP SWAP1 DUP1 PUSH1 0x1 ADD PUSH1 0x0 SWAP1 SLOAD SWAP1 PUSH2 0x100 EXP SWAP1 DIV PUSH1 0xFF AND SWAP1 DUP1 PUSH1 0x2 ADD SLOAD SWAP1 DUP1 PUSH1 0x3 ADD DUP1 SLOAD PUSH2 0x1F6 SWAP1 PUSH2 0xFB4 JUMP JUMPDEST DUP1 PUSH1 0x1F ADD PUSH1 0x20 DUP1 SWAP2 DIV MUL PUSH1 0x20 ADD PUSH1 0x40 MLOAD SWAP1 DUP2 ADD PUSH1 0x40 MSTORE DUP1 SWAP3 SWAP2 SWAP1 DUP2 DUP2 MSTORE PUSH1 0x20 ADD DUP3 DUP1 SLOAD PUSH2 0x222 SWAP1 PUSH2 0xFB4 JUMP JUMPDEST DUP1 ISZERO PUSH2 0x26F JUMPI DUP1 PUSH1 0x1F LT PUSH2 0x244 JUMPI PUSH2 0x100 DUP1 DUP4 SLOAD DIV MUL DUP4 MSTORE SWAP2 PUSH1 0x20 ADD SWAP2 PUSH2 0x26F JUMP JUMPDEST DUP3 ADD SWAP2 SWAP1 PUSH1 0x0 MSTORE PUSH1 0x20 PUSH1 0x0 KECCAK256 SWAP1 JUMPDEST DUP2 SLOAD DUP2 MSTORE SWAP1 PUSH1 0x1 ADD SWAP1 PUSH1 0x20 ADD DUP1 DUP4 GT PUSH2 0x252 JUMPI DUP3 SWAP1 SUB PUSH1 0x1F AND DUP3 ADD SWAP2 JUMPDEST POP POP POP POP POP SWAP1 DUP1 PUSH1 0x4 ADD DUP1 SLOAD PUSH2 0x284 SWAP1 PUSH2 0xFB4 JUMP JUMPDEST DUP1 PUSH1 0x1F ADD PUSH1 0x20 DUP1 SWAP2 DIV MUL PUSH1 0x20 ADD PUSH1 0x40 MLOAD SWAP1 DUP2 ADD PUSH1 0x40 MSTORE DUP1 SWAP3 SWAP2 SWAP1 DUP2 DUP2 MSTORE PUSH1 0x20 ADD DUP3 DUP1 SLOAD PUSH2 0x2B0 SWAP1 PUSH2 0xFB4 JUMP JUMPDEST DUP1 ISZERO PUSH2 0x2FD JUMPI DUP1 PUSH1 0x1F LT PUSH2 0x2D2 JUMPI PUSH2 0x100 DUP1 DUP4 SLOAD DIV MUL DUP4 MSTORE SWAP2 PUSH1 0x20 ADD SWAP2 PUSH2 0x2FD JUMP JUMPDEST DUP3 ADD SWAP2 SWAP1 PUSH1 0x0 MSTORE PUSH1 0x20 PUSH1 0x0 KECCAK256 SWAP1 JUMPDEST DUP2 SLOAD DUP2 MSTORE SWAP1 PUSH1 0x1 ADD SWAP1 PUSH1 0x20 ADD DUP1 DUP4 GT PUSH2 0x2E0 JUMPI DUP3 SWAP1 SUB PUSH1 0x1F AND DUP3 ADD SWAP2 JUMPDEST POP POP POP POP POP SWAP1 DUP1 PUSH1 0x5 ADD DUP1 SLOAD PUSH2 0x312 SWAP1 PUSH2 0xFB4 JUMP JUMPDEST DUP1 PUSH1 0x1F ADD PUSH1 0x20 DUP1 SWAP2 DIV MUL PUSH1 0x20 ADD PUSH1 0x40 MLOAD SWAP1 DUP2 ADD PUSH1 0x40 MSTORE DUP1 SWAP3 SWAP2 SWAP1 DUP2 DUP2 MSTORE PUSH1 0x20 ADD DUP3 DUP1 SLOAD PUSH2 0x33E SWAP1 PUSH2 0xFB4 JUMP JUMPDEST DUP1 ISZERO PUSH2 0x38B JUMPI DUP1 PUSH1 0x1F LT PUSH2 0x360 JUMPI PUSH2 0x100 DUP1 DUP4 SLOAD DIV MUL DUP4 MSTORE SWAP2 PUSH1 0x20 ADD SWAP2 PUSH2 0x38B JUMP JUMPDEST DUP3 ADD SWAP2 SWAP1 PUSH1 0x0 MSTORE PUSH1 0x20 PUSH1 0x0 KECCAK256 SWAP1 JUMPDEST DUP2 SLOAD DUP2 MSTORE SWAP1 PUSH1 0x1 ADD SWAP1 PUSH1 0x20 ADD DUP1 DUP4 GT PUSH2 0x36E JUMPI DUP3 SWAP1 SUB PUSH1 0x1F AND DUP3 ADD SWAP2 JUMPDEST POP POP POP POP POP SWAP1 DUP1 PUSH1 0x6 ADD DUP1 SLOAD PUSH2 0x3A0 SWAP1 PUSH2 0xFB4 JUMP JUMPDEST DUP1 PUSH1 0x1F ADD PUSH1 0x20 DUP1 SWAP2 DIV MUL PUSH1 0x20 ADD PUSH1 0x40 MLOAD SWAP1 DUP2 ADD PUSH1 0x40 MSTORE DUP1 SWAP3 SWAP2 SWAP1 DUP2 DUP2 MSTORE PUSH1 0x20 ADD DUP3 DUP1 SLOAD PUSH2 0x3CC SWAP1 PUSH2 0xFB4 JUMP JUMPDEST DUP1 ISZERO PUSH2 0x419 JUMPI DUP1 PUSH1 0x1F LT PUSH2 0x3EE JUMPI PUSH2 0x100 DUP1 DUP4 SLOAD DIV MUL DUP4 MSTORE SWAP2 PUSH1 0x20 ADD SWAP2 PUSH2 0x419 JUMP JUMPDEST DUP3 ADD SWAP2 SWAP1 PUSH1 0x0 MSTORE PUSH1 0x20 PUSH1 0x0 KECCAK256 SWAP1 JUMPDEST DUP2 SLOAD DUP2 MSTORE SWAP1 PUSH1 0x1 ADD SWAP1 PUSH1 0x20 ADD DUP1 DUP4 GT PUSH2 0x3FC JUMPI DUP3 SWAP1 SUB PUSH1 0x1F AND DUP3 ADD SWAP2 JUMPDEST POP POP POP POP POP SWAP1 DUP1 PUSH1 0x7 ADD DUP1 SLOAD PUSH2 0x42E SWAP1 PUSH2 0xFB4 JUMP JUMPDEST DUP1 PUSH1 0x1F ADD PUSH1 0x20 DUP1 SWAP2 DIV MUL PUSH1 0x20 ADD PUSH1 0x40 MLOAD SWAP1 DUP2 ADD PUSH1 0x40 MSTORE DUP1 SWAP3 SWAP2 SWAP1 DUP2 DUP2 MSTORE PUSH1 0x20 ADD DUP3 DUP1 SLOAD PUSH2 0x45A SWAP1 PUSH2 0xFB4 JUMP JUMPDEST DUP1 ISZERO PUSH2 0x4A7 JUMPI DUP1 PUSH1 0x1F LT PUSH2 0x47C JUMPI PUSH2 0x100 DUP1 DUP4 SLOAD DIV MUL DUP4 MSTORE SWAP2 PUSH1 0x20 ADD SWAP2 PUSH2 0x4A7 JUMP JUMPDEST DUP3 ADD SWAP2 SWAP1 PUSH1 0x0 MSTORE PUSH1 0x20 PUSH1 0x0 KECCAK256 SWAP1 JUMPDEST DUP2 SLOAD DUP2 MSTORE SWAP1 PUSH1 0x1 ADD SWAP1 PUSH1 0x20 ADD DUP1 DUP4 GT PUSH2 0x48A JUMPI DUP3 SWAP1 SUB PUSH1 0x1F AND DUP3 ADD SWAP2 JUMPDEST POP POP POP POP POP SWAP1 DUP1 PUSH1 0x8 ADD DUP1 SLOAD PUSH2 0x4BC SWAP1 PUSH2 0xFB4 JUMP JUMPDEST DUP1 PUSH1 0x1F ADD PUSH1 0x20 DUP1 SWAP2 DIV MUL PUSH1 0x20 ADD PUSH1 0x40 MLOAD SWAP1 DUP2 ADD PUSH1 0x40 MSTORE DUP1 SWAP3 SWAP2 SWAP1 DUP2 DUP2 MSTORE PUSH1 0x20 ADD DUP3 DUP1 SLOAD PUSH2 0x4E8 SWAP1 PUSH2 0xFB4 JUMP JUMPDEST DUP1 ISZERO PUSH2 0x535 JUMPI DUP1 PUSH1 0x1F LT PUSH2 0x50A JUMPI PUSH2 0x100 DUP1 DUP4 SLOAD DIV MUL DUP4 MSTORE SWAP2 PUSH1 0x20 ADD SWAP2 PUSH2 0x535 JUMP JUMPDEST DUP3 ADD SWAP2 SWAP1 PUSH1 0x0 MSTORE PUSH1 0x20 PUSH1 0x0 KECCAK256 SWAP1 JUMPDEST DUP2 SLOAD DUP2 MSTORE SWAP1 PUSH1 0x1 ADD SWAP1 PUSH1 0x20 ADD DUP1 DUP4 GT PUSH2 0x518 JUMPI DUP3 SWAP1 SUB PUSH1 0x1F AND DUP3 ADD SWAP2 JUMPDEST POP POP POP POP POP SWAP1 DUP1 PUSH1 0x9 ADD DUP1 SLOAD PUSH2 0x54A SWAP1 PUSH2 0xFB4 JUMP JUMPDEST DUP1 PUSH1 0x1F ADD PUSH1 0x20 DUP1 SWAP2 DIV MUL PUSH1 0x20 ADD PUSH1 0x40 MLOAD SWAP1 DUP2 ADD PUSH1 0x40 MSTORE DUP1 SWAP3 SWAP2 SWAP1 DUP2 DUP2 MSTORE PUSH1 0x20 ADD DUP3 DUP1 SLOAD PUSH2 0x576 SWAP1 PUSH2 0xFB4 JUMP JUMPDEST DUP1 ISZERO PUSH2 0x5C3 JUMPI DUP1 PUSH1 0x1F LT PUSH2 0x598 JUMPI PUSH2 0x100 DUP1 DUP4 SLOAD DIV MUL DUP4 MSTORE SWAP2 PUSH1 0x20 ADD SWAP2 PUSH2 0x5C3 JUMP JUMPDEST DUP3 ADD SWAP2 SWAP1 PUSH1 0x0 MSTORE PUSH1 0x20 PUSH1 0x0 KECCAK256 SWAP1 JUMPDEST DUP2 SLOAD DUP2 MSTORE SWAP1 PUSH1 0x1 ADD SWAP1 PUSH1 0x20 ADD DUP1 DUP4 GT PUSH2 0x5A6 JUMPI DUP3 SWAP1 SUB PUSH1 0x1F AND DUP3 ADD SWAP2 JUMPDEST POP POP POP POP POP SWAP1 DUP1 PUSH1 0xA ADD PUSH1 0x0 SWAP1 SLOAD SWAP1 PUSH2 0x100 EXP SWAP1 DIV PUSH1 0xFF AND SWAP1 DUP1 PUSH1 0xB ADD DUP1 SLOAD PUSH2 0x5EB SWAP1 PUSH2 0xFB4 JUMP JUMPDEST DUP1 PUSH1 0x1F ADD PUSH1 0x20 DUP1 SWAP2 DIV MUL PUSH1 0x20 ADD PUSH1 0x40 MLOAD SWAP1 DUP2 ADD PUSH1 0x40 MSTORE DUP1 SWAP3 SWAP2 SWAP1 DUP2 DUP2 MSTORE PUSH1 0x20 ADD DUP3 DUP1 SLOAD PUSH2 0x617 SWAP1 PUSH2 0xFB4 JUMP JUMPDEST DUP1 ISZERO PUSH2 0x664 JUMPI DUP1 PUSH1 0x1F LT PUSH2 0x639 JUMPI PUSH2 0x100 DUP1 DUP4 SLOAD DIV MUL DUP4 MSTORE SWAP2 PUSH1 0x20 ADD SWAP2 PUSH2 0x664 JUMP JUMPDEST DUP3 ADD SWAP2 SWAP1 PUSH1 0x0 MSTORE PUSH1 0x20 PUSH1 0x0 KECCAK256 SWAP1 JUMPDEST DUP2 SLOAD DUP2 MSTORE SWAP1 PUSH1 0x1 ADD SWAP1 PUSH1 0x20 ADD DUP1 DUP4 GT PUSH2 0x647 JUMPI DUP3 SWAP1 SUB PUSH1 0x1F AND DUP3 ADD SWAP2 JUMPDEST POP POP POP POP POP SWAP1 POP DUP13 JUMP JUMPDEST PUSH1 0x0 PUSH1 0x20 MSTORE DUP1 PUSH1 0x0 MSTORE PUSH1 0x40 PUSH1 0x0 KECCAK256 PUSH1 0x0 SWAP2 POP SWAP1 POP DUP1 PUSH1 0x0 ADD DUP1 SLOAD PUSH2 0x691 SWAP1 PUSH2 0xFB4 JUMP JUMPDEST DUP1 PUSH1 0x1F ADD PUSH1 0x20 DUP1 SWAP2 DIV MUL PUSH1 0x20 ADD PUSH1 0x40 MLOAD SWAP1 DUP2 ADD PUSH1 0x40 MSTORE DUP1 SWAP3 SWAP2 SWAP1 DUP2 DUP2 MSTORE PUSH1 0x20 ADD DUP3 DUP1 SLOAD PUSH2 0x6BD SWAP1 PUSH2 0xFB4 JUMP JUMPDEST DUP1 ISZERO PUSH2 0x70A JUMPI DUP1 PUSH1 0x1F LT PUSH2 0x6DF JUMPI PUSH2 0x100 DUP1 DUP4 SLOAD DIV MUL DUP4 MSTORE SWAP2 PUSH1 0x20 ADD SWAP2 PUSH2 0x70A JUMP JUMPDEST DUP3 ADD SWAP2 SWAP1 PUSH1 0x0 MSTORE PUSH1 0x20 PUSH1 0x0 KECCAK256 SWAP1 JUMPDEST DUP2 SLOAD DUP2 MSTORE SWAP1 PUSH1 0x1 ADD SWAP1 PUSH1 0x20 ADD DUP1 DUP4 GT PUSH2 0x6ED JUMPI DUP3 SWAP1 SUB PUSH1 0x1F AND DUP3 ADD SWAP2 JUMPDEST POP POP POP POP POP SWAP1 DUP1 PUSH1 0x1 ADD DUP1 SLOAD PUSH2 0x71F SWAP1 PUSH2 0xFB4 JUMP JUMPDEST DUP1 PUSH1 0x1F ADD PUSH1 0x20 DUP1 SWAP2 DIV MUL PUSH1 0x20 ADD PUSH1 0x40 MLOAD SWAP1 DUP2 ADD PUSH1 0x40 MSTORE DUP1 SWAP3 SWAP2 SWAP1 DUP2 DUP2 MSTORE PUSH1 0x20 ADD DUP3 DUP1 SLOAD PUSH2 0x74B SWAP1 PUSH2 0xFB4 JUMP JUMPDEST DUP1 ISZERO PUSH2 0x798 JUMPI DUP1 PUSH1 0x1F LT PUSH2 0x76D JUMPI PUSH2 0x100 DUP1 DUP4 SLOAD DIV MUL DUP4 MSTORE SWAP2 PUSH1 0x20 ADD SWAP2 PUSH2 0x798 JUMP JUMPDEST DUP3 ADD SWAP2 SWAP1 PUSH1 0x0 MSTORE PUSH1 0x20 PUSH1 0x0 KECCAK256 SWAP1 JUMPDEST DUP2 SLOAD DUP2 MSTORE SWAP1 PUSH1 0x1 ADD SWAP1 PUSH1 0x20 ADD DUP1 DUP4 GT PUSH2 0x77B JUMPI DUP3 SWAP1 SUB PUSH1 0x1F AND DUP3 ADD SWAP2 JUMPDEST POP POP POP POP POP SWAP1 DUP1 PUSH1 0x2 ADD DUP1 SLOAD PUSH2 0x7AD SWAP1 PUSH2 0xFB4 JUMP JUMPDEST DUP1 PUSH1 0x1F ADD PUSH1 0x20 DUP1 SWAP2 DIV MUL PUSH1 0x20 ADD PUSH1 0x40 MLOAD SWAP1 DUP2 ADD PUSH1 0x40 MSTORE DUP1 SWAP3 SWAP2 SWAP1 DUP2 DUP2 MSTORE PUSH1 0x20 ADD DUP3 DUP1 SLOAD PUSH2 0x7D9 SWAP1 PUSH2 0xFB4 JUMP JUMPDEST DUP1 ISZERO PUSH2 0x826 JUMPI DUP1 PUSH1 0x1F LT PUSH2 0x7FB JUMPI PUSH2 0x100 DUP1 DUP4 SLOAD DIV MUL DUP4 MSTORE SWAP2 PUSH1 0x20 ADD SWAP2 PUSH2 0x826 JUMP JUMPDEST DUP3 ADD SWAP2 SWAP1 PUSH1 0x0 MSTORE PUSH1 0x20 PUSH1 0x0 KECCAK256 SWAP1 JUMPDEST DUP2 SLOAD DUP2 MSTORE SWAP1 PUSH1 0x1 ADD SWAP1 PUSH1 0x20 ADD DUP1 DUP4 GT PUSH2 0x809 JUMPI DUP3 SWAP1 SUB PUSH1 0x1F AND DUP3 ADD SWAP2 JUMPDEST POP POP POP POP POP SWAP1 DUP1 PUSH1 0x3 ADD SLOAD SWAP1 POP DUP5 JUMP JUMPDEST PUSH1 0x0 DUP1 DUP5 PUSH1 0x40 MLOAD PUSH1 0x20 ADD PUSH2 0x84A SWAP2 SWAP1 PUSH2 0xCEF JUMP JUMPDEST PUSH1 0x40 MLOAD PUSH1 0x20 DUP2 DUP4 SUB SUB DUP2 MSTORE SWAP1 PUSH1 0x40 MSTORE DUP1 MLOAD SWAP1 PUSH1 0x20 ADD KECCAK256 SWAP1 POP PUSH1 0x0 DUP1 PUSH1 0x0 DUP4 DUP2 MSTORE PUSH1 0x20 ADD SWAP1 DUP2 MSTORE PUSH1 0x20 ADD PUSH1 0x0 KECCAK256 SWAP1 POP DUP6 DUP2 PUSH1 0x0 ADD SWAP1 DUP1 MLOAD SWAP1 PUSH1 0x20 ADD SWAP1 PUSH2 0x890 SWAP3 SWAP2 SWAP1 PUSH2 0x937 JUMP JUMPDEST POP DUP5 DUP2 PUSH1 0x1 ADD SWAP1 DUP1 MLOAD SWAP1 PUSH1 0x20 ADD SWAP1 PUSH2 0x8A9 SWAP3 SWAP2 SWAP1 PUSH2 0x937 JUMP JUMPDEST POP DUP4 DUP2 PUSH1 0x2 ADD SWAP1 DUP1 MLOAD SWAP1 PUSH1 0x20 ADD SWAP1 PUSH2 0x8C2 SWAP3 SWAP2 SWAP1 PUSH2 0x937 JUMP JUMPDEST POP TIMESTAMP DUP2 PUSH1 0x3 ADD DUP2 SWAP1 SSTORE POP PUSH32 0xC8922D91FBABBE8DF5D667708C678575856A856A2A465EBD9626A40AB6A16F5F DUP3 PUSH1 0x40 MLOAD PUSH2 0x8FB SWAP2 SWAP1 PUSH2 0xE74 JUMP JUMPDEST PUSH1 0x40 MLOAD DUP1 SWAP2 SUB SWAP1 LOG1 DUP2 SWAP3 POP POP POP SWAP4 SWAP3 POP POP POP JUMP JUMPDEST PUSH1 0x40 MLOAD DUP1 PUSH1 0x80 ADD PUSH1 0x40 MSTORE DUP1 PUSH1 0x60 DUP2 MSTORE PUSH1 0x20 ADD PUSH1 0x60 DUP2 MSTORE PUSH1 0x20 ADD PUSH1 0x60 DUP2 MSTORE PUSH1 0x20 ADD PUSH1 0x0 DUP2 MSTORE POP SWAP1 JUMP JUMPDEST DUP3 DUP1 SLOAD PUSH2 0x943 SWAP1 PUSH2 0xFB4 JUMP JUMPDEST SWAP1 PUSH1 0x0 MSTORE PUSH1 0x20 PUSH1 0x0 KECCAK256 SWAP1 PUSH1 0x1F ADD PUSH1 0x20 SWAP1 DIV DUP2 ADD SWAP3 DUP3 PUSH2 0x965 JUMPI PUSH1 0x0 DUP6 SSTORE PUSH2 0x9AC JUMP JUMPDEST DUP3 PUSH1 0x1F LT PUSH2 0x97E JUMPI DUP1 MLOAD PUSH1 0xFF NOT AND DUP4 DUP1 ADD OR DUP6 SSTORE PUSH2 0x9AC JUMP JUMPDEST DUP3 DUP1 ADD PUSH1 0x1 ADD DUP6 SSTORE DUP3 ISZERO PUSH2 0x9AC JUMPI SWAP2 DUP3 ADD JUMPDEST DUP3 DUP2 GT ISZERO PUSH2 0x9AB JUMPI DUP3 MLOAD DUP3 SSTORE SWAP2 PUSH1 0x20 ADD SWAP2 SWAP1 PUSH1 0x1 ADD SWAP1 PUSH2 0x990 JUMP JUMPDEST JUMPDEST POP SWAP1 POP PUSH2 0x9B9 SWAP2 SWAP1 PUSH2 0x9BD JUMP JUMPDEST POP SWAP1 JUMP JUMPDEST JUMPDEST DUP1 DUP3 GT ISZERO PUSH2 0x9D6 JUMPI PUSH1 0x0 DUP2 PUSH1 0x0 SWAP1 SSTORE POP PUSH1 0x1 ADD PUSH2 0x9BE JUMP JUMPDEST POP SWAP1 JUMP JUMPDEST PUSH1 0x0 PUSH2 0x9ED PUSH2 0x9E8 DUP5 PUSH2 0xEE9 JUMP JUMPDEST PUSH2 0xEC4 JUMP JUMPDEST SWAP1 POP DUP3 DUP2 MSTORE PUSH1 0x20 DUP2 ADD DUP5 DUP5 DUP5 ADD GT ISZERO PUSH2 0xA09 JUMPI PUSH2 0xA08 PUSH2 0x107A JUMP JUMPDEST JUMPDEST PUSH2 0xA14 DUP5 DUP3 DUP6 PUSH2 0xF72 JUMP JUMPDEST POP SWAP4 SWAP3 POP POP POP JUMP JUMPDEST PUSH1 0x0 DUP2 CALLDATALOAD SWAP1 POP PUSH2 0xA2B DUP2 PUSH2 0x10C3 JUMP JUMPDEST SWAP3 SWAP2 POP POP JUMP JUMPDEST PUSH1 0x0 DUP3 PUSH1 0x1F DUP4 ADD SLT PUSH2 0xA46 JUMPI PUSH2 0xA45 PUSH2 0x1075 JUMP JUMPDEST JUMPDEST DUP2 CALLDATALOAD PUSH2 0xA56 DUP5 DUP3 PUSH1 0x20 DUP7 ADD PUSH2 0x9DA JUMP JUMPDEST SWAP2 POP POP SWAP3 SWAP2 POP POP JUMP JUMPDEST PUSH1 0x0 PUSH1 0x20 DUP3 DUP5 SUB SLT ISZERO PUSH2 0xA75 JUMPI PUSH2 0xA74 PUSH2 0x1084 JUMP JUMPDEST JUMPDEST PUSH1 0x0 PUSH2 0xA83 DUP5 DUP3 DUP6 ADD PUSH2 0xA1C JUMP JUMPDEST SWAP2 POP POP SWAP3 SWAP2 POP POP JUMP JUMPDEST PUSH1 0x0 PUSH1 0x20 DUP3 DUP5 SUB SLT ISZERO PUSH2 0xAA2 JUMPI PUSH2 0xAA1 PUSH2 0x1084 JUMP JUMPDEST JUMPDEST PUSH1 0x0 DUP3 ADD CALLDATALOAD PUSH8 0xFFFFFFFFFFFFFFFF DUP2 GT ISZERO PUSH2 0xAC0 JUMPI PUSH2 0xABF PUSH2 0x107F JUMP JUMPDEST JUMPDEST PUSH2 0xACC DUP5 DUP3 DUP6 ADD PUSH2 0xA31 JUMP JUMPDEST SWAP2 POP POP SWAP3 SWAP2 POP POP JUMP JUMPDEST PUSH1 0x0 DUP1 PUSH1 0x0 PUSH1 0x60 DUP5 DUP7 SUB SLT ISZERO PUSH2 0xAEE JUMPI PUSH2 0xAED PUSH2 0x1084 JUMP JUMPDEST JUMPDEST PUSH1 0x0 DUP5 ADD CALLDATALOAD PUSH8 0xFFFFFFFFFFFFFFFF DUP2 GT ISZERO PUSH2 0xB0C JUMPI PUSH2 0xB0B PUSH2 0x107F JUMP JUMPDEST JUMPDEST PUSH2 0xB18 DUP7 DUP3 DUP8 ADD PUSH2 0xA31 JUMP JUMPDEST SWAP4 POP POP PUSH1 0x20 DUP5 ADD CALLDATALOAD PUSH8 0xFFFFFFFFFFFFFFFF DUP2 GT ISZERO PUSH2 0xB39 JUMPI PUSH2 0xB38 PUSH2 0x107F JUMP JUMPDEST JUMPDEST PUSH2 0xB45 DUP7 DUP3 DUP8 ADD PUSH2 0xA31 JUMP JUMPDEST SWAP3 POP POP PUSH1 0x40 DUP5 ADD CALLDATALOAD PUSH8 0xFFFFFFFFFFFFFFFF DUP2 GT ISZERO PUSH2 0xB66 JUMPI PUSH2 0xB65 PUSH2 0x107F JUMP JUMPDEST JUMPDEST PUSH2 0xB72 DUP7 DUP3 DUP8 ADD PUSH2 0xA31 JUMP JUMPDEST SWAP2 POP POP SWAP3 POP SWAP3 POP SWAP3 JUMP JUMPDEST PUSH2 0xB85 DUP2 PUSH2 0xF52 JUMP JUMPDEST DUP3 MSTORE POP POP JUMP JUMPDEST PUSH2 0xB94 DUP2 PUSH2 0xF5E JUMP JUMPDEST DUP3 MSTORE POP POP JUMP JUMPDEST PUSH1 0x0 PUSH2 0xBA5 DUP3 PUSH2 0xF1A JUMP JUMPDEST PUSH2 0xBAF DUP2 DUP6 PUSH2 0xF25 JUMP JUMPDEST SWAP4 POP PUSH2 0xBBF DUP2 DUP6 PUSH1 0x20 DUP7 ADD PUSH2 0xF81 JUMP JUMPDEST PUSH2 0xBC8 DUP2 PUSH2 0x1089 JUMP JUMPDEST DUP5 ADD SWAP2 POP POP SWAP3 SWAP2 POP POP JUMP JUMPDEST PUSH1 0x0 PUSH2 0xBDE DUP3 PUSH2 0xF1A JUMP JUMPDEST PUSH2 0xBE8 DUP2 DUP6 PUSH2 0xF36 JUMP JUMPDEST SWAP4 POP PUSH2 0xBF8 DUP2 DUP6 PUSH1 0x20 DUP7 ADD PUSH2 0xF81 JUMP JUMPDEST PUSH2 0xC01 DUP2 PUSH2 0x1089 JUMP JUMPDEST DUP5 ADD SWAP2 POP POP SWAP3 SWAP2 POP POP JUMP JUMPDEST PUSH1 0x0 PUSH2 0xC17 DUP3 PUSH2 0xF1A JUMP JUMPDEST PUSH2 0xC21 DUP2 DUP6 PUSH2 0xF47 JUMP JUMPDEST SWAP4 POP PUSH2 0xC31 DUP2 DUP6 PUSH1 0x20 DUP7 ADD PUSH2 0xF81 JUMP JUMPDEST DUP1 DUP5 ADD SWAP2 POP POP SWAP3 SWAP2 POP POP JUMP JUMPDEST PUSH1 0x0 PUSH2 0xC4A PUSH1 0x7 DUP4 PUSH2 0xF36 JUMP JUMPDEST SWAP2 POP PUSH2 0xC55 DUP3 PUSH2 0x109A JUMP JUMPDEST PUSH1 0x20 DUP3 ADD SWAP1 POP SWAP2 SWAP1 POP JUMP JUMPDEST PUSH1 0x0 PUSH1 0x80 DUP4 ADD PUSH1 0x0 DUP4 ADD MLOAD DUP5 DUP3 SUB PUSH1 0x0 DUP7 ADD MSTORE PUSH2 0xC7D DUP3 DUP3 PUSH2 0xB9A JUMP JUMPDEST SWAP2 POP POP PUSH1 0x20 DUP4 ADD MLOAD DUP5 DUP3 SUB PUSH1 0x20 DUP7 ADD MSTORE PUSH2 0xC97 DUP3 DUP3 PUSH2 0xB9A JUMP JUMPDEST SWAP2 POP POP PUSH1 0x40 DUP4 ADD MLOAD DUP5 DUP3 SUB PUSH1 0x40 DUP7 ADD MSTORE PUSH2 0xCB1 DUP3 DUP3 PUSH2 0xB9A JUMP JUMPDEST SWAP2 POP POP PUSH1 0x60 DUP4 ADD MLOAD PUSH2 0xCC6 PUSH1 0x60 DUP7 ADD DUP3 PUSH2 0xCD1 JUMP JUMPDEST POP DUP1 SWAP2 POP POP SWAP3 SWAP2 POP POP JUMP JUMPDEST PUSH2 0xCDA DUP2 PUSH2 0xF68 JUMP JUMPDEST DUP3 MSTORE POP POP JUMP JUMPDEST PUSH2 0xCE9 DUP2 PUSH2 0xF68 JUMP JUMPDEST DUP3 MSTORE POP POP JUMP JUMPDEST PUSH1 0x0 PUSH2 0xCFB DUP3 DUP5 PUSH2 0xC0C JUMP JUMPDEST SWAP2 POP DUP2 SWAP1 POP SWAP3 SWAP2 POP POP JUMP JUMPDEST PUSH1 0x0 PUSH1 0x20 DUP3 ADD SWAP1 POP PUSH2 0xD1B PUSH1 0x0 DUP4 ADD DUP5 PUSH2 0xB8B JUMP JUMPDEST SWAP3 SWAP2 POP POP JUMP JUMPDEST PUSH1 0x0 PUSH2 0x180 DUP3 ADD SWAP1 POP DUP2 DUP2 SUB PUSH1 0x0 DUP4 ADD MSTORE PUSH2 0xD3C DUP2 DUP16 PUSH2 0xBD3 JUMP JUMPDEST SWAP1 POP PUSH2 0xD4B PUSH1 0x20 DUP4 ADD DUP15 PUSH2 0xB7C JUMP JUMPDEST PUSH2 0xD58 PUSH1 0x40 DUP4 ADD DUP14 PUSH2 0xCE0 JUMP JUMPDEST DUP2 DUP2 SUB PUSH1 0x60 DUP4 ADD MSTORE PUSH2 0xD6A DUP2 DUP13 PUSH2 0xBD3 JUMP JUMPDEST SWAP1 POP DUP2 DUP2 SUB PUSH1 0x80 DUP4 ADD MSTORE PUSH2 0xD7E DUP2 DUP12 PUSH2 0xBD3 JUMP JUMPDEST SWAP1 POP DUP2 DUP2 SUB PUSH1 0xA0 DUP4 ADD MSTORE PUSH2 0xD92 DUP2 DUP11 PUSH2 0xBD3 JUMP JUMPDEST SWAP1 POP DUP2 DUP2 SUB PUSH1 0xC0 DUP4 ADD MSTORE PUSH2 0xDA6 DUP2 DUP10 PUSH2 0xBD3 JUMP JUMPDEST SWAP1 POP DUP2 DUP2 SUB PUSH1 0xE0 DUP4 ADD MSTORE PUSH2 0xDBA DUP2 DUP9 PUSH2 0xBD3 JUMP JUMPDEST SWAP1 POP DUP2 DUP2 SUB PUSH2 0x100 DUP4 ADD MSTORE PUSH2 0xDCF DUP2 DUP8 PUSH2 0xBD3 JUMP JUMPDEST SWAP1 POP DUP2 DUP2 SUB PUSH2 0x120 DUP4 ADD MSTORE PUSH2 0xDE4 DUP2 DUP7 PUSH2 0xBD3 JUMP JUMPDEST SWAP1 POP PUSH2 0xDF4 PUSH2 0x140 DUP4 ADD DUP6 PUSH2 0xB7C JUMP JUMPDEST DUP2 DUP2 SUB PUSH2 0x160 DUP4 ADD MSTORE PUSH2 0xE07 DUP2 DUP5 PUSH2 0xBD3 JUMP JUMPDEST SWAP1 POP SWAP14 SWAP13 POP POP POP POP POP POP POP POP POP POP POP POP POP JUMP JUMPDEST PUSH1 0x0 PUSH1 0x80 DUP3 ADD SWAP1 POP DUP2 DUP2 SUB PUSH1 0x0 DUP4 ADD MSTORE PUSH2 0xE34 DUP2 DUP8 PUSH2 0xBD3 JUMP JUMPDEST SWAP1 POP DUP2 DUP2 SUB PUSH1 0x20 DUP4 ADD MSTORE PUSH2 0xE48 DUP2 DUP7 PUSH2 0xBD3 JUMP JUMPDEST SWAP1 POP DUP2 DUP2 SUB PUSH1 0x40 DUP4 ADD MSTORE PUSH2 0xE5C DUP2 DUP6 PUSH2 0xBD3 JUMP JUMPDEST SWAP1 POP PUSH2 0xE6B PUSH1 0x60 DUP4 ADD DUP5 PUSH2 0xCE0 JUMP JUMPDEST SWAP6 SWAP5 POP POP POP POP POP JUMP JUMPDEST PUSH1 0x0 PUSH1 0x40 DUP3 ADD SWAP1 POP DUP2 DUP2 SUB PUSH1 0x0 DUP4 ADD MSTORE PUSH2 0xE8D DUP2 PUSH2 0xC3D JUMP JUMPDEST SWAP1 POP PUSH2 0xE9C PUSH1 0x20 DUP4 ADD DUP5 PUSH2 0xB8B JUMP JUMPDEST SWAP3 SWAP2 POP POP JUMP JUMPDEST PUSH1 0x0 PUSH1 0x20 DUP3 ADD SWAP1 POP DUP2 DUP2 SUB PUSH1 0x0 DUP4 ADD MSTORE PUSH2 0xEBC DUP2 DUP5 PUSH2 0xC60 JUMP JUMPDEST SWAP1 POP SWAP3 SWAP2 POP POP JUMP JUMPDEST PUSH1 0x0 PUSH2 0xECE PUSH2 0xEDF JUMP JUMPDEST SWAP1 POP PUSH2 0xEDA DUP3 DUP3 PUSH2 0xFE6 JUMP JUMPDEST SWAP2 SWAP1 POP JUMP JUMPDEST PUSH1 0x0 PUSH1 0x40 MLOAD SWAP1 POP SWAP1 JUMP JUMPDEST PUSH1 0x0 PUSH8 0xFFFFFFFFFFFFFFFF DUP3 GT ISZERO PUSH2 0xF04 JUMPI PUSH2 0xF03 PUSH2 0x1046 JUMP JUMPDEST JUMPDEST PUSH2 0xF0D DUP3 PUSH2 0x1089 JUMP JUMPDEST SWAP1 POP PUSH1 0x20 DUP2 ADD SWAP1 POP SWAP2 SWAP1 POP JUMP JUMPDEST PUSH1 0x0 DUP2 MLOAD SWAP1 POP SWAP2 SWAP1 POP JUMP JUMPDEST PUSH1 0x0 DUP3 DUP3 MSTORE PUSH1 0x20 DUP3 ADD SWAP1 POP SWAP3 SWAP2 POP POP JUMP JUMPDEST PUSH1 0x0 DUP3 DUP3 MSTORE PUSH1 0x20 DUP3 ADD SWAP1 POP SWAP3 SWAP2 POP POP JUMP JUMPDEST PUSH1 0x0 DUP2 SWAP1 POP SWAP3 SWAP2 POP POP JUMP JUMPDEST PUSH1 0x0 DUP2 ISZERO ISZERO SWAP1 POP SWAP2 SWAP1 POP JUMP JUMPDEST PUSH1 0x0 DUP2 SWAP1 POP SWAP2 SWAP1 POP JUMP JUMPDEST PUSH1 0x0 DUP2 SWAP1 POP SWAP2 SWAP1 POP JUMP JUMPDEST DUP3 DUP2 DUP4 CALLDATACOPY PUSH1 0x0 DUP4 DUP4 ADD MSTORE POP POP POP JUMP JUMPDEST PUSH1 0x0 JUMPDEST DUP4 DUP2 LT ISZERO PUSH2 0xF9F JUMPI DUP1 DUP3 ADD MLOAD DUP2 DUP5 ADD MSTORE PUSH1 0x20 DUP2 ADD SWAP1 POP PUSH2 0xF84 JUMP JUMPDEST DUP4 DUP2 GT ISZERO PUSH2 0xFAE JUMPI PUSH1 0x0 DUP5 DUP5 ADD MSTORE JUMPDEST POP POP POP POP JUMP JUMPDEST PUSH1 0x0 PUSH1 0x2 DUP3 DIV SWAP1 POP PUSH1 0x1 DUP3 AND DUP1 PUSH2 0xFCC JUMPI PUSH1 0x7F DUP3 AND SWAP2 POP JUMPDEST PUSH1 0x20 DUP3 LT DUP2 EQ ISZERO PUSH2 0xFE0 JUMPI PUSH2 0xFDF PUSH2 0x1017 JUMP JUMPDEST JUMPDEST POP SWAP2 SWAP1 POP JUMP JUMPDEST PUSH2 0xFEF DUP3 PUSH2 0x1089 JUMP JUMPDEST DUP2 ADD DUP2 DUP2 LT PUSH8 0xFFFFFFFFFFFFFFFF DUP3 GT OR ISZERO PUSH2 0x100E JUMPI PUSH2 0x100D PUSH2 0x1046 JUMP JUMPDEST JUMPDEST DUP1 PUSH1 0x40 MSTORE POP POP POP JUMP JUMPDEST PUSH32 0x4E487B7100000000000000000000000000000000000000000000000000000000 PUSH1 0x0 MSTORE PUSH1 0x22 PUSH1 0x4 MSTORE PUSH1 0x24 PUSH1 0x0 REVERT JUMPDEST PUSH32 0x4E487B7100000000000000000000000000000000000000000000000000000000 PUSH1 0x0 MSTORE PUSH1 0x41 PUSH1 0x4 MSTORE PUSH1 0x24 PUSH1 0x0 REVERT JUMPDEST PUSH1 0x0 DUP1 REVERT JUMPDEST PUSH1 0x0 DUP1 REVERT JUMPDEST PUSH1 0x0 DUP1 REVERT JUMPDEST PUSH1 0x0 DUP1 REVERT JUMPDEST PUSH1 0x0 PUSH1 0x1F NOT PUSH1 0x1F DUP4 ADD AND SWAP1 POP SWAP2 SWAP1 POP JUMP JUMPDEST PUSH32 0x7375636365737300000000000000000000000000000000000000000000000000 PUSH1 0x0 DUP3 ADD MSTORE POP JUMP JUMPDEST PUSH2 0x10CC DUP2 PUSH2 0xF5E JUMP JUMPDEST DUP2 EQ PUSH2 0x10D7 JUMPI PUSH1 0x0 DUP1 REVERT JUMPDEST POP JUMP INVALID LOG2 PUSH5 0x6970667358 0x22 SLT KECCAK256 SHR DUP13 0xB7 PUSH6 0x78BFF49B5503 0x1E 0xAE DIFFICULTY 0xCB JUMPDEST 0x2D PUSH2 0x2021 0x23 0x25 CALLVALUE CHAINID 0xB9 0xCE SELFDESTRUCT 0xDB EXTCODESIZE DUP14 0xD SWAP5 0xBC PUSH5 0x736F6C6343 STOP ADDMOD SMOD STOP CALLER "
				},
				"gasEstimates": {
					"creation": {
						"codeDepositCost": "873600",
						"executionCost": "909",
						"totalCost": "874509"
					},
					"external": {
						"add_account(string,string,string)": "infinite",
						"get_account(string)": "infinite",
						"mappingAccount(bytes32)": "infinite",
						"mappingTransaction(bytes32)": "infinite"
					}
				},
				"methodIdentifiers": {
					"add_account(string,string,string)": "b24c908a",
					"get_account(string)": "174ba7ff",
					"mappingAccount(bytes32)": "462e1eed",
					"mappingTransaction(bytes32)": "30ee52a9"
				}
			},
			"storageLayout": {
				"storage": [
					{
						"astId": 21,
						"contract": "contracts/Halal.sol:Halal",
						"label": "mappingAccount",
						"offset": 0,
						"slot": "0",
						"type": "t_mapping(t_bytes32,t_struct(accountData)16_storage)"
					},
					{
						"astId": 51,
						"contract": "contracts/Halal.sol:Halal",
						"label": "mappingTransaction",
						"offset": 0,
						"slot": "1",
						"type": "t_mapping(t_bytes32,t_struct(transaction)46_storage)"
					}
				],
				"types": {
					"t_bool": {
						"encoding": "inplace",
						"label": "bool",
						"numberOfBytes": "1"
					},
					"t_bytes32": {
						"encoding": "inplace",
						"label": "bytes32",
						"numberOfBytes": "32"
					},
					"t_mapping(t_bytes32,t_struct(accountData)16_storage)": {
						"encoding": "mapping",
						"key": "t_bytes32",
						"label": "mapping(bytes32 => struct Halal.accountData)",
						"numberOfBytes": "32",
						"value": "t_struct(accountData)16_storage"
					},
					"t_mapping(t_bytes32,t_struct(transaction)46_storage)": {
						"encoding": "mapping",
						"key": "t_bytes32",
						"label": "mapping(bytes32 => struct Halal.transaction)",
						"numberOfBytes": "32",
						"value": "t_struct(transaction)46_storage"
					},
					"t_string_storage": {
						"encoding": "bytes",
						"label": "string",
						"numberOfBytes": "32"
					},
					"t_struct(accountData)16_storage": {
						"encoding": "inplace",
						"label": "struct Halal.accountData",
						"members": [
							{
								"astId": 9,
								"contract": "contracts/Halal.sol:Halal",
								"label": "account_id",
								"offset": 0,
								"slot": "0",
								"type": "t_string_storage"
							},
							{
								"astId": 11,
								"contract": "contracts/Halal.sol:Halal",
								"label": "name",
								"offset": 0,
								"slot": "1",
								"type": "t_string_storage"
							},
							{
								"astId": 13,
								"contract": "contracts/Halal.sol:Halal",
								"label": "role",
								"offset": 0,
								"slot": "2",
								"type": "t_string_storage"
							},
							{
								"astId": 15,
								"contract": "contracts/Halal.sol:Halal",
								"label": "created_at",
								"offset": 0,
								"slot": "3",
								"type": "t_uint256"
							}
						],
						"numberOfBytes": "128"
					},
					"t_struct(transaction)46_storage": {
						"encoding": "inplace",
						"label": "struct Halal.transaction",
						"members": [
							{
								"astId": 23,
								"contract": "contracts/Halal.sol:Halal",
								"label": "umkm_id",
								"offset": 0,
								"slot": "0",
								"type": "t_string_storage"
							},
							{
								"astId": 25,
								"contract": "contracts/Halal.sol:Halal",
								"label": "reg_status",
								"offset": 0,
								"slot": "1",
								"type": "t_bool"
							},
							{
								"astId": 27,
								"contract": "contracts/Halal.sol:Halal",
								"label": "reg_date",
								"offset": 0,
								"slot": "2",
								"type": "t_uint256"
							},
							{
								"astId": 29,
								"contract": "contracts/Halal.sol:Halal",
								"label": "bpjph_desc",
								"offset": 0,
								"slot": "3",
								"type": "t_string_storage"
							},
							{
								"astId": 31,
								"contract": "contracts/Halal.sol:Halal",
								"label": "bpjph_result",
								"offset": 0,
								"slot": "4",
								"type": "t_string_storage"
							},
							{
								"astId": 33,
								"contract": "contracts/Halal.sol:Halal",
								"label": "lph_appintment",
								"offset": 0,
								"slot": "5",
								"type": "t_string_storage"
							},
							{
								"astId": 35,
								"contract": "contracts/Halal.sol:Halal",
								"label": "bpjph_id",
								"offset": 0,
								"slot": "6",
								"type": "t_string_storage"
							},
							{
								"astId": 37,
								"contract": "contracts/Halal.sol:Halal",
								"label": "lph_desc",
								"offset": 0,
								"slot": "7",
								"type": "t_string_storage"
							},
							{
								"astId": 39,
								"contract": "contracts/Halal.sol:Halal",
								"label": "review_status",
								"offset": 0,
								"slot": "8",
								"type": "t_string_storage"
							},
							{
								"astId": 41,
								"contract": "contracts/Halal.sol:Halal",
								"label": "desicion_mui",
								"offset": 0,
								"slot": "9",
								"type": "t_string_storage"
							},
							{
								"astId": 43,
								"contract": "contracts/Halal.sol:Halal",
								"label": "mui_approved",
								"offset": 0,
								"slot": "10",
								"type": "t_bool"
							},
							{
								"astId": 45,
								"contract": "contracts/Halal.sol:Halal",
								"label": "cert_data",
								"offset": 0,
								"slot": "11",
								"type": "t_string_storage"
							}
						],
						"numberOfBytes": "384"
					},
					"t_uint256": {
						"encoding": "inplace",
						"label": "uint256",
						"numberOfBytes": "32"
					}
				}
			},
			"userdoc": {
				"kind": "user",
				"methods": {},
				"version": 1
			}
		}
	}
}