{
	"contracts/Halal.sol": {
		"Halal": {
			"abi": [
				{
					"anonymous": false,
					"inputs": [
						{
							"indexed": false,
							"internalType": "string",
							"name": "status",
							"type": "string"
						},
						{
							"indexed": false,
							"internalType": "bytes32",
							"name": "message",
							"type": "bytes32"
						}
					],
					"name": "success",
					"type": "event"
				},
				{
					"inputs": [
						{
							"internalType": "string",
							"name": "account_id",
							"type": "string"
						},
						{
							"internalType": "string",
							"name": "name",
							"type": "string"
						},
						{
							"internalType": "string",
							"name": "role",
							"type": "string"
						}
					],
					"name": "add_account",
					"outputs": [
						{
							"internalType": "bytes32",
							"name": "",
							"type": "bytes32"
						}
					],
					"stateMutability": "nonpayable",
					"type": "function"
				},
				{
					"inputs": [
						{
							"internalType": "string",
							"name": "umkm_id",
							"type": "string"
						},
						{
							"internalType": "string",
							"name": "cert_id",
							"type": "string"
						},
						{
							"internalType": "uint256",
							"name": "expired_at",
							"type": "uint256"
						}
					],
					"name": "add_certificate",
					"outputs": [
						{
							"internalType": "bytes32",
							"name": "",
							"type": "bytes32"
						}
					],
					"stateMutability": "view",
					"type": "function"
				},
				{
					"inputs": [
						{
							"internalType": "string",
							"name": "transaction_id",
							"type": "string"
						},
						{
							"internalType": "string",
							"name": "user_id",
							"type": "string"
						},
						{
							"internalType": "bytes",
							"name": "data",
							"type": "bytes"
						}
					],
					"name": "add_transaction",
					"outputs": [
						{
							"internalType": "bytes32",
							"name": "",
							"type": "bytes32"
						}
					],
					"stateMutability": "nonpayable",
					"type": "function"
				},
				{
					"inputs": [
						{
							"internalType": "string",
							"name": "account_id",
							"type": "string"
						}
					],
					"name": "get_account",
					"outputs": [
						{
							"components": [
								{
									"internalType": "string",
									"name": "account_id",
									"type": "string"
								},
								{
									"internalType": "string",
									"name": "name",
									"type": "string"
								},
								{
									"internalType": "string",
									"name": "role",
									"type": "string"
								},
								{
									"internalType": "uint256",
									"name": "created_at",
									"type": "uint256"
								}
							],
							"internalType": "struct Halal.accountData",
							"name": "",
							"type": "tuple"
						}
					],
					"stateMutability": "view",
					"type": "function"
				},
				{
					"inputs": [
						{
							"internalType": "string",
							"name": "transaction_id",
							"type": "string"
						}
					],
					"name": "get_transaction",
					"outputs": [
						{
							"components": [
								{
									"internalType": "string",
									"name": "user_id",
									"type": "string"
								},
								{
									"internalType": "bytes",
									"name": "data",
									"type": "bytes"
								}
							],
							"internalType": "struct Halal.transaction",
							"name": "",
							"type": "tuple"
						}
					],
					"stateMutability": "view",
					"type": "function"
				}
			],
			"devdoc": {
				"kind": "dev",
				"methods": {},
				"version": 1
			},
			"evm": {
				"assembly": "    /* \"contracts/Halal.sol\":62:2649  contract Halal{... */\n  mstore(0x40, 0x80)\n  callvalue\n  dup1\n  iszero\n  tag_1\n  jumpi\n  0x00\n  dup1\n  revert\ntag_1:\n  pop\n  dataSize(sub_0)\n  dup1\n  dataOffset(sub_0)\n  0x00\n  codecopy\n  0x00\n  return\nstop\n\nsub_0: assembly {\n        /* \"contracts/Halal.sol\":62:2649  contract Halal{... */\n      mstore(0x40, 0x80)\n      callvalue\n      dup1\n      iszero\n      tag_1\n      jumpi\n      0x00\n      dup1\n      revert\n    tag_1:\n      pop\n      jumpi(tag_2, lt(calldatasize, 0x04))\n      shr(0xe0, calldataload(0x00))\n      dup1\n      0x174ba7ff\n      eq\n      tag_3\n      jumpi\n      dup1\n      0x5b62132d\n      eq\n      tag_4\n      jumpi\n      dup1\n      0xb24c908a\n      eq\n      tag_5\n      jumpi\n      dup1\n      0xc3efbe38\n      eq\n      tag_6\n      jumpi\n      dup1\n      0xca5e208f\n      eq\n      tag_7\n      jumpi\n    tag_2:\n      0x00\n      dup1\n      revert\n        /* \"contracts/Halal.sol\":1415:1605  function get_account(string memory account_id) public view returns(accountData memory){... */\n    tag_3:\n      tag_8\n      0x04\n      dup1\n      calldatasize\n      sub\n      dup2\n      add\n      swap1\n      tag_9\n      swap2\n      swap1\n      tag_10\n      jump\t// in\n    tag_9:\n      tag_11\n      jump\t// in\n    tag_8:\n      mload(0x40)\n      tag_12\n      swap2\n      swap1\n      tag_13\n      jump\t// in\n    tag_12:\n      mload(0x40)\n      dup1\n      swap2\n      sub\n      swap1\n      return\n        /* \"contracts/Halal.sol\":1611:2012  function add_transaction(... */\n    tag_4:\n      tag_14\n      0x04\n      dup1\n      calldatasize\n      sub\n      dup2\n      add\n      swap1\n      tag_15\n      swap2\n      swap1\n      tag_16\n      jump\t// in\n    tag_15:\n      tag_17\n      jump\t// in\n    tag_14:\n      mload(0x40)\n      tag_18\n      swap2\n      swap1\n      tag_19\n      jump\t// in\n    tag_18:\n      mload(0x40)\n      dup1\n      swap2\n      sub\n      swap1\n      return\n        /* \"contracts/Halal.sol\":881:1409  function add_account(... */\n    tag_5:\n      tag_20\n      0x04\n      dup1\n      calldatasize\n      sub\n      dup2\n      add\n      swap1\n      tag_21\n      swap2\n      swap1\n      tag_22\n      jump\t// in\n    tag_21:\n      tag_23\n      jump\t// in\n    tag_20:\n      mload(0x40)\n      tag_24\n      swap2\n      swap1\n      tag_19\n      jump\t// in\n    tag_24:\n      mload(0x40)\n      dup1\n      swap2\n      sub\n      swap1\n      return\n        /* \"contracts/Halal.sol\":2233:2646  function add_certificate(string memory umkm_id, string memory cert_id, uint expired_at) external view returns(bytes32){... */\n    tag_6:\n      tag_25\n      0x04\n      dup1\n      calldatasize\n      sub\n      dup2\n      add\n      swap1\n      tag_26\n      swap2\n      swap1\n      tag_27\n      jump\t// in\n    tag_26:\n      tag_28\n      jump\t// in\n    tag_25:\n      mload(0x40)\n      tag_29\n      swap2\n      swap1\n      tag_19\n      jump\t// in\n    tag_29:\n      mload(0x40)\n      dup1\n      swap2\n      sub\n      swap1\n      return\n        /* \"contracts/Halal.sol\":2018:2227  function get_transaction(string memory transaction_id) external view returns(transaction memory){... */\n    tag_7:\n      tag_30\n      0x04\n      dup1\n      calldatasize\n      sub\n      dup2\n      add\n      swap1\n      tag_31\n      swap2\n      swap1\n      tag_10\n      jump\t// in\n    tag_31:\n      tag_32\n      jump\t// in\n    tag_30:\n      mload(0x40)\n      tag_33\n      swap2\n      swap1\n      tag_34\n      jump\t// in\n    tag_33:\n      mload(0x40)\n      dup1\n      swap2\n      sub\n      swap1\n      return\n        /* \"contracts/Halal.sol\":1415:1605  function get_account(string memory account_id) public view returns(accountData memory){... */\n    tag_11:\n        /* \"contracts/Halal.sol\":1482:1500  accountData memory */\n      tag_35\n      tag_36\n      jump\t// in\n    tag_35:\n        /* \"contracts/Halal.sol\":1511:1521  bytes32 id */\n      0x00\n        /* \"contracts/Halal.sol\":1551:1561  account_id */\n      dup3\n        /* \"contracts/Halal.sol\":1534:1562  abi.encodePacked(account_id) */\n      add(0x20, mload(0x40))\n      tag_38\n      swap2\n      swap1\n      tag_39\n      jump\t// in\n    tag_38:\n      mload(0x40)\n      0x20\n      dup2\n      dup4\n      sub\n      sub\n      dup2\n      mstore\n      swap1\n      0x40\n      mstore\n        /* \"contracts/Halal.sol\":1524:1563  keccak256(abi.encodePacked(account_id)) */\n      dup1\n      mload\n      swap1\n      0x20\n      add\n      keccak256\n        /* \"contracts/Halal.sol\":1511:1563  bytes32 id = keccak256(abi.encodePacked(account_id)) */\n      swap1\n      pop\n        /* \"contracts/Halal.sol\":1580:1594  mappingAccount */\n      0x00\n        /* \"contracts/Halal.sol\":1580:1598  mappingAccount[id] */\n      dup1\n        /* \"contracts/Halal.sol\":1595:1597  id */\n      dup3\n        /* \"contracts/Halal.sol\":1580:1598  mappingAccount[id] */\n      dup2\n      mstore\n      0x20\n      add\n      swap1\n      dup2\n      mstore\n      0x20\n      add\n      0x00\n      keccak256\n        /* \"contracts/Halal.sol\":1573:1598  return mappingAccount[id] */\n      mload(0x40)\n      dup1\n      0x80\n      add\n      0x40\n      mstore\n      swap1\n      dup2\n      0x00\n      dup3\n      add\n      dup1\n      sload\n      tag_40\n      swap1\n      tag_41\n      jump\t// in\n    tag_40:\n      dup1\n      0x1f\n      add\n      0x20\n      dup1\n      swap2\n      div\n      mul\n      0x20\n      add\n      mload(0x40)\n      swap1\n      dup2\n      add\n      0x40\n      mstore\n      dup1\n      swap3\n      swap2\n      swap1\n      dup2\n      dup2\n      mstore\n      0x20\n      add\n      dup3\n      dup1\n      sload\n      tag_42\n      swap1\n      tag_41\n      jump\t// in\n    tag_42:\n      dup1\n      iszero\n      tag_43\n      jumpi\n      dup1\n      0x1f\n      lt\n      tag_44\n      jumpi\n      0x0100\n      dup1\n      dup4\n      sload\n      div\n      mul\n      dup4\n      mstore\n      swap2\n      0x20\n      add\n      swap2\n      jump(tag_43)\n    tag_44:\n      dup3\n      add\n      swap2\n      swap1\n      0x00\n      mstore\n      keccak256(0x00, 0x20)\n      swap1\n    tag_45:\n      dup2\n      sload\n      dup2\n      mstore\n      swap1\n      0x01\n      add\n      swap1\n      0x20\n      add\n      dup1\n      dup4\n      gt\n      tag_45\n      jumpi\n      dup3\n      swap1\n      sub\n      0x1f\n      and\n      dup3\n      add\n      swap2\n    tag_43:\n      pop\n      pop\n      pop\n      pop\n      pop\n      dup2\n      mstore\n      0x20\n      add\n      0x01\n      dup3\n      add\n      dup1\n      sload\n      tag_46\n      swap1\n      tag_41\n      jump\t// in\n    tag_46:\n      dup1\n      0x1f\n      add\n      0x20\n      dup1\n      swap2\n      div\n      mul\n      0x20\n      add\n      mload(0x40)\n      swap1\n      dup2\n      add\n      0x40\n      mstore\n      dup1\n      swap3\n      swap2\n      swap1\n      dup2\n      dup2\n      mstore\n      0x20\n      add\n      dup3\n      dup1\n      sload\n      tag_47\n      swap1\n      tag_41\n      jump\t// in\n    tag_47:\n      dup1\n      iszero\n      tag_48\n      jumpi\n      dup1\n      0x1f\n      lt\n      tag_49\n      jumpi\n      0x0100\n      dup1\n      dup4\n      sload\n      div\n      mul\n      dup4\n      mstore\n      swap2\n      0x20\n      add\n      swap2\n      jump(tag_48)\n    tag_49:\n      dup3\n      add\n      swap2\n      swap1\n      0x00\n      mstore\n      keccak256(0x00, 0x20)\n      swap1\n    tag_50:\n      dup2\n      sload\n      dup2\n      mstore\n      swap1\n      0x01\n      add\n      swap1\n      0x20\n      add\n      dup1\n      dup4\n      gt\n      tag_50\n      jumpi\n      dup3\n      swap1\n      sub\n      0x1f\n      and\n      dup3\n      add\n      swap2\n    tag_48:\n      pop\n      pop\n      pop\n      pop\n      pop\n      dup2\n      mstore\n      0x20\n      add\n      0x02\n      dup3\n      add\n      dup1\n      sload\n      tag_51\n      swap1\n      tag_41\n      jump\t// in\n    tag_51:\n      dup1\n      0x1f\n      add\n      0x20\n      dup1\n      swap2\n      div\n      mul\n      0x20\n      add\n      mload(0x40)\n      swap1\n      dup2\n      add\n      0x40\n      mstore\n      dup1\n      swap3\n      swap2\n      swap1\n      dup2\n      dup2\n      mstore\n      0x20\n      add\n      dup3\n      dup1\n      sload\n      tag_52\n      swap1\n      tag_41\n      jump\t// in\n    tag_52:\n      dup1\n      iszero\n      tag_53\n      jumpi\n      dup1\n      0x1f\n      lt\n      tag_54\n      jumpi\n      0x0100\n      dup1\n      dup4\n      sload\n      div\n      mul\n      dup4\n      mstore\n      swap2\n      0x20\n      add\n      swap2\n      jump(tag_53)\n    tag_54:\n      dup3\n      add\n      swap2\n      swap1\n      0x00\n      mstore\n      keccak256(0x00, 0x20)\n      swap1\n    tag_55:\n      dup2\n      sload\n      dup2\n      mstore\n      swap1\n      0x01\n      add\n      swap1\n      0x20\n      add\n      dup1\n      dup4\n      gt\n      tag_55\n      jumpi\n      dup3\n      swap1\n      sub\n      0x1f\n      and\n      dup3\n      add\n      swap2\n    tag_53:\n      pop\n      pop\n      pop\n      pop\n      pop\n      dup2\n      mstore\n      0x20\n      add\n      0x03\n      dup3\n      add\n      sload\n      dup2\n      mstore\n      pop\n      pop\n      swap2\n      pop\n      pop\n        /* \"contracts/Halal.sol\":1415:1605  function get_account(string memory account_id) public view returns(accountData memory){... */\n      swap2\n      swap1\n      pop\n      jump\t// out\n        /* \"contracts/Halal.sol\":1611:2012  function add_transaction(... */\n    tag_17:\n        /* \"contracts/Halal.sol\":1755:1762  bytes32 */\n      0x00\n        /* \"contracts/Halal.sol\":1774:1784  bytes32 id */\n      dup1\n        /* \"contracts/Halal.sol\":1814:1828  transaction_id */\n      dup5\n        /* \"contracts/Halal.sol\":1797:1829  abi.encodePacked(transaction_id) */\n      add(0x20, mload(0x40))\n      tag_57\n      swap2\n      swap1\n      tag_39\n      jump\t// in\n    tag_57:\n      mload(0x40)\n      0x20\n      dup2\n      dup4\n      sub\n      sub\n      dup2\n      mstore\n      swap1\n      0x40\n      mstore\n        /* \"contracts/Halal.sol\":1787:1830  keccak256(abi.encodePacked(transaction_id)) */\n      dup1\n      mload\n      swap1\n      0x20\n      add\n      keccak256\n        /* \"contracts/Halal.sol\":1774:1830  bytes32 id = keccak256(abi.encodePacked(transaction_id)) */\n      swap1\n      pop\n        /* \"contracts/Halal.sol\":1840:1864  transaction memory trans */\n      0x00\n        /* \"contracts/Halal.sol\":1867:1885  mappingTransaction */\n      0x01\n        /* \"contracts/Halal.sol\":1867:1889  mappingTransaction[id] */\n      0x00\n        /* \"contracts/Halal.sol\":1886:1888  id */\n      dup4\n        /* \"contracts/Halal.sol\":1867:1889  mappingTransaction[id] */\n      dup2\n      mstore\n      0x20\n      add\n      swap1\n      dup2\n      mstore\n      0x20\n      add\n      0x00\n      keccak256\n        /* \"contracts/Halal.sol\":1840:1889  transaction memory trans = mappingTransaction[id] */\n      mload(0x40)\n      dup1\n      0x40\n      add\n      0x40\n      mstore\n      swap1\n      dup2\n      0x00\n      dup3\n      add\n      dup1\n      sload\n      tag_58\n      swap1\n      tag_41\n      jump\t// in\n    tag_58:\n      dup1\n      0x1f\n      add\n      0x20\n      dup1\n      swap2\n      div\n      mul\n      0x20\n      add\n      mload(0x40)\n      swap1\n      dup2\n      add\n      0x40\n      mstore\n      dup1\n      swap3\n      swap2\n      swap1\n      dup2\n      dup2\n      mstore\n      0x20\n      add\n      dup3\n      dup1\n      sload\n      tag_59\n      swap1\n      tag_41\n      jump\t// in\n    tag_59:\n      dup1\n      iszero\n      tag_60\n      jumpi\n      dup1\n      0x1f\n      lt\n      tag_61\n      jumpi\n      0x0100\n      dup1\n      dup4\n      sload\n      div\n      mul\n      dup4\n      mstore\n      swap2\n      0x20\n      add\n      swap2\n      jump(tag_60)\n    tag_61:\n      dup3\n      add\n      swap2\n      swap1\n      0x00\n      mstore\n      keccak256(0x00, 0x20)\n      swap1\n    tag_62:\n      dup2\n      sload\n      dup2\n      mstore\n      swap1\n      0x01\n      add\n      swap1\n      0x20\n      add\n      dup1\n      dup4\n      gt\n      tag_62\n      jumpi\n      dup3\n      swap1\n      sub\n      0x1f\n      and\n      dup3\n      add\n      swap2\n    tag_60:\n      pop\n      pop\n      pop\n      pop\n      pop\n      dup2\n      mstore\n      0x20\n      add\n      0x01\n      dup3\n      add\n      dup1\n      sload\n      tag_63\n      swap1\n      tag_41\n      jump\t// in\n    tag_63:\n      dup1\n      0x1f\n      add\n      0x20\n      dup1\n      swap2\n      div\n      mul\n      0x20\n      add\n      mload(0x40)\n      swap1\n      dup2\n      add\n      0x40\n      mstore\n      dup1\n      swap3\n      swap2\n      swap1\n      dup2\n      dup2\n      mstore\n      0x20\n      add\n      dup3\n      dup1\n      sload\n      tag_64\n      swap1\n      tag_41\n      jump\t// in\n    tag_64:\n      dup1\n      iszero\n      tag_65\n      jumpi\n      dup1\n      0x1f\n      lt\n      tag_66\n      jumpi\n      0x0100\n      dup1\n      dup4\n      sload\n      div\n      mul\n      dup4\n      mstore\n      swap2\n      0x20\n      add\n      swap2\n      jump(tag_65)\n    tag_66:\n      dup3\n      add\n      swap2\n      swap1\n      0x00\n      mstore\n      keccak256(0x00, 0x20)\n      swap1\n    tag_67:\n      dup2\n      sload\n      dup2\n      mstore\n      swap1\n      0x01\n      add\n      swap1\n      0x20\n      add\n      dup1\n      dup4\n      gt\n      tag_67\n      jumpi\n      dup3\n      swap1\n      sub\n      0x1f\n      and\n      dup3\n      add\n      swap2\n    tag_65:\n      pop\n      pop\n      pop\n      pop\n      pop\n      dup2\n      mstore\n      pop\n      pop\n      swap1\n      pop\n        /* \"contracts/Halal.sol\":1915:1922  user_id */\n      dup5\n        /* \"contracts/Halal.sol\":1899:1904  trans */\n      dup2\n        /* \"contracts/Halal.sol\":1899:1912  trans.user_id */\n      0x00\n      add\n        /* \"contracts/Halal.sol\":1899:1922  trans.user_id = user_id */\n      dup2\n      swap1\n      mstore\n      pop\n        /* \"contracts/Halal.sol\":1945:1949  data */\n      dup4\n        /* \"contracts/Halal.sol\":1932:1937  trans */\n      dup2\n        /* \"contracts/Halal.sol\":1932:1942  trans.data */\n      0x20\n      add\n        /* \"contracts/Halal.sol\":1932:1949  trans.data = data */\n      dup2\n      swap1\n      mstore\n      pop\n        /* \"contracts/Halal.sol\":1964:1986  success(\"success\", id) */\n      0xc8922d91fbabbe8df5d667708c678575856a856a2a465ebd9626a40ab6a16f5f\n        /* \"contracts/Halal.sol\":1983:1985  id */\n      dup3\n        /* \"contracts/Halal.sol\":1964:1986  success(\"success\", id) */\n      mload(0x40)\n      tag_68\n      swap2\n      swap1\n      tag_69\n      jump\t// in\n    tag_68:\n      mload(0x40)\n      dup1\n      swap2\n      sub\n      swap1\n      log1\n        /* \"contracts/Halal.sol\":2003:2005  id */\n      dup2\n        /* \"contracts/Halal.sol\":1996:2005  return id */\n      swap3\n      pop\n      pop\n      pop\n        /* \"contracts/Halal.sol\":1611:2012  function add_transaction(... */\n      swap4\n      swap3\n      pop\n      pop\n      pop\n      jump\t// out\n        /* \"contracts/Halal.sol\":881:1409  function add_account(... */\n    tag_23:\n        /* \"contracts/Halal.sol\":1015:1022  bytes32 */\n      0x00\n        /* \"contracts/Halal.sol\":1033:1043  bytes32 id */\n      dup1\n        /* \"contracts/Halal.sol\":1073:1083  account_id */\n      dup5\n        /* \"contracts/Halal.sol\":1056:1084  abi.encodePacked(account_id) */\n      add(0x20, mload(0x40))\n      tag_71\n      swap2\n      swap1\n      tag_39\n      jump\t// in\n    tag_71:\n      mload(0x40)\n      0x20\n      dup2\n      dup4\n      sub\n      sub\n      dup2\n      mstore\n      swap1\n      0x40\n      mstore\n        /* \"contracts/Halal.sol\":1046:1085  keccak256(abi.encodePacked(account_id)) */\n      dup1\n      mload\n      swap1\n      0x20\n      add\n      keccak256\n        /* \"contracts/Halal.sol\":1033:1085  bytes32 id = keccak256(abi.encodePacked(account_id)) */\n      swap1\n      pop\n        /* \"contracts/Halal.sol\":1103:1134  account_checker(id, account_id) */\n      tag_72\n        /* \"contracts/Halal.sol\":1119:1121  id */\n      dup2\n        /* \"contracts/Halal.sol\":1123:1133  account_id */\n      dup7\n        /* \"contracts/Halal.sol\":1103:1118  account_checker */\n      tag_73\n        /* \"contracts/Halal.sol\":1103:1134  account_checker(id, account_id) */\n      jump\t// in\n    tag_72:\n        /* \"contracts/Halal.sol\":1095:1163  require(account_checker(id, account_id), \"Account already existing\") */\n      tag_74\n      jumpi\n      mload(0x40)\n      0x08c379a000000000000000000000000000000000000000000000000000000000\n      dup2\n      mstore\n      0x04\n      add\n      tag_75\n      swap1\n      tag_76\n      jump\t// in\n    tag_75:\n      mload(0x40)\n      dup1\n      swap2\n      sub\n      swap1\n      revert\n    tag_74:\n        /* \"contracts/Halal.sol\":1173:1196  accountData storage acc */\n      0x00\n        /* \"contracts/Halal.sol\":1199:1213  mappingAccount */\n      dup1\n        /* \"contracts/Halal.sol\":1199:1217  mappingAccount[id] */\n      0x00\n        /* \"contracts/Halal.sol\":1214:1216  id */\n      dup4\n        /* \"contracts/Halal.sol\":1199:1217  mappingAccount[id] */\n      dup2\n      mstore\n      0x20\n      add\n      swap1\n      dup2\n      mstore\n      0x20\n      add\n      0x00\n      keccak256\n        /* \"contracts/Halal.sol\":1173:1217  accountData storage acc = mappingAccount[id] */\n      swap1\n      pop\n        /* \"contracts/Halal.sol\":1244:1254  account_id */\n      dup6\n        /* \"contracts/Halal.sol\":1227:1230  acc */\n      dup2\n        /* \"contracts/Halal.sol\":1227:1241  acc.account_id */\n      0x00\n      add\n        /* \"contracts/Halal.sol\":1227:1254  acc.account_id = account_id */\n      swap1\n      dup1\n      mload\n      swap1\n      0x20\n      add\n      swap1\n      tag_77\n      swap3\n      swap2\n      swap1\n      tag_78\n      jump\t// in\n    tag_77:\n      pop\n        /* \"contracts/Halal.sol\":1275:1279  name */\n      dup5\n        /* \"contracts/Halal.sol\":1264:1267  acc */\n      dup2\n        /* \"contracts/Halal.sol\":1264:1272  acc.name */\n      0x01\n      add\n        /* \"contracts/Halal.sol\":1264:1279  acc.name = name */\n      swap1\n      dup1\n      mload\n      swap1\n      0x20\n      add\n      swap1\n      tag_79\n      swap3\n      swap2\n      swap1\n      tag_78\n      jump\t// in\n    tag_79:\n      pop\n        /* \"contracts/Halal.sol\":1300:1304  role */\n      dup4\n        /* \"contracts/Halal.sol\":1289:1292  acc */\n      dup2\n        /* \"contracts/Halal.sol\":1289:1297  acc.role */\n      0x02\n      add\n        /* \"contracts/Halal.sol\":1289:1304  acc.role = role */\n      swap1\n      dup1\n      mload\n      swap1\n      0x20\n      add\n      swap1\n      tag_80\n      swap3\n      swap2\n      swap1\n      tag_78\n      jump\t// in\n    tag_80:\n      pop\n        /* \"contracts/Halal.sol\":1331:1346  block.timestamp */\n      timestamp\n        /* \"contracts/Halal.sol\":1314:1317  acc */\n      dup2\n        /* \"contracts/Halal.sol\":1314:1328  acc.created_at */\n      0x03\n      add\n        /* \"contracts/Halal.sol\":1314:1346  acc.created_at = block.timestamp */\n      dup2\n      swap1\n      sstore\n      pop\n        /* \"contracts/Halal.sol\":1361:1383  success(\"success\", id) */\n      0xc8922d91fbabbe8df5d667708c678575856a856a2a465ebd9626a40ab6a16f5f\n        /* \"contracts/Halal.sol\":1380:1382  id */\n      dup3\n        /* \"contracts/Halal.sol\":1361:1383  success(\"success\", id) */\n      mload(0x40)\n      tag_81\n      swap2\n      swap1\n      tag_69\n      jump\t// in\n    tag_81:\n      mload(0x40)\n      dup1\n      swap2\n      sub\n      swap1\n      log1\n        /* \"contracts/Halal.sol\":1400:1402  id */\n      dup2\n        /* \"contracts/Halal.sol\":1393:1402  return id */\n      swap3\n      pop\n      pop\n      pop\n        /* \"contracts/Halal.sol\":881:1409  function add_account(... */\n      swap4\n      swap3\n      pop\n      pop\n      pop\n      jump\t// out\n        /* \"contracts/Halal.sol\":2233:2646  function add_certificate(string memory umkm_id, string memory cert_id, uint expired_at) external view returns(bytes32){... */\n    tag_28:\n        /* \"contracts/Halal.sol\":2343:2350  bytes32 */\n      0x00\n        /* \"contracts/Halal.sol\":2361:2371  bytes32 id */\n      dup1\n        /* \"contracts/Halal.sol\":2401:2408  umkm_id */\n      dup5\n        /* \"contracts/Halal.sol\":2384:2409  abi.encodePacked(umkm_id) */\n      add(0x20, mload(0x40))\n      tag_83\n      swap2\n      swap1\n      tag_39\n      jump\t// in\n    tag_83:\n      mload(0x40)\n      0x20\n      dup2\n      dup4\n      sub\n      sub\n      dup2\n      mstore\n      swap1\n      0x40\n      mstore\n        /* \"contracts/Halal.sol\":2374:2410  keccak256(abi.encodePacked(umkm_id)) */\n      dup1\n      mload\n      swap1\n      0x20\n      add\n      keccak256\n        /* \"contracts/Halal.sol\":2361:2410  bytes32 id = keccak256(abi.encodePacked(umkm_id)) */\n      swap1\n      pop\n        /* \"contracts/Halal.sol\":2420:2443  certificate memory cert */\n      0x00\n        /* \"contracts/Halal.sol\":2446:2464  mappingCertificate */\n      0x02\n        /* \"contracts/Halal.sol\":2446:2468  mappingCertificate[id] */\n      0x00\n        /* \"contracts/Halal.sol\":2465:2467  id */\n      dup4\n        /* \"contracts/Halal.sol\":2446:2468  mappingCertificate[id] */\n      dup2\n      mstore\n      0x20\n      add\n      swap1\n      dup2\n      mstore\n      0x20\n      add\n      0x00\n      keccak256\n        /* \"contracts/Halal.sol\":2420:2468  certificate memory cert = mappingCertificate[id] */\n      mload(0x40)\n      dup1\n      0x80\n      add\n      0x40\n      mstore\n      swap1\n      dup2\n      0x00\n      dup3\n      add\n      dup1\n      sload\n      tag_84\n      swap1\n      tag_41\n      jump\t// in\n    tag_84:\n      dup1\n      0x1f\n      add\n      0x20\n      dup1\n      swap2\n      div\n      mul\n      0x20\n      add\n      mload(0x40)\n      swap1\n      dup2\n      add\n      0x40\n      mstore\n      dup1\n      swap3\n      swap2\n      swap1\n      dup2\n      dup2\n      mstore\n      0x20\n      add\n      dup3\n      dup1\n      sload\n      tag_85\n      swap1\n      tag_41\n      jump\t// in\n    tag_85:\n      dup1\n      iszero\n      tag_86\n      jumpi\n      dup1\n      0x1f\n      lt\n      tag_87\n      jumpi\n      0x0100\n      dup1\n      dup4\n      sload\n      div\n      mul\n      dup4\n      mstore\n      swap2\n      0x20\n      add\n      swap2\n      jump(tag_86)\n    tag_87:\n      dup3\n      add\n      swap2\n      swap1\n      0x00\n      mstore\n      keccak256(0x00, 0x20)\n      swap1\n    tag_88:\n      dup2\n      sload\n      dup2\n      mstore\n      swap1\n      0x01\n      add\n      swap1\n      0x20\n      add\n      dup1\n      dup4\n      gt\n      tag_88\n      jumpi\n      dup3\n      swap1\n      sub\n      0x1f\n      and\n      dup3\n      add\n      swap2\n    tag_86:\n      pop\n      pop\n      pop\n      pop\n      pop\n      dup2\n      mstore\n      0x20\n      add\n      0x01\n      dup3\n      add\n      dup1\n      sload\n      tag_89\n      swap1\n      tag_41\n      jump\t// in\n    tag_89:\n      dup1\n      0x1f\n      add\n      0x20\n      dup1\n      swap2\n      div\n      mul\n      0x20\n      add\n      mload(0x40)\n      swap1\n      dup2\n      add\n      0x40\n      mstore\n      dup1\n      swap3\n      swap2\n      swap1\n      dup2\n      dup2\n      mstore\n      0x20\n      add\n      dup3\n      dup1\n      sload\n      tag_90\n      swap1\n      tag_41\n      jump\t// in\n    tag_90:\n      dup1\n      iszero\n      tag_91\n      jumpi\n      dup1\n      0x1f\n      lt\n      tag_92\n      jumpi\n      0x0100\n      dup1\n      dup4\n      sload\n      div\n      mul\n      dup4\n      mstore\n      swap2\n      0x20\n      add\n      swap2\n      jump(tag_91)\n    tag_92:\n      dup3\n      add\n      swap2\n      swap1\n      0x00\n      mstore\n      keccak256(0x00, 0x20)\n      swap1\n    tag_93:\n      dup2\n      sload\n      dup2\n      mstore\n      swap1\n      0x01\n      add\n      swap1\n      0x20\n      add\n      dup1\n      dup4\n      gt\n      tag_93\n      jumpi\n      dup3\n      swap1\n      sub\n      0x1f\n      and\n      dup3\n      add\n      swap2\n    tag_91:\n      pop\n      pop\n      pop\n      pop\n      pop\n      dup2\n      mstore\n      0x20\n      add\n      0x02\n      dup3\n      add\n      sload\n      dup2\n      mstore\n      0x20\n      add\n      0x03\n      dup3\n      add\n      sload\n      dup2\n      mstore\n      pop\n      pop\n      swap1\n      pop\n        /* \"contracts/Halal.sol\":2493:2500  umkm_id */\n      dup6\n        /* \"contracts/Halal.sol\":2478:2482  cert */\n      dup2\n        /* \"contracts/Halal.sol\":2478:2490  cert.umkm_id */\n      0x00\n      add\n        /* \"contracts/Halal.sol\":2478:2500  cert.umkm_id = umkm_id */\n      dup2\n      swap1\n      mstore\n      pop\n        /* \"contracts/Halal.sol\":2532:2539  cert_id */\n      dup5\n        /* \"contracts/Halal.sol\":2510:2514  cert */\n      dup2\n        /* \"contracts/Halal.sol\":2510:2529  cert.certificate_id */\n      0x20\n      add\n        /* \"contracts/Halal.sol\":2510:2539  cert.certificate_id = cert_id */\n      dup2\n      swap1\n      mstore\n      pop\n        /* \"contracts/Halal.sol\":2567:2582  block.timestamp */\n      timestamp\n        /* \"contracts/Halal.sol\":2549:2553  cert */\n      dup2\n        /* \"contracts/Halal.sol\":2549:2564  cert.created_at */\n      0x40\n      add\n        /* \"contracts/Halal.sol\":2549:2582  cert.created_at = block.timestamp */\n      dup2\n      dup2\n      mstore\n      pop\n      pop\n        /* \"contracts/Halal.sol\":2610:2620  expired_at */\n      dup4\n        /* \"contracts/Halal.sol\":2592:2596  cert */\n      dup2\n        /* \"contracts/Halal.sol\":2592:2607  cert.expired_at */\n      0x60\n      add\n        /* \"contracts/Halal.sol\":2592:2620  cert.expired_at = expired_at */\n      dup2\n      dup2\n      mstore\n      pop\n      pop\n        /* \"contracts/Halal.sol\":2637:2639  id */\n      dup2\n        /* \"contracts/Halal.sol\":2630:2639  return id */\n      swap3\n      pop\n      pop\n      pop\n        /* \"contracts/Halal.sol\":2233:2646  function add_certificate(string memory umkm_id, string memory cert_id, uint expired_at) external view returns(bytes32){... */\n      swap4\n      swap3\n      pop\n      pop\n      pop\n      jump\t// out\n        /* \"contracts/Halal.sol\":2018:2227  function get_transaction(string memory transaction_id) external view returns(transaction memory){... */\n    tag_32:\n        /* \"contracts/Halal.sol\":2095:2113  transaction memory */\n      tag_94\n      tag_95\n      jump\t// in\n    tag_94:\n        /* \"contracts/Halal.sol\":2124:2134  bytes32 id */\n      0x00\n        /* \"contracts/Halal.sol\":2164:2178  transaction_id */\n      dup3\n        /* \"contracts/Halal.sol\":2147:2179  abi.encodePacked(transaction_id) */\n      add(0x20, mload(0x40))\n      tag_97\n      swap2\n      swap1\n      tag_39\n      jump\t// in\n    tag_97:\n      mload(0x40)\n      0x20\n      dup2\n      dup4\n      sub\n      sub\n      dup2\n      mstore\n      swap1\n      0x40\n      mstore\n        /* \"contracts/Halal.sol\":2137:2180  keccak256(abi.encodePacked(transaction_id)) */\n      dup1\n      mload\n      swap1\n      0x20\n      add\n      keccak256\n        /* \"contracts/Halal.sol\":2124:2180  bytes32 id = keccak256(abi.encodePacked(transaction_id)) */\n      swap1\n      pop\n        /* \"contracts/Halal.sol\":2197:2215  mappingTransaction */\n      0x01\n        /* \"contracts/Halal.sol\":2197:2219  mappingTransaction[id] */\n      0x00\n        /* \"contracts/Halal.sol\":2216:2218  id */\n      dup3\n        /* \"contracts/Halal.sol\":2197:2219  mappingTransaction[id] */\n      dup2\n      mstore\n      0x20\n      add\n      swap1\n      dup2\n      mstore\n      0x20\n      add\n      0x00\n      keccak256\n        /* \"contracts/Halal.sol\":2190:2219  return mappingTransaction[id] */\n      mload(0x40)\n      dup1\n      0x40\n      add\n      0x40\n      mstore\n      swap1\n      dup2\n      0x00\n      dup3\n      add\n      dup1\n      sload\n      tag_98\n      swap1\n      tag_41\n      jump\t// in\n    tag_98:\n      dup1\n      0x1f\n      add\n      0x20\n      dup1\n      swap2\n      div\n      mul\n      0x20\n      add\n      mload(0x40)\n      swap1\n      dup2\n      add\n      0x40\n      mstore\n      dup1\n      swap3\n      swap2\n      swap1\n      dup2\n      dup2\n      mstore\n      0x20\n      add\n      dup3\n      dup1\n      sload\n      tag_99\n      swap1\n      tag_41\n      jump\t// in\n    tag_99:\n      dup1\n      iszero\n      tag_100\n      jumpi\n      dup1\n      0x1f\n      lt\n      tag_101\n      jumpi\n      0x0100\n      dup1\n      dup4\n      sload\n      div\n      mul\n      dup4\n      mstore\n      swap2\n      0x20\n      add\n      swap2\n      jump(tag_100)\n    tag_101:\n      dup3\n      add\n      swap2\n      swap1\n      0x00\n      mstore\n      keccak256(0x00, 0x20)\n      swap1\n    tag_102:\n      dup2\n      sload\n      dup2\n      mstore\n      swap1\n      0x01\n      add\n      swap1\n      0x20\n      add\n      dup1\n      dup4\n      gt\n      tag_102\n      jumpi\n      dup3\n      swap1\n      sub\n      0x1f\n      and\n      dup3\n      add\n      swap2\n    tag_100:\n      pop\n      pop\n      pop\n      pop\n      pop\n      dup2\n      mstore\n      0x20\n      add\n      0x01\n      dup3\n      add\n      dup1\n      sload\n      tag_103\n      swap1\n      tag_41\n      jump\t// in\n    tag_103:\n      dup1\n      0x1f\n      add\n      0x20\n      dup1\n      swap2\n      div\n      mul\n      0x20\n      add\n      mload(0x40)\n      swap1\n      dup2\n      add\n      0x40\n      mstore\n      dup1\n      swap3\n      swap2\n      swap1\n      dup2\n      dup2\n      mstore\n      0x20\n      add\n      dup3\n      dup1\n      sload\n      tag_104\n      swap1\n      tag_41\n      jump\t// in\n    tag_104:\n      dup1\n      iszero\n      tag_105\n      jumpi\n      dup1\n      0x1f\n      lt\n      tag_106\n      jumpi\n      0x0100\n      dup1\n      dup4\n      sload\n      div\n      mul\n      dup4\n      mstore\n      swap2\n      0x20\n      add\n      swap2\n      jump(tag_105)\n    tag_106:\n      dup3\n      add\n      swap2\n      swap1\n      0x00\n      mstore\n      keccak256(0x00, 0x20)\n      swap1\n    tag_107:\n      dup2\n      sload\n      dup2\n      mstore\n      swap1\n      0x01\n      add\n      swap1\n      0x20\n      add\n      dup1\n      dup4\n      gt\n      tag_107\n      jumpi\n      dup3\n      swap1\n      sub\n      0x1f\n      and\n      dup3\n      add\n      swap2\n    tag_105:\n      pop\n      pop\n      pop\n      pop\n      pop\n      dup2\n      mstore\n      pop\n      pop\n      swap2\n      pop\n      pop\n        /* \"contracts/Halal.sol\":2018:2227  function get_transaction(string memory transaction_id) external view returns(transaction memory){... */\n      swap2\n      swap1\n      pop\n      jump\t// out\n        /* \"contracts/Halal.sol\":667:875  function account_checker(bytes32 id, string memory umkm_id) private view returns(bool){... */\n    tag_73:\n        /* \"contracts/Halal.sol\":748:752  bool */\n      0x00\n        /* \"contracts/Halal.sol\":859:866  umkm_id */\n      dup2\n        /* \"contracts/Halal.sol\":842:867  abi.encodePacked(umkm_id) */\n      add(0x20, mload(0x40))\n      tag_109\n      swap2\n      swap1\n      tag_39\n      jump\t// in\n    tag_109:\n      mload(0x40)\n      0x20\n      dup2\n      dup4\n      sub\n      sub\n      dup2\n      mstore\n      swap1\n      0x40\n      mstore\n        /* \"contracts/Halal.sol\":832:868  keccak256(abi.encodePacked(umkm_id)) */\n      dup1\n      mload\n      swap1\n      0x20\n      add\n      keccak256\n        /* \"contracts/Halal.sol\":797:811  mappingAccount */\n      0x00\n        /* \"contracts/Halal.sol\":797:815  mappingAccount[id] */\n      dup1\n        /* \"contracts/Halal.sol\":812:814  id */\n      dup6\n        /* \"contracts/Halal.sol\":797:815  mappingAccount[id] */\n      dup2\n      mstore\n      0x20\n      add\n      swap1\n      dup2\n      mstore\n      0x20\n      add\n      0x00\n      keccak256\n        /* \"contracts/Halal.sol\":797:826  mappingAccount[id].account_id */\n      0x00\n      add\n        /* \"contracts/Halal.sol\":780:827  abi.encodePacked(mappingAccount[id].account_id) */\n      add(0x20, mload(0x40))\n      tag_110\n      swap2\n      swap1\n      tag_111\n      jump\t// in\n    tag_110:\n      mload(0x40)\n      0x20\n      dup2\n      dup4\n      sub\n      sub\n      dup2\n      mstore\n      swap1\n      0x40\n      mstore\n        /* \"contracts/Halal.sol\":770:828  keccak256(abi.encodePacked(mappingAccount[id].account_id)) */\n      dup1\n      mload\n      swap1\n      0x20\n      add\n      keccak256\n        /* \"contracts/Halal.sol\":770:868  keccak256(abi.encodePacked(mappingAccount[id].account_id)) != keccak256(abi.encodePacked(umkm_id)) */\n      eq\n      iszero\n        /* \"contracts/Halal.sol\":763:868  return keccak256(abi.encodePacked(mappingAccount[id].account_id)) != keccak256(abi.encodePacked(umkm_id)) */\n      swap1\n      pop\n        /* \"contracts/Halal.sol\":667:875  function account_checker(bytes32 id, string memory umkm_id) private view returns(bool){... */\n      swap3\n      swap2\n      pop\n      pop\n      jump\t// out\n    tag_36:\n      mload(0x40)\n      dup1\n      0x80\n      add\n      0x40\n      mstore\n      dup1\n      0x60\n      dup2\n      mstore\n      0x20\n      add\n      0x60\n      dup2\n      mstore\n      0x20\n      add\n      0x60\n      dup2\n      mstore\n      0x20\n      add\n      0x00\n      dup2\n      mstore\n      pop\n      swap1\n      jump\t// out\n    tag_78:\n      dup3\n      dup1\n      sload\n      tag_112\n      swap1\n      tag_41\n      jump\t// in\n    tag_112:\n      swap1\n      0x00\n      mstore\n      keccak256(0x00, 0x20)\n      swap1\n      0x1f\n      add\n      0x20\n      swap1\n      div\n      dup2\n      add\n      swap3\n      dup3\n      tag_114\n      jumpi\n      0x00\n      dup6\n      sstore\n      jump(tag_113)\n    tag_114:\n      dup3\n      0x1f\n      lt\n      tag_115\n      jumpi\n      dup1\n      mload\n      not(0xff)\n      and\n      dup4\n      dup1\n      add\n      or\n      dup6\n      sstore\n      jump(tag_113)\n    tag_115:\n      dup3\n      dup1\n      add\n      0x01\n      add\n      dup6\n      sstore\n      dup3\n      iszero\n      tag_113\n      jumpi\n      swap2\n      dup3\n      add\n    tag_116:\n      dup3\n      dup2\n      gt\n      iszero\n      tag_117\n      jumpi\n      dup3\n      mload\n      dup3\n      sstore\n      swap2\n      0x20\n      add\n      swap2\n      swap1\n      0x01\n      add\n      swap1\n      jump(tag_116)\n    tag_117:\n    tag_113:\n      pop\n      swap1\n      pop\n      tag_118\n      swap2\n      swap1\n      tag_119\n      jump\t// in\n    tag_118:\n      pop\n      swap1\n      jump\t// out\n    tag_95:\n      mload(0x40)\n      dup1\n      0x40\n      add\n      0x40\n      mstore\n      dup1\n      0x60\n      dup2\n      mstore\n      0x20\n      add\n      0x60\n      dup2\n      mstore\n      pop\n      swap1\n      jump\t// out\n    tag_119:\n    tag_120:\n      dup1\n      dup3\n      gt\n      iszero\n      tag_121\n      jumpi\n      0x00\n      dup2\n      0x00\n      swap1\n      sstore\n      pop\n      0x01\n      add\n      jump(tag_120)\n    tag_121:\n      pop\n      swap1\n      jump\t// out\n        /* \"#utility.yul\":7:417   */\n    tag_123:\n        /* \"#utility.yul\":84:89   */\n      0x00\n        /* \"#utility.yul\":109:174   */\n      tag_125\n        /* \"#utility.yul\":125:173   */\n      tag_126\n        /* \"#utility.yul\":166:172   */\n      dup5\n        /* \"#utility.yul\":125:173   */\n      tag_127\n      jump\t// in\n    tag_126:\n        /* \"#utility.yul\":109:174   */\n      tag_128\n      jump\t// in\n    tag_125:\n        /* \"#utility.yul\":100:174   */\n      swap1\n      pop\n        /* \"#utility.yul\":197:203   */\n      dup3\n        /* \"#utility.yul\":190:195   */\n      dup2\n        /* \"#utility.yul\":183:204   */\n      mstore\n        /* \"#utility.yul\":235:239   */\n      0x20\n        /* \"#utility.yul\":228:233   */\n      dup2\n        /* \"#utility.yul\":224:240   */\n      add\n        /* \"#utility.yul\":273:276   */\n      dup5\n        /* \"#utility.yul\":264:270   */\n      dup5\n        /* \"#utility.yul\":259:262   */\n      dup5\n        /* \"#utility.yul\":255:271   */\n      add\n        /* \"#utility.yul\":252:277   */\n      gt\n        /* \"#utility.yul\":249:361   */\n      iszero\n      tag_129\n      jumpi\n        /* \"#utility.yul\":280:359   */\n      tag_130\n      tag_131\n      jump\t// in\n    tag_130:\n        /* \"#utility.yul\":249:361   */\n    tag_129:\n        /* \"#utility.yul\":370:411   */\n      tag_132\n        /* \"#utility.yul\":404:410   */\n      dup5\n        /* \"#utility.yul\":399:402   */\n      dup3\n        /* \"#utility.yul\":394:397   */\n      dup6\n        /* \"#utility.yul\":370:411   */\n      tag_133\n      jump\t// in\n    tag_132:\n        /* \"#utility.yul\":90:417   */\n      pop\n        /* \"#utility.yul\":7:417   */\n      swap4\n      swap3\n      pop\n      pop\n      pop\n      jump\t// out\n        /* \"#utility.yul\":423:835   */\n    tag_134:\n        /* \"#utility.yul\":501:506   */\n      0x00\n        /* \"#utility.yul\":526:592   */\n      tag_136\n        /* \"#utility.yul\":542:591   */\n      tag_137\n        /* \"#utility.yul\":584:590   */\n      dup5\n        /* \"#utility.yul\":542:591   */\n      tag_138\n      jump\t// in\n    tag_137:\n        /* \"#utility.yul\":526:592   */\n      tag_128\n      jump\t// in\n    tag_136:\n        /* \"#utility.yul\":517:592   */\n      swap1\n      pop\n        /* \"#utility.yul\":615:621   */\n      dup3\n        /* \"#utility.yul\":608:613   */\n      dup2\n        /* \"#utility.yul\":601:622   */\n      mstore\n        /* \"#utility.yul\":653:657   */\n      0x20\n        /* \"#utility.yul\":646:651   */\n      dup2\n        /* \"#utility.yul\":642:658   */\n      add\n        /* \"#utility.yul\":691:694   */\n      dup5\n        /* \"#utility.yul\":682:688   */\n      dup5\n        /* \"#utility.yul\":677:680   */\n      dup5\n        /* \"#utility.yul\":673:689   */\n      add\n        /* \"#utility.yul\":670:695   */\n      gt\n        /* \"#utility.yul\":667:779   */\n      iszero\n      tag_139\n      jumpi\n        /* \"#utility.yul\":698:777   */\n      tag_140\n      tag_131\n      jump\t// in\n    tag_140:\n        /* \"#utility.yul\":667:779   */\n    tag_139:\n        /* \"#utility.yul\":788:829   */\n      tag_141\n        /* \"#utility.yul\":822:828   */\n      dup5\n        /* \"#utility.yul\":817:820   */\n      dup3\n        /* \"#utility.yul\":812:815   */\n      dup6\n        /* \"#utility.yul\":788:829   */\n      tag_133\n      jump\t// in\n    tag_141:\n        /* \"#utility.yul\":507:835   */\n      pop\n        /* \"#utility.yul\":423:835   */\n      swap4\n      swap3\n      pop\n      pop\n      pop\n      jump\t// out\n        /* \"#utility.yul\":854:1192   */\n    tag_142:\n        /* \"#utility.yul\":909:914   */\n      0x00\n        /* \"#utility.yul\":958:961   */\n      dup3\n        /* \"#utility.yul\":951:955   */\n      0x1f\n        /* \"#utility.yul\":943:949   */\n      dup4\n        /* \"#utility.yul\":939:956   */\n      add\n        /* \"#utility.yul\":935:962   */\n      slt\n        /* \"#utility.yul\":925:1047   */\n      tag_144\n      jumpi\n        /* \"#utility.yul\":966:1045   */\n      tag_145\n      tag_146\n      jump\t// in\n    tag_145:\n        /* \"#utility.yul\":925:1047   */\n    tag_144:\n        /* \"#utility.yul\":1083:1089   */\n      dup2\n        /* \"#utility.yul\":1070:1090   */\n      calldataload\n        /* \"#utility.yul\":1108:1186   */\n      tag_147\n        /* \"#utility.yul\":1182:1185   */\n      dup5\n        /* \"#utility.yul\":1174:1180   */\n      dup3\n        /* \"#utility.yul\":1167:1171   */\n      0x20\n        /* \"#utility.yul\":1159:1165   */\n      dup7\n        /* \"#utility.yul\":1155:1172   */\n      add\n        /* \"#utility.yul\":1108:1186   */\n      tag_123\n      jump\t// in\n    tag_147:\n        /* \"#utility.yul\":1099:1186   */\n      swap2\n      pop\n        /* \"#utility.yul\":915:1192   */\n      pop\n        /* \"#utility.yul\":854:1192   */\n      swap3\n      swap2\n      pop\n      pop\n      jump\t// out\n        /* \"#utility.yul\":1212:1552   */\n    tag_148:\n        /* \"#utility.yul\":1268:1273   */\n      0x00\n        /* \"#utility.yul\":1317:1320   */\n      dup3\n        /* \"#utility.yul\":1310:1314   */\n      0x1f\n        /* \"#utility.yul\":1302:1308   */\n      dup4\n        /* \"#utility.yul\":1298:1315   */\n      add\n        /* \"#utility.yul\":1294:1321   */\n      slt\n        /* \"#utility.yul\":1284:1406   */\n      tag_150\n      jumpi\n        /* \"#utility.yul\":1325:1404   */\n      tag_151\n      tag_146\n      jump\t// in\n    tag_151:\n        /* \"#utility.yul\":1284:1406   */\n    tag_150:\n        /* \"#utility.yul\":1442:1448   */\n      dup2\n        /* \"#utility.yul\":1429:1449   */\n      calldataload\n        /* \"#utility.yul\":1467:1546   */\n      tag_152\n        /* \"#utility.yul\":1542:1545   */\n      dup5\n        /* \"#utility.yul\":1534:1540   */\n      dup3\n        /* \"#utility.yul\":1527:1531   */\n      0x20\n        /* \"#utility.yul\":1519:1525   */\n      dup7\n        /* \"#utility.yul\":1515:1532   */\n      add\n        /* \"#utility.yul\":1467:1546   */\n      tag_134\n      jump\t// in\n    tag_152:\n        /* \"#utility.yul\":1458:1546   */\n      swap2\n      pop\n        /* \"#utility.yul\":1274:1552   */\n      pop\n        /* \"#utility.yul\":1212:1552   */\n      swap3\n      swap2\n      pop\n      pop\n      jump\t// out\n        /* \"#utility.yul\":1558:1697   */\n    tag_153:\n        /* \"#utility.yul\":1604:1609   */\n      0x00\n        /* \"#utility.yul\":1642:1648   */\n      dup2\n        /* \"#utility.yul\":1629:1649   */\n      calldataload\n        /* \"#utility.yul\":1620:1649   */\n      swap1\n      pop\n        /* \"#utility.yul\":1658:1691   */\n      tag_155\n        /* \"#utility.yul\":1685:1690   */\n      dup2\n        /* \"#utility.yul\":1658:1691   */\n      tag_156\n      jump\t// in\n    tag_155:\n        /* \"#utility.yul\":1558:1697   */\n      swap3\n      swap2\n      pop\n      pop\n      jump\t// out\n        /* \"#utility.yul\":1703:2212   */\n    tag_10:\n        /* \"#utility.yul\":1772:1778   */\n      0x00\n        /* \"#utility.yul\":1821:1823   */\n      0x20\n        /* \"#utility.yul\":1809:1818   */\n      dup3\n        /* \"#utility.yul\":1800:1807   */\n      dup5\n        /* \"#utility.yul\":1796:1819   */\n      sub\n        /* \"#utility.yul\":1792:1824   */\n      slt\n        /* \"#utility.yul\":1789:1908   */\n      iszero\n      tag_158\n      jumpi\n        /* \"#utility.yul\":1827:1906   */\n      tag_159\n      tag_160\n      jump\t// in\n    tag_159:\n        /* \"#utility.yul\":1789:1908   */\n    tag_158:\n        /* \"#utility.yul\":1975:1976   */\n      0x00\n        /* \"#utility.yul\":1964:1973   */\n      dup3\n        /* \"#utility.yul\":1960:1977   */\n      add\n        /* \"#utility.yul\":1947:1978   */\n      calldataload\n        /* \"#utility.yul\":2005:2023   */\n      0xffffffffffffffff\n        /* \"#utility.yul\":1997:2003   */\n      dup2\n        /* \"#utility.yul\":1994:2024   */\n      gt\n        /* \"#utility.yul\":1991:2108   */\n      iszero\n      tag_161\n      jumpi\n        /* \"#utility.yul\":2027:2106   */\n      tag_162\n      tag_163\n      jump\t// in\n    tag_162:\n        /* \"#utility.yul\":1991:2108   */\n    tag_161:\n        /* \"#utility.yul\":2132:2195   */\n      tag_164\n        /* \"#utility.yul\":2187:2194   */\n      dup5\n        /* \"#utility.yul\":2178:2184   */\n      dup3\n        /* \"#utility.yul\":2167:2176   */\n      dup6\n        /* \"#utility.yul\":2163:2185   */\n      add\n        /* \"#utility.yul\":2132:2195   */\n      tag_148\n      jump\t// in\n    tag_164:\n        /* \"#utility.yul\":2122:2195   */\n      swap2\n      pop\n        /* \"#utility.yul\":1918:2205   */\n      pop\n        /* \"#utility.yul\":1703:2212   */\n      swap3\n      swap2\n      pop\n      pop\n      jump\t// out\n        /* \"#utility.yul\":2218:3375   */\n    tag_16:\n        /* \"#utility.yul\":2324:2330   */\n      0x00\n        /* \"#utility.yul\":2332:2338   */\n      dup1\n        /* \"#utility.yul\":2340:2346   */\n      0x00\n        /* \"#utility.yul\":2389:2391   */\n      0x60\n        /* \"#utility.yul\":2377:2386   */\n      dup5\n        /* \"#utility.yul\":2368:2375   */\n      dup7\n        /* \"#utility.yul\":2364:2387   */\n      sub\n        /* \"#utility.yul\":2360:2392   */\n      slt\n        /* \"#utility.yul\":2357:2476   */\n      iszero\n      tag_166\n      jumpi\n        /* \"#utility.yul\":2395:2474   */\n      tag_167\n      tag_160\n      jump\t// in\n    tag_167:\n        /* \"#utility.yul\":2357:2476   */\n    tag_166:\n        /* \"#utility.yul\":2543:2544   */\n      0x00\n        /* \"#utility.yul\":2532:2541   */\n      dup5\n        /* \"#utility.yul\":2528:2545   */\n      add\n        /* \"#utility.yul\":2515:2546   */\n      calldataload\n        /* \"#utility.yul\":2573:2591   */\n      0xffffffffffffffff\n        /* \"#utility.yul\":2565:2571   */\n      dup2\n        /* \"#utility.yul\":2562:2592   */\n      gt\n        /* \"#utility.yul\":2559:2676   */\n      iszero\n      tag_168\n      jumpi\n        /* \"#utility.yul\":2595:2674   */\n      tag_169\n      tag_163\n      jump\t// in\n    tag_169:\n        /* \"#utility.yul\":2559:2676   */\n    tag_168:\n        /* \"#utility.yul\":2700:2763   */\n      tag_170\n        /* \"#utility.yul\":2755:2762   */\n      dup7\n        /* \"#utility.yul\":2746:2752   */\n      dup3\n        /* \"#utility.yul\":2735:2744   */\n      dup8\n        /* \"#utility.yul\":2731:2753   */\n      add\n        /* \"#utility.yul\":2700:2763   */\n      tag_148\n      jump\t// in\n    tag_170:\n        /* \"#utility.yul\":2690:2763   */\n      swap4\n      pop\n        /* \"#utility.yul\":2486:2773   */\n      pop\n        /* \"#utility.yul\":2840:2842   */\n      0x20\n        /* \"#utility.yul\":2829:2838   */\n      dup5\n        /* \"#utility.yul\":2825:2843   */\n      add\n        /* \"#utility.yul\":2812:2844   */\n      calldataload\n        /* \"#utility.yul\":2871:2889   */\n      0xffffffffffffffff\n        /* \"#utility.yul\":2863:2869   */\n      dup2\n        /* \"#utility.yul\":2860:2890   */\n      gt\n        /* \"#utility.yul\":2857:2974   */\n      iszero\n      tag_171\n      jumpi\n        /* \"#utility.yul\":2893:2972   */\n      tag_172\n      tag_163\n      jump\t// in\n    tag_172:\n        /* \"#utility.yul\":2857:2974   */\n    tag_171:\n        /* \"#utility.yul\":2998:3061   */\n      tag_173\n        /* \"#utility.yul\":3053:3060   */\n      dup7\n        /* \"#utility.yul\":3044:3050   */\n      dup3\n        /* \"#utility.yul\":3033:3042   */\n      dup8\n        /* \"#utility.yul\":3029:3051   */\n      add\n        /* \"#utility.yul\":2998:3061   */\n      tag_148\n      jump\t// in\n    tag_173:\n        /* \"#utility.yul\":2988:3061   */\n      swap3\n      pop\n        /* \"#utility.yul\":2783:3071   */\n      pop\n        /* \"#utility.yul\":3138:3140   */\n      0x40\n        /* \"#utility.yul\":3127:3136   */\n      dup5\n        /* \"#utility.yul\":3123:3141   */\n      add\n        /* \"#utility.yul\":3110:3142   */\n      calldataload\n        /* \"#utility.yul\":3169:3187   */\n      0xffffffffffffffff\n        /* \"#utility.yul\":3161:3167   */\n      dup2\n        /* \"#utility.yul\":3158:3188   */\n      gt\n        /* \"#utility.yul\":3155:3272   */\n      iszero\n      tag_174\n      jumpi\n        /* \"#utility.yul\":3191:3270   */\n      tag_175\n      tag_163\n      jump\t// in\n    tag_175:\n        /* \"#utility.yul\":3155:3272   */\n    tag_174:\n        /* \"#utility.yul\":3296:3358   */\n      tag_176\n        /* \"#utility.yul\":3350:3357   */\n      dup7\n        /* \"#utility.yul\":3341:3347   */\n      dup3\n        /* \"#utility.yul\":3330:3339   */\n      dup8\n        /* \"#utility.yul\":3326:3348   */\n      add\n        /* \"#utility.yul\":3296:3358   */\n      tag_142\n      jump\t// in\n    tag_176:\n        /* \"#utility.yul\":3286:3358   */\n      swap2\n      pop\n        /* \"#utility.yul\":3081:3368   */\n      pop\n        /* \"#utility.yul\":2218:3375   */\n      swap3\n      pop\n      swap3\n      pop\n      swap3\n      jump\t// out\n        /* \"#utility.yul\":3381:4540   */\n    tag_22:\n        /* \"#utility.yul\":3488:3494   */\n      0x00\n        /* \"#utility.yul\":3496:3502   */\n      dup1\n        /* \"#utility.yul\":3504:3510   */\n      0x00\n        /* \"#utility.yul\":3553:3555   */\n      0x60\n        /* \"#utility.yul\":3541:3550   */\n      dup5\n        /* \"#utility.yul\":3532:3539   */\n      dup7\n        /* \"#utility.yul\":3528:3551   */\n      sub\n        /* \"#utility.yul\":3524:3556   */\n      slt\n        /* \"#utility.yul\":3521:3640   */\n      iszero\n      tag_178\n      jumpi\n        /* \"#utility.yul\":3559:3638   */\n      tag_179\n      tag_160\n      jump\t// in\n    tag_179:\n        /* \"#utility.yul\":3521:3640   */\n    tag_178:\n        /* \"#utility.yul\":3707:3708   */\n      0x00\n        /* \"#utility.yul\":3696:3705   */\n      dup5\n        /* \"#utility.yul\":3692:3709   */\n      add\n        /* \"#utility.yul\":3679:3710   */\n      calldataload\n        /* \"#utility.yul\":3737:3755   */\n      0xffffffffffffffff\n        /* \"#utility.yul\":3729:3735   */\n      dup2\n        /* \"#utility.yul\":3726:3756   */\n      gt\n        /* \"#utility.yul\":3723:3840   */\n      iszero\n      tag_180\n      jumpi\n        /* \"#utility.yul\":3759:3838   */\n      tag_181\n      tag_163\n      jump\t// in\n    tag_181:\n        /* \"#utility.yul\":3723:3840   */\n    tag_180:\n        /* \"#utility.yul\":3864:3927   */\n      tag_182\n        /* \"#utility.yul\":3919:3926   */\n      dup7\n        /* \"#utility.yul\":3910:3916   */\n      dup3\n        /* \"#utility.yul\":3899:3908   */\n      dup8\n        /* \"#utility.yul\":3895:3917   */\n      add\n        /* \"#utility.yul\":3864:3927   */\n      tag_148\n      jump\t// in\n    tag_182:\n        /* \"#utility.yul\":3854:3927   */\n      swap4\n      pop\n        /* \"#utility.yul\":3650:3937   */\n      pop\n        /* \"#utility.yul\":4004:4006   */\n      0x20\n        /* \"#utility.yul\":3993:4002   */\n      dup5\n        /* \"#utility.yul\":3989:4007   */\n      add\n        /* \"#utility.yul\":3976:4008   */\n      calldataload\n        /* \"#utility.yul\":4035:4053   */\n      0xffffffffffffffff\n        /* \"#utility.yul\":4027:4033   */\n      dup2\n        /* \"#utility.yul\":4024:4054   */\n      gt\n        /* \"#utility.yul\":4021:4138   */\n      iszero\n      tag_183\n      jumpi\n        /* \"#utility.yul\":4057:4136   */\n      tag_184\n      tag_163\n      jump\t// in\n    tag_184:\n        /* \"#utility.yul\":4021:4138   */\n    tag_183:\n        /* \"#utility.yul\":4162:4225   */\n      tag_185\n        /* \"#utility.yul\":4217:4224   */\n      dup7\n        /* \"#utility.yul\":4208:4214   */\n      dup3\n        /* \"#utility.yul\":4197:4206   */\n      dup8\n        /* \"#utility.yul\":4193:4215   */\n      add\n        /* \"#utility.yul\":4162:4225   */\n      tag_148\n      jump\t// in\n    tag_185:\n        /* \"#utility.yul\":4152:4225   */\n      swap3\n      pop\n        /* \"#utility.yul\":3947:4235   */\n      pop\n        /* \"#utility.yul\":4302:4304   */\n      0x40\n        /* \"#utility.yul\":4291:4300   */\n      dup5\n        /* \"#utility.yul\":4287:4305   */\n      add\n        /* \"#utility.yul\":4274:4306   */\n      calldataload\n        /* \"#utility.yul\":4333:4351   */\n      0xffffffffffffffff\n        /* \"#utility.yul\":4325:4331   */\n      dup2\n        /* \"#utility.yul\":4322:4352   */\n      gt\n        /* \"#utility.yul\":4319:4436   */\n      iszero\n      tag_186\n      jumpi\n        /* \"#utility.yul\":4355:4434   */\n      tag_187\n      tag_163\n      jump\t// in\n    tag_187:\n        /* \"#utility.yul\":4319:4436   */\n    tag_186:\n        /* \"#utility.yul\":4460:4523   */\n      tag_188\n        /* \"#utility.yul\":4515:4522   */\n      dup7\n        /* \"#utility.yul\":4506:4512   */\n      dup3\n        /* \"#utility.yul\":4495:4504   */\n      dup8\n        /* \"#utility.yul\":4491:4513   */\n      add\n        /* \"#utility.yul\":4460:4523   */\n      tag_148\n      jump\t// in\n    tag_188:\n        /* \"#utility.yul\":4450:4523   */\n      swap2\n      pop\n        /* \"#utility.yul\":4245:4533   */\n      pop\n        /* \"#utility.yul\":3381:4540   */\n      swap3\n      pop\n      swap3\n      pop\n      swap3\n      jump\t// out\n        /* \"#utility.yul\":4546:5525   */\n    tag_27:\n        /* \"#utility.yul\":4643:4649   */\n      0x00\n        /* \"#utility.yul\":4651:4657   */\n      dup1\n        /* \"#utility.yul\":4659:4665   */\n      0x00\n        /* \"#utility.yul\":4708:4710   */\n      0x60\n        /* \"#utility.yul\":4696:4705   */\n      dup5\n        /* \"#utility.yul\":4687:4694   */\n      dup7\n        /* \"#utility.yul\":4683:4706   */\n      sub\n        /* \"#utility.yul\":4679:4711   */\n      slt\n        /* \"#utility.yul\":4676:4795   */\n      iszero\n      tag_190\n      jumpi\n        /* \"#utility.yul\":4714:4793   */\n      tag_191\n      tag_160\n      jump\t// in\n    tag_191:\n        /* \"#utility.yul\":4676:4795   */\n    tag_190:\n        /* \"#utility.yul\":4862:4863   */\n      0x00\n        /* \"#utility.yul\":4851:4860   */\n      dup5\n        /* \"#utility.yul\":4847:4864   */\n      add\n        /* \"#utility.yul\":4834:4865   */\n      calldataload\n        /* \"#utility.yul\":4892:4910   */\n      0xffffffffffffffff\n        /* \"#utility.yul\":4884:4890   */\n      dup2\n        /* \"#utility.yul\":4881:4911   */\n      gt\n        /* \"#utility.yul\":4878:4995   */\n      iszero\n      tag_192\n      jumpi\n        /* \"#utility.yul\":4914:4993   */\n      tag_193\n      tag_163\n      jump\t// in\n    tag_193:\n        /* \"#utility.yul\":4878:4995   */\n    tag_192:\n        /* \"#utility.yul\":5019:5082   */\n      tag_194\n        /* \"#utility.yul\":5074:5081   */\n      dup7\n        /* \"#utility.yul\":5065:5071   */\n      dup3\n        /* \"#utility.yul\":5054:5063   */\n      dup8\n        /* \"#utility.yul\":5050:5072   */\n      add\n        /* \"#utility.yul\":5019:5082   */\n      tag_148\n      jump\t// in\n    tag_194:\n        /* \"#utility.yul\":5009:5082   */\n      swap4\n      pop\n        /* \"#utility.yul\":4805:5092   */\n      pop\n        /* \"#utility.yul\":5159:5161   */\n      0x20\n        /* \"#utility.yul\":5148:5157   */\n      dup5\n        /* \"#utility.yul\":5144:5162   */\n      add\n        /* \"#utility.yul\":5131:5163   */\n      calldataload\n        /* \"#utility.yul\":5190:5208   */\n      0xffffffffffffffff\n        /* \"#utility.yul\":5182:5188   */\n      dup2\n        /* \"#utility.yul\":5179:5209   */\n      gt\n        /* \"#utility.yul\":5176:5293   */\n      iszero\n      tag_195\n      jumpi\n        /* \"#utility.yul\":5212:5291   */\n      tag_196\n      tag_163\n      jump\t// in\n    tag_196:\n        /* \"#utility.yul\":5176:5293   */\n    tag_195:\n        /* \"#utility.yul\":5317:5380   */\n      tag_197\n        /* \"#utility.yul\":5372:5379   */\n      dup7\n        /* \"#utility.yul\":5363:5369   */\n      dup3\n        /* \"#utility.yul\":5352:5361   */\n      dup8\n        /* \"#utility.yul\":5348:5370   */\n      add\n        /* \"#utility.yul\":5317:5380   */\n      tag_148\n      jump\t// in\n    tag_197:\n        /* \"#utility.yul\":5307:5380   */\n      swap3\n      pop\n        /* \"#utility.yul\":5102:5390   */\n      pop\n        /* \"#utility.yul\":5429:5431   */\n      0x40\n        /* \"#utility.yul\":5455:5508   */\n      tag_198\n        /* \"#utility.yul\":5500:5507   */\n      dup7\n        /* \"#utility.yul\":5491:5497   */\n      dup3\n        /* \"#utility.yul\":5480:5489   */\n      dup8\n        /* \"#utility.yul\":5476:5498   */\n      add\n        /* \"#utility.yul\":5455:5508   */\n      tag_153\n      jump\t// in\n    tag_198:\n        /* \"#utility.yul\":5445:5508   */\n      swap2\n      pop\n        /* \"#utility.yul\":5400:5518   */\n      pop\n        /* \"#utility.yul\":4546:5525   */\n      swap3\n      pop\n      swap3\n      pop\n      swap3\n      jump\t// out\n        /* \"#utility.yul\":5531:5649   */\n    tag_199:\n        /* \"#utility.yul\":5618:5642   */\n      tag_201\n        /* \"#utility.yul\":5636:5641   */\n      dup2\n        /* \"#utility.yul\":5618:5642   */\n      tag_202\n      jump\t// in\n    tag_201:\n        /* \"#utility.yul\":5613:5616   */\n      dup3\n        /* \"#utility.yul\":5606:5643   */\n      mstore\n        /* \"#utility.yul\":5531:5649   */\n      pop\n      pop\n      jump\t// out\n        /* \"#utility.yul\":5655:5995   */\n    tag_203:\n        /* \"#utility.yul\":5731:5734   */\n      0x00\n        /* \"#utility.yul\":5759:5797   */\n      tag_205\n        /* \"#utility.yul\":5791:5796   */\n      dup3\n        /* \"#utility.yul\":5759:5797   */\n      tag_206\n      jump\t// in\n    tag_205:\n        /* \"#utility.yul\":5813:5873   */\n      tag_207\n        /* \"#utility.yul\":5866:5872   */\n      dup2\n        /* \"#utility.yul\":5861:5864   */\n      dup6\n        /* \"#utility.yul\":5813:5873   */\n      tag_208\n      jump\t// in\n    tag_207:\n        /* \"#utility.yul\":5806:5873   */\n      swap4\n      pop\n        /* \"#utility.yul\":5882:5934   */\n      tag_209\n        /* \"#utility.yul\":5927:5933   */\n      dup2\n        /* \"#utility.yul\":5922:5925   */\n      dup6\n        /* \"#utility.yul\":5915:5919   */\n      0x20\n        /* \"#utility.yul\":5908:5913   */\n      dup7\n        /* \"#utility.yul\":5904:5920   */\n      add\n        /* \"#utility.yul\":5882:5934   */\n      tag_210\n      jump\t// in\n    tag_209:\n        /* \"#utility.yul\":5959:5988   */\n      tag_211\n        /* \"#utility.yul\":5981:5987   */\n      dup2\n        /* \"#utility.yul\":5959:5988   */\n      tag_212\n      jump\t// in\n    tag_211:\n        /* \"#utility.yul\":5954:5957   */\n      dup5\n        /* \"#utility.yul\":5950:5989   */\n      add\n        /* \"#utility.yul\":5943:5989   */\n      swap2\n      pop\n        /* \"#utility.yul\":5735:5995   */\n      pop\n        /* \"#utility.yul\":5655:5995   */\n      swap3\n      swap2\n      pop\n      pop\n      jump\t// out\n        /* \"#utility.yul\":6001:6345   */\n    tag_213:\n        /* \"#utility.yul\":6079:6082   */\n      0x00\n        /* \"#utility.yul\":6107:6146   */\n      tag_215\n        /* \"#utility.yul\":6140:6145   */\n      dup3\n        /* \"#utility.yul\":6107:6146   */\n      tag_216\n      jump\t// in\n    tag_215:\n        /* \"#utility.yul\":6162:6223   */\n      tag_217\n        /* \"#utility.yul\":6216:6222   */\n      dup2\n        /* \"#utility.yul\":6211:6214   */\n      dup6\n        /* \"#utility.yul\":6162:6223   */\n      tag_218\n      jump\t// in\n    tag_217:\n        /* \"#utility.yul\":6155:6223   */\n      swap4\n      pop\n        /* \"#utility.yul\":6232:6284   */\n      tag_219\n        /* \"#utility.yul\":6277:6283   */\n      dup2\n        /* \"#utility.yul\":6272:6275   */\n      dup6\n        /* \"#utility.yul\":6265:6269   */\n      0x20\n        /* \"#utility.yul\":6258:6263   */\n      dup7\n        /* \"#utility.yul\":6254:6270   */\n      add\n        /* \"#utility.yul\":6232:6284   */\n      tag_210\n      jump\t// in\n    tag_219:\n        /* \"#utility.yul\":6309:6338   */\n      tag_220\n        /* \"#utility.yul\":6331:6337   */\n      dup2\n        /* \"#utility.yul\":6309:6338   */\n      tag_212\n      jump\t// in\n    tag_220:\n        /* \"#utility.yul\":6304:6307   */\n      dup5\n        /* \"#utility.yul\":6300:6339   */\n      add\n        /* \"#utility.yul\":6293:6339   */\n      swap2\n      pop\n        /* \"#utility.yul\":6083:6345   */\n      pop\n        /* \"#utility.yul\":6001:6345   */\n      swap3\n      swap2\n      pop\n      pop\n      jump\t// out\n        /* \"#utility.yul\":6351:6728   */\n    tag_221:\n        /* \"#utility.yul\":6457:6460   */\n      0x00\n        /* \"#utility.yul\":6485:6524   */\n      tag_223\n        /* \"#utility.yul\":6518:6523   */\n      dup3\n        /* \"#utility.yul\":6485:6524   */\n      tag_216\n      jump\t// in\n    tag_223:\n        /* \"#utility.yul\":6540:6629   */\n      tag_224\n        /* \"#utility.yul\":6622:6628   */\n      dup2\n        /* \"#utility.yul\":6617:6620   */\n      dup6\n        /* \"#utility.yul\":6540:6629   */\n      tag_225\n      jump\t// in\n    tag_224:\n        /* \"#utility.yul\":6533:6629   */\n      swap4\n      pop\n        /* \"#utility.yul\":6638:6690   */\n      tag_226\n        /* \"#utility.yul\":6683:6689   */\n      dup2\n        /* \"#utility.yul\":6678:6681   */\n      dup6\n        /* \"#utility.yul\":6671:6675   */\n      0x20\n        /* \"#utility.yul\":6664:6669   */\n      dup7\n        /* \"#utility.yul\":6660:6676   */\n      add\n        /* \"#utility.yul\":6638:6690   */\n      tag_210\n      jump\t// in\n    tag_226:\n        /* \"#utility.yul\":6715:6721   */\n      dup1\n        /* \"#utility.yul\":6710:6713   */\n      dup5\n        /* \"#utility.yul\":6706:6722   */\n      add\n        /* \"#utility.yul\":6699:6722   */\n      swap2\n      pop\n        /* \"#utility.yul\":6461:6728   */\n      pop\n        /* \"#utility.yul\":6351:6728   */\n      swap3\n      swap2\n      pop\n      pop\n      jump\t// out\n        /* \"#utility.yul\":6758:7603   */\n    tag_227:\n        /* \"#utility.yul\":6861:6864   */\n      0x00\n        /* \"#utility.yul\":6898:6903   */\n      dup2\n        /* \"#utility.yul\":6892:6904   */\n      sload\n        /* \"#utility.yul\":6927:6963   */\n      tag_229\n        /* \"#utility.yul\":6953:6962   */\n      dup2\n        /* \"#utility.yul\":6927:6963   */\n      tag_41\n      jump\t// in\n    tag_229:\n        /* \"#utility.yul\":6979:7068   */\n      tag_230\n        /* \"#utility.yul\":7061:7067   */\n      dup2\n        /* \"#utility.yul\":7056:7059   */\n      dup7\n        /* \"#utility.yul\":6979:7068   */\n      tag_225\n      jump\t// in\n    tag_230:\n        /* \"#utility.yul\":6972:7068   */\n      swap5\n      pop\n        /* \"#utility.yul\":7099:7100   */\n      0x01\n        /* \"#utility.yul\":7088:7097   */\n      dup3\n        /* \"#utility.yul\":7084:7101   */\n      and\n        /* \"#utility.yul\":7115:7116   */\n      0x00\n        /* \"#utility.yul\":7110:7247   */\n      dup2\n      eq\n      tag_232\n      jumpi\n        /* \"#utility.yul\":7261:7262   */\n      0x01\n        /* \"#utility.yul\":7256:7597   */\n      dup2\n      eq\n      tag_233\n      jumpi\n        /* \"#utility.yul\":7077:7597   */\n      jump(tag_231)\n        /* \"#utility.yul\":7110:7247   */\n    tag_232:\n        /* \"#utility.yul\":7194:7198   */\n      0xff\n        /* \"#utility.yul\":7190:7199   */\n      not\n        /* \"#utility.yul\":7179:7188   */\n      dup4\n        /* \"#utility.yul\":7175:7200   */\n      and\n        /* \"#utility.yul\":7170:7173   */\n      dup7\n        /* \"#utility.yul\":7163:7201   */\n      mstore\n        /* \"#utility.yul\":7230:7236   */\n      dup2\n        /* \"#utility.yul\":7225:7228   */\n      dup7\n        /* \"#utility.yul\":7221:7237   */\n      add\n        /* \"#utility.yul\":7214:7237   */\n      swap4\n      pop\n        /* \"#utility.yul\":7110:7247   */\n      jump(tag_231)\n        /* \"#utility.yul\":7256:7597   */\n    tag_233:\n        /* \"#utility.yul\":7323:7361   */\n      tag_234\n        /* \"#utility.yul\":7355:7360   */\n      dup6\n        /* \"#utility.yul\":7323:7361   */\n      tag_235\n      jump\t// in\n    tag_234:\n        /* \"#utility.yul\":7383:7384   */\n      0x00\n        /* \"#utility.yul\":7397:7551   */\n    tag_236:\n        /* \"#utility.yul\":7411:7417   */\n      dup4\n        /* \"#utility.yul\":7408:7409   */\n      dup2\n        /* \"#utility.yul\":7405:7418   */\n      lt\n        /* \"#utility.yul\":7397:7551   */\n      iszero\n      tag_238\n      jumpi\n        /* \"#utility.yul\":7485:7492   */\n      dup2\n        /* \"#utility.yul\":7479:7493   */\n      sload\n        /* \"#utility.yul\":7475:7476   */\n      dup2\n        /* \"#utility.yul\":7470:7473   */\n      dup10\n        /* \"#utility.yul\":7466:7477   */\n      add\n        /* \"#utility.yul\":7459:7494   */\n      mstore\n        /* \"#utility.yul\":7535:7536   */\n      0x01\n        /* \"#utility.yul\":7526:7533   */\n      dup3\n        /* \"#utility.yul\":7522:7537   */\n      add\n        /* \"#utility.yul\":7511:7537   */\n      swap2\n      pop\n        /* \"#utility.yul\":7433:7437   */\n      0x20\n        /* \"#utility.yul\":7430:7431   */\n      dup2\n        /* \"#utility.yul\":7426:7438   */\n      add\n        /* \"#utility.yul\":7421:7438   */\n      swap1\n      pop\n        /* \"#utility.yul\":7397:7551   */\n      jump(tag_236)\n    tag_238:\n        /* \"#utility.yul\":7580:7586   */\n      dup4\n        /* \"#utility.yul\":7575:7578   */\n      dup9\n        /* \"#utility.yul\":7571:7587   */\n      add\n        /* \"#utility.yul\":7564:7587   */\n      swap6\n      pop\n        /* \"#utility.yul\":7263:7597   */\n      pop\n      pop\n        /* \"#utility.yul\":7077:7597   */\n    tag_231:\n      pop\n        /* \"#utility.yul\":6865:7603   */\n      pop\n      pop\n        /* \"#utility.yul\":6758:7603   */\n      swap3\n      swap2\n      pop\n      pop\n      jump\t// out\n        /* \"#utility.yul\":7609:7975   */\n    tag_239:\n        /* \"#utility.yul\":7751:7754   */\n      0x00\n        /* \"#utility.yul\":7772:7839   */\n      tag_241\n        /* \"#utility.yul\":7836:7838   */\n      0x18\n        /* \"#utility.yul\":7831:7834   */\n      dup4\n        /* \"#utility.yul\":7772:7839   */\n      tag_242\n      jump\t// in\n    tag_241:\n        /* \"#utility.yul\":7765:7839   */\n      swap2\n      pop\n        /* \"#utility.yul\":7848:7941   */\n      tag_243\n        /* \"#utility.yul\":7937:7940   */\n      dup3\n        /* \"#utility.yul\":7848:7941   */\n      tag_244\n      jump\t// in\n    tag_243:\n        /* \"#utility.yul\":7966:7968   */\n      0x20\n        /* \"#utility.yul\":7961:7964   */\n      dup3\n        /* \"#utility.yul\":7957:7969   */\n      add\n        /* \"#utility.yul\":7950:7969   */\n      swap1\n      pop\n        /* \"#utility.yul\":7609:7975   */\n      swap2\n      swap1\n      pop\n      jump\t// out\n        /* \"#utility.yul\":7981:8346   */\n    tag_245:\n        /* \"#utility.yul\":8123:8126   */\n      0x00\n        /* \"#utility.yul\":8144:8210   */\n      tag_247\n        /* \"#utility.yul\":8208:8209   */\n      0x07\n        /* \"#utility.yul\":8203:8206   */\n      dup4\n        /* \"#utility.yul\":8144:8210   */\n      tag_242\n      jump\t// in\n    tag_247:\n        /* \"#utility.yul\":8137:8210   */\n      swap2\n      pop\n        /* \"#utility.yul\":8219:8312   */\n      tag_248\n        /* \"#utility.yul\":8308:8311   */\n      dup3\n        /* \"#utility.yul\":8219:8312   */\n      tag_249\n      jump\t// in\n    tag_248:\n        /* \"#utility.yul\":8337:8339   */\n      0x20\n        /* \"#utility.yul\":8332:8335   */\n      dup3\n        /* \"#utility.yul\":8328:8340   */\n      add\n        /* \"#utility.yul\":8321:8340   */\n      swap1\n      pop\n        /* \"#utility.yul\":7981:8346   */\n      swap2\n      swap1\n      pop\n      jump\t// out\n        /* \"#utility.yul\":8412:9524   */\n    tag_250:\n        /* \"#utility.yul\":8535:8538   */\n      0x00\n        /* \"#utility.yul\":8571:8575   */\n      0x80\n        /* \"#utility.yul\":8566:8569   */\n      dup4\n        /* \"#utility.yul\":8562:8576   */\n      add\n        /* \"#utility.yul\":8664:8668   */\n      0x00\n        /* \"#utility.yul\":8657:8662   */\n      dup4\n        /* \"#utility.yul\":8653:8669   */\n      add\n        /* \"#utility.yul\":8647:8670   */\n      mload\n        /* \"#utility.yul\":8717:8720   */\n      dup5\n        /* \"#utility.yul\":8711:8715   */\n      dup3\n        /* \"#utility.yul\":8707:8721   */\n      sub\n        /* \"#utility.yul\":8700:8704   */\n      0x00\n        /* \"#utility.yul\":8695:8698   */\n      dup7\n        /* \"#utility.yul\":8691:8705   */\n      add\n        /* \"#utility.yul\":8684:8722   */\n      mstore\n        /* \"#utility.yul\":8743:8816   */\n      tag_252\n        /* \"#utility.yul\":8811:8815   */\n      dup3\n        /* \"#utility.yul\":8797:8809   */\n      dup3\n        /* \"#utility.yul\":8743:8816   */\n      tag_213\n      jump\t// in\n    tag_252:\n        /* \"#utility.yul\":8735:8816   */\n      swap2\n      pop\n        /* \"#utility.yul\":8586:8827   */\n      pop\n        /* \"#utility.yul\":8909:8913   */\n      0x20\n        /* \"#utility.yul\":8902:8907   */\n      dup4\n        /* \"#utility.yul\":8898:8914   */\n      add\n        /* \"#utility.yul\":8892:8915   */\n      mload\n        /* \"#utility.yul\":8962:8965   */\n      dup5\n        /* \"#utility.yul\":8956:8960   */\n      dup3\n        /* \"#utility.yul\":8952:8966   */\n      sub\n        /* \"#utility.yul\":8945:8949   */\n      0x20\n        /* \"#utility.yul\":8940:8943   */\n      dup7\n        /* \"#utility.yul\":8936:8950   */\n      add\n        /* \"#utility.yul\":8929:8967   */\n      mstore\n        /* \"#utility.yul\":8988:9061   */\n      tag_253\n        /* \"#utility.yul\":9056:9060   */\n      dup3\n        /* \"#utility.yul\":9042:9054   */\n      dup3\n        /* \"#utility.yul\":8988:9061   */\n      tag_213\n      jump\t// in\n    tag_253:\n        /* \"#utility.yul\":8980:9061   */\n      swap2\n      pop\n        /* \"#utility.yul\":8837:9072   */\n      pop\n        /* \"#utility.yul\":9154:9158   */\n      0x40\n        /* \"#utility.yul\":9147:9152   */\n      dup4\n        /* \"#utility.yul\":9143:9159   */\n      add\n        /* \"#utility.yul\":9137:9160   */\n      mload\n        /* \"#utility.yul\":9207:9210   */\n      dup5\n        /* \"#utility.yul\":9201:9205   */\n      dup3\n        /* \"#utility.yul\":9197:9211   */\n      sub\n        /* \"#utility.yul\":9190:9194   */\n      0x40\n        /* \"#utility.yul\":9185:9188   */\n      dup7\n        /* \"#utility.yul\":9181:9195   */\n      add\n        /* \"#utility.yul\":9174:9212   */\n      mstore\n        /* \"#utility.yul\":9233:9306   */\n      tag_254\n        /* \"#utility.yul\":9301:9305   */\n      dup3\n        /* \"#utility.yul\":9287:9299   */\n      dup3\n        /* \"#utility.yul\":9233:9306   */\n      tag_213\n      jump\t// in\n    tag_254:\n        /* \"#utility.yul\":9225:9306   */\n      swap2\n      pop\n        /* \"#utility.yul\":9082:9317   */\n      pop\n        /* \"#utility.yul\":9405:9409   */\n      0x60\n        /* \"#utility.yul\":9398:9403   */\n      dup4\n        /* \"#utility.yul\":9394:9410   */\n      add\n        /* \"#utility.yul\":9388:9411   */\n      mload\n        /* \"#utility.yul\":9424:9487   */\n      tag_255\n        /* \"#utility.yul\":9481:9485   */\n      0x60\n        /* \"#utility.yul\":9476:9479   */\n      dup7\n        /* \"#utility.yul\":9472:9486   */\n      add\n        /* \"#utility.yul\":9458:9470   */\n      dup3\n        /* \"#utility.yul\":9424:9487   */\n      tag_256\n      jump\t// in\n    tag_255:\n        /* \"#utility.yul\":9327:9497   */\n      pop\n        /* \"#utility.yul\":9514:9518   */\n      dup1\n        /* \"#utility.yul\":9507:9518   */\n      swap2\n      pop\n        /* \"#utility.yul\":8540:9524   */\n      pop\n        /* \"#utility.yul\":8412:9524   */\n      swap3\n      swap2\n      pop\n      pop\n      jump\t// out\n        /* \"#utility.yul\":9590:10272   */\n    tag_257:\n        /* \"#utility.yul\":9713:9716   */\n      0x00\n        /* \"#utility.yul\":9749:9753   */\n      0x40\n        /* \"#utility.yul\":9744:9747   */\n      dup4\n        /* \"#utility.yul\":9740:9754   */\n      add\n        /* \"#utility.yul\":9839:9843   */\n      0x00\n        /* \"#utility.yul\":9832:9837   */\n      dup4\n        /* \"#utility.yul\":9828:9844   */\n      add\n        /* \"#utility.yul\":9822:9845   */\n      mload\n        /* \"#utility.yul\":9892:9895   */\n      dup5\n        /* \"#utility.yul\":9886:9890   */\n      dup3\n        /* \"#utility.yul\":9882:9896   */\n      sub\n        /* \"#utility.yul\":9875:9879   */\n      0x00\n        /* \"#utility.yul\":9870:9873   */\n      dup7\n        /* \"#utility.yul\":9866:9880   */\n      add\n        /* \"#utility.yul\":9859:9897   */\n      mstore\n        /* \"#utility.yul\":9918:9991   */\n      tag_259\n        /* \"#utility.yul\":9986:9990   */\n      dup3\n        /* \"#utility.yul\":9972:9984   */\n      dup3\n        /* \"#utility.yul\":9918:9991   */\n      tag_213\n      jump\t// in\n    tag_259:\n        /* \"#utility.yul\":9910:9991   */\n      swap2\n      pop\n        /* \"#utility.yul\":9764:10002   */\n      pop\n        /* \"#utility.yul\":10084:10088   */\n      0x20\n        /* \"#utility.yul\":10077:10082   */\n      dup4\n        /* \"#utility.yul\":10073:10089   */\n      add\n        /* \"#utility.yul\":10067:10090   */\n      mload\n        /* \"#utility.yul\":10137:10140   */\n      dup5\n        /* \"#utility.yul\":10131:10135   */\n      dup3\n        /* \"#utility.yul\":10127:10141   */\n      sub\n        /* \"#utility.yul\":10120:10124   */\n      0x20\n        /* \"#utility.yul\":10115:10118   */\n      dup7\n        /* \"#utility.yul\":10111:10125   */\n      add\n        /* \"#utility.yul\":10104:10142   */\n      mstore\n        /* \"#utility.yul\":10163:10234   */\n      tag_260\n        /* \"#utility.yul\":10229:10233   */\n      dup3\n        /* \"#utility.yul\":10215:10227   */\n      dup3\n        /* \"#utility.yul\":10163:10234   */\n      tag_203\n      jump\t// in\n    tag_260:\n        /* \"#utility.yul\":10155:10234   */\n      swap2\n      pop\n        /* \"#utility.yul\":10012:10245   */\n      pop\n        /* \"#utility.yul\":10262:10266   */\n      dup1\n        /* \"#utility.yul\":10255:10266   */\n      swap2\n      pop\n        /* \"#utility.yul\":9718:10272   */\n      pop\n        /* \"#utility.yul\":9590:10272   */\n      swap3\n      swap2\n      pop\n      pop\n      jump\t// out\n        /* \"#utility.yul\":10278:10386   */\n    tag_256:\n        /* \"#utility.yul\":10355:10379   */\n      tag_262\n        /* \"#utility.yul\":10373:10378   */\n      dup2\n        /* \"#utility.yul\":10355:10379   */\n      tag_263\n      jump\t// in\n    tag_262:\n        /* \"#utility.yul\":10350:10353   */\n      dup3\n        /* \"#utility.yul\":10343:10380   */\n      mstore\n        /* \"#utility.yul\":10278:10386   */\n      pop\n      pop\n      jump\t// out\n        /* \"#utility.yul\":10392:10667   */\n    tag_39:\n        /* \"#utility.yul\":10524:10527   */\n      0x00\n        /* \"#utility.yul\":10546:10641   */\n      tag_265\n        /* \"#utility.yul\":10637:10640   */\n      dup3\n        /* \"#utility.yul\":10628:10634   */\n      dup5\n        /* \"#utility.yul\":10546:10641   */\n      tag_221\n      jump\t// in\n    tag_265:\n        /* \"#utility.yul\":10539:10641   */\n      swap2\n      pop\n        /* \"#utility.yul\":10658:10661   */\n      dup2\n        /* \"#utility.yul\":10651:10661   */\n      swap1\n      pop\n        /* \"#utility.yul\":10392:10667   */\n      swap3\n      swap2\n      pop\n      pop\n      jump\t// out\n        /* \"#utility.yul\":10673:10942   */\n    tag_111:\n        /* \"#utility.yul\":10802:10805   */\n      0x00\n        /* \"#utility.yul\":10824:10916   */\n      tag_267\n        /* \"#utility.yul\":10912:10915   */\n      dup3\n        /* \"#utility.yul\":10903:10909   */\n      dup5\n        /* \"#utility.yul\":10824:10916   */\n      tag_227\n      jump\t// in\n    tag_267:\n        /* \"#utility.yul\":10817:10916   */\n      swap2\n      pop\n        /* \"#utility.yul\":10933:10936   */\n      dup2\n        /* \"#utility.yul\":10926:10936   */\n      swap1\n      pop\n        /* \"#utility.yul\":10673:10942   */\n      swap3\n      swap2\n      pop\n      pop\n      jump\t// out\n        /* \"#utility.yul\":10948:11170   */\n    tag_19:\n        /* \"#utility.yul\":11041:11045   */\n      0x00\n        /* \"#utility.yul\":11079:11081   */\n      0x20\n        /* \"#utility.yul\":11068:11077   */\n      dup3\n        /* \"#utility.yul\":11064:11082   */\n      add\n        /* \"#utility.yul\":11056:11082   */\n      swap1\n      pop\n        /* \"#utility.yul\":11092:11163   */\n      tag_269\n        /* \"#utility.yul\":11160:11161   */\n      0x00\n        /* \"#utility.yul\":11149:11158   */\n      dup4\n        /* \"#utility.yul\":11145:11162   */\n      add\n        /* \"#utility.yul\":11136:11142   */\n      dup5\n        /* \"#utility.yul\":11092:11163   */\n      tag_199\n      jump\t// in\n    tag_269:\n        /* \"#utility.yul\":10948:11170   */\n      swap3\n      swap2\n      pop\n      pop\n      jump\t// out\n        /* \"#utility.yul\":11176:11595   */\n    tag_76:\n        /* \"#utility.yul\":11342:11346   */\n      0x00\n        /* \"#utility.yul\":11380:11382   */\n      0x20\n        /* \"#utility.yul\":11369:11378   */\n      dup3\n        /* \"#utility.yul\":11365:11383   */\n      add\n        /* \"#utility.yul\":11357:11383   */\n      swap1\n      pop\n        /* \"#utility.yul\":11429:11438   */\n      dup2\n        /* \"#utility.yul\":11423:11427   */\n      dup2\n        /* \"#utility.yul\":11419:11439   */\n      sub\n        /* \"#utility.yul\":11415:11416   */\n      0x00\n        /* \"#utility.yul\":11404:11413   */\n      dup4\n        /* \"#utility.yul\":11400:11417   */\n      add\n        /* \"#utility.yul\":11393:11440   */\n      mstore\n        /* \"#utility.yul\":11457:11588   */\n      tag_271\n        /* \"#utility.yul\":11583:11587   */\n      dup2\n        /* \"#utility.yul\":11457:11588   */\n      tag_239\n      jump\t// in\n    tag_271:\n        /* \"#utility.yul\":11449:11588   */\n      swap1\n      pop\n        /* \"#utility.yul\":11176:11595   */\n      swap2\n      swap1\n      pop\n      jump\t// out\n        /* \"#utility.yul\":11601:12130   */\n    tag_69:\n        /* \"#utility.yul\":11795:11799   */\n      0x00\n        /* \"#utility.yul\":11833:11835   */\n      0x40\n        /* \"#utility.yul\":11822:11831   */\n      dup3\n        /* \"#utility.yul\":11818:11836   */\n      add\n        /* \"#utility.yul\":11810:11836   */\n      swap1\n      pop\n        /* \"#utility.yul\":11882:11891   */\n      dup2\n        /* \"#utility.yul\":11876:11880   */\n      dup2\n        /* \"#utility.yul\":11872:11892   */\n      sub\n        /* \"#utility.yul\":11868:11869   */\n      0x00\n        /* \"#utility.yul\":11857:11866   */\n      dup4\n        /* \"#utility.yul\":11853:11870   */\n      add\n        /* \"#utility.yul\":11846:11893   */\n      mstore\n        /* \"#utility.yul\":11910:12041   */\n      tag_273\n        /* \"#utility.yul\":12036:12040   */\n      dup2\n        /* \"#utility.yul\":11910:12041   */\n      tag_245\n      jump\t// in\n    tag_273:\n        /* \"#utility.yul\":11902:12041   */\n      swap1\n      pop\n        /* \"#utility.yul\":12051:12123   */\n      tag_274\n        /* \"#utility.yul\":12119:12121   */\n      0x20\n        /* \"#utility.yul\":12108:12117   */\n      dup4\n        /* \"#utility.yul\":12104:12122   */\n      add\n        /* \"#utility.yul\":12095:12101   */\n      dup5\n        /* \"#utility.yul\":12051:12123   */\n      tag_199\n      jump\t// in\n    tag_274:\n        /* \"#utility.yul\":11601:12130   */\n      swap3\n      swap2\n      pop\n      pop\n      jump\t// out\n        /* \"#utility.yul\":12136:12517   */\n    tag_13:\n        /* \"#utility.yul\":12283:12287   */\n      0x00\n        /* \"#utility.yul\":12321:12323   */\n      0x20\n        /* \"#utility.yul\":12310:12319   */\n      dup3\n        /* \"#utility.yul\":12306:12324   */\n      add\n        /* \"#utility.yul\":12298:12324   */\n      swap1\n      pop\n        /* \"#utility.yul\":12370:12379   */\n      dup2\n        /* \"#utility.yul\":12364:12368   */\n      dup2\n        /* \"#utility.yul\":12360:12380   */\n      sub\n        /* \"#utility.yul\":12356:12357   */\n      0x00\n        /* \"#utility.yul\":12345:12354   */\n      dup4\n        /* \"#utility.yul\":12341:12358   */\n      add\n        /* \"#utility.yul\":12334:12381   */\n      mstore\n        /* \"#utility.yul\":12398:12510   */\n      tag_276\n        /* \"#utility.yul\":12505:12509   */\n      dup2\n        /* \"#utility.yul\":12496:12502   */\n      dup5\n        /* \"#utility.yul\":12398:12510   */\n      tag_250\n      jump\t// in\n    tag_276:\n        /* \"#utility.yul\":12390:12510   */\n      swap1\n      pop\n        /* \"#utility.yul\":12136:12517   */\n      swap3\n      swap2\n      pop\n      pop\n      jump\t// out\n        /* \"#utility.yul\":12523:12904   */\n    tag_34:\n        /* \"#utility.yul\":12670:12674   */\n      0x00\n        /* \"#utility.yul\":12708:12710   */\n      0x20\n        /* \"#utility.yul\":12697:12706   */\n      dup3\n        /* \"#utility.yul\":12693:12711   */\n      add\n        /* \"#utility.yul\":12685:12711   */\n      swap1\n      pop\n        /* \"#utility.yul\":12757:12766   */\n      dup2\n        /* \"#utility.yul\":12751:12755   */\n      dup2\n        /* \"#utility.yul\":12747:12767   */\n      sub\n        /* \"#utility.yul\":12743:12744   */\n      0x00\n        /* \"#utility.yul\":12732:12741   */\n      dup4\n        /* \"#utility.yul\":12728:12745   */\n      add\n        /* \"#utility.yul\":12721:12768   */\n      mstore\n        /* \"#utility.yul\":12785:12897   */\n      tag_278\n        /* \"#utility.yul\":12892:12896   */\n      dup2\n        /* \"#utility.yul\":12883:12889   */\n      dup5\n        /* \"#utility.yul\":12785:12897   */\n      tag_257\n      jump\t// in\n    tag_278:\n        /* \"#utility.yul\":12777:12897   */\n      swap1\n      pop\n        /* \"#utility.yul\":12523:12904   */\n      swap3\n      swap2\n      pop\n      pop\n      jump\t// out\n        /* \"#utility.yul\":12910:13039   */\n    tag_128:\n        /* \"#utility.yul\":12944:12950   */\n      0x00\n        /* \"#utility.yul\":12971:12991   */\n      tag_280\n      tag_281\n      jump\t// in\n    tag_280:\n        /* \"#utility.yul\":12961:12991   */\n      swap1\n      pop\n        /* \"#utility.yul\":13000:13033   */\n      tag_282\n        /* \"#utility.yul\":13028:13032   */\n      dup3\n        /* \"#utility.yul\":13020:13026   */\n      dup3\n        /* \"#utility.yul\":13000:13033   */\n      tag_283\n      jump\t// in\n    tag_282:\n        /* \"#utility.yul\":12910:13039   */\n      swap2\n      swap1\n      pop\n      jump\t// out\n        /* \"#utility.yul\":13045:13120   */\n    tag_281:\n        /* \"#utility.yul\":13078:13084   */\n      0x00\n        /* \"#utility.yul\":13111:13113   */\n      0x40\n        /* \"#utility.yul\":13105:13114   */\n      mload\n        /* \"#utility.yul\":13095:13114   */\n      swap1\n      pop\n        /* \"#utility.yul\":13045:13120   */\n      swap1\n      jump\t// out\n        /* \"#utility.yul\":13126:13433   */\n    tag_127:\n        /* \"#utility.yul\":13187:13191   */\n      0x00\n        /* \"#utility.yul\":13277:13295   */\n      0xffffffffffffffff\n        /* \"#utility.yul\":13269:13275   */\n      dup3\n        /* \"#utility.yul\":13266:13296   */\n      gt\n        /* \"#utility.yul\":13263:13319   */\n      iszero\n      tag_286\n      jumpi\n        /* \"#utility.yul\":13299:13317   */\n      tag_287\n      tag_288\n      jump\t// in\n    tag_287:\n        /* \"#utility.yul\":13263:13319   */\n    tag_286:\n        /* \"#utility.yul\":13337:13366   */\n      tag_289\n        /* \"#utility.yul\":13359:13365   */\n      dup3\n        /* \"#utility.yul\":13337:13366   */\n      tag_212\n      jump\t// in\n    tag_289:\n        /* \"#utility.yul\":13329:13366   */\n      swap1\n      pop\n        /* \"#utility.yul\":13421:13425   */\n      0x20\n        /* \"#utility.yul\":13415:13419   */\n      dup2\n        /* \"#utility.yul\":13411:13426   */\n      add\n        /* \"#utility.yul\":13403:13426   */\n      swap1\n      pop\n        /* \"#utility.yul\":13126:13433   */\n      swap2\n      swap1\n      pop\n      jump\t// out\n        /* \"#utility.yul\":13439:13747   */\n    tag_138:\n        /* \"#utility.yul\":13501:13505   */\n      0x00\n        /* \"#utility.yul\":13591:13609   */\n      0xffffffffffffffff\n        /* \"#utility.yul\":13583:13589   */\n      dup3\n        /* \"#utility.yul\":13580:13610   */\n      gt\n        /* \"#utility.yul\":13577:13633   */\n      iszero\n      tag_291\n      jumpi\n        /* \"#utility.yul\":13613:13631   */\n      tag_292\n      tag_288\n      jump\t// in\n    tag_292:\n        /* \"#utility.yul\":13577:13633   */\n    tag_291:\n        /* \"#utility.yul\":13651:13680   */\n      tag_293\n        /* \"#utility.yul\":13673:13679   */\n      dup3\n        /* \"#utility.yul\":13651:13680   */\n      tag_212\n      jump\t// in\n    tag_293:\n        /* \"#utility.yul\":13643:13680   */\n      swap1\n      pop\n        /* \"#utility.yul\":13735:13739   */\n      0x20\n        /* \"#utility.yul\":13729:13733   */\n      dup2\n        /* \"#utility.yul\":13725:13740   */\n      add\n        /* \"#utility.yul\":13717:13740   */\n      swap1\n      pop\n        /* \"#utility.yul\":13439:13747   */\n      swap2\n      swap1\n      pop\n      jump\t// out\n        /* \"#utility.yul\":13753:13894   */\n    tag_235:\n        /* \"#utility.yul\":13802:13806   */\n      0x00\n        /* \"#utility.yul\":13825:13828   */\n      dup2\n        /* \"#utility.yul\":13817:13828   */\n      swap1\n      pop\n        /* \"#utility.yul\":13848:13851   */\n      dup2\n        /* \"#utility.yul\":13845:13846   */\n      0x00\n        /* \"#utility.yul\":13838:13852   */\n      mstore\n        /* \"#utility.yul\":13882:13886   */\n      0x20\n        /* \"#utility.yul\":13879:13880   */\n      0x00\n        /* \"#utility.yul\":13869:13887   */\n      keccak256\n        /* \"#utility.yul\":13861:13887   */\n      swap1\n      pop\n        /* \"#utility.yul\":13753:13894   */\n      swap2\n      swap1\n      pop\n      jump\t// out\n        /* \"#utility.yul\":13900:13998   */\n    tag_206:\n        /* \"#utility.yul\":13951:13957   */\n      0x00\n        /* \"#utility.yul\":13985:13990   */\n      dup2\n        /* \"#utility.yul\":13979:13991   */\n      mload\n        /* \"#utility.yul\":13969:13991   */\n      swap1\n      pop\n        /* \"#utility.yul\":13900:13998   */\n      swap2\n      swap1\n      pop\n      jump\t// out\n        /* \"#utility.yul\":14004:14103   */\n    tag_216:\n        /* \"#utility.yul\":14056:14062   */\n      0x00\n        /* \"#utility.yul\":14090:14095   */\n      dup2\n        /* \"#utility.yul\":14084:14096   */\n      mload\n        /* \"#utility.yul\":14074:14096   */\n      swap1\n      pop\n        /* \"#utility.yul\":14004:14103   */\n      swap2\n      swap1\n      pop\n      jump\t// out\n        /* \"#utility.yul\":14109:14267   */\n    tag_208:\n        /* \"#utility.yul\":14182:14193   */\n      0x00\n        /* \"#utility.yul\":14216:14222   */\n      dup3\n        /* \"#utility.yul\":14211:14214   */\n      dup3\n        /* \"#utility.yul\":14204:14223   */\n      mstore\n        /* \"#utility.yul\":14256:14260   */\n      0x20\n        /* \"#utility.yul\":14251:14254   */\n      dup3\n        /* \"#utility.yul\":14247:14261   */\n      add\n        /* \"#utility.yul\":14232:14261   */\n      swap1\n      pop\n        /* \"#utility.yul\":14109:14267   */\n      swap3\n      swap2\n      pop\n      pop\n      jump\t// out\n        /* \"#utility.yul\":14273:14432   */\n    tag_218:\n        /* \"#utility.yul\":14347:14358   */\n      0x00\n        /* \"#utility.yul\":14381:14387   */\n      dup3\n        /* \"#utility.yul\":14376:14379   */\n      dup3\n        /* \"#utility.yul\":14369:14388   */\n      mstore\n        /* \"#utility.yul\":14421:14425   */\n      0x20\n        /* \"#utility.yul\":14416:14419   */\n      dup3\n        /* \"#utility.yul\":14412:14426   */\n      add\n        /* \"#utility.yul\":14397:14426   */\n      swap1\n      pop\n        /* \"#utility.yul\":14273:14432   */\n      swap3\n      swap2\n      pop\n      pop\n      jump\t// out\n        /* \"#utility.yul\":14438:14607   */\n    tag_242:\n        /* \"#utility.yul\":14522:14533   */\n      0x00\n        /* \"#utility.yul\":14556:14562   */\n      dup3\n        /* \"#utility.yul\":14551:14554   */\n      dup3\n        /* \"#utility.yul\":14544:14563   */\n      mstore\n        /* \"#utility.yul\":14596:14600   */\n      0x20\n        /* \"#utility.yul\":14591:14594   */\n      dup3\n        /* \"#utility.yul\":14587:14601   */\n      add\n        /* \"#utility.yul\":14572:14601   */\n      swap1\n      pop\n        /* \"#utility.yul\":14438:14607   */\n      swap3\n      swap2\n      pop\n      pop\n      jump\t// out\n        /* \"#utility.yul\":14613:14761   */\n    tag_225:\n        /* \"#utility.yul\":14715:14726   */\n      0x00\n        /* \"#utility.yul\":14752:14755   */\n      dup2\n        /* \"#utility.yul\":14737:14755   */\n      swap1\n      pop\n        /* \"#utility.yul\":14613:14761   */\n      swap3\n      swap2\n      pop\n      pop\n      jump\t// out\n        /* \"#utility.yul\":14767:14844   */\n    tag_202:\n        /* \"#utility.yul\":14804:14811   */\n      0x00\n        /* \"#utility.yul\":14833:14838   */\n      dup2\n        /* \"#utility.yul\":14822:14838   */\n      swap1\n      pop\n        /* \"#utility.yul\":14767:14844   */\n      swap2\n      swap1\n      pop\n      jump\t// out\n        /* \"#utility.yul\":14850:14927   */\n    tag_263:\n        /* \"#utility.yul\":14887:14894   */\n      0x00\n        /* \"#utility.yul\":14916:14921   */\n      dup2\n        /* \"#utility.yul\":14905:14921   */\n      swap1\n      pop\n        /* \"#utility.yul\":14850:14927   */\n      swap2\n      swap1\n      pop\n      jump\t// out\n        /* \"#utility.yul\":14933:15087   */\n    tag_133:\n        /* \"#utility.yul\":15017:15023   */\n      dup3\n        /* \"#utility.yul\":15012:15015   */\n      dup2\n        /* \"#utility.yul\":15007:15010   */\n      dup4\n        /* \"#utility.yul\":14994:15024   */\n      calldatacopy\n        /* \"#utility.yul\":15079:15080   */\n      0x00\n        /* \"#utility.yul\":15070:15076   */\n      dup4\n        /* \"#utility.yul\":15065:15068   */\n      dup4\n        /* \"#utility.yul\":15061:15077   */\n      add\n        /* \"#utility.yul\":15054:15081   */\n      mstore\n        /* \"#utility.yul\":14933:15087   */\n      pop\n      pop\n      pop\n      jump\t// out\n        /* \"#utility.yul\":15093:15400   */\n    tag_210:\n        /* \"#utility.yul\":15161:15162   */\n      0x00\n        /* \"#utility.yul\":15171:15284   */\n    tag_305:\n        /* \"#utility.yul\":15185:15191   */\n      dup4\n        /* \"#utility.yul\":15182:15183   */\n      dup2\n        /* \"#utility.yul\":15179:15192   */\n      lt\n        /* \"#utility.yul\":15171:15284   */\n      iszero\n      tag_307\n      jumpi\n        /* \"#utility.yul\":15270:15271   */\n      dup1\n        /* \"#utility.yul\":15265:15268   */\n      dup3\n        /* \"#utility.yul\":15261:15272   */\n      add\n        /* \"#utility.yul\":15255:15273   */\n      mload\n        /* \"#utility.yul\":15251:15252   */\n      dup2\n        /* \"#utility.yul\":15246:15249   */\n      dup5\n        /* \"#utility.yul\":15242:15253   */\n      add\n        /* \"#utility.yul\":15235:15274   */\n      mstore\n        /* \"#utility.yul\":15207:15209   */\n      0x20\n        /* \"#utility.yul\":15204:15205   */\n      dup2\n        /* \"#utility.yul\":15200:15210   */\n      add\n        /* \"#utility.yul\":15195:15210   */\n      swap1\n      pop\n        /* \"#utility.yul\":15171:15284   */\n      jump(tag_305)\n    tag_307:\n        /* \"#utility.yul\":15302:15308   */\n      dup4\n        /* \"#utility.yul\":15299:15300   */\n      dup2\n        /* \"#utility.yul\":15296:15309   */\n      gt\n        /* \"#utility.yul\":15293:15394   */\n      iszero\n      tag_308\n      jumpi\n        /* \"#utility.yul\":15382:15383   */\n      0x00\n        /* \"#utility.yul\":15373:15379   */\n      dup5\n        /* \"#utility.yul\":15368:15371   */\n      dup5\n        /* \"#utility.yul\":15364:15380   */\n      add\n        /* \"#utility.yul\":15357:15384   */\n      mstore\n        /* \"#utility.yul\":15293:15394   */\n    tag_308:\n        /* \"#utility.yul\":15142:15400   */\n      pop\n        /* \"#utility.yul\":15093:15400   */\n      pop\n      pop\n      pop\n      jump\t// out\n        /* \"#utility.yul\":15406:15726   */\n    tag_41:\n        /* \"#utility.yul\":15450:15456   */\n      0x00\n        /* \"#utility.yul\":15487:15488   */\n      0x02\n        /* \"#utility.yul\":15481:15485   */\n      dup3\n        /* \"#utility.yul\":15477:15489   */\n      div\n        /* \"#utility.yul\":15467:15489   */\n      swap1\n      pop\n        /* \"#utility.yul\":15534:15535   */\n      0x01\n        /* \"#utility.yul\":15528:15532   */\n      dup3\n        /* \"#utility.yul\":15524:15536   */\n      and\n        /* \"#utility.yul\":15555:15573   */\n      dup1\n        /* \"#utility.yul\":15545:15626   */\n      tag_310\n      jumpi\n        /* \"#utility.yul\":15611:15615   */\n      0x7f\n        /* \"#utility.yul\":15603:15609   */\n      dup3\n        /* \"#utility.yul\":15599:15616   */\n      and\n        /* \"#utility.yul\":15589:15616   */\n      swap2\n      pop\n        /* \"#utility.yul\":15545:15626   */\n    tag_310:\n        /* \"#utility.yul\":15673:15675   */\n      0x20\n        /* \"#utility.yul\":15665:15671   */\n      dup3\n        /* \"#utility.yul\":15662:15676   */\n      lt\n        /* \"#utility.yul\":15642:15660   */\n      dup2\n        /* \"#utility.yul\":15639:15677   */\n      eq\n        /* \"#utility.yul\":15636:15720   */\n      iszero\n      tag_311\n      jumpi\n        /* \"#utility.yul\":15692:15710   */\n      tag_312\n      tag_313\n      jump\t// in\n    tag_312:\n        /* \"#utility.yul\":15636:15720   */\n    tag_311:\n        /* \"#utility.yul\":15457:15726   */\n      pop\n        /* \"#utility.yul\":15406:15726   */\n      swap2\n      swap1\n      pop\n      jump\t// out\n        /* \"#utility.yul\":15732:16013   */\n    tag_283:\n        /* \"#utility.yul\":15815:15842   */\n      tag_315\n        /* \"#utility.yul\":15837:15841   */\n      dup3\n        /* \"#utility.yul\":15815:15842   */\n      tag_212\n      jump\t// in\n    tag_315:\n        /* \"#utility.yul\":15807:15813   */\n      dup2\n        /* \"#utility.yul\":15803:15843   */\n      add\n        /* \"#utility.yul\":15945:15951   */\n      dup2\n        /* \"#utility.yul\":15933:15943   */\n      dup2\n        /* \"#utility.yul\":15930:15952   */\n      lt\n        /* \"#utility.yul\":15909:15927   */\n      0xffffffffffffffff\n        /* \"#utility.yul\":15897:15907   */\n      dup3\n        /* \"#utility.yul\":15894:15928   */\n      gt\n        /* \"#utility.yul\":15891:15953   */\n      or\n        /* \"#utility.yul\":15888:15976   */\n      iszero\n      tag_316\n      jumpi\n        /* \"#utility.yul\":15956:15974   */\n      tag_317\n      tag_288\n      jump\t// in\n    tag_317:\n        /* \"#utility.yul\":15888:15976   */\n    tag_316:\n        /* \"#utility.yul\":15996:16006   */\n      dup1\n        /* \"#utility.yul\":15992:15994   */\n      0x40\n        /* \"#utility.yul\":15985:16007   */\n      mstore\n        /* \"#utility.yul\":15775:16013   */\n      pop\n        /* \"#utility.yul\":15732:16013   */\n      pop\n      pop\n      jump\t// out\n        /* \"#utility.yul\":16019:16199   */\n    tag_313:\n        /* \"#utility.yul\":16067:16144   */\n      0x4e487b7100000000000000000000000000000000000000000000000000000000\n        /* \"#utility.yul\":16064:16065   */\n      0x00\n        /* \"#utility.yul\":16057:16145   */\n      mstore\n        /* \"#utility.yul\":16164:16168   */\n      0x22\n        /* \"#utility.yul\":16161:16162   */\n      0x04\n        /* \"#utility.yul\":16154:16169   */\n      mstore\n        /* \"#utility.yul\":16188:16192   */\n      0x24\n        /* \"#utility.yul\":16185:16186   */\n      0x00\n        /* \"#utility.yul\":16178:16193   */\n      revert\n        /* \"#utility.yul\":16205:16385   */\n    tag_288:\n        /* \"#utility.yul\":16253:16330   */\n      0x4e487b7100000000000000000000000000000000000000000000000000000000\n        /* \"#utility.yul\":16250:16251   */\n      0x00\n        /* \"#utility.yul\":16243:16331   */\n      mstore\n        /* \"#utility.yul\":16350:16354   */\n      0x41\n        /* \"#utility.yul\":16347:16348   */\n      0x04\n        /* \"#utility.yul\":16340:16355   */\n      mstore\n        /* \"#utility.yul\":16374:16378   */\n      0x24\n        /* \"#utility.yul\":16371:16372   */\n      0x00\n        /* \"#utility.yul\":16364:16379   */\n      revert\n        /* \"#utility.yul\":16391:16508   */\n    tag_146:\n        /* \"#utility.yul\":16500:16501   */\n      0x00\n        /* \"#utility.yul\":16497:16498   */\n      dup1\n        /* \"#utility.yul\":16490:16502   */\n      revert\n        /* \"#utility.yul\":16514:16631   */\n    tag_131:\n        /* \"#utility.yul\":16623:16624   */\n      0x00\n        /* \"#utility.yul\":16620:16621   */\n      dup1\n        /* \"#utility.yul\":16613:16625   */\n      revert\n        /* \"#utility.yul\":16637:16754   */\n    tag_163:\n        /* \"#utility.yul\":16746:16747   */\n      0x00\n        /* \"#utility.yul\":16743:16744   */\n      dup1\n        /* \"#utility.yul\":16736:16748   */\n      revert\n        /* \"#utility.yul\":16760:16877   */\n    tag_160:\n        /* \"#utility.yul\":16869:16870   */\n      0x00\n        /* \"#utility.yul\":16866:16867   */\n      dup1\n        /* \"#utility.yul\":16859:16871   */\n      revert\n        /* \"#utility.yul\":16883:16985   */\n    tag_212:\n        /* \"#utility.yul\":16924:16930   */\n      0x00\n        /* \"#utility.yul\":16975:16977   */\n      0x1f\n        /* \"#utility.yul\":16971:16978   */\n      not\n        /* \"#utility.yul\":16966:16968   */\n      0x1f\n        /* \"#utility.yul\":16959:16964   */\n      dup4\n        /* \"#utility.yul\":16955:16969   */\n      add\n        /* \"#utility.yul\":16951:16979   */\n      and\n        /* \"#utility.yul\":16941:16979   */\n      swap1\n      pop\n        /* \"#utility.yul\":16883:16985   */\n      swap2\n      swap1\n      pop\n      jump\t// out\n        /* \"#utility.yul\":16991:17165   */\n    tag_244:\n        /* \"#utility.yul\":17131:17157   */\n      0x4163636f756e7420616c7265616479206578697374696e670000000000000000\n        /* \"#utility.yul\":17127:17128   */\n      0x00\n        /* \"#utility.yul\":17119:17125   */\n      dup3\n        /* \"#utility.yul\":17115:17129   */\n      add\n        /* \"#utility.yul\":17108:17158   */\n      mstore\n        /* \"#utility.yul\":16991:17165   */\n      pop\n      jump\t// out\n        /* \"#utility.yul\":17171:17328   */\n    tag_249:\n        /* \"#utility.yul\":17311:17320   */\n      0x7375636365737300000000000000000000000000000000000000000000000000\n        /* \"#utility.yul\":17307:17308   */\n      0x00\n        /* \"#utility.yul\":17299:17305   */\n      dup3\n        /* \"#utility.yul\":17295:17309   */\n      add\n        /* \"#utility.yul\":17288:17321   */\n      mstore\n        /* \"#utility.yul\":17171:17328   */\n      pop\n      jump\t// out\n        /* \"#utility.yul\":17334:17456   */\n    tag_156:\n        /* \"#utility.yul\":17407:17431   */\n      tag_328\n        /* \"#utility.yul\":17425:17430   */\n      dup2\n        /* \"#utility.yul\":17407:17431   */\n      tag_263\n      jump\t// in\n    tag_328:\n        /* \"#utility.yul\":17400:17405   */\n      dup2\n        /* \"#utility.yul\":17397:17432   */\n      eq\n        /* \"#utility.yul\":17387:17450   */\n      tag_329\n      jumpi\n        /* \"#utility.yul\":17446:17447   */\n      0x00\n        /* \"#utility.yul\":17443:17444   */\n      dup1\n        /* \"#utility.yul\":17436:17448   */\n      revert\n        /* \"#utility.yul\":17387:17450   */\n    tag_329:\n        /* \"#utility.yul\":17334:17456   */\n      pop\n      jump\t// out\n\n    auxdata: 0xa2646970667358221220cdf96d7131c952763fabda7856923a1a567a925d06843d519864f7ddbdeb85cd64736f6c63430008070033\n}\n",
				"bytecode": {
					"linkReferences": {},
					"object": "608060405234801561001057600080fd5b506113cd806100206000396000f3fe608060405234801561001057600080fd5b50600436106100575760003560e01c8063174ba7ff1461005c5780635b62132d1461008c578063b24c908a146100bc578063c3efbe38146100ec578063ca5e208f1461011c575b600080fd5b61007660048036038101906100719190610bca565b61014c565b60405161008391906110be565b60405180910390f35b6100a660048036038101906100a19190610c13565b610364565b6040516100b39190611055565b60405180910390f35b6100d660048036038101906100d19190610cba565b61052b565b6040516100e39190611055565b60405180910390f35b61010660048036038101906101019190610d61565b61064d565b6040516101139190611055565b60405180910390f35b61013660048036038101906101319190610bca565b610805565b60405161014391906110e0565b60405180910390f35b6101546109f0565b6000826040516020016101679190611027565b6040516020818303038152906040528051906020012090506000808281526020019081526020016000206040518060800160405290816000820180546101ac90611248565b80601f01602080910402602001604051908101604052809291908181526020018280546101d890611248565b80156102255780601f106101fa57610100808354040283529160200191610225565b820191906000526020600020905b81548152906001019060200180831161020857829003601f168201915b5050505050815260200160018201805461023e90611248565b80601f016020809104026020016040519081016040528092919081815260200182805461026a90611248565b80156102b75780601f1061028c576101008083540402835291602001916102b7565b820191906000526020600020905b81548152906001019060200180831161029a57829003601f168201915b505050505081526020016002820180546102d090611248565b80601f01602080910402602001604051908101604052809291908181526020018280546102fc90611248565b80156103495780601f1061031e57610100808354040283529160200191610349565b820191906000526020600020905b81548152906001019060200180831161032c57829003601f168201915b50505050508152602001600382015481525050915050919050565b600080846040516020016103789190611027565b6040516020818303038152906040528051906020012090506000600160008381526020019081526020016000206040518060400160405290816000820180546103c090611248565b80601f01602080910402602001604051908101604052809291908181526020018280546103ec90611248565b80156104395780601f1061040e57610100808354040283529160200191610439565b820191906000526020600020905b81548152906001019060200180831161041c57829003601f168201915b5050505050815260200160018201805461045290611248565b80601f016020809104026020016040519081016040528092919081815260200182805461047e90611248565b80156104cb5780601f106104a0576101008083540402835291602001916104cb565b820191906000526020600020905b8154815290600101906020018083116104ae57829003601f168201915b50505050508152505090508481600001819052508381602001819052507fc8922d91fbabbe8df5d667708c678575856a856a2a465ebd9626a40ab6a16f5f826040516105179190611090565b60405180910390a181925050509392505050565b6000808460405160200161053f9190611027565b6040516020818303038152906040528051906020012090506105618186610982565b6105a0576040517f08c379a000000000000000000000000000000000000000000000000000000000815260040161059790611070565b60405180910390fd5b60008060008381526020019081526020016000209050858160000190805190602001906105ce929190610a18565b50848160010190805190602001906105e7929190610a18565b5083816002019080519060200190610600929190610a18565b504281600301819055507fc8922d91fbabbe8df5d667708c678575856a856a2a465ebd9626a40ab6a16f5f826040516106399190611090565b60405180910390a181925050509392505050565b600080846040516020016106619190611027565b6040516020818303038152906040528051906020012090506000600260008381526020019081526020016000206040518060800160405290816000820180546106a990611248565b80601f01602080910402602001604051908101604052809291908181526020018280546106d590611248565b80156107225780601f106106f757610100808354040283529160200191610722565b820191906000526020600020905b81548152906001019060200180831161070557829003601f168201915b5050505050815260200160018201805461073b90611248565b80601f016020809104026020016040519081016040528092919081815260200182805461076790611248565b80156107b45780601f10610789576101008083540402835291602001916107b4565b820191906000526020600020905b81548152906001019060200180831161079757829003601f168201915b50505050508152602001600282015481526020016003820154815250509050858160000181905250848160200181905250428160400181815250508381606001818152505081925050509392505050565b61080d610a9e565b6000826040516020016108209190611027565b6040516020818303038152906040528051906020012090506001600082815260200190815260200160002060405180604001604052908160008201805461086690611248565b80601f016020809104026020016040519081016040528092919081815260200182805461089290611248565b80156108df5780601f106108b4576101008083540402835291602001916108df565b820191906000526020600020905b8154815290600101906020018083116108c257829003601f168201915b505050505081526020016001820180546108f890611248565b80601f016020809104026020016040519081016040528092919081815260200182805461092490611248565b80156109715780601f1061094657610100808354040283529160200191610971565b820191906000526020600020905b81548152906001019060200180831161095457829003601f168201915b505050505081525050915050919050565b6000816040516020016109959190611027565b604051602081830303815290604052805190602001206000808581526020019081526020016000206000016040516020016109d0919061103e565b604051602081830303815290604052805190602001201415905092915050565b6040518060800160405280606081526020016060815260200160608152602001600081525090565b828054610a2490611248565b90600052602060002090601f016020900481019282610a465760008555610a8d565b82601f10610a5f57805160ff1916838001178555610a8d565b82800160010185558215610a8d579182015b82811115610a8c578251825591602001919060010190610a71565b5b509050610a9a9190610ab8565b5090565b604051806040016040528060608152602001606081525090565b5b80821115610ad1576000816000905550600101610ab9565b5090565b6000610ae8610ae384611127565b611102565b905082815260208101848484011115610b0457610b0361130e565b5b610b0f848285611206565b509392505050565b6000610b2a610b2584611158565b611102565b905082815260208101848484011115610b4657610b4561130e565b5b610b51848285611206565b509392505050565b600082601f830112610b6e57610b6d611309565b5b8135610b7e848260208601610ad5565b91505092915050565b600082601f830112610b9c57610b9b611309565b5b8135610bac848260208601610b17565b91505092915050565b600081359050610bc481611380565b92915050565b600060208284031215610be057610bdf611318565b5b600082013567ffffffffffffffff811115610bfe57610bfd611313565b5b610c0a84828501610b87565b91505092915050565b600080600060608486031215610c2c57610c2b611318565b5b600084013567ffffffffffffffff811115610c4a57610c49611313565b5b610c5686828701610b87565b935050602084013567ffffffffffffffff811115610c7757610c76611313565b5b610c8386828701610b87565b925050604084013567ffffffffffffffff811115610ca457610ca3611313565b5b610cb086828701610b59565b9150509250925092565b600080600060608486031215610cd357610cd2611318565b5b600084013567ffffffffffffffff811115610cf157610cf0611313565b5b610cfd86828701610b87565b935050602084013567ffffffffffffffff811115610d1e57610d1d611313565b5b610d2a86828701610b87565b925050604084013567ffffffffffffffff811115610d4b57610d4a611313565b5b610d5786828701610b87565b9150509250925092565b600080600060608486031215610d7a57610d79611318565b5b600084013567ffffffffffffffff811115610d9857610d97611313565b5b610da486828701610b87565b935050602084013567ffffffffffffffff811115610dc557610dc4611313565b5b610dd186828701610b87565b9250506040610de286828701610bb5565b9150509250925092565b610df5816111f2565b82525050565b6000610e068261119e565b610e1081856111b4565b9350610e20818560208601611215565b610e298161131d565b840191505092915050565b6000610e3f826111a9565b610e4981856111c5565b9350610e59818560208601611215565b610e628161131d565b840191505092915050565b6000610e78826111a9565b610e8281856111e7565b9350610e92818560208601611215565b80840191505092915050565b60008154610eab81611248565b610eb581866111e7565b94506001821660008114610ed05760018114610ee157610f14565b60ff19831686528186019350610f14565b610eea85611189565b60005b83811015610f0c57815481890152600182019150602081019050610eed565b838801955050505b50505092915050565b6000610f2a6018836111d6565b9150610f358261132e565b602082019050919050565b6000610f4d6007836111d6565b9150610f5882611357565b602082019050919050565b60006080830160008301518482036000860152610f808282610e34565b91505060208301518482036020860152610f9a8282610e34565b91505060408301518482036040860152610fb48282610e34565b9150506060830151610fc96060860182611018565b508091505092915050565b60006040830160008301518482036000860152610ff18282610e34565b9150506020830151848203602086015261100b8282610dfb565b9150508091505092915050565b611021816111fc565b82525050565b60006110338284610e6d565b915081905092915050565b600061104a8284610e9e565b915081905092915050565b600060208201905061106a6000830184610dec565b92915050565b6000602082019050818103600083015261108981610f1d565b9050919050565b600060408201905081810360008301526110a981610f40565b90506110b86020830184610dec565b92915050565b600060208201905081810360008301526110d88184610f63565b905092915050565b600060208201905081810360008301526110fa8184610fd4565b905092915050565b600061110c61111d565b9050611118828261127a565b919050565b6000604051905090565b600067ffffffffffffffff821115611142576111416112da565b5b61114b8261131d565b9050602081019050919050565b600067ffffffffffffffff821115611173576111726112da565b5b61117c8261131d565b9050602081019050919050565b60008190508160005260206000209050919050565b600081519050919050565b600081519050919050565b600082825260208201905092915050565b600082825260208201905092915050565b600082825260208201905092915050565b600081905092915050565b6000819050919050565b6000819050919050565b82818337600083830152505050565b60005b83811015611233578082015181840152602081019050611218565b83811115611242576000848401525b50505050565b6000600282049050600182168061126057607f821691505b60208210811415611274576112736112ab565b5b50919050565b6112838261131d565b810181811067ffffffffffffffff821117156112a2576112a16112da565b5b80604052505050565b7f4e487b7100000000000000000000000000000000000000000000000000000000600052602260045260246000fd5b7f4e487b7100000000000000000000000000000000000000000000000000000000600052604160045260246000fd5b600080fd5b600080fd5b600080fd5b600080fd5b6000601f19601f8301169050919050565b7f4163636f756e7420616c7265616479206578697374696e670000000000000000600082015250565b7f7375636365737300000000000000000000000000000000000000000000000000600082015250565b611389816111fc565b811461139457600080fd5b5056fea2646970667358221220cdf96d7131c952763fabda7856923a1a567a925d06843d519864f7ddbdeb85cd64736f6c63430008070033",
					"opcodes": "PUSH1 0x80 PUSH1 0x40 MSTORE CALLVALUE DUP1 ISZERO PUSH2 0x10 JUMPI PUSH1 0x0 DUP1 REVERT JUMPDEST POP PUSH2 0x13CD DUP1 PUSH2 0x20 PUSH1 0x0 CODECOPY PUSH1 0x0 RETURN INVALID PUSH1 0x80 PUSH1 0x40 MSTORE CALLVALUE DUP1 ISZERO PUSH2 0x10 JUMPI PUSH1 0x0 DUP1 REVERT JUMPDEST POP PUSH1 0x4 CALLDATASIZE LT PUSH2 0x57 JUMPI PUSH1 0x0 CALLDATALOAD PUSH1 0xE0 SHR DUP1 PUSH4 0x174BA7FF EQ PUSH2 0x5C JUMPI DUP1 PUSH4 0x5B62132D EQ PUSH2 0x8C JUMPI DUP1 PUSH4 0xB24C908A EQ PUSH2 0xBC JUMPI DUP1 PUSH4 0xC3EFBE38 EQ PUSH2 0xEC JUMPI DUP1 PUSH4 0xCA5E208F EQ PUSH2 0x11C JUMPI JUMPDEST PUSH1 0x0 DUP1 REVERT JUMPDEST PUSH2 0x76 PUSH1 0x4 DUP1 CALLDATASIZE SUB DUP2 ADD SWAP1 PUSH2 0x71 SWAP2 SWAP1 PUSH2 0xBCA JUMP JUMPDEST PUSH2 0x14C JUMP JUMPDEST PUSH1 0x40 MLOAD PUSH2 0x83 SWAP2 SWAP1 PUSH2 0x10BE JUMP JUMPDEST PUSH1 0x40 MLOAD DUP1 SWAP2 SUB SWAP1 RETURN JUMPDEST PUSH2 0xA6 PUSH1 0x4 DUP1 CALLDATASIZE SUB DUP2 ADD SWAP1 PUSH2 0xA1 SWAP2 SWAP1 PUSH2 0xC13 JUMP JUMPDEST PUSH2 0x364 JUMP JUMPDEST PUSH1 0x40 MLOAD PUSH2 0xB3 SWAP2 SWAP1 PUSH2 0x1055 JUMP JUMPDEST PUSH1 0x40 MLOAD DUP1 SWAP2 SUB SWAP1 RETURN JUMPDEST PUSH2 0xD6 PUSH1 0x4 DUP1 CALLDATASIZE SUB DUP2 ADD SWAP1 PUSH2 0xD1 SWAP2 SWAP1 PUSH2 0xCBA JUMP JUMPDEST PUSH2 0x52B JUMP JUMPDEST PUSH1 0x40 MLOAD PUSH2 0xE3 SWAP2 SWAP1 PUSH2 0x1055 JUMP JUMPDEST PUSH1 0x40 MLOAD DUP1 SWAP2 SUB SWAP1 RETURN JUMPDEST PUSH2 0x106 PUSH1 0x4 DUP1 CALLDATASIZE SUB DUP2 ADD SWAP1 PUSH2 0x101 SWAP2 SWAP1 PUSH2 0xD61 JUMP JUMPDEST PUSH2 0x64D JUMP JUMPDEST PUSH1 0x40 MLOAD PUSH2 0x113 SWAP2 SWAP1 PUSH2 0x1055 JUMP JUMPDEST PUSH1 0x40 MLOAD DUP1 SWAP2 SUB SWAP1 RETURN JUMPDEST PUSH2 0x136 PUSH1 0x4 DUP1 CALLDATASIZE SUB DUP2 ADD SWAP1 PUSH2 0x131 SWAP2 SWAP1 PUSH2 0xBCA JUMP JUMPDEST PUSH2 0x805 JUMP JUMPDEST PUSH1 0x40 MLOAD PUSH2 0x143 SWAP2 SWAP1 PUSH2 0x10E0 JUMP JUMPDEST PUSH1 0x40 MLOAD DUP1 SWAP2 SUB SWAP1 RETURN JUMPDEST PUSH2 0x154 PUSH2 0x9F0 JUMP JUMPDEST PUSH1 0x0 DUP3 PUSH1 0x40 MLOAD PUSH1 0x20 ADD PUSH2 0x167 SWAP2 SWAP1 PUSH2 0x1027 JUMP JUMPDEST PUSH1 0x40 MLOAD PUSH1 0x20 DUP2 DUP4 SUB SUB DUP2 MSTORE SWAP1 PUSH1 0x40 MSTORE DUP1 MLOAD SWAP1 PUSH1 0x20 ADD KECCAK256 SWAP1 POP PUSH1 0x0 DUP1 DUP3 DUP2 MSTORE PUSH1 0x20 ADD SWAP1 DUP2 MSTORE PUSH1 0x20 ADD PUSH1 0x0 KECCAK256 PUSH1 0x40 MLOAD DUP1 PUSH1 0x80 ADD PUSH1 0x40 MSTORE SWAP1 DUP2 PUSH1 0x0 DUP3 ADD DUP1 SLOAD PUSH2 0x1AC SWAP1 PUSH2 0x1248 JUMP JUMPDEST DUP1 PUSH1 0x1F ADD PUSH1 0x20 DUP1 SWAP2 DIV MUL PUSH1 0x20 ADD PUSH1 0x40 MLOAD SWAP1 DUP2 ADD PUSH1 0x40 MSTORE DUP1 SWAP3 SWAP2 SWAP1 DUP2 DUP2 MSTORE PUSH1 0x20 ADD DUP3 DUP1 SLOAD PUSH2 0x1D8 SWAP1 PUSH2 0x1248 JUMP JUMPDEST DUP1 ISZERO PUSH2 0x225 JUMPI DUP1 PUSH1 0x1F LT PUSH2 0x1FA JUMPI PUSH2 0x100 DUP1 DUP4 SLOAD DIV MUL DUP4 MSTORE SWAP2 PUSH1 0x20 ADD SWAP2 PUSH2 0x225 JUMP JUMPDEST DUP3 ADD SWAP2 SWAP1 PUSH1 0x0 MSTORE PUSH1 0x20 PUSH1 0x0 KECCAK256 SWAP1 JUMPDEST DUP2 SLOAD DUP2 MSTORE SWAP1 PUSH1 0x1 ADD SWAP1 PUSH1 0x20 ADD DUP1 DUP4 GT PUSH2 0x208 JUMPI DUP3 SWAP1 SUB PUSH1 0x1F AND DUP3 ADD SWAP2 JUMPDEST POP POP POP POP POP DUP2 MSTORE PUSH1 0x20 ADD PUSH1 0x1 DUP3 ADD DUP1 SLOAD PUSH2 0x23E SWAP1 PUSH2 0x1248 JUMP JUMPDEST DUP1 PUSH1 0x1F ADD PUSH1 0x20 DUP1 SWAP2 DIV MUL PUSH1 0x20 ADD PUSH1 0x40 MLOAD SWAP1 DUP2 ADD PUSH1 0x40 MSTORE DUP1 SWAP3 SWAP2 SWAP1 DUP2 DUP2 MSTORE PUSH1 0x20 ADD DUP3 DUP1 SLOAD PUSH2 0x26A SWAP1 PUSH2 0x1248 JUMP JUMPDEST DUP1 ISZERO PUSH2 0x2B7 JUMPI DUP1 PUSH1 0x1F LT PUSH2 0x28C JUMPI PUSH2 0x100 DUP1 DUP4 SLOAD DIV MUL DUP4 MSTORE SWAP2 PUSH1 0x20 ADD SWAP2 PUSH2 0x2B7 JUMP JUMPDEST DUP3 ADD SWAP2 SWAP1 PUSH1 0x0 MSTORE PUSH1 0x20 PUSH1 0x0 KECCAK256 SWAP1 JUMPDEST DUP2 SLOAD DUP2 MSTORE SWAP1 PUSH1 0x1 ADD SWAP1 PUSH1 0x20 ADD DUP1 DUP4 GT PUSH2 0x29A JUMPI DUP3 SWAP1 SUB PUSH1 0x1F AND DUP3 ADD SWAP2 JUMPDEST POP POP POP POP POP DUP2 MSTORE PUSH1 0x20 ADD PUSH1 0x2 DUP3 ADD DUP1 SLOAD PUSH2 0x2D0 SWAP1 PUSH2 0x1248 JUMP JUMPDEST DUP1 PUSH1 0x1F ADD PUSH1 0x20 DUP1 SWAP2 DIV MUL PUSH1 0x20 ADD PUSH1 0x40 MLOAD SWAP1 DUP2 ADD PUSH1 0x40 MSTORE DUP1 SWAP3 SWAP2 SWAP1 DUP2 DUP2 MSTORE PUSH1 0x20 ADD DUP3 DUP1 SLOAD PUSH2 0x2FC SWAP1 PUSH2 0x1248 JUMP JUMPDEST DUP1 ISZERO PUSH2 0x349 JUMPI DUP1 PUSH1 0x1F LT PUSH2 0x31E JUMPI PUSH2 0x100 DUP1 DUP4 SLOAD DIV MUL DUP4 MSTORE SWAP2 PUSH1 0x20 ADD SWAP2 PUSH2 0x349 JUMP JUMPDEST DUP3 ADD SWAP2 SWAP1 PUSH1 0x0 MSTORE PUSH1 0x20 PUSH1 0x0 KECCAK256 SWAP1 JUMPDEST DUP2 SLOAD DUP2 MSTORE SWAP1 PUSH1 0x1 ADD SWAP1 PUSH1 0x20 ADD DUP1 DUP4 GT PUSH2 0x32C JUMPI DUP3 SWAP1 SUB PUSH1 0x1F AND DUP3 ADD SWAP2 JUMPDEST POP POP POP POP POP DUP2 MSTORE PUSH1 0x20 ADD PUSH1 0x3 DUP3 ADD SLOAD DUP2 MSTORE POP POP SWAP2 POP POP SWAP2 SWAP1 POP JUMP JUMPDEST PUSH1 0x0 DUP1 DUP5 PUSH1 0x40 MLOAD PUSH1 0x20 ADD PUSH2 0x378 SWAP2 SWAP1 PUSH2 0x1027 JUMP JUMPDEST PUSH1 0x40 MLOAD PUSH1 0x20 DUP2 DUP4 SUB SUB DUP2 MSTORE SWAP1 PUSH1 0x40 MSTORE DUP1 MLOAD SWAP1 PUSH1 0x20 ADD KECCAK256 SWAP1 POP PUSH1 0x0 PUSH1 0x1 PUSH1 0x0 DUP4 DUP2 MSTORE PUSH1 0x20 ADD SWAP1 DUP2 MSTORE PUSH1 0x20 ADD PUSH1 0x0 KECCAK256 PUSH1 0x40 MLOAD DUP1 PUSH1 0x40 ADD PUSH1 0x40 MSTORE SWAP1 DUP2 PUSH1 0x0 DUP3 ADD DUP1 SLOAD PUSH2 0x3C0 SWAP1 PUSH2 0x1248 JUMP JUMPDEST DUP1 PUSH1 0x1F ADD PUSH1 0x20 DUP1 SWAP2 DIV MUL PUSH1 0x20 ADD PUSH1 0x40 MLOAD SWAP1 DUP2 ADD PUSH1 0x40 MSTORE DUP1 SWAP3 SWAP2 SWAP1 DUP2 DUP2 MSTORE PUSH1 0x20 ADD DUP3 DUP1 SLOAD PUSH2 0x3EC SWAP1 PUSH2 0x1248 JUMP JUMPDEST DUP1 ISZERO PUSH2 0x439 JUMPI DUP1 PUSH1 0x1F LT PUSH2 0x40E JUMPI PUSH2 0x100 DUP1 DUP4 SLOAD DIV MUL DUP4 MSTORE SWAP2 PUSH1 0x20 ADD SWAP2 PUSH2 0x439 JUMP JUMPDEST DUP3 ADD SWAP2 SWAP1 PUSH1 0x0 MSTORE PUSH1 0x20 PUSH1 0x0 KECCAK256 SWAP1 JUMPDEST DUP2 SLOAD DUP2 MSTORE SWAP1 PUSH1 0x1 ADD SWAP1 PUSH1 0x20 ADD DUP1 DUP4 GT PUSH2 0x41C JUMPI DUP3 SWAP1 SUB PUSH1 0x1F AND DUP3 ADD SWAP2 JUMPDEST POP POP POP POP POP DUP2 MSTORE PUSH1 0x20 ADD PUSH1 0x1 DUP3 ADD DUP1 SLOAD PUSH2 0x452 SWAP1 PUSH2 0x1248 JUMP JUMPDEST DUP1 PUSH1 0x1F ADD PUSH1 0x20 DUP1 SWAP2 DIV MUL PUSH1 0x20 ADD PUSH1 0x40 MLOAD SWAP1 DUP2 ADD PUSH1 0x40 MSTORE DUP1 SWAP3 SWAP2 SWAP1 DUP2 DUP2 MSTORE PUSH1 0x20 ADD DUP3 DUP1 SLOAD PUSH2 0x47E SWAP1 PUSH2 0x1248 JUMP JUMPDEST DUP1 ISZERO PUSH2 0x4CB JUMPI DUP1 PUSH1 0x1F LT PUSH2 0x4A0 JUMPI PUSH2 0x100 DUP1 DUP4 SLOAD DIV MUL DUP4 MSTORE SWAP2 PUSH1 0x20 ADD SWAP2 PUSH2 0x4CB JUMP JUMPDEST DUP3 ADD SWAP2 SWAP1 PUSH1 0x0 MSTORE PUSH1 0x20 PUSH1 0x0 KECCAK256 SWAP1 JUMPDEST DUP2 SLOAD DUP2 MSTORE SWAP1 PUSH1 0x1 ADD SWAP1 PUSH1 0x20 ADD DUP1 DUP4 GT PUSH2 0x4AE JUMPI DUP3 SWAP1 SUB PUSH1 0x1F AND DUP3 ADD SWAP2 JUMPDEST POP POP POP POP POP DUP2 MSTORE POP POP SWAP1 POP DUP5 DUP2 PUSH1 0x0 ADD DUP2 SWAP1 MSTORE POP DUP4 DUP2 PUSH1 0x20 ADD DUP2 SWAP1 MSTORE POP PUSH32 0xC8922D91FBABBE8DF5D667708C678575856A856A2A465EBD9626A40AB6A16F5F DUP3 PUSH1 0x40 MLOAD PUSH2 0x517 SWAP2 SWAP1 PUSH2 0x1090 JUMP JUMPDEST PUSH1 0x40 MLOAD DUP1 SWAP2 SUB SWAP1 LOG1 DUP2 SWAP3 POP POP POP SWAP4 SWAP3 POP POP POP JUMP JUMPDEST PUSH1 0x0 DUP1 DUP5 PUSH1 0x40 MLOAD PUSH1 0x20 ADD PUSH2 0x53F SWAP2 SWAP1 PUSH2 0x1027 JUMP JUMPDEST PUSH1 0x40 MLOAD PUSH1 0x20 DUP2 DUP4 SUB SUB DUP2 MSTORE SWAP1 PUSH1 0x40 MSTORE DUP1 MLOAD SWAP1 PUSH1 0x20 ADD KECCAK256 SWAP1 POP PUSH2 0x561 DUP2 DUP7 PUSH2 0x982 JUMP JUMPDEST PUSH2 0x5A0 JUMPI PUSH1 0x40 MLOAD PUSH32 0x8C379A000000000000000000000000000000000000000000000000000000000 DUP2 MSTORE PUSH1 0x4 ADD PUSH2 0x597 SWAP1 PUSH2 0x1070 JUMP JUMPDEST PUSH1 0x40 MLOAD DUP1 SWAP2 SUB SWAP1 REVERT JUMPDEST PUSH1 0x0 DUP1 PUSH1 0x0 DUP4 DUP2 MSTORE PUSH1 0x20 ADD SWAP1 DUP2 MSTORE PUSH1 0x20 ADD PUSH1 0x0 KECCAK256 SWAP1 POP DUP6 DUP2 PUSH1 0x0 ADD SWAP1 DUP1 MLOAD SWAP1 PUSH1 0x20 ADD SWAP1 PUSH2 0x5CE SWAP3 SWAP2 SWAP1 PUSH2 0xA18 JUMP JUMPDEST POP DUP5 DUP2 PUSH1 0x1 ADD SWAP1 DUP1 MLOAD SWAP1 PUSH1 0x20 ADD SWAP1 PUSH2 0x5E7 SWAP3 SWAP2 SWAP1 PUSH2 0xA18 JUMP JUMPDEST POP DUP4 DUP2 PUSH1 0x2 ADD SWAP1 DUP1 MLOAD SWAP1 PUSH1 0x20 ADD SWAP1 PUSH2 0x600 SWAP3 SWAP2 SWAP1 PUSH2 0xA18 JUMP JUMPDEST POP TIMESTAMP DUP2 PUSH1 0x3 ADD DUP2 SWAP1 SSTORE POP PUSH32 0xC8922D91FBABBE8DF5D667708C678575856A856A2A465EBD9626A40AB6A16F5F DUP3 PUSH1 0x40 MLOAD PUSH2 0x639 SWAP2 SWAP1 PUSH2 0x1090 JUMP JUMPDEST PUSH1 0x40 MLOAD DUP1 SWAP2 SUB SWAP1 LOG1 DUP2 SWAP3 POP POP POP SWAP4 SWAP3 POP POP POP JUMP JUMPDEST PUSH1 0x0 DUP1 DUP5 PUSH1 0x40 MLOAD PUSH1 0x20 ADD PUSH2 0x661 SWAP2 SWAP1 PUSH2 0x1027 JUMP JUMPDEST PUSH1 0x40 MLOAD PUSH1 0x20 DUP2 DUP4 SUB SUB DUP2 MSTORE SWAP1 PUSH1 0x40 MSTORE DUP1 MLOAD SWAP1 PUSH1 0x20 ADD KECCAK256 SWAP1 POP PUSH1 0x0 PUSH1 0x2 PUSH1 0x0 DUP4 DUP2 MSTORE PUSH1 0x20 ADD SWAP1 DUP2 MSTORE PUSH1 0x20 ADD PUSH1 0x0 KECCAK256 PUSH1 0x40 MLOAD DUP1 PUSH1 0x80 ADD PUSH1 0x40 MSTORE SWAP1 DUP2 PUSH1 0x0 DUP3 ADD DUP1 SLOAD PUSH2 0x6A9 SWAP1 PUSH2 0x1248 JUMP JUMPDEST DUP1 PUSH1 0x1F ADD PUSH1 0x20 DUP1 SWAP2 DIV MUL PUSH1 0x20 ADD PUSH1 0x40 MLOAD SWAP1 DUP2 ADD PUSH1 0x40 MSTORE DUP1 SWAP3 SWAP2 SWAP1 DUP2 DUP2 MSTORE PUSH1 0x20 ADD DUP3 DUP1 SLOAD PUSH2 0x6D5 SWAP1 PUSH2 0x1248 JUMP JUMPDEST DUP1 ISZERO PUSH2 0x722 JUMPI DUP1 PUSH1 0x1F LT PUSH2 0x6F7 JUMPI PUSH2 0x100 DUP1 DUP4 SLOAD DIV MUL DUP4 MSTORE SWAP2 PUSH1 0x20 ADD SWAP2 PUSH2 0x722 JUMP JUMPDEST DUP3 ADD SWAP2 SWAP1 PUSH1 0x0 MSTORE PUSH1 0x20 PUSH1 0x0 KECCAK256 SWAP1 JUMPDEST DUP2 SLOAD DUP2 MSTORE SWAP1 PUSH1 0x1 ADD SWAP1 PUSH1 0x20 ADD DUP1 DUP4 GT PUSH2 0x705 JUMPI DUP3 SWAP1 SUB PUSH1 0x1F AND DUP3 ADD SWAP2 JUMPDEST POP POP POP POP POP DUP2 MSTORE PUSH1 0x20 ADD PUSH1 0x1 DUP3 ADD DUP1 SLOAD PUSH2 0x73B SWAP1 PUSH2 0x1248 JUMP JUMPDEST DUP1 PUSH1 0x1F ADD PUSH1 0x20 DUP1 SWAP2 DIV MUL PUSH1 0x20 ADD PUSH1 0x40 MLOAD SWAP1 DUP2 ADD PUSH1 0x40 MSTORE DUP1 SWAP3 SWAP2 SWAP1 DUP2 DUP2 MSTORE PUSH1 0x20 ADD DUP3 DUP1 SLOAD PUSH2 0x767 SWAP1 PUSH2 0x1248 JUMP JUMPDEST DUP1 ISZERO PUSH2 0x7B4 JUMPI DUP1 PUSH1 0x1F LT PUSH2 0x789 JUMPI PUSH2 0x100 DUP1 DUP4 SLOAD DIV MUL DUP4 MSTORE SWAP2 PUSH1 0x20 ADD SWAP2 PUSH2 0x7B4 JUMP JUMPDEST DUP3 ADD SWAP2 SWAP1 PUSH1 0x0 MSTORE PUSH1 0x20 PUSH1 0x0 KECCAK256 SWAP1 JUMPDEST DUP2 SLOAD DUP2 MSTORE SWAP1 PUSH1 0x1 ADD SWAP1 PUSH1 0x20 ADD DUP1 DUP4 GT PUSH2 0x797 JUMPI DUP3 SWAP1 SUB PUSH1 0x1F AND DUP3 ADD SWAP2 JUMPDEST POP POP POP POP POP DUP2 MSTORE PUSH1 0x20 ADD PUSH1 0x2 DUP3 ADD SLOAD DUP2 MSTORE PUSH1 0x20 ADD PUSH1 0x3 DUP3 ADD SLOAD DUP2 MSTORE POP POP SWAP1 POP DUP6 DUP2 PUSH1 0x0 ADD DUP2 SWAP1 MSTORE POP DUP5 DUP2 PUSH1 0x20 ADD DUP2 SWAP1 MSTORE POP TIMESTAMP DUP2 PUSH1 0x40 ADD DUP2 DUP2 MSTORE POP POP DUP4 DUP2 PUSH1 0x60 ADD DUP2 DUP2 MSTORE POP POP DUP2 SWAP3 POP POP POP SWAP4 SWAP3 POP POP POP JUMP JUMPDEST PUSH2 0x80D PUSH2 0xA9E JUMP JUMPDEST PUSH1 0x0 DUP3 PUSH1 0x40 MLOAD PUSH1 0x20 ADD PUSH2 0x820 SWAP2 SWAP1 PUSH2 0x1027 JUMP JUMPDEST PUSH1 0x40 MLOAD PUSH1 0x20 DUP2 DUP4 SUB SUB DUP2 MSTORE SWAP1 PUSH1 0x40 MSTORE DUP1 MLOAD SWAP1 PUSH1 0x20 ADD KECCAK256 SWAP1 POP PUSH1 0x1 PUSH1 0x0 DUP3 DUP2 MSTORE PUSH1 0x20 ADD SWAP1 DUP2 MSTORE PUSH1 0x20 ADD PUSH1 0x0 KECCAK256 PUSH1 0x40 MLOAD DUP1 PUSH1 0x40 ADD PUSH1 0x40 MSTORE SWAP1 DUP2 PUSH1 0x0 DUP3 ADD DUP1 SLOAD PUSH2 0x866 SWAP1 PUSH2 0x1248 JUMP JUMPDEST DUP1 PUSH1 0x1F ADD PUSH1 0x20 DUP1 SWAP2 DIV MUL PUSH1 0x20 ADD PUSH1 0x40 MLOAD SWAP1 DUP2 ADD PUSH1 0x40 MSTORE DUP1 SWAP3 SWAP2 SWAP1 DUP2 DUP2 MSTORE PUSH1 0x20 ADD DUP3 DUP1 SLOAD PUSH2 0x892 SWAP1 PUSH2 0x1248 JUMP JUMPDEST DUP1 ISZERO PUSH2 0x8DF JUMPI DUP1 PUSH1 0x1F LT PUSH2 0x8B4 JUMPI PUSH2 0x100 DUP1 DUP4 SLOAD DIV MUL DUP4 MSTORE SWAP2 PUSH1 0x20 ADD SWAP2 PUSH2 0x8DF JUMP JUMPDEST DUP3 ADD SWAP2 SWAP1 PUSH1 0x0 MSTORE PUSH1 0x20 PUSH1 0x0 KECCAK256 SWAP1 JUMPDEST DUP2 SLOAD DUP2 MSTORE SWAP1 PUSH1 0x1 ADD SWAP1 PUSH1 0x20 ADD DUP1 DUP4 GT PUSH2 0x8C2 JUMPI DUP3 SWAP1 SUB PUSH1 0x1F AND DUP3 ADD SWAP2 JUMPDEST POP POP POP POP POP DUP2 MSTORE PUSH1 0x20 ADD PUSH1 0x1 DUP3 ADD DUP1 SLOAD PUSH2 0x8F8 SWAP1 PUSH2 0x1248 JUMP JUMPDEST DUP1 PUSH1 0x1F ADD PUSH1 0x20 DUP1 SWAP2 DIV MUL PUSH1 0x20 ADD PUSH1 0x40 MLOAD SWAP1 DUP2 ADD PUSH1 0x40 MSTORE DUP1 SWAP3 SWAP2 SWAP1 DUP2 DUP2 MSTORE PUSH1 0x20 ADD DUP3 DUP1 SLOAD PUSH2 0x924 SWAP1 PUSH2 0x1248 JUMP JUMPDEST DUP1 ISZERO PUSH2 0x971 JUMPI DUP1 PUSH1 0x1F LT PUSH2 0x946 JUMPI PUSH2 0x100 DUP1 DUP4 SLOAD DIV MUL DUP4 MSTORE SWAP2 PUSH1 0x20 ADD SWAP2 PUSH2 0x971 JUMP JUMPDEST DUP3 ADD SWAP2 SWAP1 PUSH1 0x0 MSTORE PUSH1 0x20 PUSH1 0x0 KECCAK256 SWAP1 JUMPDEST DUP2 SLOAD DUP2 MSTORE SWAP1 PUSH1 0x1 ADD SWAP1 PUSH1 0x20 ADD DUP1 DUP4 GT PUSH2 0x954 JUMPI DUP3 SWAP1 SUB PUSH1 0x1F AND DUP3 ADD SWAP2 JUMPDEST POP POP POP POP POP DUP2 MSTORE POP POP SWAP2 POP POP SWAP2 SWAP1 POP JUMP JUMPDEST PUSH1 0x0 DUP2 PUSH1 0x40 MLOAD PUSH1 0x20 ADD PUSH2 0x995 SWAP2 SWAP1 PUSH2 0x1027 JUMP JUMPDEST PUSH1 0x40 MLOAD PUSH1 0x20 DUP2 DUP4 SUB SUB DUP2 MSTORE SWAP1 PUSH1 0x40 MSTORE DUP1 MLOAD SWAP1 PUSH1 0x20 ADD KECCAK256 PUSH1 0x0 DUP1 DUP6 DUP2 MSTORE PUSH1 0x20 ADD SWAP1 DUP2 MSTORE PUSH1 0x20 ADD PUSH1 0x0 KECCAK256 PUSH1 0x0 ADD PUSH1 0x40 MLOAD PUSH1 0x20 ADD PUSH2 0x9D0 SWAP2 SWAP1 PUSH2 0x103E JUMP JUMPDEST PUSH1 0x40 MLOAD PUSH1 0x20 DUP2 DUP4 SUB SUB DUP2 MSTORE SWAP1 PUSH1 0x40 MSTORE DUP1 MLOAD SWAP1 PUSH1 0x20 ADD KECCAK256 EQ ISZERO SWAP1 POP SWAP3 SWAP2 POP POP JUMP JUMPDEST PUSH1 0x40 MLOAD DUP1 PUSH1 0x80 ADD PUSH1 0x40 MSTORE DUP1 PUSH1 0x60 DUP2 MSTORE PUSH1 0x20 ADD PUSH1 0x60 DUP2 MSTORE PUSH1 0x20 ADD PUSH1 0x60 DUP2 MSTORE PUSH1 0x20 ADD PUSH1 0x0 DUP2 MSTORE POP SWAP1 JUMP JUMPDEST DUP3 DUP1 SLOAD PUSH2 0xA24 SWAP1 PUSH2 0x1248 JUMP JUMPDEST SWAP1 PUSH1 0x0 MSTORE PUSH1 0x20 PUSH1 0x0 KECCAK256 SWAP1 PUSH1 0x1F ADD PUSH1 0x20 SWAP1 DIV DUP2 ADD SWAP3 DUP3 PUSH2 0xA46 JUMPI PUSH1 0x0 DUP6 SSTORE PUSH2 0xA8D JUMP JUMPDEST DUP3 PUSH1 0x1F LT PUSH2 0xA5F JUMPI DUP1 MLOAD PUSH1 0xFF NOT AND DUP4 DUP1 ADD OR DUP6 SSTORE PUSH2 0xA8D JUMP JUMPDEST DUP3 DUP1 ADD PUSH1 0x1 ADD DUP6 SSTORE DUP3 ISZERO PUSH2 0xA8D JUMPI SWAP2 DUP3 ADD JUMPDEST DUP3 DUP2 GT ISZERO PUSH2 0xA8C JUMPI DUP3 MLOAD DUP3 SSTORE SWAP2 PUSH1 0x20 ADD SWAP2 SWAP1 PUSH1 0x1 ADD SWAP1 PUSH2 0xA71 JUMP JUMPDEST JUMPDEST POP SWAP1 POP PUSH2 0xA9A SWAP2 SWAP1 PUSH2 0xAB8 JUMP JUMPDEST POP SWAP1 JUMP JUMPDEST PUSH1 0x40 MLOAD DUP1 PUSH1 0x40 ADD PUSH1 0x40 MSTORE DUP1 PUSH1 0x60 DUP2 MSTORE PUSH1 0x20 ADD PUSH1 0x60 DUP2 MSTORE POP SWAP1 JUMP JUMPDEST JUMPDEST DUP1 DUP3 GT ISZERO PUSH2 0xAD1 JUMPI PUSH1 0x0 DUP2 PUSH1 0x0 SWAP1 SSTORE POP PUSH1 0x1 ADD PUSH2 0xAB9 JUMP JUMPDEST POP SWAP1 JUMP JUMPDEST PUSH1 0x0 PUSH2 0xAE8 PUSH2 0xAE3 DUP5 PUSH2 0x1127 JUMP JUMPDEST PUSH2 0x1102 JUMP JUMPDEST SWAP1 POP DUP3 DUP2 MSTORE PUSH1 0x20 DUP2 ADD DUP5 DUP5 DUP5 ADD GT ISZERO PUSH2 0xB04 JUMPI PUSH2 0xB03 PUSH2 0x130E JUMP JUMPDEST JUMPDEST PUSH2 0xB0F DUP5 DUP3 DUP6 PUSH2 0x1206 JUMP JUMPDEST POP SWAP4 SWAP3 POP POP POP JUMP JUMPDEST PUSH1 0x0 PUSH2 0xB2A PUSH2 0xB25 DUP5 PUSH2 0x1158 JUMP JUMPDEST PUSH2 0x1102 JUMP JUMPDEST SWAP1 POP DUP3 DUP2 MSTORE PUSH1 0x20 DUP2 ADD DUP5 DUP5 DUP5 ADD GT ISZERO PUSH2 0xB46 JUMPI PUSH2 0xB45 PUSH2 0x130E JUMP JUMPDEST JUMPDEST PUSH2 0xB51 DUP5 DUP3 DUP6 PUSH2 0x1206 JUMP JUMPDEST POP SWAP4 SWAP3 POP POP POP JUMP JUMPDEST PUSH1 0x0 DUP3 PUSH1 0x1F DUP4 ADD SLT PUSH2 0xB6E JUMPI PUSH2 0xB6D PUSH2 0x1309 JUMP JUMPDEST JUMPDEST DUP2 CALLDATALOAD PUSH2 0xB7E DUP5 DUP3 PUSH1 0x20 DUP7 ADD PUSH2 0xAD5 JUMP JUMPDEST SWAP2 POP POP SWAP3 SWAP2 POP POP JUMP JUMPDEST PUSH1 0x0 DUP3 PUSH1 0x1F DUP4 ADD SLT PUSH2 0xB9C JUMPI PUSH2 0xB9B PUSH2 0x1309 JUMP JUMPDEST JUMPDEST DUP2 CALLDATALOAD PUSH2 0xBAC DUP5 DUP3 PUSH1 0x20 DUP7 ADD PUSH2 0xB17 JUMP JUMPDEST SWAP2 POP POP SWAP3 SWAP2 POP POP JUMP JUMPDEST PUSH1 0x0 DUP2 CALLDATALOAD SWAP1 POP PUSH2 0xBC4 DUP2 PUSH2 0x1380 JUMP JUMPDEST SWAP3 SWAP2 POP POP JUMP JUMPDEST PUSH1 0x0 PUSH1 0x20 DUP3 DUP5 SUB SLT ISZERO PUSH2 0xBE0 JUMPI PUSH2 0xBDF PUSH2 0x1318 JUMP JUMPDEST JUMPDEST PUSH1 0x0 DUP3 ADD CALLDATALOAD PUSH8 0xFFFFFFFFFFFFFFFF DUP2 GT ISZERO PUSH2 0xBFE JUMPI PUSH2 0xBFD PUSH2 0x1313 JUMP JUMPDEST JUMPDEST PUSH2 0xC0A DUP5 DUP3 DUP6 ADD PUSH2 0xB87 JUMP JUMPDEST SWAP2 POP POP SWAP3 SWAP2 POP POP JUMP JUMPDEST PUSH1 0x0 DUP1 PUSH1 0x0 PUSH1 0x60 DUP5 DUP7 SUB SLT ISZERO PUSH2 0xC2C JUMPI PUSH2 0xC2B PUSH2 0x1318 JUMP JUMPDEST JUMPDEST PUSH1 0x0 DUP5 ADD CALLDATALOAD PUSH8 0xFFFFFFFFFFFFFFFF DUP2 GT ISZERO PUSH2 0xC4A JUMPI PUSH2 0xC49 PUSH2 0x1313 JUMP JUMPDEST JUMPDEST PUSH2 0xC56 DUP7 DUP3 DUP8 ADD PUSH2 0xB87 JUMP JUMPDEST SWAP4 POP POP PUSH1 0x20 DUP5 ADD CALLDATALOAD PUSH8 0xFFFFFFFFFFFFFFFF DUP2 GT ISZERO PUSH2 0xC77 JUMPI PUSH2 0xC76 PUSH2 0x1313 JUMP JUMPDEST JUMPDEST PUSH2 0xC83 DUP7 DUP3 DUP8 ADD PUSH2 0xB87 JUMP JUMPDEST SWAP3 POP POP PUSH1 0x40 DUP5 ADD CALLDATALOAD PUSH8 0xFFFFFFFFFFFFFFFF DUP2 GT ISZERO PUSH2 0xCA4 JUMPI PUSH2 0xCA3 PUSH2 0x1313 JUMP JUMPDEST JUMPDEST PUSH2 0xCB0 DUP7 DUP3 DUP8 ADD PUSH2 0xB59 JUMP JUMPDEST SWAP2 POP POP SWAP3 POP SWAP3 POP SWAP3 JUMP JUMPDEST PUSH1 0x0 DUP1 PUSH1 0x0 PUSH1 0x60 DUP5 DUP7 SUB SLT ISZERO PUSH2 0xCD3 JUMPI PUSH2 0xCD2 PUSH2 0x1318 JUMP JUMPDEST JUMPDEST PUSH1 0x0 DUP5 ADD CALLDATALOAD PUSH8 0xFFFFFFFFFFFFFFFF DUP2 GT ISZERO PUSH2 0xCF1 JUMPI PUSH2 0xCF0 PUSH2 0x1313 JUMP JUMPDEST JUMPDEST PUSH2 0xCFD DUP7 DUP3 DUP8 ADD PUSH2 0xB87 JUMP JUMPDEST SWAP4 POP POP PUSH1 0x20 DUP5 ADD CALLDATALOAD PUSH8 0xFFFFFFFFFFFFFFFF DUP2 GT ISZERO PUSH2 0xD1E JUMPI PUSH2 0xD1D PUSH2 0x1313 JUMP JUMPDEST JUMPDEST PUSH2 0xD2A DUP7 DUP3 DUP8 ADD PUSH2 0xB87 JUMP JUMPDEST SWAP3 POP POP PUSH1 0x40 DUP5 ADD CALLDATALOAD PUSH8 0xFFFFFFFFFFFFFFFF DUP2 GT ISZERO PUSH2 0xD4B JUMPI PUSH2 0xD4A PUSH2 0x1313 JUMP JUMPDEST JUMPDEST PUSH2 0xD57 DUP7 DUP3 DUP8 ADD PUSH2 0xB87 JUMP JUMPDEST SWAP2 POP POP SWAP3 POP SWAP3 POP SWAP3 JUMP JUMPDEST PUSH1 0x0 DUP1 PUSH1 0x0 PUSH1 0x60 DUP5 DUP7 SUB SLT ISZERO PUSH2 0xD7A JUMPI PUSH2 0xD79 PUSH2 0x1318 JUMP JUMPDEST JUMPDEST PUSH1 0x0 DUP5 ADD CALLDATALOAD PUSH8 0xFFFFFFFFFFFFFFFF DUP2 GT ISZERO PUSH2 0xD98 JUMPI PUSH2 0xD97 PUSH2 0x1313 JUMP JUMPDEST JUMPDEST PUSH2 0xDA4 DUP7 DUP3 DUP8 ADD PUSH2 0xB87 JUMP JUMPDEST SWAP4 POP POP PUSH1 0x20 DUP5 ADD CALLDATALOAD PUSH8 0xFFFFFFFFFFFFFFFF DUP2 GT ISZERO PUSH2 0xDC5 JUMPI PUSH2 0xDC4 PUSH2 0x1313 JUMP JUMPDEST JUMPDEST PUSH2 0xDD1 DUP7 DUP3 DUP8 ADD PUSH2 0xB87 JUMP JUMPDEST SWAP3 POP POP PUSH1 0x40 PUSH2 0xDE2 DUP7 DUP3 DUP8 ADD PUSH2 0xBB5 JUMP JUMPDEST SWAP2 POP POP SWAP3 POP SWAP3 POP SWAP3 JUMP JUMPDEST PUSH2 0xDF5 DUP2 PUSH2 0x11F2 JUMP JUMPDEST DUP3 MSTORE POP POP JUMP JUMPDEST PUSH1 0x0 PUSH2 0xE06 DUP3 PUSH2 0x119E JUMP JUMPDEST PUSH2 0xE10 DUP2 DUP6 PUSH2 0x11B4 JUMP JUMPDEST SWAP4 POP PUSH2 0xE20 DUP2 DUP6 PUSH1 0x20 DUP7 ADD PUSH2 0x1215 JUMP JUMPDEST PUSH2 0xE29 DUP2 PUSH2 0x131D JUMP JUMPDEST DUP5 ADD SWAP2 POP POP SWAP3 SWAP2 POP POP JUMP JUMPDEST PUSH1 0x0 PUSH2 0xE3F DUP3 PUSH2 0x11A9 JUMP JUMPDEST PUSH2 0xE49 DUP2 DUP6 PUSH2 0x11C5 JUMP JUMPDEST SWAP4 POP PUSH2 0xE59 DUP2 DUP6 PUSH1 0x20 DUP7 ADD PUSH2 0x1215 JUMP JUMPDEST PUSH2 0xE62 DUP2 PUSH2 0x131D JUMP JUMPDEST DUP5 ADD SWAP2 POP POP SWAP3 SWAP2 POP POP JUMP JUMPDEST PUSH1 0x0 PUSH2 0xE78 DUP3 PUSH2 0x11A9 JUMP JUMPDEST PUSH2 0xE82 DUP2 DUP6 PUSH2 0x11E7 JUMP JUMPDEST SWAP4 POP PUSH2 0xE92 DUP2 DUP6 PUSH1 0x20 DUP7 ADD PUSH2 0x1215 JUMP JUMPDEST DUP1 DUP5 ADD SWAP2 POP POP SWAP3 SWAP2 POP POP JUMP JUMPDEST PUSH1 0x0 DUP2 SLOAD PUSH2 0xEAB DUP2 PUSH2 0x1248 JUMP JUMPDEST PUSH2 0xEB5 DUP2 DUP7 PUSH2 0x11E7 JUMP JUMPDEST SWAP5 POP PUSH1 0x1 DUP3 AND PUSH1 0x0 DUP2 EQ PUSH2 0xED0 JUMPI PUSH1 0x1 DUP2 EQ PUSH2 0xEE1 JUMPI PUSH2 0xF14 JUMP JUMPDEST PUSH1 0xFF NOT DUP4 AND DUP7 MSTORE DUP2 DUP7 ADD SWAP4 POP PUSH2 0xF14 JUMP JUMPDEST PUSH2 0xEEA DUP6 PUSH2 0x1189 JUMP JUMPDEST PUSH1 0x0 JUMPDEST DUP4 DUP2 LT ISZERO PUSH2 0xF0C JUMPI DUP2 SLOAD DUP2 DUP10 ADD MSTORE PUSH1 0x1 DUP3 ADD SWAP2 POP PUSH1 0x20 DUP2 ADD SWAP1 POP PUSH2 0xEED JUMP JUMPDEST DUP4 DUP9 ADD SWAP6 POP POP POP JUMPDEST POP POP POP SWAP3 SWAP2 POP POP JUMP JUMPDEST PUSH1 0x0 PUSH2 0xF2A PUSH1 0x18 DUP4 PUSH2 0x11D6 JUMP JUMPDEST SWAP2 POP PUSH2 0xF35 DUP3 PUSH2 0x132E JUMP JUMPDEST PUSH1 0x20 DUP3 ADD SWAP1 POP SWAP2 SWAP1 POP JUMP JUMPDEST PUSH1 0x0 PUSH2 0xF4D PUSH1 0x7 DUP4 PUSH2 0x11D6 JUMP JUMPDEST SWAP2 POP PUSH2 0xF58 DUP3 PUSH2 0x1357 JUMP JUMPDEST PUSH1 0x20 DUP3 ADD SWAP1 POP SWAP2 SWAP1 POP JUMP JUMPDEST PUSH1 0x0 PUSH1 0x80 DUP4 ADD PUSH1 0x0 DUP4 ADD MLOAD DUP5 DUP3 SUB PUSH1 0x0 DUP7 ADD MSTORE PUSH2 0xF80 DUP3 DUP3 PUSH2 0xE34 JUMP JUMPDEST SWAP2 POP POP PUSH1 0x20 DUP4 ADD MLOAD DUP5 DUP3 SUB PUSH1 0x20 DUP7 ADD MSTORE PUSH2 0xF9A DUP3 DUP3 PUSH2 0xE34 JUMP JUMPDEST SWAP2 POP POP PUSH1 0x40 DUP4 ADD MLOAD DUP5 DUP3 SUB PUSH1 0x40 DUP7 ADD MSTORE PUSH2 0xFB4 DUP3 DUP3 PUSH2 0xE34 JUMP JUMPDEST SWAP2 POP POP PUSH1 0x60 DUP4 ADD MLOAD PUSH2 0xFC9 PUSH1 0x60 DUP7 ADD DUP3 PUSH2 0x1018 JUMP JUMPDEST POP DUP1 SWAP2 POP POP SWAP3 SWAP2 POP POP JUMP JUMPDEST PUSH1 0x0 PUSH1 0x40 DUP4 ADD PUSH1 0x0 DUP4 ADD MLOAD DUP5 DUP3 SUB PUSH1 0x0 DUP7 ADD MSTORE PUSH2 0xFF1 DUP3 DUP3 PUSH2 0xE34 JUMP JUMPDEST SWAP2 POP POP PUSH1 0x20 DUP4 ADD MLOAD DUP5 DUP3 SUB PUSH1 0x20 DUP7 ADD MSTORE PUSH2 0x100B DUP3 DUP3 PUSH2 0xDFB JUMP JUMPDEST SWAP2 POP POP DUP1 SWAP2 POP POP SWAP3 SWAP2 POP POP JUMP JUMPDEST PUSH2 0x1021 DUP2 PUSH2 0x11FC JUMP JUMPDEST DUP3 MSTORE POP POP JUMP JUMPDEST PUSH1 0x0 PUSH2 0x1033 DUP3 DUP5 PUSH2 0xE6D JUMP JUMPDEST SWAP2 POP DUP2 SWAP1 POP SWAP3 SWAP2 POP POP JUMP JUMPDEST PUSH1 0x0 PUSH2 0x104A DUP3 DUP5 PUSH2 0xE9E JUMP JUMPDEST SWAP2 POP DUP2 SWAP1 POP SWAP3 SWAP2 POP POP JUMP JUMPDEST PUSH1 0x0 PUSH1 0x20 DUP3 ADD SWAP1 POP PUSH2 0x106A PUSH1 0x0 DUP4 ADD DUP5 PUSH2 0xDEC JUMP JUMPDEST SWAP3 SWAP2 POP POP JUMP JUMPDEST PUSH1 0x0 PUSH1 0x20 DUP3 ADD SWAP1 POP DUP2 DUP2 SUB PUSH1 0x0 DUP4 ADD MSTORE PUSH2 0x1089 DUP2 PUSH2 0xF1D JUMP JUMPDEST SWAP1 POP SWAP2 SWAP1 POP JUMP JUMPDEST PUSH1 0x0 PUSH1 0x40 DUP3 ADD SWAP1 POP DUP2 DUP2 SUB PUSH1 0x0 DUP4 ADD MSTORE PUSH2 0x10A9 DUP2 PUSH2 0xF40 JUMP JUMPDEST SWAP1 POP PUSH2 0x10B8 PUSH1 0x20 DUP4 ADD DUP5 PUSH2 0xDEC JUMP JUMPDEST SWAP3 SWAP2 POP POP JUMP JUMPDEST PUSH1 0x0 PUSH1 0x20 DUP3 ADD SWAP1 POP DUP2 DUP2 SUB PUSH1 0x0 DUP4 ADD MSTORE PUSH2 0x10D8 DUP2 DUP5 PUSH2 0xF63 JUMP JUMPDEST SWAP1 POP SWAP3 SWAP2 POP POP JUMP JUMPDEST PUSH1 0x0 PUSH1 0x20 DUP3 ADD SWAP1 POP DUP2 DUP2 SUB PUSH1 0x0 DUP4 ADD MSTORE PUSH2 0x10FA DUP2 DUP5 PUSH2 0xFD4 JUMP JUMPDEST SWAP1 POP SWAP3 SWAP2 POP POP JUMP JUMPDEST PUSH1 0x0 PUSH2 0x110C PUSH2 0x111D JUMP JUMPDEST SWAP1 POP PUSH2 0x1118 DUP3 DUP3 PUSH2 0x127A JUMP JUMPDEST SWAP2 SWAP1 POP JUMP JUMPDEST PUSH1 0x0 PUSH1 0x40 MLOAD SWAP1 POP SWAP1 JUMP JUMPDEST PUSH1 0x0 PUSH8 0xFFFFFFFFFFFFFFFF DUP3 GT ISZERO PUSH2 0x1142 JUMPI PUSH2 0x1141 PUSH2 0x12DA JUMP JUMPDEST JUMPDEST PUSH2 0x114B DUP3 PUSH2 0x131D JUMP JUMPDEST SWAP1 POP PUSH1 0x20 DUP2 ADD SWAP1 POP SWAP2 SWAP1 POP JUMP JUMPDEST PUSH1 0x0 PUSH8 0xFFFFFFFFFFFFFFFF DUP3 GT ISZERO PUSH2 0x1173 JUMPI PUSH2 0x1172 PUSH2 0x12DA JUMP JUMPDEST JUMPDEST PUSH2 0x117C DUP3 PUSH2 0x131D JUMP JUMPDEST SWAP1 POP PUSH1 0x20 DUP2 ADD SWAP1 POP SWAP2 SWAP1 POP JUMP JUMPDEST PUSH1 0x0 DUP2 SWAP1 POP DUP2 PUSH1 0x0 MSTORE PUSH1 0x20 PUSH1 0x0 KECCAK256 SWAP1 POP SWAP2 SWAP1 POP JUMP JUMPDEST PUSH1 0x0 DUP2 MLOAD SWAP1 POP SWAP2 SWAP1 POP JUMP JUMPDEST PUSH1 0x0 DUP2 MLOAD SWAP1 POP SWAP2 SWAP1 POP JUMP JUMPDEST PUSH1 0x0 DUP3 DUP3 MSTORE PUSH1 0x20 DUP3 ADD SWAP1 POP SWAP3 SWAP2 POP POP JUMP JUMPDEST PUSH1 0x0 DUP3 DUP3 MSTORE PUSH1 0x20 DUP3 ADD SWAP1 POP SWAP3 SWAP2 POP POP JUMP JUMPDEST PUSH1 0x0 DUP3 DUP3 MSTORE PUSH1 0x20 DUP3 ADD SWAP1 POP SWAP3 SWAP2 POP POP JUMP JUMPDEST PUSH1 0x0 DUP2 SWAP1 POP SWAP3 SWAP2 POP POP JUMP JUMPDEST PUSH1 0x0 DUP2 SWAP1 POP SWAP2 SWAP1 POP JUMP JUMPDEST PUSH1 0x0 DUP2 SWAP1 POP SWAP2 SWAP1 POP JUMP JUMPDEST DUP3 DUP2 DUP4 CALLDATACOPY PUSH1 0x0 DUP4 DUP4 ADD MSTORE POP POP POP JUMP JUMPDEST PUSH1 0x0 JUMPDEST DUP4 DUP2 LT ISZERO PUSH2 0x1233 JUMPI DUP1 DUP3 ADD MLOAD DUP2 DUP5 ADD MSTORE PUSH1 0x20 DUP2 ADD SWAP1 POP PUSH2 0x1218 JUMP JUMPDEST DUP4 DUP2 GT ISZERO PUSH2 0x1242 JUMPI PUSH1 0x0 DUP5 DUP5 ADD MSTORE JUMPDEST POP POP POP POP JUMP JUMPDEST PUSH1 0x0 PUSH1 0x2 DUP3 DIV SWAP1 POP PUSH1 0x1 DUP3 AND DUP1 PUSH2 0x1260 JUMPI PUSH1 0x7F DUP3 AND SWAP2 POP JUMPDEST PUSH1 0x20 DUP3 LT DUP2 EQ ISZERO PUSH2 0x1274 JUMPI PUSH2 0x1273 PUSH2 0x12AB JUMP JUMPDEST JUMPDEST POP SWAP2 SWAP1 POP JUMP JUMPDEST PUSH2 0x1283 DUP3 PUSH2 0x131D JUMP JUMPDEST DUP2 ADD DUP2 DUP2 LT PUSH8 0xFFFFFFFFFFFFFFFF DUP3 GT OR ISZERO PUSH2 0x12A2 JUMPI PUSH2 0x12A1 PUSH2 0x12DA JUMP JUMPDEST JUMPDEST DUP1 PUSH1 0x40 MSTORE POP POP POP JUMP JUMPDEST PUSH32 0x4E487B7100000000000000000000000000000000000000000000000000000000 PUSH1 0x0 MSTORE PUSH1 0x22 PUSH1 0x4 MSTORE PUSH1 0x24 PUSH1 0x0 REVERT JUMPDEST PUSH32 0x4E487B7100000000000000000000000000000000000000000000000000000000 PUSH1 0x0 MSTORE PUSH1 0x41 PUSH1 0x4 MSTORE PUSH1 0x24 PUSH1 0x0 REVERT JUMPDEST PUSH1 0x0 DUP1 REVERT JUMPDEST PUSH1 0x0 DUP1 REVERT JUMPDEST PUSH1 0x0 DUP1 REVERT JUMPDEST PUSH1 0x0 DUP1 REVERT JUMPDEST PUSH1 0x0 PUSH1 0x1F NOT PUSH1 0x1F DUP4 ADD AND SWAP1 POP SWAP2 SWAP1 POP JUMP JUMPDEST PUSH32 0x4163636F756E7420616C7265616479206578697374696E670000000000000000 PUSH1 0x0 DUP3 ADD MSTORE POP JUMP JUMPDEST PUSH32 0x7375636365737300000000000000000000000000000000000000000000000000 PUSH1 0x0 DUP3 ADD MSTORE POP JUMP JUMPDEST PUSH2 0x1389 DUP2 PUSH2 0x11FC JUMP JUMPDEST DUP2 EQ PUSH2 0x1394 JUMPI PUSH1 0x0 DUP1 REVERT JUMPDEST POP JUMP INVALID LOG2 PUSH5 0x6970667358 0x22 SLT KECCAK256 0xCD 0xF9 PUSH14 0x7131C952763FABDA7856923A1A56 PUSH27 0x925D06843D519864F7DDBDEB85CD64736F6C634300080700330000 "
				},
				"gasEstimates": {
					"creation": {
						"codeDepositCost": "1013800",
						"executionCost": "1054",
						"totalCost": "1014854"
					},
					"external": {
						"add_account(string,string,string)": "infinite",
						"add_certificate(string,string,uint256)": "infinite",
						"add_transaction(string,string,bytes)": "infinite",
						"get_account(string)": "infinite",
						"get_transaction(string)": "infinite"
					},
					"internal": {
						"account_checker(bytes32,string memory)": "infinite"
					}
				},
				"methodIdentifiers": {
					"add_account(string,string,string)": "b24c908a",
					"add_certificate(string,string,uint256)": "c3efbe38",
					"add_transaction(string,string,bytes)": "5b62132d",
					"get_account(string)": "174ba7ff",
					"get_transaction(string)": "ca5e208f"
				}
			},
			"storageLayout": {
				"storage": [
					{
						"astId": 21,
						"contract": "contracts/Halal.sol:Halal",
						"label": "mappingAccount",
						"offset": 0,
						"slot": "0",
						"type": "t_mapping(t_bytes32,t_struct(accountData)16_storage)"
					},
					{
						"astId": 31,
						"contract": "contracts/Halal.sol:Halal",
						"label": "mappingTransaction",
						"offset": 0,
						"slot": "1",
						"type": "t_mapping(t_bytes32,t_struct(transaction)26_storage)"
					},
					{
						"astId": 45,
						"contract": "contracts/Halal.sol:Halal",
						"label": "mappingCertificate",
						"offset": 0,
						"slot": "2",
						"type": "t_mapping(t_bytes32,t_struct(certificate)40_storage)"
					}
				],
				"types": {
					"t_bytes32": {
						"encoding": "inplace",
						"label": "bytes32",
						"numberOfBytes": "32"
					},
					"t_bytes_storage": {
						"encoding": "bytes",
						"label": "bytes",
						"numberOfBytes": "32"
					},
					"t_mapping(t_bytes32,t_struct(accountData)16_storage)": {
						"encoding": "mapping",
						"key": "t_bytes32",
						"label": "mapping(bytes32 => struct Halal.accountData)",
						"numberOfBytes": "32",
						"value": "t_struct(accountData)16_storage"
					},
					"t_mapping(t_bytes32,t_struct(certificate)40_storage)": {
						"encoding": "mapping",
						"key": "t_bytes32",
						"label": "mapping(bytes32 => struct Halal.certificate)",
						"numberOfBytes": "32",
						"value": "t_struct(certificate)40_storage"
					},
					"t_mapping(t_bytes32,t_struct(transaction)26_storage)": {
						"encoding": "mapping",
						"key": "t_bytes32",
						"label": "mapping(bytes32 => struct Halal.transaction)",
						"numberOfBytes": "32",
						"value": "t_struct(transaction)26_storage"
					},
					"t_string_storage": {
						"encoding": "bytes",
						"label": "string",
						"numberOfBytes": "32"
					},
					"t_struct(accountData)16_storage": {
						"encoding": "inplace",
						"label": "struct Halal.accountData",
						"members": [
							{
								"astId": 9,
								"contract": "contracts/Halal.sol:Halal",
								"label": "account_id",
								"offset": 0,
								"slot": "0",
								"type": "t_string_storage"
							},
							{
								"astId": 11,
								"contract": "contracts/Halal.sol:Halal",
								"label": "name",
								"offset": 0,
								"slot": "1",
								"type": "t_string_storage"
							},
							{
								"astId": 13,
								"contract": "contracts/Halal.sol:Halal",
								"label": "role",
								"offset": 0,
								"slot": "2",
								"type": "t_string_storage"
							},
							{
								"astId": 15,
								"contract": "contracts/Halal.sol:Halal",
								"label": "created_at",
								"offset": 0,
								"slot": "3",
								"type": "t_uint256"
							}
						],
						"numberOfBytes": "128"
					},
					"t_struct(certificate)40_storage": {
						"encoding": "inplace",
						"label": "struct Halal.certificate",
						"members": [
							{
								"astId": 33,
								"contract": "contracts/Halal.sol:Halal",
								"label": "umkm_id",
								"offset": 0,
								"slot": "0",
								"type": "t_string_storage"
							},
							{
								"astId": 35,
								"contract": "contracts/Halal.sol:Halal",
								"label": "certificate_id",
								"offset": 0,
								"slot": "1",
								"type": "t_string_storage"
							},
							{
								"astId": 37,
								"contract": "contracts/Halal.sol:Halal",
								"label": "created_at",
								"offset": 0,
								"slot": "2",
								"type": "t_uint256"
							},
							{
								"astId": 39,
								"contract": "contracts/Halal.sol:Halal",
								"label": "expired_at",
								"offset": 0,
								"slot": "3",
								"type": "t_uint256"
							}
						],
						"numberOfBytes": "128"
					},
					"t_struct(transaction)26_storage": {
						"encoding": "inplace",
						"label": "struct Halal.transaction",
						"members": [
							{
								"astId": 23,
								"contract": "contracts/Halal.sol:Halal",
								"label": "user_id",
								"offset": 0,
								"slot": "0",
								"type": "t_string_storage"
							},
							{
								"astId": 25,
								"contract": "contracts/Halal.sol:Halal",
								"label": "data",
								"offset": 0,
								"slot": "1",
								"type": "t_bytes_storage"
							}
						],
						"numberOfBytes": "64"
					},
					"t_uint256": {
						"encoding": "inplace",
						"label": "uint256",
						"numberOfBytes": "32"
					}
				}
			},
			"userdoc": {
				"kind": "user",
				"methods": {},
				"version": 1
			}
		}
	}
}