{
	"contracts/Halal.sol": {
		"Halal": {
			"abi": [
				{
					"anonymous": false,
					"inputs": [
						{
							"indexed": false,
							"internalType": "string",
							"name": "status",
							"type": "string"
						},
						{
							"indexed": false,
							"internalType": "bytes32",
							"name": "message",
							"type": "bytes32"
						}
					],
					"name": "success",
					"type": "event"
				},
				{
					"inputs": [
						{
							"internalType": "string",
							"name": "account_id",
							"type": "string"
						},
						{
							"internalType": "string",
							"name": "name",
							"type": "string"
						},
						{
							"internalType": "string",
							"name": "role",
							"type": "string"
						}
					],
					"name": "add_account",
					"outputs": [
						{
							"internalType": "bytes32",
							"name": "",
							"type": "bytes32"
						}
					],
					"stateMutability": "nonpayable",
					"type": "function"
				},
				{
					"inputs": [
						{
							"internalType": "string",
							"name": "account_id",
							"type": "string"
						}
					],
					"name": "get_account",
					"outputs": [
						{
							"components": [
								{
									"internalType": "string",
									"name": "account_id",
									"type": "string"
								},
								{
									"internalType": "string",
									"name": "name",
									"type": "string"
								},
								{
									"internalType": "string",
									"name": "role",
									"type": "string"
								},
								{
									"internalType": "uint256",
									"name": "created_at",
									"type": "uint256"
								}
							],
							"internalType": "struct Halal.accountData",
							"name": "",
							"type": "tuple"
						}
					],
					"stateMutability": "view",
					"type": "function"
				}
			],
			"devdoc": {
				"kind": "dev",
				"methods": {},
				"version": 1
			},
			"evm": {
				"assembly": "    /* \"contracts/Halal.sol\":62:1683  contract Halal{... */\n  mstore(0x40, 0x80)\n  callvalue\n  dup1\n  iszero\n  tag_1\n  jumpi\n  0x00\n  dup1\n  revert\ntag_1:\n  pop\n  dataSize(sub_0)\n  dup1\n  dataOffset(sub_0)\n  0x00\n  codecopy\n  0x00\n  return\nstop\n\nsub_0: assembly {\n        /* \"contracts/Halal.sol\":62:1683  contract Halal{... */\n      mstore(0x40, 0x80)\n      callvalue\n      dup1\n      iszero\n      tag_1\n      jumpi\n      0x00\n      dup1\n      revert\n    tag_1:\n      pop\n      jumpi(tag_2, lt(calldatasize, 0x04))\n      shr(0xe0, calldataload(0x00))\n      dup1\n      0x174ba7ff\n      eq\n      tag_3\n      jumpi\n      dup1\n      0xb24c908a\n      eq\n      tag_4\n      jumpi\n    tag_2:\n      0x00\n      dup1\n      revert\n        /* \"contracts/Halal.sol\":1490:1680  function get_account(string memory account_id) public view returns(accountData memory){... */\n    tag_3:\n      tag_5\n      0x04\n      dup1\n      calldatasize\n      sub\n      dup2\n      add\n      swap1\n      tag_6\n      swap2\n      swap1\n      tag_7\n      jump\t// in\n    tag_6:\n      tag_8\n      jump\t// in\n    tag_5:\n      mload(0x40)\n      tag_9\n      swap2\n      swap1\n      tag_10\n      jump\t// in\n    tag_9:\n      mload(0x40)\n      dup1\n      swap2\n      sub\n      swap1\n      return\n        /* \"contracts/Halal.sol\":956:1484  function add_account(... */\n    tag_4:\n      tag_11\n      0x04\n      dup1\n      calldatasize\n      sub\n      dup2\n      add\n      swap1\n      tag_12\n      swap2\n      swap1\n      tag_13\n      jump\t// in\n    tag_12:\n      tag_14\n      jump\t// in\n    tag_11:\n      mload(0x40)\n      tag_15\n      swap2\n      swap1\n      tag_16\n      jump\t// in\n    tag_15:\n      mload(0x40)\n      dup1\n      swap2\n      sub\n      swap1\n      return\n        /* \"contracts/Halal.sol\":1490:1680  function get_account(string memory account_id) public view returns(accountData memory){... */\n    tag_8:\n        /* \"contracts/Halal.sol\":1557:1575  accountData memory */\n      tag_17\n      tag_18\n      jump\t// in\n    tag_17:\n        /* \"contracts/Halal.sol\":1586:1596  bytes32 id */\n      0x00\n        /* \"contracts/Halal.sol\":1626:1636  account_id */\n      dup3\n        /* \"contracts/Halal.sol\":1609:1637  abi.encodePacked(account_id) */\n      add(0x20, mload(0x40))\n      tag_20\n      swap2\n      swap1\n      tag_21\n      jump\t// in\n    tag_20:\n      mload(0x40)\n      0x20\n      dup2\n      dup4\n      sub\n      sub\n      dup2\n      mstore\n      swap1\n      0x40\n      mstore\n        /* \"contracts/Halal.sol\":1599:1638  keccak256(abi.encodePacked(account_id)) */\n      dup1\n      mload\n      swap1\n      0x20\n      add\n      keccak256\n        /* \"contracts/Halal.sol\":1586:1638  bytes32 id = keccak256(abi.encodePacked(account_id)) */\n      swap1\n      pop\n        /* \"contracts/Halal.sol\":1655:1669  mappingAccount */\n      0x00\n        /* \"contracts/Halal.sol\":1655:1673  mappingAccount[id] */\n      dup1\n        /* \"contracts/Halal.sol\":1670:1672  id */\n      dup3\n        /* \"contracts/Halal.sol\":1655:1673  mappingAccount[id] */\n      dup2\n      mstore\n      0x20\n      add\n      swap1\n      dup2\n      mstore\n      0x20\n      add\n      0x00\n      keccak256\n        /* \"contracts/Halal.sol\":1648:1673  return mappingAccount[id] */\n      mload(0x40)\n      dup1\n      0x80\n      add\n      0x40\n      mstore\n      swap1\n      dup2\n      0x00\n      dup3\n      add\n      dup1\n      sload\n      tag_22\n      swap1\n      tag_23\n      jump\t// in\n    tag_22:\n      dup1\n      0x1f\n      add\n      0x20\n      dup1\n      swap2\n      div\n      mul\n      0x20\n      add\n      mload(0x40)\n      swap1\n      dup2\n      add\n      0x40\n      mstore\n      dup1\n      swap3\n      swap2\n      swap1\n      dup2\n      dup2\n      mstore\n      0x20\n      add\n      dup3\n      dup1\n      sload\n      tag_24\n      swap1\n      tag_23\n      jump\t// in\n    tag_24:\n      dup1\n      iszero\n      tag_25\n      jumpi\n      dup1\n      0x1f\n      lt\n      tag_26\n      jumpi\n      0x0100\n      dup1\n      dup4\n      sload\n      div\n      mul\n      dup4\n      mstore\n      swap2\n      0x20\n      add\n      swap2\n      jump(tag_25)\n    tag_26:\n      dup3\n      add\n      swap2\n      swap1\n      0x00\n      mstore\n      keccak256(0x00, 0x20)\n      swap1\n    tag_27:\n      dup2\n      sload\n      dup2\n      mstore\n      swap1\n      0x01\n      add\n      swap1\n      0x20\n      add\n      dup1\n      dup4\n      gt\n      tag_27\n      jumpi\n      dup3\n      swap1\n      sub\n      0x1f\n      and\n      dup3\n      add\n      swap2\n    tag_25:\n      pop\n      pop\n      pop\n      pop\n      pop\n      dup2\n      mstore\n      0x20\n      add\n      0x01\n      dup3\n      add\n      dup1\n      sload\n      tag_28\n      swap1\n      tag_23\n      jump\t// in\n    tag_28:\n      dup1\n      0x1f\n      add\n      0x20\n      dup1\n      swap2\n      div\n      mul\n      0x20\n      add\n      mload(0x40)\n      swap1\n      dup2\n      add\n      0x40\n      mstore\n      dup1\n      swap3\n      swap2\n      swap1\n      dup2\n      dup2\n      mstore\n      0x20\n      add\n      dup3\n      dup1\n      sload\n      tag_29\n      swap1\n      tag_23\n      jump\t// in\n    tag_29:\n      dup1\n      iszero\n      tag_30\n      jumpi\n      dup1\n      0x1f\n      lt\n      tag_31\n      jumpi\n      0x0100\n      dup1\n      dup4\n      sload\n      div\n      mul\n      dup4\n      mstore\n      swap2\n      0x20\n      add\n      swap2\n      jump(tag_30)\n    tag_31:\n      dup3\n      add\n      swap2\n      swap1\n      0x00\n      mstore\n      keccak256(0x00, 0x20)\n      swap1\n    tag_32:\n      dup2\n      sload\n      dup2\n      mstore\n      swap1\n      0x01\n      add\n      swap1\n      0x20\n      add\n      dup1\n      dup4\n      gt\n      tag_32\n      jumpi\n      dup3\n      swap1\n      sub\n      0x1f\n      and\n      dup3\n      add\n      swap2\n    tag_30:\n      pop\n      pop\n      pop\n      pop\n      pop\n      dup2\n      mstore\n      0x20\n      add\n      0x02\n      dup3\n      add\n      dup1\n      sload\n      tag_33\n      swap1\n      tag_23\n      jump\t// in\n    tag_33:\n      dup1\n      0x1f\n      add\n      0x20\n      dup1\n      swap2\n      div\n      mul\n      0x20\n      add\n      mload(0x40)\n      swap1\n      dup2\n      add\n      0x40\n      mstore\n      dup1\n      swap3\n      swap2\n      swap1\n      dup2\n      dup2\n      mstore\n      0x20\n      add\n      dup3\n      dup1\n      sload\n      tag_34\n      swap1\n      tag_23\n      jump\t// in\n    tag_34:\n      dup1\n      iszero\n      tag_35\n      jumpi\n      dup1\n      0x1f\n      lt\n      tag_36\n      jumpi\n      0x0100\n      dup1\n      dup4\n      sload\n      div\n      mul\n      dup4\n      mstore\n      swap2\n      0x20\n      add\n      swap2\n      jump(tag_35)\n    tag_36:\n      dup3\n      add\n      swap2\n      swap1\n      0x00\n      mstore\n      keccak256(0x00, 0x20)\n      swap1\n    tag_37:\n      dup2\n      sload\n      dup2\n      mstore\n      swap1\n      0x01\n      add\n      swap1\n      0x20\n      add\n      dup1\n      dup4\n      gt\n      tag_37\n      jumpi\n      dup3\n      swap1\n      sub\n      0x1f\n      and\n      dup3\n      add\n      swap2\n    tag_35:\n      pop\n      pop\n      pop\n      pop\n      pop\n      dup2\n      mstore\n      0x20\n      add\n      0x03\n      dup3\n      add\n      sload\n      dup2\n      mstore\n      pop\n      pop\n      swap2\n      pop\n      pop\n        /* \"contracts/Halal.sol\":1490:1680  function get_account(string memory account_id) public view returns(accountData memory){... */\n      swap2\n      swap1\n      pop\n      jump\t// out\n        /* \"contracts/Halal.sol\":956:1484  function add_account(... */\n    tag_14:\n        /* \"contracts/Halal.sol\":1090:1097  bytes32 */\n      0x00\n        /* \"contracts/Halal.sol\":1108:1118  bytes32 id */\n      dup1\n        /* \"contracts/Halal.sol\":1148:1158  account_id */\n      dup5\n        /* \"contracts/Halal.sol\":1131:1159  abi.encodePacked(account_id) */\n      add(0x20, mload(0x40))\n      tag_39\n      swap2\n      swap1\n      tag_21\n      jump\t// in\n    tag_39:\n      mload(0x40)\n      0x20\n      dup2\n      dup4\n      sub\n      sub\n      dup2\n      mstore\n      swap1\n      0x40\n      mstore\n        /* \"contracts/Halal.sol\":1121:1160  keccak256(abi.encodePacked(account_id)) */\n      dup1\n      mload\n      swap1\n      0x20\n      add\n      keccak256\n        /* \"contracts/Halal.sol\":1108:1160  bytes32 id = keccak256(abi.encodePacked(account_id)) */\n      swap1\n      pop\n        /* \"contracts/Halal.sol\":1178:1209  account_checker(id, account_id) */\n      tag_40\n        /* \"contracts/Halal.sol\":1194:1196  id */\n      dup2\n        /* \"contracts/Halal.sol\":1198:1208  account_id */\n      dup7\n        /* \"contracts/Halal.sol\":1178:1193  account_checker */\n      tag_41\n        /* \"contracts/Halal.sol\":1178:1209  account_checker(id, account_id) */\n      jump\t// in\n    tag_40:\n        /* \"contracts/Halal.sol\":1170:1238  require(account_checker(id, account_id), \"Account already existing\") */\n      tag_42\n      jumpi\n      mload(0x40)\n      0x08c379a000000000000000000000000000000000000000000000000000000000\n      dup2\n      mstore\n      0x04\n      add\n      tag_43\n      swap1\n      tag_44\n      jump\t// in\n    tag_43:\n      mload(0x40)\n      dup1\n      swap2\n      sub\n      swap1\n      revert\n    tag_42:\n        /* \"contracts/Halal.sol\":1248:1271  accountData storage acc */\n      0x00\n        /* \"contracts/Halal.sol\":1274:1288  mappingAccount */\n      dup1\n        /* \"contracts/Halal.sol\":1274:1292  mappingAccount[id] */\n      0x00\n        /* \"contracts/Halal.sol\":1289:1291  id */\n      dup4\n        /* \"contracts/Halal.sol\":1274:1292  mappingAccount[id] */\n      dup2\n      mstore\n      0x20\n      add\n      swap1\n      dup2\n      mstore\n      0x20\n      add\n      0x00\n      keccak256\n        /* \"contracts/Halal.sol\":1248:1292  accountData storage acc = mappingAccount[id] */\n      swap1\n      pop\n        /* \"contracts/Halal.sol\":1319:1329  account_id */\n      dup6\n        /* \"contracts/Halal.sol\":1302:1305  acc */\n      dup2\n        /* \"contracts/Halal.sol\":1302:1316  acc.account_id */\n      0x00\n      add\n        /* \"contracts/Halal.sol\":1302:1329  acc.account_id = account_id */\n      swap1\n      dup1\n      mload\n      swap1\n      0x20\n      add\n      swap1\n      tag_45\n      swap3\n      swap2\n      swap1\n      tag_46\n      jump\t// in\n    tag_45:\n      pop\n        /* \"contracts/Halal.sol\":1350:1354  name */\n      dup5\n        /* \"contracts/Halal.sol\":1339:1342  acc */\n      dup2\n        /* \"contracts/Halal.sol\":1339:1347  acc.name */\n      0x01\n      add\n        /* \"contracts/Halal.sol\":1339:1354  acc.name = name */\n      swap1\n      dup1\n      mload\n      swap1\n      0x20\n      add\n      swap1\n      tag_47\n      swap3\n      swap2\n      swap1\n      tag_46\n      jump\t// in\n    tag_47:\n      pop\n        /* \"contracts/Halal.sol\":1375:1379  role */\n      dup4\n        /* \"contracts/Halal.sol\":1364:1367  acc */\n      dup2\n        /* \"contracts/Halal.sol\":1364:1372  acc.role */\n      0x02\n      add\n        /* \"contracts/Halal.sol\":1364:1379  acc.role = role */\n      swap1\n      dup1\n      mload\n      swap1\n      0x20\n      add\n      swap1\n      tag_48\n      swap3\n      swap2\n      swap1\n      tag_46\n      jump\t// in\n    tag_48:\n      pop\n        /* \"contracts/Halal.sol\":1406:1421  block.timestamp */\n      timestamp\n        /* \"contracts/Halal.sol\":1389:1392  acc */\n      dup2\n        /* \"contracts/Halal.sol\":1389:1403  acc.created_at */\n      0x03\n      add\n        /* \"contracts/Halal.sol\":1389:1421  acc.created_at = block.timestamp */\n      dup2\n      swap1\n      sstore\n      pop\n        /* \"contracts/Halal.sol\":1436:1458  success(\"success\", id) */\n      0xc8922d91fbabbe8df5d667708c678575856a856a2a465ebd9626a40ab6a16f5f\n        /* \"contracts/Halal.sol\":1455:1457  id */\n      dup3\n        /* \"contracts/Halal.sol\":1436:1458  success(\"success\", id) */\n      mload(0x40)\n      tag_49\n      swap2\n      swap1\n      tag_50\n      jump\t// in\n    tag_49:\n      mload(0x40)\n      dup1\n      swap2\n      sub\n      swap1\n      log1\n        /* \"contracts/Halal.sol\":1475:1477  id */\n      dup2\n        /* \"contracts/Halal.sol\":1468:1477  return id */\n      swap3\n      pop\n      pop\n      pop\n        /* \"contracts/Halal.sol\":956:1484  function add_account(... */\n      swap4\n      swap3\n      pop\n      pop\n      pop\n      jump\t// out\n        /* \"contracts/Halal.sol\":742:950  function account_checker(bytes32 id, string memory umkm_id) private view returns(bool){... */\n    tag_41:\n        /* \"contracts/Halal.sol\":823:827  bool */\n      0x00\n        /* \"contracts/Halal.sol\":934:941  umkm_id */\n      dup2\n        /* \"contracts/Halal.sol\":917:942  abi.encodePacked(umkm_id) */\n      add(0x20, mload(0x40))\n      tag_52\n      swap2\n      swap1\n      tag_21\n      jump\t// in\n    tag_52:\n      mload(0x40)\n      0x20\n      dup2\n      dup4\n      sub\n      sub\n      dup2\n      mstore\n      swap1\n      0x40\n      mstore\n        /* \"contracts/Halal.sol\":907:943  keccak256(abi.encodePacked(umkm_id)) */\n      dup1\n      mload\n      swap1\n      0x20\n      add\n      keccak256\n        /* \"contracts/Halal.sol\":872:886  mappingAccount */\n      0x00\n        /* \"contracts/Halal.sol\":872:890  mappingAccount[id] */\n      dup1\n        /* \"contracts/Halal.sol\":887:889  id */\n      dup6\n        /* \"contracts/Halal.sol\":872:890  mappingAccount[id] */\n      dup2\n      mstore\n      0x20\n      add\n      swap1\n      dup2\n      mstore\n      0x20\n      add\n      0x00\n      keccak256\n        /* \"contracts/Halal.sol\":872:901  mappingAccount[id].account_id */\n      0x00\n      add\n        /* \"contracts/Halal.sol\":855:902  abi.encodePacked(mappingAccount[id].account_id) */\n      add(0x20, mload(0x40))\n      tag_53\n      swap2\n      swap1\n      tag_54\n      jump\t// in\n    tag_53:\n      mload(0x40)\n      0x20\n      dup2\n      dup4\n      sub\n      sub\n      dup2\n      mstore\n      swap1\n      0x40\n      mstore\n        /* \"contracts/Halal.sol\":845:903  keccak256(abi.encodePacked(mappingAccount[id].account_id)) */\n      dup1\n      mload\n      swap1\n      0x20\n      add\n      keccak256\n        /* \"contracts/Halal.sol\":845:943  keccak256(abi.encodePacked(mappingAccount[id].account_id)) != keccak256(abi.encodePacked(umkm_id)) */\n      eq\n      iszero\n        /* \"contracts/Halal.sol\":838:943  return keccak256(abi.encodePacked(mappingAccount[id].account_id)) != keccak256(abi.encodePacked(umkm_id)) */\n      swap1\n      pop\n        /* \"contracts/Halal.sol\":742:950  function account_checker(bytes32 id, string memory umkm_id) private view returns(bool){... */\n      swap3\n      swap2\n      pop\n      pop\n      jump\t// out\n    tag_18:\n      mload(0x40)\n      dup1\n      0x80\n      add\n      0x40\n      mstore\n      dup1\n      0x60\n      dup2\n      mstore\n      0x20\n      add\n      0x60\n      dup2\n      mstore\n      0x20\n      add\n      0x60\n      dup2\n      mstore\n      0x20\n      add\n      0x00\n      dup2\n      mstore\n      pop\n      swap1\n      jump\t// out\n    tag_46:\n      dup3\n      dup1\n      sload\n      tag_55\n      swap1\n      tag_23\n      jump\t// in\n    tag_55:\n      swap1\n      0x00\n      mstore\n      keccak256(0x00, 0x20)\n      swap1\n      0x1f\n      add\n      0x20\n      swap1\n      div\n      dup2\n      add\n      swap3\n      dup3\n      tag_57\n      jumpi\n      0x00\n      dup6\n      sstore\n      jump(tag_56)\n    tag_57:\n      dup3\n      0x1f\n      lt\n      tag_58\n      jumpi\n      dup1\n      mload\n      not(0xff)\n      and\n      dup4\n      dup1\n      add\n      or\n      dup6\n      sstore\n      jump(tag_56)\n    tag_58:\n      dup3\n      dup1\n      add\n      0x01\n      add\n      dup6\n      sstore\n      dup3\n      iszero\n      tag_56\n      jumpi\n      swap2\n      dup3\n      add\n    tag_59:\n      dup3\n      dup2\n      gt\n      iszero\n      tag_60\n      jumpi\n      dup3\n      mload\n      dup3\n      sstore\n      swap2\n      0x20\n      add\n      swap2\n      swap1\n      0x01\n      add\n      swap1\n      jump(tag_59)\n    tag_60:\n    tag_56:\n      pop\n      swap1\n      pop\n      tag_61\n      swap2\n      swap1\n      tag_62\n      jump\t// in\n    tag_61:\n      pop\n      swap1\n      jump\t// out\n    tag_62:\n    tag_63:\n      dup1\n      dup3\n      gt\n      iszero\n      tag_64\n      jumpi\n      0x00\n      dup2\n      0x00\n      swap1\n      sstore\n      pop\n      0x01\n      add\n      jump(tag_63)\n    tag_64:\n      pop\n      swap1\n      jump\t// out\n        /* \"#utility.yul\":7:419   */\n    tag_66:\n        /* \"#utility.yul\":85:90   */\n      0x00\n        /* \"#utility.yul\":110:176   */\n      tag_68\n        /* \"#utility.yul\":126:175   */\n      tag_69\n        /* \"#utility.yul\":168:174   */\n      dup5\n        /* \"#utility.yul\":126:175   */\n      tag_70\n      jump\t// in\n    tag_69:\n        /* \"#utility.yul\":110:176   */\n      tag_71\n      jump\t// in\n    tag_68:\n        /* \"#utility.yul\":101:176   */\n      swap1\n      pop\n        /* \"#utility.yul\":199:205   */\n      dup3\n        /* \"#utility.yul\":192:197   */\n      dup2\n        /* \"#utility.yul\":185:206   */\n      mstore\n        /* \"#utility.yul\":237:241   */\n      0x20\n        /* \"#utility.yul\":230:235   */\n      dup2\n        /* \"#utility.yul\":226:242   */\n      add\n        /* \"#utility.yul\":275:278   */\n      dup5\n        /* \"#utility.yul\":266:272   */\n      dup5\n        /* \"#utility.yul\":261:264   */\n      dup5\n        /* \"#utility.yul\":257:273   */\n      add\n        /* \"#utility.yul\":254:279   */\n      gt\n        /* \"#utility.yul\":251:363   */\n      iszero\n      tag_72\n      jumpi\n        /* \"#utility.yul\":282:361   */\n      tag_73\n      tag_74\n      jump\t// in\n    tag_73:\n        /* \"#utility.yul\":251:363   */\n    tag_72:\n        /* \"#utility.yul\":372:413   */\n      tag_75\n        /* \"#utility.yul\":406:412   */\n      dup5\n        /* \"#utility.yul\":401:404   */\n      dup3\n        /* \"#utility.yul\":396:399   */\n      dup6\n        /* \"#utility.yul\":372:413   */\n      tag_76\n      jump\t// in\n    tag_75:\n        /* \"#utility.yul\":91:419   */\n      pop\n        /* \"#utility.yul\":7:419   */\n      swap4\n      swap3\n      pop\n      pop\n      pop\n      jump\t// out\n        /* \"#utility.yul\":439:779   */\n    tag_77:\n        /* \"#utility.yul\":495:500   */\n      0x00\n        /* \"#utility.yul\":544:547   */\n      dup3\n        /* \"#utility.yul\":537:541   */\n      0x1f\n        /* \"#utility.yul\":529:535   */\n      dup4\n        /* \"#utility.yul\":525:542   */\n      add\n        /* \"#utility.yul\":521:548   */\n      slt\n        /* \"#utility.yul\":511:633   */\n      tag_79\n      jumpi\n        /* \"#utility.yul\":552:631   */\n      tag_80\n      tag_81\n      jump\t// in\n    tag_80:\n        /* \"#utility.yul\":511:633   */\n    tag_79:\n        /* \"#utility.yul\":669:675   */\n      dup2\n        /* \"#utility.yul\":656:676   */\n      calldataload\n        /* \"#utility.yul\":694:773   */\n      tag_82\n        /* \"#utility.yul\":769:772   */\n      dup5\n        /* \"#utility.yul\":761:767   */\n      dup3\n        /* \"#utility.yul\":754:758   */\n      0x20\n        /* \"#utility.yul\":746:752   */\n      dup7\n        /* \"#utility.yul\":742:759   */\n      add\n        /* \"#utility.yul\":694:773   */\n      tag_66\n      jump\t// in\n    tag_82:\n        /* \"#utility.yul\":685:773   */\n      swap2\n      pop\n        /* \"#utility.yul\":501:779   */\n      pop\n        /* \"#utility.yul\":439:779   */\n      swap3\n      swap2\n      pop\n      pop\n      jump\t// out\n        /* \"#utility.yul\":785:1294   */\n    tag_7:\n        /* \"#utility.yul\":854:860   */\n      0x00\n        /* \"#utility.yul\":903:905   */\n      0x20\n        /* \"#utility.yul\":891:900   */\n      dup3\n        /* \"#utility.yul\":882:889   */\n      dup5\n        /* \"#utility.yul\":878:901   */\n      sub\n        /* \"#utility.yul\":874:906   */\n      slt\n        /* \"#utility.yul\":871:990   */\n      iszero\n      tag_84\n      jumpi\n        /* \"#utility.yul\":909:988   */\n      tag_85\n      tag_86\n      jump\t// in\n    tag_85:\n        /* \"#utility.yul\":871:990   */\n    tag_84:\n        /* \"#utility.yul\":1057:1058   */\n      0x00\n        /* \"#utility.yul\":1046:1055   */\n      dup3\n        /* \"#utility.yul\":1042:1059   */\n      add\n        /* \"#utility.yul\":1029:1060   */\n      calldataload\n        /* \"#utility.yul\":1087:1105   */\n      0xffffffffffffffff\n        /* \"#utility.yul\":1079:1085   */\n      dup2\n        /* \"#utility.yul\":1076:1106   */\n      gt\n        /* \"#utility.yul\":1073:1190   */\n      iszero\n      tag_87\n      jumpi\n        /* \"#utility.yul\":1109:1188   */\n      tag_88\n      tag_89\n      jump\t// in\n    tag_88:\n        /* \"#utility.yul\":1073:1190   */\n    tag_87:\n        /* \"#utility.yul\":1214:1277   */\n      tag_90\n        /* \"#utility.yul\":1269:1276   */\n      dup5\n        /* \"#utility.yul\":1260:1266   */\n      dup3\n        /* \"#utility.yul\":1249:1258   */\n      dup6\n        /* \"#utility.yul\":1245:1267   */\n      add\n        /* \"#utility.yul\":1214:1277   */\n      tag_77\n      jump\t// in\n    tag_90:\n        /* \"#utility.yul\":1204:1277   */\n      swap2\n      pop\n        /* \"#utility.yul\":1000:1287   */\n      pop\n        /* \"#utility.yul\":785:1294   */\n      swap3\n      swap2\n      pop\n      pop\n      jump\t// out\n        /* \"#utility.yul\":1300:2459   */\n    tag_13:\n        /* \"#utility.yul\":1407:1413   */\n      0x00\n        /* \"#utility.yul\":1415:1421   */\n      dup1\n        /* \"#utility.yul\":1423:1429   */\n      0x00\n        /* \"#utility.yul\":1472:1474   */\n      0x60\n        /* \"#utility.yul\":1460:1469   */\n      dup5\n        /* \"#utility.yul\":1451:1458   */\n      dup7\n        /* \"#utility.yul\":1447:1470   */\n      sub\n        /* \"#utility.yul\":1443:1475   */\n      slt\n        /* \"#utility.yul\":1440:1559   */\n      iszero\n      tag_92\n      jumpi\n        /* \"#utility.yul\":1478:1557   */\n      tag_93\n      tag_86\n      jump\t// in\n    tag_93:\n        /* \"#utility.yul\":1440:1559   */\n    tag_92:\n        /* \"#utility.yul\":1626:1627   */\n      0x00\n        /* \"#utility.yul\":1615:1624   */\n      dup5\n        /* \"#utility.yul\":1611:1628   */\n      add\n        /* \"#utility.yul\":1598:1629   */\n      calldataload\n        /* \"#utility.yul\":1656:1674   */\n      0xffffffffffffffff\n        /* \"#utility.yul\":1648:1654   */\n      dup2\n        /* \"#utility.yul\":1645:1675   */\n      gt\n        /* \"#utility.yul\":1642:1759   */\n      iszero\n      tag_94\n      jumpi\n        /* \"#utility.yul\":1678:1757   */\n      tag_95\n      tag_89\n      jump\t// in\n    tag_95:\n        /* \"#utility.yul\":1642:1759   */\n    tag_94:\n        /* \"#utility.yul\":1783:1846   */\n      tag_96\n        /* \"#utility.yul\":1838:1845   */\n      dup7\n        /* \"#utility.yul\":1829:1835   */\n      dup3\n        /* \"#utility.yul\":1818:1827   */\n      dup8\n        /* \"#utility.yul\":1814:1836   */\n      add\n        /* \"#utility.yul\":1783:1846   */\n      tag_77\n      jump\t// in\n    tag_96:\n        /* \"#utility.yul\":1773:1846   */\n      swap4\n      pop\n        /* \"#utility.yul\":1569:1856   */\n      pop\n        /* \"#utility.yul\":1923:1925   */\n      0x20\n        /* \"#utility.yul\":1912:1921   */\n      dup5\n        /* \"#utility.yul\":1908:1926   */\n      add\n        /* \"#utility.yul\":1895:1927   */\n      calldataload\n        /* \"#utility.yul\":1954:1972   */\n      0xffffffffffffffff\n        /* \"#utility.yul\":1946:1952   */\n      dup2\n        /* \"#utility.yul\":1943:1973   */\n      gt\n        /* \"#utility.yul\":1940:2057   */\n      iszero\n      tag_97\n      jumpi\n        /* \"#utility.yul\":1976:2055   */\n      tag_98\n      tag_89\n      jump\t// in\n    tag_98:\n        /* \"#utility.yul\":1940:2057   */\n    tag_97:\n        /* \"#utility.yul\":2081:2144   */\n      tag_99\n        /* \"#utility.yul\":2136:2143   */\n      dup7\n        /* \"#utility.yul\":2127:2133   */\n      dup3\n        /* \"#utility.yul\":2116:2125   */\n      dup8\n        /* \"#utility.yul\":2112:2134   */\n      add\n        /* \"#utility.yul\":2081:2144   */\n      tag_77\n      jump\t// in\n    tag_99:\n        /* \"#utility.yul\":2071:2144   */\n      swap3\n      pop\n        /* \"#utility.yul\":1866:2154   */\n      pop\n        /* \"#utility.yul\":2221:2223   */\n      0x40\n        /* \"#utility.yul\":2210:2219   */\n      dup5\n        /* \"#utility.yul\":2206:2224   */\n      add\n        /* \"#utility.yul\":2193:2225   */\n      calldataload\n        /* \"#utility.yul\":2252:2270   */\n      0xffffffffffffffff\n        /* \"#utility.yul\":2244:2250   */\n      dup2\n        /* \"#utility.yul\":2241:2271   */\n      gt\n        /* \"#utility.yul\":2238:2355   */\n      iszero\n      tag_100\n      jumpi\n        /* \"#utility.yul\":2274:2353   */\n      tag_101\n      tag_89\n      jump\t// in\n    tag_101:\n        /* \"#utility.yul\":2238:2355   */\n    tag_100:\n        /* \"#utility.yul\":2379:2442   */\n      tag_102\n        /* \"#utility.yul\":2434:2441   */\n      dup7\n        /* \"#utility.yul\":2425:2431   */\n      dup3\n        /* \"#utility.yul\":2414:2423   */\n      dup8\n        /* \"#utility.yul\":2410:2432   */\n      add\n        /* \"#utility.yul\":2379:2442   */\n      tag_77\n      jump\t// in\n    tag_102:\n        /* \"#utility.yul\":2369:2442   */\n      swap2\n      pop\n        /* \"#utility.yul\":2164:2452   */\n      pop\n        /* \"#utility.yul\":1300:2459   */\n      swap3\n      pop\n      swap3\n      pop\n      swap3\n      jump\t// out\n        /* \"#utility.yul\":2465:2583   */\n    tag_103:\n        /* \"#utility.yul\":2552:2576   */\n      tag_105\n        /* \"#utility.yul\":2570:2575   */\n      dup2\n        /* \"#utility.yul\":2552:2576   */\n      tag_106\n      jump\t// in\n    tag_105:\n        /* \"#utility.yul\":2547:2550   */\n      dup3\n        /* \"#utility.yul\":2540:2577   */\n      mstore\n        /* \"#utility.yul\":2465:2583   */\n      pop\n      pop\n      jump\t// out\n        /* \"#utility.yul\":2589:2933   */\n    tag_107:\n        /* \"#utility.yul\":2667:2670   */\n      0x00\n        /* \"#utility.yul\":2695:2734   */\n      tag_109\n        /* \"#utility.yul\":2728:2733   */\n      dup3\n        /* \"#utility.yul\":2695:2734   */\n      tag_110\n      jump\t// in\n    tag_109:\n        /* \"#utility.yul\":2750:2811   */\n      tag_111\n        /* \"#utility.yul\":2804:2810   */\n      dup2\n        /* \"#utility.yul\":2799:2802   */\n      dup6\n        /* \"#utility.yul\":2750:2811   */\n      tag_112\n      jump\t// in\n    tag_111:\n        /* \"#utility.yul\":2743:2811   */\n      swap4\n      pop\n        /* \"#utility.yul\":2820:2872   */\n      tag_113\n        /* \"#utility.yul\":2865:2871   */\n      dup2\n        /* \"#utility.yul\":2860:2863   */\n      dup6\n        /* \"#utility.yul\":2853:2857   */\n      0x20\n        /* \"#utility.yul\":2846:2851   */\n      dup7\n        /* \"#utility.yul\":2842:2858   */\n      add\n        /* \"#utility.yul\":2820:2872   */\n      tag_114\n      jump\t// in\n    tag_113:\n        /* \"#utility.yul\":2897:2926   */\n      tag_115\n        /* \"#utility.yul\":2919:2925   */\n      dup2\n        /* \"#utility.yul\":2897:2926   */\n      tag_116\n      jump\t// in\n    tag_115:\n        /* \"#utility.yul\":2892:2895   */\n      dup5\n        /* \"#utility.yul\":2888:2927   */\n      add\n        /* \"#utility.yul\":2881:2927   */\n      swap2\n      pop\n        /* \"#utility.yul\":2671:2933   */\n      pop\n        /* \"#utility.yul\":2589:2933   */\n      swap3\n      swap2\n      pop\n      pop\n      jump\t// out\n        /* \"#utility.yul\":2939:3316   */\n    tag_117:\n        /* \"#utility.yul\":3045:3048   */\n      0x00\n        /* \"#utility.yul\":3073:3112   */\n      tag_119\n        /* \"#utility.yul\":3106:3111   */\n      dup3\n        /* \"#utility.yul\":3073:3112   */\n      tag_110\n      jump\t// in\n    tag_119:\n        /* \"#utility.yul\":3128:3217   */\n      tag_120\n        /* \"#utility.yul\":3210:3216   */\n      dup2\n        /* \"#utility.yul\":3205:3208   */\n      dup6\n        /* \"#utility.yul\":3128:3217   */\n      tag_121\n      jump\t// in\n    tag_120:\n        /* \"#utility.yul\":3121:3217   */\n      swap4\n      pop\n        /* \"#utility.yul\":3226:3278   */\n      tag_122\n        /* \"#utility.yul\":3271:3277   */\n      dup2\n        /* \"#utility.yul\":3266:3269   */\n      dup6\n        /* \"#utility.yul\":3259:3263   */\n      0x20\n        /* \"#utility.yul\":3252:3257   */\n      dup7\n        /* \"#utility.yul\":3248:3264   */\n      add\n        /* \"#utility.yul\":3226:3278   */\n      tag_114\n      jump\t// in\n    tag_122:\n        /* \"#utility.yul\":3303:3309   */\n      dup1\n        /* \"#utility.yul\":3298:3301   */\n      dup5\n        /* \"#utility.yul\":3294:3310   */\n      add\n        /* \"#utility.yul\":3287:3310   */\n      swap2\n      pop\n        /* \"#utility.yul\":3049:3316   */\n      pop\n        /* \"#utility.yul\":2939:3316   */\n      swap3\n      swap2\n      pop\n      pop\n      jump\t// out\n        /* \"#utility.yul\":3346:4191   */\n    tag_123:\n        /* \"#utility.yul\":3449:3452   */\n      0x00\n        /* \"#utility.yul\":3486:3491   */\n      dup2\n        /* \"#utility.yul\":3480:3492   */\n      sload\n        /* \"#utility.yul\":3515:3551   */\n      tag_125\n        /* \"#utility.yul\":3541:3550   */\n      dup2\n        /* \"#utility.yul\":3515:3551   */\n      tag_23\n      jump\t// in\n    tag_125:\n        /* \"#utility.yul\":3567:3656   */\n      tag_126\n        /* \"#utility.yul\":3649:3655   */\n      dup2\n        /* \"#utility.yul\":3644:3647   */\n      dup7\n        /* \"#utility.yul\":3567:3656   */\n      tag_121\n      jump\t// in\n    tag_126:\n        /* \"#utility.yul\":3560:3656   */\n      swap5\n      pop\n        /* \"#utility.yul\":3687:3688   */\n      0x01\n        /* \"#utility.yul\":3676:3685   */\n      dup3\n        /* \"#utility.yul\":3672:3689   */\n      and\n        /* \"#utility.yul\":3703:3704   */\n      0x00\n        /* \"#utility.yul\":3698:3835   */\n      dup2\n      eq\n      tag_128\n      jumpi\n        /* \"#utility.yul\":3849:3850   */\n      0x01\n        /* \"#utility.yul\":3844:4185   */\n      dup2\n      eq\n      tag_129\n      jumpi\n        /* \"#utility.yul\":3665:4185   */\n      jump(tag_127)\n        /* \"#utility.yul\":3698:3835   */\n    tag_128:\n        /* \"#utility.yul\":3782:3786   */\n      0xff\n        /* \"#utility.yul\":3778:3787   */\n      not\n        /* \"#utility.yul\":3767:3776   */\n      dup4\n        /* \"#utility.yul\":3763:3788   */\n      and\n        /* \"#utility.yul\":3758:3761   */\n      dup7\n        /* \"#utility.yul\":3751:3789   */\n      mstore\n        /* \"#utility.yul\":3818:3824   */\n      dup2\n        /* \"#utility.yul\":3813:3816   */\n      dup7\n        /* \"#utility.yul\":3809:3825   */\n      add\n        /* \"#utility.yul\":3802:3825   */\n      swap4\n      pop\n        /* \"#utility.yul\":3698:3835   */\n      jump(tag_127)\n        /* \"#utility.yul\":3844:4185   */\n    tag_129:\n        /* \"#utility.yul\":3911:3949   */\n      tag_130\n        /* \"#utility.yul\":3943:3948   */\n      dup6\n        /* \"#utility.yul\":3911:3949   */\n      tag_131\n      jump\t// in\n    tag_130:\n        /* \"#utility.yul\":3971:3972   */\n      0x00\n        /* \"#utility.yul\":3985:4139   */\n    tag_132:\n        /* \"#utility.yul\":3999:4005   */\n      dup4\n        /* \"#utility.yul\":3996:3997   */\n      dup2\n        /* \"#utility.yul\":3993:4006   */\n      lt\n        /* \"#utility.yul\":3985:4139   */\n      iszero\n      tag_134\n      jumpi\n        /* \"#utility.yul\":4073:4080   */\n      dup2\n        /* \"#utility.yul\":4067:4081   */\n      sload\n        /* \"#utility.yul\":4063:4064   */\n      dup2\n        /* \"#utility.yul\":4058:4061   */\n      dup10\n        /* \"#utility.yul\":4054:4065   */\n      add\n        /* \"#utility.yul\":4047:4082   */\n      mstore\n        /* \"#utility.yul\":4123:4124   */\n      0x01\n        /* \"#utility.yul\":4114:4121   */\n      dup3\n        /* \"#utility.yul\":4110:4125   */\n      add\n        /* \"#utility.yul\":4099:4125   */\n      swap2\n      pop\n        /* \"#utility.yul\":4021:4025   */\n      0x20\n        /* \"#utility.yul\":4018:4019   */\n      dup2\n        /* \"#utility.yul\":4014:4026   */\n      add\n        /* \"#utility.yul\":4009:4026   */\n      swap1\n      pop\n        /* \"#utility.yul\":3985:4139   */\n      jump(tag_132)\n    tag_134:\n        /* \"#utility.yul\":4168:4174   */\n      dup4\n        /* \"#utility.yul\":4163:4166   */\n      dup9\n        /* \"#utility.yul\":4159:4175   */\n      add\n        /* \"#utility.yul\":4152:4175   */\n      swap6\n      pop\n        /* \"#utility.yul\":3851:4185   */\n      pop\n      pop\n        /* \"#utility.yul\":3665:4185   */\n    tag_127:\n      pop\n        /* \"#utility.yul\":3453:4191   */\n      pop\n      pop\n        /* \"#utility.yul\":3346:4191   */\n      swap3\n      swap2\n      pop\n      pop\n      jump\t// out\n        /* \"#utility.yul\":4197:4563   */\n    tag_135:\n        /* \"#utility.yul\":4339:4342   */\n      0x00\n        /* \"#utility.yul\":4360:4427   */\n      tag_137\n        /* \"#utility.yul\":4424:4426   */\n      0x18\n        /* \"#utility.yul\":4419:4422   */\n      dup4\n        /* \"#utility.yul\":4360:4427   */\n      tag_138\n      jump\t// in\n    tag_137:\n        /* \"#utility.yul\":4353:4427   */\n      swap2\n      pop\n        /* \"#utility.yul\":4436:4529   */\n      tag_139\n        /* \"#utility.yul\":4525:4528   */\n      dup3\n        /* \"#utility.yul\":4436:4529   */\n      tag_140\n      jump\t// in\n    tag_139:\n        /* \"#utility.yul\":4554:4556   */\n      0x20\n        /* \"#utility.yul\":4549:4552   */\n      dup3\n        /* \"#utility.yul\":4545:4557   */\n      add\n        /* \"#utility.yul\":4538:4557   */\n      swap1\n      pop\n        /* \"#utility.yul\":4197:4563   */\n      swap2\n      swap1\n      pop\n      jump\t// out\n        /* \"#utility.yul\":4569:4934   */\n    tag_141:\n        /* \"#utility.yul\":4711:4714   */\n      0x00\n        /* \"#utility.yul\":4732:4798   */\n      tag_143\n        /* \"#utility.yul\":4796:4797   */\n      0x07\n        /* \"#utility.yul\":4791:4794   */\n      dup4\n        /* \"#utility.yul\":4732:4798   */\n      tag_138\n      jump\t// in\n    tag_143:\n        /* \"#utility.yul\":4725:4798   */\n      swap2\n      pop\n        /* \"#utility.yul\":4807:4900   */\n      tag_144\n        /* \"#utility.yul\":4896:4899   */\n      dup3\n        /* \"#utility.yul\":4807:4900   */\n      tag_145\n      jump\t// in\n    tag_144:\n        /* \"#utility.yul\":4925:4927   */\n      0x20\n        /* \"#utility.yul\":4920:4923   */\n      dup3\n        /* \"#utility.yul\":4916:4928   */\n      add\n        /* \"#utility.yul\":4909:4928   */\n      swap1\n      pop\n        /* \"#utility.yul\":4569:4934   */\n      swap2\n      swap1\n      pop\n      jump\t// out\n        /* \"#utility.yul\":5000:6112   */\n    tag_146:\n        /* \"#utility.yul\":5123:5126   */\n      0x00\n        /* \"#utility.yul\":5159:5163   */\n      0x80\n        /* \"#utility.yul\":5154:5157   */\n      dup4\n        /* \"#utility.yul\":5150:5164   */\n      add\n        /* \"#utility.yul\":5252:5256   */\n      0x00\n        /* \"#utility.yul\":5245:5250   */\n      dup4\n        /* \"#utility.yul\":5241:5257   */\n      add\n        /* \"#utility.yul\":5235:5258   */\n      mload\n        /* \"#utility.yul\":5305:5308   */\n      dup5\n        /* \"#utility.yul\":5299:5303   */\n      dup3\n        /* \"#utility.yul\":5295:5309   */\n      sub\n        /* \"#utility.yul\":5288:5292   */\n      0x00\n        /* \"#utility.yul\":5283:5286   */\n      dup7\n        /* \"#utility.yul\":5279:5293   */\n      add\n        /* \"#utility.yul\":5272:5310   */\n      mstore\n        /* \"#utility.yul\":5331:5404   */\n      tag_148\n        /* \"#utility.yul\":5399:5403   */\n      dup3\n        /* \"#utility.yul\":5385:5397   */\n      dup3\n        /* \"#utility.yul\":5331:5404   */\n      tag_107\n      jump\t// in\n    tag_148:\n        /* \"#utility.yul\":5323:5404   */\n      swap2\n      pop\n        /* \"#utility.yul\":5174:5415   */\n      pop\n        /* \"#utility.yul\":5497:5501   */\n      0x20\n        /* \"#utility.yul\":5490:5495   */\n      dup4\n        /* \"#utility.yul\":5486:5502   */\n      add\n        /* \"#utility.yul\":5480:5503   */\n      mload\n        /* \"#utility.yul\":5550:5553   */\n      dup5\n        /* \"#utility.yul\":5544:5548   */\n      dup3\n        /* \"#utility.yul\":5540:5554   */\n      sub\n        /* \"#utility.yul\":5533:5537   */\n      0x20\n        /* \"#utility.yul\":5528:5531   */\n      dup7\n        /* \"#utility.yul\":5524:5538   */\n      add\n        /* \"#utility.yul\":5517:5555   */\n      mstore\n        /* \"#utility.yul\":5576:5649   */\n      tag_149\n        /* \"#utility.yul\":5644:5648   */\n      dup3\n        /* \"#utility.yul\":5630:5642   */\n      dup3\n        /* \"#utility.yul\":5576:5649   */\n      tag_107\n      jump\t// in\n    tag_149:\n        /* \"#utility.yul\":5568:5649   */\n      swap2\n      pop\n        /* \"#utility.yul\":5425:5660   */\n      pop\n        /* \"#utility.yul\":5742:5746   */\n      0x40\n        /* \"#utility.yul\":5735:5740   */\n      dup4\n        /* \"#utility.yul\":5731:5747   */\n      add\n        /* \"#utility.yul\":5725:5748   */\n      mload\n        /* \"#utility.yul\":5795:5798   */\n      dup5\n        /* \"#utility.yul\":5789:5793   */\n      dup3\n        /* \"#utility.yul\":5785:5799   */\n      sub\n        /* \"#utility.yul\":5778:5782   */\n      0x40\n        /* \"#utility.yul\":5773:5776   */\n      dup7\n        /* \"#utility.yul\":5769:5783   */\n      add\n        /* \"#utility.yul\":5762:5800   */\n      mstore\n        /* \"#utility.yul\":5821:5894   */\n      tag_150\n        /* \"#utility.yul\":5889:5893   */\n      dup3\n        /* \"#utility.yul\":5875:5887   */\n      dup3\n        /* \"#utility.yul\":5821:5894   */\n      tag_107\n      jump\t// in\n    tag_150:\n        /* \"#utility.yul\":5813:5894   */\n      swap2\n      pop\n        /* \"#utility.yul\":5670:5905   */\n      pop\n        /* \"#utility.yul\":5993:5997   */\n      0x60\n        /* \"#utility.yul\":5986:5991   */\n      dup4\n        /* \"#utility.yul\":5982:5998   */\n      add\n        /* \"#utility.yul\":5976:5999   */\n      mload\n        /* \"#utility.yul\":6012:6075   */\n      tag_151\n        /* \"#utility.yul\":6069:6073   */\n      0x60\n        /* \"#utility.yul\":6064:6067   */\n      dup7\n        /* \"#utility.yul\":6060:6074   */\n      add\n        /* \"#utility.yul\":6046:6058   */\n      dup3\n        /* \"#utility.yul\":6012:6075   */\n      tag_152\n      jump\t// in\n    tag_151:\n        /* \"#utility.yul\":5915:6085   */\n      pop\n        /* \"#utility.yul\":6102:6106   */\n      dup1\n        /* \"#utility.yul\":6095:6106   */\n      swap2\n      pop\n        /* \"#utility.yul\":5128:6112   */\n      pop\n        /* \"#utility.yul\":5000:6112   */\n      swap3\n      swap2\n      pop\n      pop\n      jump\t// out\n        /* \"#utility.yul\":6118:6226   */\n    tag_152:\n        /* \"#utility.yul\":6195:6219   */\n      tag_154\n        /* \"#utility.yul\":6213:6218   */\n      dup2\n        /* \"#utility.yul\":6195:6219   */\n      tag_155\n      jump\t// in\n    tag_154:\n        /* \"#utility.yul\":6190:6193   */\n      dup3\n        /* \"#utility.yul\":6183:6220   */\n      mstore\n        /* \"#utility.yul\":6118:6226   */\n      pop\n      pop\n      jump\t// out\n        /* \"#utility.yul\":6232:6507   */\n    tag_21:\n        /* \"#utility.yul\":6364:6367   */\n      0x00\n        /* \"#utility.yul\":6386:6481   */\n      tag_157\n        /* \"#utility.yul\":6477:6480   */\n      dup3\n        /* \"#utility.yul\":6468:6474   */\n      dup5\n        /* \"#utility.yul\":6386:6481   */\n      tag_117\n      jump\t// in\n    tag_157:\n        /* \"#utility.yul\":6379:6481   */\n      swap2\n      pop\n        /* \"#utility.yul\":6498:6501   */\n      dup2\n        /* \"#utility.yul\":6491:6501   */\n      swap1\n      pop\n        /* \"#utility.yul\":6232:6507   */\n      swap3\n      swap2\n      pop\n      pop\n      jump\t// out\n        /* \"#utility.yul\":6513:6782   */\n    tag_54:\n        /* \"#utility.yul\":6642:6645   */\n      0x00\n        /* \"#utility.yul\":6664:6756   */\n      tag_159\n        /* \"#utility.yul\":6752:6755   */\n      dup3\n        /* \"#utility.yul\":6743:6749   */\n      dup5\n        /* \"#utility.yul\":6664:6756   */\n      tag_123\n      jump\t// in\n    tag_159:\n        /* \"#utility.yul\":6657:6756   */\n      swap2\n      pop\n        /* \"#utility.yul\":6773:6776   */\n      dup2\n        /* \"#utility.yul\":6766:6776   */\n      swap1\n      pop\n        /* \"#utility.yul\":6513:6782   */\n      swap3\n      swap2\n      pop\n      pop\n      jump\t// out\n        /* \"#utility.yul\":6788:7010   */\n    tag_16:\n        /* \"#utility.yul\":6881:6885   */\n      0x00\n        /* \"#utility.yul\":6919:6921   */\n      0x20\n        /* \"#utility.yul\":6908:6917   */\n      dup3\n        /* \"#utility.yul\":6904:6922   */\n      add\n        /* \"#utility.yul\":6896:6922   */\n      swap1\n      pop\n        /* \"#utility.yul\":6932:7003   */\n      tag_161\n        /* \"#utility.yul\":7000:7001   */\n      0x00\n        /* \"#utility.yul\":6989:6998   */\n      dup4\n        /* \"#utility.yul\":6985:7002   */\n      add\n        /* \"#utility.yul\":6976:6982   */\n      dup5\n        /* \"#utility.yul\":6932:7003   */\n      tag_103\n      jump\t// in\n    tag_161:\n        /* \"#utility.yul\":6788:7010   */\n      swap3\n      swap2\n      pop\n      pop\n      jump\t// out\n        /* \"#utility.yul\":7016:7435   */\n    tag_44:\n        /* \"#utility.yul\":7182:7186   */\n      0x00\n        /* \"#utility.yul\":7220:7222   */\n      0x20\n        /* \"#utility.yul\":7209:7218   */\n      dup3\n        /* \"#utility.yul\":7205:7223   */\n      add\n        /* \"#utility.yul\":7197:7223   */\n      swap1\n      pop\n        /* \"#utility.yul\":7269:7278   */\n      dup2\n        /* \"#utility.yul\":7263:7267   */\n      dup2\n        /* \"#utility.yul\":7259:7279   */\n      sub\n        /* \"#utility.yul\":7255:7256   */\n      0x00\n        /* \"#utility.yul\":7244:7253   */\n      dup4\n        /* \"#utility.yul\":7240:7257   */\n      add\n        /* \"#utility.yul\":7233:7280   */\n      mstore\n        /* \"#utility.yul\":7297:7428   */\n      tag_163\n        /* \"#utility.yul\":7423:7427   */\n      dup2\n        /* \"#utility.yul\":7297:7428   */\n      tag_135\n      jump\t// in\n    tag_163:\n        /* \"#utility.yul\":7289:7428   */\n      swap1\n      pop\n        /* \"#utility.yul\":7016:7435   */\n      swap2\n      swap1\n      pop\n      jump\t// out\n        /* \"#utility.yul\":7441:7970   */\n    tag_50:\n        /* \"#utility.yul\":7635:7639   */\n      0x00\n        /* \"#utility.yul\":7673:7675   */\n      0x40\n        /* \"#utility.yul\":7662:7671   */\n      dup3\n        /* \"#utility.yul\":7658:7676   */\n      add\n        /* \"#utility.yul\":7650:7676   */\n      swap1\n      pop\n        /* \"#utility.yul\":7722:7731   */\n      dup2\n        /* \"#utility.yul\":7716:7720   */\n      dup2\n        /* \"#utility.yul\":7712:7732   */\n      sub\n        /* \"#utility.yul\":7708:7709   */\n      0x00\n        /* \"#utility.yul\":7697:7706   */\n      dup4\n        /* \"#utility.yul\":7693:7710   */\n      add\n        /* \"#utility.yul\":7686:7733   */\n      mstore\n        /* \"#utility.yul\":7750:7881   */\n      tag_165\n        /* \"#utility.yul\":7876:7880   */\n      dup2\n        /* \"#utility.yul\":7750:7881   */\n      tag_141\n      jump\t// in\n    tag_165:\n        /* \"#utility.yul\":7742:7881   */\n      swap1\n      pop\n        /* \"#utility.yul\":7891:7963   */\n      tag_166\n        /* \"#utility.yul\":7959:7961   */\n      0x20\n        /* \"#utility.yul\":7948:7957   */\n      dup4\n        /* \"#utility.yul\":7944:7962   */\n      add\n        /* \"#utility.yul\":7935:7941   */\n      dup5\n        /* \"#utility.yul\":7891:7963   */\n      tag_103\n      jump\t// in\n    tag_166:\n        /* \"#utility.yul\":7441:7970   */\n      swap3\n      swap2\n      pop\n      pop\n      jump\t// out\n        /* \"#utility.yul\":7976:8357   */\n    tag_10:\n        /* \"#utility.yul\":8123:8127   */\n      0x00\n        /* \"#utility.yul\":8161:8163   */\n      0x20\n        /* \"#utility.yul\":8150:8159   */\n      dup3\n        /* \"#utility.yul\":8146:8164   */\n      add\n        /* \"#utility.yul\":8138:8164   */\n      swap1\n      pop\n        /* \"#utility.yul\":8210:8219   */\n      dup2\n        /* \"#utility.yul\":8204:8208   */\n      dup2\n        /* \"#utility.yul\":8200:8220   */\n      sub\n        /* \"#utility.yul\":8196:8197   */\n      0x00\n        /* \"#utility.yul\":8185:8194   */\n      dup4\n        /* \"#utility.yul\":8181:8198   */\n      add\n        /* \"#utility.yul\":8174:8221   */\n      mstore\n        /* \"#utility.yul\":8238:8350   */\n      tag_168\n        /* \"#utility.yul\":8345:8349   */\n      dup2\n        /* \"#utility.yul\":8336:8342   */\n      dup5\n        /* \"#utility.yul\":8238:8350   */\n      tag_146\n      jump\t// in\n    tag_168:\n        /* \"#utility.yul\":8230:8350   */\n      swap1\n      pop\n        /* \"#utility.yul\":7976:8357   */\n      swap3\n      swap2\n      pop\n      pop\n      jump\t// out\n        /* \"#utility.yul\":8363:8492   */\n    tag_71:\n        /* \"#utility.yul\":8397:8403   */\n      0x00\n        /* \"#utility.yul\":8424:8444   */\n      tag_170\n      tag_171\n      jump\t// in\n    tag_170:\n        /* \"#utility.yul\":8414:8444   */\n      swap1\n      pop\n        /* \"#utility.yul\":8453:8486   */\n      tag_172\n        /* \"#utility.yul\":8481:8485   */\n      dup3\n        /* \"#utility.yul\":8473:8479   */\n      dup3\n        /* \"#utility.yul\":8453:8486   */\n      tag_173\n      jump\t// in\n    tag_172:\n        /* \"#utility.yul\":8363:8492   */\n      swap2\n      swap1\n      pop\n      jump\t// out\n        /* \"#utility.yul\":8498:8573   */\n    tag_171:\n        /* \"#utility.yul\":8531:8537   */\n      0x00\n        /* \"#utility.yul\":8564:8566   */\n      0x40\n        /* \"#utility.yul\":8558:8567   */\n      mload\n        /* \"#utility.yul\":8548:8567   */\n      swap1\n      pop\n        /* \"#utility.yul\":8498:8573   */\n      swap1\n      jump\t// out\n        /* \"#utility.yul\":8579:8887   */\n    tag_70:\n        /* \"#utility.yul\":8641:8645   */\n      0x00\n        /* \"#utility.yul\":8731:8749   */\n      0xffffffffffffffff\n        /* \"#utility.yul\":8723:8729   */\n      dup3\n        /* \"#utility.yul\":8720:8750   */\n      gt\n        /* \"#utility.yul\":8717:8773   */\n      iszero\n      tag_176\n      jumpi\n        /* \"#utility.yul\":8753:8771   */\n      tag_177\n      tag_178\n      jump\t// in\n    tag_177:\n        /* \"#utility.yul\":8717:8773   */\n    tag_176:\n        /* \"#utility.yul\":8791:8820   */\n      tag_179\n        /* \"#utility.yul\":8813:8819   */\n      dup3\n        /* \"#utility.yul\":8791:8820   */\n      tag_116\n      jump\t// in\n    tag_179:\n        /* \"#utility.yul\":8783:8820   */\n      swap1\n      pop\n        /* \"#utility.yul\":8875:8879   */\n      0x20\n        /* \"#utility.yul\":8869:8873   */\n      dup2\n        /* \"#utility.yul\":8865:8880   */\n      add\n        /* \"#utility.yul\":8857:8880   */\n      swap1\n      pop\n        /* \"#utility.yul\":8579:8887   */\n      swap2\n      swap1\n      pop\n      jump\t// out\n        /* \"#utility.yul\":8893:9034   */\n    tag_131:\n        /* \"#utility.yul\":8942:8946   */\n      0x00\n        /* \"#utility.yul\":8965:8968   */\n      dup2\n        /* \"#utility.yul\":8957:8968   */\n      swap1\n      pop\n        /* \"#utility.yul\":8988:8991   */\n      dup2\n        /* \"#utility.yul\":8985:8986   */\n      0x00\n        /* \"#utility.yul\":8978:8992   */\n      mstore\n        /* \"#utility.yul\":9022:9026   */\n      0x20\n        /* \"#utility.yul\":9019:9020   */\n      0x00\n        /* \"#utility.yul\":9009:9027   */\n      keccak256\n        /* \"#utility.yul\":9001:9027   */\n      swap1\n      pop\n        /* \"#utility.yul\":8893:9034   */\n      swap2\n      swap1\n      pop\n      jump\t// out\n        /* \"#utility.yul\":9040:9139   */\n    tag_110:\n        /* \"#utility.yul\":9092:9098   */\n      0x00\n        /* \"#utility.yul\":9126:9131   */\n      dup2\n        /* \"#utility.yul\":9120:9132   */\n      mload\n        /* \"#utility.yul\":9110:9132   */\n      swap1\n      pop\n        /* \"#utility.yul\":9040:9139   */\n      swap2\n      swap1\n      pop\n      jump\t// out\n        /* \"#utility.yul\":9145:9304   */\n    tag_112:\n        /* \"#utility.yul\":9219:9230   */\n      0x00\n        /* \"#utility.yul\":9253:9259   */\n      dup3\n        /* \"#utility.yul\":9248:9251   */\n      dup3\n        /* \"#utility.yul\":9241:9260   */\n      mstore\n        /* \"#utility.yul\":9293:9297   */\n      0x20\n        /* \"#utility.yul\":9288:9291   */\n      dup3\n        /* \"#utility.yul\":9284:9298   */\n      add\n        /* \"#utility.yul\":9269:9298   */\n      swap1\n      pop\n        /* \"#utility.yul\":9145:9304   */\n      swap3\n      swap2\n      pop\n      pop\n      jump\t// out\n        /* \"#utility.yul\":9310:9479   */\n    tag_138:\n        /* \"#utility.yul\":9394:9405   */\n      0x00\n        /* \"#utility.yul\":9428:9434   */\n      dup3\n        /* \"#utility.yul\":9423:9426   */\n      dup3\n        /* \"#utility.yul\":9416:9435   */\n      mstore\n        /* \"#utility.yul\":9468:9472   */\n      0x20\n        /* \"#utility.yul\":9463:9466   */\n      dup3\n        /* \"#utility.yul\":9459:9473   */\n      add\n        /* \"#utility.yul\":9444:9473   */\n      swap1\n      pop\n        /* \"#utility.yul\":9310:9479   */\n      swap3\n      swap2\n      pop\n      pop\n      jump\t// out\n        /* \"#utility.yul\":9485:9633   */\n    tag_121:\n        /* \"#utility.yul\":9587:9598   */\n      0x00\n        /* \"#utility.yul\":9624:9627   */\n      dup2\n        /* \"#utility.yul\":9609:9627   */\n      swap1\n      pop\n        /* \"#utility.yul\":9485:9633   */\n      swap3\n      swap2\n      pop\n      pop\n      jump\t// out\n        /* \"#utility.yul\":9639:9716   */\n    tag_106:\n        /* \"#utility.yul\":9676:9683   */\n      0x00\n        /* \"#utility.yul\":9705:9710   */\n      dup2\n        /* \"#utility.yul\":9694:9710   */\n      swap1\n      pop\n        /* \"#utility.yul\":9639:9716   */\n      swap2\n      swap1\n      pop\n      jump\t// out\n        /* \"#utility.yul\":9722:9799   */\n    tag_155:\n        /* \"#utility.yul\":9759:9766   */\n      0x00\n        /* \"#utility.yul\":9788:9793   */\n      dup2\n        /* \"#utility.yul\":9777:9793   */\n      swap1\n      pop\n        /* \"#utility.yul\":9722:9799   */\n      swap2\n      swap1\n      pop\n      jump\t// out\n        /* \"#utility.yul\":9805:9959   */\n    tag_76:\n        /* \"#utility.yul\":9889:9895   */\n      dup3\n        /* \"#utility.yul\":9884:9887   */\n      dup2\n        /* \"#utility.yul\":9879:9882   */\n      dup4\n        /* \"#utility.yul\":9866:9896   */\n      calldatacopy\n        /* \"#utility.yul\":9951:9952   */\n      0x00\n        /* \"#utility.yul\":9942:9948   */\n      dup4\n        /* \"#utility.yul\":9937:9940   */\n      dup4\n        /* \"#utility.yul\":9933:9949   */\n      add\n        /* \"#utility.yul\":9926:9953   */\n      mstore\n        /* \"#utility.yul\":9805:9959   */\n      pop\n      pop\n      pop\n      jump\t// out\n        /* \"#utility.yul\":9965:10272   */\n    tag_114:\n        /* \"#utility.yul\":10033:10034   */\n      0x00\n        /* \"#utility.yul\":10043:10156   */\n    tag_189:\n        /* \"#utility.yul\":10057:10063   */\n      dup4\n        /* \"#utility.yul\":10054:10055   */\n      dup2\n        /* \"#utility.yul\":10051:10064   */\n      lt\n        /* \"#utility.yul\":10043:10156   */\n      iszero\n      tag_191\n      jumpi\n        /* \"#utility.yul\":10142:10143   */\n      dup1\n        /* \"#utility.yul\":10137:10140   */\n      dup3\n        /* \"#utility.yul\":10133:10144   */\n      add\n        /* \"#utility.yul\":10127:10145   */\n      mload\n        /* \"#utility.yul\":10123:10124   */\n      dup2\n        /* \"#utility.yul\":10118:10121   */\n      dup5\n        /* \"#utility.yul\":10114:10125   */\n      add\n        /* \"#utility.yul\":10107:10146   */\n      mstore\n        /* \"#utility.yul\":10079:10081   */\n      0x20\n        /* \"#utility.yul\":10076:10077   */\n      dup2\n        /* \"#utility.yul\":10072:10082   */\n      add\n        /* \"#utility.yul\":10067:10082   */\n      swap1\n      pop\n        /* \"#utility.yul\":10043:10156   */\n      jump(tag_189)\n    tag_191:\n        /* \"#utility.yul\":10174:10180   */\n      dup4\n        /* \"#utility.yul\":10171:10172   */\n      dup2\n        /* \"#utility.yul\":10168:10181   */\n      gt\n        /* \"#utility.yul\":10165:10266   */\n      iszero\n      tag_192\n      jumpi\n        /* \"#utility.yul\":10254:10255   */\n      0x00\n        /* \"#utility.yul\":10245:10251   */\n      dup5\n        /* \"#utility.yul\":10240:10243   */\n      dup5\n        /* \"#utility.yul\":10236:10252   */\n      add\n        /* \"#utility.yul\":10229:10256   */\n      mstore\n        /* \"#utility.yul\":10165:10266   */\n    tag_192:\n        /* \"#utility.yul\":10014:10272   */\n      pop\n        /* \"#utility.yul\":9965:10272   */\n      pop\n      pop\n      pop\n      jump\t// out\n        /* \"#utility.yul\":10278:10598   */\n    tag_23:\n        /* \"#utility.yul\":10322:10328   */\n      0x00\n        /* \"#utility.yul\":10359:10360   */\n      0x02\n        /* \"#utility.yul\":10353:10357   */\n      dup3\n        /* \"#utility.yul\":10349:10361   */\n      div\n        /* \"#utility.yul\":10339:10361   */\n      swap1\n      pop\n        /* \"#utility.yul\":10406:10407   */\n      0x01\n        /* \"#utility.yul\":10400:10404   */\n      dup3\n        /* \"#utility.yul\":10396:10408   */\n      and\n        /* \"#utility.yul\":10427:10445   */\n      dup1\n        /* \"#utility.yul\":10417:10498   */\n      tag_194\n      jumpi\n        /* \"#utility.yul\":10483:10487   */\n      0x7f\n        /* \"#utility.yul\":10475:10481   */\n      dup3\n        /* \"#utility.yul\":10471:10488   */\n      and\n        /* \"#utility.yul\":10461:10488   */\n      swap2\n      pop\n        /* \"#utility.yul\":10417:10498   */\n    tag_194:\n        /* \"#utility.yul\":10545:10547   */\n      0x20\n        /* \"#utility.yul\":10537:10543   */\n      dup3\n        /* \"#utility.yul\":10534:10548   */\n      lt\n        /* \"#utility.yul\":10514:10532   */\n      dup2\n        /* \"#utility.yul\":10511:10549   */\n      eq\n        /* \"#utility.yul\":10508:10592   */\n      iszero\n      tag_195\n      jumpi\n        /* \"#utility.yul\":10564:10582   */\n      tag_196\n      tag_197\n      jump\t// in\n    tag_196:\n        /* \"#utility.yul\":10508:10592   */\n    tag_195:\n        /* \"#utility.yul\":10329:10598   */\n      pop\n        /* \"#utility.yul\":10278:10598   */\n      swap2\n      swap1\n      pop\n      jump\t// out\n        /* \"#utility.yul\":10604:10885   */\n    tag_173:\n        /* \"#utility.yul\":10687:10714   */\n      tag_199\n        /* \"#utility.yul\":10709:10713   */\n      dup3\n        /* \"#utility.yul\":10687:10714   */\n      tag_116\n      jump\t// in\n    tag_199:\n        /* \"#utility.yul\":10679:10685   */\n      dup2\n        /* \"#utility.yul\":10675:10715   */\n      add\n        /* \"#utility.yul\":10817:10823   */\n      dup2\n        /* \"#utility.yul\":10805:10815   */\n      dup2\n        /* \"#utility.yul\":10802:10824   */\n      lt\n        /* \"#utility.yul\":10781:10799   */\n      0xffffffffffffffff\n        /* \"#utility.yul\":10769:10779   */\n      dup3\n        /* \"#utility.yul\":10766:10800   */\n      gt\n        /* \"#utility.yul\":10763:10825   */\n      or\n        /* \"#utility.yul\":10760:10848   */\n      iszero\n      tag_200\n      jumpi\n        /* \"#utility.yul\":10828:10846   */\n      tag_201\n      tag_178\n      jump\t// in\n    tag_201:\n        /* \"#utility.yul\":10760:10848   */\n    tag_200:\n        /* \"#utility.yul\":10868:10878   */\n      dup1\n        /* \"#utility.yul\":10864:10866   */\n      0x40\n        /* \"#utility.yul\":10857:10879   */\n      mstore\n        /* \"#utility.yul\":10647:10885   */\n      pop\n        /* \"#utility.yul\":10604:10885   */\n      pop\n      pop\n      jump\t// out\n        /* \"#utility.yul\":10891:11071   */\n    tag_197:\n        /* \"#utility.yul\":10939:11016   */\n      0x4e487b7100000000000000000000000000000000000000000000000000000000\n        /* \"#utility.yul\":10936:10937   */\n      0x00\n        /* \"#utility.yul\":10929:11017   */\n      mstore\n        /* \"#utility.yul\":11036:11040   */\n      0x22\n        /* \"#utility.yul\":11033:11034   */\n      0x04\n        /* \"#utility.yul\":11026:11041   */\n      mstore\n        /* \"#utility.yul\":11060:11064   */\n      0x24\n        /* \"#utility.yul\":11057:11058   */\n      0x00\n        /* \"#utility.yul\":11050:11065   */\n      revert\n        /* \"#utility.yul\":11077:11257   */\n    tag_178:\n        /* \"#utility.yul\":11125:11202   */\n      0x4e487b7100000000000000000000000000000000000000000000000000000000\n        /* \"#utility.yul\":11122:11123   */\n      0x00\n        /* \"#utility.yul\":11115:11203   */\n      mstore\n        /* \"#utility.yul\":11222:11226   */\n      0x41\n        /* \"#utility.yul\":11219:11220   */\n      0x04\n        /* \"#utility.yul\":11212:11227   */\n      mstore\n        /* \"#utility.yul\":11246:11250   */\n      0x24\n        /* \"#utility.yul\":11243:11244   */\n      0x00\n        /* \"#utility.yul\":11236:11251   */\n      revert\n        /* \"#utility.yul\":11263:11380   */\n    tag_81:\n        /* \"#utility.yul\":11372:11373   */\n      0x00\n        /* \"#utility.yul\":11369:11370   */\n      dup1\n        /* \"#utility.yul\":11362:11374   */\n      revert\n        /* \"#utility.yul\":11386:11503   */\n    tag_74:\n        /* \"#utility.yul\":11495:11496   */\n      0x00\n        /* \"#utility.yul\":11492:11493   */\n      dup1\n        /* \"#utility.yul\":11485:11497   */\n      revert\n        /* \"#utility.yul\":11509:11626   */\n    tag_89:\n        /* \"#utility.yul\":11618:11619   */\n      0x00\n        /* \"#utility.yul\":11615:11616   */\n      dup1\n        /* \"#utility.yul\":11608:11620   */\n      revert\n        /* \"#utility.yul\":11632:11749   */\n    tag_86:\n        /* \"#utility.yul\":11741:11742   */\n      0x00\n        /* \"#utility.yul\":11738:11739   */\n      dup1\n        /* \"#utility.yul\":11731:11743   */\n      revert\n        /* \"#utility.yul\":11755:11857   */\n    tag_116:\n        /* \"#utility.yul\":11796:11802   */\n      0x00\n        /* \"#utility.yul\":11847:11849   */\n      0x1f\n        /* \"#utility.yul\":11843:11850   */\n      not\n        /* \"#utility.yul\":11838:11840   */\n      0x1f\n        /* \"#utility.yul\":11831:11836   */\n      dup4\n        /* \"#utility.yul\":11827:11841   */\n      add\n        /* \"#utility.yul\":11823:11851   */\n      and\n        /* \"#utility.yul\":11813:11851   */\n      swap1\n      pop\n        /* \"#utility.yul\":11755:11857   */\n      swap2\n      swap1\n      pop\n      jump\t// out\n        /* \"#utility.yul\":11863:12037   */\n    tag_140:\n        /* \"#utility.yul\":12003:12029   */\n      0x4163636f756e7420616c7265616479206578697374696e670000000000000000\n        /* \"#utility.yul\":11999:12000   */\n      0x00\n        /* \"#utility.yul\":11991:11997   */\n      dup3\n        /* \"#utility.yul\":11987:12001   */\n      add\n        /* \"#utility.yul\":11980:12030   */\n      mstore\n        /* \"#utility.yul\":11863:12037   */\n      pop\n      jump\t// out\n        /* \"#utility.yul\":12043:12200   */\n    tag_145:\n        /* \"#utility.yul\":12183:12192   */\n      0x7375636365737300000000000000000000000000000000000000000000000000\n        /* \"#utility.yul\":12179:12180   */\n      0x00\n        /* \"#utility.yul\":12171:12177   */\n      dup3\n        /* \"#utility.yul\":12167:12181   */\n      add\n        /* \"#utility.yul\":12160:12193   */\n      mstore\n        /* \"#utility.yul\":12043:12200   */\n      pop\n      jump\t// out\n\n    auxdata: 0xa2646970667358221220b6c7b66f5a5e2e621e88aeaefff2f71ab4d63f9d8cba8049e29c87668286763364736f6c63430008070033\n}\n",
				"bytecode": {
					"linkReferences": {},
					"object": "608060405234801561001057600080fd5b50610b4c806100206000396000f3fe608060405234801561001057600080fd5b50600436106100365760003560e01c8063174ba7ff1461003b578063b24c908a1461006b575b600080fd5b6100556004803603810190610050919061057e565b61009b565b60405161006291906108c3565b60405180910390f35b610085600480360381019061008091906105c7565b6102b3565b604051610092919061085a565b60405180910390f35b6100a3610443565b6000826040516020016100b6919061082c565b6040516020818303038152906040528051906020012090506000808281526020019081526020016000206040518060800160405290816000820180546100fb906109de565b80601f0160208091040260200160405190810160405280929190818152602001828054610127906109de565b80156101745780601f1061014957610100808354040283529160200191610174565b820191906000526020600020905b81548152906001019060200180831161015757829003601f168201915b5050505050815260200160018201805461018d906109de565b80601f01602080910402602001604051908101604052809291908181526020018280546101b9906109de565b80156102065780601f106101db57610100808354040283529160200191610206565b820191906000526020600020905b8154815290600101906020018083116101e957829003601f168201915b5050505050815260200160028201805461021f906109de565b80601f016020809104026020016040519081016040528092919081815260200182805461024b906109de565b80156102985780601f1061026d57610100808354040283529160200191610298565b820191906000526020600020905b81548152906001019060200180831161027b57829003601f168201915b50505050508152602001600382015481525050915050919050565b600080846040516020016102c7919061082c565b6040516020818303038152906040528051906020012090506102e981866103d5565b610328576040517f08c379a000000000000000000000000000000000000000000000000000000000815260040161031f90610875565b60405180910390fd5b600080600083815260200190815260200160002090508581600001908051906020019061035692919061046b565b508481600101908051906020019061036f92919061046b565b508381600201908051906020019061038892919061046b565b504281600301819055507fc8922d91fbabbe8df5d667708c678575856a856a2a465ebd9626a40ab6a16f5f826040516103c19190610895565b60405180910390a181925050509392505050565b6000816040516020016103e8919061082c565b604051602081830303815290604052805190602001206000808581526020019081526020016000206000016040516020016104239190610843565b604051602081830303815290604052805190602001201415905092915050565b6040518060800160405280606081526020016060815260200160608152602001600081525090565b828054610477906109de565b90600052602060002090601f01602090048101928261049957600085556104e0565b82601f106104b257805160ff19168380011785556104e0565b828001600101855582156104e0579182015b828111156104df5782518255916020019190600101906104c4565b5b5090506104ed91906104f1565b5090565b5b8082111561050a5760008160009055506001016104f2565b5090565b600061052161051c8461090a565b6108e5565b90508281526020810184848401111561053d5761053c610aa4565b5b61054884828561099c565b509392505050565b600082601f83011261056557610564610a9f565b5b813561057584826020860161050e565b91505092915050565b60006020828403121561059457610593610aae565b5b600082013567ffffffffffffffff8111156105b2576105b1610aa9565b5b6105be84828501610550565b91505092915050565b6000806000606084860312156105e0576105df610aae565b5b600084013567ffffffffffffffff8111156105fe576105fd610aa9565b5b61060a86828701610550565b935050602084013567ffffffffffffffff81111561062b5761062a610aa9565b5b61063786828701610550565b925050604084013567ffffffffffffffff81111561065857610657610aa9565b5b61066486828701610550565b9150509250925092565b61067781610988565b82525050565b600061068882610950565b610692818561095b565b93506106a28185602086016109ab565b6106ab81610ab3565b840191505092915050565b60006106c182610950565b6106cb818561097d565b93506106db8185602086016109ab565b80840191505092915050565b600081546106f4816109de565b6106fe818661097d565b94506001821660008114610719576001811461072a5761075d565b60ff1983168652818601935061075d565b6107338561093b565b60005b8381101561075557815481890152600182019150602081019050610736565b838801955050505b50505092915050565b600061077360188361096c565b915061077e82610ac4565b602082019050919050565b600061079660078361096c565b91506107a182610aed565b602082019050919050565b600060808301600083015184820360008601526107c9828261067d565b915050602083015184820360208601526107e3828261067d565b915050604083015184820360408601526107fd828261067d565b9150506060830151610812606086018261081d565b508091505092915050565b61082681610992565b82525050565b600061083882846106b6565b915081905092915050565b600061084f82846106e7565b915081905092915050565b600060208201905061086f600083018461066e565b92915050565b6000602082019050818103600083015261088e81610766565b9050919050565b600060408201905081810360008301526108ae81610789565b90506108bd602083018461066e565b92915050565b600060208201905081810360008301526108dd81846107ac565b905092915050565b60006108ef610900565b90506108fb8282610a10565b919050565b6000604051905090565b600067ffffffffffffffff82111561092557610924610a70565b5b61092e82610ab3565b9050602081019050919050565b60008190508160005260206000209050919050565b600081519050919050565b600082825260208201905092915050565b600082825260208201905092915050565b600081905092915050565b6000819050919050565b6000819050919050565b82818337600083830152505050565b60005b838110156109c95780820151818401526020810190506109ae565b838111156109d8576000848401525b50505050565b600060028204905060018216806109f657607f821691505b60208210811415610a0a57610a09610a41565b5b50919050565b610a1982610ab3565b810181811067ffffffffffffffff82111715610a3857610a37610a70565b5b80604052505050565b7f4e487b7100000000000000000000000000000000000000000000000000000000600052602260045260246000fd5b7f4e487b7100000000000000000000000000000000000000000000000000000000600052604160045260246000fd5b600080fd5b600080fd5b600080fd5b600080fd5b6000601f19601f8301169050919050565b7f4163636f756e7420616c7265616479206578697374696e670000000000000000600082015250565b7f737563636573730000000000000000000000000000000000000000000000000060008201525056fea2646970667358221220b6c7b66f5a5e2e621e88aeaefff2f71ab4d63f9d8cba8049e29c87668286763364736f6c63430008070033",
					"opcodes": "PUSH1 0x80 PUSH1 0x40 MSTORE CALLVALUE DUP1 ISZERO PUSH2 0x10 JUMPI PUSH1 0x0 DUP1 REVERT JUMPDEST POP PUSH2 0xB4C DUP1 PUSH2 0x20 PUSH1 0x0 CODECOPY PUSH1 0x0 RETURN INVALID PUSH1 0x80 PUSH1 0x40 MSTORE CALLVALUE DUP1 ISZERO PUSH2 0x10 JUMPI PUSH1 0x0 DUP1 REVERT JUMPDEST POP PUSH1 0x4 CALLDATASIZE LT PUSH2 0x36 JUMPI PUSH1 0x0 CALLDATALOAD PUSH1 0xE0 SHR DUP1 PUSH4 0x174BA7FF EQ PUSH2 0x3B JUMPI DUP1 PUSH4 0xB24C908A EQ PUSH2 0x6B JUMPI JUMPDEST PUSH1 0x0 DUP1 REVERT JUMPDEST PUSH2 0x55 PUSH1 0x4 DUP1 CALLDATASIZE SUB DUP2 ADD SWAP1 PUSH2 0x50 SWAP2 SWAP1 PUSH2 0x57E JUMP JUMPDEST PUSH2 0x9B JUMP JUMPDEST PUSH1 0x40 MLOAD PUSH2 0x62 SWAP2 SWAP1 PUSH2 0x8C3 JUMP JUMPDEST PUSH1 0x40 MLOAD DUP1 SWAP2 SUB SWAP1 RETURN JUMPDEST PUSH2 0x85 PUSH1 0x4 DUP1 CALLDATASIZE SUB DUP2 ADD SWAP1 PUSH2 0x80 SWAP2 SWAP1 PUSH2 0x5C7 JUMP JUMPDEST PUSH2 0x2B3 JUMP JUMPDEST PUSH1 0x40 MLOAD PUSH2 0x92 SWAP2 SWAP1 PUSH2 0x85A JUMP JUMPDEST PUSH1 0x40 MLOAD DUP1 SWAP2 SUB SWAP1 RETURN JUMPDEST PUSH2 0xA3 PUSH2 0x443 JUMP JUMPDEST PUSH1 0x0 DUP3 PUSH1 0x40 MLOAD PUSH1 0x20 ADD PUSH2 0xB6 SWAP2 SWAP1 PUSH2 0x82C JUMP JUMPDEST PUSH1 0x40 MLOAD PUSH1 0x20 DUP2 DUP4 SUB SUB DUP2 MSTORE SWAP1 PUSH1 0x40 MSTORE DUP1 MLOAD SWAP1 PUSH1 0x20 ADD KECCAK256 SWAP1 POP PUSH1 0x0 DUP1 DUP3 DUP2 MSTORE PUSH1 0x20 ADD SWAP1 DUP2 MSTORE PUSH1 0x20 ADD PUSH1 0x0 KECCAK256 PUSH1 0x40 MLOAD DUP1 PUSH1 0x80 ADD PUSH1 0x40 MSTORE SWAP1 DUP2 PUSH1 0x0 DUP3 ADD DUP1 SLOAD PUSH2 0xFB SWAP1 PUSH2 0x9DE JUMP JUMPDEST DUP1 PUSH1 0x1F ADD PUSH1 0x20 DUP1 SWAP2 DIV MUL PUSH1 0x20 ADD PUSH1 0x40 MLOAD SWAP1 DUP2 ADD PUSH1 0x40 MSTORE DUP1 SWAP3 SWAP2 SWAP1 DUP2 DUP2 MSTORE PUSH1 0x20 ADD DUP3 DUP1 SLOAD PUSH2 0x127 SWAP1 PUSH2 0x9DE JUMP JUMPDEST DUP1 ISZERO PUSH2 0x174 JUMPI DUP1 PUSH1 0x1F LT PUSH2 0x149 JUMPI PUSH2 0x100 DUP1 DUP4 SLOAD DIV MUL DUP4 MSTORE SWAP2 PUSH1 0x20 ADD SWAP2 PUSH2 0x174 JUMP JUMPDEST DUP3 ADD SWAP2 SWAP1 PUSH1 0x0 MSTORE PUSH1 0x20 PUSH1 0x0 KECCAK256 SWAP1 JUMPDEST DUP2 SLOAD DUP2 MSTORE SWAP1 PUSH1 0x1 ADD SWAP1 PUSH1 0x20 ADD DUP1 DUP4 GT PUSH2 0x157 JUMPI DUP3 SWAP1 SUB PUSH1 0x1F AND DUP3 ADD SWAP2 JUMPDEST POP POP POP POP POP DUP2 MSTORE PUSH1 0x20 ADD PUSH1 0x1 DUP3 ADD DUP1 SLOAD PUSH2 0x18D SWAP1 PUSH2 0x9DE JUMP JUMPDEST DUP1 PUSH1 0x1F ADD PUSH1 0x20 DUP1 SWAP2 DIV MUL PUSH1 0x20 ADD PUSH1 0x40 MLOAD SWAP1 DUP2 ADD PUSH1 0x40 MSTORE DUP1 SWAP3 SWAP2 SWAP1 DUP2 DUP2 MSTORE PUSH1 0x20 ADD DUP3 DUP1 SLOAD PUSH2 0x1B9 SWAP1 PUSH2 0x9DE JUMP JUMPDEST DUP1 ISZERO PUSH2 0x206 JUMPI DUP1 PUSH1 0x1F LT PUSH2 0x1DB JUMPI PUSH2 0x100 DUP1 DUP4 SLOAD DIV MUL DUP4 MSTORE SWAP2 PUSH1 0x20 ADD SWAP2 PUSH2 0x206 JUMP JUMPDEST DUP3 ADD SWAP2 SWAP1 PUSH1 0x0 MSTORE PUSH1 0x20 PUSH1 0x0 KECCAK256 SWAP1 JUMPDEST DUP2 SLOAD DUP2 MSTORE SWAP1 PUSH1 0x1 ADD SWAP1 PUSH1 0x20 ADD DUP1 DUP4 GT PUSH2 0x1E9 JUMPI DUP3 SWAP1 SUB PUSH1 0x1F AND DUP3 ADD SWAP2 JUMPDEST POP POP POP POP POP DUP2 MSTORE PUSH1 0x20 ADD PUSH1 0x2 DUP3 ADD DUP1 SLOAD PUSH2 0x21F SWAP1 PUSH2 0x9DE JUMP JUMPDEST DUP1 PUSH1 0x1F ADD PUSH1 0x20 DUP1 SWAP2 DIV MUL PUSH1 0x20 ADD PUSH1 0x40 MLOAD SWAP1 DUP2 ADD PUSH1 0x40 MSTORE DUP1 SWAP3 SWAP2 SWAP1 DUP2 DUP2 MSTORE PUSH1 0x20 ADD DUP3 DUP1 SLOAD PUSH2 0x24B SWAP1 PUSH2 0x9DE JUMP JUMPDEST DUP1 ISZERO PUSH2 0x298 JUMPI DUP1 PUSH1 0x1F LT PUSH2 0x26D JUMPI PUSH2 0x100 DUP1 DUP4 SLOAD DIV MUL DUP4 MSTORE SWAP2 PUSH1 0x20 ADD SWAP2 PUSH2 0x298 JUMP JUMPDEST DUP3 ADD SWAP2 SWAP1 PUSH1 0x0 MSTORE PUSH1 0x20 PUSH1 0x0 KECCAK256 SWAP1 JUMPDEST DUP2 SLOAD DUP2 MSTORE SWAP1 PUSH1 0x1 ADD SWAP1 PUSH1 0x20 ADD DUP1 DUP4 GT PUSH2 0x27B JUMPI DUP3 SWAP1 SUB PUSH1 0x1F AND DUP3 ADD SWAP2 JUMPDEST POP POP POP POP POP DUP2 MSTORE PUSH1 0x20 ADD PUSH1 0x3 DUP3 ADD SLOAD DUP2 MSTORE POP POP SWAP2 POP POP SWAP2 SWAP1 POP JUMP JUMPDEST PUSH1 0x0 DUP1 DUP5 PUSH1 0x40 MLOAD PUSH1 0x20 ADD PUSH2 0x2C7 SWAP2 SWAP1 PUSH2 0x82C JUMP JUMPDEST PUSH1 0x40 MLOAD PUSH1 0x20 DUP2 DUP4 SUB SUB DUP2 MSTORE SWAP1 PUSH1 0x40 MSTORE DUP1 MLOAD SWAP1 PUSH1 0x20 ADD KECCAK256 SWAP1 POP PUSH2 0x2E9 DUP2 DUP7 PUSH2 0x3D5 JUMP JUMPDEST PUSH2 0x328 JUMPI PUSH1 0x40 MLOAD PUSH32 0x8C379A000000000000000000000000000000000000000000000000000000000 DUP2 MSTORE PUSH1 0x4 ADD PUSH2 0x31F SWAP1 PUSH2 0x875 JUMP JUMPDEST PUSH1 0x40 MLOAD DUP1 SWAP2 SUB SWAP1 REVERT JUMPDEST PUSH1 0x0 DUP1 PUSH1 0x0 DUP4 DUP2 MSTORE PUSH1 0x20 ADD SWAP1 DUP2 MSTORE PUSH1 0x20 ADD PUSH1 0x0 KECCAK256 SWAP1 POP DUP6 DUP2 PUSH1 0x0 ADD SWAP1 DUP1 MLOAD SWAP1 PUSH1 0x20 ADD SWAP1 PUSH2 0x356 SWAP3 SWAP2 SWAP1 PUSH2 0x46B JUMP JUMPDEST POP DUP5 DUP2 PUSH1 0x1 ADD SWAP1 DUP1 MLOAD SWAP1 PUSH1 0x20 ADD SWAP1 PUSH2 0x36F SWAP3 SWAP2 SWAP1 PUSH2 0x46B JUMP JUMPDEST POP DUP4 DUP2 PUSH1 0x2 ADD SWAP1 DUP1 MLOAD SWAP1 PUSH1 0x20 ADD SWAP1 PUSH2 0x388 SWAP3 SWAP2 SWAP1 PUSH2 0x46B JUMP JUMPDEST POP TIMESTAMP DUP2 PUSH1 0x3 ADD DUP2 SWAP1 SSTORE POP PUSH32 0xC8922D91FBABBE8DF5D667708C678575856A856A2A465EBD9626A40AB6A16F5F DUP3 PUSH1 0x40 MLOAD PUSH2 0x3C1 SWAP2 SWAP1 PUSH2 0x895 JUMP JUMPDEST PUSH1 0x40 MLOAD DUP1 SWAP2 SUB SWAP1 LOG1 DUP2 SWAP3 POP POP POP SWAP4 SWAP3 POP POP POP JUMP JUMPDEST PUSH1 0x0 DUP2 PUSH1 0x40 MLOAD PUSH1 0x20 ADD PUSH2 0x3E8 SWAP2 SWAP1 PUSH2 0x82C JUMP JUMPDEST PUSH1 0x40 MLOAD PUSH1 0x20 DUP2 DUP4 SUB SUB DUP2 MSTORE SWAP1 PUSH1 0x40 MSTORE DUP1 MLOAD SWAP1 PUSH1 0x20 ADD KECCAK256 PUSH1 0x0 DUP1 DUP6 DUP2 MSTORE PUSH1 0x20 ADD SWAP1 DUP2 MSTORE PUSH1 0x20 ADD PUSH1 0x0 KECCAK256 PUSH1 0x0 ADD PUSH1 0x40 MLOAD PUSH1 0x20 ADD PUSH2 0x423 SWAP2 SWAP1 PUSH2 0x843 JUMP JUMPDEST PUSH1 0x40 MLOAD PUSH1 0x20 DUP2 DUP4 SUB SUB DUP2 MSTORE SWAP1 PUSH1 0x40 MSTORE DUP1 MLOAD SWAP1 PUSH1 0x20 ADD KECCAK256 EQ ISZERO SWAP1 POP SWAP3 SWAP2 POP POP JUMP JUMPDEST PUSH1 0x40 MLOAD DUP1 PUSH1 0x80 ADD PUSH1 0x40 MSTORE DUP1 PUSH1 0x60 DUP2 MSTORE PUSH1 0x20 ADD PUSH1 0x60 DUP2 MSTORE PUSH1 0x20 ADD PUSH1 0x60 DUP2 MSTORE PUSH1 0x20 ADD PUSH1 0x0 DUP2 MSTORE POP SWAP1 JUMP JUMPDEST DUP3 DUP1 SLOAD PUSH2 0x477 SWAP1 PUSH2 0x9DE JUMP JUMPDEST SWAP1 PUSH1 0x0 MSTORE PUSH1 0x20 PUSH1 0x0 KECCAK256 SWAP1 PUSH1 0x1F ADD PUSH1 0x20 SWAP1 DIV DUP2 ADD SWAP3 DUP3 PUSH2 0x499 JUMPI PUSH1 0x0 DUP6 SSTORE PUSH2 0x4E0 JUMP JUMPDEST DUP3 PUSH1 0x1F LT PUSH2 0x4B2 JUMPI DUP1 MLOAD PUSH1 0xFF NOT AND DUP4 DUP1 ADD OR DUP6 SSTORE PUSH2 0x4E0 JUMP JUMPDEST DUP3 DUP1 ADD PUSH1 0x1 ADD DUP6 SSTORE DUP3 ISZERO PUSH2 0x4E0 JUMPI SWAP2 DUP3 ADD JUMPDEST DUP3 DUP2 GT ISZERO PUSH2 0x4DF JUMPI DUP3 MLOAD DUP3 SSTORE SWAP2 PUSH1 0x20 ADD SWAP2 SWAP1 PUSH1 0x1 ADD SWAP1 PUSH2 0x4C4 JUMP JUMPDEST JUMPDEST POP SWAP1 POP PUSH2 0x4ED SWAP2 SWAP1 PUSH2 0x4F1 JUMP JUMPDEST POP SWAP1 JUMP JUMPDEST JUMPDEST DUP1 DUP3 GT ISZERO PUSH2 0x50A JUMPI PUSH1 0x0 DUP2 PUSH1 0x0 SWAP1 SSTORE POP PUSH1 0x1 ADD PUSH2 0x4F2 JUMP JUMPDEST POP SWAP1 JUMP JUMPDEST PUSH1 0x0 PUSH2 0x521 PUSH2 0x51C DUP5 PUSH2 0x90A JUMP JUMPDEST PUSH2 0x8E5 JUMP JUMPDEST SWAP1 POP DUP3 DUP2 MSTORE PUSH1 0x20 DUP2 ADD DUP5 DUP5 DUP5 ADD GT ISZERO PUSH2 0x53D JUMPI PUSH2 0x53C PUSH2 0xAA4 JUMP JUMPDEST JUMPDEST PUSH2 0x548 DUP5 DUP3 DUP6 PUSH2 0x99C JUMP JUMPDEST POP SWAP4 SWAP3 POP POP POP JUMP JUMPDEST PUSH1 0x0 DUP3 PUSH1 0x1F DUP4 ADD SLT PUSH2 0x565 JUMPI PUSH2 0x564 PUSH2 0xA9F JUMP JUMPDEST JUMPDEST DUP2 CALLDATALOAD PUSH2 0x575 DUP5 DUP3 PUSH1 0x20 DUP7 ADD PUSH2 0x50E JUMP JUMPDEST SWAP2 POP POP SWAP3 SWAP2 POP POP JUMP JUMPDEST PUSH1 0x0 PUSH1 0x20 DUP3 DUP5 SUB SLT ISZERO PUSH2 0x594 JUMPI PUSH2 0x593 PUSH2 0xAAE JUMP JUMPDEST JUMPDEST PUSH1 0x0 DUP3 ADD CALLDATALOAD PUSH8 0xFFFFFFFFFFFFFFFF DUP2 GT ISZERO PUSH2 0x5B2 JUMPI PUSH2 0x5B1 PUSH2 0xAA9 JUMP JUMPDEST JUMPDEST PUSH2 0x5BE DUP5 DUP3 DUP6 ADD PUSH2 0x550 JUMP JUMPDEST SWAP2 POP POP SWAP3 SWAP2 POP POP JUMP JUMPDEST PUSH1 0x0 DUP1 PUSH1 0x0 PUSH1 0x60 DUP5 DUP7 SUB SLT ISZERO PUSH2 0x5E0 JUMPI PUSH2 0x5DF PUSH2 0xAAE JUMP JUMPDEST JUMPDEST PUSH1 0x0 DUP5 ADD CALLDATALOAD PUSH8 0xFFFFFFFFFFFFFFFF DUP2 GT ISZERO PUSH2 0x5FE JUMPI PUSH2 0x5FD PUSH2 0xAA9 JUMP JUMPDEST JUMPDEST PUSH2 0x60A DUP7 DUP3 DUP8 ADD PUSH2 0x550 JUMP JUMPDEST SWAP4 POP POP PUSH1 0x20 DUP5 ADD CALLDATALOAD PUSH8 0xFFFFFFFFFFFFFFFF DUP2 GT ISZERO PUSH2 0x62B JUMPI PUSH2 0x62A PUSH2 0xAA9 JUMP JUMPDEST JUMPDEST PUSH2 0x637 DUP7 DUP3 DUP8 ADD PUSH2 0x550 JUMP JUMPDEST SWAP3 POP POP PUSH1 0x40 DUP5 ADD CALLDATALOAD PUSH8 0xFFFFFFFFFFFFFFFF DUP2 GT ISZERO PUSH2 0x658 JUMPI PUSH2 0x657 PUSH2 0xAA9 JUMP JUMPDEST JUMPDEST PUSH2 0x664 DUP7 DUP3 DUP8 ADD PUSH2 0x550 JUMP JUMPDEST SWAP2 POP POP SWAP3 POP SWAP3 POP SWAP3 JUMP JUMPDEST PUSH2 0x677 DUP2 PUSH2 0x988 JUMP JUMPDEST DUP3 MSTORE POP POP JUMP JUMPDEST PUSH1 0x0 PUSH2 0x688 DUP3 PUSH2 0x950 JUMP JUMPDEST PUSH2 0x692 DUP2 DUP6 PUSH2 0x95B JUMP JUMPDEST SWAP4 POP PUSH2 0x6A2 DUP2 DUP6 PUSH1 0x20 DUP7 ADD PUSH2 0x9AB JUMP JUMPDEST PUSH2 0x6AB DUP2 PUSH2 0xAB3 JUMP JUMPDEST DUP5 ADD SWAP2 POP POP SWAP3 SWAP2 POP POP JUMP JUMPDEST PUSH1 0x0 PUSH2 0x6C1 DUP3 PUSH2 0x950 JUMP JUMPDEST PUSH2 0x6CB DUP2 DUP6 PUSH2 0x97D JUMP JUMPDEST SWAP4 POP PUSH2 0x6DB DUP2 DUP6 PUSH1 0x20 DUP7 ADD PUSH2 0x9AB JUMP JUMPDEST DUP1 DUP5 ADD SWAP2 POP POP SWAP3 SWAP2 POP POP JUMP JUMPDEST PUSH1 0x0 DUP2 SLOAD PUSH2 0x6F4 DUP2 PUSH2 0x9DE JUMP JUMPDEST PUSH2 0x6FE DUP2 DUP7 PUSH2 0x97D JUMP JUMPDEST SWAP5 POP PUSH1 0x1 DUP3 AND PUSH1 0x0 DUP2 EQ PUSH2 0x719 JUMPI PUSH1 0x1 DUP2 EQ PUSH2 0x72A JUMPI PUSH2 0x75D JUMP JUMPDEST PUSH1 0xFF NOT DUP4 AND DUP7 MSTORE DUP2 DUP7 ADD SWAP4 POP PUSH2 0x75D JUMP JUMPDEST PUSH2 0x733 DUP6 PUSH2 0x93B JUMP JUMPDEST PUSH1 0x0 JUMPDEST DUP4 DUP2 LT ISZERO PUSH2 0x755 JUMPI DUP2 SLOAD DUP2 DUP10 ADD MSTORE PUSH1 0x1 DUP3 ADD SWAP2 POP PUSH1 0x20 DUP2 ADD SWAP1 POP PUSH2 0x736 JUMP JUMPDEST DUP4 DUP9 ADD SWAP6 POP POP POP JUMPDEST POP POP POP SWAP3 SWAP2 POP POP JUMP JUMPDEST PUSH1 0x0 PUSH2 0x773 PUSH1 0x18 DUP4 PUSH2 0x96C JUMP JUMPDEST SWAP2 POP PUSH2 0x77E DUP3 PUSH2 0xAC4 JUMP JUMPDEST PUSH1 0x20 DUP3 ADD SWAP1 POP SWAP2 SWAP1 POP JUMP JUMPDEST PUSH1 0x0 PUSH2 0x796 PUSH1 0x7 DUP4 PUSH2 0x96C JUMP JUMPDEST SWAP2 POP PUSH2 0x7A1 DUP3 PUSH2 0xAED JUMP JUMPDEST PUSH1 0x20 DUP3 ADD SWAP1 POP SWAP2 SWAP1 POP JUMP JUMPDEST PUSH1 0x0 PUSH1 0x80 DUP4 ADD PUSH1 0x0 DUP4 ADD MLOAD DUP5 DUP3 SUB PUSH1 0x0 DUP7 ADD MSTORE PUSH2 0x7C9 DUP3 DUP3 PUSH2 0x67D JUMP JUMPDEST SWAP2 POP POP PUSH1 0x20 DUP4 ADD MLOAD DUP5 DUP3 SUB PUSH1 0x20 DUP7 ADD MSTORE PUSH2 0x7E3 DUP3 DUP3 PUSH2 0x67D JUMP JUMPDEST SWAP2 POP POP PUSH1 0x40 DUP4 ADD MLOAD DUP5 DUP3 SUB PUSH1 0x40 DUP7 ADD MSTORE PUSH2 0x7FD DUP3 DUP3 PUSH2 0x67D JUMP JUMPDEST SWAP2 POP POP PUSH1 0x60 DUP4 ADD MLOAD PUSH2 0x812 PUSH1 0x60 DUP7 ADD DUP3 PUSH2 0x81D JUMP JUMPDEST POP DUP1 SWAP2 POP POP SWAP3 SWAP2 POP POP JUMP JUMPDEST PUSH2 0x826 DUP2 PUSH2 0x992 JUMP JUMPDEST DUP3 MSTORE POP POP JUMP JUMPDEST PUSH1 0x0 PUSH2 0x838 DUP3 DUP5 PUSH2 0x6B6 JUMP JUMPDEST SWAP2 POP DUP2 SWAP1 POP SWAP3 SWAP2 POP POP JUMP JUMPDEST PUSH1 0x0 PUSH2 0x84F DUP3 DUP5 PUSH2 0x6E7 JUMP JUMPDEST SWAP2 POP DUP2 SWAP1 POP SWAP3 SWAP2 POP POP JUMP JUMPDEST PUSH1 0x0 PUSH1 0x20 DUP3 ADD SWAP1 POP PUSH2 0x86F PUSH1 0x0 DUP4 ADD DUP5 PUSH2 0x66E JUMP JUMPDEST SWAP3 SWAP2 POP POP JUMP JUMPDEST PUSH1 0x0 PUSH1 0x20 DUP3 ADD SWAP1 POP DUP2 DUP2 SUB PUSH1 0x0 DUP4 ADD MSTORE PUSH2 0x88E DUP2 PUSH2 0x766 JUMP JUMPDEST SWAP1 POP SWAP2 SWAP1 POP JUMP JUMPDEST PUSH1 0x0 PUSH1 0x40 DUP3 ADD SWAP1 POP DUP2 DUP2 SUB PUSH1 0x0 DUP4 ADD MSTORE PUSH2 0x8AE DUP2 PUSH2 0x789 JUMP JUMPDEST SWAP1 POP PUSH2 0x8BD PUSH1 0x20 DUP4 ADD DUP5 PUSH2 0x66E JUMP JUMPDEST SWAP3 SWAP2 POP POP JUMP JUMPDEST PUSH1 0x0 PUSH1 0x20 DUP3 ADD SWAP1 POP DUP2 DUP2 SUB PUSH1 0x0 DUP4 ADD MSTORE PUSH2 0x8DD DUP2 DUP5 PUSH2 0x7AC JUMP JUMPDEST SWAP1 POP SWAP3 SWAP2 POP POP JUMP JUMPDEST PUSH1 0x0 PUSH2 0x8EF PUSH2 0x900 JUMP JUMPDEST SWAP1 POP PUSH2 0x8FB DUP3 DUP3 PUSH2 0xA10 JUMP JUMPDEST SWAP2 SWAP1 POP JUMP JUMPDEST PUSH1 0x0 PUSH1 0x40 MLOAD SWAP1 POP SWAP1 JUMP JUMPDEST PUSH1 0x0 PUSH8 0xFFFFFFFFFFFFFFFF DUP3 GT ISZERO PUSH2 0x925 JUMPI PUSH2 0x924 PUSH2 0xA70 JUMP JUMPDEST JUMPDEST PUSH2 0x92E DUP3 PUSH2 0xAB3 JUMP JUMPDEST SWAP1 POP PUSH1 0x20 DUP2 ADD SWAP1 POP SWAP2 SWAP1 POP JUMP JUMPDEST PUSH1 0x0 DUP2 SWAP1 POP DUP2 PUSH1 0x0 MSTORE PUSH1 0x20 PUSH1 0x0 KECCAK256 SWAP1 POP SWAP2 SWAP1 POP JUMP JUMPDEST PUSH1 0x0 DUP2 MLOAD SWAP1 POP SWAP2 SWAP1 POP JUMP JUMPDEST PUSH1 0x0 DUP3 DUP3 MSTORE PUSH1 0x20 DUP3 ADD SWAP1 POP SWAP3 SWAP2 POP POP JUMP JUMPDEST PUSH1 0x0 DUP3 DUP3 MSTORE PUSH1 0x20 DUP3 ADD SWAP1 POP SWAP3 SWAP2 POP POP JUMP JUMPDEST PUSH1 0x0 DUP2 SWAP1 POP SWAP3 SWAP2 POP POP JUMP JUMPDEST PUSH1 0x0 DUP2 SWAP1 POP SWAP2 SWAP1 POP JUMP JUMPDEST PUSH1 0x0 DUP2 SWAP1 POP SWAP2 SWAP1 POP JUMP JUMPDEST DUP3 DUP2 DUP4 CALLDATACOPY PUSH1 0x0 DUP4 DUP4 ADD MSTORE POP POP POP JUMP JUMPDEST PUSH1 0x0 JUMPDEST DUP4 DUP2 LT ISZERO PUSH2 0x9C9 JUMPI DUP1 DUP3 ADD MLOAD DUP2 DUP5 ADD MSTORE PUSH1 0x20 DUP2 ADD SWAP1 POP PUSH2 0x9AE JUMP JUMPDEST DUP4 DUP2 GT ISZERO PUSH2 0x9D8 JUMPI PUSH1 0x0 DUP5 DUP5 ADD MSTORE JUMPDEST POP POP POP POP JUMP JUMPDEST PUSH1 0x0 PUSH1 0x2 DUP3 DIV SWAP1 POP PUSH1 0x1 DUP3 AND DUP1 PUSH2 0x9F6 JUMPI PUSH1 0x7F DUP3 AND SWAP2 POP JUMPDEST PUSH1 0x20 DUP3 LT DUP2 EQ ISZERO PUSH2 0xA0A JUMPI PUSH2 0xA09 PUSH2 0xA41 JUMP JUMPDEST JUMPDEST POP SWAP2 SWAP1 POP JUMP JUMPDEST PUSH2 0xA19 DUP3 PUSH2 0xAB3 JUMP JUMPDEST DUP2 ADD DUP2 DUP2 LT PUSH8 0xFFFFFFFFFFFFFFFF DUP3 GT OR ISZERO PUSH2 0xA38 JUMPI PUSH2 0xA37 PUSH2 0xA70 JUMP JUMPDEST JUMPDEST DUP1 PUSH1 0x40 MSTORE POP POP POP JUMP JUMPDEST PUSH32 0x4E487B7100000000000000000000000000000000000000000000000000000000 PUSH1 0x0 MSTORE PUSH1 0x22 PUSH1 0x4 MSTORE PUSH1 0x24 PUSH1 0x0 REVERT JUMPDEST PUSH32 0x4E487B7100000000000000000000000000000000000000000000000000000000 PUSH1 0x0 MSTORE PUSH1 0x41 PUSH1 0x4 MSTORE PUSH1 0x24 PUSH1 0x0 REVERT JUMPDEST PUSH1 0x0 DUP1 REVERT JUMPDEST PUSH1 0x0 DUP1 REVERT JUMPDEST PUSH1 0x0 DUP1 REVERT JUMPDEST PUSH1 0x0 DUP1 REVERT JUMPDEST PUSH1 0x0 PUSH1 0x1F NOT PUSH1 0x1F DUP4 ADD AND SWAP1 POP SWAP2 SWAP1 POP JUMP JUMPDEST PUSH32 0x4163636F756E7420616C7265616479206578697374696E670000000000000000 PUSH1 0x0 DUP3 ADD MSTORE POP JUMP JUMPDEST PUSH32 0x7375636365737300000000000000000000000000000000000000000000000000 PUSH1 0x0 DUP3 ADD MSTORE POP JUMP INVALID LOG2 PUSH5 0x6970667358 0x22 SLT KECCAK256 0xB6 0xC7 0xB6 PUSH16 0x5A5E2E621E88AEAEFFF2F71AB4D63F9D DUP13 0xBA DUP1 0x49 0xE2 SWAP13 DUP8 PUSH7 0x8286763364736F PUSH13 0x63430008070033000000000000 "
				},
				"gasEstimates": {
					"creation": {
						"codeDepositCost": "578400",
						"executionCost": "613",
						"totalCost": "579013"
					},
					"external": {
						"add_account(string,string,string)": "infinite",
						"get_account(string)": "infinite"
					},
					"internal": {
						"account_checker(bytes32,string memory)": "infinite"
					}
				},
				"methodIdentifiers": {
					"add_account(string,string,string)": "b24c908a",
					"get_account(string)": "174ba7ff"
				}
			},
			"storageLayout": {
				"storage": [
					{
						"astId": 21,
						"contract": "contracts/Halal.sol:Halal",
						"label": "mappingAccount",
						"offset": 0,
						"slot": "0",
						"type": "t_mapping(t_bytes32,t_struct(accountData)16_storage)"
					},
					{
						"astId": 51,
						"contract": "contracts/Halal.sol:Halal",
						"label": "mappingTransaction",
						"offset": 0,
						"slot": "1",
						"type": "t_mapping(t_bytes32,t_struct(transaction)46_storage)"
					}
				],
				"types": {
					"t_bool": {
						"encoding": "inplace",
						"label": "bool",
						"numberOfBytes": "1"
					},
					"t_bytes32": {
						"encoding": "inplace",
						"label": "bytes32",
						"numberOfBytes": "32"
					},
					"t_mapping(t_bytes32,t_struct(accountData)16_storage)": {
						"encoding": "mapping",
						"key": "t_bytes32",
						"label": "mapping(bytes32 => struct Halal.accountData)",
						"numberOfBytes": "32",
						"value": "t_struct(accountData)16_storage"
					},
					"t_mapping(t_bytes32,t_struct(transaction)46_storage)": {
						"encoding": "mapping",
						"key": "t_bytes32",
						"label": "mapping(bytes32 => struct Halal.transaction)",
						"numberOfBytes": "32",
						"value": "t_struct(transaction)46_storage"
					},
					"t_string_storage": {
						"encoding": "bytes",
						"label": "string",
						"numberOfBytes": "32"
					},
					"t_struct(accountData)16_storage": {
						"encoding": "inplace",
						"label": "struct Halal.accountData",
						"members": [
							{
								"astId": 9,
								"contract": "contracts/Halal.sol:Halal",
								"label": "account_id",
								"offset": 0,
								"slot": "0",
								"type": "t_string_storage"
							},
							{
								"astId": 11,
								"contract": "contracts/Halal.sol:Halal",
								"label": "name",
								"offset": 0,
								"slot": "1",
								"type": "t_string_storage"
							},
							{
								"astId": 13,
								"contract": "contracts/Halal.sol:Halal",
								"label": "role",
								"offset": 0,
								"slot": "2",
								"type": "t_string_storage"
							},
							{
								"astId": 15,
								"contract": "contracts/Halal.sol:Halal",
								"label": "created_at",
								"offset": 0,
								"slot": "3",
								"type": "t_uint256"
							}
						],
						"numberOfBytes": "128"
					},
					"t_struct(transaction)46_storage": {
						"encoding": "inplace",
						"label": "struct Halal.transaction",
						"members": [
							{
								"astId": 23,
								"contract": "contracts/Halal.sol:Halal",
								"label": "umkm_id",
								"offset": 0,
								"slot": "0",
								"type": "t_string_storage"
							},
							{
								"astId": 25,
								"contract": "contracts/Halal.sol:Halal",
								"label": "reg_status",
								"offset": 0,
								"slot": "1",
								"type": "t_bool"
							},
							{
								"astId": 27,
								"contract": "contracts/Halal.sol:Halal",
								"label": "reg_date",
								"offset": 0,
								"slot": "2",
								"type": "t_uint256"
							},
							{
								"astId": 29,
								"contract": "contracts/Halal.sol:Halal",
								"label": "bpjph_desc",
								"offset": 0,
								"slot": "3",
								"type": "t_string_storage"
							},
							{
								"astId": 31,
								"contract": "contracts/Halal.sol:Halal",
								"label": "bpjph_result",
								"offset": 0,
								"slot": "4",
								"type": "t_string_storage"
							},
							{
								"astId": 33,
								"contract": "contracts/Halal.sol:Halal",
								"label": "lph_appintment",
								"offset": 0,
								"slot": "5",
								"type": "t_string_storage"
							},
							{
								"astId": 35,
								"contract": "contracts/Halal.sol:Halal",
								"label": "bpjph_id",
								"offset": 0,
								"slot": "6",
								"type": "t_string_storage"
							},
							{
								"astId": 37,
								"contract": "contracts/Halal.sol:Halal",
								"label": "lph_desc",
								"offset": 0,
								"slot": "7",
								"type": "t_string_storage"
							},
							{
								"astId": 39,
								"contract": "contracts/Halal.sol:Halal",
								"label": "review_status",
								"offset": 0,
								"slot": "8",
								"type": "t_string_storage"
							},
							{
								"astId": 41,
								"contract": "contracts/Halal.sol:Halal",
								"label": "desicion_mui",
								"offset": 0,
								"slot": "9",
								"type": "t_string_storage"
							},
							{
								"astId": 43,
								"contract": "contracts/Halal.sol:Halal",
								"label": "mui_approved",
								"offset": 0,
								"slot": "10",
								"type": "t_bool"
							},
							{
								"astId": 45,
								"contract": "contracts/Halal.sol:Halal",
								"label": "cert_data",
								"offset": 0,
								"slot": "11",
								"type": "t_string_storage"
							}
						],
						"numberOfBytes": "384"
					},
					"t_uint256": {
						"encoding": "inplace",
						"label": "uint256",
						"numberOfBytes": "32"
					}
				}
			},
			"userdoc": {
				"kind": "user",
				"methods": {},
				"version": 1
			}
		}
	}
}