{
	"contracts/Halal.sol": {
		"Halal": {
			"abi": [
				{
					"anonymous": false,
					"inputs": [
						{
							"indexed": false,
							"internalType": "string",
							"name": "status",
							"type": "string"
						},
						{
							"indexed": false,
							"internalType": "bytes32",
							"name": "message",
							"type": "bytes32"
						}
					],
					"name": "success",
					"type": "event"
				},
				{
					"inputs": [
						{
							"internalType": "string",
							"name": "account_id",
							"type": "string"
						},
						{
							"internalType": "string",
							"name": "name",
							"type": "string"
						},
						{
							"internalType": "string",
							"name": "role",
							"type": "string"
						}
					],
					"name": "add_account",
					"outputs": [
						{
							"internalType": "bytes32",
							"name": "",
							"type": "bytes32"
						}
					],
					"stateMutability": "nonpayable",
					"type": "function"
				},
				{
					"inputs": [
						{
							"internalType": "string",
							"name": "transaction_id",
							"type": "string"
						},
						{
							"internalType": "string",
							"name": "user_id",
							"type": "string"
						},
						{
							"internalType": "bytes",
							"name": "data",
							"type": "bytes"
						}
					],
					"name": "add_transaction",
					"outputs": [
						{
							"internalType": "bytes32",
							"name": "",
							"type": "bytes32"
						}
					],
					"stateMutability": "view",
					"type": "function"
				},
				{
					"inputs": [
						{
							"internalType": "string",
							"name": "account_id",
							"type": "string"
						}
					],
					"name": "get_account",
					"outputs": [
						{
							"components": [
								{
									"internalType": "string",
									"name": "account_id",
									"type": "string"
								},
								{
									"internalType": "string",
									"name": "name",
									"type": "string"
								},
								{
									"internalType": "string",
									"name": "role",
									"type": "string"
								},
								{
									"internalType": "uint256",
									"name": "created_at",
									"type": "uint256"
								}
							],
							"internalType": "struct Halal.accountData",
							"name": "",
							"type": "tuple"
						}
					],
					"stateMutability": "view",
					"type": "function"
				},
				{
					"inputs": [
						{
							"internalType": "string",
							"name": "transaction_id",
							"type": "string"
						}
					],
					"name": "get_transaction",
					"outputs": [
						{
							"components": [
								{
									"internalType": "string",
									"name": "user_id",
									"type": "string"
								},
								{
									"internalType": "bytes",
									"name": "data",
									"type": "bytes"
								}
							],
							"internalType": "struct Halal.transaction",
							"name": "",
							"type": "tuple"
						}
					],
					"stateMutability": "view",
					"type": "function"
				}
			],
			"devdoc": {
				"kind": "dev",
				"methods": {},
				"version": 1
			},
			"evm": {
				"assembly": "    /* \"contracts/Halal.sol\":62:2148  contract Halal{... */\n  mstore(0x40, 0x80)\n  callvalue\n  dup1\n  iszero\n  tag_1\n  jumpi\n  0x00\n  dup1\n  revert\ntag_1:\n  pop\n  dataSize(sub_0)\n  dup1\n  dataOffset(sub_0)\n  0x00\n  codecopy\n  0x00\n  return\nstop\n\nsub_0: assembly {\n        /* \"contracts/Halal.sol\":62:2148  contract Halal{... */\n      mstore(0x40, 0x80)\n      callvalue\n      dup1\n      iszero\n      tag_1\n      jumpi\n      0x00\n      dup1\n      revert\n    tag_1:\n      pop\n      jumpi(tag_2, lt(calldatasize, 0x04))\n      shr(0xe0, calldataload(0x00))\n      dup1\n      0x174ba7ff\n      eq\n      tag_3\n      jumpi\n      dup1\n      0x5b62132d\n      eq\n      tag_4\n      jumpi\n      dup1\n      0xb24c908a\n      eq\n      tag_5\n      jumpi\n      dup1\n      0xca5e208f\n      eq\n      tag_6\n      jumpi\n    tag_2:\n      0x00\n      dup1\n      revert\n        /* \"contracts/Halal.sol\":1365:1555  function get_account(string memory account_id) public view returns(accountData memory){... */\n    tag_3:\n      tag_7\n      0x04\n      dup1\n      calldatasize\n      sub\n      dup2\n      add\n      swap1\n      tag_8\n      swap2\n      swap1\n      tag_9\n      jump\t// in\n    tag_8:\n      tag_10\n      jump\t// in\n    tag_7:\n      mload(0x40)\n      tag_11\n      swap2\n      swap1\n      tag_12\n      jump\t// in\n    tag_11:\n      mload(0x40)\n      dup1\n      swap2\n      sub\n      swap1\n      return\n        /* \"contracts/Halal.sol\":1561:1930  function add_transaction(... */\n    tag_4:\n      tag_13\n      0x04\n      dup1\n      calldatasize\n      sub\n      dup2\n      add\n      swap1\n      tag_14\n      swap2\n      swap1\n      tag_15\n      jump\t// in\n    tag_14:\n      tag_16\n      jump\t// in\n    tag_13:\n      mload(0x40)\n      tag_17\n      swap2\n      swap1\n      tag_18\n      jump\t// in\n    tag_17:\n      mload(0x40)\n      dup1\n      swap2\n      sub\n      swap1\n      return\n        /* \"contracts/Halal.sol\":831:1359  function add_account(... */\n    tag_5:\n      tag_19\n      0x04\n      dup1\n      calldatasize\n      sub\n      dup2\n      add\n      swap1\n      tag_20\n      swap2\n      swap1\n      tag_21\n      jump\t// in\n    tag_20:\n      tag_22\n      jump\t// in\n    tag_19:\n      mload(0x40)\n      tag_23\n      swap2\n      swap1\n      tag_18\n      jump\t// in\n    tag_23:\n      mload(0x40)\n      dup1\n      swap2\n      sub\n      swap1\n      return\n        /* \"contracts/Halal.sol\":1936:2145  function get_transaction(string memory transaction_id) external view returns(transaction memory){... */\n    tag_6:\n      tag_24\n      0x04\n      dup1\n      calldatasize\n      sub\n      dup2\n      add\n      swap1\n      tag_25\n      swap2\n      swap1\n      tag_9\n      jump\t// in\n    tag_25:\n      tag_26\n      jump\t// in\n    tag_24:\n      mload(0x40)\n      tag_27\n      swap2\n      swap1\n      tag_28\n      jump\t// in\n    tag_27:\n      mload(0x40)\n      dup1\n      swap2\n      sub\n      swap1\n      return\n        /* \"contracts/Halal.sol\":1365:1555  function get_account(string memory account_id) public view returns(accountData memory){... */\n    tag_10:\n        /* \"contracts/Halal.sol\":1432:1450  accountData memory */\n      tag_29\n      tag_30\n      jump\t// in\n    tag_29:\n        /* \"contracts/Halal.sol\":1461:1471  bytes32 id */\n      0x00\n        /* \"contracts/Halal.sol\":1501:1511  account_id */\n      dup3\n        /* \"contracts/Halal.sol\":1484:1512  abi.encodePacked(account_id) */\n      add(0x20, mload(0x40))\n      tag_32\n      swap2\n      swap1\n      tag_33\n      jump\t// in\n    tag_32:\n      mload(0x40)\n      0x20\n      dup2\n      dup4\n      sub\n      sub\n      dup2\n      mstore\n      swap1\n      0x40\n      mstore\n        /* \"contracts/Halal.sol\":1474:1513  keccak256(abi.encodePacked(account_id)) */\n      dup1\n      mload\n      swap1\n      0x20\n      add\n      keccak256\n        /* \"contracts/Halal.sol\":1461:1513  bytes32 id = keccak256(abi.encodePacked(account_id)) */\n      swap1\n      pop\n        /* \"contracts/Halal.sol\":1530:1544  mappingAccount */\n      0x00\n        /* \"contracts/Halal.sol\":1530:1548  mappingAccount[id] */\n      dup1\n        /* \"contracts/Halal.sol\":1545:1547  id */\n      dup3\n        /* \"contracts/Halal.sol\":1530:1548  mappingAccount[id] */\n      dup2\n      mstore\n      0x20\n      add\n      swap1\n      dup2\n      mstore\n      0x20\n      add\n      0x00\n      keccak256\n        /* \"contracts/Halal.sol\":1523:1548  return mappingAccount[id] */\n      mload(0x40)\n      dup1\n      0x80\n      add\n      0x40\n      mstore\n      swap1\n      dup2\n      0x00\n      dup3\n      add\n      dup1\n      sload\n      tag_34\n      swap1\n      tag_35\n      jump\t// in\n    tag_34:\n      dup1\n      0x1f\n      add\n      0x20\n      dup1\n      swap2\n      div\n      mul\n      0x20\n      add\n      mload(0x40)\n      swap1\n      dup2\n      add\n      0x40\n      mstore\n      dup1\n      swap3\n      swap2\n      swap1\n      dup2\n      dup2\n      mstore\n      0x20\n      add\n      dup3\n      dup1\n      sload\n      tag_36\n      swap1\n      tag_35\n      jump\t// in\n    tag_36:\n      dup1\n      iszero\n      tag_37\n      jumpi\n      dup1\n      0x1f\n      lt\n      tag_38\n      jumpi\n      0x0100\n      dup1\n      dup4\n      sload\n      div\n      mul\n      dup4\n      mstore\n      swap2\n      0x20\n      add\n      swap2\n      jump(tag_37)\n    tag_38:\n      dup3\n      add\n      swap2\n      swap1\n      0x00\n      mstore\n      keccak256(0x00, 0x20)\n      swap1\n    tag_39:\n      dup2\n      sload\n      dup2\n      mstore\n      swap1\n      0x01\n      add\n      swap1\n      0x20\n      add\n      dup1\n      dup4\n      gt\n      tag_39\n      jumpi\n      dup3\n      swap1\n      sub\n      0x1f\n      and\n      dup3\n      add\n      swap2\n    tag_37:\n      pop\n      pop\n      pop\n      pop\n      pop\n      dup2\n      mstore\n      0x20\n      add\n      0x01\n      dup3\n      add\n      dup1\n      sload\n      tag_40\n      swap1\n      tag_35\n      jump\t// in\n    tag_40:\n      dup1\n      0x1f\n      add\n      0x20\n      dup1\n      swap2\n      div\n      mul\n      0x20\n      add\n      mload(0x40)\n      swap1\n      dup2\n      add\n      0x40\n      mstore\n      dup1\n      swap3\n      swap2\n      swap1\n      dup2\n      dup2\n      mstore\n      0x20\n      add\n      dup3\n      dup1\n      sload\n      tag_41\n      swap1\n      tag_35\n      jump\t// in\n    tag_41:\n      dup1\n      iszero\n      tag_42\n      jumpi\n      dup1\n      0x1f\n      lt\n      tag_43\n      jumpi\n      0x0100\n      dup1\n      dup4\n      sload\n      div\n      mul\n      dup4\n      mstore\n      swap2\n      0x20\n      add\n      swap2\n      jump(tag_42)\n    tag_43:\n      dup3\n      add\n      swap2\n      swap1\n      0x00\n      mstore\n      keccak256(0x00, 0x20)\n      swap1\n    tag_44:\n      dup2\n      sload\n      dup2\n      mstore\n      swap1\n      0x01\n      add\n      swap1\n      0x20\n      add\n      dup1\n      dup4\n      gt\n      tag_44\n      jumpi\n      dup3\n      swap1\n      sub\n      0x1f\n      and\n      dup3\n      add\n      swap2\n    tag_42:\n      pop\n      pop\n      pop\n      pop\n      pop\n      dup2\n      mstore\n      0x20\n      add\n      0x02\n      dup3\n      add\n      dup1\n      sload\n      tag_45\n      swap1\n      tag_35\n      jump\t// in\n    tag_45:\n      dup1\n      0x1f\n      add\n      0x20\n      dup1\n      swap2\n      div\n      mul\n      0x20\n      add\n      mload(0x40)\n      swap1\n      dup2\n      add\n      0x40\n      mstore\n      dup1\n      swap3\n      swap2\n      swap1\n      dup2\n      dup2\n      mstore\n      0x20\n      add\n      dup3\n      dup1\n      sload\n      tag_46\n      swap1\n      tag_35\n      jump\t// in\n    tag_46:\n      dup1\n      iszero\n      tag_47\n      jumpi\n      dup1\n      0x1f\n      lt\n      tag_48\n      jumpi\n      0x0100\n      dup1\n      dup4\n      sload\n      div\n      mul\n      dup4\n      mstore\n      swap2\n      0x20\n      add\n      swap2\n      jump(tag_47)\n    tag_48:\n      dup3\n      add\n      swap2\n      swap1\n      0x00\n      mstore\n      keccak256(0x00, 0x20)\n      swap1\n    tag_49:\n      dup2\n      sload\n      dup2\n      mstore\n      swap1\n      0x01\n      add\n      swap1\n      0x20\n      add\n      dup1\n      dup4\n      gt\n      tag_49\n      jumpi\n      dup3\n      swap1\n      sub\n      0x1f\n      and\n      dup3\n      add\n      swap2\n    tag_47:\n      pop\n      pop\n      pop\n      pop\n      pop\n      dup2\n      mstore\n      0x20\n      add\n      0x03\n      dup3\n      add\n      sload\n      dup2\n      mstore\n      pop\n      pop\n      swap2\n      pop\n      pop\n        /* \"contracts/Halal.sol\":1365:1555  function get_account(string memory account_id) public view returns(accountData memory){... */\n      swap2\n      swap1\n      pop\n      jump\t// out\n        /* \"contracts/Halal.sol\":1561:1930  function add_transaction(... */\n    tag_16:\n        /* \"contracts/Halal.sol\":1710:1717  bytes32 */\n      0x00\n        /* \"contracts/Halal.sol\":1729:1739  bytes32 id */\n      dup1\n        /* \"contracts/Halal.sol\":1769:1783  transaction_id */\n      dup5\n        /* \"contracts/Halal.sol\":1752:1784  abi.encodePacked(transaction_id) */\n      add(0x20, mload(0x40))\n      tag_51\n      swap2\n      swap1\n      tag_33\n      jump\t// in\n    tag_51:\n      mload(0x40)\n      0x20\n      dup2\n      dup4\n      sub\n      sub\n      dup2\n      mstore\n      swap1\n      0x40\n      mstore\n        /* \"contracts/Halal.sol\":1742:1785  keccak256(abi.encodePacked(transaction_id)) */\n      dup1\n      mload\n      swap1\n      0x20\n      add\n      keccak256\n        /* \"contracts/Halal.sol\":1729:1785  bytes32 id = keccak256(abi.encodePacked(transaction_id)) */\n      swap1\n      pop\n        /* \"contracts/Halal.sol\":1795:1819  transaction memory trans */\n      0x00\n        /* \"contracts/Halal.sol\":1822:1840  mappingTransaction */\n      0x01\n        /* \"contracts/Halal.sol\":1822:1844  mappingTransaction[id] */\n      0x00\n        /* \"contracts/Halal.sol\":1841:1843  id */\n      dup4\n        /* \"contracts/Halal.sol\":1822:1844  mappingTransaction[id] */\n      dup2\n      mstore\n      0x20\n      add\n      swap1\n      dup2\n      mstore\n      0x20\n      add\n      0x00\n      keccak256\n        /* \"contracts/Halal.sol\":1795:1844  transaction memory trans = mappingTransaction[id] */\n      mload(0x40)\n      dup1\n      0x40\n      add\n      0x40\n      mstore\n      swap1\n      dup2\n      0x00\n      dup3\n      add\n      dup1\n      sload\n      tag_52\n      swap1\n      tag_35\n      jump\t// in\n    tag_52:\n      dup1\n      0x1f\n      add\n      0x20\n      dup1\n      swap2\n      div\n      mul\n      0x20\n      add\n      mload(0x40)\n      swap1\n      dup2\n      add\n      0x40\n      mstore\n      dup1\n      swap3\n      swap2\n      swap1\n      dup2\n      dup2\n      mstore\n      0x20\n      add\n      dup3\n      dup1\n      sload\n      tag_53\n      swap1\n      tag_35\n      jump\t// in\n    tag_53:\n      dup1\n      iszero\n      tag_54\n      jumpi\n      dup1\n      0x1f\n      lt\n      tag_55\n      jumpi\n      0x0100\n      dup1\n      dup4\n      sload\n      div\n      mul\n      dup4\n      mstore\n      swap2\n      0x20\n      add\n      swap2\n      jump(tag_54)\n    tag_55:\n      dup3\n      add\n      swap2\n      swap1\n      0x00\n      mstore\n      keccak256(0x00, 0x20)\n      swap1\n    tag_56:\n      dup2\n      sload\n      dup2\n      mstore\n      swap1\n      0x01\n      add\n      swap1\n      0x20\n      add\n      dup1\n      dup4\n      gt\n      tag_56\n      jumpi\n      dup3\n      swap1\n      sub\n      0x1f\n      and\n      dup3\n      add\n      swap2\n    tag_54:\n      pop\n      pop\n      pop\n      pop\n      pop\n      dup2\n      mstore\n      0x20\n      add\n      0x01\n      dup3\n      add\n      dup1\n      sload\n      tag_57\n      swap1\n      tag_35\n      jump\t// in\n    tag_57:\n      dup1\n      0x1f\n      add\n      0x20\n      dup1\n      swap2\n      div\n      mul\n      0x20\n      add\n      mload(0x40)\n      swap1\n      dup2\n      add\n      0x40\n      mstore\n      dup1\n      swap3\n      swap2\n      swap1\n      dup2\n      dup2\n      mstore\n      0x20\n      add\n      dup3\n      dup1\n      sload\n      tag_58\n      swap1\n      tag_35\n      jump\t// in\n    tag_58:\n      dup1\n      iszero\n      tag_59\n      jumpi\n      dup1\n      0x1f\n      lt\n      tag_60\n      jumpi\n      0x0100\n      dup1\n      dup4\n      sload\n      div\n      mul\n      dup4\n      mstore\n      swap2\n      0x20\n      add\n      swap2\n      jump(tag_59)\n    tag_60:\n      dup3\n      add\n      swap2\n      swap1\n      0x00\n      mstore\n      keccak256(0x00, 0x20)\n      swap1\n    tag_61:\n      dup2\n      sload\n      dup2\n      mstore\n      swap1\n      0x01\n      add\n      swap1\n      0x20\n      add\n      dup1\n      dup4\n      gt\n      tag_61\n      jumpi\n      dup3\n      swap1\n      sub\n      0x1f\n      and\n      dup3\n      add\n      swap2\n    tag_59:\n      pop\n      pop\n      pop\n      pop\n      pop\n      dup2\n      mstore\n      pop\n      pop\n      swap1\n      pop\n        /* \"contracts/Halal.sol\":1870:1877  user_id */\n      dup5\n        /* \"contracts/Halal.sol\":1854:1859  trans */\n      dup2\n        /* \"contracts/Halal.sol\":1854:1867  trans.user_id */\n      0x00\n      add\n        /* \"contracts/Halal.sol\":1854:1877  trans.user_id = user_id */\n      dup2\n      swap1\n      mstore\n      pop\n        /* \"contracts/Halal.sol\":1900:1904  data */\n      dup4\n        /* \"contracts/Halal.sol\":1887:1892  trans */\n      dup2\n        /* \"contracts/Halal.sol\":1887:1897  trans.data */\n      0x20\n      add\n        /* \"contracts/Halal.sol\":1887:1904  trans.data = data */\n      dup2\n      swap1\n      mstore\n      pop\n        /* \"contracts/Halal.sol\":1921:1923  id */\n      dup2\n        /* \"contracts/Halal.sol\":1914:1923  return id */\n      swap3\n      pop\n      pop\n      pop\n        /* \"contracts/Halal.sol\":1561:1930  function add_transaction(... */\n      swap4\n      swap3\n      pop\n      pop\n      pop\n      jump\t// out\n        /* \"contracts/Halal.sol\":831:1359  function add_account(... */\n    tag_22:\n        /* \"contracts/Halal.sol\":965:972  bytes32 */\n      0x00\n        /* \"contracts/Halal.sol\":983:993  bytes32 id */\n      dup1\n        /* \"contracts/Halal.sol\":1023:1033  account_id */\n      dup5\n        /* \"contracts/Halal.sol\":1006:1034  abi.encodePacked(account_id) */\n      add(0x20, mload(0x40))\n      tag_63\n      swap2\n      swap1\n      tag_33\n      jump\t// in\n    tag_63:\n      mload(0x40)\n      0x20\n      dup2\n      dup4\n      sub\n      sub\n      dup2\n      mstore\n      swap1\n      0x40\n      mstore\n        /* \"contracts/Halal.sol\":996:1035  keccak256(abi.encodePacked(account_id)) */\n      dup1\n      mload\n      swap1\n      0x20\n      add\n      keccak256\n        /* \"contracts/Halal.sol\":983:1035  bytes32 id = keccak256(abi.encodePacked(account_id)) */\n      swap1\n      pop\n        /* \"contracts/Halal.sol\":1053:1084  account_checker(id, account_id) */\n      tag_64\n        /* \"contracts/Halal.sol\":1069:1071  id */\n      dup2\n        /* \"contracts/Halal.sol\":1073:1083  account_id */\n      dup7\n        /* \"contracts/Halal.sol\":1053:1068  account_checker */\n      tag_65\n        /* \"contracts/Halal.sol\":1053:1084  account_checker(id, account_id) */\n      jump\t// in\n    tag_64:\n        /* \"contracts/Halal.sol\":1045:1113  require(account_checker(id, account_id), \"Account already existing\") */\n      tag_66\n      jumpi\n      mload(0x40)\n      0x08c379a000000000000000000000000000000000000000000000000000000000\n      dup2\n      mstore\n      0x04\n      add\n      tag_67\n      swap1\n      tag_68\n      jump\t// in\n    tag_67:\n      mload(0x40)\n      dup1\n      swap2\n      sub\n      swap1\n      revert\n    tag_66:\n        /* \"contracts/Halal.sol\":1123:1146  accountData storage acc */\n      0x00\n        /* \"contracts/Halal.sol\":1149:1163  mappingAccount */\n      dup1\n        /* \"contracts/Halal.sol\":1149:1167  mappingAccount[id] */\n      0x00\n        /* \"contracts/Halal.sol\":1164:1166  id */\n      dup4\n        /* \"contracts/Halal.sol\":1149:1167  mappingAccount[id] */\n      dup2\n      mstore\n      0x20\n      add\n      swap1\n      dup2\n      mstore\n      0x20\n      add\n      0x00\n      keccak256\n        /* \"contracts/Halal.sol\":1123:1167  accountData storage acc = mappingAccount[id] */\n      swap1\n      pop\n        /* \"contracts/Halal.sol\":1194:1204  account_id */\n      dup6\n        /* \"contracts/Halal.sol\":1177:1180  acc */\n      dup2\n        /* \"contracts/Halal.sol\":1177:1191  acc.account_id */\n      0x00\n      add\n        /* \"contracts/Halal.sol\":1177:1204  acc.account_id = account_id */\n      swap1\n      dup1\n      mload\n      swap1\n      0x20\n      add\n      swap1\n      tag_69\n      swap3\n      swap2\n      swap1\n      tag_70\n      jump\t// in\n    tag_69:\n      pop\n        /* \"contracts/Halal.sol\":1225:1229  name */\n      dup5\n        /* \"contracts/Halal.sol\":1214:1217  acc */\n      dup2\n        /* \"contracts/Halal.sol\":1214:1222  acc.name */\n      0x01\n      add\n        /* \"contracts/Halal.sol\":1214:1229  acc.name = name */\n      swap1\n      dup1\n      mload\n      swap1\n      0x20\n      add\n      swap1\n      tag_71\n      swap3\n      swap2\n      swap1\n      tag_70\n      jump\t// in\n    tag_71:\n      pop\n        /* \"contracts/Halal.sol\":1250:1254  role */\n      dup4\n        /* \"contracts/Halal.sol\":1239:1242  acc */\n      dup2\n        /* \"contracts/Halal.sol\":1239:1247  acc.role */\n      0x02\n      add\n        /* \"contracts/Halal.sol\":1239:1254  acc.role = role */\n      swap1\n      dup1\n      mload\n      swap1\n      0x20\n      add\n      swap1\n      tag_72\n      swap3\n      swap2\n      swap1\n      tag_70\n      jump\t// in\n    tag_72:\n      pop\n        /* \"contracts/Halal.sol\":1281:1296  block.timestamp */\n      timestamp\n        /* \"contracts/Halal.sol\":1264:1267  acc */\n      dup2\n        /* \"contracts/Halal.sol\":1264:1278  acc.created_at */\n      0x03\n      add\n        /* \"contracts/Halal.sol\":1264:1296  acc.created_at = block.timestamp */\n      dup2\n      swap1\n      sstore\n      pop\n        /* \"contracts/Halal.sol\":1311:1333  success(\"success\", id) */\n      0xc8922d91fbabbe8df5d667708c678575856a856a2a465ebd9626a40ab6a16f5f\n        /* \"contracts/Halal.sol\":1330:1332  id */\n      dup3\n        /* \"contracts/Halal.sol\":1311:1333  success(\"success\", id) */\n      mload(0x40)\n      tag_73\n      swap2\n      swap1\n      tag_74\n      jump\t// in\n    tag_73:\n      mload(0x40)\n      dup1\n      swap2\n      sub\n      swap1\n      log1\n        /* \"contracts/Halal.sol\":1350:1352  id */\n      dup2\n        /* \"contracts/Halal.sol\":1343:1352  return id */\n      swap3\n      pop\n      pop\n      pop\n        /* \"contracts/Halal.sol\":831:1359  function add_account(... */\n      swap4\n      swap3\n      pop\n      pop\n      pop\n      jump\t// out\n        /* \"contracts/Halal.sol\":1936:2145  function get_transaction(string memory transaction_id) external view returns(transaction memory){... */\n    tag_26:\n        /* \"contracts/Halal.sol\":2013:2031  transaction memory */\n      tag_75\n      tag_76\n      jump\t// in\n    tag_75:\n        /* \"contracts/Halal.sol\":2042:2052  bytes32 id */\n      0x00\n        /* \"contracts/Halal.sol\":2082:2096  transaction_id */\n      dup3\n        /* \"contracts/Halal.sol\":2065:2097  abi.encodePacked(transaction_id) */\n      add(0x20, mload(0x40))\n      tag_78\n      swap2\n      swap1\n      tag_33\n      jump\t// in\n    tag_78:\n      mload(0x40)\n      0x20\n      dup2\n      dup4\n      sub\n      sub\n      dup2\n      mstore\n      swap1\n      0x40\n      mstore\n        /* \"contracts/Halal.sol\":2055:2098  keccak256(abi.encodePacked(transaction_id)) */\n      dup1\n      mload\n      swap1\n      0x20\n      add\n      keccak256\n        /* \"contracts/Halal.sol\":2042:2098  bytes32 id = keccak256(abi.encodePacked(transaction_id)) */\n      swap1\n      pop\n        /* \"contracts/Halal.sol\":2115:2133  mappingTransaction */\n      0x01\n        /* \"contracts/Halal.sol\":2115:2137  mappingTransaction[id] */\n      0x00\n        /* \"contracts/Halal.sol\":2134:2136  id */\n      dup3\n        /* \"contracts/Halal.sol\":2115:2137  mappingTransaction[id] */\n      dup2\n      mstore\n      0x20\n      add\n      swap1\n      dup2\n      mstore\n      0x20\n      add\n      0x00\n      keccak256\n        /* \"contracts/Halal.sol\":2108:2137  return mappingTransaction[id] */\n      mload(0x40)\n      dup1\n      0x40\n      add\n      0x40\n      mstore\n      swap1\n      dup2\n      0x00\n      dup3\n      add\n      dup1\n      sload\n      tag_79\n      swap1\n      tag_35\n      jump\t// in\n    tag_79:\n      dup1\n      0x1f\n      add\n      0x20\n      dup1\n      swap2\n      div\n      mul\n      0x20\n      add\n      mload(0x40)\n      swap1\n      dup2\n      add\n      0x40\n      mstore\n      dup1\n      swap3\n      swap2\n      swap1\n      dup2\n      dup2\n      mstore\n      0x20\n      add\n      dup3\n      dup1\n      sload\n      tag_80\n      swap1\n      tag_35\n      jump\t// in\n    tag_80:\n      dup1\n      iszero\n      tag_81\n      jumpi\n      dup1\n      0x1f\n      lt\n      tag_82\n      jumpi\n      0x0100\n      dup1\n      dup4\n      sload\n      div\n      mul\n      dup4\n      mstore\n      swap2\n      0x20\n      add\n      swap2\n      jump(tag_81)\n    tag_82:\n      dup3\n      add\n      swap2\n      swap1\n      0x00\n      mstore\n      keccak256(0x00, 0x20)\n      swap1\n    tag_83:\n      dup2\n      sload\n      dup2\n      mstore\n      swap1\n      0x01\n      add\n      swap1\n      0x20\n      add\n      dup1\n      dup4\n      gt\n      tag_83\n      jumpi\n      dup3\n      swap1\n      sub\n      0x1f\n      and\n      dup3\n      add\n      swap2\n    tag_81:\n      pop\n      pop\n      pop\n      pop\n      pop\n      dup2\n      mstore\n      0x20\n      add\n      0x01\n      dup3\n      add\n      dup1\n      sload\n      tag_84\n      swap1\n      tag_35\n      jump\t// in\n    tag_84:\n      dup1\n      0x1f\n      add\n      0x20\n      dup1\n      swap2\n      div\n      mul\n      0x20\n      add\n      mload(0x40)\n      swap1\n      dup2\n      add\n      0x40\n      mstore\n      dup1\n      swap3\n      swap2\n      swap1\n      dup2\n      dup2\n      mstore\n      0x20\n      add\n      dup3\n      dup1\n      sload\n      tag_85\n      swap1\n      tag_35\n      jump\t// in\n    tag_85:\n      dup1\n      iszero\n      tag_86\n      jumpi\n      dup1\n      0x1f\n      lt\n      tag_87\n      jumpi\n      0x0100\n      dup1\n      dup4\n      sload\n      div\n      mul\n      dup4\n      mstore\n      swap2\n      0x20\n      add\n      swap2\n      jump(tag_86)\n    tag_87:\n      dup3\n      add\n      swap2\n      swap1\n      0x00\n      mstore\n      keccak256(0x00, 0x20)\n      swap1\n    tag_88:\n      dup2\n      sload\n      dup2\n      mstore\n      swap1\n      0x01\n      add\n      swap1\n      0x20\n      add\n      dup1\n      dup4\n      gt\n      tag_88\n      jumpi\n      dup3\n      swap1\n      sub\n      0x1f\n      and\n      dup3\n      add\n      swap2\n    tag_86:\n      pop\n      pop\n      pop\n      pop\n      pop\n      dup2\n      mstore\n      pop\n      pop\n      swap2\n      pop\n      pop\n        /* \"contracts/Halal.sol\":1936:2145  function get_transaction(string memory transaction_id) external view returns(transaction memory){... */\n      swap2\n      swap1\n      pop\n      jump\t// out\n        /* \"contracts/Halal.sol\":617:825  function account_checker(bytes32 id, string memory umkm_id) private view returns(bool){... */\n    tag_65:\n        /* \"contracts/Halal.sol\":698:702  bool */\n      0x00\n        /* \"contracts/Halal.sol\":809:816  umkm_id */\n      dup2\n        /* \"contracts/Halal.sol\":792:817  abi.encodePacked(umkm_id) */\n      add(0x20, mload(0x40))\n      tag_90\n      swap2\n      swap1\n      tag_33\n      jump\t// in\n    tag_90:\n      mload(0x40)\n      0x20\n      dup2\n      dup4\n      sub\n      sub\n      dup2\n      mstore\n      swap1\n      0x40\n      mstore\n        /* \"contracts/Halal.sol\":782:818  keccak256(abi.encodePacked(umkm_id)) */\n      dup1\n      mload\n      swap1\n      0x20\n      add\n      keccak256\n        /* \"contracts/Halal.sol\":747:761  mappingAccount */\n      0x00\n        /* \"contracts/Halal.sol\":747:765  mappingAccount[id] */\n      dup1\n        /* \"contracts/Halal.sol\":762:764  id */\n      dup6\n        /* \"contracts/Halal.sol\":747:765  mappingAccount[id] */\n      dup2\n      mstore\n      0x20\n      add\n      swap1\n      dup2\n      mstore\n      0x20\n      add\n      0x00\n      keccak256\n        /* \"contracts/Halal.sol\":747:776  mappingAccount[id].account_id */\n      0x00\n      add\n        /* \"contracts/Halal.sol\":730:777  abi.encodePacked(mappingAccount[id].account_id) */\n      add(0x20, mload(0x40))\n      tag_91\n      swap2\n      swap1\n      tag_92\n      jump\t// in\n    tag_91:\n      mload(0x40)\n      0x20\n      dup2\n      dup4\n      sub\n      sub\n      dup2\n      mstore\n      swap1\n      0x40\n      mstore\n        /* \"contracts/Halal.sol\":720:778  keccak256(abi.encodePacked(mappingAccount[id].account_id)) */\n      dup1\n      mload\n      swap1\n      0x20\n      add\n      keccak256\n        /* \"contracts/Halal.sol\":720:818  keccak256(abi.encodePacked(mappingAccount[id].account_id)) != keccak256(abi.encodePacked(umkm_id)) */\n      eq\n      iszero\n        /* \"contracts/Halal.sol\":713:818  return keccak256(abi.encodePacked(mappingAccount[id].account_id)) != keccak256(abi.encodePacked(umkm_id)) */\n      swap1\n      pop\n        /* \"contracts/Halal.sol\":617:825  function account_checker(bytes32 id, string memory umkm_id) private view returns(bool){... */\n      swap3\n      swap2\n      pop\n      pop\n      jump\t// out\n    tag_30:\n      mload(0x40)\n      dup1\n      0x80\n      add\n      0x40\n      mstore\n      dup1\n      0x60\n      dup2\n      mstore\n      0x20\n      add\n      0x60\n      dup2\n      mstore\n      0x20\n      add\n      0x60\n      dup2\n      mstore\n      0x20\n      add\n      0x00\n      dup2\n      mstore\n      pop\n      swap1\n      jump\t// out\n    tag_70:\n      dup3\n      dup1\n      sload\n      tag_93\n      swap1\n      tag_35\n      jump\t// in\n    tag_93:\n      swap1\n      0x00\n      mstore\n      keccak256(0x00, 0x20)\n      swap1\n      0x1f\n      add\n      0x20\n      swap1\n      div\n      dup2\n      add\n      swap3\n      dup3\n      tag_95\n      jumpi\n      0x00\n      dup6\n      sstore\n      jump(tag_94)\n    tag_95:\n      dup3\n      0x1f\n      lt\n      tag_96\n      jumpi\n      dup1\n      mload\n      not(0xff)\n      and\n      dup4\n      dup1\n      add\n      or\n      dup6\n      sstore\n      jump(tag_94)\n    tag_96:\n      dup3\n      dup1\n      add\n      0x01\n      add\n      dup6\n      sstore\n      dup3\n      iszero\n      tag_94\n      jumpi\n      swap2\n      dup3\n      add\n    tag_97:\n      dup3\n      dup2\n      gt\n      iszero\n      tag_98\n      jumpi\n      dup3\n      mload\n      dup3\n      sstore\n      swap2\n      0x20\n      add\n      swap2\n      swap1\n      0x01\n      add\n      swap1\n      jump(tag_97)\n    tag_98:\n    tag_94:\n      pop\n      swap1\n      pop\n      tag_99\n      swap2\n      swap1\n      tag_100\n      jump\t// in\n    tag_99:\n      pop\n      swap1\n      jump\t// out\n    tag_76:\n      mload(0x40)\n      dup1\n      0x40\n      add\n      0x40\n      mstore\n      dup1\n      0x60\n      dup2\n      mstore\n      0x20\n      add\n      0x60\n      dup2\n      mstore\n      pop\n      swap1\n      jump\t// out\n    tag_100:\n    tag_101:\n      dup1\n      dup3\n      gt\n      iszero\n      tag_102\n      jumpi\n      0x00\n      dup2\n      0x00\n      swap1\n      sstore\n      pop\n      0x01\n      add\n      jump(tag_101)\n    tag_102:\n      pop\n      swap1\n      jump\t// out\n        /* \"#utility.yul\":7:417   */\n    tag_104:\n        /* \"#utility.yul\":84:89   */\n      0x00\n        /* \"#utility.yul\":109:174   */\n      tag_106\n        /* \"#utility.yul\":125:173   */\n      tag_107\n        /* \"#utility.yul\":166:172   */\n      dup5\n        /* \"#utility.yul\":125:173   */\n      tag_108\n      jump\t// in\n    tag_107:\n        /* \"#utility.yul\":109:174   */\n      tag_109\n      jump\t// in\n    tag_106:\n        /* \"#utility.yul\":100:174   */\n      swap1\n      pop\n        /* \"#utility.yul\":197:203   */\n      dup3\n        /* \"#utility.yul\":190:195   */\n      dup2\n        /* \"#utility.yul\":183:204   */\n      mstore\n        /* \"#utility.yul\":235:239   */\n      0x20\n        /* \"#utility.yul\":228:233   */\n      dup2\n        /* \"#utility.yul\":224:240   */\n      add\n        /* \"#utility.yul\":273:276   */\n      dup5\n        /* \"#utility.yul\":264:270   */\n      dup5\n        /* \"#utility.yul\":259:262   */\n      dup5\n        /* \"#utility.yul\":255:271   */\n      add\n        /* \"#utility.yul\":252:277   */\n      gt\n        /* \"#utility.yul\":249:361   */\n      iszero\n      tag_110\n      jumpi\n        /* \"#utility.yul\":280:359   */\n      tag_111\n      tag_112\n      jump\t// in\n    tag_111:\n        /* \"#utility.yul\":249:361   */\n    tag_110:\n        /* \"#utility.yul\":370:411   */\n      tag_113\n        /* \"#utility.yul\":404:410   */\n      dup5\n        /* \"#utility.yul\":399:402   */\n      dup3\n        /* \"#utility.yul\":394:397   */\n      dup6\n        /* \"#utility.yul\":370:411   */\n      tag_114\n      jump\t// in\n    tag_113:\n        /* \"#utility.yul\":90:417   */\n      pop\n        /* \"#utility.yul\":7:417   */\n      swap4\n      swap3\n      pop\n      pop\n      pop\n      jump\t// out\n        /* \"#utility.yul\":423:835   */\n    tag_115:\n        /* \"#utility.yul\":501:506   */\n      0x00\n        /* \"#utility.yul\":526:592   */\n      tag_117\n        /* \"#utility.yul\":542:591   */\n      tag_118\n        /* \"#utility.yul\":584:590   */\n      dup5\n        /* \"#utility.yul\":542:591   */\n      tag_119\n      jump\t// in\n    tag_118:\n        /* \"#utility.yul\":526:592   */\n      tag_109\n      jump\t// in\n    tag_117:\n        /* \"#utility.yul\":517:592   */\n      swap1\n      pop\n        /* \"#utility.yul\":615:621   */\n      dup3\n        /* \"#utility.yul\":608:613   */\n      dup2\n        /* \"#utility.yul\":601:622   */\n      mstore\n        /* \"#utility.yul\":653:657   */\n      0x20\n        /* \"#utility.yul\":646:651   */\n      dup2\n        /* \"#utility.yul\":642:658   */\n      add\n        /* \"#utility.yul\":691:694   */\n      dup5\n        /* \"#utility.yul\":682:688   */\n      dup5\n        /* \"#utility.yul\":677:680   */\n      dup5\n        /* \"#utility.yul\":673:689   */\n      add\n        /* \"#utility.yul\":670:695   */\n      gt\n        /* \"#utility.yul\":667:779   */\n      iszero\n      tag_120\n      jumpi\n        /* \"#utility.yul\":698:777   */\n      tag_121\n      tag_112\n      jump\t// in\n    tag_121:\n        /* \"#utility.yul\":667:779   */\n    tag_120:\n        /* \"#utility.yul\":788:829   */\n      tag_122\n        /* \"#utility.yul\":822:828   */\n      dup5\n        /* \"#utility.yul\":817:820   */\n      dup3\n        /* \"#utility.yul\":812:815   */\n      dup6\n        /* \"#utility.yul\":788:829   */\n      tag_114\n      jump\t// in\n    tag_122:\n        /* \"#utility.yul\":507:835   */\n      pop\n        /* \"#utility.yul\":423:835   */\n      swap4\n      swap3\n      pop\n      pop\n      pop\n      jump\t// out\n        /* \"#utility.yul\":854:1192   */\n    tag_123:\n        /* \"#utility.yul\":909:914   */\n      0x00\n        /* \"#utility.yul\":958:961   */\n      dup3\n        /* \"#utility.yul\":951:955   */\n      0x1f\n        /* \"#utility.yul\":943:949   */\n      dup4\n        /* \"#utility.yul\":939:956   */\n      add\n        /* \"#utility.yul\":935:962   */\n      slt\n        /* \"#utility.yul\":925:1047   */\n      tag_125\n      jumpi\n        /* \"#utility.yul\":966:1045   */\n      tag_126\n      tag_127\n      jump\t// in\n    tag_126:\n        /* \"#utility.yul\":925:1047   */\n    tag_125:\n        /* \"#utility.yul\":1083:1089   */\n      dup2\n        /* \"#utility.yul\":1070:1090   */\n      calldataload\n        /* \"#utility.yul\":1108:1186   */\n      tag_128\n        /* \"#utility.yul\":1182:1185   */\n      dup5\n        /* \"#utility.yul\":1174:1180   */\n      dup3\n        /* \"#utility.yul\":1167:1171   */\n      0x20\n        /* \"#utility.yul\":1159:1165   */\n      dup7\n        /* \"#utility.yul\":1155:1172   */\n      add\n        /* \"#utility.yul\":1108:1186   */\n      tag_104\n      jump\t// in\n    tag_128:\n        /* \"#utility.yul\":1099:1186   */\n      swap2\n      pop\n        /* \"#utility.yul\":915:1192   */\n      pop\n        /* \"#utility.yul\":854:1192   */\n      swap3\n      swap2\n      pop\n      pop\n      jump\t// out\n        /* \"#utility.yul\":1212:1552   */\n    tag_129:\n        /* \"#utility.yul\":1268:1273   */\n      0x00\n        /* \"#utility.yul\":1317:1320   */\n      dup3\n        /* \"#utility.yul\":1310:1314   */\n      0x1f\n        /* \"#utility.yul\":1302:1308   */\n      dup4\n        /* \"#utility.yul\":1298:1315   */\n      add\n        /* \"#utility.yul\":1294:1321   */\n      slt\n        /* \"#utility.yul\":1284:1406   */\n      tag_131\n      jumpi\n        /* \"#utility.yul\":1325:1404   */\n      tag_132\n      tag_127\n      jump\t// in\n    tag_132:\n        /* \"#utility.yul\":1284:1406   */\n    tag_131:\n        /* \"#utility.yul\":1442:1448   */\n      dup2\n        /* \"#utility.yul\":1429:1449   */\n      calldataload\n        /* \"#utility.yul\":1467:1546   */\n      tag_133\n        /* \"#utility.yul\":1542:1545   */\n      dup5\n        /* \"#utility.yul\":1534:1540   */\n      dup3\n        /* \"#utility.yul\":1527:1531   */\n      0x20\n        /* \"#utility.yul\":1519:1525   */\n      dup7\n        /* \"#utility.yul\":1515:1532   */\n      add\n        /* \"#utility.yul\":1467:1546   */\n      tag_115\n      jump\t// in\n    tag_133:\n        /* \"#utility.yul\":1458:1546   */\n      swap2\n      pop\n        /* \"#utility.yul\":1274:1552   */\n      pop\n        /* \"#utility.yul\":1212:1552   */\n      swap3\n      swap2\n      pop\n      pop\n      jump\t// out\n        /* \"#utility.yul\":1558:2067   */\n    tag_9:\n        /* \"#utility.yul\":1627:1633   */\n      0x00\n        /* \"#utility.yul\":1676:1678   */\n      0x20\n        /* \"#utility.yul\":1664:1673   */\n      dup3\n        /* \"#utility.yul\":1655:1662   */\n      dup5\n        /* \"#utility.yul\":1651:1674   */\n      sub\n        /* \"#utility.yul\":1647:1679   */\n      slt\n        /* \"#utility.yul\":1644:1763   */\n      iszero\n      tag_135\n      jumpi\n        /* \"#utility.yul\":1682:1761   */\n      tag_136\n      tag_137\n      jump\t// in\n    tag_136:\n        /* \"#utility.yul\":1644:1763   */\n    tag_135:\n        /* \"#utility.yul\":1830:1831   */\n      0x00\n        /* \"#utility.yul\":1819:1828   */\n      dup3\n        /* \"#utility.yul\":1815:1832   */\n      add\n        /* \"#utility.yul\":1802:1833   */\n      calldataload\n        /* \"#utility.yul\":1860:1878   */\n      0xffffffffffffffff\n        /* \"#utility.yul\":1852:1858   */\n      dup2\n        /* \"#utility.yul\":1849:1879   */\n      gt\n        /* \"#utility.yul\":1846:1963   */\n      iszero\n      tag_138\n      jumpi\n        /* \"#utility.yul\":1882:1961   */\n      tag_139\n      tag_140\n      jump\t// in\n    tag_139:\n        /* \"#utility.yul\":1846:1963   */\n    tag_138:\n        /* \"#utility.yul\":1987:2050   */\n      tag_141\n        /* \"#utility.yul\":2042:2049   */\n      dup5\n        /* \"#utility.yul\":2033:2039   */\n      dup3\n        /* \"#utility.yul\":2022:2031   */\n      dup6\n        /* \"#utility.yul\":2018:2040   */\n      add\n        /* \"#utility.yul\":1987:2050   */\n      tag_129\n      jump\t// in\n    tag_141:\n        /* \"#utility.yul\":1977:2050   */\n      swap2\n      pop\n        /* \"#utility.yul\":1773:2060   */\n      pop\n        /* \"#utility.yul\":1558:2067   */\n      swap3\n      swap2\n      pop\n      pop\n      jump\t// out\n        /* \"#utility.yul\":2073:3230   */\n    tag_15:\n        /* \"#utility.yul\":2179:2185   */\n      0x00\n        /* \"#utility.yul\":2187:2193   */\n      dup1\n        /* \"#utility.yul\":2195:2201   */\n      0x00\n        /* \"#utility.yul\":2244:2246   */\n      0x60\n        /* \"#utility.yul\":2232:2241   */\n      dup5\n        /* \"#utility.yul\":2223:2230   */\n      dup7\n        /* \"#utility.yul\":2219:2242   */\n      sub\n        /* \"#utility.yul\":2215:2247   */\n      slt\n        /* \"#utility.yul\":2212:2331   */\n      iszero\n      tag_143\n      jumpi\n        /* \"#utility.yul\":2250:2329   */\n      tag_144\n      tag_137\n      jump\t// in\n    tag_144:\n        /* \"#utility.yul\":2212:2331   */\n    tag_143:\n        /* \"#utility.yul\":2398:2399   */\n      0x00\n        /* \"#utility.yul\":2387:2396   */\n      dup5\n        /* \"#utility.yul\":2383:2400   */\n      add\n        /* \"#utility.yul\":2370:2401   */\n      calldataload\n        /* \"#utility.yul\":2428:2446   */\n      0xffffffffffffffff\n        /* \"#utility.yul\":2420:2426   */\n      dup2\n        /* \"#utility.yul\":2417:2447   */\n      gt\n        /* \"#utility.yul\":2414:2531   */\n      iszero\n      tag_145\n      jumpi\n        /* \"#utility.yul\":2450:2529   */\n      tag_146\n      tag_140\n      jump\t// in\n    tag_146:\n        /* \"#utility.yul\":2414:2531   */\n    tag_145:\n        /* \"#utility.yul\":2555:2618   */\n      tag_147\n        /* \"#utility.yul\":2610:2617   */\n      dup7\n        /* \"#utility.yul\":2601:2607   */\n      dup3\n        /* \"#utility.yul\":2590:2599   */\n      dup8\n        /* \"#utility.yul\":2586:2608   */\n      add\n        /* \"#utility.yul\":2555:2618   */\n      tag_129\n      jump\t// in\n    tag_147:\n        /* \"#utility.yul\":2545:2618   */\n      swap4\n      pop\n        /* \"#utility.yul\":2341:2628   */\n      pop\n        /* \"#utility.yul\":2695:2697   */\n      0x20\n        /* \"#utility.yul\":2684:2693   */\n      dup5\n        /* \"#utility.yul\":2680:2698   */\n      add\n        /* \"#utility.yul\":2667:2699   */\n      calldataload\n        /* \"#utility.yul\":2726:2744   */\n      0xffffffffffffffff\n        /* \"#utility.yul\":2718:2724   */\n      dup2\n        /* \"#utility.yul\":2715:2745   */\n      gt\n        /* \"#utility.yul\":2712:2829   */\n      iszero\n      tag_148\n      jumpi\n        /* \"#utility.yul\":2748:2827   */\n      tag_149\n      tag_140\n      jump\t// in\n    tag_149:\n        /* \"#utility.yul\":2712:2829   */\n    tag_148:\n        /* \"#utility.yul\":2853:2916   */\n      tag_150\n        /* \"#utility.yul\":2908:2915   */\n      dup7\n        /* \"#utility.yul\":2899:2905   */\n      dup3\n        /* \"#utility.yul\":2888:2897   */\n      dup8\n        /* \"#utility.yul\":2884:2906   */\n      add\n        /* \"#utility.yul\":2853:2916   */\n      tag_129\n      jump\t// in\n    tag_150:\n        /* \"#utility.yul\":2843:2916   */\n      swap3\n      pop\n        /* \"#utility.yul\":2638:2926   */\n      pop\n        /* \"#utility.yul\":2993:2995   */\n      0x40\n        /* \"#utility.yul\":2982:2991   */\n      dup5\n        /* \"#utility.yul\":2978:2996   */\n      add\n        /* \"#utility.yul\":2965:2997   */\n      calldataload\n        /* \"#utility.yul\":3024:3042   */\n      0xffffffffffffffff\n        /* \"#utility.yul\":3016:3022   */\n      dup2\n        /* \"#utility.yul\":3013:3043   */\n      gt\n        /* \"#utility.yul\":3010:3127   */\n      iszero\n      tag_151\n      jumpi\n        /* \"#utility.yul\":3046:3125   */\n      tag_152\n      tag_140\n      jump\t// in\n    tag_152:\n        /* \"#utility.yul\":3010:3127   */\n    tag_151:\n        /* \"#utility.yul\":3151:3213   */\n      tag_153\n        /* \"#utility.yul\":3205:3212   */\n      dup7\n        /* \"#utility.yul\":3196:3202   */\n      dup3\n        /* \"#utility.yul\":3185:3194   */\n      dup8\n        /* \"#utility.yul\":3181:3203   */\n      add\n        /* \"#utility.yul\":3151:3213   */\n      tag_123\n      jump\t// in\n    tag_153:\n        /* \"#utility.yul\":3141:3213   */\n      swap2\n      pop\n        /* \"#utility.yul\":2936:3223   */\n      pop\n        /* \"#utility.yul\":2073:3230   */\n      swap3\n      pop\n      swap3\n      pop\n      swap3\n      jump\t// out\n        /* \"#utility.yul\":3236:4395   */\n    tag_21:\n        /* \"#utility.yul\":3343:3349   */\n      0x00\n        /* \"#utility.yul\":3351:3357   */\n      dup1\n        /* \"#utility.yul\":3359:3365   */\n      0x00\n        /* \"#utility.yul\":3408:3410   */\n      0x60\n        /* \"#utility.yul\":3396:3405   */\n      dup5\n        /* \"#utility.yul\":3387:3394   */\n      dup7\n        /* \"#utility.yul\":3383:3406   */\n      sub\n        /* \"#utility.yul\":3379:3411   */\n      slt\n        /* \"#utility.yul\":3376:3495   */\n      iszero\n      tag_155\n      jumpi\n        /* \"#utility.yul\":3414:3493   */\n      tag_156\n      tag_137\n      jump\t// in\n    tag_156:\n        /* \"#utility.yul\":3376:3495   */\n    tag_155:\n        /* \"#utility.yul\":3562:3563   */\n      0x00\n        /* \"#utility.yul\":3551:3560   */\n      dup5\n        /* \"#utility.yul\":3547:3564   */\n      add\n        /* \"#utility.yul\":3534:3565   */\n      calldataload\n        /* \"#utility.yul\":3592:3610   */\n      0xffffffffffffffff\n        /* \"#utility.yul\":3584:3590   */\n      dup2\n        /* \"#utility.yul\":3581:3611   */\n      gt\n        /* \"#utility.yul\":3578:3695   */\n      iszero\n      tag_157\n      jumpi\n        /* \"#utility.yul\":3614:3693   */\n      tag_158\n      tag_140\n      jump\t// in\n    tag_158:\n        /* \"#utility.yul\":3578:3695   */\n    tag_157:\n        /* \"#utility.yul\":3719:3782   */\n      tag_159\n        /* \"#utility.yul\":3774:3781   */\n      dup7\n        /* \"#utility.yul\":3765:3771   */\n      dup3\n        /* \"#utility.yul\":3754:3763   */\n      dup8\n        /* \"#utility.yul\":3750:3772   */\n      add\n        /* \"#utility.yul\":3719:3782   */\n      tag_129\n      jump\t// in\n    tag_159:\n        /* \"#utility.yul\":3709:3782   */\n      swap4\n      pop\n        /* \"#utility.yul\":3505:3792   */\n      pop\n        /* \"#utility.yul\":3859:3861   */\n      0x20\n        /* \"#utility.yul\":3848:3857   */\n      dup5\n        /* \"#utility.yul\":3844:3862   */\n      add\n        /* \"#utility.yul\":3831:3863   */\n      calldataload\n        /* \"#utility.yul\":3890:3908   */\n      0xffffffffffffffff\n        /* \"#utility.yul\":3882:3888   */\n      dup2\n        /* \"#utility.yul\":3879:3909   */\n      gt\n        /* \"#utility.yul\":3876:3993   */\n      iszero\n      tag_160\n      jumpi\n        /* \"#utility.yul\":3912:3991   */\n      tag_161\n      tag_140\n      jump\t// in\n    tag_161:\n        /* \"#utility.yul\":3876:3993   */\n    tag_160:\n        /* \"#utility.yul\":4017:4080   */\n      tag_162\n        /* \"#utility.yul\":4072:4079   */\n      dup7\n        /* \"#utility.yul\":4063:4069   */\n      dup3\n        /* \"#utility.yul\":4052:4061   */\n      dup8\n        /* \"#utility.yul\":4048:4070   */\n      add\n        /* \"#utility.yul\":4017:4080   */\n      tag_129\n      jump\t// in\n    tag_162:\n        /* \"#utility.yul\":4007:4080   */\n      swap3\n      pop\n        /* \"#utility.yul\":3802:4090   */\n      pop\n        /* \"#utility.yul\":4157:4159   */\n      0x40\n        /* \"#utility.yul\":4146:4155   */\n      dup5\n        /* \"#utility.yul\":4142:4160   */\n      add\n        /* \"#utility.yul\":4129:4161   */\n      calldataload\n        /* \"#utility.yul\":4188:4206   */\n      0xffffffffffffffff\n        /* \"#utility.yul\":4180:4186   */\n      dup2\n        /* \"#utility.yul\":4177:4207   */\n      gt\n        /* \"#utility.yul\":4174:4291   */\n      iszero\n      tag_163\n      jumpi\n        /* \"#utility.yul\":4210:4289   */\n      tag_164\n      tag_140\n      jump\t// in\n    tag_164:\n        /* \"#utility.yul\":4174:4291   */\n    tag_163:\n        /* \"#utility.yul\":4315:4378   */\n      tag_165\n        /* \"#utility.yul\":4370:4377   */\n      dup7\n        /* \"#utility.yul\":4361:4367   */\n      dup3\n        /* \"#utility.yul\":4350:4359   */\n      dup8\n        /* \"#utility.yul\":4346:4368   */\n      add\n        /* \"#utility.yul\":4315:4378   */\n      tag_129\n      jump\t// in\n    tag_165:\n        /* \"#utility.yul\":4305:4378   */\n      swap2\n      pop\n        /* \"#utility.yul\":4100:4388   */\n      pop\n        /* \"#utility.yul\":3236:4395   */\n      swap3\n      pop\n      swap3\n      pop\n      swap3\n      jump\t// out\n        /* \"#utility.yul\":4401:4519   */\n    tag_166:\n        /* \"#utility.yul\":4488:4512   */\n      tag_168\n        /* \"#utility.yul\":4506:4511   */\n      dup2\n        /* \"#utility.yul\":4488:4512   */\n      tag_169\n      jump\t// in\n    tag_168:\n        /* \"#utility.yul\":4483:4486   */\n      dup3\n        /* \"#utility.yul\":4476:4513   */\n      mstore\n        /* \"#utility.yul\":4401:4519   */\n      pop\n      pop\n      jump\t// out\n        /* \"#utility.yul\":4525:4865   */\n    tag_170:\n        /* \"#utility.yul\":4601:4604   */\n      0x00\n        /* \"#utility.yul\":4629:4667   */\n      tag_172\n        /* \"#utility.yul\":4661:4666   */\n      dup3\n        /* \"#utility.yul\":4629:4667   */\n      tag_173\n      jump\t// in\n    tag_172:\n        /* \"#utility.yul\":4683:4743   */\n      tag_174\n        /* \"#utility.yul\":4736:4742   */\n      dup2\n        /* \"#utility.yul\":4731:4734   */\n      dup6\n        /* \"#utility.yul\":4683:4743   */\n      tag_175\n      jump\t// in\n    tag_174:\n        /* \"#utility.yul\":4676:4743   */\n      swap4\n      pop\n        /* \"#utility.yul\":4752:4804   */\n      tag_176\n        /* \"#utility.yul\":4797:4803   */\n      dup2\n        /* \"#utility.yul\":4792:4795   */\n      dup6\n        /* \"#utility.yul\":4785:4789   */\n      0x20\n        /* \"#utility.yul\":4778:4783   */\n      dup7\n        /* \"#utility.yul\":4774:4790   */\n      add\n        /* \"#utility.yul\":4752:4804   */\n      tag_177\n      jump\t// in\n    tag_176:\n        /* \"#utility.yul\":4829:4858   */\n      tag_178\n        /* \"#utility.yul\":4851:4857   */\n      dup2\n        /* \"#utility.yul\":4829:4858   */\n      tag_179\n      jump\t// in\n    tag_178:\n        /* \"#utility.yul\":4824:4827   */\n      dup5\n        /* \"#utility.yul\":4820:4859   */\n      add\n        /* \"#utility.yul\":4813:4859   */\n      swap2\n      pop\n        /* \"#utility.yul\":4605:4865   */\n      pop\n        /* \"#utility.yul\":4525:4865   */\n      swap3\n      swap2\n      pop\n      pop\n      jump\t// out\n        /* \"#utility.yul\":4871:5215   */\n    tag_180:\n        /* \"#utility.yul\":4949:4952   */\n      0x00\n        /* \"#utility.yul\":4977:5016   */\n      tag_182\n        /* \"#utility.yul\":5010:5015   */\n      dup3\n        /* \"#utility.yul\":4977:5016   */\n      tag_183\n      jump\t// in\n    tag_182:\n        /* \"#utility.yul\":5032:5093   */\n      tag_184\n        /* \"#utility.yul\":5086:5092   */\n      dup2\n        /* \"#utility.yul\":5081:5084   */\n      dup6\n        /* \"#utility.yul\":5032:5093   */\n      tag_185\n      jump\t// in\n    tag_184:\n        /* \"#utility.yul\":5025:5093   */\n      swap4\n      pop\n        /* \"#utility.yul\":5102:5154   */\n      tag_186\n        /* \"#utility.yul\":5147:5153   */\n      dup2\n        /* \"#utility.yul\":5142:5145   */\n      dup6\n        /* \"#utility.yul\":5135:5139   */\n      0x20\n        /* \"#utility.yul\":5128:5133   */\n      dup7\n        /* \"#utility.yul\":5124:5140   */\n      add\n        /* \"#utility.yul\":5102:5154   */\n      tag_177\n      jump\t// in\n    tag_186:\n        /* \"#utility.yul\":5179:5208   */\n      tag_187\n        /* \"#utility.yul\":5201:5207   */\n      dup2\n        /* \"#utility.yul\":5179:5208   */\n      tag_179\n      jump\t// in\n    tag_187:\n        /* \"#utility.yul\":5174:5177   */\n      dup5\n        /* \"#utility.yul\":5170:5209   */\n      add\n        /* \"#utility.yul\":5163:5209   */\n      swap2\n      pop\n        /* \"#utility.yul\":4953:5215   */\n      pop\n        /* \"#utility.yul\":4871:5215   */\n      swap3\n      swap2\n      pop\n      pop\n      jump\t// out\n        /* \"#utility.yul\":5221:5598   */\n    tag_188:\n        /* \"#utility.yul\":5327:5330   */\n      0x00\n        /* \"#utility.yul\":5355:5394   */\n      tag_190\n        /* \"#utility.yul\":5388:5393   */\n      dup3\n        /* \"#utility.yul\":5355:5394   */\n      tag_183\n      jump\t// in\n    tag_190:\n        /* \"#utility.yul\":5410:5499   */\n      tag_191\n        /* \"#utility.yul\":5492:5498   */\n      dup2\n        /* \"#utility.yul\":5487:5490   */\n      dup6\n        /* \"#utility.yul\":5410:5499   */\n      tag_192\n      jump\t// in\n    tag_191:\n        /* \"#utility.yul\":5403:5499   */\n      swap4\n      pop\n        /* \"#utility.yul\":5508:5560   */\n      tag_193\n        /* \"#utility.yul\":5553:5559   */\n      dup2\n        /* \"#utility.yul\":5548:5551   */\n      dup6\n        /* \"#utility.yul\":5541:5545   */\n      0x20\n        /* \"#utility.yul\":5534:5539   */\n      dup7\n        /* \"#utility.yul\":5530:5546   */\n      add\n        /* \"#utility.yul\":5508:5560   */\n      tag_177\n      jump\t// in\n    tag_193:\n        /* \"#utility.yul\":5585:5591   */\n      dup1\n        /* \"#utility.yul\":5580:5583   */\n      dup5\n        /* \"#utility.yul\":5576:5592   */\n      add\n        /* \"#utility.yul\":5569:5592   */\n      swap2\n      pop\n        /* \"#utility.yul\":5331:5598   */\n      pop\n        /* \"#utility.yul\":5221:5598   */\n      swap3\n      swap2\n      pop\n      pop\n      jump\t// out\n        /* \"#utility.yul\":5628:6473   */\n    tag_194:\n        /* \"#utility.yul\":5731:5734   */\n      0x00\n        /* \"#utility.yul\":5768:5773   */\n      dup2\n        /* \"#utility.yul\":5762:5774   */\n      sload\n        /* \"#utility.yul\":5797:5833   */\n      tag_196\n        /* \"#utility.yul\":5823:5832   */\n      dup2\n        /* \"#utility.yul\":5797:5833   */\n      tag_35\n      jump\t// in\n    tag_196:\n        /* \"#utility.yul\":5849:5938   */\n      tag_197\n        /* \"#utility.yul\":5931:5937   */\n      dup2\n        /* \"#utility.yul\":5926:5929   */\n      dup7\n        /* \"#utility.yul\":5849:5938   */\n      tag_192\n      jump\t// in\n    tag_197:\n        /* \"#utility.yul\":5842:5938   */\n      swap5\n      pop\n        /* \"#utility.yul\":5969:5970   */\n      0x01\n        /* \"#utility.yul\":5958:5967   */\n      dup3\n        /* \"#utility.yul\":5954:5971   */\n      and\n        /* \"#utility.yul\":5985:5986   */\n      0x00\n        /* \"#utility.yul\":5980:6117   */\n      dup2\n      eq\n      tag_199\n      jumpi\n        /* \"#utility.yul\":6131:6132   */\n      0x01\n        /* \"#utility.yul\":6126:6467   */\n      dup2\n      eq\n      tag_200\n      jumpi\n        /* \"#utility.yul\":5947:6467   */\n      jump(tag_198)\n        /* \"#utility.yul\":5980:6117   */\n    tag_199:\n        /* \"#utility.yul\":6064:6068   */\n      0xff\n        /* \"#utility.yul\":6060:6069   */\n      not\n        /* \"#utility.yul\":6049:6058   */\n      dup4\n        /* \"#utility.yul\":6045:6070   */\n      and\n        /* \"#utility.yul\":6040:6043   */\n      dup7\n        /* \"#utility.yul\":6033:6071   */\n      mstore\n        /* \"#utility.yul\":6100:6106   */\n      dup2\n        /* \"#utility.yul\":6095:6098   */\n      dup7\n        /* \"#utility.yul\":6091:6107   */\n      add\n        /* \"#utility.yul\":6084:6107   */\n      swap4\n      pop\n        /* \"#utility.yul\":5980:6117   */\n      jump(tag_198)\n        /* \"#utility.yul\":6126:6467   */\n    tag_200:\n        /* \"#utility.yul\":6193:6231   */\n      tag_201\n        /* \"#utility.yul\":6225:6230   */\n      dup6\n        /* \"#utility.yul\":6193:6231   */\n      tag_202\n      jump\t// in\n    tag_201:\n        /* \"#utility.yul\":6253:6254   */\n      0x00\n        /* \"#utility.yul\":6267:6421   */\n    tag_203:\n        /* \"#utility.yul\":6281:6287   */\n      dup4\n        /* \"#utility.yul\":6278:6279   */\n      dup2\n        /* \"#utility.yul\":6275:6288   */\n      lt\n        /* \"#utility.yul\":6267:6421   */\n      iszero\n      tag_205\n      jumpi\n        /* \"#utility.yul\":6355:6362   */\n      dup2\n        /* \"#utility.yul\":6349:6363   */\n      sload\n        /* \"#utility.yul\":6345:6346   */\n      dup2\n        /* \"#utility.yul\":6340:6343   */\n      dup10\n        /* \"#utility.yul\":6336:6347   */\n      add\n        /* \"#utility.yul\":6329:6364   */\n      mstore\n        /* \"#utility.yul\":6405:6406   */\n      0x01\n        /* \"#utility.yul\":6396:6403   */\n      dup3\n        /* \"#utility.yul\":6392:6407   */\n      add\n        /* \"#utility.yul\":6381:6407   */\n      swap2\n      pop\n        /* \"#utility.yul\":6303:6307   */\n      0x20\n        /* \"#utility.yul\":6300:6301   */\n      dup2\n        /* \"#utility.yul\":6296:6308   */\n      add\n        /* \"#utility.yul\":6291:6308   */\n      swap1\n      pop\n        /* \"#utility.yul\":6267:6421   */\n      jump(tag_203)\n    tag_205:\n        /* \"#utility.yul\":6450:6456   */\n      dup4\n        /* \"#utility.yul\":6445:6448   */\n      dup9\n        /* \"#utility.yul\":6441:6457   */\n      add\n        /* \"#utility.yul\":6434:6457   */\n      swap6\n      pop\n        /* \"#utility.yul\":6133:6467   */\n      pop\n      pop\n        /* \"#utility.yul\":5947:6467   */\n    tag_198:\n      pop\n        /* \"#utility.yul\":5735:6473   */\n      pop\n      pop\n        /* \"#utility.yul\":5628:6473   */\n      swap3\n      swap2\n      pop\n      pop\n      jump\t// out\n        /* \"#utility.yul\":6479:6845   */\n    tag_206:\n        /* \"#utility.yul\":6621:6624   */\n      0x00\n        /* \"#utility.yul\":6642:6709   */\n      tag_208\n        /* \"#utility.yul\":6706:6708   */\n      0x18\n        /* \"#utility.yul\":6701:6704   */\n      dup4\n        /* \"#utility.yul\":6642:6709   */\n      tag_209\n      jump\t// in\n    tag_208:\n        /* \"#utility.yul\":6635:6709   */\n      swap2\n      pop\n        /* \"#utility.yul\":6718:6811   */\n      tag_210\n        /* \"#utility.yul\":6807:6810   */\n      dup3\n        /* \"#utility.yul\":6718:6811   */\n      tag_211\n      jump\t// in\n    tag_210:\n        /* \"#utility.yul\":6836:6838   */\n      0x20\n        /* \"#utility.yul\":6831:6834   */\n      dup3\n        /* \"#utility.yul\":6827:6839   */\n      add\n        /* \"#utility.yul\":6820:6839   */\n      swap1\n      pop\n        /* \"#utility.yul\":6479:6845   */\n      swap2\n      swap1\n      pop\n      jump\t// out\n        /* \"#utility.yul\":6851:7216   */\n    tag_212:\n        /* \"#utility.yul\":6993:6996   */\n      0x00\n        /* \"#utility.yul\":7014:7080   */\n      tag_214\n        /* \"#utility.yul\":7078:7079   */\n      0x07\n        /* \"#utility.yul\":7073:7076   */\n      dup4\n        /* \"#utility.yul\":7014:7080   */\n      tag_209\n      jump\t// in\n    tag_214:\n        /* \"#utility.yul\":7007:7080   */\n      swap2\n      pop\n        /* \"#utility.yul\":7089:7182   */\n      tag_215\n        /* \"#utility.yul\":7178:7181   */\n      dup3\n        /* \"#utility.yul\":7089:7182   */\n      tag_216\n      jump\t// in\n    tag_215:\n        /* \"#utility.yul\":7207:7209   */\n      0x20\n        /* \"#utility.yul\":7202:7205   */\n      dup3\n        /* \"#utility.yul\":7198:7210   */\n      add\n        /* \"#utility.yul\":7191:7210   */\n      swap1\n      pop\n        /* \"#utility.yul\":6851:7216   */\n      swap2\n      swap1\n      pop\n      jump\t// out\n        /* \"#utility.yul\":7282:8394   */\n    tag_217:\n        /* \"#utility.yul\":7405:7408   */\n      0x00\n        /* \"#utility.yul\":7441:7445   */\n      0x80\n        /* \"#utility.yul\":7436:7439   */\n      dup4\n        /* \"#utility.yul\":7432:7446   */\n      add\n        /* \"#utility.yul\":7534:7538   */\n      0x00\n        /* \"#utility.yul\":7527:7532   */\n      dup4\n        /* \"#utility.yul\":7523:7539   */\n      add\n        /* \"#utility.yul\":7517:7540   */\n      mload\n        /* \"#utility.yul\":7587:7590   */\n      dup5\n        /* \"#utility.yul\":7581:7585   */\n      dup3\n        /* \"#utility.yul\":7577:7591   */\n      sub\n        /* \"#utility.yul\":7570:7574   */\n      0x00\n        /* \"#utility.yul\":7565:7568   */\n      dup7\n        /* \"#utility.yul\":7561:7575   */\n      add\n        /* \"#utility.yul\":7554:7592   */\n      mstore\n        /* \"#utility.yul\":7613:7686   */\n      tag_219\n        /* \"#utility.yul\":7681:7685   */\n      dup3\n        /* \"#utility.yul\":7667:7679   */\n      dup3\n        /* \"#utility.yul\":7613:7686   */\n      tag_180\n      jump\t// in\n    tag_219:\n        /* \"#utility.yul\":7605:7686   */\n      swap2\n      pop\n        /* \"#utility.yul\":7456:7697   */\n      pop\n        /* \"#utility.yul\":7779:7783   */\n      0x20\n        /* \"#utility.yul\":7772:7777   */\n      dup4\n        /* \"#utility.yul\":7768:7784   */\n      add\n        /* \"#utility.yul\":7762:7785   */\n      mload\n        /* \"#utility.yul\":7832:7835   */\n      dup5\n        /* \"#utility.yul\":7826:7830   */\n      dup3\n        /* \"#utility.yul\":7822:7836   */\n      sub\n        /* \"#utility.yul\":7815:7819   */\n      0x20\n        /* \"#utility.yul\":7810:7813   */\n      dup7\n        /* \"#utility.yul\":7806:7820   */\n      add\n        /* \"#utility.yul\":7799:7837   */\n      mstore\n        /* \"#utility.yul\":7858:7931   */\n      tag_220\n        /* \"#utility.yul\":7926:7930   */\n      dup3\n        /* \"#utility.yul\":7912:7924   */\n      dup3\n        /* \"#utility.yul\":7858:7931   */\n      tag_180\n      jump\t// in\n    tag_220:\n        /* \"#utility.yul\":7850:7931   */\n      swap2\n      pop\n        /* \"#utility.yul\":7707:7942   */\n      pop\n        /* \"#utility.yul\":8024:8028   */\n      0x40\n        /* \"#utility.yul\":8017:8022   */\n      dup4\n        /* \"#utility.yul\":8013:8029   */\n      add\n        /* \"#utility.yul\":8007:8030   */\n      mload\n        /* \"#utility.yul\":8077:8080   */\n      dup5\n        /* \"#utility.yul\":8071:8075   */\n      dup3\n        /* \"#utility.yul\":8067:8081   */\n      sub\n        /* \"#utility.yul\":8060:8064   */\n      0x40\n        /* \"#utility.yul\":8055:8058   */\n      dup7\n        /* \"#utility.yul\":8051:8065   */\n      add\n        /* \"#utility.yul\":8044:8082   */\n      mstore\n        /* \"#utility.yul\":8103:8176   */\n      tag_221\n        /* \"#utility.yul\":8171:8175   */\n      dup3\n        /* \"#utility.yul\":8157:8169   */\n      dup3\n        /* \"#utility.yul\":8103:8176   */\n      tag_180\n      jump\t// in\n    tag_221:\n        /* \"#utility.yul\":8095:8176   */\n      swap2\n      pop\n        /* \"#utility.yul\":7952:8187   */\n      pop\n        /* \"#utility.yul\":8275:8279   */\n      0x60\n        /* \"#utility.yul\":8268:8273   */\n      dup4\n        /* \"#utility.yul\":8264:8280   */\n      add\n        /* \"#utility.yul\":8258:8281   */\n      mload\n        /* \"#utility.yul\":8294:8357   */\n      tag_222\n        /* \"#utility.yul\":8351:8355   */\n      0x60\n        /* \"#utility.yul\":8346:8349   */\n      dup7\n        /* \"#utility.yul\":8342:8356   */\n      add\n        /* \"#utility.yul\":8328:8340   */\n      dup3\n        /* \"#utility.yul\":8294:8357   */\n      tag_223\n      jump\t// in\n    tag_222:\n        /* \"#utility.yul\":8197:8367   */\n      pop\n        /* \"#utility.yul\":8384:8388   */\n      dup1\n        /* \"#utility.yul\":8377:8388   */\n      swap2\n      pop\n        /* \"#utility.yul\":7410:8394   */\n      pop\n        /* \"#utility.yul\":7282:8394   */\n      swap3\n      swap2\n      pop\n      pop\n      jump\t// out\n        /* \"#utility.yul\":8460:9142   */\n    tag_224:\n        /* \"#utility.yul\":8583:8586   */\n      0x00\n        /* \"#utility.yul\":8619:8623   */\n      0x40\n        /* \"#utility.yul\":8614:8617   */\n      dup4\n        /* \"#utility.yul\":8610:8624   */\n      add\n        /* \"#utility.yul\":8709:8713   */\n      0x00\n        /* \"#utility.yul\":8702:8707   */\n      dup4\n        /* \"#utility.yul\":8698:8714   */\n      add\n        /* \"#utility.yul\":8692:8715   */\n      mload\n        /* \"#utility.yul\":8762:8765   */\n      dup5\n        /* \"#utility.yul\":8756:8760   */\n      dup3\n        /* \"#utility.yul\":8752:8766   */\n      sub\n        /* \"#utility.yul\":8745:8749   */\n      0x00\n        /* \"#utility.yul\":8740:8743   */\n      dup7\n        /* \"#utility.yul\":8736:8750   */\n      add\n        /* \"#utility.yul\":8729:8767   */\n      mstore\n        /* \"#utility.yul\":8788:8861   */\n      tag_226\n        /* \"#utility.yul\":8856:8860   */\n      dup3\n        /* \"#utility.yul\":8842:8854   */\n      dup3\n        /* \"#utility.yul\":8788:8861   */\n      tag_180\n      jump\t// in\n    tag_226:\n        /* \"#utility.yul\":8780:8861   */\n      swap2\n      pop\n        /* \"#utility.yul\":8634:8872   */\n      pop\n        /* \"#utility.yul\":8954:8958   */\n      0x20\n        /* \"#utility.yul\":8947:8952   */\n      dup4\n        /* \"#utility.yul\":8943:8959   */\n      add\n        /* \"#utility.yul\":8937:8960   */\n      mload\n        /* \"#utility.yul\":9007:9010   */\n      dup5\n        /* \"#utility.yul\":9001:9005   */\n      dup3\n        /* \"#utility.yul\":8997:9011   */\n      sub\n        /* \"#utility.yul\":8990:8994   */\n      0x20\n        /* \"#utility.yul\":8985:8988   */\n      dup7\n        /* \"#utility.yul\":8981:8995   */\n      add\n        /* \"#utility.yul\":8974:9012   */\n      mstore\n        /* \"#utility.yul\":9033:9104   */\n      tag_227\n        /* \"#utility.yul\":9099:9103   */\n      dup3\n        /* \"#utility.yul\":9085:9097   */\n      dup3\n        /* \"#utility.yul\":9033:9104   */\n      tag_170\n      jump\t// in\n    tag_227:\n        /* \"#utility.yul\":9025:9104   */\n      swap2\n      pop\n        /* \"#utility.yul\":8882:9115   */\n      pop\n        /* \"#utility.yul\":9132:9136   */\n      dup1\n        /* \"#utility.yul\":9125:9136   */\n      swap2\n      pop\n        /* \"#utility.yul\":8588:9142   */\n      pop\n        /* \"#utility.yul\":8460:9142   */\n      swap3\n      swap2\n      pop\n      pop\n      jump\t// out\n        /* \"#utility.yul\":9148:9256   */\n    tag_223:\n        /* \"#utility.yul\":9225:9249   */\n      tag_229\n        /* \"#utility.yul\":9243:9248   */\n      dup2\n        /* \"#utility.yul\":9225:9249   */\n      tag_230\n      jump\t// in\n    tag_229:\n        /* \"#utility.yul\":9220:9223   */\n      dup3\n        /* \"#utility.yul\":9213:9250   */\n      mstore\n        /* \"#utility.yul\":9148:9256   */\n      pop\n      pop\n      jump\t// out\n        /* \"#utility.yul\":9262:9537   */\n    tag_33:\n        /* \"#utility.yul\":9394:9397   */\n      0x00\n        /* \"#utility.yul\":9416:9511   */\n      tag_232\n        /* \"#utility.yul\":9507:9510   */\n      dup3\n        /* \"#utility.yul\":9498:9504   */\n      dup5\n        /* \"#utility.yul\":9416:9511   */\n      tag_188\n      jump\t// in\n    tag_232:\n        /* \"#utility.yul\":9409:9511   */\n      swap2\n      pop\n        /* \"#utility.yul\":9528:9531   */\n      dup2\n        /* \"#utility.yul\":9521:9531   */\n      swap1\n      pop\n        /* \"#utility.yul\":9262:9537   */\n      swap3\n      swap2\n      pop\n      pop\n      jump\t// out\n        /* \"#utility.yul\":9543:9812   */\n    tag_92:\n        /* \"#utility.yul\":9672:9675   */\n      0x00\n        /* \"#utility.yul\":9694:9786   */\n      tag_234\n        /* \"#utility.yul\":9782:9785   */\n      dup3\n        /* \"#utility.yul\":9773:9779   */\n      dup5\n        /* \"#utility.yul\":9694:9786   */\n      tag_194\n      jump\t// in\n    tag_234:\n        /* \"#utility.yul\":9687:9786   */\n      swap2\n      pop\n        /* \"#utility.yul\":9803:9806   */\n      dup2\n        /* \"#utility.yul\":9796:9806   */\n      swap1\n      pop\n        /* \"#utility.yul\":9543:9812   */\n      swap3\n      swap2\n      pop\n      pop\n      jump\t// out\n        /* \"#utility.yul\":9818:10040   */\n    tag_18:\n        /* \"#utility.yul\":9911:9915   */\n      0x00\n        /* \"#utility.yul\":9949:9951   */\n      0x20\n        /* \"#utility.yul\":9938:9947   */\n      dup3\n        /* \"#utility.yul\":9934:9952   */\n      add\n        /* \"#utility.yul\":9926:9952   */\n      swap1\n      pop\n        /* \"#utility.yul\":9962:10033   */\n      tag_236\n        /* \"#utility.yul\":10030:10031   */\n      0x00\n        /* \"#utility.yul\":10019:10028   */\n      dup4\n        /* \"#utility.yul\":10015:10032   */\n      add\n        /* \"#utility.yul\":10006:10012   */\n      dup5\n        /* \"#utility.yul\":9962:10033   */\n      tag_166\n      jump\t// in\n    tag_236:\n        /* \"#utility.yul\":9818:10040   */\n      swap3\n      swap2\n      pop\n      pop\n      jump\t// out\n        /* \"#utility.yul\":10046:10465   */\n    tag_68:\n        /* \"#utility.yul\":10212:10216   */\n      0x00\n        /* \"#utility.yul\":10250:10252   */\n      0x20\n        /* \"#utility.yul\":10239:10248   */\n      dup3\n        /* \"#utility.yul\":10235:10253   */\n      add\n        /* \"#utility.yul\":10227:10253   */\n      swap1\n      pop\n        /* \"#utility.yul\":10299:10308   */\n      dup2\n        /* \"#utility.yul\":10293:10297   */\n      dup2\n        /* \"#utility.yul\":10289:10309   */\n      sub\n        /* \"#utility.yul\":10285:10286   */\n      0x00\n        /* \"#utility.yul\":10274:10283   */\n      dup4\n        /* \"#utility.yul\":10270:10287   */\n      add\n        /* \"#utility.yul\":10263:10310   */\n      mstore\n        /* \"#utility.yul\":10327:10458   */\n      tag_238\n        /* \"#utility.yul\":10453:10457   */\n      dup2\n        /* \"#utility.yul\":10327:10458   */\n      tag_206\n      jump\t// in\n    tag_238:\n        /* \"#utility.yul\":10319:10458   */\n      swap1\n      pop\n        /* \"#utility.yul\":10046:10465   */\n      swap2\n      swap1\n      pop\n      jump\t// out\n        /* \"#utility.yul\":10471:11000   */\n    tag_74:\n        /* \"#utility.yul\":10665:10669   */\n      0x00\n        /* \"#utility.yul\":10703:10705   */\n      0x40\n        /* \"#utility.yul\":10692:10701   */\n      dup3\n        /* \"#utility.yul\":10688:10706   */\n      add\n        /* \"#utility.yul\":10680:10706   */\n      swap1\n      pop\n        /* \"#utility.yul\":10752:10761   */\n      dup2\n        /* \"#utility.yul\":10746:10750   */\n      dup2\n        /* \"#utility.yul\":10742:10762   */\n      sub\n        /* \"#utility.yul\":10738:10739   */\n      0x00\n        /* \"#utility.yul\":10727:10736   */\n      dup4\n        /* \"#utility.yul\":10723:10740   */\n      add\n        /* \"#utility.yul\":10716:10763   */\n      mstore\n        /* \"#utility.yul\":10780:10911   */\n      tag_240\n        /* \"#utility.yul\":10906:10910   */\n      dup2\n        /* \"#utility.yul\":10780:10911   */\n      tag_212\n      jump\t// in\n    tag_240:\n        /* \"#utility.yul\":10772:10911   */\n      swap1\n      pop\n        /* \"#utility.yul\":10921:10993   */\n      tag_241\n        /* \"#utility.yul\":10989:10991   */\n      0x20\n        /* \"#utility.yul\":10978:10987   */\n      dup4\n        /* \"#utility.yul\":10974:10992   */\n      add\n        /* \"#utility.yul\":10965:10971   */\n      dup5\n        /* \"#utility.yul\":10921:10993   */\n      tag_166\n      jump\t// in\n    tag_241:\n        /* \"#utility.yul\":10471:11000   */\n      swap3\n      swap2\n      pop\n      pop\n      jump\t// out\n        /* \"#utility.yul\":11006:11387   */\n    tag_12:\n        /* \"#utility.yul\":11153:11157   */\n      0x00\n        /* \"#utility.yul\":11191:11193   */\n      0x20\n        /* \"#utility.yul\":11180:11189   */\n      dup3\n        /* \"#utility.yul\":11176:11194   */\n      add\n        /* \"#utility.yul\":11168:11194   */\n      swap1\n      pop\n        /* \"#utility.yul\":11240:11249   */\n      dup2\n        /* \"#utility.yul\":11234:11238   */\n      dup2\n        /* \"#utility.yul\":11230:11250   */\n      sub\n        /* \"#utility.yul\":11226:11227   */\n      0x00\n        /* \"#utility.yul\":11215:11224   */\n      dup4\n        /* \"#utility.yul\":11211:11228   */\n      add\n        /* \"#utility.yul\":11204:11251   */\n      mstore\n        /* \"#utility.yul\":11268:11380   */\n      tag_243\n        /* \"#utility.yul\":11375:11379   */\n      dup2\n        /* \"#utility.yul\":11366:11372   */\n      dup5\n        /* \"#utility.yul\":11268:11380   */\n      tag_217\n      jump\t// in\n    tag_243:\n        /* \"#utility.yul\":11260:11380   */\n      swap1\n      pop\n        /* \"#utility.yul\":11006:11387   */\n      swap3\n      swap2\n      pop\n      pop\n      jump\t// out\n        /* \"#utility.yul\":11393:11774   */\n    tag_28:\n        /* \"#utility.yul\":11540:11544   */\n      0x00\n        /* \"#utility.yul\":11578:11580   */\n      0x20\n        /* \"#utility.yul\":11567:11576   */\n      dup3\n        /* \"#utility.yul\":11563:11581   */\n      add\n        /* \"#utility.yul\":11555:11581   */\n      swap1\n      pop\n        /* \"#utility.yul\":11627:11636   */\n      dup2\n        /* \"#utility.yul\":11621:11625   */\n      dup2\n        /* \"#utility.yul\":11617:11637   */\n      sub\n        /* \"#utility.yul\":11613:11614   */\n      0x00\n        /* \"#utility.yul\":11602:11611   */\n      dup4\n        /* \"#utility.yul\":11598:11615   */\n      add\n        /* \"#utility.yul\":11591:11638   */\n      mstore\n        /* \"#utility.yul\":11655:11767   */\n      tag_245\n        /* \"#utility.yul\":11762:11766   */\n      dup2\n        /* \"#utility.yul\":11753:11759   */\n      dup5\n        /* \"#utility.yul\":11655:11767   */\n      tag_224\n      jump\t// in\n    tag_245:\n        /* \"#utility.yul\":11647:11767   */\n      swap1\n      pop\n        /* \"#utility.yul\":11393:11774   */\n      swap3\n      swap2\n      pop\n      pop\n      jump\t// out\n        /* \"#utility.yul\":11780:11909   */\n    tag_109:\n        /* \"#utility.yul\":11814:11820   */\n      0x00\n        /* \"#utility.yul\":11841:11861   */\n      tag_247\n      tag_248\n      jump\t// in\n    tag_247:\n        /* \"#utility.yul\":11831:11861   */\n      swap1\n      pop\n        /* \"#utility.yul\":11870:11903   */\n      tag_249\n        /* \"#utility.yul\":11898:11902   */\n      dup3\n        /* \"#utility.yul\":11890:11896   */\n      dup3\n        /* \"#utility.yul\":11870:11903   */\n      tag_250\n      jump\t// in\n    tag_249:\n        /* \"#utility.yul\":11780:11909   */\n      swap2\n      swap1\n      pop\n      jump\t// out\n        /* \"#utility.yul\":11915:11990   */\n    tag_248:\n        /* \"#utility.yul\":11948:11954   */\n      0x00\n        /* \"#utility.yul\":11981:11983   */\n      0x40\n        /* \"#utility.yul\":11975:11984   */\n      mload\n        /* \"#utility.yul\":11965:11984   */\n      swap1\n      pop\n        /* \"#utility.yul\":11915:11990   */\n      swap1\n      jump\t// out\n        /* \"#utility.yul\":11996:12303   */\n    tag_108:\n        /* \"#utility.yul\":12057:12061   */\n      0x00\n        /* \"#utility.yul\":12147:12165   */\n      0xffffffffffffffff\n        /* \"#utility.yul\":12139:12145   */\n      dup3\n        /* \"#utility.yul\":12136:12166   */\n      gt\n        /* \"#utility.yul\":12133:12189   */\n      iszero\n      tag_253\n      jumpi\n        /* \"#utility.yul\":12169:12187   */\n      tag_254\n      tag_255\n      jump\t// in\n    tag_254:\n        /* \"#utility.yul\":12133:12189   */\n    tag_253:\n        /* \"#utility.yul\":12207:12236   */\n      tag_256\n        /* \"#utility.yul\":12229:12235   */\n      dup3\n        /* \"#utility.yul\":12207:12236   */\n      tag_179\n      jump\t// in\n    tag_256:\n        /* \"#utility.yul\":12199:12236   */\n      swap1\n      pop\n        /* \"#utility.yul\":12291:12295   */\n      0x20\n        /* \"#utility.yul\":12285:12289   */\n      dup2\n        /* \"#utility.yul\":12281:12296   */\n      add\n        /* \"#utility.yul\":12273:12296   */\n      swap1\n      pop\n        /* \"#utility.yul\":11996:12303   */\n      swap2\n      swap1\n      pop\n      jump\t// out\n        /* \"#utility.yul\":12309:12617   */\n    tag_119:\n        /* \"#utility.yul\":12371:12375   */\n      0x00\n        /* \"#utility.yul\":12461:12479   */\n      0xffffffffffffffff\n        /* \"#utility.yul\":12453:12459   */\n      dup3\n        /* \"#utility.yul\":12450:12480   */\n      gt\n        /* \"#utility.yul\":12447:12503   */\n      iszero\n      tag_258\n      jumpi\n        /* \"#utility.yul\":12483:12501   */\n      tag_259\n      tag_255\n      jump\t// in\n    tag_259:\n        /* \"#utility.yul\":12447:12503   */\n    tag_258:\n        /* \"#utility.yul\":12521:12550   */\n      tag_260\n        /* \"#utility.yul\":12543:12549   */\n      dup3\n        /* \"#utility.yul\":12521:12550   */\n      tag_179\n      jump\t// in\n    tag_260:\n        /* \"#utility.yul\":12513:12550   */\n      swap1\n      pop\n        /* \"#utility.yul\":12605:12609   */\n      0x20\n        /* \"#utility.yul\":12599:12603   */\n      dup2\n        /* \"#utility.yul\":12595:12610   */\n      add\n        /* \"#utility.yul\":12587:12610   */\n      swap1\n      pop\n        /* \"#utility.yul\":12309:12617   */\n      swap2\n      swap1\n      pop\n      jump\t// out\n        /* \"#utility.yul\":12623:12764   */\n    tag_202:\n        /* \"#utility.yul\":12672:12676   */\n      0x00\n        /* \"#utility.yul\":12695:12698   */\n      dup2\n        /* \"#utility.yul\":12687:12698   */\n      swap1\n      pop\n        /* \"#utility.yul\":12718:12721   */\n      dup2\n        /* \"#utility.yul\":12715:12716   */\n      0x00\n        /* \"#utility.yul\":12708:12722   */\n      mstore\n        /* \"#utility.yul\":12752:12756   */\n      0x20\n        /* \"#utility.yul\":12749:12750   */\n      0x00\n        /* \"#utility.yul\":12739:12757   */\n      keccak256\n        /* \"#utility.yul\":12731:12757   */\n      swap1\n      pop\n        /* \"#utility.yul\":12623:12764   */\n      swap2\n      swap1\n      pop\n      jump\t// out\n        /* \"#utility.yul\":12770:12868   */\n    tag_173:\n        /* \"#utility.yul\":12821:12827   */\n      0x00\n        /* \"#utility.yul\":12855:12860   */\n      dup2\n        /* \"#utility.yul\":12849:12861   */\n      mload\n        /* \"#utility.yul\":12839:12861   */\n      swap1\n      pop\n        /* \"#utility.yul\":12770:12868   */\n      swap2\n      swap1\n      pop\n      jump\t// out\n        /* \"#utility.yul\":12874:12973   */\n    tag_183:\n        /* \"#utility.yul\":12926:12932   */\n      0x00\n        /* \"#utility.yul\":12960:12965   */\n      dup2\n        /* \"#utility.yul\":12954:12966   */\n      mload\n        /* \"#utility.yul\":12944:12966   */\n      swap1\n      pop\n        /* \"#utility.yul\":12874:12973   */\n      swap2\n      swap1\n      pop\n      jump\t// out\n        /* \"#utility.yul\":12979:13137   */\n    tag_175:\n        /* \"#utility.yul\":13052:13063   */\n      0x00\n        /* \"#utility.yul\":13086:13092   */\n      dup3\n        /* \"#utility.yul\":13081:13084   */\n      dup3\n        /* \"#utility.yul\":13074:13093   */\n      mstore\n        /* \"#utility.yul\":13126:13130   */\n      0x20\n        /* \"#utility.yul\":13121:13124   */\n      dup3\n        /* \"#utility.yul\":13117:13131   */\n      add\n        /* \"#utility.yul\":13102:13131   */\n      swap1\n      pop\n        /* \"#utility.yul\":12979:13137   */\n      swap3\n      swap2\n      pop\n      pop\n      jump\t// out\n        /* \"#utility.yul\":13143:13302   */\n    tag_185:\n        /* \"#utility.yul\":13217:13228   */\n      0x00\n        /* \"#utility.yul\":13251:13257   */\n      dup3\n        /* \"#utility.yul\":13246:13249   */\n      dup3\n        /* \"#utility.yul\":13239:13258   */\n      mstore\n        /* \"#utility.yul\":13291:13295   */\n      0x20\n        /* \"#utility.yul\":13286:13289   */\n      dup3\n        /* \"#utility.yul\":13282:13296   */\n      add\n        /* \"#utility.yul\":13267:13296   */\n      swap1\n      pop\n        /* \"#utility.yul\":13143:13302   */\n      swap3\n      swap2\n      pop\n      pop\n      jump\t// out\n        /* \"#utility.yul\":13308:13477   */\n    tag_209:\n        /* \"#utility.yul\":13392:13403   */\n      0x00\n        /* \"#utility.yul\":13426:13432   */\n      dup3\n        /* \"#utility.yul\":13421:13424   */\n      dup3\n        /* \"#utility.yul\":13414:13433   */\n      mstore\n        /* \"#utility.yul\":13466:13470   */\n      0x20\n        /* \"#utility.yul\":13461:13464   */\n      dup3\n        /* \"#utility.yul\":13457:13471   */\n      add\n        /* \"#utility.yul\":13442:13471   */\n      swap1\n      pop\n        /* \"#utility.yul\":13308:13477   */\n      swap3\n      swap2\n      pop\n      pop\n      jump\t// out\n        /* \"#utility.yul\":13483:13631   */\n    tag_192:\n        /* \"#utility.yul\":13585:13596   */\n      0x00\n        /* \"#utility.yul\":13622:13625   */\n      dup2\n        /* \"#utility.yul\":13607:13625   */\n      swap1\n      pop\n        /* \"#utility.yul\":13483:13631   */\n      swap3\n      swap2\n      pop\n      pop\n      jump\t// out\n        /* \"#utility.yul\":13637:13714   */\n    tag_169:\n        /* \"#utility.yul\":13674:13681   */\n      0x00\n        /* \"#utility.yul\":13703:13708   */\n      dup2\n        /* \"#utility.yul\":13692:13708   */\n      swap1\n      pop\n        /* \"#utility.yul\":13637:13714   */\n      swap2\n      swap1\n      pop\n      jump\t// out\n        /* \"#utility.yul\":13720:13797   */\n    tag_230:\n        /* \"#utility.yul\":13757:13764   */\n      0x00\n        /* \"#utility.yul\":13786:13791   */\n      dup2\n        /* \"#utility.yul\":13775:13791   */\n      swap1\n      pop\n        /* \"#utility.yul\":13720:13797   */\n      swap2\n      swap1\n      pop\n      jump\t// out\n        /* \"#utility.yul\":13803:13957   */\n    tag_114:\n        /* \"#utility.yul\":13887:13893   */\n      dup3\n        /* \"#utility.yul\":13882:13885   */\n      dup2\n        /* \"#utility.yul\":13877:13880   */\n      dup4\n        /* \"#utility.yul\":13864:13894   */\n      calldatacopy\n        /* \"#utility.yul\":13949:13950   */\n      0x00\n        /* \"#utility.yul\":13940:13946   */\n      dup4\n        /* \"#utility.yul\":13935:13938   */\n      dup4\n        /* \"#utility.yul\":13931:13947   */\n      add\n        /* \"#utility.yul\":13924:13951   */\n      mstore\n        /* \"#utility.yul\":13803:13957   */\n      pop\n      pop\n      pop\n      jump\t// out\n        /* \"#utility.yul\":13963:14270   */\n    tag_177:\n        /* \"#utility.yul\":14031:14032   */\n      0x00\n        /* \"#utility.yul\":14041:14154   */\n    tag_272:\n        /* \"#utility.yul\":14055:14061   */\n      dup4\n        /* \"#utility.yul\":14052:14053   */\n      dup2\n        /* \"#utility.yul\":14049:14062   */\n      lt\n        /* \"#utility.yul\":14041:14154   */\n      iszero\n      tag_274\n      jumpi\n        /* \"#utility.yul\":14140:14141   */\n      dup1\n        /* \"#utility.yul\":14135:14138   */\n      dup3\n        /* \"#utility.yul\":14131:14142   */\n      add\n        /* \"#utility.yul\":14125:14143   */\n      mload\n        /* \"#utility.yul\":14121:14122   */\n      dup2\n        /* \"#utility.yul\":14116:14119   */\n      dup5\n        /* \"#utility.yul\":14112:14123   */\n      add\n        /* \"#utility.yul\":14105:14144   */\n      mstore\n        /* \"#utility.yul\":14077:14079   */\n      0x20\n        /* \"#utility.yul\":14074:14075   */\n      dup2\n        /* \"#utility.yul\":14070:14080   */\n      add\n        /* \"#utility.yul\":14065:14080   */\n      swap1\n      pop\n        /* \"#utility.yul\":14041:14154   */\n      jump(tag_272)\n    tag_274:\n        /* \"#utility.yul\":14172:14178   */\n      dup4\n        /* \"#utility.yul\":14169:14170   */\n      dup2\n        /* \"#utility.yul\":14166:14179   */\n      gt\n        /* \"#utility.yul\":14163:14264   */\n      iszero\n      tag_275\n      jumpi\n        /* \"#utility.yul\":14252:14253   */\n      0x00\n        /* \"#utility.yul\":14243:14249   */\n      dup5\n        /* \"#utility.yul\":14238:14241   */\n      dup5\n        /* \"#utility.yul\":14234:14250   */\n      add\n        /* \"#utility.yul\":14227:14254   */\n      mstore\n        /* \"#utility.yul\":14163:14264   */\n    tag_275:\n        /* \"#utility.yul\":14012:14270   */\n      pop\n        /* \"#utility.yul\":13963:14270   */\n      pop\n      pop\n      pop\n      jump\t// out\n        /* \"#utility.yul\":14276:14596   */\n    tag_35:\n        /* \"#utility.yul\":14320:14326   */\n      0x00\n        /* \"#utility.yul\":14357:14358   */\n      0x02\n        /* \"#utility.yul\":14351:14355   */\n      dup3\n        /* \"#utility.yul\":14347:14359   */\n      div\n        /* \"#utility.yul\":14337:14359   */\n      swap1\n      pop\n        /* \"#utility.yul\":14404:14405   */\n      0x01\n        /* \"#utility.yul\":14398:14402   */\n      dup3\n        /* \"#utility.yul\":14394:14406   */\n      and\n        /* \"#utility.yul\":14425:14443   */\n      dup1\n        /* \"#utility.yul\":14415:14496   */\n      tag_277\n      jumpi\n        /* \"#utility.yul\":14481:14485   */\n      0x7f\n        /* \"#utility.yul\":14473:14479   */\n      dup3\n        /* \"#utility.yul\":14469:14486   */\n      and\n        /* \"#utility.yul\":14459:14486   */\n      swap2\n      pop\n        /* \"#utility.yul\":14415:14496   */\n    tag_277:\n        /* \"#utility.yul\":14543:14545   */\n      0x20\n        /* \"#utility.yul\":14535:14541   */\n      dup3\n        /* \"#utility.yul\":14532:14546   */\n      lt\n        /* \"#utility.yul\":14512:14530   */\n      dup2\n        /* \"#utility.yul\":14509:14547   */\n      eq\n        /* \"#utility.yul\":14506:14590   */\n      iszero\n      tag_278\n      jumpi\n        /* \"#utility.yul\":14562:14580   */\n      tag_279\n      tag_280\n      jump\t// in\n    tag_279:\n        /* \"#utility.yul\":14506:14590   */\n    tag_278:\n        /* \"#utility.yul\":14327:14596   */\n      pop\n        /* \"#utility.yul\":14276:14596   */\n      swap2\n      swap1\n      pop\n      jump\t// out\n        /* \"#utility.yul\":14602:14883   */\n    tag_250:\n        /* \"#utility.yul\":14685:14712   */\n      tag_282\n        /* \"#utility.yul\":14707:14711   */\n      dup3\n        /* \"#utility.yul\":14685:14712   */\n      tag_179\n      jump\t// in\n    tag_282:\n        /* \"#utility.yul\":14677:14683   */\n      dup2\n        /* \"#utility.yul\":14673:14713   */\n      add\n        /* \"#utility.yul\":14815:14821   */\n      dup2\n        /* \"#utility.yul\":14803:14813   */\n      dup2\n        /* \"#utility.yul\":14800:14822   */\n      lt\n        /* \"#utility.yul\":14779:14797   */\n      0xffffffffffffffff\n        /* \"#utility.yul\":14767:14777   */\n      dup3\n        /* \"#utility.yul\":14764:14798   */\n      gt\n        /* \"#utility.yul\":14761:14823   */\n      or\n        /* \"#utility.yul\":14758:14846   */\n      iszero\n      tag_283\n      jumpi\n        /* \"#utility.yul\":14826:14844   */\n      tag_284\n      tag_255\n      jump\t// in\n    tag_284:\n        /* \"#utility.yul\":14758:14846   */\n    tag_283:\n        /* \"#utility.yul\":14866:14876   */\n      dup1\n        /* \"#utility.yul\":14862:14864   */\n      0x40\n        /* \"#utility.yul\":14855:14877   */\n      mstore\n        /* \"#utility.yul\":14645:14883   */\n      pop\n        /* \"#utility.yul\":14602:14883   */\n      pop\n      pop\n      jump\t// out\n        /* \"#utility.yul\":14889:15069   */\n    tag_280:\n        /* \"#utility.yul\":14937:15014   */\n      0x4e487b7100000000000000000000000000000000000000000000000000000000\n        /* \"#utility.yul\":14934:14935   */\n      0x00\n        /* \"#utility.yul\":14927:15015   */\n      mstore\n        /* \"#utility.yul\":15034:15038   */\n      0x22\n        /* \"#utility.yul\":15031:15032   */\n      0x04\n        /* \"#utility.yul\":15024:15039   */\n      mstore\n        /* \"#utility.yul\":15058:15062   */\n      0x24\n        /* \"#utility.yul\":15055:15056   */\n      0x00\n        /* \"#utility.yul\":15048:15063   */\n      revert\n        /* \"#utility.yul\":15075:15255   */\n    tag_255:\n        /* \"#utility.yul\":15123:15200   */\n      0x4e487b7100000000000000000000000000000000000000000000000000000000\n        /* \"#utility.yul\":15120:15121   */\n      0x00\n        /* \"#utility.yul\":15113:15201   */\n      mstore\n        /* \"#utility.yul\":15220:15224   */\n      0x41\n        /* \"#utility.yul\":15217:15218   */\n      0x04\n        /* \"#utility.yul\":15210:15225   */\n      mstore\n        /* \"#utility.yul\":15244:15248   */\n      0x24\n        /* \"#utility.yul\":15241:15242   */\n      0x00\n        /* \"#utility.yul\":15234:15249   */\n      revert\n        /* \"#utility.yul\":15261:15378   */\n    tag_127:\n        /* \"#utility.yul\":15370:15371   */\n      0x00\n        /* \"#utility.yul\":15367:15368   */\n      dup1\n        /* \"#utility.yul\":15360:15372   */\n      revert\n        /* \"#utility.yul\":15384:15501   */\n    tag_112:\n        /* \"#utility.yul\":15493:15494   */\n      0x00\n        /* \"#utility.yul\":15490:15491   */\n      dup1\n        /* \"#utility.yul\":15483:15495   */\n      revert\n        /* \"#utility.yul\":15507:15624   */\n    tag_140:\n        /* \"#utility.yul\":15616:15617   */\n      0x00\n        /* \"#utility.yul\":15613:15614   */\n      dup1\n        /* \"#utility.yul\":15606:15618   */\n      revert\n        /* \"#utility.yul\":15630:15747   */\n    tag_137:\n        /* \"#utility.yul\":15739:15740   */\n      0x00\n        /* \"#utility.yul\":15736:15737   */\n      dup1\n        /* \"#utility.yul\":15729:15741   */\n      revert\n        /* \"#utility.yul\":15753:15855   */\n    tag_179:\n        /* \"#utility.yul\":15794:15800   */\n      0x00\n        /* \"#utility.yul\":15845:15847   */\n      0x1f\n        /* \"#utility.yul\":15841:15848   */\n      not\n        /* \"#utility.yul\":15836:15838   */\n      0x1f\n        /* \"#utility.yul\":15829:15834   */\n      dup4\n        /* \"#utility.yul\":15825:15839   */\n      add\n        /* \"#utility.yul\":15821:15849   */\n      and\n        /* \"#utility.yul\":15811:15849   */\n      swap1\n      pop\n        /* \"#utility.yul\":15753:15855   */\n      swap2\n      swap1\n      pop\n      jump\t// out\n        /* \"#utility.yul\":15861:16035   */\n    tag_211:\n        /* \"#utility.yul\":16001:16027   */\n      0x4163636f756e7420616c7265616479206578697374696e670000000000000000\n        /* \"#utility.yul\":15997:15998   */\n      0x00\n        /* \"#utility.yul\":15989:15995   */\n      dup3\n        /* \"#utility.yul\":15985:15999   */\n      add\n        /* \"#utility.yul\":15978:16028   */\n      mstore\n        /* \"#utility.yul\":15861:16035   */\n      pop\n      jump\t// out\n        /* \"#utility.yul\":16041:16198   */\n    tag_216:\n        /* \"#utility.yul\":16181:16190   */\n      0x7375636365737300000000000000000000000000000000000000000000000000\n        /* \"#utility.yul\":16177:16178   */\n      0x00\n        /* \"#utility.yul\":16169:16175   */\n      dup3\n        /* \"#utility.yul\":16165:16179   */\n      add\n        /* \"#utility.yul\":16158:16191   */\n      mstore\n        /* \"#utility.yul\":16041:16198   */\n      pop\n      jump\t// out\n\n    auxdata: 0xa26469706673582212200f52e0f8f1e80ef21da901a800ca666e79ade96ec612f011e856c63adfadac4064736f6c63430008070033\n}\n",
				"bytecode": {
					"linkReferences": {},
					"object": "608060405234801561001057600080fd5b506110ec806100206000396000f3fe608060405234801561001057600080fd5b506004361061004c5760003560e01c8063174ba7ff146100515780635b62132d14610081578063b24c908a146100b1578063ca5e208f146100e1575b600080fd5b61006b6004803603810190610066919061098b565b610111565b6040516100789190610df4565b60405180910390f35b61009b600480360381019061009691906109d4565b610329565b6040516100a89190610d8b565b60405180910390f35b6100cb60048036038101906100c69190610a7b565b6104b9565b6040516100d89190610d8b565b60405180910390f35b6100fb60048036038101906100f6919061098b565b6105db565b6040516101089190610e16565b60405180910390f35b6101196107c6565b60008260405160200161012c9190610d5d565b60405160208183030381529060405280519060200120905060008082815260200190815260200160002060405180608001604052908160008201805461017190610f7e565b80601f016020809104026020016040519081016040528092919081815260200182805461019d90610f7e565b80156101ea5780601f106101bf576101008083540402835291602001916101ea565b820191906000526020600020905b8154815290600101906020018083116101cd57829003601f168201915b5050505050815260200160018201805461020390610f7e565b80601f016020809104026020016040519081016040528092919081815260200182805461022f90610f7e565b801561027c5780601f106102515761010080835404028352916020019161027c565b820191906000526020600020905b81548152906001019060200180831161025f57829003601f168201915b5050505050815260200160028201805461029590610f7e565b80601f01602080910402602001604051908101604052809291908181526020018280546102c190610f7e565b801561030e5780601f106102e35761010080835404028352916020019161030e565b820191906000526020600020905b8154815290600101906020018083116102f157829003601f168201915b50505050508152602001600382015481525050915050919050565b6000808460405160200161033d9190610d5d565b60405160208183030381529060405280519060200120905060006001600083815260200190815260200160002060405180604001604052908160008201805461038590610f7e565b80601f01602080910402602001604051908101604052809291908181526020018280546103b190610f7e565b80156103fe5780601f106103d3576101008083540402835291602001916103fe565b820191906000526020600020905b8154815290600101906020018083116103e157829003601f168201915b5050505050815260200160018201805461041790610f7e565b80601f016020809104026020016040519081016040528092919081815260200182805461044390610f7e565b80156104905780601f1061046557610100808354040283529160200191610490565b820191906000526020600020905b81548152906001019060200180831161047357829003601f168201915b505050505081525050905084816000018190525083816020018190525081925050509392505050565b600080846040516020016104cd9190610d5d565b6040516020818303038152906040528051906020012090506104ef8186610758565b61052e576040517f08c379a000000000000000000000000000000000000000000000000000000000815260040161052590610da6565b60405180910390fd5b600080600083815260200190815260200160002090508581600001908051906020019061055c9291906107ee565b50848160010190805190602001906105759291906107ee565b508381600201908051906020019061058e9291906107ee565b504281600301819055507fc8922d91fbabbe8df5d667708c678575856a856a2a465ebd9626a40ab6a16f5f826040516105c79190610dc6565b60405180910390a181925050509392505050565b6105e3610874565b6000826040516020016105f69190610d5d565b6040516020818303038152906040528051906020012090506001600082815260200190815260200160002060405180604001604052908160008201805461063c90610f7e565b80601f016020809104026020016040519081016040528092919081815260200182805461066890610f7e565b80156106b55780601f1061068a576101008083540402835291602001916106b5565b820191906000526020600020905b81548152906001019060200180831161069857829003601f168201915b505050505081526020016001820180546106ce90610f7e565b80601f01602080910402602001604051908101604052809291908181526020018280546106fa90610f7e565b80156107475780601f1061071c57610100808354040283529160200191610747565b820191906000526020600020905b81548152906001019060200180831161072a57829003601f168201915b505050505081525050915050919050565b60008160405160200161076b9190610d5d565b604051602081830303815290604052805190602001206000808581526020019081526020016000206000016040516020016107a69190610d74565b604051602081830303815290604052805190602001201415905092915050565b6040518060800160405280606081526020016060815260200160608152602001600081525090565b8280546107fa90610f7e565b90600052602060002090601f01602090048101928261081c5760008555610863565b82601f1061083557805160ff1916838001178555610863565b82800160010185558215610863579182015b82811115610862578251825591602001919060010190610847565b5b509050610870919061088e565b5090565b604051806040016040528060608152602001606081525090565b5b808211156108a757600081600090555060010161088f565b5090565b60006108be6108b984610e5d565b610e38565b9050828152602081018484840111156108da576108d9611044565b5b6108e5848285610f3c565b509392505050565b60006109006108fb84610e8e565b610e38565b90508281526020810184848401111561091c5761091b611044565b5b610927848285610f3c565b509392505050565b600082601f8301126109445761094361103f565b5b81356109548482602086016108ab565b91505092915050565b600082601f8301126109725761097161103f565b5b81356109828482602086016108ed565b91505092915050565b6000602082840312156109a1576109a061104e565b5b600082013567ffffffffffffffff8111156109bf576109be611049565b5b6109cb8482850161095d565b91505092915050565b6000806000606084860312156109ed576109ec61104e565b5b600084013567ffffffffffffffff811115610a0b57610a0a611049565b5b610a178682870161095d565b935050602084013567ffffffffffffffff811115610a3857610a37611049565b5b610a448682870161095d565b925050604084013567ffffffffffffffff811115610a6557610a64611049565b5b610a718682870161092f565b9150509250925092565b600080600060608486031215610a9457610a9361104e565b5b600084013567ffffffffffffffff811115610ab257610ab1611049565b5b610abe8682870161095d565b935050602084013567ffffffffffffffff811115610adf57610ade611049565b5b610aeb8682870161095d565b925050604084013567ffffffffffffffff811115610b0c57610b0b611049565b5b610b188682870161095d565b9150509250925092565b610b2b81610f28565b82525050565b6000610b3c82610ed4565b610b468185610eea565b9350610b56818560208601610f4b565b610b5f81611053565b840191505092915050565b6000610b7582610edf565b610b7f8185610efb565b9350610b8f818560208601610f4b565b610b9881611053565b840191505092915050565b6000610bae82610edf565b610bb88185610f1d565b9350610bc8818560208601610f4b565b80840191505092915050565b60008154610be181610f7e565b610beb8186610f1d565b94506001821660008114610c065760018114610c1757610c4a565b60ff19831686528186019350610c4a565b610c2085610ebf565b60005b83811015610c4257815481890152600182019150602081019050610c23565b838801955050505b50505092915050565b6000610c60601883610f0c565b9150610c6b82611064565b602082019050919050565b6000610c83600783610f0c565b9150610c8e8261108d565b602082019050919050565b60006080830160008301518482036000860152610cb68282610b6a565b91505060208301518482036020860152610cd08282610b6a565b91505060408301518482036040860152610cea8282610b6a565b9150506060830151610cff6060860182610d4e565b508091505092915050565b60006040830160008301518482036000860152610d278282610b6a565b91505060208301518482036020860152610d418282610b31565b9150508091505092915050565b610d5781610f32565b82525050565b6000610d698284610ba3565b915081905092915050565b6000610d808284610bd4565b915081905092915050565b6000602082019050610da06000830184610b22565b92915050565b60006020820190508181036000830152610dbf81610c53565b9050919050565b60006040820190508181036000830152610ddf81610c76565b9050610dee6020830184610b22565b92915050565b60006020820190508181036000830152610e0e8184610c99565b905092915050565b60006020820190508181036000830152610e308184610d0a565b905092915050565b6000610e42610e53565b9050610e4e8282610fb0565b919050565b6000604051905090565b600067ffffffffffffffff821115610e7857610e77611010565b5b610e8182611053565b9050602081019050919050565b600067ffffffffffffffff821115610ea957610ea8611010565b5b610eb282611053565b9050602081019050919050565b60008190508160005260206000209050919050565b600081519050919050565b600081519050919050565b600082825260208201905092915050565b600082825260208201905092915050565b600082825260208201905092915050565b600081905092915050565b6000819050919050565b6000819050919050565b82818337600083830152505050565b60005b83811015610f69578082015181840152602081019050610f4e565b83811115610f78576000848401525b50505050565b60006002820490506001821680610f9657607f821691505b60208210811415610faa57610fa9610fe1565b5b50919050565b610fb982611053565b810181811067ffffffffffffffff82111715610fd857610fd7611010565b5b80604052505050565b7f4e487b7100000000000000000000000000000000000000000000000000000000600052602260045260246000fd5b7f4e487b7100000000000000000000000000000000000000000000000000000000600052604160045260246000fd5b600080fd5b600080fd5b600080fd5b600080fd5b6000601f19601f8301169050919050565b7f4163636f756e7420616c7265616479206578697374696e670000000000000000600082015250565b7f737563636573730000000000000000000000000000000000000000000000000060008201525056fea26469706673582212200f52e0f8f1e80ef21da901a800ca666e79ade96ec612f011e856c63adfadac4064736f6c63430008070033",
					"opcodes": "PUSH1 0x80 PUSH1 0x40 MSTORE CALLVALUE DUP1 ISZERO PUSH2 0x10 JUMPI PUSH1 0x0 DUP1 REVERT JUMPDEST POP PUSH2 0x10EC DUP1 PUSH2 0x20 PUSH1 0x0 CODECOPY PUSH1 0x0 RETURN INVALID PUSH1 0x80 PUSH1 0x40 MSTORE CALLVALUE DUP1 ISZERO PUSH2 0x10 JUMPI PUSH1 0x0 DUP1 REVERT JUMPDEST POP PUSH1 0x4 CALLDATASIZE LT PUSH2 0x4C JUMPI PUSH1 0x0 CALLDATALOAD PUSH1 0xE0 SHR DUP1 PUSH4 0x174BA7FF EQ PUSH2 0x51 JUMPI DUP1 PUSH4 0x5B62132D EQ PUSH2 0x81 JUMPI DUP1 PUSH4 0xB24C908A EQ PUSH2 0xB1 JUMPI DUP1 PUSH4 0xCA5E208F EQ PUSH2 0xE1 JUMPI JUMPDEST PUSH1 0x0 DUP1 REVERT JUMPDEST PUSH2 0x6B PUSH1 0x4 DUP1 CALLDATASIZE SUB DUP2 ADD SWAP1 PUSH2 0x66 SWAP2 SWAP1 PUSH2 0x98B JUMP JUMPDEST PUSH2 0x111 JUMP JUMPDEST PUSH1 0x40 MLOAD PUSH2 0x78 SWAP2 SWAP1 PUSH2 0xDF4 JUMP JUMPDEST PUSH1 0x40 MLOAD DUP1 SWAP2 SUB SWAP1 RETURN JUMPDEST PUSH2 0x9B PUSH1 0x4 DUP1 CALLDATASIZE SUB DUP2 ADD SWAP1 PUSH2 0x96 SWAP2 SWAP1 PUSH2 0x9D4 JUMP JUMPDEST PUSH2 0x329 JUMP JUMPDEST PUSH1 0x40 MLOAD PUSH2 0xA8 SWAP2 SWAP1 PUSH2 0xD8B JUMP JUMPDEST PUSH1 0x40 MLOAD DUP1 SWAP2 SUB SWAP1 RETURN JUMPDEST PUSH2 0xCB PUSH1 0x4 DUP1 CALLDATASIZE SUB DUP2 ADD SWAP1 PUSH2 0xC6 SWAP2 SWAP1 PUSH2 0xA7B JUMP JUMPDEST PUSH2 0x4B9 JUMP JUMPDEST PUSH1 0x40 MLOAD PUSH2 0xD8 SWAP2 SWAP1 PUSH2 0xD8B JUMP JUMPDEST PUSH1 0x40 MLOAD DUP1 SWAP2 SUB SWAP1 RETURN JUMPDEST PUSH2 0xFB PUSH1 0x4 DUP1 CALLDATASIZE SUB DUP2 ADD SWAP1 PUSH2 0xF6 SWAP2 SWAP1 PUSH2 0x98B JUMP JUMPDEST PUSH2 0x5DB JUMP JUMPDEST PUSH1 0x40 MLOAD PUSH2 0x108 SWAP2 SWAP1 PUSH2 0xE16 JUMP JUMPDEST PUSH1 0x40 MLOAD DUP1 SWAP2 SUB SWAP1 RETURN JUMPDEST PUSH2 0x119 PUSH2 0x7C6 JUMP JUMPDEST PUSH1 0x0 DUP3 PUSH1 0x40 MLOAD PUSH1 0x20 ADD PUSH2 0x12C SWAP2 SWAP1 PUSH2 0xD5D JUMP JUMPDEST PUSH1 0x40 MLOAD PUSH1 0x20 DUP2 DUP4 SUB SUB DUP2 MSTORE SWAP1 PUSH1 0x40 MSTORE DUP1 MLOAD SWAP1 PUSH1 0x20 ADD KECCAK256 SWAP1 POP PUSH1 0x0 DUP1 DUP3 DUP2 MSTORE PUSH1 0x20 ADD SWAP1 DUP2 MSTORE PUSH1 0x20 ADD PUSH1 0x0 KECCAK256 PUSH1 0x40 MLOAD DUP1 PUSH1 0x80 ADD PUSH1 0x40 MSTORE SWAP1 DUP2 PUSH1 0x0 DUP3 ADD DUP1 SLOAD PUSH2 0x171 SWAP1 PUSH2 0xF7E JUMP JUMPDEST DUP1 PUSH1 0x1F ADD PUSH1 0x20 DUP1 SWAP2 DIV MUL PUSH1 0x20 ADD PUSH1 0x40 MLOAD SWAP1 DUP2 ADD PUSH1 0x40 MSTORE DUP1 SWAP3 SWAP2 SWAP1 DUP2 DUP2 MSTORE PUSH1 0x20 ADD DUP3 DUP1 SLOAD PUSH2 0x19D SWAP1 PUSH2 0xF7E JUMP JUMPDEST DUP1 ISZERO PUSH2 0x1EA JUMPI DUP1 PUSH1 0x1F LT PUSH2 0x1BF JUMPI PUSH2 0x100 DUP1 DUP4 SLOAD DIV MUL DUP4 MSTORE SWAP2 PUSH1 0x20 ADD SWAP2 PUSH2 0x1EA JUMP JUMPDEST DUP3 ADD SWAP2 SWAP1 PUSH1 0x0 MSTORE PUSH1 0x20 PUSH1 0x0 KECCAK256 SWAP1 JUMPDEST DUP2 SLOAD DUP2 MSTORE SWAP1 PUSH1 0x1 ADD SWAP1 PUSH1 0x20 ADD DUP1 DUP4 GT PUSH2 0x1CD JUMPI DUP3 SWAP1 SUB PUSH1 0x1F AND DUP3 ADD SWAP2 JUMPDEST POP POP POP POP POP DUP2 MSTORE PUSH1 0x20 ADD PUSH1 0x1 DUP3 ADD DUP1 SLOAD PUSH2 0x203 SWAP1 PUSH2 0xF7E JUMP JUMPDEST DUP1 PUSH1 0x1F ADD PUSH1 0x20 DUP1 SWAP2 DIV MUL PUSH1 0x20 ADD PUSH1 0x40 MLOAD SWAP1 DUP2 ADD PUSH1 0x40 MSTORE DUP1 SWAP3 SWAP2 SWAP1 DUP2 DUP2 MSTORE PUSH1 0x20 ADD DUP3 DUP1 SLOAD PUSH2 0x22F SWAP1 PUSH2 0xF7E JUMP JUMPDEST DUP1 ISZERO PUSH2 0x27C JUMPI DUP1 PUSH1 0x1F LT PUSH2 0x251 JUMPI PUSH2 0x100 DUP1 DUP4 SLOAD DIV MUL DUP4 MSTORE SWAP2 PUSH1 0x20 ADD SWAP2 PUSH2 0x27C JUMP JUMPDEST DUP3 ADD SWAP2 SWAP1 PUSH1 0x0 MSTORE PUSH1 0x20 PUSH1 0x0 KECCAK256 SWAP1 JUMPDEST DUP2 SLOAD DUP2 MSTORE SWAP1 PUSH1 0x1 ADD SWAP1 PUSH1 0x20 ADD DUP1 DUP4 GT PUSH2 0x25F JUMPI DUP3 SWAP1 SUB PUSH1 0x1F AND DUP3 ADD SWAP2 JUMPDEST POP POP POP POP POP DUP2 MSTORE PUSH1 0x20 ADD PUSH1 0x2 DUP3 ADD DUP1 SLOAD PUSH2 0x295 SWAP1 PUSH2 0xF7E JUMP JUMPDEST DUP1 PUSH1 0x1F ADD PUSH1 0x20 DUP1 SWAP2 DIV MUL PUSH1 0x20 ADD PUSH1 0x40 MLOAD SWAP1 DUP2 ADD PUSH1 0x40 MSTORE DUP1 SWAP3 SWAP2 SWAP1 DUP2 DUP2 MSTORE PUSH1 0x20 ADD DUP3 DUP1 SLOAD PUSH2 0x2C1 SWAP1 PUSH2 0xF7E JUMP JUMPDEST DUP1 ISZERO PUSH2 0x30E JUMPI DUP1 PUSH1 0x1F LT PUSH2 0x2E3 JUMPI PUSH2 0x100 DUP1 DUP4 SLOAD DIV MUL DUP4 MSTORE SWAP2 PUSH1 0x20 ADD SWAP2 PUSH2 0x30E JUMP JUMPDEST DUP3 ADD SWAP2 SWAP1 PUSH1 0x0 MSTORE PUSH1 0x20 PUSH1 0x0 KECCAK256 SWAP1 JUMPDEST DUP2 SLOAD DUP2 MSTORE SWAP1 PUSH1 0x1 ADD SWAP1 PUSH1 0x20 ADD DUP1 DUP4 GT PUSH2 0x2F1 JUMPI DUP3 SWAP1 SUB PUSH1 0x1F AND DUP3 ADD SWAP2 JUMPDEST POP POP POP POP POP DUP2 MSTORE PUSH1 0x20 ADD PUSH1 0x3 DUP3 ADD SLOAD DUP2 MSTORE POP POP SWAP2 POP POP SWAP2 SWAP1 POP JUMP JUMPDEST PUSH1 0x0 DUP1 DUP5 PUSH1 0x40 MLOAD PUSH1 0x20 ADD PUSH2 0x33D SWAP2 SWAP1 PUSH2 0xD5D JUMP JUMPDEST PUSH1 0x40 MLOAD PUSH1 0x20 DUP2 DUP4 SUB SUB DUP2 MSTORE SWAP1 PUSH1 0x40 MSTORE DUP1 MLOAD SWAP1 PUSH1 0x20 ADD KECCAK256 SWAP1 POP PUSH1 0x0 PUSH1 0x1 PUSH1 0x0 DUP4 DUP2 MSTORE PUSH1 0x20 ADD SWAP1 DUP2 MSTORE PUSH1 0x20 ADD PUSH1 0x0 KECCAK256 PUSH1 0x40 MLOAD DUP1 PUSH1 0x40 ADD PUSH1 0x40 MSTORE SWAP1 DUP2 PUSH1 0x0 DUP3 ADD DUP1 SLOAD PUSH2 0x385 SWAP1 PUSH2 0xF7E JUMP JUMPDEST DUP1 PUSH1 0x1F ADD PUSH1 0x20 DUP1 SWAP2 DIV MUL PUSH1 0x20 ADD PUSH1 0x40 MLOAD SWAP1 DUP2 ADD PUSH1 0x40 MSTORE DUP1 SWAP3 SWAP2 SWAP1 DUP2 DUP2 MSTORE PUSH1 0x20 ADD DUP3 DUP1 SLOAD PUSH2 0x3B1 SWAP1 PUSH2 0xF7E JUMP JUMPDEST DUP1 ISZERO PUSH2 0x3FE JUMPI DUP1 PUSH1 0x1F LT PUSH2 0x3D3 JUMPI PUSH2 0x100 DUP1 DUP4 SLOAD DIV MUL DUP4 MSTORE SWAP2 PUSH1 0x20 ADD SWAP2 PUSH2 0x3FE JUMP JUMPDEST DUP3 ADD SWAP2 SWAP1 PUSH1 0x0 MSTORE PUSH1 0x20 PUSH1 0x0 KECCAK256 SWAP1 JUMPDEST DUP2 SLOAD DUP2 MSTORE SWAP1 PUSH1 0x1 ADD SWAP1 PUSH1 0x20 ADD DUP1 DUP4 GT PUSH2 0x3E1 JUMPI DUP3 SWAP1 SUB PUSH1 0x1F AND DUP3 ADD SWAP2 JUMPDEST POP POP POP POP POP DUP2 MSTORE PUSH1 0x20 ADD PUSH1 0x1 DUP3 ADD DUP1 SLOAD PUSH2 0x417 SWAP1 PUSH2 0xF7E JUMP JUMPDEST DUP1 PUSH1 0x1F ADD PUSH1 0x20 DUP1 SWAP2 DIV MUL PUSH1 0x20 ADD PUSH1 0x40 MLOAD SWAP1 DUP2 ADD PUSH1 0x40 MSTORE DUP1 SWAP3 SWAP2 SWAP1 DUP2 DUP2 MSTORE PUSH1 0x20 ADD DUP3 DUP1 SLOAD PUSH2 0x443 SWAP1 PUSH2 0xF7E JUMP JUMPDEST DUP1 ISZERO PUSH2 0x490 JUMPI DUP1 PUSH1 0x1F LT PUSH2 0x465 JUMPI PUSH2 0x100 DUP1 DUP4 SLOAD DIV MUL DUP4 MSTORE SWAP2 PUSH1 0x20 ADD SWAP2 PUSH2 0x490 JUMP JUMPDEST DUP3 ADD SWAP2 SWAP1 PUSH1 0x0 MSTORE PUSH1 0x20 PUSH1 0x0 KECCAK256 SWAP1 JUMPDEST DUP2 SLOAD DUP2 MSTORE SWAP1 PUSH1 0x1 ADD SWAP1 PUSH1 0x20 ADD DUP1 DUP4 GT PUSH2 0x473 JUMPI DUP3 SWAP1 SUB PUSH1 0x1F AND DUP3 ADD SWAP2 JUMPDEST POP POP POP POP POP DUP2 MSTORE POP POP SWAP1 POP DUP5 DUP2 PUSH1 0x0 ADD DUP2 SWAP1 MSTORE POP DUP4 DUP2 PUSH1 0x20 ADD DUP2 SWAP1 MSTORE POP DUP2 SWAP3 POP POP POP SWAP4 SWAP3 POP POP POP JUMP JUMPDEST PUSH1 0x0 DUP1 DUP5 PUSH1 0x40 MLOAD PUSH1 0x20 ADD PUSH2 0x4CD SWAP2 SWAP1 PUSH2 0xD5D JUMP JUMPDEST PUSH1 0x40 MLOAD PUSH1 0x20 DUP2 DUP4 SUB SUB DUP2 MSTORE SWAP1 PUSH1 0x40 MSTORE DUP1 MLOAD SWAP1 PUSH1 0x20 ADD KECCAK256 SWAP1 POP PUSH2 0x4EF DUP2 DUP7 PUSH2 0x758 JUMP JUMPDEST PUSH2 0x52E JUMPI PUSH1 0x40 MLOAD PUSH32 0x8C379A000000000000000000000000000000000000000000000000000000000 DUP2 MSTORE PUSH1 0x4 ADD PUSH2 0x525 SWAP1 PUSH2 0xDA6 JUMP JUMPDEST PUSH1 0x40 MLOAD DUP1 SWAP2 SUB SWAP1 REVERT JUMPDEST PUSH1 0x0 DUP1 PUSH1 0x0 DUP4 DUP2 MSTORE PUSH1 0x20 ADD SWAP1 DUP2 MSTORE PUSH1 0x20 ADD PUSH1 0x0 KECCAK256 SWAP1 POP DUP6 DUP2 PUSH1 0x0 ADD SWAP1 DUP1 MLOAD SWAP1 PUSH1 0x20 ADD SWAP1 PUSH2 0x55C SWAP3 SWAP2 SWAP1 PUSH2 0x7EE JUMP JUMPDEST POP DUP5 DUP2 PUSH1 0x1 ADD SWAP1 DUP1 MLOAD SWAP1 PUSH1 0x20 ADD SWAP1 PUSH2 0x575 SWAP3 SWAP2 SWAP1 PUSH2 0x7EE JUMP JUMPDEST POP DUP4 DUP2 PUSH1 0x2 ADD SWAP1 DUP1 MLOAD SWAP1 PUSH1 0x20 ADD SWAP1 PUSH2 0x58E SWAP3 SWAP2 SWAP1 PUSH2 0x7EE JUMP JUMPDEST POP TIMESTAMP DUP2 PUSH1 0x3 ADD DUP2 SWAP1 SSTORE POP PUSH32 0xC8922D91FBABBE8DF5D667708C678575856A856A2A465EBD9626A40AB6A16F5F DUP3 PUSH1 0x40 MLOAD PUSH2 0x5C7 SWAP2 SWAP1 PUSH2 0xDC6 JUMP JUMPDEST PUSH1 0x40 MLOAD DUP1 SWAP2 SUB SWAP1 LOG1 DUP2 SWAP3 POP POP POP SWAP4 SWAP3 POP POP POP JUMP JUMPDEST PUSH2 0x5E3 PUSH2 0x874 JUMP JUMPDEST PUSH1 0x0 DUP3 PUSH1 0x40 MLOAD PUSH1 0x20 ADD PUSH2 0x5F6 SWAP2 SWAP1 PUSH2 0xD5D JUMP JUMPDEST PUSH1 0x40 MLOAD PUSH1 0x20 DUP2 DUP4 SUB SUB DUP2 MSTORE SWAP1 PUSH1 0x40 MSTORE DUP1 MLOAD SWAP1 PUSH1 0x20 ADD KECCAK256 SWAP1 POP PUSH1 0x1 PUSH1 0x0 DUP3 DUP2 MSTORE PUSH1 0x20 ADD SWAP1 DUP2 MSTORE PUSH1 0x20 ADD PUSH1 0x0 KECCAK256 PUSH1 0x40 MLOAD DUP1 PUSH1 0x40 ADD PUSH1 0x40 MSTORE SWAP1 DUP2 PUSH1 0x0 DUP3 ADD DUP1 SLOAD PUSH2 0x63C SWAP1 PUSH2 0xF7E JUMP JUMPDEST DUP1 PUSH1 0x1F ADD PUSH1 0x20 DUP1 SWAP2 DIV MUL PUSH1 0x20 ADD PUSH1 0x40 MLOAD SWAP1 DUP2 ADD PUSH1 0x40 MSTORE DUP1 SWAP3 SWAP2 SWAP1 DUP2 DUP2 MSTORE PUSH1 0x20 ADD DUP3 DUP1 SLOAD PUSH2 0x668 SWAP1 PUSH2 0xF7E JUMP JUMPDEST DUP1 ISZERO PUSH2 0x6B5 JUMPI DUP1 PUSH1 0x1F LT PUSH2 0x68A JUMPI PUSH2 0x100 DUP1 DUP4 SLOAD DIV MUL DUP4 MSTORE SWAP2 PUSH1 0x20 ADD SWAP2 PUSH2 0x6B5 JUMP JUMPDEST DUP3 ADD SWAP2 SWAP1 PUSH1 0x0 MSTORE PUSH1 0x20 PUSH1 0x0 KECCAK256 SWAP1 JUMPDEST DUP2 SLOAD DUP2 MSTORE SWAP1 PUSH1 0x1 ADD SWAP1 PUSH1 0x20 ADD DUP1 DUP4 GT PUSH2 0x698 JUMPI DUP3 SWAP1 SUB PUSH1 0x1F AND DUP3 ADD SWAP2 JUMPDEST POP POP POP POP POP DUP2 MSTORE PUSH1 0x20 ADD PUSH1 0x1 DUP3 ADD DUP1 SLOAD PUSH2 0x6CE SWAP1 PUSH2 0xF7E JUMP JUMPDEST DUP1 PUSH1 0x1F ADD PUSH1 0x20 DUP1 SWAP2 DIV MUL PUSH1 0x20 ADD PUSH1 0x40 MLOAD SWAP1 DUP2 ADD PUSH1 0x40 MSTORE DUP1 SWAP3 SWAP2 SWAP1 DUP2 DUP2 MSTORE PUSH1 0x20 ADD DUP3 DUP1 SLOAD PUSH2 0x6FA SWAP1 PUSH2 0xF7E JUMP JUMPDEST DUP1 ISZERO PUSH2 0x747 JUMPI DUP1 PUSH1 0x1F LT PUSH2 0x71C JUMPI PUSH2 0x100 DUP1 DUP4 SLOAD DIV MUL DUP4 MSTORE SWAP2 PUSH1 0x20 ADD SWAP2 PUSH2 0x747 JUMP JUMPDEST DUP3 ADD SWAP2 SWAP1 PUSH1 0x0 MSTORE PUSH1 0x20 PUSH1 0x0 KECCAK256 SWAP1 JUMPDEST DUP2 SLOAD DUP2 MSTORE SWAP1 PUSH1 0x1 ADD SWAP1 PUSH1 0x20 ADD DUP1 DUP4 GT PUSH2 0x72A JUMPI DUP3 SWAP1 SUB PUSH1 0x1F AND DUP3 ADD SWAP2 JUMPDEST POP POP POP POP POP DUP2 MSTORE POP POP SWAP2 POP POP SWAP2 SWAP1 POP JUMP JUMPDEST PUSH1 0x0 DUP2 PUSH1 0x40 MLOAD PUSH1 0x20 ADD PUSH2 0x76B SWAP2 SWAP1 PUSH2 0xD5D JUMP JUMPDEST PUSH1 0x40 MLOAD PUSH1 0x20 DUP2 DUP4 SUB SUB DUP2 MSTORE SWAP1 PUSH1 0x40 MSTORE DUP1 MLOAD SWAP1 PUSH1 0x20 ADD KECCAK256 PUSH1 0x0 DUP1 DUP6 DUP2 MSTORE PUSH1 0x20 ADD SWAP1 DUP2 MSTORE PUSH1 0x20 ADD PUSH1 0x0 KECCAK256 PUSH1 0x0 ADD PUSH1 0x40 MLOAD PUSH1 0x20 ADD PUSH2 0x7A6 SWAP2 SWAP1 PUSH2 0xD74 JUMP JUMPDEST PUSH1 0x40 MLOAD PUSH1 0x20 DUP2 DUP4 SUB SUB DUP2 MSTORE SWAP1 PUSH1 0x40 MSTORE DUP1 MLOAD SWAP1 PUSH1 0x20 ADD KECCAK256 EQ ISZERO SWAP1 POP SWAP3 SWAP2 POP POP JUMP JUMPDEST PUSH1 0x40 MLOAD DUP1 PUSH1 0x80 ADD PUSH1 0x40 MSTORE DUP1 PUSH1 0x60 DUP2 MSTORE PUSH1 0x20 ADD PUSH1 0x60 DUP2 MSTORE PUSH1 0x20 ADD PUSH1 0x60 DUP2 MSTORE PUSH1 0x20 ADD PUSH1 0x0 DUP2 MSTORE POP SWAP1 JUMP JUMPDEST DUP3 DUP1 SLOAD PUSH2 0x7FA SWAP1 PUSH2 0xF7E JUMP JUMPDEST SWAP1 PUSH1 0x0 MSTORE PUSH1 0x20 PUSH1 0x0 KECCAK256 SWAP1 PUSH1 0x1F ADD PUSH1 0x20 SWAP1 DIV DUP2 ADD SWAP3 DUP3 PUSH2 0x81C JUMPI PUSH1 0x0 DUP6 SSTORE PUSH2 0x863 JUMP JUMPDEST DUP3 PUSH1 0x1F LT PUSH2 0x835 JUMPI DUP1 MLOAD PUSH1 0xFF NOT AND DUP4 DUP1 ADD OR DUP6 SSTORE PUSH2 0x863 JUMP JUMPDEST DUP3 DUP1 ADD PUSH1 0x1 ADD DUP6 SSTORE DUP3 ISZERO PUSH2 0x863 JUMPI SWAP2 DUP3 ADD JUMPDEST DUP3 DUP2 GT ISZERO PUSH2 0x862 JUMPI DUP3 MLOAD DUP3 SSTORE SWAP2 PUSH1 0x20 ADD SWAP2 SWAP1 PUSH1 0x1 ADD SWAP1 PUSH2 0x847 JUMP JUMPDEST JUMPDEST POP SWAP1 POP PUSH2 0x870 SWAP2 SWAP1 PUSH2 0x88E JUMP JUMPDEST POP SWAP1 JUMP JUMPDEST PUSH1 0x40 MLOAD DUP1 PUSH1 0x40 ADD PUSH1 0x40 MSTORE DUP1 PUSH1 0x60 DUP2 MSTORE PUSH1 0x20 ADD PUSH1 0x60 DUP2 MSTORE POP SWAP1 JUMP JUMPDEST JUMPDEST DUP1 DUP3 GT ISZERO PUSH2 0x8A7 JUMPI PUSH1 0x0 DUP2 PUSH1 0x0 SWAP1 SSTORE POP PUSH1 0x1 ADD PUSH2 0x88F JUMP JUMPDEST POP SWAP1 JUMP JUMPDEST PUSH1 0x0 PUSH2 0x8BE PUSH2 0x8B9 DUP5 PUSH2 0xE5D JUMP JUMPDEST PUSH2 0xE38 JUMP JUMPDEST SWAP1 POP DUP3 DUP2 MSTORE PUSH1 0x20 DUP2 ADD DUP5 DUP5 DUP5 ADD GT ISZERO PUSH2 0x8DA JUMPI PUSH2 0x8D9 PUSH2 0x1044 JUMP JUMPDEST JUMPDEST PUSH2 0x8E5 DUP5 DUP3 DUP6 PUSH2 0xF3C JUMP JUMPDEST POP SWAP4 SWAP3 POP POP POP JUMP JUMPDEST PUSH1 0x0 PUSH2 0x900 PUSH2 0x8FB DUP5 PUSH2 0xE8E JUMP JUMPDEST PUSH2 0xE38 JUMP JUMPDEST SWAP1 POP DUP3 DUP2 MSTORE PUSH1 0x20 DUP2 ADD DUP5 DUP5 DUP5 ADD GT ISZERO PUSH2 0x91C JUMPI PUSH2 0x91B PUSH2 0x1044 JUMP JUMPDEST JUMPDEST PUSH2 0x927 DUP5 DUP3 DUP6 PUSH2 0xF3C JUMP JUMPDEST POP SWAP4 SWAP3 POP POP POP JUMP JUMPDEST PUSH1 0x0 DUP3 PUSH1 0x1F DUP4 ADD SLT PUSH2 0x944 JUMPI PUSH2 0x943 PUSH2 0x103F JUMP JUMPDEST JUMPDEST DUP2 CALLDATALOAD PUSH2 0x954 DUP5 DUP3 PUSH1 0x20 DUP7 ADD PUSH2 0x8AB JUMP JUMPDEST SWAP2 POP POP SWAP3 SWAP2 POP POP JUMP JUMPDEST PUSH1 0x0 DUP3 PUSH1 0x1F DUP4 ADD SLT PUSH2 0x972 JUMPI PUSH2 0x971 PUSH2 0x103F JUMP JUMPDEST JUMPDEST DUP2 CALLDATALOAD PUSH2 0x982 DUP5 DUP3 PUSH1 0x20 DUP7 ADD PUSH2 0x8ED JUMP JUMPDEST SWAP2 POP POP SWAP3 SWAP2 POP POP JUMP JUMPDEST PUSH1 0x0 PUSH1 0x20 DUP3 DUP5 SUB SLT ISZERO PUSH2 0x9A1 JUMPI PUSH2 0x9A0 PUSH2 0x104E JUMP JUMPDEST JUMPDEST PUSH1 0x0 DUP3 ADD CALLDATALOAD PUSH8 0xFFFFFFFFFFFFFFFF DUP2 GT ISZERO PUSH2 0x9BF JUMPI PUSH2 0x9BE PUSH2 0x1049 JUMP JUMPDEST JUMPDEST PUSH2 0x9CB DUP5 DUP3 DUP6 ADD PUSH2 0x95D JUMP JUMPDEST SWAP2 POP POP SWAP3 SWAP2 POP POP JUMP JUMPDEST PUSH1 0x0 DUP1 PUSH1 0x0 PUSH1 0x60 DUP5 DUP7 SUB SLT ISZERO PUSH2 0x9ED JUMPI PUSH2 0x9EC PUSH2 0x104E JUMP JUMPDEST JUMPDEST PUSH1 0x0 DUP5 ADD CALLDATALOAD PUSH8 0xFFFFFFFFFFFFFFFF DUP2 GT ISZERO PUSH2 0xA0B JUMPI PUSH2 0xA0A PUSH2 0x1049 JUMP JUMPDEST JUMPDEST PUSH2 0xA17 DUP7 DUP3 DUP8 ADD PUSH2 0x95D JUMP JUMPDEST SWAP4 POP POP PUSH1 0x20 DUP5 ADD CALLDATALOAD PUSH8 0xFFFFFFFFFFFFFFFF DUP2 GT ISZERO PUSH2 0xA38 JUMPI PUSH2 0xA37 PUSH2 0x1049 JUMP JUMPDEST JUMPDEST PUSH2 0xA44 DUP7 DUP3 DUP8 ADD PUSH2 0x95D JUMP JUMPDEST SWAP3 POP POP PUSH1 0x40 DUP5 ADD CALLDATALOAD PUSH8 0xFFFFFFFFFFFFFFFF DUP2 GT ISZERO PUSH2 0xA65 JUMPI PUSH2 0xA64 PUSH2 0x1049 JUMP JUMPDEST JUMPDEST PUSH2 0xA71 DUP7 DUP3 DUP8 ADD PUSH2 0x92F JUMP JUMPDEST SWAP2 POP POP SWAP3 POP SWAP3 POP SWAP3 JUMP JUMPDEST PUSH1 0x0 DUP1 PUSH1 0x0 PUSH1 0x60 DUP5 DUP7 SUB SLT ISZERO PUSH2 0xA94 JUMPI PUSH2 0xA93 PUSH2 0x104E JUMP JUMPDEST JUMPDEST PUSH1 0x0 DUP5 ADD CALLDATALOAD PUSH8 0xFFFFFFFFFFFFFFFF DUP2 GT ISZERO PUSH2 0xAB2 JUMPI PUSH2 0xAB1 PUSH2 0x1049 JUMP JUMPDEST JUMPDEST PUSH2 0xABE DUP7 DUP3 DUP8 ADD PUSH2 0x95D JUMP JUMPDEST SWAP4 POP POP PUSH1 0x20 DUP5 ADD CALLDATALOAD PUSH8 0xFFFFFFFFFFFFFFFF DUP2 GT ISZERO PUSH2 0xADF JUMPI PUSH2 0xADE PUSH2 0x1049 JUMP JUMPDEST JUMPDEST PUSH2 0xAEB DUP7 DUP3 DUP8 ADD PUSH2 0x95D JUMP JUMPDEST SWAP3 POP POP PUSH1 0x40 DUP5 ADD CALLDATALOAD PUSH8 0xFFFFFFFFFFFFFFFF DUP2 GT ISZERO PUSH2 0xB0C JUMPI PUSH2 0xB0B PUSH2 0x1049 JUMP JUMPDEST JUMPDEST PUSH2 0xB18 DUP7 DUP3 DUP8 ADD PUSH2 0x95D JUMP JUMPDEST SWAP2 POP POP SWAP3 POP SWAP3 POP SWAP3 JUMP JUMPDEST PUSH2 0xB2B DUP2 PUSH2 0xF28 JUMP JUMPDEST DUP3 MSTORE POP POP JUMP JUMPDEST PUSH1 0x0 PUSH2 0xB3C DUP3 PUSH2 0xED4 JUMP JUMPDEST PUSH2 0xB46 DUP2 DUP6 PUSH2 0xEEA JUMP JUMPDEST SWAP4 POP PUSH2 0xB56 DUP2 DUP6 PUSH1 0x20 DUP7 ADD PUSH2 0xF4B JUMP JUMPDEST PUSH2 0xB5F DUP2 PUSH2 0x1053 JUMP JUMPDEST DUP5 ADD SWAP2 POP POP SWAP3 SWAP2 POP POP JUMP JUMPDEST PUSH1 0x0 PUSH2 0xB75 DUP3 PUSH2 0xEDF JUMP JUMPDEST PUSH2 0xB7F DUP2 DUP6 PUSH2 0xEFB JUMP JUMPDEST SWAP4 POP PUSH2 0xB8F DUP2 DUP6 PUSH1 0x20 DUP7 ADD PUSH2 0xF4B JUMP JUMPDEST PUSH2 0xB98 DUP2 PUSH2 0x1053 JUMP JUMPDEST DUP5 ADD SWAP2 POP POP SWAP3 SWAP2 POP POP JUMP JUMPDEST PUSH1 0x0 PUSH2 0xBAE DUP3 PUSH2 0xEDF JUMP JUMPDEST PUSH2 0xBB8 DUP2 DUP6 PUSH2 0xF1D JUMP JUMPDEST SWAP4 POP PUSH2 0xBC8 DUP2 DUP6 PUSH1 0x20 DUP7 ADD PUSH2 0xF4B JUMP JUMPDEST DUP1 DUP5 ADD SWAP2 POP POP SWAP3 SWAP2 POP POP JUMP JUMPDEST PUSH1 0x0 DUP2 SLOAD PUSH2 0xBE1 DUP2 PUSH2 0xF7E JUMP JUMPDEST PUSH2 0xBEB DUP2 DUP7 PUSH2 0xF1D JUMP JUMPDEST SWAP5 POP PUSH1 0x1 DUP3 AND PUSH1 0x0 DUP2 EQ PUSH2 0xC06 JUMPI PUSH1 0x1 DUP2 EQ PUSH2 0xC17 JUMPI PUSH2 0xC4A JUMP JUMPDEST PUSH1 0xFF NOT DUP4 AND DUP7 MSTORE DUP2 DUP7 ADD SWAP4 POP PUSH2 0xC4A JUMP JUMPDEST PUSH2 0xC20 DUP6 PUSH2 0xEBF JUMP JUMPDEST PUSH1 0x0 JUMPDEST DUP4 DUP2 LT ISZERO PUSH2 0xC42 JUMPI DUP2 SLOAD DUP2 DUP10 ADD MSTORE PUSH1 0x1 DUP3 ADD SWAP2 POP PUSH1 0x20 DUP2 ADD SWAP1 POP PUSH2 0xC23 JUMP JUMPDEST DUP4 DUP9 ADD SWAP6 POP POP POP JUMPDEST POP POP POP SWAP3 SWAP2 POP POP JUMP JUMPDEST PUSH1 0x0 PUSH2 0xC60 PUSH1 0x18 DUP4 PUSH2 0xF0C JUMP JUMPDEST SWAP2 POP PUSH2 0xC6B DUP3 PUSH2 0x1064 JUMP JUMPDEST PUSH1 0x20 DUP3 ADD SWAP1 POP SWAP2 SWAP1 POP JUMP JUMPDEST PUSH1 0x0 PUSH2 0xC83 PUSH1 0x7 DUP4 PUSH2 0xF0C JUMP JUMPDEST SWAP2 POP PUSH2 0xC8E DUP3 PUSH2 0x108D JUMP JUMPDEST PUSH1 0x20 DUP3 ADD SWAP1 POP SWAP2 SWAP1 POP JUMP JUMPDEST PUSH1 0x0 PUSH1 0x80 DUP4 ADD PUSH1 0x0 DUP4 ADD MLOAD DUP5 DUP3 SUB PUSH1 0x0 DUP7 ADD MSTORE PUSH2 0xCB6 DUP3 DUP3 PUSH2 0xB6A JUMP JUMPDEST SWAP2 POP POP PUSH1 0x20 DUP4 ADD MLOAD DUP5 DUP3 SUB PUSH1 0x20 DUP7 ADD MSTORE PUSH2 0xCD0 DUP3 DUP3 PUSH2 0xB6A JUMP JUMPDEST SWAP2 POP POP PUSH1 0x40 DUP4 ADD MLOAD DUP5 DUP3 SUB PUSH1 0x40 DUP7 ADD MSTORE PUSH2 0xCEA DUP3 DUP3 PUSH2 0xB6A JUMP JUMPDEST SWAP2 POP POP PUSH1 0x60 DUP4 ADD MLOAD PUSH2 0xCFF PUSH1 0x60 DUP7 ADD DUP3 PUSH2 0xD4E JUMP JUMPDEST POP DUP1 SWAP2 POP POP SWAP3 SWAP2 POP POP JUMP JUMPDEST PUSH1 0x0 PUSH1 0x40 DUP4 ADD PUSH1 0x0 DUP4 ADD MLOAD DUP5 DUP3 SUB PUSH1 0x0 DUP7 ADD MSTORE PUSH2 0xD27 DUP3 DUP3 PUSH2 0xB6A JUMP JUMPDEST SWAP2 POP POP PUSH1 0x20 DUP4 ADD MLOAD DUP5 DUP3 SUB PUSH1 0x20 DUP7 ADD MSTORE PUSH2 0xD41 DUP3 DUP3 PUSH2 0xB31 JUMP JUMPDEST SWAP2 POP POP DUP1 SWAP2 POP POP SWAP3 SWAP2 POP POP JUMP JUMPDEST PUSH2 0xD57 DUP2 PUSH2 0xF32 JUMP JUMPDEST DUP3 MSTORE POP POP JUMP JUMPDEST PUSH1 0x0 PUSH2 0xD69 DUP3 DUP5 PUSH2 0xBA3 JUMP JUMPDEST SWAP2 POP DUP2 SWAP1 POP SWAP3 SWAP2 POP POP JUMP JUMPDEST PUSH1 0x0 PUSH2 0xD80 DUP3 DUP5 PUSH2 0xBD4 JUMP JUMPDEST SWAP2 POP DUP2 SWAP1 POP SWAP3 SWAP2 POP POP JUMP JUMPDEST PUSH1 0x0 PUSH1 0x20 DUP3 ADD SWAP1 POP PUSH2 0xDA0 PUSH1 0x0 DUP4 ADD DUP5 PUSH2 0xB22 JUMP JUMPDEST SWAP3 SWAP2 POP POP JUMP JUMPDEST PUSH1 0x0 PUSH1 0x20 DUP3 ADD SWAP1 POP DUP2 DUP2 SUB PUSH1 0x0 DUP4 ADD MSTORE PUSH2 0xDBF DUP2 PUSH2 0xC53 JUMP JUMPDEST SWAP1 POP SWAP2 SWAP1 POP JUMP JUMPDEST PUSH1 0x0 PUSH1 0x40 DUP3 ADD SWAP1 POP DUP2 DUP2 SUB PUSH1 0x0 DUP4 ADD MSTORE PUSH2 0xDDF DUP2 PUSH2 0xC76 JUMP JUMPDEST SWAP1 POP PUSH2 0xDEE PUSH1 0x20 DUP4 ADD DUP5 PUSH2 0xB22 JUMP JUMPDEST SWAP3 SWAP2 POP POP JUMP JUMPDEST PUSH1 0x0 PUSH1 0x20 DUP3 ADD SWAP1 POP DUP2 DUP2 SUB PUSH1 0x0 DUP4 ADD MSTORE PUSH2 0xE0E DUP2 DUP5 PUSH2 0xC99 JUMP JUMPDEST SWAP1 POP SWAP3 SWAP2 POP POP JUMP JUMPDEST PUSH1 0x0 PUSH1 0x20 DUP3 ADD SWAP1 POP DUP2 DUP2 SUB PUSH1 0x0 DUP4 ADD MSTORE PUSH2 0xE30 DUP2 DUP5 PUSH2 0xD0A JUMP JUMPDEST SWAP1 POP SWAP3 SWAP2 POP POP JUMP JUMPDEST PUSH1 0x0 PUSH2 0xE42 PUSH2 0xE53 JUMP JUMPDEST SWAP1 POP PUSH2 0xE4E DUP3 DUP3 PUSH2 0xFB0 JUMP JUMPDEST SWAP2 SWAP1 POP JUMP JUMPDEST PUSH1 0x0 PUSH1 0x40 MLOAD SWAP1 POP SWAP1 JUMP JUMPDEST PUSH1 0x0 PUSH8 0xFFFFFFFFFFFFFFFF DUP3 GT ISZERO PUSH2 0xE78 JUMPI PUSH2 0xE77 PUSH2 0x1010 JUMP JUMPDEST JUMPDEST PUSH2 0xE81 DUP3 PUSH2 0x1053 JUMP JUMPDEST SWAP1 POP PUSH1 0x20 DUP2 ADD SWAP1 POP SWAP2 SWAP1 POP JUMP JUMPDEST PUSH1 0x0 PUSH8 0xFFFFFFFFFFFFFFFF DUP3 GT ISZERO PUSH2 0xEA9 JUMPI PUSH2 0xEA8 PUSH2 0x1010 JUMP JUMPDEST JUMPDEST PUSH2 0xEB2 DUP3 PUSH2 0x1053 JUMP JUMPDEST SWAP1 POP PUSH1 0x20 DUP2 ADD SWAP1 POP SWAP2 SWAP1 POP JUMP JUMPDEST PUSH1 0x0 DUP2 SWAP1 POP DUP2 PUSH1 0x0 MSTORE PUSH1 0x20 PUSH1 0x0 KECCAK256 SWAP1 POP SWAP2 SWAP1 POP JUMP JUMPDEST PUSH1 0x0 DUP2 MLOAD SWAP1 POP SWAP2 SWAP1 POP JUMP JUMPDEST PUSH1 0x0 DUP2 MLOAD SWAP1 POP SWAP2 SWAP1 POP JUMP JUMPDEST PUSH1 0x0 DUP3 DUP3 MSTORE PUSH1 0x20 DUP3 ADD SWAP1 POP SWAP3 SWAP2 POP POP JUMP JUMPDEST PUSH1 0x0 DUP3 DUP3 MSTORE PUSH1 0x20 DUP3 ADD SWAP1 POP SWAP3 SWAP2 POP POP JUMP JUMPDEST PUSH1 0x0 DUP3 DUP3 MSTORE PUSH1 0x20 DUP3 ADD SWAP1 POP SWAP3 SWAP2 POP POP JUMP JUMPDEST PUSH1 0x0 DUP2 SWAP1 POP SWAP3 SWAP2 POP POP JUMP JUMPDEST PUSH1 0x0 DUP2 SWAP1 POP SWAP2 SWAP1 POP JUMP JUMPDEST PUSH1 0x0 DUP2 SWAP1 POP SWAP2 SWAP1 POP JUMP JUMPDEST DUP3 DUP2 DUP4 CALLDATACOPY PUSH1 0x0 DUP4 DUP4 ADD MSTORE POP POP POP JUMP JUMPDEST PUSH1 0x0 JUMPDEST DUP4 DUP2 LT ISZERO PUSH2 0xF69 JUMPI DUP1 DUP3 ADD MLOAD DUP2 DUP5 ADD MSTORE PUSH1 0x20 DUP2 ADD SWAP1 POP PUSH2 0xF4E JUMP JUMPDEST DUP4 DUP2 GT ISZERO PUSH2 0xF78 JUMPI PUSH1 0x0 DUP5 DUP5 ADD MSTORE JUMPDEST POP POP POP POP JUMP JUMPDEST PUSH1 0x0 PUSH1 0x2 DUP3 DIV SWAP1 POP PUSH1 0x1 DUP3 AND DUP1 PUSH2 0xF96 JUMPI PUSH1 0x7F DUP3 AND SWAP2 POP JUMPDEST PUSH1 0x20 DUP3 LT DUP2 EQ ISZERO PUSH2 0xFAA JUMPI PUSH2 0xFA9 PUSH2 0xFE1 JUMP JUMPDEST JUMPDEST POP SWAP2 SWAP1 POP JUMP JUMPDEST PUSH2 0xFB9 DUP3 PUSH2 0x1053 JUMP JUMPDEST DUP2 ADD DUP2 DUP2 LT PUSH8 0xFFFFFFFFFFFFFFFF DUP3 GT OR ISZERO PUSH2 0xFD8 JUMPI PUSH2 0xFD7 PUSH2 0x1010 JUMP JUMPDEST JUMPDEST DUP1 PUSH1 0x40 MSTORE POP POP POP JUMP JUMPDEST PUSH32 0x4E487B7100000000000000000000000000000000000000000000000000000000 PUSH1 0x0 MSTORE PUSH1 0x22 PUSH1 0x4 MSTORE PUSH1 0x24 PUSH1 0x0 REVERT JUMPDEST PUSH32 0x4E487B7100000000000000000000000000000000000000000000000000000000 PUSH1 0x0 MSTORE PUSH1 0x41 PUSH1 0x4 MSTORE PUSH1 0x24 PUSH1 0x0 REVERT JUMPDEST PUSH1 0x0 DUP1 REVERT JUMPDEST PUSH1 0x0 DUP1 REVERT JUMPDEST PUSH1 0x0 DUP1 REVERT JUMPDEST PUSH1 0x0 DUP1 REVERT JUMPDEST PUSH1 0x0 PUSH1 0x1F NOT PUSH1 0x1F DUP4 ADD AND SWAP1 POP SWAP2 SWAP1 POP JUMP JUMPDEST PUSH32 0x4163636F756E7420616C7265616479206578697374696E670000000000000000 PUSH1 0x0 DUP3 ADD MSTORE POP JUMP JUMPDEST PUSH32 0x7375636365737300000000000000000000000000000000000000000000000000 PUSH1 0x0 DUP3 ADD MSTORE POP JUMP INVALID LOG2 PUSH5 0x6970667358 0x22 SLT KECCAK256 0xF MSTORE 0xE0 0xF8 CALL 0xE8 0xE CALLCODE SAR 0xA9 ADD 0xA8 STOP 0xCA PUSH7 0x6E79ADE96EC612 CREATE GT 0xE8 JUMP 0xC6 GASPRICE 0xDF 0xAD 0xAC BLOCKHASH PUSH5 0x736F6C6343 STOP ADDMOD SMOD STOP CALLER "
				},
				"gasEstimates": {
					"creation": {
						"codeDepositCost": "866400",
						"executionCost": "903",
						"totalCost": "867303"
					},
					"external": {
						"add_account(string,string,string)": "infinite",
						"add_transaction(string,string,bytes)": "infinite",
						"get_account(string)": "infinite",
						"get_transaction(string)": "infinite"
					},
					"internal": {
						"account_checker(bytes32,string memory)": "infinite"
					}
				},
				"methodIdentifiers": {
					"add_account(string,string,string)": "b24c908a",
					"add_transaction(string,string,bytes)": "5b62132d",
					"get_account(string)": "174ba7ff",
					"get_transaction(string)": "ca5e208f"
				}
			},
			"storageLayout": {
				"storage": [
					{
						"astId": 21,
						"contract": "contracts/Halal.sol:Halal",
						"label": "mappingAccount",
						"offset": 0,
						"slot": "0",
						"type": "t_mapping(t_bytes32,t_struct(accountData)16_storage)"
					},
					{
						"astId": 31,
						"contract": "contracts/Halal.sol:Halal",
						"label": "mappingTransaction",
						"offset": 0,
						"slot": "1",
						"type": "t_mapping(t_bytes32,t_struct(transaction)26_storage)"
					},
					{
						"astId": 41,
						"contract": "contracts/Halal.sol:Halal",
						"label": "mappingCertificate",
						"offset": 0,
						"slot": "2",
						"type": "t_mapping(t_bytes32,t_struct(certificate)36_storage)"
					}
				],
				"types": {
					"t_bytes32": {
						"encoding": "inplace",
						"label": "bytes32",
						"numberOfBytes": "32"
					},
					"t_bytes_storage": {
						"encoding": "bytes",
						"label": "bytes",
						"numberOfBytes": "32"
					},
					"t_mapping(t_bytes32,t_struct(accountData)16_storage)": {
						"encoding": "mapping",
						"key": "t_bytes32",
						"label": "mapping(bytes32 => struct Halal.accountData)",
						"numberOfBytes": "32",
						"value": "t_struct(accountData)16_storage"
					},
					"t_mapping(t_bytes32,t_struct(certificate)36_storage)": {
						"encoding": "mapping",
						"key": "t_bytes32",
						"label": "mapping(bytes32 => struct Halal.certificate)",
						"numberOfBytes": "32",
						"value": "t_struct(certificate)36_storage"
					},
					"t_mapping(t_bytes32,t_struct(transaction)26_storage)": {
						"encoding": "mapping",
						"key": "t_bytes32",
						"label": "mapping(bytes32 => struct Halal.transaction)",
						"numberOfBytes": "32",
						"value": "t_struct(transaction)26_storage"
					},
					"t_string_storage": {
						"encoding": "bytes",
						"label": "string",
						"numberOfBytes": "32"
					},
					"t_struct(accountData)16_storage": {
						"encoding": "inplace",
						"label": "struct Halal.accountData",
						"members": [
							{
								"astId": 9,
								"contract": "contracts/Halal.sol:Halal",
								"label": "account_id",
								"offset": 0,
								"slot": "0",
								"type": "t_string_storage"
							},
							{
								"astId": 11,
								"contract": "contracts/Halal.sol:Halal",
								"label": "name",
								"offset": 0,
								"slot": "1",
								"type": "t_string_storage"
							},
							{
								"astId": 13,
								"contract": "contracts/Halal.sol:Halal",
								"label": "role",
								"offset": 0,
								"slot": "2",
								"type": "t_string_storage"
							},
							{
								"astId": 15,
								"contract": "contracts/Halal.sol:Halal",
								"label": "created_at",
								"offset": 0,
								"slot": "3",
								"type": "t_uint256"
							}
						],
						"numberOfBytes": "128"
					},
					"t_struct(certificate)36_storage": {
						"encoding": "inplace",
						"label": "struct Halal.certificate",
						"members": [
							{
								"astId": 33,
								"contract": "contracts/Halal.sol:Halal",
								"label": "umkm_id",
								"offset": 0,
								"slot": "0",
								"type": "t_string_storage"
							},
							{
								"astId": 35,
								"contract": "contracts/Halal.sol:Halal",
								"label": "certificate_id",
								"offset": 0,
								"slot": "1",
								"type": "t_string_storage"
							}
						],
						"numberOfBytes": "64"
					},
					"t_struct(transaction)26_storage": {
						"encoding": "inplace",
						"label": "struct Halal.transaction",
						"members": [
							{
								"astId": 23,
								"contract": "contracts/Halal.sol:Halal",
								"label": "user_id",
								"offset": 0,
								"slot": "0",
								"type": "t_string_storage"
							},
							{
								"astId": 25,
								"contract": "contracts/Halal.sol:Halal",
								"label": "data",
								"offset": 0,
								"slot": "1",
								"type": "t_bytes_storage"
							}
						],
						"numberOfBytes": "64"
					},
					"t_uint256": {
						"encoding": "inplace",
						"label": "uint256",
						"numberOfBytes": "32"
					}
				}
			},
			"userdoc": {
				"kind": "user",
				"methods": {},
				"version": 1
			}
		}
	}
}