{
	"contracts/Halal.sol": {
		"Halal": {
			"abi": [
				{
					"anonymous": false,
					"inputs": [
						{
							"indexed": false,
							"internalType": "string",
							"name": "status",
							"type": "string"
						},
						{
							"indexed": false,
							"internalType": "bytes32",
							"name": "message",
							"type": "bytes32"
						}
					],
					"name": "success",
					"type": "event"
				},
				{
					"inputs": [
						{
							"internalType": "string",
							"name": "account_id",
							"type": "string"
						},
						{
							"internalType": "string",
							"name": "name",
							"type": "string"
						},
						{
							"internalType": "string",
							"name": "role",
							"type": "string"
						}
					],
					"name": "add_account",
					"outputs": [
						{
							"internalType": "bytes32",
							"name": "",
							"type": "bytes32"
						}
					],
					"stateMutability": "nonpayable",
					"type": "function"
				},
				{
					"inputs": [
						{
							"internalType": "bytes32",
							"name": "",
							"type": "bytes32"
						}
					],
					"name": "mappingAccount",
					"outputs": [
						{
							"internalType": "string",
							"name": "account_id",
							"type": "string"
						},
						{
							"internalType": "string",
							"name": "name",
							"type": "string"
						},
						{
							"internalType": "string",
							"name": "role",
							"type": "string"
						},
						{
							"internalType": "uint256",
							"name": "created_at",
							"type": "uint256"
						}
					],
					"stateMutability": "view",
					"type": "function"
				},
				{
					"inputs": [
						{
							"internalType": "bytes32",
							"name": "",
							"type": "bytes32"
						}
					],
					"name": "mappingTransaction",
					"outputs": [
						{
							"internalType": "string",
							"name": "umkm_id",
							"type": "string"
						},
						{
							"internalType": "bool",
							"name": "reg_status",
							"type": "bool"
						},
						{
							"internalType": "uint256",
							"name": "reg_date",
							"type": "uint256"
						},
						{
							"internalType": "string",
							"name": "bpjph_desc",
							"type": "string"
						},
						{
							"internalType": "string",
							"name": "bpjph_result",
							"type": "string"
						},
						{
							"internalType": "string",
							"name": "lph_appintment",
							"type": "string"
						},
						{
							"internalType": "string",
							"name": "bpjph_id",
							"type": "string"
						},
						{
							"internalType": "string",
							"name": "lph_desc",
							"type": "string"
						},
						{
							"internalType": "string",
							"name": "review_status",
							"type": "string"
						},
						{
							"internalType": "string",
							"name": "desicion_mui",
							"type": "string"
						},
						{
							"internalType": "bool",
							"name": "mui_approved",
							"type": "bool"
						},
						{
							"internalType": "string",
							"name": "cert_data",
							"type": "string"
						}
					],
					"stateMutability": "view",
					"type": "function"
				}
			],
			"devdoc": {
				"kind": "dev",
				"methods": {},
				"version": 1
			},
			"evm": {
				"assembly": "    /* \"contracts/Halal.sol\":62:1191  contract Halal{... */\n  mstore(0x40, 0x80)\n  callvalue\n  dup1\n  iszero\n  tag_1\n  jumpi\n  0x00\n  dup1\n  revert\ntag_1:\n  pop\n  dataSize(sub_0)\n  dup1\n  dataOffset(sub_0)\n  0x00\n  codecopy\n  0x00\n  return\nstop\n\nsub_0: assembly {\n        /* \"contracts/Halal.sol\":62:1191  contract Halal{... */\n      mstore(0x40, 0x80)\n      callvalue\n      dup1\n      iszero\n      tag_1\n      jumpi\n      0x00\n      dup1\n      revert\n    tag_1:\n      pop\n      jumpi(tag_2, lt(calldatasize, 0x04))\n      shr(0xe0, calldataload(0x00))\n      dup1\n      0x30ee52a9\n      eq\n      tag_3\n      jumpi\n      dup1\n      0x462e1eed\n      eq\n      tag_4\n      jumpi\n      dup1\n      0xb24c908a\n      eq\n      tag_5\n      jumpi\n    tag_2:\n      0x00\n      dup1\n      revert\n        /* \"contracts/Halal.sol\":675:733  mapping (bytes32 => transaction) public mappingTransaction */\n    tag_3:\n      tag_6\n      0x04\n      dup1\n      calldatasize\n      sub\n      dup2\n      add\n      swap1\n      tag_7\n      swap2\n      swap1\n      tag_8\n      jump\t// in\n    tag_7:\n      tag_9\n      jump\t// in\n    tag_6:\n      mload(0x40)\n      tag_10\n      swap13\n      swap12\n      swap11\n      swap10\n      swap9\n      swap8\n      swap7\n      swap6\n      swap5\n      swap4\n      swap3\n      swap2\n      swap1\n      tag_11\n      jump\t// in\n    tag_10:\n      mload(0x40)\n      dup1\n      swap2\n      sub\n      swap1\n      return\n        /* \"contracts/Halal.sol\":260:315  mapping( bytes32 => accountData ) public mappingAccount */\n    tag_4:\n      tag_12\n      0x04\n      dup1\n      calldatasize\n      sub\n      dup2\n      add\n      swap1\n      tag_13\n      swap2\n      swap1\n      tag_8\n      jump\t// in\n    tag_13:\n      tag_14\n      jump\t// in\n    tag_12:\n      mload(0x40)\n      tag_15\n      swap5\n      swap4\n      swap3\n      swap2\n      swap1\n      tag_16\n      jump\t// in\n    tag_15:\n      mload(0x40)\n      dup1\n      swap2\n      sub\n      swap1\n      return\n        /* \"contracts/Halal.sol\":740:1188  function add_account(... */\n    tag_5:\n      tag_17\n      0x04\n      dup1\n      calldatasize\n      sub\n      dup2\n      add\n      swap1\n      tag_18\n      swap2\n      swap1\n      tag_19\n      jump\t// in\n    tag_18:\n      tag_20\n      jump\t// in\n    tag_17:\n      mload(0x40)\n      tag_21\n      swap2\n      swap1\n      tag_22\n      jump\t// in\n    tag_21:\n      mload(0x40)\n      dup1\n      swap2\n      sub\n      swap1\n      return\n        /* \"contracts/Halal.sol\":675:733  mapping (bytes32 => transaction) public mappingTransaction */\n    tag_9:\n      mstore(0x20, 0x01)\n      dup1\n      0x00\n      mstore\n      keccak256(0x00, 0x40)\n      0x00\n      swap2\n      pop\n      swap1\n      pop\n      dup1\n      0x00\n      add\n      dup1\n      sload\n      tag_23\n      swap1\n      tag_24\n      jump\t// in\n    tag_23:\n      dup1\n      0x1f\n      add\n      0x20\n      dup1\n      swap2\n      div\n      mul\n      0x20\n      add\n      mload(0x40)\n      swap1\n      dup2\n      add\n      0x40\n      mstore\n      dup1\n      swap3\n      swap2\n      swap1\n      dup2\n      dup2\n      mstore\n      0x20\n      add\n      dup3\n      dup1\n      sload\n      tag_25\n      swap1\n      tag_24\n      jump\t// in\n    tag_25:\n      dup1\n      iszero\n      tag_26\n      jumpi\n      dup1\n      0x1f\n      lt\n      tag_27\n      jumpi\n      0x0100\n      dup1\n      dup4\n      sload\n      div\n      mul\n      dup4\n      mstore\n      swap2\n      0x20\n      add\n      swap2\n      jump(tag_26)\n    tag_27:\n      dup3\n      add\n      swap2\n      swap1\n      0x00\n      mstore\n      keccak256(0x00, 0x20)\n      swap1\n    tag_28:\n      dup2\n      sload\n      dup2\n      mstore\n      swap1\n      0x01\n      add\n      swap1\n      0x20\n      add\n      dup1\n      dup4\n      gt\n      tag_28\n      jumpi\n      dup3\n      swap1\n      sub\n      0x1f\n      and\n      dup3\n      add\n      swap2\n    tag_26:\n      pop\n      pop\n      pop\n      pop\n      pop\n      swap1\n      dup1\n      0x01\n      add\n      0x00\n      swap1\n      sload\n      swap1\n      0x0100\n      exp\n      swap1\n      div\n      0xff\n      and\n      swap1\n      dup1\n      0x02\n      add\n      sload\n      swap1\n      dup1\n      0x03\n      add\n      dup1\n      sload\n      tag_29\n      swap1\n      tag_24\n      jump\t// in\n    tag_29:\n      dup1\n      0x1f\n      add\n      0x20\n      dup1\n      swap2\n      div\n      mul\n      0x20\n      add\n      mload(0x40)\n      swap1\n      dup2\n      add\n      0x40\n      mstore\n      dup1\n      swap3\n      swap2\n      swap1\n      dup2\n      dup2\n      mstore\n      0x20\n      add\n      dup3\n      dup1\n      sload\n      tag_30\n      swap1\n      tag_24\n      jump\t// in\n    tag_30:\n      dup1\n      iszero\n      tag_31\n      jumpi\n      dup1\n      0x1f\n      lt\n      tag_32\n      jumpi\n      0x0100\n      dup1\n      dup4\n      sload\n      div\n      mul\n      dup4\n      mstore\n      swap2\n      0x20\n      add\n      swap2\n      jump(tag_31)\n    tag_32:\n      dup3\n      add\n      swap2\n      swap1\n      0x00\n      mstore\n      keccak256(0x00, 0x20)\n      swap1\n    tag_33:\n      dup2\n      sload\n      dup2\n      mstore\n      swap1\n      0x01\n      add\n      swap1\n      0x20\n      add\n      dup1\n      dup4\n      gt\n      tag_33\n      jumpi\n      dup3\n      swap1\n      sub\n      0x1f\n      and\n      dup3\n      add\n      swap2\n    tag_31:\n      pop\n      pop\n      pop\n      pop\n      pop\n      swap1\n      dup1\n      0x04\n      add\n      dup1\n      sload\n      tag_34\n      swap1\n      tag_24\n      jump\t// in\n    tag_34:\n      dup1\n      0x1f\n      add\n      0x20\n      dup1\n      swap2\n      div\n      mul\n      0x20\n      add\n      mload(0x40)\n      swap1\n      dup2\n      add\n      0x40\n      mstore\n      dup1\n      swap3\n      swap2\n      swap1\n      dup2\n      dup2\n      mstore\n      0x20\n      add\n      dup3\n      dup1\n      sload\n      tag_35\n      swap1\n      tag_24\n      jump\t// in\n    tag_35:\n      dup1\n      iszero\n      tag_36\n      jumpi\n      dup1\n      0x1f\n      lt\n      tag_37\n      jumpi\n      0x0100\n      dup1\n      dup4\n      sload\n      div\n      mul\n      dup4\n      mstore\n      swap2\n      0x20\n      add\n      swap2\n      jump(tag_36)\n    tag_37:\n      dup3\n      add\n      swap2\n      swap1\n      0x00\n      mstore\n      keccak256(0x00, 0x20)\n      swap1\n    tag_38:\n      dup2\n      sload\n      dup2\n      mstore\n      swap1\n      0x01\n      add\n      swap1\n      0x20\n      add\n      dup1\n      dup4\n      gt\n      tag_38\n      jumpi\n      dup3\n      swap1\n      sub\n      0x1f\n      and\n      dup3\n      add\n      swap2\n    tag_36:\n      pop\n      pop\n      pop\n      pop\n      pop\n      swap1\n      dup1\n      0x05\n      add\n      dup1\n      sload\n      tag_39\n      swap1\n      tag_24\n      jump\t// in\n    tag_39:\n      dup1\n      0x1f\n      add\n      0x20\n      dup1\n      swap2\n      div\n      mul\n      0x20\n      add\n      mload(0x40)\n      swap1\n      dup2\n      add\n      0x40\n      mstore\n      dup1\n      swap3\n      swap2\n      swap1\n      dup2\n      dup2\n      mstore\n      0x20\n      add\n      dup3\n      dup1\n      sload\n      tag_40\n      swap1\n      tag_24\n      jump\t// in\n    tag_40:\n      dup1\n      iszero\n      tag_41\n      jumpi\n      dup1\n      0x1f\n      lt\n      tag_42\n      jumpi\n      0x0100\n      dup1\n      dup4\n      sload\n      div\n      mul\n      dup4\n      mstore\n      swap2\n      0x20\n      add\n      swap2\n      jump(tag_41)\n    tag_42:\n      dup3\n      add\n      swap2\n      swap1\n      0x00\n      mstore\n      keccak256(0x00, 0x20)\n      swap1\n    tag_43:\n      dup2\n      sload\n      dup2\n      mstore\n      swap1\n      0x01\n      add\n      swap1\n      0x20\n      add\n      dup1\n      dup4\n      gt\n      tag_43\n      jumpi\n      dup3\n      swap1\n      sub\n      0x1f\n      and\n      dup3\n      add\n      swap2\n    tag_41:\n      pop\n      pop\n      pop\n      pop\n      pop\n      swap1\n      dup1\n      0x06\n      add\n      dup1\n      sload\n      tag_44\n      swap1\n      tag_24\n      jump\t// in\n    tag_44:\n      dup1\n      0x1f\n      add\n      0x20\n      dup1\n      swap2\n      div\n      mul\n      0x20\n      add\n      mload(0x40)\n      swap1\n      dup2\n      add\n      0x40\n      mstore\n      dup1\n      swap3\n      swap2\n      swap1\n      dup2\n      dup2\n      mstore\n      0x20\n      add\n      dup3\n      dup1\n      sload\n      tag_45\n      swap1\n      tag_24\n      jump\t// in\n    tag_45:\n      dup1\n      iszero\n      tag_46\n      jumpi\n      dup1\n      0x1f\n      lt\n      tag_47\n      jumpi\n      0x0100\n      dup1\n      dup4\n      sload\n      div\n      mul\n      dup4\n      mstore\n      swap2\n      0x20\n      add\n      swap2\n      jump(tag_46)\n    tag_47:\n      dup3\n      add\n      swap2\n      swap1\n      0x00\n      mstore\n      keccak256(0x00, 0x20)\n      swap1\n    tag_48:\n      dup2\n      sload\n      dup2\n      mstore\n      swap1\n      0x01\n      add\n      swap1\n      0x20\n      add\n      dup1\n      dup4\n      gt\n      tag_48\n      jumpi\n      dup3\n      swap1\n      sub\n      0x1f\n      and\n      dup3\n      add\n      swap2\n    tag_46:\n      pop\n      pop\n      pop\n      pop\n      pop\n      swap1\n      dup1\n      0x07\n      add\n      dup1\n      sload\n      tag_49\n      swap1\n      tag_24\n      jump\t// in\n    tag_49:\n      dup1\n      0x1f\n      add\n      0x20\n      dup1\n      swap2\n      div\n      mul\n      0x20\n      add\n      mload(0x40)\n      swap1\n      dup2\n      add\n      0x40\n      mstore\n      dup1\n      swap3\n      swap2\n      swap1\n      dup2\n      dup2\n      mstore\n      0x20\n      add\n      dup3\n      dup1\n      sload\n      tag_50\n      swap1\n      tag_24\n      jump\t// in\n    tag_50:\n      dup1\n      iszero\n      tag_51\n      jumpi\n      dup1\n      0x1f\n      lt\n      tag_52\n      jumpi\n      0x0100\n      dup1\n      dup4\n      sload\n      div\n      mul\n      dup4\n      mstore\n      swap2\n      0x20\n      add\n      swap2\n      jump(tag_51)\n    tag_52:\n      dup3\n      add\n      swap2\n      swap1\n      0x00\n      mstore\n      keccak256(0x00, 0x20)\n      swap1\n    tag_53:\n      dup2\n      sload\n      dup2\n      mstore\n      swap1\n      0x01\n      add\n      swap1\n      0x20\n      add\n      dup1\n      dup4\n      gt\n      tag_53\n      jumpi\n      dup3\n      swap1\n      sub\n      0x1f\n      and\n      dup3\n      add\n      swap2\n    tag_51:\n      pop\n      pop\n      pop\n      pop\n      pop\n      swap1\n      dup1\n      0x08\n      add\n      dup1\n      sload\n      tag_54\n      swap1\n      tag_24\n      jump\t// in\n    tag_54:\n      dup1\n      0x1f\n      add\n      0x20\n      dup1\n      swap2\n      div\n      mul\n      0x20\n      add\n      mload(0x40)\n      swap1\n      dup2\n      add\n      0x40\n      mstore\n      dup1\n      swap3\n      swap2\n      swap1\n      dup2\n      dup2\n      mstore\n      0x20\n      add\n      dup3\n      dup1\n      sload\n      tag_55\n      swap1\n      tag_24\n      jump\t// in\n    tag_55:\n      dup1\n      iszero\n      tag_56\n      jumpi\n      dup1\n      0x1f\n      lt\n      tag_57\n      jumpi\n      0x0100\n      dup1\n      dup4\n      sload\n      div\n      mul\n      dup4\n      mstore\n      swap2\n      0x20\n      add\n      swap2\n      jump(tag_56)\n    tag_57:\n      dup3\n      add\n      swap2\n      swap1\n      0x00\n      mstore\n      keccak256(0x00, 0x20)\n      swap1\n    tag_58:\n      dup2\n      sload\n      dup2\n      mstore\n      swap1\n      0x01\n      add\n      swap1\n      0x20\n      add\n      dup1\n      dup4\n      gt\n      tag_58\n      jumpi\n      dup3\n      swap1\n      sub\n      0x1f\n      and\n      dup3\n      add\n      swap2\n    tag_56:\n      pop\n      pop\n      pop\n      pop\n      pop\n      swap1\n      dup1\n      0x09\n      add\n      dup1\n      sload\n      tag_59\n      swap1\n      tag_24\n      jump\t// in\n    tag_59:\n      dup1\n      0x1f\n      add\n      0x20\n      dup1\n      swap2\n      div\n      mul\n      0x20\n      add\n      mload(0x40)\n      swap1\n      dup2\n      add\n      0x40\n      mstore\n      dup1\n      swap3\n      swap2\n      swap1\n      dup2\n      dup2\n      mstore\n      0x20\n      add\n      dup3\n      dup1\n      sload\n      tag_60\n      swap1\n      tag_24\n      jump\t// in\n    tag_60:\n      dup1\n      iszero\n      tag_61\n      jumpi\n      dup1\n      0x1f\n      lt\n      tag_62\n      jumpi\n      0x0100\n      dup1\n      dup4\n      sload\n      div\n      mul\n      dup4\n      mstore\n      swap2\n      0x20\n      add\n      swap2\n      jump(tag_61)\n    tag_62:\n      dup3\n      add\n      swap2\n      swap1\n      0x00\n      mstore\n      keccak256(0x00, 0x20)\n      swap1\n    tag_63:\n      dup2\n      sload\n      dup2\n      mstore\n      swap1\n      0x01\n      add\n      swap1\n      0x20\n      add\n      dup1\n      dup4\n      gt\n      tag_63\n      jumpi\n      dup3\n      swap1\n      sub\n      0x1f\n      and\n      dup3\n      add\n      swap2\n    tag_61:\n      pop\n      pop\n      pop\n      pop\n      pop\n      swap1\n      dup1\n      0x0a\n      add\n      0x00\n      swap1\n      sload\n      swap1\n      0x0100\n      exp\n      swap1\n      div\n      0xff\n      and\n      swap1\n      dup1\n      0x0b\n      add\n      dup1\n      sload\n      tag_64\n      swap1\n      tag_24\n      jump\t// in\n    tag_64:\n      dup1\n      0x1f\n      add\n      0x20\n      dup1\n      swap2\n      div\n      mul\n      0x20\n      add\n      mload(0x40)\n      swap1\n      dup2\n      add\n      0x40\n      mstore\n      dup1\n      swap3\n      swap2\n      swap1\n      dup2\n      dup2\n      mstore\n      0x20\n      add\n      dup3\n      dup1\n      sload\n      tag_65\n      swap1\n      tag_24\n      jump\t// in\n    tag_65:\n      dup1\n      iszero\n      tag_66\n      jumpi\n      dup1\n      0x1f\n      lt\n      tag_67\n      jumpi\n      0x0100\n      dup1\n      dup4\n      sload\n      div\n      mul\n      dup4\n      mstore\n      swap2\n      0x20\n      add\n      swap2\n      jump(tag_66)\n    tag_67:\n      dup3\n      add\n      swap2\n      swap1\n      0x00\n      mstore\n      keccak256(0x00, 0x20)\n      swap1\n    tag_68:\n      dup2\n      sload\n      dup2\n      mstore\n      swap1\n      0x01\n      add\n      swap1\n      0x20\n      add\n      dup1\n      dup4\n      gt\n      tag_68\n      jumpi\n      dup3\n      swap1\n      sub\n      0x1f\n      and\n      dup3\n      add\n      swap2\n    tag_66:\n      pop\n      pop\n      pop\n      pop\n      pop\n      swap1\n      pop\n      dup13\n      jump\t// out\n        /* \"contracts/Halal.sol\":260:315  mapping( bytes32 => accountData ) public mappingAccount */\n    tag_14:\n      mstore(0x20, 0x00)\n      dup1\n      0x00\n      mstore\n      keccak256(0x00, 0x40)\n      0x00\n      swap2\n      pop\n      swap1\n      pop\n      dup1\n      0x00\n      add\n      dup1\n      sload\n      tag_69\n      swap1\n      tag_24\n      jump\t// in\n    tag_69:\n      dup1\n      0x1f\n      add\n      0x20\n      dup1\n      swap2\n      div\n      mul\n      0x20\n      add\n      mload(0x40)\n      swap1\n      dup2\n      add\n      0x40\n      mstore\n      dup1\n      swap3\n      swap2\n      swap1\n      dup2\n      dup2\n      mstore\n      0x20\n      add\n      dup3\n      dup1\n      sload\n      tag_70\n      swap1\n      tag_24\n      jump\t// in\n    tag_70:\n      dup1\n      iszero\n      tag_71\n      jumpi\n      dup1\n      0x1f\n      lt\n      tag_72\n      jumpi\n      0x0100\n      dup1\n      dup4\n      sload\n      div\n      mul\n      dup4\n      mstore\n      swap2\n      0x20\n      add\n      swap2\n      jump(tag_71)\n    tag_72:\n      dup3\n      add\n      swap2\n      swap1\n      0x00\n      mstore\n      keccak256(0x00, 0x20)\n      swap1\n    tag_73:\n      dup2\n      sload\n      dup2\n      mstore\n      swap1\n      0x01\n      add\n      swap1\n      0x20\n      add\n      dup1\n      dup4\n      gt\n      tag_73\n      jumpi\n      dup3\n      swap1\n      sub\n      0x1f\n      and\n      dup3\n      add\n      swap2\n    tag_71:\n      pop\n      pop\n      pop\n      pop\n      pop\n      swap1\n      dup1\n      0x01\n      add\n      dup1\n      sload\n      tag_74\n      swap1\n      tag_24\n      jump\t// in\n    tag_74:\n      dup1\n      0x1f\n      add\n      0x20\n      dup1\n      swap2\n      div\n      mul\n      0x20\n      add\n      mload(0x40)\n      swap1\n      dup2\n      add\n      0x40\n      mstore\n      dup1\n      swap3\n      swap2\n      swap1\n      dup2\n      dup2\n      mstore\n      0x20\n      add\n      dup3\n      dup1\n      sload\n      tag_75\n      swap1\n      tag_24\n      jump\t// in\n    tag_75:\n      dup1\n      iszero\n      tag_76\n      jumpi\n      dup1\n      0x1f\n      lt\n      tag_77\n      jumpi\n      0x0100\n      dup1\n      dup4\n      sload\n      div\n      mul\n      dup4\n      mstore\n      swap2\n      0x20\n      add\n      swap2\n      jump(tag_76)\n    tag_77:\n      dup3\n      add\n      swap2\n      swap1\n      0x00\n      mstore\n      keccak256(0x00, 0x20)\n      swap1\n    tag_78:\n      dup2\n      sload\n      dup2\n      mstore\n      swap1\n      0x01\n      add\n      swap1\n      0x20\n      add\n      dup1\n      dup4\n      gt\n      tag_78\n      jumpi\n      dup3\n      swap1\n      sub\n      0x1f\n      and\n      dup3\n      add\n      swap2\n    tag_76:\n      pop\n      pop\n      pop\n      pop\n      pop\n      swap1\n      dup1\n      0x02\n      add\n      dup1\n      sload\n      tag_79\n      swap1\n      tag_24\n      jump\t// in\n    tag_79:\n      dup1\n      0x1f\n      add\n      0x20\n      dup1\n      swap2\n      div\n      mul\n      0x20\n      add\n      mload(0x40)\n      swap1\n      dup2\n      add\n      0x40\n      mstore\n      dup1\n      swap3\n      swap2\n      swap1\n      dup2\n      dup2\n      mstore\n      0x20\n      add\n      dup3\n      dup1\n      sload\n      tag_80\n      swap1\n      tag_24\n      jump\t// in\n    tag_80:\n      dup1\n      iszero\n      tag_81\n      jumpi\n      dup1\n      0x1f\n      lt\n      tag_82\n      jumpi\n      0x0100\n      dup1\n      dup4\n      sload\n      div\n      mul\n      dup4\n      mstore\n      swap2\n      0x20\n      add\n      swap2\n      jump(tag_81)\n    tag_82:\n      dup3\n      add\n      swap2\n      swap1\n      0x00\n      mstore\n      keccak256(0x00, 0x20)\n      swap1\n    tag_83:\n      dup2\n      sload\n      dup2\n      mstore\n      swap1\n      0x01\n      add\n      swap1\n      0x20\n      add\n      dup1\n      dup4\n      gt\n      tag_83\n      jumpi\n      dup3\n      swap1\n      sub\n      0x1f\n      and\n      dup3\n      add\n      swap2\n    tag_81:\n      pop\n      pop\n      pop\n      pop\n      pop\n      swap1\n      dup1\n      0x03\n      add\n      sload\n      swap1\n      pop\n      dup5\n      jump\t// out\n        /* \"contracts/Halal.sol\":740:1188  function add_account(... */\n    tag_20:\n        /* \"contracts/Halal.sol\":872:879  bytes32 */\n      0x00\n        /* \"contracts/Halal.sol\":890:900  bytes32 id */\n      dup1\n        /* \"contracts/Halal.sol\":930:940  account_id */\n      dup5\n        /* \"contracts/Halal.sol\":913:941  abi.encodePacked(account_id) */\n      add(0x20, mload(0x40))\n      tag_85\n      swap2\n      swap1\n      tag_86\n      jump\t// in\n    tag_85:\n      mload(0x40)\n      0x20\n      dup2\n      dup4\n      sub\n      sub\n      dup2\n      mstore\n      swap1\n      0x40\n      mstore\n        /* \"contracts/Halal.sol\":903:942  keccak256(abi.encodePacked(account_id)) */\n      dup1\n      mload\n      swap1\n      0x20\n      add\n      keccak256\n        /* \"contracts/Halal.sol\":890:942  bytes32 id = keccak256(abi.encodePacked(account_id)) */\n      swap1\n      pop\n        /* \"contracts/Halal.sol\":952:975  accountData storage acc */\n      0x00\n        /* \"contracts/Halal.sol\":978:992  mappingAccount */\n      dup1\n        /* \"contracts/Halal.sol\":978:996  mappingAccount[id] */\n      0x00\n        /* \"contracts/Halal.sol\":993:995  id */\n      dup4\n        /* \"contracts/Halal.sol\":978:996  mappingAccount[id] */\n      dup2\n      mstore\n      0x20\n      add\n      swap1\n      dup2\n      mstore\n      0x20\n      add\n      0x00\n      keccak256\n        /* \"contracts/Halal.sol\":952:996  accountData storage acc = mappingAccount[id] */\n      swap1\n      pop\n        /* \"contracts/Halal.sol\":1023:1033  account_id */\n      dup6\n        /* \"contracts/Halal.sol\":1006:1009  acc */\n      dup2\n        /* \"contracts/Halal.sol\":1006:1020  acc.account_id */\n      0x00\n      add\n        /* \"contracts/Halal.sol\":1006:1033  acc.account_id = account_id */\n      swap1\n      dup1\n      mload\n      swap1\n      0x20\n      add\n      swap1\n      tag_87\n      swap3\n      swap2\n      swap1\n      tag_88\n      jump\t// in\n    tag_87:\n      pop\n        /* \"contracts/Halal.sol\":1054:1058  name */\n      dup5\n        /* \"contracts/Halal.sol\":1043:1046  acc */\n      dup2\n        /* \"contracts/Halal.sol\":1043:1051  acc.name */\n      0x01\n      add\n        /* \"contracts/Halal.sol\":1043:1058  acc.name = name */\n      swap1\n      dup1\n      mload\n      swap1\n      0x20\n      add\n      swap1\n      tag_89\n      swap3\n      swap2\n      swap1\n      tag_88\n      jump\t// in\n    tag_89:\n      pop\n        /* \"contracts/Halal.sol\":1079:1083  role */\n      dup4\n        /* \"contracts/Halal.sol\":1068:1071  acc */\n      dup2\n        /* \"contracts/Halal.sol\":1068:1076  acc.role */\n      0x02\n      add\n        /* \"contracts/Halal.sol\":1068:1083  acc.role = role */\n      swap1\n      dup1\n      mload\n      swap1\n      0x20\n      add\n      swap1\n      tag_90\n      swap3\n      swap2\n      swap1\n      tag_88\n      jump\t// in\n    tag_90:\n      pop\n        /* \"contracts/Halal.sol\":1110:1125  block.timestamp */\n      timestamp\n        /* \"contracts/Halal.sol\":1093:1096  acc */\n      dup2\n        /* \"contracts/Halal.sol\":1093:1107  acc.created_at */\n      0x03\n      add\n        /* \"contracts/Halal.sol\":1093:1125  acc.created_at = block.timestamp */\n      dup2\n      swap1\n      sstore\n      pop\n        /* \"contracts/Halal.sol\":1140:1162  success(\"success\", id) */\n      0xc8922d91fbabbe8df5d667708c678575856a856a2a465ebd9626a40ab6a16f5f\n        /* \"contracts/Halal.sol\":1159:1161  id */\n      dup3\n        /* \"contracts/Halal.sol\":1140:1162  success(\"success\", id) */\n      mload(0x40)\n      tag_91\n      swap2\n      swap1\n      tag_92\n      jump\t// in\n    tag_91:\n      mload(0x40)\n      dup1\n      swap2\n      sub\n      swap1\n      log1\n        /* \"contracts/Halal.sol\":1179:1181  id */\n      dup2\n        /* \"contracts/Halal.sol\":1172:1181  return id */\n      swap3\n      pop\n      pop\n      pop\n        /* \"contracts/Halal.sol\":740:1188  function add_account(... */\n      swap4\n      swap3\n      pop\n      pop\n      pop\n      jump\t// out\n    tag_88:\n      dup3\n      dup1\n      sload\n      tag_93\n      swap1\n      tag_24\n      jump\t// in\n    tag_93:\n      swap1\n      0x00\n      mstore\n      keccak256(0x00, 0x20)\n      swap1\n      0x1f\n      add\n      0x20\n      swap1\n      div\n      dup2\n      add\n      swap3\n      dup3\n      tag_95\n      jumpi\n      0x00\n      dup6\n      sstore\n      jump(tag_94)\n    tag_95:\n      dup3\n      0x1f\n      lt\n      tag_96\n      jumpi\n      dup1\n      mload\n      not(0xff)\n      and\n      dup4\n      dup1\n      add\n      or\n      dup6\n      sstore\n      jump(tag_94)\n    tag_96:\n      dup3\n      dup1\n      add\n      0x01\n      add\n      dup6\n      sstore\n      dup3\n      iszero\n      tag_94\n      jumpi\n      swap2\n      dup3\n      add\n    tag_97:\n      dup3\n      dup2\n      gt\n      iszero\n      tag_98\n      jumpi\n      dup3\n      mload\n      dup3\n      sstore\n      swap2\n      0x20\n      add\n      swap2\n      swap1\n      0x01\n      add\n      swap1\n      jump(tag_97)\n    tag_98:\n    tag_94:\n      pop\n      swap1\n      pop\n      tag_99\n      swap2\n      swap1\n      tag_100\n      jump\t// in\n    tag_99:\n      pop\n      swap1\n      jump\t// out\n    tag_100:\n    tag_101:\n      dup1\n      dup3\n      gt\n      iszero\n      tag_102\n      jumpi\n      0x00\n      dup2\n      0x00\n      swap1\n      sstore\n      pop\n      0x01\n      add\n      jump(tag_101)\n    tag_102:\n      pop\n      swap1\n      jump\t// out\n        /* \"#utility.yul\":7:419   */\n    tag_104:\n        /* \"#utility.yul\":85:90   */\n      0x00\n        /* \"#utility.yul\":110:176   */\n      tag_106\n        /* \"#utility.yul\":126:175   */\n      tag_107\n        /* \"#utility.yul\":168:174   */\n      dup5\n        /* \"#utility.yul\":126:175   */\n      tag_108\n      jump\t// in\n    tag_107:\n        /* \"#utility.yul\":110:176   */\n      tag_109\n      jump\t// in\n    tag_106:\n        /* \"#utility.yul\":101:176   */\n      swap1\n      pop\n        /* \"#utility.yul\":199:205   */\n      dup3\n        /* \"#utility.yul\":192:197   */\n      dup2\n        /* \"#utility.yul\":185:206   */\n      mstore\n        /* \"#utility.yul\":237:241   */\n      0x20\n        /* \"#utility.yul\":230:235   */\n      dup2\n        /* \"#utility.yul\":226:242   */\n      add\n        /* \"#utility.yul\":275:278   */\n      dup5\n        /* \"#utility.yul\":266:272   */\n      dup5\n        /* \"#utility.yul\":261:264   */\n      dup5\n        /* \"#utility.yul\":257:273   */\n      add\n        /* \"#utility.yul\":254:279   */\n      gt\n        /* \"#utility.yul\":251:363   */\n      iszero\n      tag_110\n      jumpi\n        /* \"#utility.yul\":282:361   */\n      tag_111\n      tag_112\n      jump\t// in\n    tag_111:\n        /* \"#utility.yul\":251:363   */\n    tag_110:\n        /* \"#utility.yul\":372:413   */\n      tag_113\n        /* \"#utility.yul\":406:412   */\n      dup5\n        /* \"#utility.yul\":401:404   */\n      dup3\n        /* \"#utility.yul\":396:399   */\n      dup6\n        /* \"#utility.yul\":372:413   */\n      tag_114\n      jump\t// in\n    tag_113:\n        /* \"#utility.yul\":91:419   */\n      pop\n        /* \"#utility.yul\":7:419   */\n      swap4\n      swap3\n      pop\n      pop\n      pop\n      jump\t// out\n        /* \"#utility.yul\":425:564   */\n    tag_115:\n        /* \"#utility.yul\":471:476   */\n      0x00\n        /* \"#utility.yul\":509:515   */\n      dup2\n        /* \"#utility.yul\":496:516   */\n      calldataload\n        /* \"#utility.yul\":487:516   */\n      swap1\n      pop\n        /* \"#utility.yul\":525:558   */\n      tag_117\n        /* \"#utility.yul\":552:557   */\n      dup2\n        /* \"#utility.yul\":525:558   */\n      tag_118\n      jump\t// in\n    tag_117:\n        /* \"#utility.yul\":425:564   */\n      swap3\n      swap2\n      pop\n      pop\n      jump\t// out\n        /* \"#utility.yul\":584:924   */\n    tag_119:\n        /* \"#utility.yul\":640:645   */\n      0x00\n        /* \"#utility.yul\":689:692   */\n      dup3\n        /* \"#utility.yul\":682:686   */\n      0x1f\n        /* \"#utility.yul\":674:680   */\n      dup4\n        /* \"#utility.yul\":670:687   */\n      add\n        /* \"#utility.yul\":666:693   */\n      slt\n        /* \"#utility.yul\":656:778   */\n      tag_121\n      jumpi\n        /* \"#utility.yul\":697:776   */\n      tag_122\n      tag_123\n      jump\t// in\n    tag_122:\n        /* \"#utility.yul\":656:778   */\n    tag_121:\n        /* \"#utility.yul\":814:820   */\n      dup2\n        /* \"#utility.yul\":801:821   */\n      calldataload\n        /* \"#utility.yul\":839:918   */\n      tag_124\n        /* \"#utility.yul\":914:917   */\n      dup5\n        /* \"#utility.yul\":906:912   */\n      dup3\n        /* \"#utility.yul\":899:903   */\n      0x20\n        /* \"#utility.yul\":891:897   */\n      dup7\n        /* \"#utility.yul\":887:904   */\n      add\n        /* \"#utility.yul\":839:918   */\n      tag_104\n      jump\t// in\n    tag_124:\n        /* \"#utility.yul\":830:918   */\n      swap2\n      pop\n        /* \"#utility.yul\":646:924   */\n      pop\n        /* \"#utility.yul\":584:924   */\n      swap3\n      swap2\n      pop\n      pop\n      jump\t// out\n        /* \"#utility.yul\":930:1259   */\n    tag_8:\n        /* \"#utility.yul\":989:995   */\n      0x00\n        /* \"#utility.yul\":1038:1040   */\n      0x20\n        /* \"#utility.yul\":1026:1035   */\n      dup3\n        /* \"#utility.yul\":1017:1024   */\n      dup5\n        /* \"#utility.yul\":1013:1036   */\n      sub\n        /* \"#utility.yul\":1009:1041   */\n      slt\n        /* \"#utility.yul\":1006:1125   */\n      iszero\n      tag_126\n      jumpi\n        /* \"#utility.yul\":1044:1123   */\n      tag_127\n      tag_128\n      jump\t// in\n    tag_127:\n        /* \"#utility.yul\":1006:1125   */\n    tag_126:\n        /* \"#utility.yul\":1164:1165   */\n      0x00\n        /* \"#utility.yul\":1189:1242   */\n      tag_129\n        /* \"#utility.yul\":1234:1241   */\n      dup5\n        /* \"#utility.yul\":1225:1231   */\n      dup3\n        /* \"#utility.yul\":1214:1223   */\n      dup6\n        /* \"#utility.yul\":1210:1232   */\n      add\n        /* \"#utility.yul\":1189:1242   */\n      tag_115\n      jump\t// in\n    tag_129:\n        /* \"#utility.yul\":1179:1242   */\n      swap2\n      pop\n        /* \"#utility.yul\":1135:1252   */\n      pop\n        /* \"#utility.yul\":930:1259   */\n      swap3\n      swap2\n      pop\n      pop\n      jump\t// out\n        /* \"#utility.yul\":1265:2424   */\n    tag_19:\n        /* \"#utility.yul\":1372:1378   */\n      0x00\n        /* \"#utility.yul\":1380:1386   */\n      dup1\n        /* \"#utility.yul\":1388:1394   */\n      0x00\n        /* \"#utility.yul\":1437:1439   */\n      0x60\n        /* \"#utility.yul\":1425:1434   */\n      dup5\n        /* \"#utility.yul\":1416:1423   */\n      dup7\n        /* \"#utility.yul\":1412:1435   */\n      sub\n        /* \"#utility.yul\":1408:1440   */\n      slt\n        /* \"#utility.yul\":1405:1524   */\n      iszero\n      tag_131\n      jumpi\n        /* \"#utility.yul\":1443:1522   */\n      tag_132\n      tag_128\n      jump\t// in\n    tag_132:\n        /* \"#utility.yul\":1405:1524   */\n    tag_131:\n        /* \"#utility.yul\":1591:1592   */\n      0x00\n        /* \"#utility.yul\":1580:1589   */\n      dup5\n        /* \"#utility.yul\":1576:1593   */\n      add\n        /* \"#utility.yul\":1563:1594   */\n      calldataload\n        /* \"#utility.yul\":1621:1639   */\n      0xffffffffffffffff\n        /* \"#utility.yul\":1613:1619   */\n      dup2\n        /* \"#utility.yul\":1610:1640   */\n      gt\n        /* \"#utility.yul\":1607:1724   */\n      iszero\n      tag_133\n      jumpi\n        /* \"#utility.yul\":1643:1722   */\n      tag_134\n      tag_135\n      jump\t// in\n    tag_134:\n        /* \"#utility.yul\":1607:1724   */\n    tag_133:\n        /* \"#utility.yul\":1748:1811   */\n      tag_136\n        /* \"#utility.yul\":1803:1810   */\n      dup7\n        /* \"#utility.yul\":1794:1800   */\n      dup3\n        /* \"#utility.yul\":1783:1792   */\n      dup8\n        /* \"#utility.yul\":1779:1801   */\n      add\n        /* \"#utility.yul\":1748:1811   */\n      tag_119\n      jump\t// in\n    tag_136:\n        /* \"#utility.yul\":1738:1811   */\n      swap4\n      pop\n        /* \"#utility.yul\":1534:1821   */\n      pop\n        /* \"#utility.yul\":1888:1890   */\n      0x20\n        /* \"#utility.yul\":1877:1886   */\n      dup5\n        /* \"#utility.yul\":1873:1891   */\n      add\n        /* \"#utility.yul\":1860:1892   */\n      calldataload\n        /* \"#utility.yul\":1919:1937   */\n      0xffffffffffffffff\n        /* \"#utility.yul\":1911:1917   */\n      dup2\n        /* \"#utility.yul\":1908:1938   */\n      gt\n        /* \"#utility.yul\":1905:2022   */\n      iszero\n      tag_137\n      jumpi\n        /* \"#utility.yul\":1941:2020   */\n      tag_138\n      tag_135\n      jump\t// in\n    tag_138:\n        /* \"#utility.yul\":1905:2022   */\n    tag_137:\n        /* \"#utility.yul\":2046:2109   */\n      tag_139\n        /* \"#utility.yul\":2101:2108   */\n      dup7\n        /* \"#utility.yul\":2092:2098   */\n      dup3\n        /* \"#utility.yul\":2081:2090   */\n      dup8\n        /* \"#utility.yul\":2077:2099   */\n      add\n        /* \"#utility.yul\":2046:2109   */\n      tag_119\n      jump\t// in\n    tag_139:\n        /* \"#utility.yul\":2036:2109   */\n      swap3\n      pop\n        /* \"#utility.yul\":1831:2119   */\n      pop\n        /* \"#utility.yul\":2186:2188   */\n      0x40\n        /* \"#utility.yul\":2175:2184   */\n      dup5\n        /* \"#utility.yul\":2171:2189   */\n      add\n        /* \"#utility.yul\":2158:2190   */\n      calldataload\n        /* \"#utility.yul\":2217:2235   */\n      0xffffffffffffffff\n        /* \"#utility.yul\":2209:2215   */\n      dup2\n        /* \"#utility.yul\":2206:2236   */\n      gt\n        /* \"#utility.yul\":2203:2320   */\n      iszero\n      tag_140\n      jumpi\n        /* \"#utility.yul\":2239:2318   */\n      tag_141\n      tag_135\n      jump\t// in\n    tag_141:\n        /* \"#utility.yul\":2203:2320   */\n    tag_140:\n        /* \"#utility.yul\":2344:2407   */\n      tag_142\n        /* \"#utility.yul\":2399:2406   */\n      dup7\n        /* \"#utility.yul\":2390:2396   */\n      dup3\n        /* \"#utility.yul\":2379:2388   */\n      dup8\n        /* \"#utility.yul\":2375:2397   */\n      add\n        /* \"#utility.yul\":2344:2407   */\n      tag_119\n      jump\t// in\n    tag_142:\n        /* \"#utility.yul\":2334:2407   */\n      swap2\n      pop\n        /* \"#utility.yul\":2129:2417   */\n      pop\n        /* \"#utility.yul\":1265:2424   */\n      swap3\n      pop\n      swap3\n      pop\n      swap3\n      jump\t// out\n        /* \"#utility.yul\":2430:2539   */\n    tag_143:\n        /* \"#utility.yul\":2511:2532   */\n      tag_145\n        /* \"#utility.yul\":2526:2531   */\n      dup2\n        /* \"#utility.yul\":2511:2532   */\n      tag_146\n      jump\t// in\n    tag_145:\n        /* \"#utility.yul\":2506:2509   */\n      dup3\n        /* \"#utility.yul\":2499:2533   */\n      mstore\n        /* \"#utility.yul\":2430:2539   */\n      pop\n      pop\n      jump\t// out\n        /* \"#utility.yul\":2545:2663   */\n    tag_147:\n        /* \"#utility.yul\":2632:2656   */\n      tag_149\n        /* \"#utility.yul\":2650:2655   */\n      dup2\n        /* \"#utility.yul\":2632:2656   */\n      tag_150\n      jump\t// in\n    tag_149:\n        /* \"#utility.yul\":2627:2630   */\n      dup3\n        /* \"#utility.yul\":2620:2657   */\n      mstore\n        /* \"#utility.yul\":2545:2663   */\n      pop\n      pop\n      jump\t// out\n        /* \"#utility.yul\":2669:3033   */\n    tag_151:\n        /* \"#utility.yul\":2757:2760   */\n      0x00\n        /* \"#utility.yul\":2785:2824   */\n      tag_153\n        /* \"#utility.yul\":2818:2823   */\n      dup3\n        /* \"#utility.yul\":2785:2824   */\n      tag_154\n      jump\t// in\n    tag_153:\n        /* \"#utility.yul\":2840:2911   */\n      tag_155\n        /* \"#utility.yul\":2904:2910   */\n      dup2\n        /* \"#utility.yul\":2899:2902   */\n      dup6\n        /* \"#utility.yul\":2840:2911   */\n      tag_156\n      jump\t// in\n    tag_155:\n        /* \"#utility.yul\":2833:2911   */\n      swap4\n      pop\n        /* \"#utility.yul\":2920:2972   */\n      tag_157\n        /* \"#utility.yul\":2965:2971   */\n      dup2\n        /* \"#utility.yul\":2960:2963   */\n      dup6\n        /* \"#utility.yul\":2953:2957   */\n      0x20\n        /* \"#utility.yul\":2946:2951   */\n      dup7\n        /* \"#utility.yul\":2942:2958   */\n      add\n        /* \"#utility.yul\":2920:2972   */\n      tag_158\n      jump\t// in\n    tag_157:\n        /* \"#utility.yul\":2997:3026   */\n      tag_159\n        /* \"#utility.yul\":3019:3025   */\n      dup2\n        /* \"#utility.yul\":2997:3026   */\n      tag_160\n      jump\t// in\n    tag_159:\n        /* \"#utility.yul\":2992:2995   */\n      dup5\n        /* \"#utility.yul\":2988:3027   */\n      add\n        /* \"#utility.yul\":2981:3027   */\n      swap2\n      pop\n        /* \"#utility.yul\":2761:3033   */\n      pop\n        /* \"#utility.yul\":2669:3033   */\n      swap3\n      swap2\n      pop\n      pop\n      jump\t// out\n        /* \"#utility.yul\":3039:3416   */\n    tag_161:\n        /* \"#utility.yul\":3145:3148   */\n      0x00\n        /* \"#utility.yul\":3173:3212   */\n      tag_163\n        /* \"#utility.yul\":3206:3211   */\n      dup3\n        /* \"#utility.yul\":3173:3212   */\n      tag_154\n      jump\t// in\n    tag_163:\n        /* \"#utility.yul\":3228:3317   */\n      tag_164\n        /* \"#utility.yul\":3310:3316   */\n      dup2\n        /* \"#utility.yul\":3305:3308   */\n      dup6\n        /* \"#utility.yul\":3228:3317   */\n      tag_165\n      jump\t// in\n    tag_164:\n        /* \"#utility.yul\":3221:3317   */\n      swap4\n      pop\n        /* \"#utility.yul\":3326:3378   */\n      tag_166\n        /* \"#utility.yul\":3371:3377   */\n      dup2\n        /* \"#utility.yul\":3366:3369   */\n      dup6\n        /* \"#utility.yul\":3359:3363   */\n      0x20\n        /* \"#utility.yul\":3352:3357   */\n      dup7\n        /* \"#utility.yul\":3348:3364   */\n      add\n        /* \"#utility.yul\":3326:3378   */\n      tag_158\n      jump\t// in\n    tag_166:\n        /* \"#utility.yul\":3403:3409   */\n      dup1\n        /* \"#utility.yul\":3398:3401   */\n      dup5\n        /* \"#utility.yul\":3394:3410   */\n      add\n        /* \"#utility.yul\":3387:3410   */\n      swap2\n      pop\n        /* \"#utility.yul\":3149:3416   */\n      pop\n        /* \"#utility.yul\":3039:3416   */\n      swap3\n      swap2\n      pop\n      pop\n      jump\t// out\n        /* \"#utility.yul\":3422:3787   */\n    tag_167:\n        /* \"#utility.yul\":3564:3567   */\n      0x00\n        /* \"#utility.yul\":3585:3651   */\n      tag_169\n        /* \"#utility.yul\":3649:3650   */\n      0x07\n        /* \"#utility.yul\":3644:3647   */\n      dup4\n        /* \"#utility.yul\":3585:3651   */\n      tag_156\n      jump\t// in\n    tag_169:\n        /* \"#utility.yul\":3578:3651   */\n      swap2\n      pop\n        /* \"#utility.yul\":3660:3753   */\n      tag_170\n        /* \"#utility.yul\":3749:3752   */\n      dup3\n        /* \"#utility.yul\":3660:3753   */\n      tag_171\n      jump\t// in\n    tag_170:\n        /* \"#utility.yul\":3778:3780   */\n      0x20\n        /* \"#utility.yul\":3773:3776   */\n      dup3\n        /* \"#utility.yul\":3769:3781   */\n      add\n        /* \"#utility.yul\":3762:3781   */\n      swap1\n      pop\n        /* \"#utility.yul\":3422:3787   */\n      swap2\n      swap1\n      pop\n      jump\t// out\n        /* \"#utility.yul\":3793:3911   */\n    tag_172:\n        /* \"#utility.yul\":3880:3904   */\n      tag_174\n        /* \"#utility.yul\":3898:3903   */\n      dup2\n        /* \"#utility.yul\":3880:3904   */\n      tag_175\n      jump\t// in\n    tag_174:\n        /* \"#utility.yul\":3875:3878   */\n      dup3\n        /* \"#utility.yul\":3868:3905   */\n      mstore\n        /* \"#utility.yul\":3793:3911   */\n      pop\n      pop\n      jump\t// out\n        /* \"#utility.yul\":3917:4192   */\n    tag_86:\n        /* \"#utility.yul\":4049:4052   */\n      0x00\n        /* \"#utility.yul\":4071:4166   */\n      tag_177\n        /* \"#utility.yul\":4162:4165   */\n      dup3\n        /* \"#utility.yul\":4153:4159   */\n      dup5\n        /* \"#utility.yul\":4071:4166   */\n      tag_161\n      jump\t// in\n    tag_177:\n        /* \"#utility.yul\":4064:4166   */\n      swap2\n      pop\n        /* \"#utility.yul\":4183:4186   */\n      dup2\n        /* \"#utility.yul\":4176:4186   */\n      swap1\n      pop\n        /* \"#utility.yul\":3917:4192   */\n      swap3\n      swap2\n      pop\n      pop\n      jump\t// out\n        /* \"#utility.yul\":4198:4420   */\n    tag_22:\n        /* \"#utility.yul\":4291:4295   */\n      0x00\n        /* \"#utility.yul\":4329:4331   */\n      0x20\n        /* \"#utility.yul\":4318:4327   */\n      dup3\n        /* \"#utility.yul\":4314:4332   */\n      add\n        /* \"#utility.yul\":4306:4332   */\n      swap1\n      pop\n        /* \"#utility.yul\":4342:4413   */\n      tag_179\n        /* \"#utility.yul\":4410:4411   */\n      0x00\n        /* \"#utility.yul\":4399:4408   */\n      dup4\n        /* \"#utility.yul\":4395:4412   */\n      add\n        /* \"#utility.yul\":4386:4392   */\n      dup5\n        /* \"#utility.yul\":4342:4413   */\n      tag_147\n      jump\t// in\n    tag_179:\n        /* \"#utility.yul\":4198:4420   */\n      swap3\n      swap2\n      pop\n      pop\n      jump\t// out\n        /* \"#utility.yul\":4426:6666   */\n    tag_11:\n        /* \"#utility.yul\":4997:5001   */\n      0x00\n        /* \"#utility.yul\":5035:5038   */\n      0x0180\n        /* \"#utility.yul\":5024:5033   */\n      dup3\n        /* \"#utility.yul\":5020:5039   */\n      add\n        /* \"#utility.yul\":5012:5039   */\n      swap1\n      pop\n        /* \"#utility.yul\":5085:5094   */\n      dup2\n        /* \"#utility.yul\":5079:5083   */\n      dup2\n        /* \"#utility.yul\":5075:5095   */\n      sub\n        /* \"#utility.yul\":5071:5072   */\n      0x00\n        /* \"#utility.yul\":5060:5069   */\n      dup4\n        /* \"#utility.yul\":5056:5073   */\n      add\n        /* \"#utility.yul\":5049:5096   */\n      mstore\n        /* \"#utility.yul\":5113:5191   */\n      tag_181\n        /* \"#utility.yul\":5186:5190   */\n      dup2\n        /* \"#utility.yul\":5177:5183   */\n      dup16\n        /* \"#utility.yul\":5113:5191   */\n      tag_151\n      jump\t// in\n    tag_181:\n        /* \"#utility.yul\":5105:5191   */\n      swap1\n      pop\n        /* \"#utility.yul\":5201:5267   */\n      tag_182\n        /* \"#utility.yul\":5263:5265   */\n      0x20\n        /* \"#utility.yul\":5252:5261   */\n      dup4\n        /* \"#utility.yul\":5248:5266   */\n      add\n        /* \"#utility.yul\":5239:5245   */\n      dup15\n        /* \"#utility.yul\":5201:5267   */\n      tag_143\n      jump\t// in\n    tag_182:\n        /* \"#utility.yul\":5277:5349   */\n      tag_183\n        /* \"#utility.yul\":5345:5347   */\n      0x40\n        /* \"#utility.yul\":5334:5343   */\n      dup4\n        /* \"#utility.yul\":5330:5348   */\n      add\n        /* \"#utility.yul\":5321:5327   */\n      dup14\n        /* \"#utility.yul\":5277:5349   */\n      tag_172\n      jump\t// in\n    tag_183:\n        /* \"#utility.yul\":5396:5405   */\n      dup2\n        /* \"#utility.yul\":5390:5394   */\n      dup2\n        /* \"#utility.yul\":5386:5406   */\n      sub\n        /* \"#utility.yul\":5381:5383   */\n      0x60\n        /* \"#utility.yul\":5370:5379   */\n      dup4\n        /* \"#utility.yul\":5366:5384   */\n      add\n        /* \"#utility.yul\":5359:5407   */\n      mstore\n        /* \"#utility.yul\":5424:5502   */\n      tag_184\n        /* \"#utility.yul\":5497:5501   */\n      dup2\n        /* \"#utility.yul\":5488:5494   */\n      dup13\n        /* \"#utility.yul\":5424:5502   */\n      tag_151\n      jump\t// in\n    tag_184:\n        /* \"#utility.yul\":5416:5502   */\n      swap1\n      pop\n        /* \"#utility.yul\":5550:5559   */\n      dup2\n        /* \"#utility.yul\":5544:5548   */\n      dup2\n        /* \"#utility.yul\":5540:5560   */\n      sub\n        /* \"#utility.yul\":5534:5537   */\n      0x80\n        /* \"#utility.yul\":5523:5532   */\n      dup4\n        /* \"#utility.yul\":5519:5538   */\n      add\n        /* \"#utility.yul\":5512:5561   */\n      mstore\n        /* \"#utility.yul\":5578:5656   */\n      tag_185\n        /* \"#utility.yul\":5651:5655   */\n      dup2\n        /* \"#utility.yul\":5642:5648   */\n      dup12\n        /* \"#utility.yul\":5578:5656   */\n      tag_151\n      jump\t// in\n    tag_185:\n        /* \"#utility.yul\":5570:5656   */\n      swap1\n      pop\n        /* \"#utility.yul\":5704:5713   */\n      dup2\n        /* \"#utility.yul\":5698:5702   */\n      dup2\n        /* \"#utility.yul\":5694:5714   */\n      sub\n        /* \"#utility.yul\":5688:5691   */\n      0xa0\n        /* \"#utility.yul\":5677:5686   */\n      dup4\n        /* \"#utility.yul\":5673:5692   */\n      add\n        /* \"#utility.yul\":5666:5715   */\n      mstore\n        /* \"#utility.yul\":5732:5810   */\n      tag_186\n        /* \"#utility.yul\":5805:5809   */\n      dup2\n        /* \"#utility.yul\":5796:5802   */\n      dup11\n        /* \"#utility.yul\":5732:5810   */\n      tag_151\n      jump\t// in\n    tag_186:\n        /* \"#utility.yul\":5724:5810   */\n      swap1\n      pop\n        /* \"#utility.yul\":5858:5867   */\n      dup2\n        /* \"#utility.yul\":5852:5856   */\n      dup2\n        /* \"#utility.yul\":5848:5868   */\n      sub\n        /* \"#utility.yul\":5842:5845   */\n      0xc0\n        /* \"#utility.yul\":5831:5840   */\n      dup4\n        /* \"#utility.yul\":5827:5846   */\n      add\n        /* \"#utility.yul\":5820:5869   */\n      mstore\n        /* \"#utility.yul\":5886:5964   */\n      tag_187\n        /* \"#utility.yul\":5959:5963   */\n      dup2\n        /* \"#utility.yul\":5950:5956   */\n      dup10\n        /* \"#utility.yul\":5886:5964   */\n      tag_151\n      jump\t// in\n    tag_187:\n        /* \"#utility.yul\":5878:5964   */\n      swap1\n      pop\n        /* \"#utility.yul\":6012:6021   */\n      dup2\n        /* \"#utility.yul\":6006:6010   */\n      dup2\n        /* \"#utility.yul\":6002:6022   */\n      sub\n        /* \"#utility.yul\":5996:5999   */\n      0xe0\n        /* \"#utility.yul\":5985:5994   */\n      dup4\n        /* \"#utility.yul\":5981:6000   */\n      add\n        /* \"#utility.yul\":5974:6023   */\n      mstore\n        /* \"#utility.yul\":6040:6118   */\n      tag_188\n        /* \"#utility.yul\":6113:6117   */\n      dup2\n        /* \"#utility.yul\":6104:6110   */\n      dup9\n        /* \"#utility.yul\":6040:6118   */\n      tag_151\n      jump\t// in\n    tag_188:\n        /* \"#utility.yul\":6032:6118   */\n      swap1\n      pop\n        /* \"#utility.yul\":6166:6175   */\n      dup2\n        /* \"#utility.yul\":6160:6164   */\n      dup2\n        /* \"#utility.yul\":6156:6176   */\n      sub\n        /* \"#utility.yul\":6150:6153   */\n      0x0100\n        /* \"#utility.yul\":6139:6148   */\n      dup4\n        /* \"#utility.yul\":6135:6154   */\n      add\n        /* \"#utility.yul\":6128:6177   */\n      mstore\n        /* \"#utility.yul\":6194:6272   */\n      tag_189\n        /* \"#utility.yul\":6267:6271   */\n      dup2\n        /* \"#utility.yul\":6258:6264   */\n      dup8\n        /* \"#utility.yul\":6194:6272   */\n      tag_151\n      jump\t// in\n    tag_189:\n        /* \"#utility.yul\":6186:6272   */\n      swap1\n      pop\n        /* \"#utility.yul\":6320:6329   */\n      dup2\n        /* \"#utility.yul\":6314:6318   */\n      dup2\n        /* \"#utility.yul\":6310:6330   */\n      sub\n        /* \"#utility.yul\":6304:6307   */\n      0x0120\n        /* \"#utility.yul\":6293:6302   */\n      dup4\n        /* \"#utility.yul\":6289:6308   */\n      add\n        /* \"#utility.yul\":6282:6331   */\n      mstore\n        /* \"#utility.yul\":6348:6426   */\n      tag_190\n        /* \"#utility.yul\":6421:6425   */\n      dup2\n        /* \"#utility.yul\":6412:6418   */\n      dup7\n        /* \"#utility.yul\":6348:6426   */\n      tag_151\n      jump\t// in\n    tag_190:\n        /* \"#utility.yul\":6340:6426   */\n      swap1\n      pop\n        /* \"#utility.yul\":6436:6504   */\n      tag_191\n        /* \"#utility.yul\":6499:6502   */\n      0x0140\n        /* \"#utility.yul\":6488:6497   */\n      dup4\n        /* \"#utility.yul\":6484:6503   */\n      add\n        /* \"#utility.yul\":6474:6481   */\n      dup6\n        /* \"#utility.yul\":6436:6504   */\n      tag_143\n      jump\t// in\n    tag_191:\n        /* \"#utility.yul\":6552:6561   */\n      dup2\n        /* \"#utility.yul\":6546:6550   */\n      dup2\n        /* \"#utility.yul\":6542:6562   */\n      sub\n        /* \"#utility.yul\":6536:6539   */\n      0x0160\n        /* \"#utility.yul\":6525:6534   */\n      dup4\n        /* \"#utility.yul\":6521:6540   */\n      add\n        /* \"#utility.yul\":6514:6563   */\n      mstore\n        /* \"#utility.yul\":6580:6659   */\n      tag_192\n        /* \"#utility.yul\":6654:6658   */\n      dup2\n        /* \"#utility.yul\":6644:6651   */\n      dup5\n        /* \"#utility.yul\":6580:6659   */\n      tag_151\n      jump\t// in\n    tag_192:\n        /* \"#utility.yul\":6572:6659   */\n      swap1\n      pop\n        /* \"#utility.yul\":4426:6666   */\n      swap14\n      swap13\n      pop\n      pop\n      pop\n      pop\n      pop\n      pop\n      pop\n      pop\n      pop\n      pop\n      pop\n      pop\n      pop\n      jump\t// out\n        /* \"#utility.yul\":6672:7498   */\n    tag_16:\n        /* \"#utility.yul\":6909:6913   */\n      0x00\n        /* \"#utility.yul\":6947:6950   */\n      0x80\n        /* \"#utility.yul\":6936:6945   */\n      dup3\n        /* \"#utility.yul\":6932:6951   */\n      add\n        /* \"#utility.yul\":6924:6951   */\n      swap1\n      pop\n        /* \"#utility.yul\":6997:7006   */\n      dup2\n        /* \"#utility.yul\":6991:6995   */\n      dup2\n        /* \"#utility.yul\":6987:7007   */\n      sub\n        /* \"#utility.yul\":6983:6984   */\n      0x00\n        /* \"#utility.yul\":6972:6981   */\n      dup4\n        /* \"#utility.yul\":6968:6985   */\n      add\n        /* \"#utility.yul\":6961:7008   */\n      mstore\n        /* \"#utility.yul\":7025:7103   */\n      tag_194\n        /* \"#utility.yul\":7098:7102   */\n      dup2\n        /* \"#utility.yul\":7089:7095   */\n      dup8\n        /* \"#utility.yul\":7025:7103   */\n      tag_151\n      jump\t// in\n    tag_194:\n        /* \"#utility.yul\":7017:7103   */\n      swap1\n      pop\n        /* \"#utility.yul\":7150:7159   */\n      dup2\n        /* \"#utility.yul\":7144:7148   */\n      dup2\n        /* \"#utility.yul\":7140:7160   */\n      sub\n        /* \"#utility.yul\":7135:7137   */\n      0x20\n        /* \"#utility.yul\":7124:7133   */\n      dup4\n        /* \"#utility.yul\":7120:7138   */\n      add\n        /* \"#utility.yul\":7113:7161   */\n      mstore\n        /* \"#utility.yul\":7178:7256   */\n      tag_195\n        /* \"#utility.yul\":7251:7255   */\n      dup2\n        /* \"#utility.yul\":7242:7248   */\n      dup7\n        /* \"#utility.yul\":7178:7256   */\n      tag_151\n      jump\t// in\n    tag_195:\n        /* \"#utility.yul\":7170:7256   */\n      swap1\n      pop\n        /* \"#utility.yul\":7303:7312   */\n      dup2\n        /* \"#utility.yul\":7297:7301   */\n      dup2\n        /* \"#utility.yul\":7293:7313   */\n      sub\n        /* \"#utility.yul\":7288:7290   */\n      0x40\n        /* \"#utility.yul\":7277:7286   */\n      dup4\n        /* \"#utility.yul\":7273:7291   */\n      add\n        /* \"#utility.yul\":7266:7314   */\n      mstore\n        /* \"#utility.yul\":7331:7409   */\n      tag_196\n        /* \"#utility.yul\":7404:7408   */\n      dup2\n        /* \"#utility.yul\":7395:7401   */\n      dup6\n        /* \"#utility.yul\":7331:7409   */\n      tag_151\n      jump\t// in\n    tag_196:\n        /* \"#utility.yul\":7323:7409   */\n      swap1\n      pop\n        /* \"#utility.yul\":7419:7491   */\n      tag_197\n        /* \"#utility.yul\":7487:7489   */\n      0x60\n        /* \"#utility.yul\":7476:7485   */\n      dup4\n        /* \"#utility.yul\":7472:7490   */\n      add\n        /* \"#utility.yul\":7463:7469   */\n      dup5\n        /* \"#utility.yul\":7419:7491   */\n      tag_172\n      jump\t// in\n    tag_197:\n        /* \"#utility.yul\":6672:7498   */\n      swap6\n      swap5\n      pop\n      pop\n      pop\n      pop\n      pop\n      jump\t// out\n        /* \"#utility.yul\":7504:8033   */\n    tag_92:\n        /* \"#utility.yul\":7698:7702   */\n      0x00\n        /* \"#utility.yul\":7736:7738   */\n      0x40\n        /* \"#utility.yul\":7725:7734   */\n      dup3\n        /* \"#utility.yul\":7721:7739   */\n      add\n        /* \"#utility.yul\":7713:7739   */\n      swap1\n      pop\n        /* \"#utility.yul\":7785:7794   */\n      dup2\n        /* \"#utility.yul\":7779:7783   */\n      dup2\n        /* \"#utility.yul\":7775:7795   */\n      sub\n        /* \"#utility.yul\":7771:7772   */\n      0x00\n        /* \"#utility.yul\":7760:7769   */\n      dup4\n        /* \"#utility.yul\":7756:7773   */\n      add\n        /* \"#utility.yul\":7749:7796   */\n      mstore\n        /* \"#utility.yul\":7813:7944   */\n      tag_199\n        /* \"#utility.yul\":7939:7943   */\n      dup2\n        /* \"#utility.yul\":7813:7944   */\n      tag_167\n      jump\t// in\n    tag_199:\n        /* \"#utility.yul\":7805:7944   */\n      swap1\n      pop\n        /* \"#utility.yul\":7954:8026   */\n      tag_200\n        /* \"#utility.yul\":8022:8024   */\n      0x20\n        /* \"#utility.yul\":8011:8020   */\n      dup4\n        /* \"#utility.yul\":8007:8025   */\n      add\n        /* \"#utility.yul\":7998:8004   */\n      dup5\n        /* \"#utility.yul\":7954:8026   */\n      tag_147\n      jump\t// in\n    tag_200:\n        /* \"#utility.yul\":7504:8033   */\n      swap3\n      swap2\n      pop\n      pop\n      jump\t// out\n        /* \"#utility.yul\":8039:8168   */\n    tag_109:\n        /* \"#utility.yul\":8073:8079   */\n      0x00\n        /* \"#utility.yul\":8100:8120   */\n      tag_202\n      tag_203\n      jump\t// in\n    tag_202:\n        /* \"#utility.yul\":8090:8120   */\n      swap1\n      pop\n        /* \"#utility.yul\":8129:8162   */\n      tag_204\n        /* \"#utility.yul\":8157:8161   */\n      dup3\n        /* \"#utility.yul\":8149:8155   */\n      dup3\n        /* \"#utility.yul\":8129:8162   */\n      tag_205\n      jump\t// in\n    tag_204:\n        /* \"#utility.yul\":8039:8168   */\n      swap2\n      swap1\n      pop\n      jump\t// out\n        /* \"#utility.yul\":8174:8249   */\n    tag_203:\n        /* \"#utility.yul\":8207:8213   */\n      0x00\n        /* \"#utility.yul\":8240:8242   */\n      0x40\n        /* \"#utility.yul\":8234:8243   */\n      mload\n        /* \"#utility.yul\":8224:8243   */\n      swap1\n      pop\n        /* \"#utility.yul\":8174:8249   */\n      swap1\n      jump\t// out\n        /* \"#utility.yul\":8255:8563   */\n    tag_108:\n        /* \"#utility.yul\":8317:8321   */\n      0x00\n        /* \"#utility.yul\":8407:8425   */\n      0xffffffffffffffff\n        /* \"#utility.yul\":8399:8405   */\n      dup3\n        /* \"#utility.yul\":8396:8426   */\n      gt\n        /* \"#utility.yul\":8393:8449   */\n      iszero\n      tag_208\n      jumpi\n        /* \"#utility.yul\":8429:8447   */\n      tag_209\n      tag_210\n      jump\t// in\n    tag_209:\n        /* \"#utility.yul\":8393:8449   */\n    tag_208:\n        /* \"#utility.yul\":8467:8496   */\n      tag_211\n        /* \"#utility.yul\":8489:8495   */\n      dup3\n        /* \"#utility.yul\":8467:8496   */\n      tag_160\n      jump\t// in\n    tag_211:\n        /* \"#utility.yul\":8459:8496   */\n      swap1\n      pop\n        /* \"#utility.yul\":8551:8555   */\n      0x20\n        /* \"#utility.yul\":8545:8549   */\n      dup2\n        /* \"#utility.yul\":8541:8556   */\n      add\n        /* \"#utility.yul\":8533:8556   */\n      swap1\n      pop\n        /* \"#utility.yul\":8255:8563   */\n      swap2\n      swap1\n      pop\n      jump\t// out\n        /* \"#utility.yul\":8569:8668   */\n    tag_154:\n        /* \"#utility.yul\":8621:8627   */\n      0x00\n        /* \"#utility.yul\":8655:8660   */\n      dup2\n        /* \"#utility.yul\":8649:8661   */\n      mload\n        /* \"#utility.yul\":8639:8661   */\n      swap1\n      pop\n        /* \"#utility.yul\":8569:8668   */\n      swap2\n      swap1\n      pop\n      jump\t// out\n        /* \"#utility.yul\":8674:8843   */\n    tag_156:\n        /* \"#utility.yul\":8758:8769   */\n      0x00\n        /* \"#utility.yul\":8792:8798   */\n      dup3\n        /* \"#utility.yul\":8787:8790   */\n      dup3\n        /* \"#utility.yul\":8780:8799   */\n      mstore\n        /* \"#utility.yul\":8832:8836   */\n      0x20\n        /* \"#utility.yul\":8827:8830   */\n      dup3\n        /* \"#utility.yul\":8823:8837   */\n      add\n        /* \"#utility.yul\":8808:8837   */\n      swap1\n      pop\n        /* \"#utility.yul\":8674:8843   */\n      swap3\n      swap2\n      pop\n      pop\n      jump\t// out\n        /* \"#utility.yul\":8849:8997   */\n    tag_165:\n        /* \"#utility.yul\":8951:8962   */\n      0x00\n        /* \"#utility.yul\":8988:8991   */\n      dup2\n        /* \"#utility.yul\":8973:8991   */\n      swap1\n      pop\n        /* \"#utility.yul\":8849:8997   */\n      swap3\n      swap2\n      pop\n      pop\n      jump\t// out\n        /* \"#utility.yul\":9003:9093   */\n    tag_146:\n        /* \"#utility.yul\":9037:9044   */\n      0x00\n        /* \"#utility.yul\":9080:9085   */\n      dup2\n        /* \"#utility.yul\":9073:9086   */\n      iszero\n        /* \"#utility.yul\":9066:9087   */\n      iszero\n        /* \"#utility.yul\":9055:9087   */\n      swap1\n      pop\n        /* \"#utility.yul\":9003:9093   */\n      swap2\n      swap1\n      pop\n      jump\t// out\n        /* \"#utility.yul\":9099:9176   */\n    tag_150:\n        /* \"#utility.yul\":9136:9143   */\n      0x00\n        /* \"#utility.yul\":9165:9170   */\n      dup2\n        /* \"#utility.yul\":9154:9170   */\n      swap1\n      pop\n        /* \"#utility.yul\":9099:9176   */\n      swap2\n      swap1\n      pop\n      jump\t// out\n        /* \"#utility.yul\":9182:9259   */\n    tag_175:\n        /* \"#utility.yul\":9219:9226   */\n      0x00\n        /* \"#utility.yul\":9248:9253   */\n      dup2\n        /* \"#utility.yul\":9237:9253   */\n      swap1\n      pop\n        /* \"#utility.yul\":9182:9259   */\n      swap2\n      swap1\n      pop\n      jump\t// out\n        /* \"#utility.yul\":9265:9419   */\n    tag_114:\n        /* \"#utility.yul\":9349:9355   */\n      dup3\n        /* \"#utility.yul\":9344:9347   */\n      dup2\n        /* \"#utility.yul\":9339:9342   */\n      dup4\n        /* \"#utility.yul\":9326:9356   */\n      calldatacopy\n        /* \"#utility.yul\":9411:9412   */\n      0x00\n        /* \"#utility.yul\":9402:9408   */\n      dup4\n        /* \"#utility.yul\":9397:9400   */\n      dup4\n        /* \"#utility.yul\":9393:9409   */\n      add\n        /* \"#utility.yul\":9386:9413   */\n      mstore\n        /* \"#utility.yul\":9265:9419   */\n      pop\n      pop\n      pop\n      jump\t// out\n        /* \"#utility.yul\":9425:9732   */\n    tag_158:\n        /* \"#utility.yul\":9493:9494   */\n      0x00\n        /* \"#utility.yul\":9503:9616   */\n    tag_220:\n        /* \"#utility.yul\":9517:9523   */\n      dup4\n        /* \"#utility.yul\":9514:9515   */\n      dup2\n        /* \"#utility.yul\":9511:9524   */\n      lt\n        /* \"#utility.yul\":9503:9616   */\n      iszero\n      tag_222\n      jumpi\n        /* \"#utility.yul\":9602:9603   */\n      dup1\n        /* \"#utility.yul\":9597:9600   */\n      dup3\n        /* \"#utility.yul\":9593:9604   */\n      add\n        /* \"#utility.yul\":9587:9605   */\n      mload\n        /* \"#utility.yul\":9583:9584   */\n      dup2\n        /* \"#utility.yul\":9578:9581   */\n      dup5\n        /* \"#utility.yul\":9574:9585   */\n      add\n        /* \"#utility.yul\":9567:9606   */\n      mstore\n        /* \"#utility.yul\":9539:9541   */\n      0x20\n        /* \"#utility.yul\":9536:9537   */\n      dup2\n        /* \"#utility.yul\":9532:9542   */\n      add\n        /* \"#utility.yul\":9527:9542   */\n      swap1\n      pop\n        /* \"#utility.yul\":9503:9616   */\n      jump(tag_220)\n    tag_222:\n        /* \"#utility.yul\":9634:9640   */\n      dup4\n        /* \"#utility.yul\":9631:9632   */\n      dup2\n        /* \"#utility.yul\":9628:9641   */\n      gt\n        /* \"#utility.yul\":9625:9726   */\n      iszero\n      tag_223\n      jumpi\n        /* \"#utility.yul\":9714:9715   */\n      0x00\n        /* \"#utility.yul\":9705:9711   */\n      dup5\n        /* \"#utility.yul\":9700:9703   */\n      dup5\n        /* \"#utility.yul\":9696:9712   */\n      add\n        /* \"#utility.yul\":9689:9716   */\n      mstore\n        /* \"#utility.yul\":9625:9726   */\n    tag_223:\n        /* \"#utility.yul\":9474:9732   */\n      pop\n        /* \"#utility.yul\":9425:9732   */\n      pop\n      pop\n      pop\n      jump\t// out\n        /* \"#utility.yul\":9738:10058   */\n    tag_24:\n        /* \"#utility.yul\":9782:9788   */\n      0x00\n        /* \"#utility.yul\":9819:9820   */\n      0x02\n        /* \"#utility.yul\":9813:9817   */\n      dup3\n        /* \"#utility.yul\":9809:9821   */\n      div\n        /* \"#utility.yul\":9799:9821   */\n      swap1\n      pop\n        /* \"#utility.yul\":9866:9867   */\n      0x01\n        /* \"#utility.yul\":9860:9864   */\n      dup3\n        /* \"#utility.yul\":9856:9868   */\n      and\n        /* \"#utility.yul\":9887:9905   */\n      dup1\n        /* \"#utility.yul\":9877:9958   */\n      tag_225\n      jumpi\n        /* \"#utility.yul\":9943:9947   */\n      0x7f\n        /* \"#utility.yul\":9935:9941   */\n      dup3\n        /* \"#utility.yul\":9931:9948   */\n      and\n        /* \"#utility.yul\":9921:9948   */\n      swap2\n      pop\n        /* \"#utility.yul\":9877:9958   */\n    tag_225:\n        /* \"#utility.yul\":10005:10007   */\n      0x20\n        /* \"#utility.yul\":9997:10003   */\n      dup3\n        /* \"#utility.yul\":9994:10008   */\n      lt\n        /* \"#utility.yul\":9974:9992   */\n      dup2\n        /* \"#utility.yul\":9971:10009   */\n      eq\n        /* \"#utility.yul\":9968:10052   */\n      iszero\n      tag_226\n      jumpi\n        /* \"#utility.yul\":10024:10042   */\n      tag_227\n      tag_228\n      jump\t// in\n    tag_227:\n        /* \"#utility.yul\":9968:10052   */\n    tag_226:\n        /* \"#utility.yul\":9789:10058   */\n      pop\n        /* \"#utility.yul\":9738:10058   */\n      swap2\n      swap1\n      pop\n      jump\t// out\n        /* \"#utility.yul\":10064:10345   */\n    tag_205:\n        /* \"#utility.yul\":10147:10174   */\n      tag_230\n        /* \"#utility.yul\":10169:10173   */\n      dup3\n        /* \"#utility.yul\":10147:10174   */\n      tag_160\n      jump\t// in\n    tag_230:\n        /* \"#utility.yul\":10139:10145   */\n      dup2\n        /* \"#utility.yul\":10135:10175   */\n      add\n        /* \"#utility.yul\":10277:10283   */\n      dup2\n        /* \"#utility.yul\":10265:10275   */\n      dup2\n        /* \"#utility.yul\":10262:10284   */\n      lt\n        /* \"#utility.yul\":10241:10259   */\n      0xffffffffffffffff\n        /* \"#utility.yul\":10229:10239   */\n      dup3\n        /* \"#utility.yul\":10226:10260   */\n      gt\n        /* \"#utility.yul\":10223:10285   */\n      or\n        /* \"#utility.yul\":10220:10308   */\n      iszero\n      tag_231\n      jumpi\n        /* \"#utility.yul\":10288:10306   */\n      tag_232\n      tag_210\n      jump\t// in\n    tag_232:\n        /* \"#utility.yul\":10220:10308   */\n    tag_231:\n        /* \"#utility.yul\":10328:10338   */\n      dup1\n        /* \"#utility.yul\":10324:10326   */\n      0x40\n        /* \"#utility.yul\":10317:10339   */\n      mstore\n        /* \"#utility.yul\":10107:10345   */\n      pop\n        /* \"#utility.yul\":10064:10345   */\n      pop\n      pop\n      jump\t// out\n        /* \"#utility.yul\":10351:10531   */\n    tag_228:\n        /* \"#utility.yul\":10399:10476   */\n      0x4e487b7100000000000000000000000000000000000000000000000000000000\n        /* \"#utility.yul\":10396:10397   */\n      0x00\n        /* \"#utility.yul\":10389:10477   */\n      mstore\n        /* \"#utility.yul\":10496:10500   */\n      0x22\n        /* \"#utility.yul\":10493:10494   */\n      0x04\n        /* \"#utility.yul\":10486:10501   */\n      mstore\n        /* \"#utility.yul\":10520:10524   */\n      0x24\n        /* \"#utility.yul\":10517:10518   */\n      0x00\n        /* \"#utility.yul\":10510:10525   */\n      revert\n        /* \"#utility.yul\":10537:10717   */\n    tag_210:\n        /* \"#utility.yul\":10585:10662   */\n      0x4e487b7100000000000000000000000000000000000000000000000000000000\n        /* \"#utility.yul\":10582:10583   */\n      0x00\n        /* \"#utility.yul\":10575:10663   */\n      mstore\n        /* \"#utility.yul\":10682:10686   */\n      0x41\n        /* \"#utility.yul\":10679:10680   */\n      0x04\n        /* \"#utility.yul\":10672:10687   */\n      mstore\n        /* \"#utility.yul\":10706:10710   */\n      0x24\n        /* \"#utility.yul\":10703:10704   */\n      0x00\n        /* \"#utility.yul\":10696:10711   */\n      revert\n        /* \"#utility.yul\":10723:10840   */\n    tag_123:\n        /* \"#utility.yul\":10832:10833   */\n      0x00\n        /* \"#utility.yul\":10829:10830   */\n      dup1\n        /* \"#utility.yul\":10822:10834   */\n      revert\n        /* \"#utility.yul\":10846:10963   */\n    tag_112:\n        /* \"#utility.yul\":10955:10956   */\n      0x00\n        /* \"#utility.yul\":10952:10953   */\n      dup1\n        /* \"#utility.yul\":10945:10957   */\n      revert\n        /* \"#utility.yul\":10969:11086   */\n    tag_135:\n        /* \"#utility.yul\":11078:11079   */\n      0x00\n        /* \"#utility.yul\":11075:11076   */\n      dup1\n        /* \"#utility.yul\":11068:11080   */\n      revert\n        /* \"#utility.yul\":11092:11209   */\n    tag_128:\n        /* \"#utility.yul\":11201:11202   */\n      0x00\n        /* \"#utility.yul\":11198:11199   */\n      dup1\n        /* \"#utility.yul\":11191:11203   */\n      revert\n        /* \"#utility.yul\":11215:11317   */\n    tag_160:\n        /* \"#utility.yul\":11256:11262   */\n      0x00\n        /* \"#utility.yul\":11307:11309   */\n      0x1f\n        /* \"#utility.yul\":11303:11310   */\n      not\n        /* \"#utility.yul\":11298:11300   */\n      0x1f\n        /* \"#utility.yul\":11291:11296   */\n      dup4\n        /* \"#utility.yul\":11287:11301   */\n      add\n        /* \"#utility.yul\":11283:11311   */\n      and\n        /* \"#utility.yul\":11273:11311   */\n      swap1\n      pop\n        /* \"#utility.yul\":11215:11317   */\n      swap2\n      swap1\n      pop\n      jump\t// out\n        /* \"#utility.yul\":11323:11480   */\n    tag_171:\n        /* \"#utility.yul\":11463:11472   */\n      0x7375636365737300000000000000000000000000000000000000000000000000\n        /* \"#utility.yul\":11459:11460   */\n      0x00\n        /* \"#utility.yul\":11451:11457   */\n      dup3\n        /* \"#utility.yul\":11447:11461   */\n      add\n        /* \"#utility.yul\":11440:11473   */\n      mstore\n        /* \"#utility.yul\":11323:11480   */\n      pop\n      jump\t// out\n        /* \"#utility.yul\":11486:11608   */\n    tag_118:\n        /* \"#utility.yul\":11559:11583   */\n      tag_242\n        /* \"#utility.yul\":11577:11582   */\n      dup2\n        /* \"#utility.yul\":11559:11583   */\n      tag_150\n      jump\t// in\n    tag_242:\n        /* \"#utility.yul\":11552:11557   */\n      dup2\n        /* \"#utility.yul\":11549:11584   */\n      eq\n        /* \"#utility.yul\":11539:11602   */\n      tag_243\n      jumpi\n        /* \"#utility.yul\":11598:11599   */\n      0x00\n        /* \"#utility.yul\":11595:11596   */\n      dup1\n        /* \"#utility.yul\":11588:11600   */\n      revert\n        /* \"#utility.yul\":11539:11602   */\n    tag_243:\n        /* \"#utility.yul\":11486:11608   */\n      pop\n      jump\t// out\n\n    auxdata: 0xa2646970667358221220eb01ecaf125394c9f6cf58051c50dd3d40db0e7cad456c304b3c030db16a997c64736f6c63430008070033\n}\n",
				"bytecode": {
					"linkReferences": {},
					"object": "608060405234801561001057600080fd5b50610f6b806100206000396000f3fe608060405234801561001057600080fd5b50600436106100415760003560e01c806330ee52a914610046578063462e1eed14610081578063b24c908a146100b4575b600080fd5b610060600480360381019061005b91906109ef565b6100e4565b6040516100789c9b9a99989796959493929190610baf565b60405180910390f35b61009b600480360381019061009691906109ef565b610626565b6040516100ab9493929190610ca8565b60405180910390f35b6100ce60048036038101906100c99190610a1c565b6107ee565b6040516100db9190610b94565b60405180910390f35b600160205280600052604060002060009150905080600001805461010790610e0f565b80601f016020809104026020016040519081016040528092919081815260200182805461013390610e0f565b80156101805780601f1061015557610100808354040283529160200191610180565b820191906000526020600020905b81548152906001019060200180831161016357829003601f168201915b5050505050908060010160009054906101000a900460ff16908060020154908060030180546101ae90610e0f565b80601f01602080910402602001604051908101604052809291908181526020018280546101da90610e0f565b80156102275780601f106101fc57610100808354040283529160200191610227565b820191906000526020600020905b81548152906001019060200180831161020a57829003601f168201915b50505050509080600401805461023c90610e0f565b80601f016020809104026020016040519081016040528092919081815260200182805461026890610e0f565b80156102b55780601f1061028a576101008083540402835291602001916102b5565b820191906000526020600020905b81548152906001019060200180831161029857829003601f168201915b5050505050908060050180546102ca90610e0f565b80601f01602080910402602001604051908101604052809291908181526020018280546102f690610e0f565b80156103435780601f1061031857610100808354040283529160200191610343565b820191906000526020600020905b81548152906001019060200180831161032657829003601f168201915b50505050509080600601805461035890610e0f565b80601f016020809104026020016040519081016040528092919081815260200182805461038490610e0f565b80156103d15780601f106103a6576101008083540402835291602001916103d1565b820191906000526020600020905b8154815290600101906020018083116103b457829003601f168201915b5050505050908060070180546103e690610e0f565b80601f016020809104026020016040519081016040528092919081815260200182805461041290610e0f565b801561045f5780601f106104345761010080835404028352916020019161045f565b820191906000526020600020905b81548152906001019060200180831161044257829003601f168201915b50505050509080600801805461047490610e0f565b80601f01602080910402602001604051908101604052809291908181526020018280546104a090610e0f565b80156104ed5780601f106104c2576101008083540402835291602001916104ed565b820191906000526020600020905b8154815290600101906020018083116104d057829003601f168201915b50505050509080600901805461050290610e0f565b80601f016020809104026020016040519081016040528092919081815260200182805461052e90610e0f565b801561057b5780601f106105505761010080835404028352916020019161057b565b820191906000526020600020905b81548152906001019060200180831161055e57829003601f168201915b50505050509080600a0160009054906101000a900460ff169080600b0180546105a390610e0f565b80601f01602080910402602001604051908101604052809291908181526020018280546105cf90610e0f565b801561061c5780601f106105f15761010080835404028352916020019161061c565b820191906000526020600020905b8154815290600101906020018083116105ff57829003601f168201915b505050505090508c565b600060205280600052604060002060009150905080600001805461064990610e0f565b80601f016020809104026020016040519081016040528092919081815260200182805461067590610e0f565b80156106c25780601f10610697576101008083540402835291602001916106c2565b820191906000526020600020905b8154815290600101906020018083116106a557829003601f168201915b5050505050908060010180546106d790610e0f565b80601f016020809104026020016040519081016040528092919081815260200182805461070390610e0f565b80156107505780601f1061072557610100808354040283529160200191610750565b820191906000526020600020905b81548152906001019060200180831161073357829003601f168201915b50505050509080600201805461076590610e0f565b80601f016020809104026020016040519081016040528092919081815260200182805461079190610e0f565b80156107de5780601f106107b3576101008083540402835291602001916107de565b820191906000526020600020905b8154815290600101906020018083116107c157829003601f168201915b5050505050908060030154905084565b600080846040516020016108029190610b7d565b60405160208183030381529060405280519060200120905060008060008381526020019081526020016000209050858160000190805190602001906108489291906108c7565b50848160010190805190602001906108619291906108c7565b508381600201908051906020019061087a9291906108c7565b504281600301819055507fc8922d91fbabbe8df5d667708c678575856a856a2a465ebd9626a40ab6a16f5f826040516108b39190610d02565b60405180910390a181925050509392505050565b8280546108d390610e0f565b90600052602060002090601f0160209004810192826108f5576000855561093c565b82601f1061090e57805160ff191683800117855561093c565b8280016001018555821561093c579182015b8281111561093b578251825591602001919060010190610920565b5b509050610949919061094d565b5090565b5b8082111561096657600081600090555060010161094e565b5090565b600061097d61097884610d55565b610d30565b90508281526020810184848401111561099957610998610ed5565b5b6109a4848285610dcd565b509392505050565b6000813590506109bb81610f1e565b92915050565b600082601f8301126109d6576109d5610ed0565b5b81356109e684826020860161096a565b91505092915050565b600060208284031215610a0557610a04610edf565b5b6000610a13848285016109ac565b91505092915050565b600080600060608486031215610a3557610a34610edf565b5b600084013567ffffffffffffffff811115610a5357610a52610eda565b5b610a5f868287016109c1565b935050602084013567ffffffffffffffff811115610a8057610a7f610eda565b5b610a8c868287016109c1565b925050604084013567ffffffffffffffff811115610aad57610aac610eda565b5b610ab9868287016109c1565b9150509250925092565b610acc81610dad565b82525050565b610adb81610db9565b82525050565b6000610aec82610d86565b610af68185610d91565b9350610b06818560208601610ddc565b610b0f81610ee4565b840191505092915050565b6000610b2582610d86565b610b2f8185610da2565b9350610b3f818560208601610ddc565b80840191505092915050565b6000610b58600783610d91565b9150610b6382610ef5565b602082019050919050565b610b7781610dc3565b82525050565b6000610b898284610b1a565b915081905092915050565b6000602082019050610ba96000830184610ad2565b92915050565b6000610180820190508181036000830152610bca818f610ae1565b9050610bd9602083018e610ac3565b610be6604083018d610b6e565b8181036060830152610bf8818c610ae1565b90508181036080830152610c0c818b610ae1565b905081810360a0830152610c20818a610ae1565b905081810360c0830152610c348189610ae1565b905081810360e0830152610c488188610ae1565b9050818103610100830152610c5d8187610ae1565b9050818103610120830152610c728186610ae1565b9050610c82610140830185610ac3565b818103610160830152610c958184610ae1565b90509d9c50505050505050505050505050565b60006080820190508181036000830152610cc28187610ae1565b90508181036020830152610cd68186610ae1565b90508181036040830152610cea8185610ae1565b9050610cf96060830184610b6e565b95945050505050565b60006040820190508181036000830152610d1b81610b4b565b9050610d2a6020830184610ad2565b92915050565b6000610d3a610d4b565b9050610d468282610e41565b919050565b6000604051905090565b600067ffffffffffffffff821115610d7057610d6f610ea1565b5b610d7982610ee4565b9050602081019050919050565b600081519050919050565b600082825260208201905092915050565b600081905092915050565b60008115159050919050565b6000819050919050565b6000819050919050565b82818337600083830152505050565b60005b83811015610dfa578082015181840152602081019050610ddf565b83811115610e09576000848401525b50505050565b60006002820490506001821680610e2757607f821691505b60208210811415610e3b57610e3a610e72565b5b50919050565b610e4a82610ee4565b810181811067ffffffffffffffff82111715610e6957610e68610ea1565b5b80604052505050565b7f4e487b7100000000000000000000000000000000000000000000000000000000600052602260045260246000fd5b7f4e487b7100000000000000000000000000000000000000000000000000000000600052604160045260246000fd5b600080fd5b600080fd5b600080fd5b600080fd5b6000601f19601f8301169050919050565b7f7375636365737300000000000000000000000000000000000000000000000000600082015250565b610f2781610db9565b8114610f3257600080fd5b5056fea2646970667358221220eb01ecaf125394c9f6cf58051c50dd3d40db0e7cad456c304b3c030db16a997c64736f6c63430008070033",
					"opcodes": "PUSH1 0x80 PUSH1 0x40 MSTORE CALLVALUE DUP1 ISZERO PUSH2 0x10 JUMPI PUSH1 0x0 DUP1 REVERT JUMPDEST POP PUSH2 0xF6B DUP1 PUSH2 0x20 PUSH1 0x0 CODECOPY PUSH1 0x0 RETURN INVALID PUSH1 0x80 PUSH1 0x40 MSTORE CALLVALUE DUP1 ISZERO PUSH2 0x10 JUMPI PUSH1 0x0 DUP1 REVERT JUMPDEST POP PUSH1 0x4 CALLDATASIZE LT PUSH2 0x41 JUMPI PUSH1 0x0 CALLDATALOAD PUSH1 0xE0 SHR DUP1 PUSH4 0x30EE52A9 EQ PUSH2 0x46 JUMPI DUP1 PUSH4 0x462E1EED EQ PUSH2 0x81 JUMPI DUP1 PUSH4 0xB24C908A EQ PUSH2 0xB4 JUMPI JUMPDEST PUSH1 0x0 DUP1 REVERT JUMPDEST PUSH2 0x60 PUSH1 0x4 DUP1 CALLDATASIZE SUB DUP2 ADD SWAP1 PUSH2 0x5B SWAP2 SWAP1 PUSH2 0x9EF JUMP JUMPDEST PUSH2 0xE4 JUMP JUMPDEST PUSH1 0x40 MLOAD PUSH2 0x78 SWAP13 SWAP12 SWAP11 SWAP10 SWAP9 SWAP8 SWAP7 SWAP6 SWAP5 SWAP4 SWAP3 SWAP2 SWAP1 PUSH2 0xBAF JUMP JUMPDEST PUSH1 0x40 MLOAD DUP1 SWAP2 SUB SWAP1 RETURN JUMPDEST PUSH2 0x9B PUSH1 0x4 DUP1 CALLDATASIZE SUB DUP2 ADD SWAP1 PUSH2 0x96 SWAP2 SWAP1 PUSH2 0x9EF JUMP JUMPDEST PUSH2 0x626 JUMP JUMPDEST PUSH1 0x40 MLOAD PUSH2 0xAB SWAP5 SWAP4 SWAP3 SWAP2 SWAP1 PUSH2 0xCA8 JUMP JUMPDEST PUSH1 0x40 MLOAD DUP1 SWAP2 SUB SWAP1 RETURN JUMPDEST PUSH2 0xCE PUSH1 0x4 DUP1 CALLDATASIZE SUB DUP2 ADD SWAP1 PUSH2 0xC9 SWAP2 SWAP1 PUSH2 0xA1C JUMP JUMPDEST PUSH2 0x7EE JUMP JUMPDEST PUSH1 0x40 MLOAD PUSH2 0xDB SWAP2 SWAP1 PUSH2 0xB94 JUMP JUMPDEST PUSH1 0x40 MLOAD DUP1 SWAP2 SUB SWAP1 RETURN JUMPDEST PUSH1 0x1 PUSH1 0x20 MSTORE DUP1 PUSH1 0x0 MSTORE PUSH1 0x40 PUSH1 0x0 KECCAK256 PUSH1 0x0 SWAP2 POP SWAP1 POP DUP1 PUSH1 0x0 ADD DUP1 SLOAD PUSH2 0x107 SWAP1 PUSH2 0xE0F JUMP JUMPDEST DUP1 PUSH1 0x1F ADD PUSH1 0x20 DUP1 SWAP2 DIV MUL PUSH1 0x20 ADD PUSH1 0x40 MLOAD SWAP1 DUP2 ADD PUSH1 0x40 MSTORE DUP1 SWAP3 SWAP2 SWAP1 DUP2 DUP2 MSTORE PUSH1 0x20 ADD DUP3 DUP1 SLOAD PUSH2 0x133 SWAP1 PUSH2 0xE0F JUMP JUMPDEST DUP1 ISZERO PUSH2 0x180 JUMPI DUP1 PUSH1 0x1F LT PUSH2 0x155 JUMPI PUSH2 0x100 DUP1 DUP4 SLOAD DIV MUL DUP4 MSTORE SWAP2 PUSH1 0x20 ADD SWAP2 PUSH2 0x180 JUMP JUMPDEST DUP3 ADD SWAP2 SWAP1 PUSH1 0x0 MSTORE PUSH1 0x20 PUSH1 0x0 KECCAK256 SWAP1 JUMPDEST DUP2 SLOAD DUP2 MSTORE SWAP1 PUSH1 0x1 ADD SWAP1 PUSH1 0x20 ADD DUP1 DUP4 GT PUSH2 0x163 JUMPI DUP3 SWAP1 SUB PUSH1 0x1F AND DUP3 ADD SWAP2 JUMPDEST POP POP POP POP POP SWAP1 DUP1 PUSH1 0x1 ADD PUSH1 0x0 SWAP1 SLOAD SWAP1 PUSH2 0x100 EXP SWAP1 DIV PUSH1 0xFF AND SWAP1 DUP1 PUSH1 0x2 ADD SLOAD SWAP1 DUP1 PUSH1 0x3 ADD DUP1 SLOAD PUSH2 0x1AE SWAP1 PUSH2 0xE0F JUMP JUMPDEST DUP1 PUSH1 0x1F ADD PUSH1 0x20 DUP1 SWAP2 DIV MUL PUSH1 0x20 ADD PUSH1 0x40 MLOAD SWAP1 DUP2 ADD PUSH1 0x40 MSTORE DUP1 SWAP3 SWAP2 SWAP1 DUP2 DUP2 MSTORE PUSH1 0x20 ADD DUP3 DUP1 SLOAD PUSH2 0x1DA SWAP1 PUSH2 0xE0F JUMP JUMPDEST DUP1 ISZERO PUSH2 0x227 JUMPI DUP1 PUSH1 0x1F LT PUSH2 0x1FC JUMPI PUSH2 0x100 DUP1 DUP4 SLOAD DIV MUL DUP4 MSTORE SWAP2 PUSH1 0x20 ADD SWAP2 PUSH2 0x227 JUMP JUMPDEST DUP3 ADD SWAP2 SWAP1 PUSH1 0x0 MSTORE PUSH1 0x20 PUSH1 0x0 KECCAK256 SWAP1 JUMPDEST DUP2 SLOAD DUP2 MSTORE SWAP1 PUSH1 0x1 ADD SWAP1 PUSH1 0x20 ADD DUP1 DUP4 GT PUSH2 0x20A JUMPI DUP3 SWAP1 SUB PUSH1 0x1F AND DUP3 ADD SWAP2 JUMPDEST POP POP POP POP POP SWAP1 DUP1 PUSH1 0x4 ADD DUP1 SLOAD PUSH2 0x23C SWAP1 PUSH2 0xE0F JUMP JUMPDEST DUP1 PUSH1 0x1F ADD PUSH1 0x20 DUP1 SWAP2 DIV MUL PUSH1 0x20 ADD PUSH1 0x40 MLOAD SWAP1 DUP2 ADD PUSH1 0x40 MSTORE DUP1 SWAP3 SWAP2 SWAP1 DUP2 DUP2 MSTORE PUSH1 0x20 ADD DUP3 DUP1 SLOAD PUSH2 0x268 SWAP1 PUSH2 0xE0F JUMP JUMPDEST DUP1 ISZERO PUSH2 0x2B5 JUMPI DUP1 PUSH1 0x1F LT PUSH2 0x28A JUMPI PUSH2 0x100 DUP1 DUP4 SLOAD DIV MUL DUP4 MSTORE SWAP2 PUSH1 0x20 ADD SWAP2 PUSH2 0x2B5 JUMP JUMPDEST DUP3 ADD SWAP2 SWAP1 PUSH1 0x0 MSTORE PUSH1 0x20 PUSH1 0x0 KECCAK256 SWAP1 JUMPDEST DUP2 SLOAD DUP2 MSTORE SWAP1 PUSH1 0x1 ADD SWAP1 PUSH1 0x20 ADD DUP1 DUP4 GT PUSH2 0x298 JUMPI DUP3 SWAP1 SUB PUSH1 0x1F AND DUP3 ADD SWAP2 JUMPDEST POP POP POP POP POP SWAP1 DUP1 PUSH1 0x5 ADD DUP1 SLOAD PUSH2 0x2CA SWAP1 PUSH2 0xE0F JUMP JUMPDEST DUP1 PUSH1 0x1F ADD PUSH1 0x20 DUP1 SWAP2 DIV MUL PUSH1 0x20 ADD PUSH1 0x40 MLOAD SWAP1 DUP2 ADD PUSH1 0x40 MSTORE DUP1 SWAP3 SWAP2 SWAP1 DUP2 DUP2 MSTORE PUSH1 0x20 ADD DUP3 DUP1 SLOAD PUSH2 0x2F6 SWAP1 PUSH2 0xE0F JUMP JUMPDEST DUP1 ISZERO PUSH2 0x343 JUMPI DUP1 PUSH1 0x1F LT PUSH2 0x318 JUMPI PUSH2 0x100 DUP1 DUP4 SLOAD DIV MUL DUP4 MSTORE SWAP2 PUSH1 0x20 ADD SWAP2 PUSH2 0x343 JUMP JUMPDEST DUP3 ADD SWAP2 SWAP1 PUSH1 0x0 MSTORE PUSH1 0x20 PUSH1 0x0 KECCAK256 SWAP1 JUMPDEST DUP2 SLOAD DUP2 MSTORE SWAP1 PUSH1 0x1 ADD SWAP1 PUSH1 0x20 ADD DUP1 DUP4 GT PUSH2 0x326 JUMPI DUP3 SWAP1 SUB PUSH1 0x1F AND DUP3 ADD SWAP2 JUMPDEST POP POP POP POP POP SWAP1 DUP1 PUSH1 0x6 ADD DUP1 SLOAD PUSH2 0x358 SWAP1 PUSH2 0xE0F JUMP JUMPDEST DUP1 PUSH1 0x1F ADD PUSH1 0x20 DUP1 SWAP2 DIV MUL PUSH1 0x20 ADD PUSH1 0x40 MLOAD SWAP1 DUP2 ADD PUSH1 0x40 MSTORE DUP1 SWAP3 SWAP2 SWAP1 DUP2 DUP2 MSTORE PUSH1 0x20 ADD DUP3 DUP1 SLOAD PUSH2 0x384 SWAP1 PUSH2 0xE0F JUMP JUMPDEST DUP1 ISZERO PUSH2 0x3D1 JUMPI DUP1 PUSH1 0x1F LT PUSH2 0x3A6 JUMPI PUSH2 0x100 DUP1 DUP4 SLOAD DIV MUL DUP4 MSTORE SWAP2 PUSH1 0x20 ADD SWAP2 PUSH2 0x3D1 JUMP JUMPDEST DUP3 ADD SWAP2 SWAP1 PUSH1 0x0 MSTORE PUSH1 0x20 PUSH1 0x0 KECCAK256 SWAP1 JUMPDEST DUP2 SLOAD DUP2 MSTORE SWAP1 PUSH1 0x1 ADD SWAP1 PUSH1 0x20 ADD DUP1 DUP4 GT PUSH2 0x3B4 JUMPI DUP3 SWAP1 SUB PUSH1 0x1F AND DUP3 ADD SWAP2 JUMPDEST POP POP POP POP POP SWAP1 DUP1 PUSH1 0x7 ADD DUP1 SLOAD PUSH2 0x3E6 SWAP1 PUSH2 0xE0F JUMP JUMPDEST DUP1 PUSH1 0x1F ADD PUSH1 0x20 DUP1 SWAP2 DIV MUL PUSH1 0x20 ADD PUSH1 0x40 MLOAD SWAP1 DUP2 ADD PUSH1 0x40 MSTORE DUP1 SWAP3 SWAP2 SWAP1 DUP2 DUP2 MSTORE PUSH1 0x20 ADD DUP3 DUP1 SLOAD PUSH2 0x412 SWAP1 PUSH2 0xE0F JUMP JUMPDEST DUP1 ISZERO PUSH2 0x45F JUMPI DUP1 PUSH1 0x1F LT PUSH2 0x434 JUMPI PUSH2 0x100 DUP1 DUP4 SLOAD DIV MUL DUP4 MSTORE SWAP2 PUSH1 0x20 ADD SWAP2 PUSH2 0x45F JUMP JUMPDEST DUP3 ADD SWAP2 SWAP1 PUSH1 0x0 MSTORE PUSH1 0x20 PUSH1 0x0 KECCAK256 SWAP1 JUMPDEST DUP2 SLOAD DUP2 MSTORE SWAP1 PUSH1 0x1 ADD SWAP1 PUSH1 0x20 ADD DUP1 DUP4 GT PUSH2 0x442 JUMPI DUP3 SWAP1 SUB PUSH1 0x1F AND DUP3 ADD SWAP2 JUMPDEST POP POP POP POP POP SWAP1 DUP1 PUSH1 0x8 ADD DUP1 SLOAD PUSH2 0x474 SWAP1 PUSH2 0xE0F JUMP JUMPDEST DUP1 PUSH1 0x1F ADD PUSH1 0x20 DUP1 SWAP2 DIV MUL PUSH1 0x20 ADD PUSH1 0x40 MLOAD SWAP1 DUP2 ADD PUSH1 0x40 MSTORE DUP1 SWAP3 SWAP2 SWAP1 DUP2 DUP2 MSTORE PUSH1 0x20 ADD DUP3 DUP1 SLOAD PUSH2 0x4A0 SWAP1 PUSH2 0xE0F JUMP JUMPDEST DUP1 ISZERO PUSH2 0x4ED JUMPI DUP1 PUSH1 0x1F LT PUSH2 0x4C2 JUMPI PUSH2 0x100 DUP1 DUP4 SLOAD DIV MUL DUP4 MSTORE SWAP2 PUSH1 0x20 ADD SWAP2 PUSH2 0x4ED JUMP JUMPDEST DUP3 ADD SWAP2 SWAP1 PUSH1 0x0 MSTORE PUSH1 0x20 PUSH1 0x0 KECCAK256 SWAP1 JUMPDEST DUP2 SLOAD DUP2 MSTORE SWAP1 PUSH1 0x1 ADD SWAP1 PUSH1 0x20 ADD DUP1 DUP4 GT PUSH2 0x4D0 JUMPI DUP3 SWAP1 SUB PUSH1 0x1F AND DUP3 ADD SWAP2 JUMPDEST POP POP POP POP POP SWAP1 DUP1 PUSH1 0x9 ADD DUP1 SLOAD PUSH2 0x502 SWAP1 PUSH2 0xE0F JUMP JUMPDEST DUP1 PUSH1 0x1F ADD PUSH1 0x20 DUP1 SWAP2 DIV MUL PUSH1 0x20 ADD PUSH1 0x40 MLOAD SWAP1 DUP2 ADD PUSH1 0x40 MSTORE DUP1 SWAP3 SWAP2 SWAP1 DUP2 DUP2 MSTORE PUSH1 0x20 ADD DUP3 DUP1 SLOAD PUSH2 0x52E SWAP1 PUSH2 0xE0F JUMP JUMPDEST DUP1 ISZERO PUSH2 0x57B JUMPI DUP1 PUSH1 0x1F LT PUSH2 0x550 JUMPI PUSH2 0x100 DUP1 DUP4 SLOAD DIV MUL DUP4 MSTORE SWAP2 PUSH1 0x20 ADD SWAP2 PUSH2 0x57B JUMP JUMPDEST DUP3 ADD SWAP2 SWAP1 PUSH1 0x0 MSTORE PUSH1 0x20 PUSH1 0x0 KECCAK256 SWAP1 JUMPDEST DUP2 SLOAD DUP2 MSTORE SWAP1 PUSH1 0x1 ADD SWAP1 PUSH1 0x20 ADD DUP1 DUP4 GT PUSH2 0x55E JUMPI DUP3 SWAP1 SUB PUSH1 0x1F AND DUP3 ADD SWAP2 JUMPDEST POP POP POP POP POP SWAP1 DUP1 PUSH1 0xA ADD PUSH1 0x0 SWAP1 SLOAD SWAP1 PUSH2 0x100 EXP SWAP1 DIV PUSH1 0xFF AND SWAP1 DUP1 PUSH1 0xB ADD DUP1 SLOAD PUSH2 0x5A3 SWAP1 PUSH2 0xE0F JUMP JUMPDEST DUP1 PUSH1 0x1F ADD PUSH1 0x20 DUP1 SWAP2 DIV MUL PUSH1 0x20 ADD PUSH1 0x40 MLOAD SWAP1 DUP2 ADD PUSH1 0x40 MSTORE DUP1 SWAP3 SWAP2 SWAP1 DUP2 DUP2 MSTORE PUSH1 0x20 ADD DUP3 DUP1 SLOAD PUSH2 0x5CF SWAP1 PUSH2 0xE0F JUMP JUMPDEST DUP1 ISZERO PUSH2 0x61C JUMPI DUP1 PUSH1 0x1F LT PUSH2 0x5F1 JUMPI PUSH2 0x100 DUP1 DUP4 SLOAD DIV MUL DUP4 MSTORE SWAP2 PUSH1 0x20 ADD SWAP2 PUSH2 0x61C JUMP JUMPDEST DUP3 ADD SWAP2 SWAP1 PUSH1 0x0 MSTORE PUSH1 0x20 PUSH1 0x0 KECCAK256 SWAP1 JUMPDEST DUP2 SLOAD DUP2 MSTORE SWAP1 PUSH1 0x1 ADD SWAP1 PUSH1 0x20 ADD DUP1 DUP4 GT PUSH2 0x5FF JUMPI DUP3 SWAP1 SUB PUSH1 0x1F AND DUP3 ADD SWAP2 JUMPDEST POP POP POP POP POP SWAP1 POP DUP13 JUMP JUMPDEST PUSH1 0x0 PUSH1 0x20 MSTORE DUP1 PUSH1 0x0 MSTORE PUSH1 0x40 PUSH1 0x0 KECCAK256 PUSH1 0x0 SWAP2 POP SWAP1 POP DUP1 PUSH1 0x0 ADD DUP1 SLOAD PUSH2 0x649 SWAP1 PUSH2 0xE0F JUMP JUMPDEST DUP1 PUSH1 0x1F ADD PUSH1 0x20 DUP1 SWAP2 DIV MUL PUSH1 0x20 ADD PUSH1 0x40 MLOAD SWAP1 DUP2 ADD PUSH1 0x40 MSTORE DUP1 SWAP3 SWAP2 SWAP1 DUP2 DUP2 MSTORE PUSH1 0x20 ADD DUP3 DUP1 SLOAD PUSH2 0x675 SWAP1 PUSH2 0xE0F JUMP JUMPDEST DUP1 ISZERO PUSH2 0x6C2 JUMPI DUP1 PUSH1 0x1F LT PUSH2 0x697 JUMPI PUSH2 0x100 DUP1 DUP4 SLOAD DIV MUL DUP4 MSTORE SWAP2 PUSH1 0x20 ADD SWAP2 PUSH2 0x6C2 JUMP JUMPDEST DUP3 ADD SWAP2 SWAP1 PUSH1 0x0 MSTORE PUSH1 0x20 PUSH1 0x0 KECCAK256 SWAP1 JUMPDEST DUP2 SLOAD DUP2 MSTORE SWAP1 PUSH1 0x1 ADD SWAP1 PUSH1 0x20 ADD DUP1 DUP4 GT PUSH2 0x6A5 JUMPI DUP3 SWAP1 SUB PUSH1 0x1F AND DUP3 ADD SWAP2 JUMPDEST POP POP POP POP POP SWAP1 DUP1 PUSH1 0x1 ADD DUP1 SLOAD PUSH2 0x6D7 SWAP1 PUSH2 0xE0F JUMP JUMPDEST DUP1 PUSH1 0x1F ADD PUSH1 0x20 DUP1 SWAP2 DIV MUL PUSH1 0x20 ADD PUSH1 0x40 MLOAD SWAP1 DUP2 ADD PUSH1 0x40 MSTORE DUP1 SWAP3 SWAP2 SWAP1 DUP2 DUP2 MSTORE PUSH1 0x20 ADD DUP3 DUP1 SLOAD PUSH2 0x703 SWAP1 PUSH2 0xE0F JUMP JUMPDEST DUP1 ISZERO PUSH2 0x750 JUMPI DUP1 PUSH1 0x1F LT PUSH2 0x725 JUMPI PUSH2 0x100 DUP1 DUP4 SLOAD DIV MUL DUP4 MSTORE SWAP2 PUSH1 0x20 ADD SWAP2 PUSH2 0x750 JUMP JUMPDEST DUP3 ADD SWAP2 SWAP1 PUSH1 0x0 MSTORE PUSH1 0x20 PUSH1 0x0 KECCAK256 SWAP1 JUMPDEST DUP2 SLOAD DUP2 MSTORE SWAP1 PUSH1 0x1 ADD SWAP1 PUSH1 0x20 ADD DUP1 DUP4 GT PUSH2 0x733 JUMPI DUP3 SWAP1 SUB PUSH1 0x1F AND DUP3 ADD SWAP2 JUMPDEST POP POP POP POP POP SWAP1 DUP1 PUSH1 0x2 ADD DUP1 SLOAD PUSH2 0x765 SWAP1 PUSH2 0xE0F JUMP JUMPDEST DUP1 PUSH1 0x1F ADD PUSH1 0x20 DUP1 SWAP2 DIV MUL PUSH1 0x20 ADD PUSH1 0x40 MLOAD SWAP1 DUP2 ADD PUSH1 0x40 MSTORE DUP1 SWAP3 SWAP2 SWAP1 DUP2 DUP2 MSTORE PUSH1 0x20 ADD DUP3 DUP1 SLOAD PUSH2 0x791 SWAP1 PUSH2 0xE0F JUMP JUMPDEST DUP1 ISZERO PUSH2 0x7DE JUMPI DUP1 PUSH1 0x1F LT PUSH2 0x7B3 JUMPI PUSH2 0x100 DUP1 DUP4 SLOAD DIV MUL DUP4 MSTORE SWAP2 PUSH1 0x20 ADD SWAP2 PUSH2 0x7DE JUMP JUMPDEST DUP3 ADD SWAP2 SWAP1 PUSH1 0x0 MSTORE PUSH1 0x20 PUSH1 0x0 KECCAK256 SWAP1 JUMPDEST DUP2 SLOAD DUP2 MSTORE SWAP1 PUSH1 0x1 ADD SWAP1 PUSH1 0x20 ADD DUP1 DUP4 GT PUSH2 0x7C1 JUMPI DUP3 SWAP1 SUB PUSH1 0x1F AND DUP3 ADD SWAP2 JUMPDEST POP POP POP POP POP SWAP1 DUP1 PUSH1 0x3 ADD SLOAD SWAP1 POP DUP5 JUMP JUMPDEST PUSH1 0x0 DUP1 DUP5 PUSH1 0x40 MLOAD PUSH1 0x20 ADD PUSH2 0x802 SWAP2 SWAP1 PUSH2 0xB7D JUMP JUMPDEST PUSH1 0x40 MLOAD PUSH1 0x20 DUP2 DUP4 SUB SUB DUP2 MSTORE SWAP1 PUSH1 0x40 MSTORE DUP1 MLOAD SWAP1 PUSH1 0x20 ADD KECCAK256 SWAP1 POP PUSH1 0x0 DUP1 PUSH1 0x0 DUP4 DUP2 MSTORE PUSH1 0x20 ADD SWAP1 DUP2 MSTORE PUSH1 0x20 ADD PUSH1 0x0 KECCAK256 SWAP1 POP DUP6 DUP2 PUSH1 0x0 ADD SWAP1 DUP1 MLOAD SWAP1 PUSH1 0x20 ADD SWAP1 PUSH2 0x848 SWAP3 SWAP2 SWAP1 PUSH2 0x8C7 JUMP JUMPDEST POP DUP5 DUP2 PUSH1 0x1 ADD SWAP1 DUP1 MLOAD SWAP1 PUSH1 0x20 ADD SWAP1 PUSH2 0x861 SWAP3 SWAP2 SWAP1 PUSH2 0x8C7 JUMP JUMPDEST POP DUP4 DUP2 PUSH1 0x2 ADD SWAP1 DUP1 MLOAD SWAP1 PUSH1 0x20 ADD SWAP1 PUSH2 0x87A SWAP3 SWAP2 SWAP1 PUSH2 0x8C7 JUMP JUMPDEST POP TIMESTAMP DUP2 PUSH1 0x3 ADD DUP2 SWAP1 SSTORE POP PUSH32 0xC8922D91FBABBE8DF5D667708C678575856A856A2A465EBD9626A40AB6A16F5F DUP3 PUSH1 0x40 MLOAD PUSH2 0x8B3 SWAP2 SWAP1 PUSH2 0xD02 JUMP JUMPDEST PUSH1 0x40 MLOAD DUP1 SWAP2 SUB SWAP1 LOG1 DUP2 SWAP3 POP POP POP SWAP4 SWAP3 POP POP POP JUMP JUMPDEST DUP3 DUP1 SLOAD PUSH2 0x8D3 SWAP1 PUSH2 0xE0F JUMP JUMPDEST SWAP1 PUSH1 0x0 MSTORE PUSH1 0x20 PUSH1 0x0 KECCAK256 SWAP1 PUSH1 0x1F ADD PUSH1 0x20 SWAP1 DIV DUP2 ADD SWAP3 DUP3 PUSH2 0x8F5 JUMPI PUSH1 0x0 DUP6 SSTORE PUSH2 0x93C JUMP JUMPDEST DUP3 PUSH1 0x1F LT PUSH2 0x90E JUMPI DUP1 MLOAD PUSH1 0xFF NOT AND DUP4 DUP1 ADD OR DUP6 SSTORE PUSH2 0x93C JUMP JUMPDEST DUP3 DUP1 ADD PUSH1 0x1 ADD DUP6 SSTORE DUP3 ISZERO PUSH2 0x93C JUMPI SWAP2 DUP3 ADD JUMPDEST DUP3 DUP2 GT ISZERO PUSH2 0x93B JUMPI DUP3 MLOAD DUP3 SSTORE SWAP2 PUSH1 0x20 ADD SWAP2 SWAP1 PUSH1 0x1 ADD SWAP1 PUSH2 0x920 JUMP JUMPDEST JUMPDEST POP SWAP1 POP PUSH2 0x949 SWAP2 SWAP1 PUSH2 0x94D JUMP JUMPDEST POP SWAP1 JUMP JUMPDEST JUMPDEST DUP1 DUP3 GT ISZERO PUSH2 0x966 JUMPI PUSH1 0x0 DUP2 PUSH1 0x0 SWAP1 SSTORE POP PUSH1 0x1 ADD PUSH2 0x94E JUMP JUMPDEST POP SWAP1 JUMP JUMPDEST PUSH1 0x0 PUSH2 0x97D PUSH2 0x978 DUP5 PUSH2 0xD55 JUMP JUMPDEST PUSH2 0xD30 JUMP JUMPDEST SWAP1 POP DUP3 DUP2 MSTORE PUSH1 0x20 DUP2 ADD DUP5 DUP5 DUP5 ADD GT ISZERO PUSH2 0x999 JUMPI PUSH2 0x998 PUSH2 0xED5 JUMP JUMPDEST JUMPDEST PUSH2 0x9A4 DUP5 DUP3 DUP6 PUSH2 0xDCD JUMP JUMPDEST POP SWAP4 SWAP3 POP POP POP JUMP JUMPDEST PUSH1 0x0 DUP2 CALLDATALOAD SWAP1 POP PUSH2 0x9BB DUP2 PUSH2 0xF1E JUMP JUMPDEST SWAP3 SWAP2 POP POP JUMP JUMPDEST PUSH1 0x0 DUP3 PUSH1 0x1F DUP4 ADD SLT PUSH2 0x9D6 JUMPI PUSH2 0x9D5 PUSH2 0xED0 JUMP JUMPDEST JUMPDEST DUP2 CALLDATALOAD PUSH2 0x9E6 DUP5 DUP3 PUSH1 0x20 DUP7 ADD PUSH2 0x96A JUMP JUMPDEST SWAP2 POP POP SWAP3 SWAP2 POP POP JUMP JUMPDEST PUSH1 0x0 PUSH1 0x20 DUP3 DUP5 SUB SLT ISZERO PUSH2 0xA05 JUMPI PUSH2 0xA04 PUSH2 0xEDF JUMP JUMPDEST JUMPDEST PUSH1 0x0 PUSH2 0xA13 DUP5 DUP3 DUP6 ADD PUSH2 0x9AC JUMP JUMPDEST SWAP2 POP POP SWAP3 SWAP2 POP POP JUMP JUMPDEST PUSH1 0x0 DUP1 PUSH1 0x0 PUSH1 0x60 DUP5 DUP7 SUB SLT ISZERO PUSH2 0xA35 JUMPI PUSH2 0xA34 PUSH2 0xEDF JUMP JUMPDEST JUMPDEST PUSH1 0x0 DUP5 ADD CALLDATALOAD PUSH8 0xFFFFFFFFFFFFFFFF DUP2 GT ISZERO PUSH2 0xA53 JUMPI PUSH2 0xA52 PUSH2 0xEDA JUMP JUMPDEST JUMPDEST PUSH2 0xA5F DUP7 DUP3 DUP8 ADD PUSH2 0x9C1 JUMP JUMPDEST SWAP4 POP POP PUSH1 0x20 DUP5 ADD CALLDATALOAD PUSH8 0xFFFFFFFFFFFFFFFF DUP2 GT ISZERO PUSH2 0xA80 JUMPI PUSH2 0xA7F PUSH2 0xEDA JUMP JUMPDEST JUMPDEST PUSH2 0xA8C DUP7 DUP3 DUP8 ADD PUSH2 0x9C1 JUMP JUMPDEST SWAP3 POP POP PUSH1 0x40 DUP5 ADD CALLDATALOAD PUSH8 0xFFFFFFFFFFFFFFFF DUP2 GT ISZERO PUSH2 0xAAD JUMPI PUSH2 0xAAC PUSH2 0xEDA JUMP JUMPDEST JUMPDEST PUSH2 0xAB9 DUP7 DUP3 DUP8 ADD PUSH2 0x9C1 JUMP JUMPDEST SWAP2 POP POP SWAP3 POP SWAP3 POP SWAP3 JUMP JUMPDEST PUSH2 0xACC DUP2 PUSH2 0xDAD JUMP JUMPDEST DUP3 MSTORE POP POP JUMP JUMPDEST PUSH2 0xADB DUP2 PUSH2 0xDB9 JUMP JUMPDEST DUP3 MSTORE POP POP JUMP JUMPDEST PUSH1 0x0 PUSH2 0xAEC DUP3 PUSH2 0xD86 JUMP JUMPDEST PUSH2 0xAF6 DUP2 DUP6 PUSH2 0xD91 JUMP JUMPDEST SWAP4 POP PUSH2 0xB06 DUP2 DUP6 PUSH1 0x20 DUP7 ADD PUSH2 0xDDC JUMP JUMPDEST PUSH2 0xB0F DUP2 PUSH2 0xEE4 JUMP JUMPDEST DUP5 ADD SWAP2 POP POP SWAP3 SWAP2 POP POP JUMP JUMPDEST PUSH1 0x0 PUSH2 0xB25 DUP3 PUSH2 0xD86 JUMP JUMPDEST PUSH2 0xB2F DUP2 DUP6 PUSH2 0xDA2 JUMP JUMPDEST SWAP4 POP PUSH2 0xB3F DUP2 DUP6 PUSH1 0x20 DUP7 ADD PUSH2 0xDDC JUMP JUMPDEST DUP1 DUP5 ADD SWAP2 POP POP SWAP3 SWAP2 POP POP JUMP JUMPDEST PUSH1 0x0 PUSH2 0xB58 PUSH1 0x7 DUP4 PUSH2 0xD91 JUMP JUMPDEST SWAP2 POP PUSH2 0xB63 DUP3 PUSH2 0xEF5 JUMP JUMPDEST PUSH1 0x20 DUP3 ADD SWAP1 POP SWAP2 SWAP1 POP JUMP JUMPDEST PUSH2 0xB77 DUP2 PUSH2 0xDC3 JUMP JUMPDEST DUP3 MSTORE POP POP JUMP JUMPDEST PUSH1 0x0 PUSH2 0xB89 DUP3 DUP5 PUSH2 0xB1A JUMP JUMPDEST SWAP2 POP DUP2 SWAP1 POP SWAP3 SWAP2 POP POP JUMP JUMPDEST PUSH1 0x0 PUSH1 0x20 DUP3 ADD SWAP1 POP PUSH2 0xBA9 PUSH1 0x0 DUP4 ADD DUP5 PUSH2 0xAD2 JUMP JUMPDEST SWAP3 SWAP2 POP POP JUMP JUMPDEST PUSH1 0x0 PUSH2 0x180 DUP3 ADD SWAP1 POP DUP2 DUP2 SUB PUSH1 0x0 DUP4 ADD MSTORE PUSH2 0xBCA DUP2 DUP16 PUSH2 0xAE1 JUMP JUMPDEST SWAP1 POP PUSH2 0xBD9 PUSH1 0x20 DUP4 ADD DUP15 PUSH2 0xAC3 JUMP JUMPDEST PUSH2 0xBE6 PUSH1 0x40 DUP4 ADD DUP14 PUSH2 0xB6E JUMP JUMPDEST DUP2 DUP2 SUB PUSH1 0x60 DUP4 ADD MSTORE PUSH2 0xBF8 DUP2 DUP13 PUSH2 0xAE1 JUMP JUMPDEST SWAP1 POP DUP2 DUP2 SUB PUSH1 0x80 DUP4 ADD MSTORE PUSH2 0xC0C DUP2 DUP12 PUSH2 0xAE1 JUMP JUMPDEST SWAP1 POP DUP2 DUP2 SUB PUSH1 0xA0 DUP4 ADD MSTORE PUSH2 0xC20 DUP2 DUP11 PUSH2 0xAE1 JUMP JUMPDEST SWAP1 POP DUP2 DUP2 SUB PUSH1 0xC0 DUP4 ADD MSTORE PUSH2 0xC34 DUP2 DUP10 PUSH2 0xAE1 JUMP JUMPDEST SWAP1 POP DUP2 DUP2 SUB PUSH1 0xE0 DUP4 ADD MSTORE PUSH2 0xC48 DUP2 DUP9 PUSH2 0xAE1 JUMP JUMPDEST SWAP1 POP DUP2 DUP2 SUB PUSH2 0x100 DUP4 ADD MSTORE PUSH2 0xC5D DUP2 DUP8 PUSH2 0xAE1 JUMP JUMPDEST SWAP1 POP DUP2 DUP2 SUB PUSH2 0x120 DUP4 ADD MSTORE PUSH2 0xC72 DUP2 DUP7 PUSH2 0xAE1 JUMP JUMPDEST SWAP1 POP PUSH2 0xC82 PUSH2 0x140 DUP4 ADD DUP6 PUSH2 0xAC3 JUMP JUMPDEST DUP2 DUP2 SUB PUSH2 0x160 DUP4 ADD MSTORE PUSH2 0xC95 DUP2 DUP5 PUSH2 0xAE1 JUMP JUMPDEST SWAP1 POP SWAP14 SWAP13 POP POP POP POP POP POP POP POP POP POP POP POP POP JUMP JUMPDEST PUSH1 0x0 PUSH1 0x80 DUP3 ADD SWAP1 POP DUP2 DUP2 SUB PUSH1 0x0 DUP4 ADD MSTORE PUSH2 0xCC2 DUP2 DUP8 PUSH2 0xAE1 JUMP JUMPDEST SWAP1 POP DUP2 DUP2 SUB PUSH1 0x20 DUP4 ADD MSTORE PUSH2 0xCD6 DUP2 DUP7 PUSH2 0xAE1 JUMP JUMPDEST SWAP1 POP DUP2 DUP2 SUB PUSH1 0x40 DUP4 ADD MSTORE PUSH2 0xCEA DUP2 DUP6 PUSH2 0xAE1 JUMP JUMPDEST SWAP1 POP PUSH2 0xCF9 PUSH1 0x60 DUP4 ADD DUP5 PUSH2 0xB6E JUMP JUMPDEST SWAP6 SWAP5 POP POP POP POP POP JUMP JUMPDEST PUSH1 0x0 PUSH1 0x40 DUP3 ADD SWAP1 POP DUP2 DUP2 SUB PUSH1 0x0 DUP4 ADD MSTORE PUSH2 0xD1B DUP2 PUSH2 0xB4B JUMP JUMPDEST SWAP1 POP PUSH2 0xD2A PUSH1 0x20 DUP4 ADD DUP5 PUSH2 0xAD2 JUMP JUMPDEST SWAP3 SWAP2 POP POP JUMP JUMPDEST PUSH1 0x0 PUSH2 0xD3A PUSH2 0xD4B JUMP JUMPDEST SWAP1 POP PUSH2 0xD46 DUP3 DUP3 PUSH2 0xE41 JUMP JUMPDEST SWAP2 SWAP1 POP JUMP JUMPDEST PUSH1 0x0 PUSH1 0x40 MLOAD SWAP1 POP SWAP1 JUMP JUMPDEST PUSH1 0x0 PUSH8 0xFFFFFFFFFFFFFFFF DUP3 GT ISZERO PUSH2 0xD70 JUMPI PUSH2 0xD6F PUSH2 0xEA1 JUMP JUMPDEST JUMPDEST PUSH2 0xD79 DUP3 PUSH2 0xEE4 JUMP JUMPDEST SWAP1 POP PUSH1 0x20 DUP2 ADD SWAP1 POP SWAP2 SWAP1 POP JUMP JUMPDEST PUSH1 0x0 DUP2 MLOAD SWAP1 POP SWAP2 SWAP1 POP JUMP JUMPDEST PUSH1 0x0 DUP3 DUP3 MSTORE PUSH1 0x20 DUP3 ADD SWAP1 POP SWAP3 SWAP2 POP POP JUMP JUMPDEST PUSH1 0x0 DUP2 SWAP1 POP SWAP3 SWAP2 POP POP JUMP JUMPDEST PUSH1 0x0 DUP2 ISZERO ISZERO SWAP1 POP SWAP2 SWAP1 POP JUMP JUMPDEST PUSH1 0x0 DUP2 SWAP1 POP SWAP2 SWAP1 POP JUMP JUMPDEST PUSH1 0x0 DUP2 SWAP1 POP SWAP2 SWAP1 POP JUMP JUMPDEST DUP3 DUP2 DUP4 CALLDATACOPY PUSH1 0x0 DUP4 DUP4 ADD MSTORE POP POP POP JUMP JUMPDEST PUSH1 0x0 JUMPDEST DUP4 DUP2 LT ISZERO PUSH2 0xDFA JUMPI DUP1 DUP3 ADD MLOAD DUP2 DUP5 ADD MSTORE PUSH1 0x20 DUP2 ADD SWAP1 POP PUSH2 0xDDF JUMP JUMPDEST DUP4 DUP2 GT ISZERO PUSH2 0xE09 JUMPI PUSH1 0x0 DUP5 DUP5 ADD MSTORE JUMPDEST POP POP POP POP JUMP JUMPDEST PUSH1 0x0 PUSH1 0x2 DUP3 DIV SWAP1 POP PUSH1 0x1 DUP3 AND DUP1 PUSH2 0xE27 JUMPI PUSH1 0x7F DUP3 AND SWAP2 POP JUMPDEST PUSH1 0x20 DUP3 LT DUP2 EQ ISZERO PUSH2 0xE3B JUMPI PUSH2 0xE3A PUSH2 0xE72 JUMP JUMPDEST JUMPDEST POP SWAP2 SWAP1 POP JUMP JUMPDEST PUSH2 0xE4A DUP3 PUSH2 0xEE4 JUMP JUMPDEST DUP2 ADD DUP2 DUP2 LT PUSH8 0xFFFFFFFFFFFFFFFF DUP3 GT OR ISZERO PUSH2 0xE69 JUMPI PUSH2 0xE68 PUSH2 0xEA1 JUMP JUMPDEST JUMPDEST DUP1 PUSH1 0x40 MSTORE POP POP POP JUMP JUMPDEST PUSH32 0x4E487B7100000000000000000000000000000000000000000000000000000000 PUSH1 0x0 MSTORE PUSH1 0x22 PUSH1 0x4 MSTORE PUSH1 0x24 PUSH1 0x0 REVERT JUMPDEST PUSH32 0x4E487B7100000000000000000000000000000000000000000000000000000000 PUSH1 0x0 MSTORE PUSH1 0x41 PUSH1 0x4 MSTORE PUSH1 0x24 PUSH1 0x0 REVERT JUMPDEST PUSH1 0x0 DUP1 REVERT JUMPDEST PUSH1 0x0 DUP1 REVERT JUMPDEST PUSH1 0x0 DUP1 REVERT JUMPDEST PUSH1 0x0 DUP1 REVERT JUMPDEST PUSH1 0x0 PUSH1 0x1F NOT PUSH1 0x1F DUP4 ADD AND SWAP1 POP SWAP2 SWAP1 POP JUMP JUMPDEST PUSH32 0x7375636365737300000000000000000000000000000000000000000000000000 PUSH1 0x0 DUP3 ADD MSTORE POP JUMP JUMPDEST PUSH2 0xF27 DUP2 PUSH2 0xDB9 JUMP JUMPDEST DUP2 EQ PUSH2 0xF32 JUMPI PUSH1 0x0 DUP1 REVERT JUMPDEST POP JUMP INVALID LOG2 PUSH5 0x6970667358 0x22 SLT KECCAK256 0xEB ADD 0xEC 0xAF SLT MSTORE8 SWAP5 0xC9 0xF6 0xCF PC SDIV SHR POP 0xDD RETURNDATASIZE BLOCKHASH 0xDB 0xE PUSH29 0xAD456C304B3C030DB16A997C64736F6C63430008070033000000000000 "
				},
				"gasEstimates": {
					"creation": {
						"codeDepositCost": "789400",
						"executionCost": "825",
						"totalCost": "790225"
					},
					"external": {
						"add_account(string,string,string)": "infinite",
						"mappingAccount(bytes32)": "infinite",
						"mappingTransaction(bytes32)": "infinite"
					}
				},
				"methodIdentifiers": {
					"add_account(string,string,string)": "b24c908a",
					"mappingAccount(bytes32)": "462e1eed",
					"mappingTransaction(bytes32)": "30ee52a9"
				}
			},
			"storageLayout": {
				"storage": [
					{
						"astId": 21,
						"contract": "contracts/Halal.sol:Halal",
						"label": "mappingAccount",
						"offset": 0,
						"slot": "0",
						"type": "t_mapping(t_bytes32,t_struct(accountData)16_storage)"
					},
					{
						"astId": 51,
						"contract": "contracts/Halal.sol:Halal",
						"label": "mappingTransaction",
						"offset": 0,
						"slot": "1",
						"type": "t_mapping(t_bytes32,t_struct(transaction)46_storage)"
					}
				],
				"types": {
					"t_bool": {
						"encoding": "inplace",
						"label": "bool",
						"numberOfBytes": "1"
					},
					"t_bytes32": {
						"encoding": "inplace",
						"label": "bytes32",
						"numberOfBytes": "32"
					},
					"t_mapping(t_bytes32,t_struct(accountData)16_storage)": {
						"encoding": "mapping",
						"key": "t_bytes32",
						"label": "mapping(bytes32 => struct Halal.accountData)",
						"numberOfBytes": "32",
						"value": "t_struct(accountData)16_storage"
					},
					"t_mapping(t_bytes32,t_struct(transaction)46_storage)": {
						"encoding": "mapping",
						"key": "t_bytes32",
						"label": "mapping(bytes32 => struct Halal.transaction)",
						"numberOfBytes": "32",
						"value": "t_struct(transaction)46_storage"
					},
					"t_string_storage": {
						"encoding": "bytes",
						"label": "string",
						"numberOfBytes": "32"
					},
					"t_struct(accountData)16_storage": {
						"encoding": "inplace",
						"label": "struct Halal.accountData",
						"members": [
							{
								"astId": 9,
								"contract": "contracts/Halal.sol:Halal",
								"label": "account_id",
								"offset": 0,
								"slot": "0",
								"type": "t_string_storage"
							},
							{
								"astId": 11,
								"contract": "contracts/Halal.sol:Halal",
								"label": "name",
								"offset": 0,
								"slot": "1",
								"type": "t_string_storage"
							},
							{
								"astId": 13,
								"contract": "contracts/Halal.sol:Halal",
								"label": "role",
								"offset": 0,
								"slot": "2",
								"type": "t_string_storage"
							},
							{
								"astId": 15,
								"contract": "contracts/Halal.sol:Halal",
								"label": "created_at",
								"offset": 0,
								"slot": "3",
								"type": "t_uint256"
							}
						],
						"numberOfBytes": "128"
					},
					"t_struct(transaction)46_storage": {
						"encoding": "inplace",
						"label": "struct Halal.transaction",
						"members": [
							{
								"astId": 23,
								"contract": "contracts/Halal.sol:Halal",
								"label": "umkm_id",
								"offset": 0,
								"slot": "0",
								"type": "t_string_storage"
							},
							{
								"astId": 25,
								"contract": "contracts/Halal.sol:Halal",
								"label": "reg_status",
								"offset": 0,
								"slot": "1",
								"type": "t_bool"
							},
							{
								"astId": 27,
								"contract": "contracts/Halal.sol:Halal",
								"label": "reg_date",
								"offset": 0,
								"slot": "2",
								"type": "t_uint256"
							},
							{
								"astId": 29,
								"contract": "contracts/Halal.sol:Halal",
								"label": "bpjph_desc",
								"offset": 0,
								"slot": "3",
								"type": "t_string_storage"
							},
							{
								"astId": 31,
								"contract": "contracts/Halal.sol:Halal",
								"label": "bpjph_result",
								"offset": 0,
								"slot": "4",
								"type": "t_string_storage"
							},
							{
								"astId": 33,
								"contract": "contracts/Halal.sol:Halal",
								"label": "lph_appintment",
								"offset": 0,
								"slot": "5",
								"type": "t_string_storage"
							},
							{
								"astId": 35,
								"contract": "contracts/Halal.sol:Halal",
								"label": "bpjph_id",
								"offset": 0,
								"slot": "6",
								"type": "t_string_storage"
							},
							{
								"astId": 37,
								"contract": "contracts/Halal.sol:Halal",
								"label": "lph_desc",
								"offset": 0,
								"slot": "7",
								"type": "t_string_storage"
							},
							{
								"astId": 39,
								"contract": "contracts/Halal.sol:Halal",
								"label": "review_status",
								"offset": 0,
								"slot": "8",
								"type": "t_string_storage"
							},
							{
								"astId": 41,
								"contract": "contracts/Halal.sol:Halal",
								"label": "desicion_mui",
								"offset": 0,
								"slot": "9",
								"type": "t_string_storage"
							},
							{
								"astId": 43,
								"contract": "contracts/Halal.sol:Halal",
								"label": "mui_approved",
								"offset": 0,
								"slot": "10",
								"type": "t_bool"
							},
							{
								"astId": 45,
								"contract": "contracts/Halal.sol:Halal",
								"label": "cert_data",
								"offset": 0,
								"slot": "11",
								"type": "t_string_storage"
							}
						],
						"numberOfBytes": "384"
					},
					"t_uint256": {
						"encoding": "inplace",
						"label": "uint256",
						"numberOfBytes": "32"
					}
				}
			},
			"userdoc": {
				"kind": "user",
				"methods": {},
				"version": 1
			}
		}
	}
}