{
	"contracts/Halal.sol": {
		"Halal": {
			"abi": [
				{
					"inputs": [
						{
							"internalType": "string",
							"name": "account_id",
							"type": "string"
						},
						{
							"internalType": "string",
							"name": "name",
							"type": "string"
						},
						{
							"internalType": "string",
							"name": "role",
							"type": "string"
						},
						{
							"internalType": "uint256",
							"name": "created_at",
							"type": "uint256"
						}
					],
					"name": "add_account",
					"outputs": [],
					"stateMutability": "nonpayable",
					"type": "function"
				},
				{
					"inputs": [
						{
							"internalType": "bytes32",
							"name": "",
							"type": "bytes32"
						}
					],
					"name": "mappingAccount",
					"outputs": [
						{
							"internalType": "string",
							"name": "account_id",
							"type": "string"
						},
						{
							"internalType": "string",
							"name": "name",
							"type": "string"
						},
						{
							"internalType": "string",
							"name": "role",
							"type": "string"
						},
						{
							"internalType": "uint256",
							"name": "created_at",
							"type": "uint256"
						}
					],
					"stateMutability": "view",
					"type": "function"
				},
				{
					"inputs": [
						{
							"internalType": "bytes32",
							"name": "",
							"type": "bytes32"
						}
					],
					"name": "mappingTransaction",
					"outputs": [
						{
							"internalType": "string",
							"name": "umkm_id",
							"type": "string"
						},
						{
							"internalType": "bool",
							"name": "reg_status",
							"type": "bool"
						},
						{
							"internalType": "uint256",
							"name": "reg_date",
							"type": "uint256"
						},
						{
							"internalType": "string",
							"name": "bpjph_desc",
							"type": "string"
						},
						{
							"internalType": "string",
							"name": "bpjph_result",
							"type": "string"
						},
						{
							"internalType": "string",
							"name": "lph_appintment",
							"type": "string"
						},
						{
							"internalType": "string",
							"name": "bpjph_id",
							"type": "string"
						},
						{
							"internalType": "string",
							"name": "lph_desc",
							"type": "string"
						},
						{
							"internalType": "string",
							"name": "review_status",
							"type": "string"
						},
						{
							"internalType": "string",
							"name": "desicion_mui",
							"type": "string"
						},
						{
							"internalType": "bool",
							"name": "mui_approved",
							"type": "bool"
						},
						{
							"internalType": "string",
							"name": "cert_data",
							"type": "string"
						}
					],
					"stateMutability": "view",
					"type": "function"
				}
			],
			"devdoc": {
				"kind": "dev",
				"methods": {},
				"version": 1
			},
			"evm": {
				"assembly": "    /* \"contracts/Halal.sol\":70:1011  contract Halal{... */\n  mstore(0x40, 0x80)\n  callvalue\n  dup1\n  iszero\n  tag_1\n  jumpi\n  0x00\n  dup1\n  revert\ntag_1:\n  pop\n  dataSize(sub_0)\n  dup1\n  dataOffset(sub_0)\n  0x00\n  codecopy\n  0x00\n  return\nstop\n\nsub_0: assembly {\n        /* \"contracts/Halal.sol\":70:1011  contract Halal{... */\n      mstore(0x40, 0x80)\n      callvalue\n      dup1\n      iszero\n      tag_1\n      jumpi\n      0x00\n      dup1\n      revert\n    tag_1:\n      pop\n      jumpi(tag_2, lt(calldatasize, 0x04))\n      shr(0xe0, calldataload(0x00))\n      dup1\n      0x30ee52a9\n      eq\n      tag_3\n      jumpi\n      dup1\n      0x462e1eed\n      eq\n      tag_4\n      jumpi\n      dup1\n      0x720fa527\n      eq\n      tag_5\n      jumpi\n    tag_2:\n      0x00\n      dup1\n      revert\n        /* \"contracts/Halal.sol\":631:689  mapping (bytes32 => transaction) public mappingTransaction */\n    tag_3:\n      tag_6\n      0x04\n      dup1\n      calldatasize\n      sub\n      dup2\n      add\n      swap1\n      tag_7\n      swap2\n      swap1\n      tag_8\n      jump\t// in\n    tag_7:\n      tag_9\n      jump\t// in\n    tag_6:\n      mload(0x40)\n      tag_10\n      swap13\n      swap12\n      swap11\n      swap10\n      swap9\n      swap8\n      swap7\n      swap6\n      swap5\n      swap4\n      swap3\n      swap2\n      swap1\n      tag_11\n      jump\t// in\n    tag_10:\n      mload(0x40)\n      dup1\n      swap2\n      sub\n      swap1\n      return\n        /* \"contracts/Halal.sol\":215:271  mapping( bytes32 => account_data ) public mappingAccount */\n    tag_4:\n      tag_12\n      0x04\n      dup1\n      calldatasize\n      sub\n      dup2\n      add\n      swap1\n      tag_13\n      swap2\n      swap1\n      tag_8\n      jump\t// in\n    tag_13:\n      tag_14\n      jump\t// in\n    tag_12:\n      mload(0x40)\n      tag_15\n      swap5\n      swap4\n      swap3\n      swap2\n      swap1\n      tag_16\n      jump\t// in\n    tag_15:\n      mload(0x40)\n      dup1\n      swap2\n      sub\n      swap1\n      return\n        /* \"contracts/Halal.sol\":696:1008  function add_account(... */\n    tag_5:\n      tag_17\n      0x04\n      dup1\n      calldatasize\n      sub\n      dup2\n      add\n      swap1\n      tag_18\n      swap2\n      swap1\n      tag_19\n      jump\t// in\n    tag_18:\n      tag_20\n      jump\t// in\n    tag_17:\n      stop\n        /* \"contracts/Halal.sol\":631:689  mapping (bytes32 => transaction) public mappingTransaction */\n    tag_9:\n      mstore(0x20, 0x01)\n      dup1\n      0x00\n      mstore\n      keccak256(0x00, 0x40)\n      0x00\n      swap2\n      pop\n      swap1\n      pop\n      dup1\n      0x00\n      add\n      dup1\n      sload\n      tag_21\n      swap1\n      tag_22\n      jump\t// in\n    tag_21:\n      dup1\n      0x1f\n      add\n      0x20\n      dup1\n      swap2\n      div\n      mul\n      0x20\n      add\n      mload(0x40)\n      swap1\n      dup2\n      add\n      0x40\n      mstore\n      dup1\n      swap3\n      swap2\n      swap1\n      dup2\n      dup2\n      mstore\n      0x20\n      add\n      dup3\n      dup1\n      sload\n      tag_23\n      swap1\n      tag_22\n      jump\t// in\n    tag_23:\n      dup1\n      iszero\n      tag_24\n      jumpi\n      dup1\n      0x1f\n      lt\n      tag_25\n      jumpi\n      0x0100\n      dup1\n      dup4\n      sload\n      div\n      mul\n      dup4\n      mstore\n      swap2\n      0x20\n      add\n      swap2\n      jump(tag_24)\n    tag_25:\n      dup3\n      add\n      swap2\n      swap1\n      0x00\n      mstore\n      keccak256(0x00, 0x20)\n      swap1\n    tag_26:\n      dup2\n      sload\n      dup2\n      mstore\n      swap1\n      0x01\n      add\n      swap1\n      0x20\n      add\n      dup1\n      dup4\n      gt\n      tag_26\n      jumpi\n      dup3\n      swap1\n      sub\n      0x1f\n      and\n      dup3\n      add\n      swap2\n    tag_24:\n      pop\n      pop\n      pop\n      pop\n      pop\n      swap1\n      dup1\n      0x01\n      add\n      0x00\n      swap1\n      sload\n      swap1\n      0x0100\n      exp\n      swap1\n      div\n      0xff\n      and\n      swap1\n      dup1\n      0x02\n      add\n      sload\n      swap1\n      dup1\n      0x03\n      add\n      dup1\n      sload\n      tag_27\n      swap1\n      tag_22\n      jump\t// in\n    tag_27:\n      dup1\n      0x1f\n      add\n      0x20\n      dup1\n      swap2\n      div\n      mul\n      0x20\n      add\n      mload(0x40)\n      swap1\n      dup2\n      add\n      0x40\n      mstore\n      dup1\n      swap3\n      swap2\n      swap1\n      dup2\n      dup2\n      mstore\n      0x20\n      add\n      dup3\n      dup1\n      sload\n      tag_28\n      swap1\n      tag_22\n      jump\t// in\n    tag_28:\n      dup1\n      iszero\n      tag_29\n      jumpi\n      dup1\n      0x1f\n      lt\n      tag_30\n      jumpi\n      0x0100\n      dup1\n      dup4\n      sload\n      div\n      mul\n      dup4\n      mstore\n      swap2\n      0x20\n      add\n      swap2\n      jump(tag_29)\n    tag_30:\n      dup3\n      add\n      swap2\n      swap1\n      0x00\n      mstore\n      keccak256(0x00, 0x20)\n      swap1\n    tag_31:\n      dup2\n      sload\n      dup2\n      mstore\n      swap1\n      0x01\n      add\n      swap1\n      0x20\n      add\n      dup1\n      dup4\n      gt\n      tag_31\n      jumpi\n      dup3\n      swap1\n      sub\n      0x1f\n      and\n      dup3\n      add\n      swap2\n    tag_29:\n      pop\n      pop\n      pop\n      pop\n      pop\n      swap1\n      dup1\n      0x04\n      add\n      dup1\n      sload\n      tag_32\n      swap1\n      tag_22\n      jump\t// in\n    tag_32:\n      dup1\n      0x1f\n      add\n      0x20\n      dup1\n      swap2\n      div\n      mul\n      0x20\n      add\n      mload(0x40)\n      swap1\n      dup2\n      add\n      0x40\n      mstore\n      dup1\n      swap3\n      swap2\n      swap1\n      dup2\n      dup2\n      mstore\n      0x20\n      add\n      dup3\n      dup1\n      sload\n      tag_33\n      swap1\n      tag_22\n      jump\t// in\n    tag_33:\n      dup1\n      iszero\n      tag_34\n      jumpi\n      dup1\n      0x1f\n      lt\n      tag_35\n      jumpi\n      0x0100\n      dup1\n      dup4\n      sload\n      div\n      mul\n      dup4\n      mstore\n      swap2\n      0x20\n      add\n      swap2\n      jump(tag_34)\n    tag_35:\n      dup3\n      add\n      swap2\n      swap1\n      0x00\n      mstore\n      keccak256(0x00, 0x20)\n      swap1\n    tag_36:\n      dup2\n      sload\n      dup2\n      mstore\n      swap1\n      0x01\n      add\n      swap1\n      0x20\n      add\n      dup1\n      dup4\n      gt\n      tag_36\n      jumpi\n      dup3\n      swap1\n      sub\n      0x1f\n      and\n      dup3\n      add\n      swap2\n    tag_34:\n      pop\n      pop\n      pop\n      pop\n      pop\n      swap1\n      dup1\n      0x05\n      add\n      dup1\n      sload\n      tag_37\n      swap1\n      tag_22\n      jump\t// in\n    tag_37:\n      dup1\n      0x1f\n      add\n      0x20\n      dup1\n      swap2\n      div\n      mul\n      0x20\n      add\n      mload(0x40)\n      swap1\n      dup2\n      add\n      0x40\n      mstore\n      dup1\n      swap3\n      swap2\n      swap1\n      dup2\n      dup2\n      mstore\n      0x20\n      add\n      dup3\n      dup1\n      sload\n      tag_38\n      swap1\n      tag_22\n      jump\t// in\n    tag_38:\n      dup1\n      iszero\n      tag_39\n      jumpi\n      dup1\n      0x1f\n      lt\n      tag_40\n      jumpi\n      0x0100\n      dup1\n      dup4\n      sload\n      div\n      mul\n      dup4\n      mstore\n      swap2\n      0x20\n      add\n      swap2\n      jump(tag_39)\n    tag_40:\n      dup3\n      add\n      swap2\n      swap1\n      0x00\n      mstore\n      keccak256(0x00, 0x20)\n      swap1\n    tag_41:\n      dup2\n      sload\n      dup2\n      mstore\n      swap1\n      0x01\n      add\n      swap1\n      0x20\n      add\n      dup1\n      dup4\n      gt\n      tag_41\n      jumpi\n      dup3\n      swap1\n      sub\n      0x1f\n      and\n      dup3\n      add\n      swap2\n    tag_39:\n      pop\n      pop\n      pop\n      pop\n      pop\n      swap1\n      dup1\n      0x06\n      add\n      dup1\n      sload\n      tag_42\n      swap1\n      tag_22\n      jump\t// in\n    tag_42:\n      dup1\n      0x1f\n      add\n      0x20\n      dup1\n      swap2\n      div\n      mul\n      0x20\n      add\n      mload(0x40)\n      swap1\n      dup2\n      add\n      0x40\n      mstore\n      dup1\n      swap3\n      swap2\n      swap1\n      dup2\n      dup2\n      mstore\n      0x20\n      add\n      dup3\n      dup1\n      sload\n      tag_43\n      swap1\n      tag_22\n      jump\t// in\n    tag_43:\n      dup1\n      iszero\n      tag_44\n      jumpi\n      dup1\n      0x1f\n      lt\n      tag_45\n      jumpi\n      0x0100\n      dup1\n      dup4\n      sload\n      div\n      mul\n      dup4\n      mstore\n      swap2\n      0x20\n      add\n      swap2\n      jump(tag_44)\n    tag_45:\n      dup3\n      add\n      swap2\n      swap1\n      0x00\n      mstore\n      keccak256(0x00, 0x20)\n      swap1\n    tag_46:\n      dup2\n      sload\n      dup2\n      mstore\n      swap1\n      0x01\n      add\n      swap1\n      0x20\n      add\n      dup1\n      dup4\n      gt\n      tag_46\n      jumpi\n      dup3\n      swap1\n      sub\n      0x1f\n      and\n      dup3\n      add\n      swap2\n    tag_44:\n      pop\n      pop\n      pop\n      pop\n      pop\n      swap1\n      dup1\n      0x07\n      add\n      dup1\n      sload\n      tag_47\n      swap1\n      tag_22\n      jump\t// in\n    tag_47:\n      dup1\n      0x1f\n      add\n      0x20\n      dup1\n      swap2\n      div\n      mul\n      0x20\n      add\n      mload(0x40)\n      swap1\n      dup2\n      add\n      0x40\n      mstore\n      dup1\n      swap3\n      swap2\n      swap1\n      dup2\n      dup2\n      mstore\n      0x20\n      add\n      dup3\n      dup1\n      sload\n      tag_48\n      swap1\n      tag_22\n      jump\t// in\n    tag_48:\n      dup1\n      iszero\n      tag_49\n      jumpi\n      dup1\n      0x1f\n      lt\n      tag_50\n      jumpi\n      0x0100\n      dup1\n      dup4\n      sload\n      div\n      mul\n      dup4\n      mstore\n      swap2\n      0x20\n      add\n      swap2\n      jump(tag_49)\n    tag_50:\n      dup3\n      add\n      swap2\n      swap1\n      0x00\n      mstore\n      keccak256(0x00, 0x20)\n      swap1\n    tag_51:\n      dup2\n      sload\n      dup2\n      mstore\n      swap1\n      0x01\n      add\n      swap1\n      0x20\n      add\n      dup1\n      dup4\n      gt\n      tag_51\n      jumpi\n      dup3\n      swap1\n      sub\n      0x1f\n      and\n      dup3\n      add\n      swap2\n    tag_49:\n      pop\n      pop\n      pop\n      pop\n      pop\n      swap1\n      dup1\n      0x08\n      add\n      dup1\n      sload\n      tag_52\n      swap1\n      tag_22\n      jump\t// in\n    tag_52:\n      dup1\n      0x1f\n      add\n      0x20\n      dup1\n      swap2\n      div\n      mul\n      0x20\n      add\n      mload(0x40)\n      swap1\n      dup2\n      add\n      0x40\n      mstore\n      dup1\n      swap3\n      swap2\n      swap1\n      dup2\n      dup2\n      mstore\n      0x20\n      add\n      dup3\n      dup1\n      sload\n      tag_53\n      swap1\n      tag_22\n      jump\t// in\n    tag_53:\n      dup1\n      iszero\n      tag_54\n      jumpi\n      dup1\n      0x1f\n      lt\n      tag_55\n      jumpi\n      0x0100\n      dup1\n      dup4\n      sload\n      div\n      mul\n      dup4\n      mstore\n      swap2\n      0x20\n      add\n      swap2\n      jump(tag_54)\n    tag_55:\n      dup3\n      add\n      swap2\n      swap1\n      0x00\n      mstore\n      keccak256(0x00, 0x20)\n      swap1\n    tag_56:\n      dup2\n      sload\n      dup2\n      mstore\n      swap1\n      0x01\n      add\n      swap1\n      0x20\n      add\n      dup1\n      dup4\n      gt\n      tag_56\n      jumpi\n      dup3\n      swap1\n      sub\n      0x1f\n      and\n      dup3\n      add\n      swap2\n    tag_54:\n      pop\n      pop\n      pop\n      pop\n      pop\n      swap1\n      dup1\n      0x09\n      add\n      dup1\n      sload\n      tag_57\n      swap1\n      tag_22\n      jump\t// in\n    tag_57:\n      dup1\n      0x1f\n      add\n      0x20\n      dup1\n      swap2\n      div\n      mul\n      0x20\n      add\n      mload(0x40)\n      swap1\n      dup2\n      add\n      0x40\n      mstore\n      dup1\n      swap3\n      swap2\n      swap1\n      dup2\n      dup2\n      mstore\n      0x20\n      add\n      dup3\n      dup1\n      sload\n      tag_58\n      swap1\n      tag_22\n      jump\t// in\n    tag_58:\n      dup1\n      iszero\n      tag_59\n      jumpi\n      dup1\n      0x1f\n      lt\n      tag_60\n      jumpi\n      0x0100\n      dup1\n      dup4\n      sload\n      div\n      mul\n      dup4\n      mstore\n      swap2\n      0x20\n      add\n      swap2\n      jump(tag_59)\n    tag_60:\n      dup3\n      add\n      swap2\n      swap1\n      0x00\n      mstore\n      keccak256(0x00, 0x20)\n      swap1\n    tag_61:\n      dup2\n      sload\n      dup2\n      mstore\n      swap1\n      0x01\n      add\n      swap1\n      0x20\n      add\n      dup1\n      dup4\n      gt\n      tag_61\n      jumpi\n      dup3\n      swap1\n      sub\n      0x1f\n      and\n      dup3\n      add\n      swap2\n    tag_59:\n      pop\n      pop\n      pop\n      pop\n      pop\n      swap1\n      dup1\n      0x0a\n      add\n      0x00\n      swap1\n      sload\n      swap1\n      0x0100\n      exp\n      swap1\n      div\n      0xff\n      and\n      swap1\n      dup1\n      0x0b\n      add\n      dup1\n      sload\n      tag_62\n      swap1\n      tag_22\n      jump\t// in\n    tag_62:\n      dup1\n      0x1f\n      add\n      0x20\n      dup1\n      swap2\n      div\n      mul\n      0x20\n      add\n      mload(0x40)\n      swap1\n      dup2\n      add\n      0x40\n      mstore\n      dup1\n      swap3\n      swap2\n      swap1\n      dup2\n      dup2\n      mstore\n      0x20\n      add\n      dup3\n      dup1\n      sload\n      tag_63\n      swap1\n      tag_22\n      jump\t// in\n    tag_63:\n      dup1\n      iszero\n      tag_64\n      jumpi\n      dup1\n      0x1f\n      lt\n      tag_65\n      jumpi\n      0x0100\n      dup1\n      dup4\n      sload\n      div\n      mul\n      dup4\n      mstore\n      swap2\n      0x20\n      add\n      swap2\n      jump(tag_64)\n    tag_65:\n      dup3\n      add\n      swap2\n      swap1\n      0x00\n      mstore\n      keccak256(0x00, 0x20)\n      swap1\n    tag_66:\n      dup2\n      sload\n      dup2\n      mstore\n      swap1\n      0x01\n      add\n      swap1\n      0x20\n      add\n      dup1\n      dup4\n      gt\n      tag_66\n      jumpi\n      dup3\n      swap1\n      sub\n      0x1f\n      and\n      dup3\n      add\n      swap2\n    tag_64:\n      pop\n      pop\n      pop\n      pop\n      pop\n      swap1\n      pop\n      dup13\n      jump\t// out\n        /* \"contracts/Halal.sol\":215:271  mapping( bytes32 => account_data ) public mappingAccount */\n    tag_14:\n      mstore(0x20, 0x00)\n      dup1\n      0x00\n      mstore\n      keccak256(0x00, 0x40)\n      0x00\n      swap2\n      pop\n      swap1\n      pop\n      dup1\n      0x00\n      add\n      dup1\n      sload\n      tag_67\n      swap1\n      tag_22\n      jump\t// in\n    tag_67:\n      dup1\n      0x1f\n      add\n      0x20\n      dup1\n      swap2\n      div\n      mul\n      0x20\n      add\n      mload(0x40)\n      swap1\n      dup2\n      add\n      0x40\n      mstore\n      dup1\n      swap3\n      swap2\n      swap1\n      dup2\n      dup2\n      mstore\n      0x20\n      add\n      dup3\n      dup1\n      sload\n      tag_68\n      swap1\n      tag_22\n      jump\t// in\n    tag_68:\n      dup1\n      iszero\n      tag_69\n      jumpi\n      dup1\n      0x1f\n      lt\n      tag_70\n      jumpi\n      0x0100\n      dup1\n      dup4\n      sload\n      div\n      mul\n      dup4\n      mstore\n      swap2\n      0x20\n      add\n      swap2\n      jump(tag_69)\n    tag_70:\n      dup3\n      add\n      swap2\n      swap1\n      0x00\n      mstore\n      keccak256(0x00, 0x20)\n      swap1\n    tag_71:\n      dup2\n      sload\n      dup2\n      mstore\n      swap1\n      0x01\n      add\n      swap1\n      0x20\n      add\n      dup1\n      dup4\n      gt\n      tag_71\n      jumpi\n      dup3\n      swap1\n      sub\n      0x1f\n      and\n      dup3\n      add\n      swap2\n    tag_69:\n      pop\n      pop\n      pop\n      pop\n      pop\n      swap1\n      dup1\n      0x01\n      add\n      dup1\n      sload\n      tag_72\n      swap1\n      tag_22\n      jump\t// in\n    tag_72:\n      dup1\n      0x1f\n      add\n      0x20\n      dup1\n      swap2\n      div\n      mul\n      0x20\n      add\n      mload(0x40)\n      swap1\n      dup2\n      add\n      0x40\n      mstore\n      dup1\n      swap3\n      swap2\n      swap1\n      dup2\n      dup2\n      mstore\n      0x20\n      add\n      dup3\n      dup1\n      sload\n      tag_73\n      swap1\n      tag_22\n      jump\t// in\n    tag_73:\n      dup1\n      iszero\n      tag_74\n      jumpi\n      dup1\n      0x1f\n      lt\n      tag_75\n      jumpi\n      0x0100\n      dup1\n      dup4\n      sload\n      div\n      mul\n      dup4\n      mstore\n      swap2\n      0x20\n      add\n      swap2\n      jump(tag_74)\n    tag_75:\n      dup3\n      add\n      swap2\n      swap1\n      0x00\n      mstore\n      keccak256(0x00, 0x20)\n      swap1\n    tag_76:\n      dup2\n      sload\n      dup2\n      mstore\n      swap1\n      0x01\n      add\n      swap1\n      0x20\n      add\n      dup1\n      dup4\n      gt\n      tag_76\n      jumpi\n      dup3\n      swap1\n      sub\n      0x1f\n      and\n      dup3\n      add\n      swap2\n    tag_74:\n      pop\n      pop\n      pop\n      pop\n      pop\n      swap1\n      dup1\n      0x02\n      add\n      dup1\n      sload\n      tag_77\n      swap1\n      tag_22\n      jump\t// in\n    tag_77:\n      dup1\n      0x1f\n      add\n      0x20\n      dup1\n      swap2\n      div\n      mul\n      0x20\n      add\n      mload(0x40)\n      swap1\n      dup2\n      add\n      0x40\n      mstore\n      dup1\n      swap3\n      swap2\n      swap1\n      dup2\n      dup2\n      mstore\n      0x20\n      add\n      dup3\n      dup1\n      sload\n      tag_78\n      swap1\n      tag_22\n      jump\t// in\n    tag_78:\n      dup1\n      iszero\n      tag_79\n      jumpi\n      dup1\n      0x1f\n      lt\n      tag_80\n      jumpi\n      0x0100\n      dup1\n      dup4\n      sload\n      div\n      mul\n      dup4\n      mstore\n      swap2\n      0x20\n      add\n      swap2\n      jump(tag_79)\n    tag_80:\n      dup3\n      add\n      swap2\n      swap1\n      0x00\n      mstore\n      keccak256(0x00, 0x20)\n      swap1\n    tag_81:\n      dup2\n      sload\n      dup2\n      mstore\n      swap1\n      0x01\n      add\n      swap1\n      0x20\n      add\n      dup1\n      dup4\n      gt\n      tag_81\n      jumpi\n      dup3\n      swap1\n      sub\n      0x1f\n      and\n      dup3\n      add\n      swap2\n    tag_79:\n      pop\n      pop\n      pop\n      pop\n      pop\n      swap1\n      dup1\n      0x03\n      add\n      sload\n      swap1\n      pop\n      dup5\n      jump\t// out\n        /* \"contracts/Halal.sol\":696:1008  function add_account(... */\n    tag_20:\n        /* \"contracts/Halal.sol\":855:865  bytes32 id */\n      0x00\n        /* \"contracts/Halal.sol\":895:905  account_id */\n      dup5\n        /* \"contracts/Halal.sol\":878:906  abi.encodePacked(account_id) */\n      add(0x20, mload(0x40))\n      tag_83\n      swap2\n      swap1\n      tag_84\n      jump\t// in\n    tag_83:\n      mload(0x40)\n      0x20\n      dup2\n      dup4\n      sub\n      sub\n      dup2\n      mstore\n      swap1\n      0x40\n      mstore\n        /* \"contracts/Halal.sol\":868:907  keccak256(abi.encodePacked(account_id)) */\n      dup1\n      mload\n      swap1\n      0x20\n      add\n      keccak256\n        /* \"contracts/Halal.sol\":855:907  bytes32 id = keccak256(abi.encodePacked(account_id)) */\n      swap1\n      pop\n        /* \"contracts/Halal.sol\":917:941  account_data storage acc */\n      0x00\n        /* \"contracts/Halal.sol\":944:958  mappingAccount */\n      dup1\n        /* \"contracts/Halal.sol\":944:962  mappingAccount[id] */\n      0x00\n        /* \"contracts/Halal.sol\":959:961  id */\n      dup4\n        /* \"contracts/Halal.sol\":944:962  mappingAccount[id] */\n      dup2\n      mstore\n      0x20\n      add\n      swap1\n      dup2\n      mstore\n      0x20\n      add\n      0x00\n      keccak256\n        /* \"contracts/Halal.sol\":917:962  account_data storage acc = mappingAccount[id] */\n      swap1\n      pop\n        /* \"contracts/Halal.sol\":989:999  account_id */\n      dup6\n        /* \"contracts/Halal.sol\":972:975  acc */\n      dup2\n        /* \"contracts/Halal.sol\":972:986  acc.account_id */\n      0x00\n      add\n        /* \"contracts/Halal.sol\":972:999  acc.account_id = account_id */\n      swap1\n      dup1\n      mload\n      swap1\n      0x20\n      add\n      swap1\n      tag_85\n      swap3\n      swap2\n      swap1\n      tag_86\n      jump\t// in\n    tag_85:\n      pop\n        /* \"contracts/Halal.sol\":845:1008  {... */\n      pop\n      pop\n        /* \"contracts/Halal.sol\":696:1008  function add_account(... */\n      pop\n      pop\n      pop\n      pop\n      jump\t// out\n    tag_86:\n      dup3\n      dup1\n      sload\n      tag_87\n      swap1\n      tag_22\n      jump\t// in\n    tag_87:\n      swap1\n      0x00\n      mstore\n      keccak256(0x00, 0x20)\n      swap1\n      0x1f\n      add\n      0x20\n      swap1\n      div\n      dup2\n      add\n      swap3\n      dup3\n      tag_89\n      jumpi\n      0x00\n      dup6\n      sstore\n      jump(tag_88)\n    tag_89:\n      dup3\n      0x1f\n      lt\n      tag_90\n      jumpi\n      dup1\n      mload\n      not(0xff)\n      and\n      dup4\n      dup1\n      add\n      or\n      dup6\n      sstore\n      jump(tag_88)\n    tag_90:\n      dup3\n      dup1\n      add\n      0x01\n      add\n      dup6\n      sstore\n      dup3\n      iszero\n      tag_88\n      jumpi\n      swap2\n      dup3\n      add\n    tag_91:\n      dup3\n      dup2\n      gt\n      iszero\n      tag_92\n      jumpi\n      dup3\n      mload\n      dup3\n      sstore\n      swap2\n      0x20\n      add\n      swap2\n      swap1\n      0x01\n      add\n      swap1\n      jump(tag_91)\n    tag_92:\n    tag_88:\n      pop\n      swap1\n      pop\n      tag_93\n      swap2\n      swap1\n      tag_94\n      jump\t// in\n    tag_93:\n      pop\n      swap1\n      jump\t// out\n    tag_94:\n    tag_95:\n      dup1\n      dup3\n      gt\n      iszero\n      tag_96\n      jumpi\n      0x00\n      dup2\n      0x00\n      swap1\n      sstore\n      pop\n      0x01\n      add\n      jump(tag_95)\n    tag_96:\n      pop\n      swap1\n      jump\t// out\n        /* \"#utility.yul\":7:419   */\n    tag_98:\n        /* \"#utility.yul\":85:90   */\n      0x00\n        /* \"#utility.yul\":110:176   */\n      tag_100\n        /* \"#utility.yul\":126:175   */\n      tag_101\n        /* \"#utility.yul\":168:174   */\n      dup5\n        /* \"#utility.yul\":126:175   */\n      tag_102\n      jump\t// in\n    tag_101:\n        /* \"#utility.yul\":110:176   */\n      tag_103\n      jump\t// in\n    tag_100:\n        /* \"#utility.yul\":101:176   */\n      swap1\n      pop\n        /* \"#utility.yul\":199:205   */\n      dup3\n        /* \"#utility.yul\":192:197   */\n      dup2\n        /* \"#utility.yul\":185:206   */\n      mstore\n        /* \"#utility.yul\":237:241   */\n      0x20\n        /* \"#utility.yul\":230:235   */\n      dup2\n        /* \"#utility.yul\":226:242   */\n      add\n        /* \"#utility.yul\":275:278   */\n      dup5\n        /* \"#utility.yul\":266:272   */\n      dup5\n        /* \"#utility.yul\":261:264   */\n      dup5\n        /* \"#utility.yul\":257:273   */\n      add\n        /* \"#utility.yul\":254:279   */\n      gt\n        /* \"#utility.yul\":251:363   */\n      iszero\n      tag_104\n      jumpi\n        /* \"#utility.yul\":282:361   */\n      tag_105\n      tag_106\n      jump\t// in\n    tag_105:\n        /* \"#utility.yul\":251:363   */\n    tag_104:\n        /* \"#utility.yul\":372:413   */\n      tag_107\n        /* \"#utility.yul\":406:412   */\n      dup5\n        /* \"#utility.yul\":401:404   */\n      dup3\n        /* \"#utility.yul\":396:399   */\n      dup6\n        /* \"#utility.yul\":372:413   */\n      tag_108\n      jump\t// in\n    tag_107:\n        /* \"#utility.yul\":91:419   */\n      pop\n        /* \"#utility.yul\":7:419   */\n      swap4\n      swap3\n      pop\n      pop\n      pop\n      jump\t// out\n        /* \"#utility.yul\":425:564   */\n    tag_109:\n        /* \"#utility.yul\":471:476   */\n      0x00\n        /* \"#utility.yul\":509:515   */\n      dup2\n        /* \"#utility.yul\":496:516   */\n      calldataload\n        /* \"#utility.yul\":487:516   */\n      swap1\n      pop\n        /* \"#utility.yul\":525:558   */\n      tag_111\n        /* \"#utility.yul\":552:557   */\n      dup2\n        /* \"#utility.yul\":525:558   */\n      tag_112\n      jump\t// in\n    tag_111:\n        /* \"#utility.yul\":425:564   */\n      swap3\n      swap2\n      pop\n      pop\n      jump\t// out\n        /* \"#utility.yul\":584:924   */\n    tag_113:\n        /* \"#utility.yul\":640:645   */\n      0x00\n        /* \"#utility.yul\":689:692   */\n      dup3\n        /* \"#utility.yul\":682:686   */\n      0x1f\n        /* \"#utility.yul\":674:680   */\n      dup4\n        /* \"#utility.yul\":670:687   */\n      add\n        /* \"#utility.yul\":666:693   */\n      slt\n        /* \"#utility.yul\":656:778   */\n      tag_115\n      jumpi\n        /* \"#utility.yul\":697:776   */\n      tag_116\n      tag_117\n      jump\t// in\n    tag_116:\n        /* \"#utility.yul\":656:778   */\n    tag_115:\n        /* \"#utility.yul\":814:820   */\n      dup2\n        /* \"#utility.yul\":801:821   */\n      calldataload\n        /* \"#utility.yul\":839:918   */\n      tag_118\n        /* \"#utility.yul\":914:917   */\n      dup5\n        /* \"#utility.yul\":906:912   */\n      dup3\n        /* \"#utility.yul\":899:903   */\n      0x20\n        /* \"#utility.yul\":891:897   */\n      dup7\n        /* \"#utility.yul\":887:904   */\n      add\n        /* \"#utility.yul\":839:918   */\n      tag_98\n      jump\t// in\n    tag_118:\n        /* \"#utility.yul\":830:918   */\n      swap2\n      pop\n        /* \"#utility.yul\":646:924   */\n      pop\n        /* \"#utility.yul\":584:924   */\n      swap3\n      swap2\n      pop\n      pop\n      jump\t// out\n        /* \"#utility.yul\":930:1069   */\n    tag_119:\n        /* \"#utility.yul\":976:981   */\n      0x00\n        /* \"#utility.yul\":1014:1020   */\n      dup2\n        /* \"#utility.yul\":1001:1021   */\n      calldataload\n        /* \"#utility.yul\":992:1021   */\n      swap1\n      pop\n        /* \"#utility.yul\":1030:1063   */\n      tag_121\n        /* \"#utility.yul\":1057:1062   */\n      dup2\n        /* \"#utility.yul\":1030:1063   */\n      tag_122\n      jump\t// in\n    tag_121:\n        /* \"#utility.yul\":930:1069   */\n      swap3\n      swap2\n      pop\n      pop\n      jump\t// out\n        /* \"#utility.yul\":1075:1404   */\n    tag_8:\n        /* \"#utility.yul\":1134:1140   */\n      0x00\n        /* \"#utility.yul\":1183:1185   */\n      0x20\n        /* \"#utility.yul\":1171:1180   */\n      dup3\n        /* \"#utility.yul\":1162:1169   */\n      dup5\n        /* \"#utility.yul\":1158:1181   */\n      sub\n        /* \"#utility.yul\":1154:1186   */\n      slt\n        /* \"#utility.yul\":1151:1270   */\n      iszero\n      tag_124\n      jumpi\n        /* \"#utility.yul\":1189:1268   */\n      tag_125\n      tag_126\n      jump\t// in\n    tag_125:\n        /* \"#utility.yul\":1151:1270   */\n    tag_124:\n        /* \"#utility.yul\":1309:1310   */\n      0x00\n        /* \"#utility.yul\":1334:1387   */\n      tag_127\n        /* \"#utility.yul\":1379:1386   */\n      dup5\n        /* \"#utility.yul\":1370:1376   */\n      dup3\n        /* \"#utility.yul\":1359:1368   */\n      dup6\n        /* \"#utility.yul\":1355:1377   */\n      add\n        /* \"#utility.yul\":1334:1387   */\n      tag_109\n      jump\t// in\n    tag_127:\n        /* \"#utility.yul\":1324:1387   */\n      swap2\n      pop\n        /* \"#utility.yul\":1280:1397   */\n      pop\n        /* \"#utility.yul\":1075:1404   */\n      swap3\n      swap2\n      pop\n      pop\n      jump\t// out\n        /* \"#utility.yul\":1410:2715   */\n    tag_19:\n        /* \"#utility.yul\":1526:1532   */\n      0x00\n        /* \"#utility.yul\":1534:1540   */\n      dup1\n        /* \"#utility.yul\":1542:1548   */\n      0x00\n        /* \"#utility.yul\":1550:1556   */\n      dup1\n        /* \"#utility.yul\":1599:1602   */\n      0x80\n        /* \"#utility.yul\":1587:1596   */\n      dup6\n        /* \"#utility.yul\":1578:1585   */\n      dup8\n        /* \"#utility.yul\":1574:1597   */\n      sub\n        /* \"#utility.yul\":1570:1603   */\n      slt\n        /* \"#utility.yul\":1567:1687   */\n      iszero\n      tag_129\n      jumpi\n        /* \"#utility.yul\":1606:1685   */\n      tag_130\n      tag_126\n      jump\t// in\n    tag_130:\n        /* \"#utility.yul\":1567:1687   */\n    tag_129:\n        /* \"#utility.yul\":1754:1755   */\n      0x00\n        /* \"#utility.yul\":1743:1752   */\n      dup6\n        /* \"#utility.yul\":1739:1756   */\n      add\n        /* \"#utility.yul\":1726:1757   */\n      calldataload\n        /* \"#utility.yul\":1784:1802   */\n      0xffffffffffffffff\n        /* \"#utility.yul\":1776:1782   */\n      dup2\n        /* \"#utility.yul\":1773:1803   */\n      gt\n        /* \"#utility.yul\":1770:1887   */\n      iszero\n      tag_131\n      jumpi\n        /* \"#utility.yul\":1806:1885   */\n      tag_132\n      tag_133\n      jump\t// in\n    tag_132:\n        /* \"#utility.yul\":1770:1887   */\n    tag_131:\n        /* \"#utility.yul\":1911:1974   */\n      tag_134\n        /* \"#utility.yul\":1966:1973   */\n      dup8\n        /* \"#utility.yul\":1957:1963   */\n      dup3\n        /* \"#utility.yul\":1946:1955   */\n      dup9\n        /* \"#utility.yul\":1942:1964   */\n      add\n        /* \"#utility.yul\":1911:1974   */\n      tag_113\n      jump\t// in\n    tag_134:\n        /* \"#utility.yul\":1901:1974   */\n      swap5\n      pop\n        /* \"#utility.yul\":1697:1984   */\n      pop\n        /* \"#utility.yul\":2051:2053   */\n      0x20\n        /* \"#utility.yul\":2040:2049   */\n      dup6\n        /* \"#utility.yul\":2036:2054   */\n      add\n        /* \"#utility.yul\":2023:2055   */\n      calldataload\n        /* \"#utility.yul\":2082:2100   */\n      0xffffffffffffffff\n        /* \"#utility.yul\":2074:2080   */\n      dup2\n        /* \"#utility.yul\":2071:2101   */\n      gt\n        /* \"#utility.yul\":2068:2185   */\n      iszero\n      tag_135\n      jumpi\n        /* \"#utility.yul\":2104:2183   */\n      tag_136\n      tag_133\n      jump\t// in\n    tag_136:\n        /* \"#utility.yul\":2068:2185   */\n    tag_135:\n        /* \"#utility.yul\":2209:2272   */\n      tag_137\n        /* \"#utility.yul\":2264:2271   */\n      dup8\n        /* \"#utility.yul\":2255:2261   */\n      dup3\n        /* \"#utility.yul\":2244:2253   */\n      dup9\n        /* \"#utility.yul\":2240:2262   */\n      add\n        /* \"#utility.yul\":2209:2272   */\n      tag_113\n      jump\t// in\n    tag_137:\n        /* \"#utility.yul\":2199:2272   */\n      swap4\n      pop\n        /* \"#utility.yul\":1994:2282   */\n      pop\n        /* \"#utility.yul\":2349:2351   */\n      0x40\n        /* \"#utility.yul\":2338:2347   */\n      dup6\n        /* \"#utility.yul\":2334:2352   */\n      add\n        /* \"#utility.yul\":2321:2353   */\n      calldataload\n        /* \"#utility.yul\":2380:2398   */\n      0xffffffffffffffff\n        /* \"#utility.yul\":2372:2378   */\n      dup2\n        /* \"#utility.yul\":2369:2399   */\n      gt\n        /* \"#utility.yul\":2366:2483   */\n      iszero\n      tag_138\n      jumpi\n        /* \"#utility.yul\":2402:2481   */\n      tag_139\n      tag_133\n      jump\t// in\n    tag_139:\n        /* \"#utility.yul\":2366:2483   */\n    tag_138:\n        /* \"#utility.yul\":2507:2570   */\n      tag_140\n        /* \"#utility.yul\":2562:2569   */\n      dup8\n        /* \"#utility.yul\":2553:2559   */\n      dup3\n        /* \"#utility.yul\":2542:2551   */\n      dup9\n        /* \"#utility.yul\":2538:2560   */\n      add\n        /* \"#utility.yul\":2507:2570   */\n      tag_113\n      jump\t// in\n    tag_140:\n        /* \"#utility.yul\":2497:2570   */\n      swap3\n      pop\n        /* \"#utility.yul\":2292:2580   */\n      pop\n        /* \"#utility.yul\":2619:2621   */\n      0x60\n        /* \"#utility.yul\":2645:2698   */\n      tag_141\n        /* \"#utility.yul\":2690:2697   */\n      dup8\n        /* \"#utility.yul\":2681:2687   */\n      dup3\n        /* \"#utility.yul\":2670:2679   */\n      dup9\n        /* \"#utility.yul\":2666:2688   */\n      add\n        /* \"#utility.yul\":2645:2698   */\n      tag_119\n      jump\t// in\n    tag_141:\n        /* \"#utility.yul\":2635:2698   */\n      swap2\n      pop\n        /* \"#utility.yul\":2590:2708   */\n      pop\n        /* \"#utility.yul\":1410:2715   */\n      swap3\n      swap6\n      swap2\n      swap5\n      pop\n      swap3\n      pop\n      jump\t// out\n        /* \"#utility.yul\":2721:2830   */\n    tag_142:\n        /* \"#utility.yul\":2802:2823   */\n      tag_144\n        /* \"#utility.yul\":2817:2822   */\n      dup2\n        /* \"#utility.yul\":2802:2823   */\n      tag_145\n      jump\t// in\n    tag_144:\n        /* \"#utility.yul\":2797:2800   */\n      dup3\n        /* \"#utility.yul\":2790:2824   */\n      mstore\n        /* \"#utility.yul\":2721:2830   */\n      pop\n      pop\n      jump\t// out\n        /* \"#utility.yul\":2836:3200   */\n    tag_146:\n        /* \"#utility.yul\":2924:2927   */\n      0x00\n        /* \"#utility.yul\":2952:2991   */\n      tag_148\n        /* \"#utility.yul\":2985:2990   */\n      dup3\n        /* \"#utility.yul\":2952:2991   */\n      tag_149\n      jump\t// in\n    tag_148:\n        /* \"#utility.yul\":3007:3078   */\n      tag_150\n        /* \"#utility.yul\":3071:3077   */\n      dup2\n        /* \"#utility.yul\":3066:3069   */\n      dup6\n        /* \"#utility.yul\":3007:3078   */\n      tag_151\n      jump\t// in\n    tag_150:\n        /* \"#utility.yul\":3000:3078   */\n      swap4\n      pop\n        /* \"#utility.yul\":3087:3139   */\n      tag_152\n        /* \"#utility.yul\":3132:3138   */\n      dup2\n        /* \"#utility.yul\":3127:3130   */\n      dup6\n        /* \"#utility.yul\":3120:3124   */\n      0x20\n        /* \"#utility.yul\":3113:3118   */\n      dup7\n        /* \"#utility.yul\":3109:3125   */\n      add\n        /* \"#utility.yul\":3087:3139   */\n      tag_153\n      jump\t// in\n    tag_152:\n        /* \"#utility.yul\":3164:3193   */\n      tag_154\n        /* \"#utility.yul\":3186:3192   */\n      dup2\n        /* \"#utility.yul\":3164:3193   */\n      tag_155\n      jump\t// in\n    tag_154:\n        /* \"#utility.yul\":3159:3162   */\n      dup5\n        /* \"#utility.yul\":3155:3194   */\n      add\n        /* \"#utility.yul\":3148:3194   */\n      swap2\n      pop\n        /* \"#utility.yul\":2928:3200   */\n      pop\n        /* \"#utility.yul\":2836:3200   */\n      swap3\n      swap2\n      pop\n      pop\n      jump\t// out\n        /* \"#utility.yul\":3206:3583   */\n    tag_156:\n        /* \"#utility.yul\":3312:3315   */\n      0x00\n        /* \"#utility.yul\":3340:3379   */\n      tag_158\n        /* \"#utility.yul\":3373:3378   */\n      dup3\n        /* \"#utility.yul\":3340:3379   */\n      tag_149\n      jump\t// in\n    tag_158:\n        /* \"#utility.yul\":3395:3484   */\n      tag_159\n        /* \"#utility.yul\":3477:3483   */\n      dup2\n        /* \"#utility.yul\":3472:3475   */\n      dup6\n        /* \"#utility.yul\":3395:3484   */\n      tag_160\n      jump\t// in\n    tag_159:\n        /* \"#utility.yul\":3388:3484   */\n      swap4\n      pop\n        /* \"#utility.yul\":3493:3545   */\n      tag_161\n        /* \"#utility.yul\":3538:3544   */\n      dup2\n        /* \"#utility.yul\":3533:3536   */\n      dup6\n        /* \"#utility.yul\":3526:3530   */\n      0x20\n        /* \"#utility.yul\":3519:3524   */\n      dup7\n        /* \"#utility.yul\":3515:3531   */\n      add\n        /* \"#utility.yul\":3493:3545   */\n      tag_153\n      jump\t// in\n    tag_161:\n        /* \"#utility.yul\":3570:3576   */\n      dup1\n        /* \"#utility.yul\":3565:3568   */\n      dup5\n        /* \"#utility.yul\":3561:3577   */\n      add\n        /* \"#utility.yul\":3554:3577   */\n      swap2\n      pop\n        /* \"#utility.yul\":3316:3583   */\n      pop\n        /* \"#utility.yul\":3206:3583   */\n      swap3\n      swap2\n      pop\n      pop\n      jump\t// out\n        /* \"#utility.yul\":3589:3707   */\n    tag_162:\n        /* \"#utility.yul\":3676:3700   */\n      tag_164\n        /* \"#utility.yul\":3694:3699   */\n      dup2\n        /* \"#utility.yul\":3676:3700   */\n      tag_165\n      jump\t// in\n    tag_164:\n        /* \"#utility.yul\":3671:3674   */\n      dup3\n        /* \"#utility.yul\":3664:3701   */\n      mstore\n        /* \"#utility.yul\":3589:3707   */\n      pop\n      pop\n      jump\t// out\n        /* \"#utility.yul\":3713:3988   */\n    tag_84:\n        /* \"#utility.yul\":3845:3848   */\n      0x00\n        /* \"#utility.yul\":3867:3962   */\n      tag_167\n        /* \"#utility.yul\":3958:3961   */\n      dup3\n        /* \"#utility.yul\":3949:3955   */\n      dup5\n        /* \"#utility.yul\":3867:3962   */\n      tag_156\n      jump\t// in\n    tag_167:\n        /* \"#utility.yul\":3860:3962   */\n      swap2\n      pop\n        /* \"#utility.yul\":3979:3982   */\n      dup2\n        /* \"#utility.yul\":3972:3982   */\n      swap1\n      pop\n        /* \"#utility.yul\":3713:3988   */\n      swap3\n      swap2\n      pop\n      pop\n      jump\t// out\n        /* \"#utility.yul\":3994:6234   */\n    tag_11:\n        /* \"#utility.yul\":4565:4569   */\n      0x00\n        /* \"#utility.yul\":4603:4606   */\n      0x0180\n        /* \"#utility.yul\":4592:4601   */\n      dup3\n        /* \"#utility.yul\":4588:4607   */\n      add\n        /* \"#utility.yul\":4580:4607   */\n      swap1\n      pop\n        /* \"#utility.yul\":4653:4662   */\n      dup2\n        /* \"#utility.yul\":4647:4651   */\n      dup2\n        /* \"#utility.yul\":4643:4663   */\n      sub\n        /* \"#utility.yul\":4639:4640   */\n      0x00\n        /* \"#utility.yul\":4628:4637   */\n      dup4\n        /* \"#utility.yul\":4624:4641   */\n      add\n        /* \"#utility.yul\":4617:4664   */\n      mstore\n        /* \"#utility.yul\":4681:4759   */\n      tag_169\n        /* \"#utility.yul\":4754:4758   */\n      dup2\n        /* \"#utility.yul\":4745:4751   */\n      dup16\n        /* \"#utility.yul\":4681:4759   */\n      tag_146\n      jump\t// in\n    tag_169:\n        /* \"#utility.yul\":4673:4759   */\n      swap1\n      pop\n        /* \"#utility.yul\":4769:4835   */\n      tag_170\n        /* \"#utility.yul\":4831:4833   */\n      0x20\n        /* \"#utility.yul\":4820:4829   */\n      dup4\n        /* \"#utility.yul\":4816:4834   */\n      add\n        /* \"#utility.yul\":4807:4813   */\n      dup15\n        /* \"#utility.yul\":4769:4835   */\n      tag_142\n      jump\t// in\n    tag_170:\n        /* \"#utility.yul\":4845:4917   */\n      tag_171\n        /* \"#utility.yul\":4913:4915   */\n      0x40\n        /* \"#utility.yul\":4902:4911   */\n      dup4\n        /* \"#utility.yul\":4898:4916   */\n      add\n        /* \"#utility.yul\":4889:4895   */\n      dup14\n        /* \"#utility.yul\":4845:4917   */\n      tag_162\n      jump\t// in\n    tag_171:\n        /* \"#utility.yul\":4964:4973   */\n      dup2\n        /* \"#utility.yul\":4958:4962   */\n      dup2\n        /* \"#utility.yul\":4954:4974   */\n      sub\n        /* \"#utility.yul\":4949:4951   */\n      0x60\n        /* \"#utility.yul\":4938:4947   */\n      dup4\n        /* \"#utility.yul\":4934:4952   */\n      add\n        /* \"#utility.yul\":4927:4975   */\n      mstore\n        /* \"#utility.yul\":4992:5070   */\n      tag_172\n        /* \"#utility.yul\":5065:5069   */\n      dup2\n        /* \"#utility.yul\":5056:5062   */\n      dup13\n        /* \"#utility.yul\":4992:5070   */\n      tag_146\n      jump\t// in\n    tag_172:\n        /* \"#utility.yul\":4984:5070   */\n      swap1\n      pop\n        /* \"#utility.yul\":5118:5127   */\n      dup2\n        /* \"#utility.yul\":5112:5116   */\n      dup2\n        /* \"#utility.yul\":5108:5128   */\n      sub\n        /* \"#utility.yul\":5102:5105   */\n      0x80\n        /* \"#utility.yul\":5091:5100   */\n      dup4\n        /* \"#utility.yul\":5087:5106   */\n      add\n        /* \"#utility.yul\":5080:5129   */\n      mstore\n        /* \"#utility.yul\":5146:5224   */\n      tag_173\n        /* \"#utility.yul\":5219:5223   */\n      dup2\n        /* \"#utility.yul\":5210:5216   */\n      dup12\n        /* \"#utility.yul\":5146:5224   */\n      tag_146\n      jump\t// in\n    tag_173:\n        /* \"#utility.yul\":5138:5224   */\n      swap1\n      pop\n        /* \"#utility.yul\":5272:5281   */\n      dup2\n        /* \"#utility.yul\":5266:5270   */\n      dup2\n        /* \"#utility.yul\":5262:5282   */\n      sub\n        /* \"#utility.yul\":5256:5259   */\n      0xa0\n        /* \"#utility.yul\":5245:5254   */\n      dup4\n        /* \"#utility.yul\":5241:5260   */\n      add\n        /* \"#utility.yul\":5234:5283   */\n      mstore\n        /* \"#utility.yul\":5300:5378   */\n      tag_174\n        /* \"#utility.yul\":5373:5377   */\n      dup2\n        /* \"#utility.yul\":5364:5370   */\n      dup11\n        /* \"#utility.yul\":5300:5378   */\n      tag_146\n      jump\t// in\n    tag_174:\n        /* \"#utility.yul\":5292:5378   */\n      swap1\n      pop\n        /* \"#utility.yul\":5426:5435   */\n      dup2\n        /* \"#utility.yul\":5420:5424   */\n      dup2\n        /* \"#utility.yul\":5416:5436   */\n      sub\n        /* \"#utility.yul\":5410:5413   */\n      0xc0\n        /* \"#utility.yul\":5399:5408   */\n      dup4\n        /* \"#utility.yul\":5395:5414   */\n      add\n        /* \"#utility.yul\":5388:5437   */\n      mstore\n        /* \"#utility.yul\":5454:5532   */\n      tag_175\n        /* \"#utility.yul\":5527:5531   */\n      dup2\n        /* \"#utility.yul\":5518:5524   */\n      dup10\n        /* \"#utility.yul\":5454:5532   */\n      tag_146\n      jump\t// in\n    tag_175:\n        /* \"#utility.yul\":5446:5532   */\n      swap1\n      pop\n        /* \"#utility.yul\":5580:5589   */\n      dup2\n        /* \"#utility.yul\":5574:5578   */\n      dup2\n        /* \"#utility.yul\":5570:5590   */\n      sub\n        /* \"#utility.yul\":5564:5567   */\n      0xe0\n        /* \"#utility.yul\":5553:5562   */\n      dup4\n        /* \"#utility.yul\":5549:5568   */\n      add\n        /* \"#utility.yul\":5542:5591   */\n      mstore\n        /* \"#utility.yul\":5608:5686   */\n      tag_176\n        /* \"#utility.yul\":5681:5685   */\n      dup2\n        /* \"#utility.yul\":5672:5678   */\n      dup9\n        /* \"#utility.yul\":5608:5686   */\n      tag_146\n      jump\t// in\n    tag_176:\n        /* \"#utility.yul\":5600:5686   */\n      swap1\n      pop\n        /* \"#utility.yul\":5734:5743   */\n      dup2\n        /* \"#utility.yul\":5728:5732   */\n      dup2\n        /* \"#utility.yul\":5724:5744   */\n      sub\n        /* \"#utility.yul\":5718:5721   */\n      0x0100\n        /* \"#utility.yul\":5707:5716   */\n      dup4\n        /* \"#utility.yul\":5703:5722   */\n      add\n        /* \"#utility.yul\":5696:5745   */\n      mstore\n        /* \"#utility.yul\":5762:5840   */\n      tag_177\n        /* \"#utility.yul\":5835:5839   */\n      dup2\n        /* \"#utility.yul\":5826:5832   */\n      dup8\n        /* \"#utility.yul\":5762:5840   */\n      tag_146\n      jump\t// in\n    tag_177:\n        /* \"#utility.yul\":5754:5840   */\n      swap1\n      pop\n        /* \"#utility.yul\":5888:5897   */\n      dup2\n        /* \"#utility.yul\":5882:5886   */\n      dup2\n        /* \"#utility.yul\":5878:5898   */\n      sub\n        /* \"#utility.yul\":5872:5875   */\n      0x0120\n        /* \"#utility.yul\":5861:5870   */\n      dup4\n        /* \"#utility.yul\":5857:5876   */\n      add\n        /* \"#utility.yul\":5850:5899   */\n      mstore\n        /* \"#utility.yul\":5916:5994   */\n      tag_178\n        /* \"#utility.yul\":5989:5993   */\n      dup2\n        /* \"#utility.yul\":5980:5986   */\n      dup7\n        /* \"#utility.yul\":5916:5994   */\n      tag_146\n      jump\t// in\n    tag_178:\n        /* \"#utility.yul\":5908:5994   */\n      swap1\n      pop\n        /* \"#utility.yul\":6004:6072   */\n      tag_179\n        /* \"#utility.yul\":6067:6070   */\n      0x0140\n        /* \"#utility.yul\":6056:6065   */\n      dup4\n        /* \"#utility.yul\":6052:6071   */\n      add\n        /* \"#utility.yul\":6042:6049   */\n      dup6\n        /* \"#utility.yul\":6004:6072   */\n      tag_142\n      jump\t// in\n    tag_179:\n        /* \"#utility.yul\":6120:6129   */\n      dup2\n        /* \"#utility.yul\":6114:6118   */\n      dup2\n        /* \"#utility.yul\":6110:6130   */\n      sub\n        /* \"#utility.yul\":6104:6107   */\n      0x0160\n        /* \"#utility.yul\":6093:6102   */\n      dup4\n        /* \"#utility.yul\":6089:6108   */\n      add\n        /* \"#utility.yul\":6082:6131   */\n      mstore\n        /* \"#utility.yul\":6148:6227   */\n      tag_180\n        /* \"#utility.yul\":6222:6226   */\n      dup2\n        /* \"#utility.yul\":6212:6219   */\n      dup5\n        /* \"#utility.yul\":6148:6227   */\n      tag_146\n      jump\t// in\n    tag_180:\n        /* \"#utility.yul\":6140:6227   */\n      swap1\n      pop\n        /* \"#utility.yul\":3994:6234   */\n      swap14\n      swap13\n      pop\n      pop\n      pop\n      pop\n      pop\n      pop\n      pop\n      pop\n      pop\n      pop\n      pop\n      pop\n      pop\n      jump\t// out\n        /* \"#utility.yul\":6240:7066   */\n    tag_16:\n        /* \"#utility.yul\":6477:6481   */\n      0x00\n        /* \"#utility.yul\":6515:6518   */\n      0x80\n        /* \"#utility.yul\":6504:6513   */\n      dup3\n        /* \"#utility.yul\":6500:6519   */\n      add\n        /* \"#utility.yul\":6492:6519   */\n      swap1\n      pop\n        /* \"#utility.yul\":6565:6574   */\n      dup2\n        /* \"#utility.yul\":6559:6563   */\n      dup2\n        /* \"#utility.yul\":6555:6575   */\n      sub\n        /* \"#utility.yul\":6551:6552   */\n      0x00\n        /* \"#utility.yul\":6540:6549   */\n      dup4\n        /* \"#utility.yul\":6536:6553   */\n      add\n        /* \"#utility.yul\":6529:6576   */\n      mstore\n        /* \"#utility.yul\":6593:6671   */\n      tag_182\n        /* \"#utility.yul\":6666:6670   */\n      dup2\n        /* \"#utility.yul\":6657:6663   */\n      dup8\n        /* \"#utility.yul\":6593:6671   */\n      tag_146\n      jump\t// in\n    tag_182:\n        /* \"#utility.yul\":6585:6671   */\n      swap1\n      pop\n        /* \"#utility.yul\":6718:6727   */\n      dup2\n        /* \"#utility.yul\":6712:6716   */\n      dup2\n        /* \"#utility.yul\":6708:6728   */\n      sub\n        /* \"#utility.yul\":6703:6705   */\n      0x20\n        /* \"#utility.yul\":6692:6701   */\n      dup4\n        /* \"#utility.yul\":6688:6706   */\n      add\n        /* \"#utility.yul\":6681:6729   */\n      mstore\n        /* \"#utility.yul\":6746:6824   */\n      tag_183\n        /* \"#utility.yul\":6819:6823   */\n      dup2\n        /* \"#utility.yul\":6810:6816   */\n      dup7\n        /* \"#utility.yul\":6746:6824   */\n      tag_146\n      jump\t// in\n    tag_183:\n        /* \"#utility.yul\":6738:6824   */\n      swap1\n      pop\n        /* \"#utility.yul\":6871:6880   */\n      dup2\n        /* \"#utility.yul\":6865:6869   */\n      dup2\n        /* \"#utility.yul\":6861:6881   */\n      sub\n        /* \"#utility.yul\":6856:6858   */\n      0x40\n        /* \"#utility.yul\":6845:6854   */\n      dup4\n        /* \"#utility.yul\":6841:6859   */\n      add\n        /* \"#utility.yul\":6834:6882   */\n      mstore\n        /* \"#utility.yul\":6899:6977   */\n      tag_184\n        /* \"#utility.yul\":6972:6976   */\n      dup2\n        /* \"#utility.yul\":6963:6969   */\n      dup6\n        /* \"#utility.yul\":6899:6977   */\n      tag_146\n      jump\t// in\n    tag_184:\n        /* \"#utility.yul\":6891:6977   */\n      swap1\n      pop\n        /* \"#utility.yul\":6987:7059   */\n      tag_185\n        /* \"#utility.yul\":7055:7057   */\n      0x60\n        /* \"#utility.yul\":7044:7053   */\n      dup4\n        /* \"#utility.yul\":7040:7058   */\n      add\n        /* \"#utility.yul\":7031:7037   */\n      dup5\n        /* \"#utility.yul\":6987:7059   */\n      tag_162\n      jump\t// in\n    tag_185:\n        /* \"#utility.yul\":6240:7066   */\n      swap6\n      swap5\n      pop\n      pop\n      pop\n      pop\n      pop\n      jump\t// out\n        /* \"#utility.yul\":7072:7201   */\n    tag_103:\n        /* \"#utility.yul\":7106:7112   */\n      0x00\n        /* \"#utility.yul\":7133:7153   */\n      tag_187\n      tag_188\n      jump\t// in\n    tag_187:\n        /* \"#utility.yul\":7123:7153   */\n      swap1\n      pop\n        /* \"#utility.yul\":7162:7195   */\n      tag_189\n        /* \"#utility.yul\":7190:7194   */\n      dup3\n        /* \"#utility.yul\":7182:7188   */\n      dup3\n        /* \"#utility.yul\":7162:7195   */\n      tag_190\n      jump\t// in\n    tag_189:\n        /* \"#utility.yul\":7072:7201   */\n      swap2\n      swap1\n      pop\n      jump\t// out\n        /* \"#utility.yul\":7207:7282   */\n    tag_188:\n        /* \"#utility.yul\":7240:7246   */\n      0x00\n        /* \"#utility.yul\":7273:7275   */\n      0x40\n        /* \"#utility.yul\":7267:7276   */\n      mload\n        /* \"#utility.yul\":7257:7276   */\n      swap1\n      pop\n        /* \"#utility.yul\":7207:7282   */\n      swap1\n      jump\t// out\n        /* \"#utility.yul\":7288:7596   */\n    tag_102:\n        /* \"#utility.yul\":7350:7354   */\n      0x00\n        /* \"#utility.yul\":7440:7458   */\n      0xffffffffffffffff\n        /* \"#utility.yul\":7432:7438   */\n      dup3\n        /* \"#utility.yul\":7429:7459   */\n      gt\n        /* \"#utility.yul\":7426:7482   */\n      iszero\n      tag_193\n      jumpi\n        /* \"#utility.yul\":7462:7480   */\n      tag_194\n      tag_195\n      jump\t// in\n    tag_194:\n        /* \"#utility.yul\":7426:7482   */\n    tag_193:\n        /* \"#utility.yul\":7500:7529   */\n      tag_196\n        /* \"#utility.yul\":7522:7528   */\n      dup3\n        /* \"#utility.yul\":7500:7529   */\n      tag_155\n      jump\t// in\n    tag_196:\n        /* \"#utility.yul\":7492:7529   */\n      swap1\n      pop\n        /* \"#utility.yul\":7584:7588   */\n      0x20\n        /* \"#utility.yul\":7578:7582   */\n      dup2\n        /* \"#utility.yul\":7574:7589   */\n      add\n        /* \"#utility.yul\":7566:7589   */\n      swap1\n      pop\n        /* \"#utility.yul\":7288:7596   */\n      swap2\n      swap1\n      pop\n      jump\t// out\n        /* \"#utility.yul\":7602:7701   */\n    tag_149:\n        /* \"#utility.yul\":7654:7660   */\n      0x00\n        /* \"#utility.yul\":7688:7693   */\n      dup2\n        /* \"#utility.yul\":7682:7694   */\n      mload\n        /* \"#utility.yul\":7672:7694   */\n      swap1\n      pop\n        /* \"#utility.yul\":7602:7701   */\n      swap2\n      swap1\n      pop\n      jump\t// out\n        /* \"#utility.yul\":7707:7876   */\n    tag_151:\n        /* \"#utility.yul\":7791:7802   */\n      0x00\n        /* \"#utility.yul\":7825:7831   */\n      dup3\n        /* \"#utility.yul\":7820:7823   */\n      dup3\n        /* \"#utility.yul\":7813:7832   */\n      mstore\n        /* \"#utility.yul\":7865:7869   */\n      0x20\n        /* \"#utility.yul\":7860:7863   */\n      dup3\n        /* \"#utility.yul\":7856:7870   */\n      add\n        /* \"#utility.yul\":7841:7870   */\n      swap1\n      pop\n        /* \"#utility.yul\":7707:7876   */\n      swap3\n      swap2\n      pop\n      pop\n      jump\t// out\n        /* \"#utility.yul\":7882:8030   */\n    tag_160:\n        /* \"#utility.yul\":7984:7995   */\n      0x00\n        /* \"#utility.yul\":8021:8024   */\n      dup2\n        /* \"#utility.yul\":8006:8024   */\n      swap1\n      pop\n        /* \"#utility.yul\":7882:8030   */\n      swap3\n      swap2\n      pop\n      pop\n      jump\t// out\n        /* \"#utility.yul\":8036:8126   */\n    tag_145:\n        /* \"#utility.yul\":8070:8077   */\n      0x00\n        /* \"#utility.yul\":8113:8118   */\n      dup2\n        /* \"#utility.yul\":8106:8119   */\n      iszero\n        /* \"#utility.yul\":8099:8120   */\n      iszero\n        /* \"#utility.yul\":8088:8120   */\n      swap1\n      pop\n        /* \"#utility.yul\":8036:8126   */\n      swap2\n      swap1\n      pop\n      jump\t// out\n        /* \"#utility.yul\":8132:8209   */\n    tag_201:\n        /* \"#utility.yul\":8169:8176   */\n      0x00\n        /* \"#utility.yul\":8198:8203   */\n      dup2\n        /* \"#utility.yul\":8187:8203   */\n      swap1\n      pop\n        /* \"#utility.yul\":8132:8209   */\n      swap2\n      swap1\n      pop\n      jump\t// out\n        /* \"#utility.yul\":8215:8292   */\n    tag_165:\n        /* \"#utility.yul\":8252:8259   */\n      0x00\n        /* \"#utility.yul\":8281:8286   */\n      dup2\n        /* \"#utility.yul\":8270:8286   */\n      swap1\n      pop\n        /* \"#utility.yul\":8215:8292   */\n      swap2\n      swap1\n      pop\n      jump\t// out\n        /* \"#utility.yul\":8298:8452   */\n    tag_108:\n        /* \"#utility.yul\":8382:8388   */\n      dup3\n        /* \"#utility.yul\":8377:8380   */\n      dup2\n        /* \"#utility.yul\":8372:8375   */\n      dup4\n        /* \"#utility.yul\":8359:8389   */\n      calldatacopy\n        /* \"#utility.yul\":8444:8445   */\n      0x00\n        /* \"#utility.yul\":8435:8441   */\n      dup4\n        /* \"#utility.yul\":8430:8433   */\n      dup4\n        /* \"#utility.yul\":8426:8442   */\n      add\n        /* \"#utility.yul\":8419:8446   */\n      mstore\n        /* \"#utility.yul\":8298:8452   */\n      pop\n      pop\n      pop\n      jump\t// out\n        /* \"#utility.yul\":8458:8765   */\n    tag_153:\n        /* \"#utility.yul\":8526:8527   */\n      0x00\n        /* \"#utility.yul\":8536:8649   */\n    tag_206:\n        /* \"#utility.yul\":8550:8556   */\n      dup4\n        /* \"#utility.yul\":8547:8548   */\n      dup2\n        /* \"#utility.yul\":8544:8557   */\n      lt\n        /* \"#utility.yul\":8536:8649   */\n      iszero\n      tag_208\n      jumpi\n        /* \"#utility.yul\":8635:8636   */\n      dup1\n        /* \"#utility.yul\":8630:8633   */\n      dup3\n        /* \"#utility.yul\":8626:8637   */\n      add\n        /* \"#utility.yul\":8620:8638   */\n      mload\n        /* \"#utility.yul\":8616:8617   */\n      dup2\n        /* \"#utility.yul\":8611:8614   */\n      dup5\n        /* \"#utility.yul\":8607:8618   */\n      add\n        /* \"#utility.yul\":8600:8639   */\n      mstore\n        /* \"#utility.yul\":8572:8574   */\n      0x20\n        /* \"#utility.yul\":8569:8570   */\n      dup2\n        /* \"#utility.yul\":8565:8575   */\n      add\n        /* \"#utility.yul\":8560:8575   */\n      swap1\n      pop\n        /* \"#utility.yul\":8536:8649   */\n      jump(tag_206)\n    tag_208:\n        /* \"#utility.yul\":8667:8673   */\n      dup4\n        /* \"#utility.yul\":8664:8665   */\n      dup2\n        /* \"#utility.yul\":8661:8674   */\n      gt\n        /* \"#utility.yul\":8658:8759   */\n      iszero\n      tag_209\n      jumpi\n        /* \"#utility.yul\":8747:8748   */\n      0x00\n        /* \"#utility.yul\":8738:8744   */\n      dup5\n        /* \"#utility.yul\":8733:8736   */\n      dup5\n        /* \"#utility.yul\":8729:8745   */\n      add\n        /* \"#utility.yul\":8722:8749   */\n      mstore\n        /* \"#utility.yul\":8658:8759   */\n    tag_209:\n        /* \"#utility.yul\":8507:8765   */\n      pop\n        /* \"#utility.yul\":8458:8765   */\n      pop\n      pop\n      pop\n      jump\t// out\n        /* \"#utility.yul\":8771:9091   */\n    tag_22:\n        /* \"#utility.yul\":8815:8821   */\n      0x00\n        /* \"#utility.yul\":8852:8853   */\n      0x02\n        /* \"#utility.yul\":8846:8850   */\n      dup3\n        /* \"#utility.yul\":8842:8854   */\n      div\n        /* \"#utility.yul\":8832:8854   */\n      swap1\n      pop\n        /* \"#utility.yul\":8899:8900   */\n      0x01\n        /* \"#utility.yul\":8893:8897   */\n      dup3\n        /* \"#utility.yul\":8889:8901   */\n      and\n        /* \"#utility.yul\":8920:8938   */\n      dup1\n        /* \"#utility.yul\":8910:8991   */\n      tag_211\n      jumpi\n        /* \"#utility.yul\":8976:8980   */\n      0x7f\n        /* \"#utility.yul\":8968:8974   */\n      dup3\n        /* \"#utility.yul\":8964:8981   */\n      and\n        /* \"#utility.yul\":8954:8981   */\n      swap2\n      pop\n        /* \"#utility.yul\":8910:8991   */\n    tag_211:\n        /* \"#utility.yul\":9038:9040   */\n      0x20\n        /* \"#utility.yul\":9030:9036   */\n      dup3\n        /* \"#utility.yul\":9027:9041   */\n      lt\n        /* \"#utility.yul\":9007:9025   */\n      dup2\n        /* \"#utility.yul\":9004:9042   */\n      eq\n        /* \"#utility.yul\":9001:9085   */\n      iszero\n      tag_212\n      jumpi\n        /* \"#utility.yul\":9057:9075   */\n      tag_213\n      tag_214\n      jump\t// in\n    tag_213:\n        /* \"#utility.yul\":9001:9085   */\n    tag_212:\n        /* \"#utility.yul\":8822:9091   */\n      pop\n        /* \"#utility.yul\":8771:9091   */\n      swap2\n      swap1\n      pop\n      jump\t// out\n        /* \"#utility.yul\":9097:9378   */\n    tag_190:\n        /* \"#utility.yul\":9180:9207   */\n      tag_216\n        /* \"#utility.yul\":9202:9206   */\n      dup3\n        /* \"#utility.yul\":9180:9207   */\n      tag_155\n      jump\t// in\n    tag_216:\n        /* \"#utility.yul\":9172:9178   */\n      dup2\n        /* \"#utility.yul\":9168:9208   */\n      add\n        /* \"#utility.yul\":9310:9316   */\n      dup2\n        /* \"#utility.yul\":9298:9308   */\n      dup2\n        /* \"#utility.yul\":9295:9317   */\n      lt\n        /* \"#utility.yul\":9274:9292   */\n      0xffffffffffffffff\n        /* \"#utility.yul\":9262:9272   */\n      dup3\n        /* \"#utility.yul\":9259:9293   */\n      gt\n        /* \"#utility.yul\":9256:9318   */\n      or\n        /* \"#utility.yul\":9253:9341   */\n      iszero\n      tag_217\n      jumpi\n        /* \"#utility.yul\":9321:9339   */\n      tag_218\n      tag_195\n      jump\t// in\n    tag_218:\n        /* \"#utility.yul\":9253:9341   */\n    tag_217:\n        /* \"#utility.yul\":9361:9371   */\n      dup1\n        /* \"#utility.yul\":9357:9359   */\n      0x40\n        /* \"#utility.yul\":9350:9372   */\n      mstore\n        /* \"#utility.yul\":9140:9378   */\n      pop\n        /* \"#utility.yul\":9097:9378   */\n      pop\n      pop\n      jump\t// out\n        /* \"#utility.yul\":9384:9564   */\n    tag_214:\n        /* \"#utility.yul\":9432:9509   */\n      0x4e487b7100000000000000000000000000000000000000000000000000000000\n        /* \"#utility.yul\":9429:9430   */\n      0x00\n        /* \"#utility.yul\":9422:9510   */\n      mstore\n        /* \"#utility.yul\":9529:9533   */\n      0x22\n        /* \"#utility.yul\":9526:9527   */\n      0x04\n        /* \"#utility.yul\":9519:9534   */\n      mstore\n        /* \"#utility.yul\":9553:9557   */\n      0x24\n        /* \"#utility.yul\":9550:9551   */\n      0x00\n        /* \"#utility.yul\":9543:9558   */\n      revert\n        /* \"#utility.yul\":9570:9750   */\n    tag_195:\n        /* \"#utility.yul\":9618:9695   */\n      0x4e487b7100000000000000000000000000000000000000000000000000000000\n        /* \"#utility.yul\":9615:9616   */\n      0x00\n        /* \"#utility.yul\":9608:9696   */\n      mstore\n        /* \"#utility.yul\":9715:9719   */\n      0x41\n        /* \"#utility.yul\":9712:9713   */\n      0x04\n        /* \"#utility.yul\":9705:9720   */\n      mstore\n        /* \"#utility.yul\":9739:9743   */\n      0x24\n        /* \"#utility.yul\":9736:9737   */\n      0x00\n        /* \"#utility.yul\":9729:9744   */\n      revert\n        /* \"#utility.yul\":9756:9873   */\n    tag_117:\n        /* \"#utility.yul\":9865:9866   */\n      0x00\n        /* \"#utility.yul\":9862:9863   */\n      dup1\n        /* \"#utility.yul\":9855:9867   */\n      revert\n        /* \"#utility.yul\":9879:9996   */\n    tag_106:\n        /* \"#utility.yul\":9988:9989   */\n      0x00\n        /* \"#utility.yul\":9985:9986   */\n      dup1\n        /* \"#utility.yul\":9978:9990   */\n      revert\n        /* \"#utility.yul\":10002:10119   */\n    tag_133:\n        /* \"#utility.yul\":10111:10112   */\n      0x00\n        /* \"#utility.yul\":10108:10109   */\n      dup1\n        /* \"#utility.yul\":10101:10113   */\n      revert\n        /* \"#utility.yul\":10125:10242   */\n    tag_126:\n        /* \"#utility.yul\":10234:10235   */\n      0x00\n        /* \"#utility.yul\":10231:10232   */\n      dup1\n        /* \"#utility.yul\":10224:10236   */\n      revert\n        /* \"#utility.yul\":10248:10350   */\n    tag_155:\n        /* \"#utility.yul\":10289:10295   */\n      0x00\n        /* \"#utility.yul\":10340:10342   */\n      0x1f\n        /* \"#utility.yul\":10336:10343   */\n      not\n        /* \"#utility.yul\":10331:10333   */\n      0x1f\n        /* \"#utility.yul\":10324:10329   */\n      dup4\n        /* \"#utility.yul\":10320:10334   */\n      add\n        /* \"#utility.yul\":10316:10344   */\n      and\n        /* \"#utility.yul\":10306:10344   */\n      swap1\n      pop\n        /* \"#utility.yul\":10248:10350   */\n      swap2\n      swap1\n      pop\n      jump\t// out\n        /* \"#utility.yul\":10356:10478   */\n    tag_112:\n        /* \"#utility.yul\":10429:10453   */\n      tag_227\n        /* \"#utility.yul\":10447:10452   */\n      dup2\n        /* \"#utility.yul\":10429:10453   */\n      tag_201\n      jump\t// in\n    tag_227:\n        /* \"#utility.yul\":10422:10427   */\n      dup2\n        /* \"#utility.yul\":10419:10454   */\n      eq\n        /* \"#utility.yul\":10409:10472   */\n      tag_228\n      jumpi\n        /* \"#utility.yul\":10468:10469   */\n      0x00\n        /* \"#utility.yul\":10465:10466   */\n      dup1\n        /* \"#utility.yul\":10458:10470   */\n      revert\n        /* \"#utility.yul\":10409:10472   */\n    tag_228:\n        /* \"#utility.yul\":10356:10478   */\n      pop\n      jump\t// out\n        /* \"#utility.yul\":10484:10606   */\n    tag_122:\n        /* \"#utility.yul\":10557:10581   */\n      tag_230\n        /* \"#utility.yul\":10575:10580   */\n      dup2\n        /* \"#utility.yul\":10557:10581   */\n      tag_165\n      jump\t// in\n    tag_230:\n        /* \"#utility.yul\":10550:10555   */\n      dup2\n        /* \"#utility.yul\":10547:10582   */\n      eq\n        /* \"#utility.yul\":10537:10600   */\n      tag_231\n      jumpi\n        /* \"#utility.yul\":10596:10597   */\n      0x00\n        /* \"#utility.yul\":10593:10594   */\n      dup1\n        /* \"#utility.yul\":10586:10598   */\n      revert\n        /* \"#utility.yul\":10537:10600   */\n    tag_231:\n        /* \"#utility.yul\":10484:10606   */\n      pop\n      jump\t// out\n\n    auxdata: 0xa264697066735822122032a9e941e73376192f5fdd9612c7c7d07a1b7daa89399fe56d15716c7fd724bf64736f6c63430008070033\n}\n",
				"bytecode": {
					"linkReferences": {},
					"object": "608060405234801561001057600080fd5b50610e7c806100206000396000f3fe608060405234801561001057600080fd5b50600436106100415760003560e01c806330ee52a914610046578063462e1eed14610081578063720fa527146100b4575b600080fd5b610060600480360381019061005b9190610979565b6100d0565b6040516100789c9b9a99989796959493929190610b00565b60405180910390f35b61009b60048036038101906100969190610979565b610612565b6040516100ab9493929190610bf9565b60405180910390f35b6100ce60048036038101906100c991906109a6565b6107da565b005b60016020528060005260406000206000915090508060000180546100f390610d32565b80601f016020809104026020016040519081016040528092919081815260200182805461011f90610d32565b801561016c5780601f106101415761010080835404028352916020019161016c565b820191906000526020600020905b81548152906001019060200180831161014f57829003601f168201915b5050505050908060010160009054906101000a900460ff169080600201549080600301805461019a90610d32565b80601f01602080910402602001604051908101604052809291908181526020018280546101c690610d32565b80156102135780601f106101e857610100808354040283529160200191610213565b820191906000526020600020905b8154815290600101906020018083116101f657829003601f168201915b50505050509080600401805461022890610d32565b80601f016020809104026020016040519081016040528092919081815260200182805461025490610d32565b80156102a15780601f10610276576101008083540402835291602001916102a1565b820191906000526020600020905b81548152906001019060200180831161028457829003601f168201915b5050505050908060050180546102b690610d32565b80601f01602080910402602001604051908101604052809291908181526020018280546102e290610d32565b801561032f5780601f106103045761010080835404028352916020019161032f565b820191906000526020600020905b81548152906001019060200180831161031257829003601f168201915b50505050509080600601805461034490610d32565b80601f016020809104026020016040519081016040528092919081815260200182805461037090610d32565b80156103bd5780601f10610392576101008083540402835291602001916103bd565b820191906000526020600020905b8154815290600101906020018083116103a057829003601f168201915b5050505050908060070180546103d290610d32565b80601f01602080910402602001604051908101604052809291908181526020018280546103fe90610d32565b801561044b5780601f106104205761010080835404028352916020019161044b565b820191906000526020600020905b81548152906001019060200180831161042e57829003601f168201915b50505050509080600801805461046090610d32565b80601f016020809104026020016040519081016040528092919081815260200182805461048c90610d32565b80156104d95780601f106104ae576101008083540402835291602001916104d9565b820191906000526020600020905b8154815290600101906020018083116104bc57829003601f168201915b5050505050908060090180546104ee90610d32565b80601f016020809104026020016040519081016040528092919081815260200182805461051a90610d32565b80156105675780601f1061053c57610100808354040283529160200191610567565b820191906000526020600020905b81548152906001019060200180831161054a57829003601f168201915b50505050509080600a0160009054906101000a900460ff169080600b01805461058f90610d32565b80601f01602080910402602001604051908101604052809291908181526020018280546105bb90610d32565b80156106085780601f106105dd57610100808354040283529160200191610608565b820191906000526020600020905b8154815290600101906020018083116105eb57829003601f168201915b505050505090508c565b600060205280600052604060002060009150905080600001805461063590610d32565b80601f016020809104026020016040519081016040528092919081815260200182805461066190610d32565b80156106ae5780601f10610683576101008083540402835291602001916106ae565b820191906000526020600020905b81548152906001019060200180831161069157829003601f168201915b5050505050908060010180546106c390610d32565b80601f01602080910402602001604051908101604052809291908181526020018280546106ef90610d32565b801561073c5780601f106107115761010080835404028352916020019161073c565b820191906000526020600020905b81548152906001019060200180831161071f57829003601f168201915b50505050509080600201805461075190610d32565b80601f016020809104026020016040519081016040528092919081815260200182805461077d90610d32565b80156107ca5780601f1061079f576101008083540402835291602001916107ca565b820191906000526020600020905b8154815290600101906020018083116107ad57829003601f168201915b5050505050908060030154905084565b6000846040516020016107ed9190610ae9565b604051602081830303815290604052805190602001209050600080600083815260200190815260200160002090508581600001908051906020019061083392919061083c565b50505050505050565b82805461084890610d32565b90600052602060002090601f01602090048101928261086a57600085556108b1565b82601f1061088357805160ff19168380011785556108b1565b828001600101855582156108b1579182015b828111156108b0578251825591602001919060010190610895565b5b5090506108be91906108c2565b5090565b5b808211156108db5760008160009055506001016108c3565b5090565b60006108f26108ed84610c78565b610c53565b90508281526020810184848401111561090e5761090d610df8565b5b610919848285610cf0565b509392505050565b60008135905061093081610e18565b92915050565b600082601f83011261094b5761094a610df3565b5b813561095b8482602086016108df565b91505092915050565b60008135905061097381610e2f565b92915050565b60006020828403121561098f5761098e610e02565b5b600061099d84828501610921565b91505092915050565b600080600080608085870312156109c0576109bf610e02565b5b600085013567ffffffffffffffff8111156109de576109dd610dfd565b5b6109ea87828801610936565b945050602085013567ffffffffffffffff811115610a0b57610a0a610dfd565b5b610a1787828801610936565b935050604085013567ffffffffffffffff811115610a3857610a37610dfd565b5b610a4487828801610936565b9250506060610a5587828801610964565b91505092959194509250565b610a6a81610cd0565b82525050565b6000610a7b82610ca9565b610a858185610cb4565b9350610a95818560208601610cff565b610a9e81610e07565b840191505092915050565b6000610ab482610ca9565b610abe8185610cc5565b9350610ace818560208601610cff565b80840191505092915050565b610ae381610ce6565b82525050565b6000610af58284610aa9565b915081905092915050565b6000610180820190508181036000830152610b1b818f610a70565b9050610b2a602083018e610a61565b610b37604083018d610ada565b8181036060830152610b49818c610a70565b90508181036080830152610b5d818b610a70565b905081810360a0830152610b71818a610a70565b905081810360c0830152610b858189610a70565b905081810360e0830152610b998188610a70565b9050818103610100830152610bae8187610a70565b9050818103610120830152610bc38186610a70565b9050610bd3610140830185610a61565b818103610160830152610be68184610a70565b90509d9c50505050505050505050505050565b60006080820190508181036000830152610c138187610a70565b90508181036020830152610c278186610a70565b90508181036040830152610c3b8185610a70565b9050610c4a6060830184610ada565b95945050505050565b6000610c5d610c6e565b9050610c698282610d64565b919050565b6000604051905090565b600067ffffffffffffffff821115610c9357610c92610dc4565b5b610c9c82610e07565b9050602081019050919050565b600081519050919050565b600082825260208201905092915050565b600081905092915050565b60008115159050919050565b6000819050919050565b6000819050919050565b82818337600083830152505050565b60005b83811015610d1d578082015181840152602081019050610d02565b83811115610d2c576000848401525b50505050565b60006002820490506001821680610d4a57607f821691505b60208210811415610d5e57610d5d610d95565b5b50919050565b610d6d82610e07565b810181811067ffffffffffffffff82111715610d8c57610d8b610dc4565b5b80604052505050565b7f4e487b7100000000000000000000000000000000000000000000000000000000600052602260045260246000fd5b7f4e487b7100000000000000000000000000000000000000000000000000000000600052604160045260246000fd5b600080fd5b600080fd5b600080fd5b600080fd5b6000601f19601f8301169050919050565b610e2181610cdc565b8114610e2c57600080fd5b50565b610e3881610ce6565b8114610e4357600080fd5b5056fea264697066735822122032a9e941e73376192f5fdd9612c7c7d07a1b7daa89399fe56d15716c7fd724bf64736f6c63430008070033",
					"opcodes": "PUSH1 0x80 PUSH1 0x40 MSTORE CALLVALUE DUP1 ISZERO PUSH2 0x10 JUMPI PUSH1 0x0 DUP1 REVERT JUMPDEST POP PUSH2 0xE7C DUP1 PUSH2 0x20 PUSH1 0x0 CODECOPY PUSH1 0x0 RETURN INVALID PUSH1 0x80 PUSH1 0x40 MSTORE CALLVALUE DUP1 ISZERO PUSH2 0x10 JUMPI PUSH1 0x0 DUP1 REVERT JUMPDEST POP PUSH1 0x4 CALLDATASIZE LT PUSH2 0x41 JUMPI PUSH1 0x0 CALLDATALOAD PUSH1 0xE0 SHR DUP1 PUSH4 0x30EE52A9 EQ PUSH2 0x46 JUMPI DUP1 PUSH4 0x462E1EED EQ PUSH2 0x81 JUMPI DUP1 PUSH4 0x720FA527 EQ PUSH2 0xB4 JUMPI JUMPDEST PUSH1 0x0 DUP1 REVERT JUMPDEST PUSH2 0x60 PUSH1 0x4 DUP1 CALLDATASIZE SUB DUP2 ADD SWAP1 PUSH2 0x5B SWAP2 SWAP1 PUSH2 0x979 JUMP JUMPDEST PUSH2 0xD0 JUMP JUMPDEST PUSH1 0x40 MLOAD PUSH2 0x78 SWAP13 SWAP12 SWAP11 SWAP10 SWAP9 SWAP8 SWAP7 SWAP6 SWAP5 SWAP4 SWAP3 SWAP2 SWAP1 PUSH2 0xB00 JUMP JUMPDEST PUSH1 0x40 MLOAD DUP1 SWAP2 SUB SWAP1 RETURN JUMPDEST PUSH2 0x9B PUSH1 0x4 DUP1 CALLDATASIZE SUB DUP2 ADD SWAP1 PUSH2 0x96 SWAP2 SWAP1 PUSH2 0x979 JUMP JUMPDEST PUSH2 0x612 JUMP JUMPDEST PUSH1 0x40 MLOAD PUSH2 0xAB SWAP5 SWAP4 SWAP3 SWAP2 SWAP1 PUSH2 0xBF9 JUMP JUMPDEST PUSH1 0x40 MLOAD DUP1 SWAP2 SUB SWAP1 RETURN JUMPDEST PUSH2 0xCE PUSH1 0x4 DUP1 CALLDATASIZE SUB DUP2 ADD SWAP1 PUSH2 0xC9 SWAP2 SWAP1 PUSH2 0x9A6 JUMP JUMPDEST PUSH2 0x7DA JUMP JUMPDEST STOP JUMPDEST PUSH1 0x1 PUSH1 0x20 MSTORE DUP1 PUSH1 0x0 MSTORE PUSH1 0x40 PUSH1 0x0 KECCAK256 PUSH1 0x0 SWAP2 POP SWAP1 POP DUP1 PUSH1 0x0 ADD DUP1 SLOAD PUSH2 0xF3 SWAP1 PUSH2 0xD32 JUMP JUMPDEST DUP1 PUSH1 0x1F ADD PUSH1 0x20 DUP1 SWAP2 DIV MUL PUSH1 0x20 ADD PUSH1 0x40 MLOAD SWAP1 DUP2 ADD PUSH1 0x40 MSTORE DUP1 SWAP3 SWAP2 SWAP1 DUP2 DUP2 MSTORE PUSH1 0x20 ADD DUP3 DUP1 SLOAD PUSH2 0x11F SWAP1 PUSH2 0xD32 JUMP JUMPDEST DUP1 ISZERO PUSH2 0x16C JUMPI DUP1 PUSH1 0x1F LT PUSH2 0x141 JUMPI PUSH2 0x100 DUP1 DUP4 SLOAD DIV MUL DUP4 MSTORE SWAP2 PUSH1 0x20 ADD SWAP2 PUSH2 0x16C JUMP JUMPDEST DUP3 ADD SWAP2 SWAP1 PUSH1 0x0 MSTORE PUSH1 0x20 PUSH1 0x0 KECCAK256 SWAP1 JUMPDEST DUP2 SLOAD DUP2 MSTORE SWAP1 PUSH1 0x1 ADD SWAP1 PUSH1 0x20 ADD DUP1 DUP4 GT PUSH2 0x14F JUMPI DUP3 SWAP1 SUB PUSH1 0x1F AND DUP3 ADD SWAP2 JUMPDEST POP POP POP POP POP SWAP1 DUP1 PUSH1 0x1 ADD PUSH1 0x0 SWAP1 SLOAD SWAP1 PUSH2 0x100 EXP SWAP1 DIV PUSH1 0xFF AND SWAP1 DUP1 PUSH1 0x2 ADD SLOAD SWAP1 DUP1 PUSH1 0x3 ADD DUP1 SLOAD PUSH2 0x19A SWAP1 PUSH2 0xD32 JUMP JUMPDEST DUP1 PUSH1 0x1F ADD PUSH1 0x20 DUP1 SWAP2 DIV MUL PUSH1 0x20 ADD PUSH1 0x40 MLOAD SWAP1 DUP2 ADD PUSH1 0x40 MSTORE DUP1 SWAP3 SWAP2 SWAP1 DUP2 DUP2 MSTORE PUSH1 0x20 ADD DUP3 DUP1 SLOAD PUSH2 0x1C6 SWAP1 PUSH2 0xD32 JUMP JUMPDEST DUP1 ISZERO PUSH2 0x213 JUMPI DUP1 PUSH1 0x1F LT PUSH2 0x1E8 JUMPI PUSH2 0x100 DUP1 DUP4 SLOAD DIV MUL DUP4 MSTORE SWAP2 PUSH1 0x20 ADD SWAP2 PUSH2 0x213 JUMP JUMPDEST DUP3 ADD SWAP2 SWAP1 PUSH1 0x0 MSTORE PUSH1 0x20 PUSH1 0x0 KECCAK256 SWAP1 JUMPDEST DUP2 SLOAD DUP2 MSTORE SWAP1 PUSH1 0x1 ADD SWAP1 PUSH1 0x20 ADD DUP1 DUP4 GT PUSH2 0x1F6 JUMPI DUP3 SWAP1 SUB PUSH1 0x1F AND DUP3 ADD SWAP2 JUMPDEST POP POP POP POP POP SWAP1 DUP1 PUSH1 0x4 ADD DUP1 SLOAD PUSH2 0x228 SWAP1 PUSH2 0xD32 JUMP JUMPDEST DUP1 PUSH1 0x1F ADD PUSH1 0x20 DUP1 SWAP2 DIV MUL PUSH1 0x20 ADD PUSH1 0x40 MLOAD SWAP1 DUP2 ADD PUSH1 0x40 MSTORE DUP1 SWAP3 SWAP2 SWAP1 DUP2 DUP2 MSTORE PUSH1 0x20 ADD DUP3 DUP1 SLOAD PUSH2 0x254 SWAP1 PUSH2 0xD32 JUMP JUMPDEST DUP1 ISZERO PUSH2 0x2A1 JUMPI DUP1 PUSH1 0x1F LT PUSH2 0x276 JUMPI PUSH2 0x100 DUP1 DUP4 SLOAD DIV MUL DUP4 MSTORE SWAP2 PUSH1 0x20 ADD SWAP2 PUSH2 0x2A1 JUMP JUMPDEST DUP3 ADD SWAP2 SWAP1 PUSH1 0x0 MSTORE PUSH1 0x20 PUSH1 0x0 KECCAK256 SWAP1 JUMPDEST DUP2 SLOAD DUP2 MSTORE SWAP1 PUSH1 0x1 ADD SWAP1 PUSH1 0x20 ADD DUP1 DUP4 GT PUSH2 0x284 JUMPI DUP3 SWAP1 SUB PUSH1 0x1F AND DUP3 ADD SWAP2 JUMPDEST POP POP POP POP POP SWAP1 DUP1 PUSH1 0x5 ADD DUP1 SLOAD PUSH2 0x2B6 SWAP1 PUSH2 0xD32 JUMP JUMPDEST DUP1 PUSH1 0x1F ADD PUSH1 0x20 DUP1 SWAP2 DIV MUL PUSH1 0x20 ADD PUSH1 0x40 MLOAD SWAP1 DUP2 ADD PUSH1 0x40 MSTORE DUP1 SWAP3 SWAP2 SWAP1 DUP2 DUP2 MSTORE PUSH1 0x20 ADD DUP3 DUP1 SLOAD PUSH2 0x2E2 SWAP1 PUSH2 0xD32 JUMP JUMPDEST DUP1 ISZERO PUSH2 0x32F JUMPI DUP1 PUSH1 0x1F LT PUSH2 0x304 JUMPI PUSH2 0x100 DUP1 DUP4 SLOAD DIV MUL DUP4 MSTORE SWAP2 PUSH1 0x20 ADD SWAP2 PUSH2 0x32F JUMP JUMPDEST DUP3 ADD SWAP2 SWAP1 PUSH1 0x0 MSTORE PUSH1 0x20 PUSH1 0x0 KECCAK256 SWAP1 JUMPDEST DUP2 SLOAD DUP2 MSTORE SWAP1 PUSH1 0x1 ADD SWAP1 PUSH1 0x20 ADD DUP1 DUP4 GT PUSH2 0x312 JUMPI DUP3 SWAP1 SUB PUSH1 0x1F AND DUP3 ADD SWAP2 JUMPDEST POP POP POP POP POP SWAP1 DUP1 PUSH1 0x6 ADD DUP1 SLOAD PUSH2 0x344 SWAP1 PUSH2 0xD32 JUMP JUMPDEST DUP1 PUSH1 0x1F ADD PUSH1 0x20 DUP1 SWAP2 DIV MUL PUSH1 0x20 ADD PUSH1 0x40 MLOAD SWAP1 DUP2 ADD PUSH1 0x40 MSTORE DUP1 SWAP3 SWAP2 SWAP1 DUP2 DUP2 MSTORE PUSH1 0x20 ADD DUP3 DUP1 SLOAD PUSH2 0x370 SWAP1 PUSH2 0xD32 JUMP JUMPDEST DUP1 ISZERO PUSH2 0x3BD JUMPI DUP1 PUSH1 0x1F LT PUSH2 0x392 JUMPI PUSH2 0x100 DUP1 DUP4 SLOAD DIV MUL DUP4 MSTORE SWAP2 PUSH1 0x20 ADD SWAP2 PUSH2 0x3BD JUMP JUMPDEST DUP3 ADD SWAP2 SWAP1 PUSH1 0x0 MSTORE PUSH1 0x20 PUSH1 0x0 KECCAK256 SWAP1 JUMPDEST DUP2 SLOAD DUP2 MSTORE SWAP1 PUSH1 0x1 ADD SWAP1 PUSH1 0x20 ADD DUP1 DUP4 GT PUSH2 0x3A0 JUMPI DUP3 SWAP1 SUB PUSH1 0x1F AND DUP3 ADD SWAP2 JUMPDEST POP POP POP POP POP SWAP1 DUP1 PUSH1 0x7 ADD DUP1 SLOAD PUSH2 0x3D2 SWAP1 PUSH2 0xD32 JUMP JUMPDEST DUP1 PUSH1 0x1F ADD PUSH1 0x20 DUP1 SWAP2 DIV MUL PUSH1 0x20 ADD PUSH1 0x40 MLOAD SWAP1 DUP2 ADD PUSH1 0x40 MSTORE DUP1 SWAP3 SWAP2 SWAP1 DUP2 DUP2 MSTORE PUSH1 0x20 ADD DUP3 DUP1 SLOAD PUSH2 0x3FE SWAP1 PUSH2 0xD32 JUMP JUMPDEST DUP1 ISZERO PUSH2 0x44B JUMPI DUP1 PUSH1 0x1F LT PUSH2 0x420 JUMPI PUSH2 0x100 DUP1 DUP4 SLOAD DIV MUL DUP4 MSTORE SWAP2 PUSH1 0x20 ADD SWAP2 PUSH2 0x44B JUMP JUMPDEST DUP3 ADD SWAP2 SWAP1 PUSH1 0x0 MSTORE PUSH1 0x20 PUSH1 0x0 KECCAK256 SWAP1 JUMPDEST DUP2 SLOAD DUP2 MSTORE SWAP1 PUSH1 0x1 ADD SWAP1 PUSH1 0x20 ADD DUP1 DUP4 GT PUSH2 0x42E JUMPI DUP3 SWAP1 SUB PUSH1 0x1F AND DUP3 ADD SWAP2 JUMPDEST POP POP POP POP POP SWAP1 DUP1 PUSH1 0x8 ADD DUP1 SLOAD PUSH2 0x460 SWAP1 PUSH2 0xD32 JUMP JUMPDEST DUP1 PUSH1 0x1F ADD PUSH1 0x20 DUP1 SWAP2 DIV MUL PUSH1 0x20 ADD PUSH1 0x40 MLOAD SWAP1 DUP2 ADD PUSH1 0x40 MSTORE DUP1 SWAP3 SWAP2 SWAP1 DUP2 DUP2 MSTORE PUSH1 0x20 ADD DUP3 DUP1 SLOAD PUSH2 0x48C SWAP1 PUSH2 0xD32 JUMP JUMPDEST DUP1 ISZERO PUSH2 0x4D9 JUMPI DUP1 PUSH1 0x1F LT PUSH2 0x4AE JUMPI PUSH2 0x100 DUP1 DUP4 SLOAD DIV MUL DUP4 MSTORE SWAP2 PUSH1 0x20 ADD SWAP2 PUSH2 0x4D9 JUMP JUMPDEST DUP3 ADD SWAP2 SWAP1 PUSH1 0x0 MSTORE PUSH1 0x20 PUSH1 0x0 KECCAK256 SWAP1 JUMPDEST DUP2 SLOAD DUP2 MSTORE SWAP1 PUSH1 0x1 ADD SWAP1 PUSH1 0x20 ADD DUP1 DUP4 GT PUSH2 0x4BC JUMPI DUP3 SWAP1 SUB PUSH1 0x1F AND DUP3 ADD SWAP2 JUMPDEST POP POP POP POP POP SWAP1 DUP1 PUSH1 0x9 ADD DUP1 SLOAD PUSH2 0x4EE SWAP1 PUSH2 0xD32 JUMP JUMPDEST DUP1 PUSH1 0x1F ADD PUSH1 0x20 DUP1 SWAP2 DIV MUL PUSH1 0x20 ADD PUSH1 0x40 MLOAD SWAP1 DUP2 ADD PUSH1 0x40 MSTORE DUP1 SWAP3 SWAP2 SWAP1 DUP2 DUP2 MSTORE PUSH1 0x20 ADD DUP3 DUP1 SLOAD PUSH2 0x51A SWAP1 PUSH2 0xD32 JUMP JUMPDEST DUP1 ISZERO PUSH2 0x567 JUMPI DUP1 PUSH1 0x1F LT PUSH2 0x53C JUMPI PUSH2 0x100 DUP1 DUP4 SLOAD DIV MUL DUP4 MSTORE SWAP2 PUSH1 0x20 ADD SWAP2 PUSH2 0x567 JUMP JUMPDEST DUP3 ADD SWAP2 SWAP1 PUSH1 0x0 MSTORE PUSH1 0x20 PUSH1 0x0 KECCAK256 SWAP1 JUMPDEST DUP2 SLOAD DUP2 MSTORE SWAP1 PUSH1 0x1 ADD SWAP1 PUSH1 0x20 ADD DUP1 DUP4 GT PUSH2 0x54A JUMPI DUP3 SWAP1 SUB PUSH1 0x1F AND DUP3 ADD SWAP2 JUMPDEST POP POP POP POP POP SWAP1 DUP1 PUSH1 0xA ADD PUSH1 0x0 SWAP1 SLOAD SWAP1 PUSH2 0x100 EXP SWAP1 DIV PUSH1 0xFF AND SWAP1 DUP1 PUSH1 0xB ADD DUP1 SLOAD PUSH2 0x58F SWAP1 PUSH2 0xD32 JUMP JUMPDEST DUP1 PUSH1 0x1F ADD PUSH1 0x20 DUP1 SWAP2 DIV MUL PUSH1 0x20 ADD PUSH1 0x40 MLOAD SWAP1 DUP2 ADD PUSH1 0x40 MSTORE DUP1 SWAP3 SWAP2 SWAP1 DUP2 DUP2 MSTORE PUSH1 0x20 ADD DUP3 DUP1 SLOAD PUSH2 0x5BB SWAP1 PUSH2 0xD32 JUMP JUMPDEST DUP1 ISZERO PUSH2 0x608 JUMPI DUP1 PUSH1 0x1F LT PUSH2 0x5DD JUMPI PUSH2 0x100 DUP1 DUP4 SLOAD DIV MUL DUP4 MSTORE SWAP2 PUSH1 0x20 ADD SWAP2 PUSH2 0x608 JUMP JUMPDEST DUP3 ADD SWAP2 SWAP1 PUSH1 0x0 MSTORE PUSH1 0x20 PUSH1 0x0 KECCAK256 SWAP1 JUMPDEST DUP2 SLOAD DUP2 MSTORE SWAP1 PUSH1 0x1 ADD SWAP1 PUSH1 0x20 ADD DUP1 DUP4 GT PUSH2 0x5EB JUMPI DUP3 SWAP1 SUB PUSH1 0x1F AND DUP3 ADD SWAP2 JUMPDEST POP POP POP POP POP SWAP1 POP DUP13 JUMP JUMPDEST PUSH1 0x0 PUSH1 0x20 MSTORE DUP1 PUSH1 0x0 MSTORE PUSH1 0x40 PUSH1 0x0 KECCAK256 PUSH1 0x0 SWAP2 POP SWAP1 POP DUP1 PUSH1 0x0 ADD DUP1 SLOAD PUSH2 0x635 SWAP1 PUSH2 0xD32 JUMP JUMPDEST DUP1 PUSH1 0x1F ADD PUSH1 0x20 DUP1 SWAP2 DIV MUL PUSH1 0x20 ADD PUSH1 0x40 MLOAD SWAP1 DUP2 ADD PUSH1 0x40 MSTORE DUP1 SWAP3 SWAP2 SWAP1 DUP2 DUP2 MSTORE PUSH1 0x20 ADD DUP3 DUP1 SLOAD PUSH2 0x661 SWAP1 PUSH2 0xD32 JUMP JUMPDEST DUP1 ISZERO PUSH2 0x6AE JUMPI DUP1 PUSH1 0x1F LT PUSH2 0x683 JUMPI PUSH2 0x100 DUP1 DUP4 SLOAD DIV MUL DUP4 MSTORE SWAP2 PUSH1 0x20 ADD SWAP2 PUSH2 0x6AE JUMP JUMPDEST DUP3 ADD SWAP2 SWAP1 PUSH1 0x0 MSTORE PUSH1 0x20 PUSH1 0x0 KECCAK256 SWAP1 JUMPDEST DUP2 SLOAD DUP2 MSTORE SWAP1 PUSH1 0x1 ADD SWAP1 PUSH1 0x20 ADD DUP1 DUP4 GT PUSH2 0x691 JUMPI DUP3 SWAP1 SUB PUSH1 0x1F AND DUP3 ADD SWAP2 JUMPDEST POP POP POP POP POP SWAP1 DUP1 PUSH1 0x1 ADD DUP1 SLOAD PUSH2 0x6C3 SWAP1 PUSH2 0xD32 JUMP JUMPDEST DUP1 PUSH1 0x1F ADD PUSH1 0x20 DUP1 SWAP2 DIV MUL PUSH1 0x20 ADD PUSH1 0x40 MLOAD SWAP1 DUP2 ADD PUSH1 0x40 MSTORE DUP1 SWAP3 SWAP2 SWAP1 DUP2 DUP2 MSTORE PUSH1 0x20 ADD DUP3 DUP1 SLOAD PUSH2 0x6EF SWAP1 PUSH2 0xD32 JUMP JUMPDEST DUP1 ISZERO PUSH2 0x73C JUMPI DUP1 PUSH1 0x1F LT PUSH2 0x711 JUMPI PUSH2 0x100 DUP1 DUP4 SLOAD DIV MUL DUP4 MSTORE SWAP2 PUSH1 0x20 ADD SWAP2 PUSH2 0x73C JUMP JUMPDEST DUP3 ADD SWAP2 SWAP1 PUSH1 0x0 MSTORE PUSH1 0x20 PUSH1 0x0 KECCAK256 SWAP1 JUMPDEST DUP2 SLOAD DUP2 MSTORE SWAP1 PUSH1 0x1 ADD SWAP1 PUSH1 0x20 ADD DUP1 DUP4 GT PUSH2 0x71F JUMPI DUP3 SWAP1 SUB PUSH1 0x1F AND DUP3 ADD SWAP2 JUMPDEST POP POP POP POP POP SWAP1 DUP1 PUSH1 0x2 ADD DUP1 SLOAD PUSH2 0x751 SWAP1 PUSH2 0xD32 JUMP JUMPDEST DUP1 PUSH1 0x1F ADD PUSH1 0x20 DUP1 SWAP2 DIV MUL PUSH1 0x20 ADD PUSH1 0x40 MLOAD SWAP1 DUP2 ADD PUSH1 0x40 MSTORE DUP1 SWAP3 SWAP2 SWAP1 DUP2 DUP2 MSTORE PUSH1 0x20 ADD DUP3 DUP1 SLOAD PUSH2 0x77D SWAP1 PUSH2 0xD32 JUMP JUMPDEST DUP1 ISZERO PUSH2 0x7CA JUMPI DUP1 PUSH1 0x1F LT PUSH2 0x79F JUMPI PUSH2 0x100 DUP1 DUP4 SLOAD DIV MUL DUP4 MSTORE SWAP2 PUSH1 0x20 ADD SWAP2 PUSH2 0x7CA JUMP JUMPDEST DUP3 ADD SWAP2 SWAP1 PUSH1 0x0 MSTORE PUSH1 0x20 PUSH1 0x0 KECCAK256 SWAP1 JUMPDEST DUP2 SLOAD DUP2 MSTORE SWAP1 PUSH1 0x1 ADD SWAP1 PUSH1 0x20 ADD DUP1 DUP4 GT PUSH2 0x7AD JUMPI DUP3 SWAP1 SUB PUSH1 0x1F AND DUP3 ADD SWAP2 JUMPDEST POP POP POP POP POP SWAP1 DUP1 PUSH1 0x3 ADD SLOAD SWAP1 POP DUP5 JUMP JUMPDEST PUSH1 0x0 DUP5 PUSH1 0x40 MLOAD PUSH1 0x20 ADD PUSH2 0x7ED SWAP2 SWAP1 PUSH2 0xAE9 JUMP JUMPDEST PUSH1 0x40 MLOAD PUSH1 0x20 DUP2 DUP4 SUB SUB DUP2 MSTORE SWAP1 PUSH1 0x40 MSTORE DUP1 MLOAD SWAP1 PUSH1 0x20 ADD KECCAK256 SWAP1 POP PUSH1 0x0 DUP1 PUSH1 0x0 DUP4 DUP2 MSTORE PUSH1 0x20 ADD SWAP1 DUP2 MSTORE PUSH1 0x20 ADD PUSH1 0x0 KECCAK256 SWAP1 POP DUP6 DUP2 PUSH1 0x0 ADD SWAP1 DUP1 MLOAD SWAP1 PUSH1 0x20 ADD SWAP1 PUSH2 0x833 SWAP3 SWAP2 SWAP1 PUSH2 0x83C JUMP JUMPDEST POP POP POP POP POP POP POP JUMP JUMPDEST DUP3 DUP1 SLOAD PUSH2 0x848 SWAP1 PUSH2 0xD32 JUMP JUMPDEST SWAP1 PUSH1 0x0 MSTORE PUSH1 0x20 PUSH1 0x0 KECCAK256 SWAP1 PUSH1 0x1F ADD PUSH1 0x20 SWAP1 DIV DUP2 ADD SWAP3 DUP3 PUSH2 0x86A JUMPI PUSH1 0x0 DUP6 SSTORE PUSH2 0x8B1 JUMP JUMPDEST DUP3 PUSH1 0x1F LT PUSH2 0x883 JUMPI DUP1 MLOAD PUSH1 0xFF NOT AND DUP4 DUP1 ADD OR DUP6 SSTORE PUSH2 0x8B1 JUMP JUMPDEST DUP3 DUP1 ADD PUSH1 0x1 ADD DUP6 SSTORE DUP3 ISZERO PUSH2 0x8B1 JUMPI SWAP2 DUP3 ADD JUMPDEST DUP3 DUP2 GT ISZERO PUSH2 0x8B0 JUMPI DUP3 MLOAD DUP3 SSTORE SWAP2 PUSH1 0x20 ADD SWAP2 SWAP1 PUSH1 0x1 ADD SWAP1 PUSH2 0x895 JUMP JUMPDEST JUMPDEST POP SWAP1 POP PUSH2 0x8BE SWAP2 SWAP1 PUSH2 0x8C2 JUMP JUMPDEST POP SWAP1 JUMP JUMPDEST JUMPDEST DUP1 DUP3 GT ISZERO PUSH2 0x8DB JUMPI PUSH1 0x0 DUP2 PUSH1 0x0 SWAP1 SSTORE POP PUSH1 0x1 ADD PUSH2 0x8C3 JUMP JUMPDEST POP SWAP1 JUMP JUMPDEST PUSH1 0x0 PUSH2 0x8F2 PUSH2 0x8ED DUP5 PUSH2 0xC78 JUMP JUMPDEST PUSH2 0xC53 JUMP JUMPDEST SWAP1 POP DUP3 DUP2 MSTORE PUSH1 0x20 DUP2 ADD DUP5 DUP5 DUP5 ADD GT ISZERO PUSH2 0x90E JUMPI PUSH2 0x90D PUSH2 0xDF8 JUMP JUMPDEST JUMPDEST PUSH2 0x919 DUP5 DUP3 DUP6 PUSH2 0xCF0 JUMP JUMPDEST POP SWAP4 SWAP3 POP POP POP JUMP JUMPDEST PUSH1 0x0 DUP2 CALLDATALOAD SWAP1 POP PUSH2 0x930 DUP2 PUSH2 0xE18 JUMP JUMPDEST SWAP3 SWAP2 POP POP JUMP JUMPDEST PUSH1 0x0 DUP3 PUSH1 0x1F DUP4 ADD SLT PUSH2 0x94B JUMPI PUSH2 0x94A PUSH2 0xDF3 JUMP JUMPDEST JUMPDEST DUP2 CALLDATALOAD PUSH2 0x95B DUP5 DUP3 PUSH1 0x20 DUP7 ADD PUSH2 0x8DF JUMP JUMPDEST SWAP2 POP POP SWAP3 SWAP2 POP POP JUMP JUMPDEST PUSH1 0x0 DUP2 CALLDATALOAD SWAP1 POP PUSH2 0x973 DUP2 PUSH2 0xE2F JUMP JUMPDEST SWAP3 SWAP2 POP POP JUMP JUMPDEST PUSH1 0x0 PUSH1 0x20 DUP3 DUP5 SUB SLT ISZERO PUSH2 0x98F JUMPI PUSH2 0x98E PUSH2 0xE02 JUMP JUMPDEST JUMPDEST PUSH1 0x0 PUSH2 0x99D DUP5 DUP3 DUP6 ADD PUSH2 0x921 JUMP JUMPDEST SWAP2 POP POP SWAP3 SWAP2 POP POP JUMP JUMPDEST PUSH1 0x0 DUP1 PUSH1 0x0 DUP1 PUSH1 0x80 DUP6 DUP8 SUB SLT ISZERO PUSH2 0x9C0 JUMPI PUSH2 0x9BF PUSH2 0xE02 JUMP JUMPDEST JUMPDEST PUSH1 0x0 DUP6 ADD CALLDATALOAD PUSH8 0xFFFFFFFFFFFFFFFF DUP2 GT ISZERO PUSH2 0x9DE JUMPI PUSH2 0x9DD PUSH2 0xDFD JUMP JUMPDEST JUMPDEST PUSH2 0x9EA DUP8 DUP3 DUP9 ADD PUSH2 0x936 JUMP JUMPDEST SWAP5 POP POP PUSH1 0x20 DUP6 ADD CALLDATALOAD PUSH8 0xFFFFFFFFFFFFFFFF DUP2 GT ISZERO PUSH2 0xA0B JUMPI PUSH2 0xA0A PUSH2 0xDFD JUMP JUMPDEST JUMPDEST PUSH2 0xA17 DUP8 DUP3 DUP9 ADD PUSH2 0x936 JUMP JUMPDEST SWAP4 POP POP PUSH1 0x40 DUP6 ADD CALLDATALOAD PUSH8 0xFFFFFFFFFFFFFFFF DUP2 GT ISZERO PUSH2 0xA38 JUMPI PUSH2 0xA37 PUSH2 0xDFD JUMP JUMPDEST JUMPDEST PUSH2 0xA44 DUP8 DUP3 DUP9 ADD PUSH2 0x936 JUMP JUMPDEST SWAP3 POP POP PUSH1 0x60 PUSH2 0xA55 DUP8 DUP3 DUP9 ADD PUSH2 0x964 JUMP JUMPDEST SWAP2 POP POP SWAP3 SWAP6 SWAP2 SWAP5 POP SWAP3 POP JUMP JUMPDEST PUSH2 0xA6A DUP2 PUSH2 0xCD0 JUMP JUMPDEST DUP3 MSTORE POP POP JUMP JUMPDEST PUSH1 0x0 PUSH2 0xA7B DUP3 PUSH2 0xCA9 JUMP JUMPDEST PUSH2 0xA85 DUP2 DUP6 PUSH2 0xCB4 JUMP JUMPDEST SWAP4 POP PUSH2 0xA95 DUP2 DUP6 PUSH1 0x20 DUP7 ADD PUSH2 0xCFF JUMP JUMPDEST PUSH2 0xA9E DUP2 PUSH2 0xE07 JUMP JUMPDEST DUP5 ADD SWAP2 POP POP SWAP3 SWAP2 POP POP JUMP JUMPDEST PUSH1 0x0 PUSH2 0xAB4 DUP3 PUSH2 0xCA9 JUMP JUMPDEST PUSH2 0xABE DUP2 DUP6 PUSH2 0xCC5 JUMP JUMPDEST SWAP4 POP PUSH2 0xACE DUP2 DUP6 PUSH1 0x20 DUP7 ADD PUSH2 0xCFF JUMP JUMPDEST DUP1 DUP5 ADD SWAP2 POP POP SWAP3 SWAP2 POP POP JUMP JUMPDEST PUSH2 0xAE3 DUP2 PUSH2 0xCE6 JUMP JUMPDEST DUP3 MSTORE POP POP JUMP JUMPDEST PUSH1 0x0 PUSH2 0xAF5 DUP3 DUP5 PUSH2 0xAA9 JUMP JUMPDEST SWAP2 POP DUP2 SWAP1 POP SWAP3 SWAP2 POP POP JUMP JUMPDEST PUSH1 0x0 PUSH2 0x180 DUP3 ADD SWAP1 POP DUP2 DUP2 SUB PUSH1 0x0 DUP4 ADD MSTORE PUSH2 0xB1B DUP2 DUP16 PUSH2 0xA70 JUMP JUMPDEST SWAP1 POP PUSH2 0xB2A PUSH1 0x20 DUP4 ADD DUP15 PUSH2 0xA61 JUMP JUMPDEST PUSH2 0xB37 PUSH1 0x40 DUP4 ADD DUP14 PUSH2 0xADA JUMP JUMPDEST DUP2 DUP2 SUB PUSH1 0x60 DUP4 ADD MSTORE PUSH2 0xB49 DUP2 DUP13 PUSH2 0xA70 JUMP JUMPDEST SWAP1 POP DUP2 DUP2 SUB PUSH1 0x80 DUP4 ADD MSTORE PUSH2 0xB5D DUP2 DUP12 PUSH2 0xA70 JUMP JUMPDEST SWAP1 POP DUP2 DUP2 SUB PUSH1 0xA0 DUP4 ADD MSTORE PUSH2 0xB71 DUP2 DUP11 PUSH2 0xA70 JUMP JUMPDEST SWAP1 POP DUP2 DUP2 SUB PUSH1 0xC0 DUP4 ADD MSTORE PUSH2 0xB85 DUP2 DUP10 PUSH2 0xA70 JUMP JUMPDEST SWAP1 POP DUP2 DUP2 SUB PUSH1 0xE0 DUP4 ADD MSTORE PUSH2 0xB99 DUP2 DUP9 PUSH2 0xA70 JUMP JUMPDEST SWAP1 POP DUP2 DUP2 SUB PUSH2 0x100 DUP4 ADD MSTORE PUSH2 0xBAE DUP2 DUP8 PUSH2 0xA70 JUMP JUMPDEST SWAP1 POP DUP2 DUP2 SUB PUSH2 0x120 DUP4 ADD MSTORE PUSH2 0xBC3 DUP2 DUP7 PUSH2 0xA70 JUMP JUMPDEST SWAP1 POP PUSH2 0xBD3 PUSH2 0x140 DUP4 ADD DUP6 PUSH2 0xA61 JUMP JUMPDEST DUP2 DUP2 SUB PUSH2 0x160 DUP4 ADD MSTORE PUSH2 0xBE6 DUP2 DUP5 PUSH2 0xA70 JUMP JUMPDEST SWAP1 POP SWAP14 SWAP13 POP POP POP POP POP POP POP POP POP POP POP POP POP JUMP JUMPDEST PUSH1 0x0 PUSH1 0x80 DUP3 ADD SWAP1 POP DUP2 DUP2 SUB PUSH1 0x0 DUP4 ADD MSTORE PUSH2 0xC13 DUP2 DUP8 PUSH2 0xA70 JUMP JUMPDEST SWAP1 POP DUP2 DUP2 SUB PUSH1 0x20 DUP4 ADD MSTORE PUSH2 0xC27 DUP2 DUP7 PUSH2 0xA70 JUMP JUMPDEST SWAP1 POP DUP2 DUP2 SUB PUSH1 0x40 DUP4 ADD MSTORE PUSH2 0xC3B DUP2 DUP6 PUSH2 0xA70 JUMP JUMPDEST SWAP1 POP PUSH2 0xC4A PUSH1 0x60 DUP4 ADD DUP5 PUSH2 0xADA JUMP JUMPDEST SWAP6 SWAP5 POP POP POP POP POP JUMP JUMPDEST PUSH1 0x0 PUSH2 0xC5D PUSH2 0xC6E JUMP JUMPDEST SWAP1 POP PUSH2 0xC69 DUP3 DUP3 PUSH2 0xD64 JUMP JUMPDEST SWAP2 SWAP1 POP JUMP JUMPDEST PUSH1 0x0 PUSH1 0x40 MLOAD SWAP1 POP SWAP1 JUMP JUMPDEST PUSH1 0x0 PUSH8 0xFFFFFFFFFFFFFFFF DUP3 GT ISZERO PUSH2 0xC93 JUMPI PUSH2 0xC92 PUSH2 0xDC4 JUMP JUMPDEST JUMPDEST PUSH2 0xC9C DUP3 PUSH2 0xE07 JUMP JUMPDEST SWAP1 POP PUSH1 0x20 DUP2 ADD SWAP1 POP SWAP2 SWAP1 POP JUMP JUMPDEST PUSH1 0x0 DUP2 MLOAD SWAP1 POP SWAP2 SWAP1 POP JUMP JUMPDEST PUSH1 0x0 DUP3 DUP3 MSTORE PUSH1 0x20 DUP3 ADD SWAP1 POP SWAP3 SWAP2 POP POP JUMP JUMPDEST PUSH1 0x0 DUP2 SWAP1 POP SWAP3 SWAP2 POP POP JUMP JUMPDEST PUSH1 0x0 DUP2 ISZERO ISZERO SWAP1 POP SWAP2 SWAP1 POP JUMP JUMPDEST PUSH1 0x0 DUP2 SWAP1 POP SWAP2 SWAP1 POP JUMP JUMPDEST PUSH1 0x0 DUP2 SWAP1 POP SWAP2 SWAP1 POP JUMP JUMPDEST DUP3 DUP2 DUP4 CALLDATACOPY PUSH1 0x0 DUP4 DUP4 ADD MSTORE POP POP POP JUMP JUMPDEST PUSH1 0x0 JUMPDEST DUP4 DUP2 LT ISZERO PUSH2 0xD1D JUMPI DUP1 DUP3 ADD MLOAD DUP2 DUP5 ADD MSTORE PUSH1 0x20 DUP2 ADD SWAP1 POP PUSH2 0xD02 JUMP JUMPDEST DUP4 DUP2 GT ISZERO PUSH2 0xD2C JUMPI PUSH1 0x0 DUP5 DUP5 ADD MSTORE JUMPDEST POP POP POP POP JUMP JUMPDEST PUSH1 0x0 PUSH1 0x2 DUP3 DIV SWAP1 POP PUSH1 0x1 DUP3 AND DUP1 PUSH2 0xD4A JUMPI PUSH1 0x7F DUP3 AND SWAP2 POP JUMPDEST PUSH1 0x20 DUP3 LT DUP2 EQ ISZERO PUSH2 0xD5E JUMPI PUSH2 0xD5D PUSH2 0xD95 JUMP JUMPDEST JUMPDEST POP SWAP2 SWAP1 POP JUMP JUMPDEST PUSH2 0xD6D DUP3 PUSH2 0xE07 JUMP JUMPDEST DUP2 ADD DUP2 DUP2 LT PUSH8 0xFFFFFFFFFFFFFFFF DUP3 GT OR ISZERO PUSH2 0xD8C JUMPI PUSH2 0xD8B PUSH2 0xDC4 JUMP JUMPDEST JUMPDEST DUP1 PUSH1 0x40 MSTORE POP POP POP JUMP JUMPDEST PUSH32 0x4E487B7100000000000000000000000000000000000000000000000000000000 PUSH1 0x0 MSTORE PUSH1 0x22 PUSH1 0x4 MSTORE PUSH1 0x24 PUSH1 0x0 REVERT JUMPDEST PUSH32 0x4E487B7100000000000000000000000000000000000000000000000000000000 PUSH1 0x0 MSTORE PUSH1 0x41 PUSH1 0x4 MSTORE PUSH1 0x24 PUSH1 0x0 REVERT JUMPDEST PUSH1 0x0 DUP1 REVERT JUMPDEST PUSH1 0x0 DUP1 REVERT JUMPDEST PUSH1 0x0 DUP1 REVERT JUMPDEST PUSH1 0x0 DUP1 REVERT JUMPDEST PUSH1 0x0 PUSH1 0x1F NOT PUSH1 0x1F DUP4 ADD AND SWAP1 POP SWAP2 SWAP1 POP JUMP JUMPDEST PUSH2 0xE21 DUP2 PUSH2 0xCDC JUMP JUMPDEST DUP2 EQ PUSH2 0xE2C JUMPI PUSH1 0x0 DUP1 REVERT JUMPDEST POP JUMP JUMPDEST PUSH2 0xE38 DUP2 PUSH2 0xCE6 JUMP JUMPDEST DUP2 EQ PUSH2 0xE43 JUMPI PUSH1 0x0 DUP1 REVERT JUMPDEST POP JUMP INVALID LOG2 PUSH5 0x6970667358 0x22 SLT KECCAK256 ORIGIN 0xA9 0xE9 COINBASE 0xE7 CALLER PUSH23 0x192F5FDD9612C7C7D07A1B7DAA89399FE56D15716C7FD7 0x24 0xBF PUSH5 0x736F6C6343 STOP ADDMOD SMOD STOP CALLER "
				},
				"gasEstimates": {
					"creation": {
						"codeDepositCost": "741600",
						"executionCost": "773",
						"totalCost": "742373"
					},
					"external": {
						"add_account(string,string,string,uint256)": "infinite",
						"mappingAccount(bytes32)": "infinite",
						"mappingTransaction(bytes32)": "infinite"
					}
				},
				"methodIdentifiers": {
					"add_account(string,string,string,uint256)": "720fa527",
					"mappingAccount(bytes32)": "462e1eed",
					"mappingTransaction(bytes32)": "30ee52a9"
				}
			},
			"storageLayout": {
				"storage": [
					{
						"astId": 15,
						"contract": "contracts/Halal.sol:Halal",
						"label": "mappingAccount",
						"offset": 0,
						"slot": "0",
						"type": "t_mapping(t_bytes32,t_struct(account_data)10_storage)"
					},
					{
						"astId": 45,
						"contract": "contracts/Halal.sol:Halal",
						"label": "mappingTransaction",
						"offset": 0,
						"slot": "1",
						"type": "t_mapping(t_bytes32,t_struct(transaction)40_storage)"
					}
				],
				"types": {
					"t_bool": {
						"encoding": "inplace",
						"label": "bool",
						"numberOfBytes": "1"
					},
					"t_bytes32": {
						"encoding": "inplace",
						"label": "bytes32",
						"numberOfBytes": "32"
					},
					"t_mapping(t_bytes32,t_struct(account_data)10_storage)": {
						"encoding": "mapping",
						"key": "t_bytes32",
						"label": "mapping(bytes32 => struct Halal.account_data)",
						"numberOfBytes": "32",
						"value": "t_struct(account_data)10_storage"
					},
					"t_mapping(t_bytes32,t_struct(transaction)40_storage)": {
						"encoding": "mapping",
						"key": "t_bytes32",
						"label": "mapping(bytes32 => struct Halal.transaction)",
						"numberOfBytes": "32",
						"value": "t_struct(transaction)40_storage"
					},
					"t_string_storage": {
						"encoding": "bytes",
						"label": "string",
						"numberOfBytes": "32"
					},
					"t_struct(account_data)10_storage": {
						"encoding": "inplace",
						"label": "struct Halal.account_data",
						"members": [
							{
								"astId": 3,
								"contract": "contracts/Halal.sol:Halal",
								"label": "account_id",
								"offset": 0,
								"slot": "0",
								"type": "t_string_storage"
							},
							{
								"astId": 5,
								"contract": "contracts/Halal.sol:Halal",
								"label": "name",
								"offset": 0,
								"slot": "1",
								"type": "t_string_storage"
							},
							{
								"astId": 7,
								"contract": "contracts/Halal.sol:Halal",
								"label": "role",
								"offset": 0,
								"slot": "2",
								"type": "t_string_storage"
							},
							{
								"astId": 9,
								"contract": "contracts/Halal.sol:Halal",
								"label": "created_at",
								"offset": 0,
								"slot": "3",
								"type": "t_uint256"
							}
						],
						"numberOfBytes": "128"
					},
					"t_struct(transaction)40_storage": {
						"encoding": "inplace",
						"label": "struct Halal.transaction",
						"members": [
							{
								"astId": 17,
								"contract": "contracts/Halal.sol:Halal",
								"label": "umkm_id",
								"offset": 0,
								"slot": "0",
								"type": "t_string_storage"
							},
							{
								"astId": 19,
								"contract": "contracts/Halal.sol:Halal",
								"label": "reg_status",
								"offset": 0,
								"slot": "1",
								"type": "t_bool"
							},
							{
								"astId": 21,
								"contract": "contracts/Halal.sol:Halal",
								"label": "reg_date",
								"offset": 0,
								"slot": "2",
								"type": "t_uint256"
							},
							{
								"astId": 23,
								"contract": "contracts/Halal.sol:Halal",
								"label": "bpjph_desc",
								"offset": 0,
								"slot": "3",
								"type": "t_string_storage"
							},
							{
								"astId": 25,
								"contract": "contracts/Halal.sol:Halal",
								"label": "bpjph_result",
								"offset": 0,
								"slot": "4",
								"type": "t_string_storage"
							},
							{
								"astId": 27,
								"contract": "contracts/Halal.sol:Halal",
								"label": "lph_appintment",
								"offset": 0,
								"slot": "5",
								"type": "t_string_storage"
							},
							{
								"astId": 29,
								"contract": "contracts/Halal.sol:Halal",
								"label": "bpjph_id",
								"offset": 0,
								"slot": "6",
								"type": "t_string_storage"
							},
							{
								"astId": 31,
								"contract": "contracts/Halal.sol:Halal",
								"label": "lph_desc",
								"offset": 0,
								"slot": "7",
								"type": "t_string_storage"
							},
							{
								"astId": 33,
								"contract": "contracts/Halal.sol:Halal",
								"label": "review_status",
								"offset": 0,
								"slot": "8",
								"type": "t_string_storage"
							},
							{
								"astId": 35,
								"contract": "contracts/Halal.sol:Halal",
								"label": "desicion_mui",
								"offset": 0,
								"slot": "9",
								"type": "t_string_storage"
							},
							{
								"astId": 37,
								"contract": "contracts/Halal.sol:Halal",
								"label": "mui_approved",
								"offset": 0,
								"slot": "10",
								"type": "t_bool"
							},
							{
								"astId": 39,
								"contract": "contracts/Halal.sol:Halal",
								"label": "cert_data",
								"offset": 0,
								"slot": "11",
								"type": "t_string_storage"
							}
						],
						"numberOfBytes": "384"
					},
					"t_uint256": {
						"encoding": "inplace",
						"label": "uint256",
						"numberOfBytes": "32"
					}
				}
			},
			"userdoc": {
				"kind": "user",
				"methods": {},
				"version": 1
			}
		}
	}
}