{
	"contracts/Halal.sol": {
		"Halal": {
			"abi": [
				{
					"anonymous": false,
					"inputs": [
						{
							"indexed": false,
							"internalType": "string",
							"name": "status",
							"type": "string"
						},
						{
							"indexed": false,
							"internalType": "bytes32",
							"name": "message",
							"type": "bytes32"
						}
					],
					"name": "success",
					"type": "event"
				},
				{
					"inputs": [
						{
							"internalType": "string",
							"name": "account_id",
							"type": "string"
						},
						{
							"internalType": "string",
							"name": "name",
							"type": "string"
						},
						{
							"internalType": "string",
							"name": "role",
							"type": "string"
						}
					],
					"name": "add_account",
					"outputs": [
						{
							"internalType": "bytes32",
							"name": "",
							"type": "bytes32"
						}
					],
					"stateMutability": "nonpayable",
					"type": "function"
				},
				{
					"inputs": [
						{
							"internalType": "string",
							"name": "account_id",
							"type": "string"
						}
					],
					"name": "get_account",
					"outputs": [
						{
							"components": [
								{
									"internalType": "string",
									"name": "account_id",
									"type": "string"
								},
								{
									"internalType": "string",
									"name": "name",
									"type": "string"
								},
								{
									"internalType": "string",
									"name": "role",
									"type": "string"
								},
								{
									"internalType": "uint256",
									"name": "created_at",
									"type": "uint256"
								}
							],
							"internalType": "struct Halal.accountData",
							"name": "",
							"type": "tuple"
						}
					],
					"stateMutability": "view",
					"type": "function"
				},
				{
					"inputs": [
						{
							"internalType": "bytes32",
							"name": "",
							"type": "bytes32"
						}
					],
					"name": "mappingAccount",
					"outputs": [
						{
							"internalType": "string",
							"name": "account_id",
							"type": "string"
						},
						{
							"internalType": "string",
							"name": "name",
							"type": "string"
						},
						{
							"internalType": "string",
							"name": "role",
							"type": "string"
						},
						{
							"internalType": "uint256",
							"name": "created_at",
							"type": "uint256"
						}
					],
					"stateMutability": "view",
					"type": "function"
				},
				{
					"inputs": [
						{
							"internalType": "bytes32",
							"name": "",
							"type": "bytes32"
						}
					],
					"name": "mappingTransaction",
					"outputs": [
						{
							"internalType": "string",
							"name": "umkm_id",
							"type": "string"
						},
						{
							"internalType": "bool",
							"name": "reg_status",
							"type": "bool"
						},
						{
							"internalType": "uint256",
							"name": "reg_date",
							"type": "uint256"
						},
						{
							"internalType": "string",
							"name": "bpjph_desc",
							"type": "string"
						},
						{
							"internalType": "string",
							"name": "bpjph_result",
							"type": "string"
						},
						{
							"internalType": "string",
							"name": "lph_appintment",
							"type": "string"
						},
						{
							"internalType": "string",
							"name": "bpjph_id",
							"type": "string"
						},
						{
							"internalType": "string",
							"name": "lph_desc",
							"type": "string"
						},
						{
							"internalType": "string",
							"name": "review_status",
							"type": "string"
						},
						{
							"internalType": "string",
							"name": "desicion_mui",
							"type": "string"
						},
						{
							"internalType": "bool",
							"name": "mui_approved",
							"type": "bool"
						},
						{
							"internalType": "string",
							"name": "cert_data",
							"type": "string"
						}
					],
					"stateMutability": "view",
					"type": "function"
				}
			],
			"devdoc": {
				"kind": "dev",
				"methods": {},
				"version": 1
			},
			"evm": {
				"assembly": "    /* \"contracts/Halal.sol\":62:1679  contract Halal{... */\n  mstore(0x40, 0x80)\n  callvalue\n  dup1\n  iszero\n  tag_1\n  jumpi\n  0x00\n  dup1\n  revert\ntag_1:\n  pop\n  dataSize(sub_0)\n  dup1\n  dataOffset(sub_0)\n  0x00\n  codecopy\n  0x00\n  return\nstop\n\nsub_0: assembly {\n        /* \"contracts/Halal.sol\":62:1679  contract Halal{... */\n      mstore(0x40, 0x80)\n      callvalue\n      dup1\n      iszero\n      tag_1\n      jumpi\n      0x00\n      dup1\n      revert\n    tag_1:\n      pop\n      jumpi(tag_2, lt(calldatasize, 0x04))\n      shr(0xe0, calldataload(0x00))\n      dup1\n      0x174ba7ff\n      eq\n      tag_3\n      jumpi\n      dup1\n      0x30ee52a9\n      eq\n      tag_4\n      jumpi\n      dup1\n      0x462e1eed\n      eq\n      tag_5\n      jumpi\n      dup1\n      0xb24c908a\n      eq\n      tag_6\n      jumpi\n    tag_2:\n      0x00\n      dup1\n      revert\n        /* \"contracts/Halal.sol\":1486:1676  function get_account(string memory account_id) public view returns(accountData memory){... */\n    tag_3:\n      tag_7\n      0x04\n      dup1\n      calldatasize\n      sub\n      dup2\n      add\n      swap1\n      tag_8\n      swap2\n      swap1\n      tag_9\n      jump\t// in\n    tag_8:\n      tag_10\n      jump\t// in\n    tag_7:\n      mload(0x40)\n      tag_11\n      swap2\n      swap1\n      tag_12\n      jump\t// in\n    tag_11:\n      mload(0x40)\n      dup1\n      swap2\n      sub\n      swap1\n      return\n        /* \"contracts/Halal.sol\":675:733  mapping (bytes32 => transaction) public mappingTransaction */\n    tag_4:\n      tag_13\n      0x04\n      dup1\n      calldatasize\n      sub\n      dup2\n      add\n      swap1\n      tag_14\n      swap2\n      swap1\n      tag_15\n      jump\t// in\n    tag_14:\n      tag_16\n      jump\t// in\n    tag_13:\n      mload(0x40)\n      tag_17\n      swap13\n      swap12\n      swap11\n      swap10\n      swap9\n      swap8\n      swap7\n      swap6\n      swap5\n      swap4\n      swap3\n      swap2\n      swap1\n      tag_18\n      jump\t// in\n    tag_17:\n      mload(0x40)\n      dup1\n      swap2\n      sub\n      swap1\n      return\n        /* \"contracts/Halal.sol\":260:315  mapping( bytes32 => accountData ) public mappingAccount */\n    tag_5:\n      tag_19\n      0x04\n      dup1\n      calldatasize\n      sub\n      dup2\n      add\n      swap1\n      tag_20\n      swap2\n      swap1\n      tag_15\n      jump\t// in\n    tag_20:\n      tag_21\n      jump\t// in\n    tag_19:\n      mload(0x40)\n      tag_22\n      swap5\n      swap4\n      swap3\n      swap2\n      swap1\n      tag_23\n      jump\t// in\n    tag_22:\n      mload(0x40)\n      dup1\n      swap2\n      sub\n      swap1\n      return\n        /* \"contracts/Halal.sol\":954:1480  function add_account(... */\n    tag_6:\n      tag_24\n      0x04\n      dup1\n      calldatasize\n      sub\n      dup2\n      add\n      swap1\n      tag_25\n      swap2\n      swap1\n      tag_26\n      jump\t// in\n    tag_25:\n      tag_27\n      jump\t// in\n    tag_24:\n      mload(0x40)\n      tag_28\n      swap2\n      swap1\n      tag_29\n      jump\t// in\n    tag_28:\n      mload(0x40)\n      dup1\n      swap2\n      sub\n      swap1\n      return\n        /* \"contracts/Halal.sol\":1486:1676  function get_account(string memory account_id) public view returns(accountData memory){... */\n    tag_10:\n        /* \"contracts/Halal.sol\":1553:1571  accountData memory */\n      tag_30\n      tag_31\n      jump\t// in\n    tag_30:\n        /* \"contracts/Halal.sol\":1582:1592  bytes32 id */\n      0x00\n        /* \"contracts/Halal.sol\":1622:1632  account_id */\n      dup3\n        /* \"contracts/Halal.sol\":1605:1633  abi.encodePacked(account_id) */\n      add(0x20, mload(0x40))\n      tag_33\n      swap2\n      swap1\n      tag_34\n      jump\t// in\n    tag_33:\n      mload(0x40)\n      0x20\n      dup2\n      dup4\n      sub\n      sub\n      dup2\n      mstore\n      swap1\n      0x40\n      mstore\n        /* \"contracts/Halal.sol\":1595:1634  keccak256(abi.encodePacked(account_id)) */\n      dup1\n      mload\n      swap1\n      0x20\n      add\n      keccak256\n        /* \"contracts/Halal.sol\":1582:1634  bytes32 id = keccak256(abi.encodePacked(account_id)) */\n      swap1\n      pop\n        /* \"contracts/Halal.sol\":1651:1665  mappingAccount */\n      0x00\n        /* \"contracts/Halal.sol\":1651:1669  mappingAccount[id] */\n      dup1\n        /* \"contracts/Halal.sol\":1666:1668  id */\n      dup3\n        /* \"contracts/Halal.sol\":1651:1669  mappingAccount[id] */\n      dup2\n      mstore\n      0x20\n      add\n      swap1\n      dup2\n      mstore\n      0x20\n      add\n      0x00\n      keccak256\n        /* \"contracts/Halal.sol\":1644:1669  return mappingAccount[id] */\n      mload(0x40)\n      dup1\n      0x80\n      add\n      0x40\n      mstore\n      swap1\n      dup2\n      0x00\n      dup3\n      add\n      dup1\n      sload\n      tag_35\n      swap1\n      tag_36\n      jump\t// in\n    tag_35:\n      dup1\n      0x1f\n      add\n      0x20\n      dup1\n      swap2\n      div\n      mul\n      0x20\n      add\n      mload(0x40)\n      swap1\n      dup2\n      add\n      0x40\n      mstore\n      dup1\n      swap3\n      swap2\n      swap1\n      dup2\n      dup2\n      mstore\n      0x20\n      add\n      dup3\n      dup1\n      sload\n      tag_37\n      swap1\n      tag_36\n      jump\t// in\n    tag_37:\n      dup1\n      iszero\n      tag_38\n      jumpi\n      dup1\n      0x1f\n      lt\n      tag_39\n      jumpi\n      0x0100\n      dup1\n      dup4\n      sload\n      div\n      mul\n      dup4\n      mstore\n      swap2\n      0x20\n      add\n      swap2\n      jump(tag_38)\n    tag_39:\n      dup3\n      add\n      swap2\n      swap1\n      0x00\n      mstore\n      keccak256(0x00, 0x20)\n      swap1\n    tag_40:\n      dup2\n      sload\n      dup2\n      mstore\n      swap1\n      0x01\n      add\n      swap1\n      0x20\n      add\n      dup1\n      dup4\n      gt\n      tag_40\n      jumpi\n      dup3\n      swap1\n      sub\n      0x1f\n      and\n      dup3\n      add\n      swap2\n    tag_38:\n      pop\n      pop\n      pop\n      pop\n      pop\n      dup2\n      mstore\n      0x20\n      add\n      0x01\n      dup3\n      add\n      dup1\n      sload\n      tag_41\n      swap1\n      tag_36\n      jump\t// in\n    tag_41:\n      dup1\n      0x1f\n      add\n      0x20\n      dup1\n      swap2\n      div\n      mul\n      0x20\n      add\n      mload(0x40)\n      swap1\n      dup2\n      add\n      0x40\n      mstore\n      dup1\n      swap3\n      swap2\n      swap1\n      dup2\n      dup2\n      mstore\n      0x20\n      add\n      dup3\n      dup1\n      sload\n      tag_42\n      swap1\n      tag_36\n      jump\t// in\n    tag_42:\n      dup1\n      iszero\n      tag_43\n      jumpi\n      dup1\n      0x1f\n      lt\n      tag_44\n      jumpi\n      0x0100\n      dup1\n      dup4\n      sload\n      div\n      mul\n      dup4\n      mstore\n      swap2\n      0x20\n      add\n      swap2\n      jump(tag_43)\n    tag_44:\n      dup3\n      add\n      swap2\n      swap1\n      0x00\n      mstore\n      keccak256(0x00, 0x20)\n      swap1\n    tag_45:\n      dup2\n      sload\n      dup2\n      mstore\n      swap1\n      0x01\n      add\n      swap1\n      0x20\n      add\n      dup1\n      dup4\n      gt\n      tag_45\n      jumpi\n      dup3\n      swap1\n      sub\n      0x1f\n      and\n      dup3\n      add\n      swap2\n    tag_43:\n      pop\n      pop\n      pop\n      pop\n      pop\n      dup2\n      mstore\n      0x20\n      add\n      0x02\n      dup3\n      add\n      dup1\n      sload\n      tag_46\n      swap1\n      tag_36\n      jump\t// in\n    tag_46:\n      dup1\n      0x1f\n      add\n      0x20\n      dup1\n      swap2\n      div\n      mul\n      0x20\n      add\n      mload(0x40)\n      swap1\n      dup2\n      add\n      0x40\n      mstore\n      dup1\n      swap3\n      swap2\n      swap1\n      dup2\n      dup2\n      mstore\n      0x20\n      add\n      dup3\n      dup1\n      sload\n      tag_47\n      swap1\n      tag_36\n      jump\t// in\n    tag_47:\n      dup1\n      iszero\n      tag_48\n      jumpi\n      dup1\n      0x1f\n      lt\n      tag_49\n      jumpi\n      0x0100\n      dup1\n      dup4\n      sload\n      div\n      mul\n      dup4\n      mstore\n      swap2\n      0x20\n      add\n      swap2\n      jump(tag_48)\n    tag_49:\n      dup3\n      add\n      swap2\n      swap1\n      0x00\n      mstore\n      keccak256(0x00, 0x20)\n      swap1\n    tag_50:\n      dup2\n      sload\n      dup2\n      mstore\n      swap1\n      0x01\n      add\n      swap1\n      0x20\n      add\n      dup1\n      dup4\n      gt\n      tag_50\n      jumpi\n      dup3\n      swap1\n      sub\n      0x1f\n      and\n      dup3\n      add\n      swap2\n    tag_48:\n      pop\n      pop\n      pop\n      pop\n      pop\n      dup2\n      mstore\n      0x20\n      add\n      0x03\n      dup3\n      add\n      sload\n      dup2\n      mstore\n      pop\n      pop\n      swap2\n      pop\n      pop\n        /* \"contracts/Halal.sol\":1486:1676  function get_account(string memory account_id) public view returns(accountData memory){... */\n      swap2\n      swap1\n      pop\n      jump\t// out\n        /* \"contracts/Halal.sol\":675:733  mapping (bytes32 => transaction) public mappingTransaction */\n    tag_16:\n      mstore(0x20, 0x01)\n      dup1\n      0x00\n      mstore\n      keccak256(0x00, 0x40)\n      0x00\n      swap2\n      pop\n      swap1\n      pop\n      dup1\n      0x00\n      add\n      dup1\n      sload\n      tag_51\n      swap1\n      tag_36\n      jump\t// in\n    tag_51:\n      dup1\n      0x1f\n      add\n      0x20\n      dup1\n      swap2\n      div\n      mul\n      0x20\n      add\n      mload(0x40)\n      swap1\n      dup2\n      add\n      0x40\n      mstore\n      dup1\n      swap3\n      swap2\n      swap1\n      dup2\n      dup2\n      mstore\n      0x20\n      add\n      dup3\n      dup1\n      sload\n      tag_52\n      swap1\n      tag_36\n      jump\t// in\n    tag_52:\n      dup1\n      iszero\n      tag_53\n      jumpi\n      dup1\n      0x1f\n      lt\n      tag_54\n      jumpi\n      0x0100\n      dup1\n      dup4\n      sload\n      div\n      mul\n      dup4\n      mstore\n      swap2\n      0x20\n      add\n      swap2\n      jump(tag_53)\n    tag_54:\n      dup3\n      add\n      swap2\n      swap1\n      0x00\n      mstore\n      keccak256(0x00, 0x20)\n      swap1\n    tag_55:\n      dup2\n      sload\n      dup2\n      mstore\n      swap1\n      0x01\n      add\n      swap1\n      0x20\n      add\n      dup1\n      dup4\n      gt\n      tag_55\n      jumpi\n      dup3\n      swap1\n      sub\n      0x1f\n      and\n      dup3\n      add\n      swap2\n    tag_53:\n      pop\n      pop\n      pop\n      pop\n      pop\n      swap1\n      dup1\n      0x01\n      add\n      0x00\n      swap1\n      sload\n      swap1\n      0x0100\n      exp\n      swap1\n      div\n      0xff\n      and\n      swap1\n      dup1\n      0x02\n      add\n      sload\n      swap1\n      dup1\n      0x03\n      add\n      dup1\n      sload\n      tag_56\n      swap1\n      tag_36\n      jump\t// in\n    tag_56:\n      dup1\n      0x1f\n      add\n      0x20\n      dup1\n      swap2\n      div\n      mul\n      0x20\n      add\n      mload(0x40)\n      swap1\n      dup2\n      add\n      0x40\n      mstore\n      dup1\n      swap3\n      swap2\n      swap1\n      dup2\n      dup2\n      mstore\n      0x20\n      add\n      dup3\n      dup1\n      sload\n      tag_57\n      swap1\n      tag_36\n      jump\t// in\n    tag_57:\n      dup1\n      iszero\n      tag_58\n      jumpi\n      dup1\n      0x1f\n      lt\n      tag_59\n      jumpi\n      0x0100\n      dup1\n      dup4\n      sload\n      div\n      mul\n      dup4\n      mstore\n      swap2\n      0x20\n      add\n      swap2\n      jump(tag_58)\n    tag_59:\n      dup3\n      add\n      swap2\n      swap1\n      0x00\n      mstore\n      keccak256(0x00, 0x20)\n      swap1\n    tag_60:\n      dup2\n      sload\n      dup2\n      mstore\n      swap1\n      0x01\n      add\n      swap1\n      0x20\n      add\n      dup1\n      dup4\n      gt\n      tag_60\n      jumpi\n      dup3\n      swap1\n      sub\n      0x1f\n      and\n      dup3\n      add\n      swap2\n    tag_58:\n      pop\n      pop\n      pop\n      pop\n      pop\n      swap1\n      dup1\n      0x04\n      add\n      dup1\n      sload\n      tag_61\n      swap1\n      tag_36\n      jump\t// in\n    tag_61:\n      dup1\n      0x1f\n      add\n      0x20\n      dup1\n      swap2\n      div\n      mul\n      0x20\n      add\n      mload(0x40)\n      swap1\n      dup2\n      add\n      0x40\n      mstore\n      dup1\n      swap3\n      swap2\n      swap1\n      dup2\n      dup2\n      mstore\n      0x20\n      add\n      dup3\n      dup1\n      sload\n      tag_62\n      swap1\n      tag_36\n      jump\t// in\n    tag_62:\n      dup1\n      iszero\n      tag_63\n      jumpi\n      dup1\n      0x1f\n      lt\n      tag_64\n      jumpi\n      0x0100\n      dup1\n      dup4\n      sload\n      div\n      mul\n      dup4\n      mstore\n      swap2\n      0x20\n      add\n      swap2\n      jump(tag_63)\n    tag_64:\n      dup3\n      add\n      swap2\n      swap1\n      0x00\n      mstore\n      keccak256(0x00, 0x20)\n      swap1\n    tag_65:\n      dup2\n      sload\n      dup2\n      mstore\n      swap1\n      0x01\n      add\n      swap1\n      0x20\n      add\n      dup1\n      dup4\n      gt\n      tag_65\n      jumpi\n      dup3\n      swap1\n      sub\n      0x1f\n      and\n      dup3\n      add\n      swap2\n    tag_63:\n      pop\n      pop\n      pop\n      pop\n      pop\n      swap1\n      dup1\n      0x05\n      add\n      dup1\n      sload\n      tag_66\n      swap1\n      tag_36\n      jump\t// in\n    tag_66:\n      dup1\n      0x1f\n      add\n      0x20\n      dup1\n      swap2\n      div\n      mul\n      0x20\n      add\n      mload(0x40)\n      swap1\n      dup2\n      add\n      0x40\n      mstore\n      dup1\n      swap3\n      swap2\n      swap1\n      dup2\n      dup2\n      mstore\n      0x20\n      add\n      dup3\n      dup1\n      sload\n      tag_67\n      swap1\n      tag_36\n      jump\t// in\n    tag_67:\n      dup1\n      iszero\n      tag_68\n      jumpi\n      dup1\n      0x1f\n      lt\n      tag_69\n      jumpi\n      0x0100\n      dup1\n      dup4\n      sload\n      div\n      mul\n      dup4\n      mstore\n      swap2\n      0x20\n      add\n      swap2\n      jump(tag_68)\n    tag_69:\n      dup3\n      add\n      swap2\n      swap1\n      0x00\n      mstore\n      keccak256(0x00, 0x20)\n      swap1\n    tag_70:\n      dup2\n      sload\n      dup2\n      mstore\n      swap1\n      0x01\n      add\n      swap1\n      0x20\n      add\n      dup1\n      dup4\n      gt\n      tag_70\n      jumpi\n      dup3\n      swap1\n      sub\n      0x1f\n      and\n      dup3\n      add\n      swap2\n    tag_68:\n      pop\n      pop\n      pop\n      pop\n      pop\n      swap1\n      dup1\n      0x06\n      add\n      dup1\n      sload\n      tag_71\n      swap1\n      tag_36\n      jump\t// in\n    tag_71:\n      dup1\n      0x1f\n      add\n      0x20\n      dup1\n      swap2\n      div\n      mul\n      0x20\n      add\n      mload(0x40)\n      swap1\n      dup2\n      add\n      0x40\n      mstore\n      dup1\n      swap3\n      swap2\n      swap1\n      dup2\n      dup2\n      mstore\n      0x20\n      add\n      dup3\n      dup1\n      sload\n      tag_72\n      swap1\n      tag_36\n      jump\t// in\n    tag_72:\n      dup1\n      iszero\n      tag_73\n      jumpi\n      dup1\n      0x1f\n      lt\n      tag_74\n      jumpi\n      0x0100\n      dup1\n      dup4\n      sload\n      div\n      mul\n      dup4\n      mstore\n      swap2\n      0x20\n      add\n      swap2\n      jump(tag_73)\n    tag_74:\n      dup3\n      add\n      swap2\n      swap1\n      0x00\n      mstore\n      keccak256(0x00, 0x20)\n      swap1\n    tag_75:\n      dup2\n      sload\n      dup2\n      mstore\n      swap1\n      0x01\n      add\n      swap1\n      0x20\n      add\n      dup1\n      dup4\n      gt\n      tag_75\n      jumpi\n      dup3\n      swap1\n      sub\n      0x1f\n      and\n      dup3\n      add\n      swap2\n    tag_73:\n      pop\n      pop\n      pop\n      pop\n      pop\n      swap1\n      dup1\n      0x07\n      add\n      dup1\n      sload\n      tag_76\n      swap1\n      tag_36\n      jump\t// in\n    tag_76:\n      dup1\n      0x1f\n      add\n      0x20\n      dup1\n      swap2\n      div\n      mul\n      0x20\n      add\n      mload(0x40)\n      swap1\n      dup2\n      add\n      0x40\n      mstore\n      dup1\n      swap3\n      swap2\n      swap1\n      dup2\n      dup2\n      mstore\n      0x20\n      add\n      dup3\n      dup1\n      sload\n      tag_77\n      swap1\n      tag_36\n      jump\t// in\n    tag_77:\n      dup1\n      iszero\n      tag_78\n      jumpi\n      dup1\n      0x1f\n      lt\n      tag_79\n      jumpi\n      0x0100\n      dup1\n      dup4\n      sload\n      div\n      mul\n      dup4\n      mstore\n      swap2\n      0x20\n      add\n      swap2\n      jump(tag_78)\n    tag_79:\n      dup3\n      add\n      swap2\n      swap1\n      0x00\n      mstore\n      keccak256(0x00, 0x20)\n      swap1\n    tag_80:\n      dup2\n      sload\n      dup2\n      mstore\n      swap1\n      0x01\n      add\n      swap1\n      0x20\n      add\n      dup1\n      dup4\n      gt\n      tag_80\n      jumpi\n      dup3\n      swap1\n      sub\n      0x1f\n      and\n      dup3\n      add\n      swap2\n    tag_78:\n      pop\n      pop\n      pop\n      pop\n      pop\n      swap1\n      dup1\n      0x08\n      add\n      dup1\n      sload\n      tag_81\n      swap1\n      tag_36\n      jump\t// in\n    tag_81:\n      dup1\n      0x1f\n      add\n      0x20\n      dup1\n      swap2\n      div\n      mul\n      0x20\n      add\n      mload(0x40)\n      swap1\n      dup2\n      add\n      0x40\n      mstore\n      dup1\n      swap3\n      swap2\n      swap1\n      dup2\n      dup2\n      mstore\n      0x20\n      add\n      dup3\n      dup1\n      sload\n      tag_82\n      swap1\n      tag_36\n      jump\t// in\n    tag_82:\n      dup1\n      iszero\n      tag_83\n      jumpi\n      dup1\n      0x1f\n      lt\n      tag_84\n      jumpi\n      0x0100\n      dup1\n      dup4\n      sload\n      div\n      mul\n      dup4\n      mstore\n      swap2\n      0x20\n      add\n      swap2\n      jump(tag_83)\n    tag_84:\n      dup3\n      add\n      swap2\n      swap1\n      0x00\n      mstore\n      keccak256(0x00, 0x20)\n      swap1\n    tag_85:\n      dup2\n      sload\n      dup2\n      mstore\n      swap1\n      0x01\n      add\n      swap1\n      0x20\n      add\n      dup1\n      dup4\n      gt\n      tag_85\n      jumpi\n      dup3\n      swap1\n      sub\n      0x1f\n      and\n      dup3\n      add\n      swap2\n    tag_83:\n      pop\n      pop\n      pop\n      pop\n      pop\n      swap1\n      dup1\n      0x09\n      add\n      dup1\n      sload\n      tag_86\n      swap1\n      tag_36\n      jump\t// in\n    tag_86:\n      dup1\n      0x1f\n      add\n      0x20\n      dup1\n      swap2\n      div\n      mul\n      0x20\n      add\n      mload(0x40)\n      swap1\n      dup2\n      add\n      0x40\n      mstore\n      dup1\n      swap3\n      swap2\n      swap1\n      dup2\n      dup2\n      mstore\n      0x20\n      add\n      dup3\n      dup1\n      sload\n      tag_87\n      swap1\n      tag_36\n      jump\t// in\n    tag_87:\n      dup1\n      iszero\n      tag_88\n      jumpi\n      dup1\n      0x1f\n      lt\n      tag_89\n      jumpi\n      0x0100\n      dup1\n      dup4\n      sload\n      div\n      mul\n      dup4\n      mstore\n      swap2\n      0x20\n      add\n      swap2\n      jump(tag_88)\n    tag_89:\n      dup3\n      add\n      swap2\n      swap1\n      0x00\n      mstore\n      keccak256(0x00, 0x20)\n      swap1\n    tag_90:\n      dup2\n      sload\n      dup2\n      mstore\n      swap1\n      0x01\n      add\n      swap1\n      0x20\n      add\n      dup1\n      dup4\n      gt\n      tag_90\n      jumpi\n      dup3\n      swap1\n      sub\n      0x1f\n      and\n      dup3\n      add\n      swap2\n    tag_88:\n      pop\n      pop\n      pop\n      pop\n      pop\n      swap1\n      dup1\n      0x0a\n      add\n      0x00\n      swap1\n      sload\n      swap1\n      0x0100\n      exp\n      swap1\n      div\n      0xff\n      and\n      swap1\n      dup1\n      0x0b\n      add\n      dup1\n      sload\n      tag_91\n      swap1\n      tag_36\n      jump\t// in\n    tag_91:\n      dup1\n      0x1f\n      add\n      0x20\n      dup1\n      swap2\n      div\n      mul\n      0x20\n      add\n      mload(0x40)\n      swap1\n      dup2\n      add\n      0x40\n      mstore\n      dup1\n      swap3\n      swap2\n      swap1\n      dup2\n      dup2\n      mstore\n      0x20\n      add\n      dup3\n      dup1\n      sload\n      tag_92\n      swap1\n      tag_36\n      jump\t// in\n    tag_92:\n      dup1\n      iszero\n      tag_93\n      jumpi\n      dup1\n      0x1f\n      lt\n      tag_94\n      jumpi\n      0x0100\n      dup1\n      dup4\n      sload\n      div\n      mul\n      dup4\n      mstore\n      swap2\n      0x20\n      add\n      swap2\n      jump(tag_93)\n    tag_94:\n      dup3\n      add\n      swap2\n      swap1\n      0x00\n      mstore\n      keccak256(0x00, 0x20)\n      swap1\n    tag_95:\n      dup2\n      sload\n      dup2\n      mstore\n      swap1\n      0x01\n      add\n      swap1\n      0x20\n      add\n      dup1\n      dup4\n      gt\n      tag_95\n      jumpi\n      dup3\n      swap1\n      sub\n      0x1f\n      and\n      dup3\n      add\n      swap2\n    tag_93:\n      pop\n      pop\n      pop\n      pop\n      pop\n      swap1\n      pop\n      dup13\n      jump\t// out\n        /* \"contracts/Halal.sol\":260:315  mapping( bytes32 => accountData ) public mappingAccount */\n    tag_21:\n      mstore(0x20, 0x00)\n      dup1\n      0x00\n      mstore\n      keccak256(0x00, 0x40)\n      0x00\n      swap2\n      pop\n      swap1\n      pop\n      dup1\n      0x00\n      add\n      dup1\n      sload\n      tag_96\n      swap1\n      tag_36\n      jump\t// in\n    tag_96:\n      dup1\n      0x1f\n      add\n      0x20\n      dup1\n      swap2\n      div\n      mul\n      0x20\n      add\n      mload(0x40)\n      swap1\n      dup2\n      add\n      0x40\n      mstore\n      dup1\n      swap3\n      swap2\n      swap1\n      dup2\n      dup2\n      mstore\n      0x20\n      add\n      dup3\n      dup1\n      sload\n      tag_97\n      swap1\n      tag_36\n      jump\t// in\n    tag_97:\n      dup1\n      iszero\n      tag_98\n      jumpi\n      dup1\n      0x1f\n      lt\n      tag_99\n      jumpi\n      0x0100\n      dup1\n      dup4\n      sload\n      div\n      mul\n      dup4\n      mstore\n      swap2\n      0x20\n      add\n      swap2\n      jump(tag_98)\n    tag_99:\n      dup3\n      add\n      swap2\n      swap1\n      0x00\n      mstore\n      keccak256(0x00, 0x20)\n      swap1\n    tag_100:\n      dup2\n      sload\n      dup2\n      mstore\n      swap1\n      0x01\n      add\n      swap1\n      0x20\n      add\n      dup1\n      dup4\n      gt\n      tag_100\n      jumpi\n      dup3\n      swap1\n      sub\n      0x1f\n      and\n      dup3\n      add\n      swap2\n    tag_98:\n      pop\n      pop\n      pop\n      pop\n      pop\n      swap1\n      dup1\n      0x01\n      add\n      dup1\n      sload\n      tag_101\n      swap1\n      tag_36\n      jump\t// in\n    tag_101:\n      dup1\n      0x1f\n      add\n      0x20\n      dup1\n      swap2\n      div\n      mul\n      0x20\n      add\n      mload(0x40)\n      swap1\n      dup2\n      add\n      0x40\n      mstore\n      dup1\n      swap3\n      swap2\n      swap1\n      dup2\n      dup2\n      mstore\n      0x20\n      add\n      dup3\n      dup1\n      sload\n      tag_102\n      swap1\n      tag_36\n      jump\t// in\n    tag_102:\n      dup1\n      iszero\n      tag_103\n      jumpi\n      dup1\n      0x1f\n      lt\n      tag_104\n      jumpi\n      0x0100\n      dup1\n      dup4\n      sload\n      div\n      mul\n      dup4\n      mstore\n      swap2\n      0x20\n      add\n      swap2\n      jump(tag_103)\n    tag_104:\n      dup3\n      add\n      swap2\n      swap1\n      0x00\n      mstore\n      keccak256(0x00, 0x20)\n      swap1\n    tag_105:\n      dup2\n      sload\n      dup2\n      mstore\n      swap1\n      0x01\n      add\n      swap1\n      0x20\n      add\n      dup1\n      dup4\n      gt\n      tag_105\n      jumpi\n      dup3\n      swap1\n      sub\n      0x1f\n      and\n      dup3\n      add\n      swap2\n    tag_103:\n      pop\n      pop\n      pop\n      pop\n      pop\n      swap1\n      dup1\n      0x02\n      add\n      dup1\n      sload\n      tag_106\n      swap1\n      tag_36\n      jump\t// in\n    tag_106:\n      dup1\n      0x1f\n      add\n      0x20\n      dup1\n      swap2\n      div\n      mul\n      0x20\n      add\n      mload(0x40)\n      swap1\n      dup2\n      add\n      0x40\n      mstore\n      dup1\n      swap3\n      swap2\n      swap1\n      dup2\n      dup2\n      mstore\n      0x20\n      add\n      dup3\n      dup1\n      sload\n      tag_107\n      swap1\n      tag_36\n      jump\t// in\n    tag_107:\n      dup1\n      iszero\n      tag_108\n      jumpi\n      dup1\n      0x1f\n      lt\n      tag_109\n      jumpi\n      0x0100\n      dup1\n      dup4\n      sload\n      div\n      mul\n      dup4\n      mstore\n      swap2\n      0x20\n      add\n      swap2\n      jump(tag_108)\n    tag_109:\n      dup3\n      add\n      swap2\n      swap1\n      0x00\n      mstore\n      keccak256(0x00, 0x20)\n      swap1\n    tag_110:\n      dup2\n      sload\n      dup2\n      mstore\n      swap1\n      0x01\n      add\n      swap1\n      0x20\n      add\n      dup1\n      dup4\n      gt\n      tag_110\n      jumpi\n      dup3\n      swap1\n      sub\n      0x1f\n      and\n      dup3\n      add\n      swap2\n    tag_108:\n      pop\n      pop\n      pop\n      pop\n      pop\n      swap1\n      dup1\n      0x03\n      add\n      sload\n      swap1\n      pop\n      dup5\n      jump\t// out\n        /* \"contracts/Halal.sol\":954:1480  function add_account(... */\n    tag_27:\n        /* \"contracts/Halal.sol\":1086:1093  bytes32 */\n      0x00\n        /* \"contracts/Halal.sol\":1104:1114  bytes32 id */\n      dup1\n        /* \"contracts/Halal.sol\":1144:1154  account_id */\n      dup5\n        /* \"contracts/Halal.sol\":1127:1155  abi.encodePacked(account_id) */\n      add(0x20, mload(0x40))\n      tag_112\n      swap2\n      swap1\n      tag_34\n      jump\t// in\n    tag_112:\n      mload(0x40)\n      0x20\n      dup2\n      dup4\n      sub\n      sub\n      dup2\n      mstore\n      swap1\n      0x40\n      mstore\n        /* \"contracts/Halal.sol\":1117:1156  keccak256(abi.encodePacked(account_id)) */\n      dup1\n      mload\n      swap1\n      0x20\n      add\n      keccak256\n        /* \"contracts/Halal.sol\":1104:1156  bytes32 id = keccak256(abi.encodePacked(account_id)) */\n      swap1\n      pop\n        /* \"contracts/Halal.sol\":1174:1205  account_checker(id, account_id) */\n      tag_113\n        /* \"contracts/Halal.sol\":1190:1192  id */\n      dup2\n        /* \"contracts/Halal.sol\":1194:1204  account_id */\n      dup7\n        /* \"contracts/Halal.sol\":1174:1189  account_checker */\n      tag_114\n        /* \"contracts/Halal.sol\":1174:1205  account_checker(id, account_id) */\n      jump\t// in\n    tag_113:\n        /* \"contracts/Halal.sol\":1166:1234  require(account_checker(id, account_id), \"Account already existing\") */\n      tag_115\n      jumpi\n      mload(0x40)\n      0x08c379a000000000000000000000000000000000000000000000000000000000\n      dup2\n      mstore\n      0x04\n      add\n      tag_116\n      swap1\n      tag_117\n      jump\t// in\n    tag_116:\n      mload(0x40)\n      dup1\n      swap2\n      sub\n      swap1\n      revert\n    tag_115:\n        /* \"contracts/Halal.sol\":1244:1267  accountData storage acc */\n      0x00\n        /* \"contracts/Halal.sol\":1270:1284  mappingAccount */\n      dup1\n        /* \"contracts/Halal.sol\":1270:1288  mappingAccount[id] */\n      0x00\n        /* \"contracts/Halal.sol\":1285:1287  id */\n      dup4\n        /* \"contracts/Halal.sol\":1270:1288  mappingAccount[id] */\n      dup2\n      mstore\n      0x20\n      add\n      swap1\n      dup2\n      mstore\n      0x20\n      add\n      0x00\n      keccak256\n        /* \"contracts/Halal.sol\":1244:1288  accountData storage acc = mappingAccount[id] */\n      swap1\n      pop\n        /* \"contracts/Halal.sol\":1315:1325  account_id */\n      dup6\n        /* \"contracts/Halal.sol\":1298:1301  acc */\n      dup2\n        /* \"contracts/Halal.sol\":1298:1312  acc.account_id */\n      0x00\n      add\n        /* \"contracts/Halal.sol\":1298:1325  acc.account_id = account_id */\n      swap1\n      dup1\n      mload\n      swap1\n      0x20\n      add\n      swap1\n      tag_118\n      swap3\n      swap2\n      swap1\n      tag_119\n      jump\t// in\n    tag_118:\n      pop\n        /* \"contracts/Halal.sol\":1346:1350  name */\n      dup5\n        /* \"contracts/Halal.sol\":1335:1338  acc */\n      dup2\n        /* \"contracts/Halal.sol\":1335:1343  acc.name */\n      0x01\n      add\n        /* \"contracts/Halal.sol\":1335:1350  acc.name = name */\n      swap1\n      dup1\n      mload\n      swap1\n      0x20\n      add\n      swap1\n      tag_120\n      swap3\n      swap2\n      swap1\n      tag_119\n      jump\t// in\n    tag_120:\n      pop\n        /* \"contracts/Halal.sol\":1371:1375  role */\n      dup4\n        /* \"contracts/Halal.sol\":1360:1363  acc */\n      dup2\n        /* \"contracts/Halal.sol\":1360:1368  acc.role */\n      0x02\n      add\n        /* \"contracts/Halal.sol\":1360:1375  acc.role = role */\n      swap1\n      dup1\n      mload\n      swap1\n      0x20\n      add\n      swap1\n      tag_121\n      swap3\n      swap2\n      swap1\n      tag_119\n      jump\t// in\n    tag_121:\n      pop\n        /* \"contracts/Halal.sol\":1402:1417  block.timestamp */\n      timestamp\n        /* \"contracts/Halal.sol\":1385:1388  acc */\n      dup2\n        /* \"contracts/Halal.sol\":1385:1399  acc.created_at */\n      0x03\n      add\n        /* \"contracts/Halal.sol\":1385:1417  acc.created_at = block.timestamp */\n      dup2\n      swap1\n      sstore\n      pop\n        /* \"contracts/Halal.sol\":1432:1454  success(\"success\", id) */\n      0xc8922d91fbabbe8df5d667708c678575856a856a2a465ebd9626a40ab6a16f5f\n        /* \"contracts/Halal.sol\":1451:1453  id */\n      dup3\n        /* \"contracts/Halal.sol\":1432:1454  success(\"success\", id) */\n      mload(0x40)\n      tag_122\n      swap2\n      swap1\n      tag_123\n      jump\t// in\n    tag_122:\n      mload(0x40)\n      dup1\n      swap2\n      sub\n      swap1\n      log1\n        /* \"contracts/Halal.sol\":1471:1473  id */\n      dup2\n        /* \"contracts/Halal.sol\":1464:1473  return id */\n      swap3\n      pop\n      pop\n      pop\n        /* \"contracts/Halal.sol\":954:1480  function add_account(... */\n      swap4\n      swap3\n      pop\n      pop\n      pop\n      jump\t// out\n        /* \"contracts/Halal.sol\":740:948  function account_checker(bytes32 id, string memory umkm_id) private view returns(bool){... */\n    tag_114:\n        /* \"contracts/Halal.sol\":821:825  bool */\n      0x00\n        /* \"contracts/Halal.sol\":932:939  umkm_id */\n      dup2\n        /* \"contracts/Halal.sol\":915:940  abi.encodePacked(umkm_id) */\n      add(0x20, mload(0x40))\n      tag_125\n      swap2\n      swap1\n      tag_34\n      jump\t// in\n    tag_125:\n      mload(0x40)\n      0x20\n      dup2\n      dup4\n      sub\n      sub\n      dup2\n      mstore\n      swap1\n      0x40\n      mstore\n        /* \"contracts/Halal.sol\":905:941  keccak256(abi.encodePacked(umkm_id)) */\n      dup1\n      mload\n      swap1\n      0x20\n      add\n      keccak256\n        /* \"contracts/Halal.sol\":870:884  mappingAccount */\n      0x00\n        /* \"contracts/Halal.sol\":870:888  mappingAccount[id] */\n      dup1\n        /* \"contracts/Halal.sol\":885:887  id */\n      dup6\n        /* \"contracts/Halal.sol\":870:888  mappingAccount[id] */\n      dup2\n      mstore\n      0x20\n      add\n      swap1\n      dup2\n      mstore\n      0x20\n      add\n      0x00\n      keccak256\n        /* \"contracts/Halal.sol\":870:899  mappingAccount[id].account_id */\n      0x00\n      add\n        /* \"contracts/Halal.sol\":853:900  abi.encodePacked(mappingAccount[id].account_id) */\n      add(0x20, mload(0x40))\n      tag_126\n      swap2\n      swap1\n      tag_127\n      jump\t// in\n    tag_126:\n      mload(0x40)\n      0x20\n      dup2\n      dup4\n      sub\n      sub\n      dup2\n      mstore\n      swap1\n      0x40\n      mstore\n        /* \"contracts/Halal.sol\":843:901  keccak256(abi.encodePacked(mappingAccount[id].account_id)) */\n      dup1\n      mload\n      swap1\n      0x20\n      add\n      keccak256\n        /* \"contracts/Halal.sol\":843:941  keccak256(abi.encodePacked(mappingAccount[id].account_id)) != keccak256(abi.encodePacked(umkm_id)) */\n      eq\n      iszero\n        /* \"contracts/Halal.sol\":836:941  return keccak256(abi.encodePacked(mappingAccount[id].account_id)) != keccak256(abi.encodePacked(umkm_id)) */\n      swap1\n      pop\n        /* \"contracts/Halal.sol\":740:948  function account_checker(bytes32 id, string memory umkm_id) private view returns(bool){... */\n      swap3\n      swap2\n      pop\n      pop\n      jump\t// out\n    tag_31:\n      mload(0x40)\n      dup1\n      0x80\n      add\n      0x40\n      mstore\n      dup1\n      0x60\n      dup2\n      mstore\n      0x20\n      add\n      0x60\n      dup2\n      mstore\n      0x20\n      add\n      0x60\n      dup2\n      mstore\n      0x20\n      add\n      0x00\n      dup2\n      mstore\n      pop\n      swap1\n      jump\t// out\n    tag_119:\n      dup3\n      dup1\n      sload\n      tag_128\n      swap1\n      tag_36\n      jump\t// in\n    tag_128:\n      swap1\n      0x00\n      mstore\n      keccak256(0x00, 0x20)\n      swap1\n      0x1f\n      add\n      0x20\n      swap1\n      div\n      dup2\n      add\n      swap3\n      dup3\n      tag_130\n      jumpi\n      0x00\n      dup6\n      sstore\n      jump(tag_129)\n    tag_130:\n      dup3\n      0x1f\n      lt\n      tag_131\n      jumpi\n      dup1\n      mload\n      not(0xff)\n      and\n      dup4\n      dup1\n      add\n      or\n      dup6\n      sstore\n      jump(tag_129)\n    tag_131:\n      dup3\n      dup1\n      add\n      0x01\n      add\n      dup6\n      sstore\n      dup3\n      iszero\n      tag_129\n      jumpi\n      swap2\n      dup3\n      add\n    tag_132:\n      dup3\n      dup2\n      gt\n      iszero\n      tag_133\n      jumpi\n      dup3\n      mload\n      dup3\n      sstore\n      swap2\n      0x20\n      add\n      swap2\n      swap1\n      0x01\n      add\n      swap1\n      jump(tag_132)\n    tag_133:\n    tag_129:\n      pop\n      swap1\n      pop\n      tag_134\n      swap2\n      swap1\n      tag_135\n      jump\t// in\n    tag_134:\n      pop\n      swap1\n      jump\t// out\n    tag_135:\n    tag_136:\n      dup1\n      dup3\n      gt\n      iszero\n      tag_137\n      jumpi\n      0x00\n      dup2\n      0x00\n      swap1\n      sstore\n      pop\n      0x01\n      add\n      jump(tag_136)\n    tag_137:\n      pop\n      swap1\n      jump\t// out\n        /* \"#utility.yul\":7:419   */\n    tag_139:\n        /* \"#utility.yul\":85:90   */\n      0x00\n        /* \"#utility.yul\":110:176   */\n      tag_141\n        /* \"#utility.yul\":126:175   */\n      tag_142\n        /* \"#utility.yul\":168:174   */\n      dup5\n        /* \"#utility.yul\":126:175   */\n      tag_143\n      jump\t// in\n    tag_142:\n        /* \"#utility.yul\":110:176   */\n      tag_144\n      jump\t// in\n    tag_141:\n        /* \"#utility.yul\":101:176   */\n      swap1\n      pop\n        /* \"#utility.yul\":199:205   */\n      dup3\n        /* \"#utility.yul\":192:197   */\n      dup2\n        /* \"#utility.yul\":185:206   */\n      mstore\n        /* \"#utility.yul\":237:241   */\n      0x20\n        /* \"#utility.yul\":230:235   */\n      dup2\n        /* \"#utility.yul\":226:242   */\n      add\n        /* \"#utility.yul\":275:278   */\n      dup5\n        /* \"#utility.yul\":266:272   */\n      dup5\n        /* \"#utility.yul\":261:264   */\n      dup5\n        /* \"#utility.yul\":257:273   */\n      add\n        /* \"#utility.yul\":254:279   */\n      gt\n        /* \"#utility.yul\":251:363   */\n      iszero\n      tag_145\n      jumpi\n        /* \"#utility.yul\":282:361   */\n      tag_146\n      tag_147\n      jump\t// in\n    tag_146:\n        /* \"#utility.yul\":251:363   */\n    tag_145:\n        /* \"#utility.yul\":372:413   */\n      tag_148\n        /* \"#utility.yul\":406:412   */\n      dup5\n        /* \"#utility.yul\":401:404   */\n      dup3\n        /* \"#utility.yul\":396:399   */\n      dup6\n        /* \"#utility.yul\":372:413   */\n      tag_149\n      jump\t// in\n    tag_148:\n        /* \"#utility.yul\":91:419   */\n      pop\n        /* \"#utility.yul\":7:419   */\n      swap4\n      swap3\n      pop\n      pop\n      pop\n      jump\t// out\n        /* \"#utility.yul\":425:564   */\n    tag_150:\n        /* \"#utility.yul\":471:476   */\n      0x00\n        /* \"#utility.yul\":509:515   */\n      dup2\n        /* \"#utility.yul\":496:516   */\n      calldataload\n        /* \"#utility.yul\":487:516   */\n      swap1\n      pop\n        /* \"#utility.yul\":525:558   */\n      tag_152\n        /* \"#utility.yul\":552:557   */\n      dup2\n        /* \"#utility.yul\":525:558   */\n      tag_153\n      jump\t// in\n    tag_152:\n        /* \"#utility.yul\":425:564   */\n      swap3\n      swap2\n      pop\n      pop\n      jump\t// out\n        /* \"#utility.yul\":584:924   */\n    tag_154:\n        /* \"#utility.yul\":640:645   */\n      0x00\n        /* \"#utility.yul\":689:692   */\n      dup3\n        /* \"#utility.yul\":682:686   */\n      0x1f\n        /* \"#utility.yul\":674:680   */\n      dup4\n        /* \"#utility.yul\":670:687   */\n      add\n        /* \"#utility.yul\":666:693   */\n      slt\n        /* \"#utility.yul\":656:778   */\n      tag_156\n      jumpi\n        /* \"#utility.yul\":697:776   */\n      tag_157\n      tag_158\n      jump\t// in\n    tag_157:\n        /* \"#utility.yul\":656:778   */\n    tag_156:\n        /* \"#utility.yul\":814:820   */\n      dup2\n        /* \"#utility.yul\":801:821   */\n      calldataload\n        /* \"#utility.yul\":839:918   */\n      tag_159\n        /* \"#utility.yul\":914:917   */\n      dup5\n        /* \"#utility.yul\":906:912   */\n      dup3\n        /* \"#utility.yul\":899:903   */\n      0x20\n        /* \"#utility.yul\":891:897   */\n      dup7\n        /* \"#utility.yul\":887:904   */\n      add\n        /* \"#utility.yul\":839:918   */\n      tag_139\n      jump\t// in\n    tag_159:\n        /* \"#utility.yul\":830:918   */\n      swap2\n      pop\n        /* \"#utility.yul\":646:924   */\n      pop\n        /* \"#utility.yul\":584:924   */\n      swap3\n      swap2\n      pop\n      pop\n      jump\t// out\n        /* \"#utility.yul\":930:1259   */\n    tag_15:\n        /* \"#utility.yul\":989:995   */\n      0x00\n        /* \"#utility.yul\":1038:1040   */\n      0x20\n        /* \"#utility.yul\":1026:1035   */\n      dup3\n        /* \"#utility.yul\":1017:1024   */\n      dup5\n        /* \"#utility.yul\":1013:1036   */\n      sub\n        /* \"#utility.yul\":1009:1041   */\n      slt\n        /* \"#utility.yul\":1006:1125   */\n      iszero\n      tag_161\n      jumpi\n        /* \"#utility.yul\":1044:1123   */\n      tag_162\n      tag_163\n      jump\t// in\n    tag_162:\n        /* \"#utility.yul\":1006:1125   */\n    tag_161:\n        /* \"#utility.yul\":1164:1165   */\n      0x00\n        /* \"#utility.yul\":1189:1242   */\n      tag_164\n        /* \"#utility.yul\":1234:1241   */\n      dup5\n        /* \"#utility.yul\":1225:1231   */\n      dup3\n        /* \"#utility.yul\":1214:1223   */\n      dup6\n        /* \"#utility.yul\":1210:1232   */\n      add\n        /* \"#utility.yul\":1189:1242   */\n      tag_150\n      jump\t// in\n    tag_164:\n        /* \"#utility.yul\":1179:1242   */\n      swap2\n      pop\n        /* \"#utility.yul\":1135:1252   */\n      pop\n        /* \"#utility.yul\":930:1259   */\n      swap3\n      swap2\n      pop\n      pop\n      jump\t// out\n        /* \"#utility.yul\":1265:1774   */\n    tag_9:\n        /* \"#utility.yul\":1334:1340   */\n      0x00\n        /* \"#utility.yul\":1383:1385   */\n      0x20\n        /* \"#utility.yul\":1371:1380   */\n      dup3\n        /* \"#utility.yul\":1362:1369   */\n      dup5\n        /* \"#utility.yul\":1358:1381   */\n      sub\n        /* \"#utility.yul\":1354:1386   */\n      slt\n        /* \"#utility.yul\":1351:1470   */\n      iszero\n      tag_166\n      jumpi\n        /* \"#utility.yul\":1389:1468   */\n      tag_167\n      tag_163\n      jump\t// in\n    tag_167:\n        /* \"#utility.yul\":1351:1470   */\n    tag_166:\n        /* \"#utility.yul\":1537:1538   */\n      0x00\n        /* \"#utility.yul\":1526:1535   */\n      dup3\n        /* \"#utility.yul\":1522:1539   */\n      add\n        /* \"#utility.yul\":1509:1540   */\n      calldataload\n        /* \"#utility.yul\":1567:1585   */\n      0xffffffffffffffff\n        /* \"#utility.yul\":1559:1565   */\n      dup2\n        /* \"#utility.yul\":1556:1586   */\n      gt\n        /* \"#utility.yul\":1553:1670   */\n      iszero\n      tag_168\n      jumpi\n        /* \"#utility.yul\":1589:1668   */\n      tag_169\n      tag_170\n      jump\t// in\n    tag_169:\n        /* \"#utility.yul\":1553:1670   */\n    tag_168:\n        /* \"#utility.yul\":1694:1757   */\n      tag_171\n        /* \"#utility.yul\":1749:1756   */\n      dup5\n        /* \"#utility.yul\":1740:1746   */\n      dup3\n        /* \"#utility.yul\":1729:1738   */\n      dup6\n        /* \"#utility.yul\":1725:1747   */\n      add\n        /* \"#utility.yul\":1694:1757   */\n      tag_154\n      jump\t// in\n    tag_171:\n        /* \"#utility.yul\":1684:1757   */\n      swap2\n      pop\n        /* \"#utility.yul\":1480:1767   */\n      pop\n        /* \"#utility.yul\":1265:1774   */\n      swap3\n      swap2\n      pop\n      pop\n      jump\t// out\n        /* \"#utility.yul\":1780:2939   */\n    tag_26:\n        /* \"#utility.yul\":1887:1893   */\n      0x00\n        /* \"#utility.yul\":1895:1901   */\n      dup1\n        /* \"#utility.yul\":1903:1909   */\n      0x00\n        /* \"#utility.yul\":1952:1954   */\n      0x60\n        /* \"#utility.yul\":1940:1949   */\n      dup5\n        /* \"#utility.yul\":1931:1938   */\n      dup7\n        /* \"#utility.yul\":1927:1950   */\n      sub\n        /* \"#utility.yul\":1923:1955   */\n      slt\n        /* \"#utility.yul\":1920:2039   */\n      iszero\n      tag_173\n      jumpi\n        /* \"#utility.yul\":1958:2037   */\n      tag_174\n      tag_163\n      jump\t// in\n    tag_174:\n        /* \"#utility.yul\":1920:2039   */\n    tag_173:\n        /* \"#utility.yul\":2106:2107   */\n      0x00\n        /* \"#utility.yul\":2095:2104   */\n      dup5\n        /* \"#utility.yul\":2091:2108   */\n      add\n        /* \"#utility.yul\":2078:2109   */\n      calldataload\n        /* \"#utility.yul\":2136:2154   */\n      0xffffffffffffffff\n        /* \"#utility.yul\":2128:2134   */\n      dup2\n        /* \"#utility.yul\":2125:2155   */\n      gt\n        /* \"#utility.yul\":2122:2239   */\n      iszero\n      tag_175\n      jumpi\n        /* \"#utility.yul\":2158:2237   */\n      tag_176\n      tag_170\n      jump\t// in\n    tag_176:\n        /* \"#utility.yul\":2122:2239   */\n    tag_175:\n        /* \"#utility.yul\":2263:2326   */\n      tag_177\n        /* \"#utility.yul\":2318:2325   */\n      dup7\n        /* \"#utility.yul\":2309:2315   */\n      dup3\n        /* \"#utility.yul\":2298:2307   */\n      dup8\n        /* \"#utility.yul\":2294:2316   */\n      add\n        /* \"#utility.yul\":2263:2326   */\n      tag_154\n      jump\t// in\n    tag_177:\n        /* \"#utility.yul\":2253:2326   */\n      swap4\n      pop\n        /* \"#utility.yul\":2049:2336   */\n      pop\n        /* \"#utility.yul\":2403:2405   */\n      0x20\n        /* \"#utility.yul\":2392:2401   */\n      dup5\n        /* \"#utility.yul\":2388:2406   */\n      add\n        /* \"#utility.yul\":2375:2407   */\n      calldataload\n        /* \"#utility.yul\":2434:2452   */\n      0xffffffffffffffff\n        /* \"#utility.yul\":2426:2432   */\n      dup2\n        /* \"#utility.yul\":2423:2453   */\n      gt\n        /* \"#utility.yul\":2420:2537   */\n      iszero\n      tag_178\n      jumpi\n        /* \"#utility.yul\":2456:2535   */\n      tag_179\n      tag_170\n      jump\t// in\n    tag_179:\n        /* \"#utility.yul\":2420:2537   */\n    tag_178:\n        /* \"#utility.yul\":2561:2624   */\n      tag_180\n        /* \"#utility.yul\":2616:2623   */\n      dup7\n        /* \"#utility.yul\":2607:2613   */\n      dup3\n        /* \"#utility.yul\":2596:2605   */\n      dup8\n        /* \"#utility.yul\":2592:2614   */\n      add\n        /* \"#utility.yul\":2561:2624   */\n      tag_154\n      jump\t// in\n    tag_180:\n        /* \"#utility.yul\":2551:2624   */\n      swap3\n      pop\n        /* \"#utility.yul\":2346:2634   */\n      pop\n        /* \"#utility.yul\":2701:2703   */\n      0x40\n        /* \"#utility.yul\":2690:2699   */\n      dup5\n        /* \"#utility.yul\":2686:2704   */\n      add\n        /* \"#utility.yul\":2673:2705   */\n      calldataload\n        /* \"#utility.yul\":2732:2750   */\n      0xffffffffffffffff\n        /* \"#utility.yul\":2724:2730   */\n      dup2\n        /* \"#utility.yul\":2721:2751   */\n      gt\n        /* \"#utility.yul\":2718:2835   */\n      iszero\n      tag_181\n      jumpi\n        /* \"#utility.yul\":2754:2833   */\n      tag_182\n      tag_170\n      jump\t// in\n    tag_182:\n        /* \"#utility.yul\":2718:2835   */\n    tag_181:\n        /* \"#utility.yul\":2859:2922   */\n      tag_183\n        /* \"#utility.yul\":2914:2921   */\n      dup7\n        /* \"#utility.yul\":2905:2911   */\n      dup3\n        /* \"#utility.yul\":2894:2903   */\n      dup8\n        /* \"#utility.yul\":2890:2912   */\n      add\n        /* \"#utility.yul\":2859:2922   */\n      tag_154\n      jump\t// in\n    tag_183:\n        /* \"#utility.yul\":2849:2922   */\n      swap2\n      pop\n        /* \"#utility.yul\":2644:2932   */\n      pop\n        /* \"#utility.yul\":1780:2939   */\n      swap3\n      pop\n      swap3\n      pop\n      swap3\n      jump\t// out\n        /* \"#utility.yul\":2945:3054   */\n    tag_184:\n        /* \"#utility.yul\":3026:3047   */\n      tag_186\n        /* \"#utility.yul\":3041:3046   */\n      dup2\n        /* \"#utility.yul\":3026:3047   */\n      tag_187\n      jump\t// in\n    tag_186:\n        /* \"#utility.yul\":3021:3024   */\n      dup3\n        /* \"#utility.yul\":3014:3048   */\n      mstore\n        /* \"#utility.yul\":2945:3054   */\n      pop\n      pop\n      jump\t// out\n        /* \"#utility.yul\":3060:3178   */\n    tag_188:\n        /* \"#utility.yul\":3147:3171   */\n      tag_190\n        /* \"#utility.yul\":3165:3170   */\n      dup2\n        /* \"#utility.yul\":3147:3171   */\n      tag_191\n      jump\t// in\n    tag_190:\n        /* \"#utility.yul\":3142:3145   */\n      dup3\n        /* \"#utility.yul\":3135:3172   */\n      mstore\n        /* \"#utility.yul\":3060:3178   */\n      pop\n      pop\n      jump\t// out\n        /* \"#utility.yul\":3184:3528   */\n    tag_192:\n        /* \"#utility.yul\":3262:3265   */\n      0x00\n        /* \"#utility.yul\":3290:3329   */\n      tag_194\n        /* \"#utility.yul\":3323:3328   */\n      dup3\n        /* \"#utility.yul\":3290:3329   */\n      tag_195\n      jump\t// in\n    tag_194:\n        /* \"#utility.yul\":3345:3406   */\n      tag_196\n        /* \"#utility.yul\":3399:3405   */\n      dup2\n        /* \"#utility.yul\":3394:3397   */\n      dup6\n        /* \"#utility.yul\":3345:3406   */\n      tag_197\n      jump\t// in\n    tag_196:\n        /* \"#utility.yul\":3338:3406   */\n      swap4\n      pop\n        /* \"#utility.yul\":3415:3467   */\n      tag_198\n        /* \"#utility.yul\":3460:3466   */\n      dup2\n        /* \"#utility.yul\":3455:3458   */\n      dup6\n        /* \"#utility.yul\":3448:3452   */\n      0x20\n        /* \"#utility.yul\":3441:3446   */\n      dup7\n        /* \"#utility.yul\":3437:3453   */\n      add\n        /* \"#utility.yul\":3415:3467   */\n      tag_199\n      jump\t// in\n    tag_198:\n        /* \"#utility.yul\":3492:3521   */\n      tag_200\n        /* \"#utility.yul\":3514:3520   */\n      dup2\n        /* \"#utility.yul\":3492:3521   */\n      tag_201\n      jump\t// in\n    tag_200:\n        /* \"#utility.yul\":3487:3490   */\n      dup5\n        /* \"#utility.yul\":3483:3522   */\n      add\n        /* \"#utility.yul\":3476:3522   */\n      swap2\n      pop\n        /* \"#utility.yul\":3266:3528   */\n      pop\n        /* \"#utility.yul\":3184:3528   */\n      swap3\n      swap2\n      pop\n      pop\n      jump\t// out\n        /* \"#utility.yul\":3534:3898   */\n    tag_202:\n        /* \"#utility.yul\":3622:3625   */\n      0x00\n        /* \"#utility.yul\":3650:3689   */\n      tag_204\n        /* \"#utility.yul\":3683:3688   */\n      dup3\n        /* \"#utility.yul\":3650:3689   */\n      tag_195\n      jump\t// in\n    tag_204:\n        /* \"#utility.yul\":3705:3776   */\n      tag_205\n        /* \"#utility.yul\":3769:3775   */\n      dup2\n        /* \"#utility.yul\":3764:3767   */\n      dup6\n        /* \"#utility.yul\":3705:3776   */\n      tag_206\n      jump\t// in\n    tag_205:\n        /* \"#utility.yul\":3698:3776   */\n      swap4\n      pop\n        /* \"#utility.yul\":3785:3837   */\n      tag_207\n        /* \"#utility.yul\":3830:3836   */\n      dup2\n        /* \"#utility.yul\":3825:3828   */\n      dup6\n        /* \"#utility.yul\":3818:3822   */\n      0x20\n        /* \"#utility.yul\":3811:3816   */\n      dup7\n        /* \"#utility.yul\":3807:3823   */\n      add\n        /* \"#utility.yul\":3785:3837   */\n      tag_199\n      jump\t// in\n    tag_207:\n        /* \"#utility.yul\":3862:3891   */\n      tag_208\n        /* \"#utility.yul\":3884:3890   */\n      dup2\n        /* \"#utility.yul\":3862:3891   */\n      tag_201\n      jump\t// in\n    tag_208:\n        /* \"#utility.yul\":3857:3860   */\n      dup5\n        /* \"#utility.yul\":3853:3892   */\n      add\n        /* \"#utility.yul\":3846:3892   */\n      swap2\n      pop\n        /* \"#utility.yul\":3626:3898   */\n      pop\n        /* \"#utility.yul\":3534:3898   */\n      swap3\n      swap2\n      pop\n      pop\n      jump\t// out\n        /* \"#utility.yul\":3904:4281   */\n    tag_209:\n        /* \"#utility.yul\":4010:4013   */\n      0x00\n        /* \"#utility.yul\":4038:4077   */\n      tag_211\n        /* \"#utility.yul\":4071:4076   */\n      dup3\n        /* \"#utility.yul\":4038:4077   */\n      tag_195\n      jump\t// in\n    tag_211:\n        /* \"#utility.yul\":4093:4182   */\n      tag_212\n        /* \"#utility.yul\":4175:4181   */\n      dup2\n        /* \"#utility.yul\":4170:4173   */\n      dup6\n        /* \"#utility.yul\":4093:4182   */\n      tag_213\n      jump\t// in\n    tag_212:\n        /* \"#utility.yul\":4086:4182   */\n      swap4\n      pop\n        /* \"#utility.yul\":4191:4243   */\n      tag_214\n        /* \"#utility.yul\":4236:4242   */\n      dup2\n        /* \"#utility.yul\":4231:4234   */\n      dup6\n        /* \"#utility.yul\":4224:4228   */\n      0x20\n        /* \"#utility.yul\":4217:4222   */\n      dup7\n        /* \"#utility.yul\":4213:4229   */\n      add\n        /* \"#utility.yul\":4191:4243   */\n      tag_199\n      jump\t// in\n    tag_214:\n        /* \"#utility.yul\":4268:4274   */\n      dup1\n        /* \"#utility.yul\":4263:4266   */\n      dup5\n        /* \"#utility.yul\":4259:4275   */\n      add\n        /* \"#utility.yul\":4252:4275   */\n      swap2\n      pop\n        /* \"#utility.yul\":4014:4281   */\n      pop\n        /* \"#utility.yul\":3904:4281   */\n      swap3\n      swap2\n      pop\n      pop\n      jump\t// out\n        /* \"#utility.yul\":4311:5156   */\n    tag_215:\n        /* \"#utility.yul\":4414:4417   */\n      0x00\n        /* \"#utility.yul\":4451:4456   */\n      dup2\n        /* \"#utility.yul\":4445:4457   */\n      sload\n        /* \"#utility.yul\":4480:4516   */\n      tag_217\n        /* \"#utility.yul\":4506:4515   */\n      dup2\n        /* \"#utility.yul\":4480:4516   */\n      tag_36\n      jump\t// in\n    tag_217:\n        /* \"#utility.yul\":4532:4621   */\n      tag_218\n        /* \"#utility.yul\":4614:4620   */\n      dup2\n        /* \"#utility.yul\":4609:4612   */\n      dup7\n        /* \"#utility.yul\":4532:4621   */\n      tag_213\n      jump\t// in\n    tag_218:\n        /* \"#utility.yul\":4525:4621   */\n      swap5\n      pop\n        /* \"#utility.yul\":4652:4653   */\n      0x01\n        /* \"#utility.yul\":4641:4650   */\n      dup3\n        /* \"#utility.yul\":4637:4654   */\n      and\n        /* \"#utility.yul\":4668:4669   */\n      0x00\n        /* \"#utility.yul\":4663:4800   */\n      dup2\n      eq\n      tag_220\n      jumpi\n        /* \"#utility.yul\":4814:4815   */\n      0x01\n        /* \"#utility.yul\":4809:5150   */\n      dup2\n      eq\n      tag_221\n      jumpi\n        /* \"#utility.yul\":4630:5150   */\n      jump(tag_219)\n        /* \"#utility.yul\":4663:4800   */\n    tag_220:\n        /* \"#utility.yul\":4747:4751   */\n      0xff\n        /* \"#utility.yul\":4743:4752   */\n      not\n        /* \"#utility.yul\":4732:4741   */\n      dup4\n        /* \"#utility.yul\":4728:4753   */\n      and\n        /* \"#utility.yul\":4723:4726   */\n      dup7\n        /* \"#utility.yul\":4716:4754   */\n      mstore\n        /* \"#utility.yul\":4783:4789   */\n      dup2\n        /* \"#utility.yul\":4778:4781   */\n      dup7\n        /* \"#utility.yul\":4774:4790   */\n      add\n        /* \"#utility.yul\":4767:4790   */\n      swap4\n      pop\n        /* \"#utility.yul\":4663:4800   */\n      jump(tag_219)\n        /* \"#utility.yul\":4809:5150   */\n    tag_221:\n        /* \"#utility.yul\":4876:4914   */\n      tag_222\n        /* \"#utility.yul\":4908:4913   */\n      dup6\n        /* \"#utility.yul\":4876:4914   */\n      tag_223\n      jump\t// in\n    tag_222:\n        /* \"#utility.yul\":4936:4937   */\n      0x00\n        /* \"#utility.yul\":4950:5104   */\n    tag_224:\n        /* \"#utility.yul\":4964:4970   */\n      dup4\n        /* \"#utility.yul\":4961:4962   */\n      dup2\n        /* \"#utility.yul\":4958:4971   */\n      lt\n        /* \"#utility.yul\":4950:5104   */\n      iszero\n      tag_226\n      jumpi\n        /* \"#utility.yul\":5038:5045   */\n      dup2\n        /* \"#utility.yul\":5032:5046   */\n      sload\n        /* \"#utility.yul\":5028:5029   */\n      dup2\n        /* \"#utility.yul\":5023:5026   */\n      dup10\n        /* \"#utility.yul\":5019:5030   */\n      add\n        /* \"#utility.yul\":5012:5047   */\n      mstore\n        /* \"#utility.yul\":5088:5089   */\n      0x01\n        /* \"#utility.yul\":5079:5086   */\n      dup3\n        /* \"#utility.yul\":5075:5090   */\n      add\n        /* \"#utility.yul\":5064:5090   */\n      swap2\n      pop\n        /* \"#utility.yul\":4986:4990   */\n      0x20\n        /* \"#utility.yul\":4983:4984   */\n      dup2\n        /* \"#utility.yul\":4979:4991   */\n      add\n        /* \"#utility.yul\":4974:4991   */\n      swap1\n      pop\n        /* \"#utility.yul\":4950:5104   */\n      jump(tag_224)\n    tag_226:\n        /* \"#utility.yul\":5133:5139   */\n      dup4\n        /* \"#utility.yul\":5128:5131   */\n      dup9\n        /* \"#utility.yul\":5124:5140   */\n      add\n        /* \"#utility.yul\":5117:5140   */\n      swap6\n      pop\n        /* \"#utility.yul\":4816:5150   */\n      pop\n      pop\n        /* \"#utility.yul\":4630:5150   */\n    tag_219:\n      pop\n        /* \"#utility.yul\":4418:5156   */\n      pop\n      pop\n        /* \"#utility.yul\":4311:5156   */\n      swap3\n      swap2\n      pop\n      pop\n      jump\t// out\n        /* \"#utility.yul\":5162:5528   */\n    tag_227:\n        /* \"#utility.yul\":5304:5307   */\n      0x00\n        /* \"#utility.yul\":5325:5392   */\n      tag_229\n        /* \"#utility.yul\":5389:5391   */\n      0x18\n        /* \"#utility.yul\":5384:5387   */\n      dup4\n        /* \"#utility.yul\":5325:5392   */\n      tag_206\n      jump\t// in\n    tag_229:\n        /* \"#utility.yul\":5318:5392   */\n      swap2\n      pop\n        /* \"#utility.yul\":5401:5494   */\n      tag_230\n        /* \"#utility.yul\":5490:5493   */\n      dup3\n        /* \"#utility.yul\":5401:5494   */\n      tag_231\n      jump\t// in\n    tag_230:\n        /* \"#utility.yul\":5519:5521   */\n      0x20\n        /* \"#utility.yul\":5514:5517   */\n      dup3\n        /* \"#utility.yul\":5510:5522   */\n      add\n        /* \"#utility.yul\":5503:5522   */\n      swap1\n      pop\n        /* \"#utility.yul\":5162:5528   */\n      swap2\n      swap1\n      pop\n      jump\t// out\n        /* \"#utility.yul\":5534:5899   */\n    tag_232:\n        /* \"#utility.yul\":5676:5679   */\n      0x00\n        /* \"#utility.yul\":5697:5763   */\n      tag_234\n        /* \"#utility.yul\":5761:5762   */\n      0x07\n        /* \"#utility.yul\":5756:5759   */\n      dup4\n        /* \"#utility.yul\":5697:5763   */\n      tag_206\n      jump\t// in\n    tag_234:\n        /* \"#utility.yul\":5690:5763   */\n      swap2\n      pop\n        /* \"#utility.yul\":5772:5865   */\n      tag_235\n        /* \"#utility.yul\":5861:5864   */\n      dup3\n        /* \"#utility.yul\":5772:5865   */\n      tag_236\n      jump\t// in\n    tag_235:\n        /* \"#utility.yul\":5890:5892   */\n      0x20\n        /* \"#utility.yul\":5885:5888   */\n      dup3\n        /* \"#utility.yul\":5881:5893   */\n      add\n        /* \"#utility.yul\":5874:5893   */\n      swap1\n      pop\n        /* \"#utility.yul\":5534:5899   */\n      swap2\n      swap1\n      pop\n      jump\t// out\n        /* \"#utility.yul\":5965:7077   */\n    tag_237:\n        /* \"#utility.yul\":6088:6091   */\n      0x00\n        /* \"#utility.yul\":6124:6128   */\n      0x80\n        /* \"#utility.yul\":6119:6122   */\n      dup4\n        /* \"#utility.yul\":6115:6129   */\n      add\n        /* \"#utility.yul\":6217:6221   */\n      0x00\n        /* \"#utility.yul\":6210:6215   */\n      dup4\n        /* \"#utility.yul\":6206:6222   */\n      add\n        /* \"#utility.yul\":6200:6223   */\n      mload\n        /* \"#utility.yul\":6270:6273   */\n      dup5\n        /* \"#utility.yul\":6264:6268   */\n      dup3\n        /* \"#utility.yul\":6260:6274   */\n      sub\n        /* \"#utility.yul\":6253:6257   */\n      0x00\n        /* \"#utility.yul\":6248:6251   */\n      dup7\n        /* \"#utility.yul\":6244:6258   */\n      add\n        /* \"#utility.yul\":6237:6275   */\n      mstore\n        /* \"#utility.yul\":6296:6369   */\n      tag_239\n        /* \"#utility.yul\":6364:6368   */\n      dup3\n        /* \"#utility.yul\":6350:6362   */\n      dup3\n        /* \"#utility.yul\":6296:6369   */\n      tag_192\n      jump\t// in\n    tag_239:\n        /* \"#utility.yul\":6288:6369   */\n      swap2\n      pop\n        /* \"#utility.yul\":6139:6380   */\n      pop\n        /* \"#utility.yul\":6462:6466   */\n      0x20\n        /* \"#utility.yul\":6455:6460   */\n      dup4\n        /* \"#utility.yul\":6451:6467   */\n      add\n        /* \"#utility.yul\":6445:6468   */\n      mload\n        /* \"#utility.yul\":6515:6518   */\n      dup5\n        /* \"#utility.yul\":6509:6513   */\n      dup3\n        /* \"#utility.yul\":6505:6519   */\n      sub\n        /* \"#utility.yul\":6498:6502   */\n      0x20\n        /* \"#utility.yul\":6493:6496   */\n      dup7\n        /* \"#utility.yul\":6489:6503   */\n      add\n        /* \"#utility.yul\":6482:6520   */\n      mstore\n        /* \"#utility.yul\":6541:6614   */\n      tag_240\n        /* \"#utility.yul\":6609:6613   */\n      dup3\n        /* \"#utility.yul\":6595:6607   */\n      dup3\n        /* \"#utility.yul\":6541:6614   */\n      tag_192\n      jump\t// in\n    tag_240:\n        /* \"#utility.yul\":6533:6614   */\n      swap2\n      pop\n        /* \"#utility.yul\":6390:6625   */\n      pop\n        /* \"#utility.yul\":6707:6711   */\n      0x40\n        /* \"#utility.yul\":6700:6705   */\n      dup4\n        /* \"#utility.yul\":6696:6712   */\n      add\n        /* \"#utility.yul\":6690:6713   */\n      mload\n        /* \"#utility.yul\":6760:6763   */\n      dup5\n        /* \"#utility.yul\":6754:6758   */\n      dup3\n        /* \"#utility.yul\":6750:6764   */\n      sub\n        /* \"#utility.yul\":6743:6747   */\n      0x40\n        /* \"#utility.yul\":6738:6741   */\n      dup7\n        /* \"#utility.yul\":6734:6748   */\n      add\n        /* \"#utility.yul\":6727:6765   */\n      mstore\n        /* \"#utility.yul\":6786:6859   */\n      tag_241\n        /* \"#utility.yul\":6854:6858   */\n      dup3\n        /* \"#utility.yul\":6840:6852   */\n      dup3\n        /* \"#utility.yul\":6786:6859   */\n      tag_192\n      jump\t// in\n    tag_241:\n        /* \"#utility.yul\":6778:6859   */\n      swap2\n      pop\n        /* \"#utility.yul\":6635:6870   */\n      pop\n        /* \"#utility.yul\":6958:6962   */\n      0x60\n        /* \"#utility.yul\":6951:6956   */\n      dup4\n        /* \"#utility.yul\":6947:6963   */\n      add\n        /* \"#utility.yul\":6941:6964   */\n      mload\n        /* \"#utility.yul\":6977:7040   */\n      tag_242\n        /* \"#utility.yul\":7034:7038   */\n      0x60\n        /* \"#utility.yul\":7029:7032   */\n      dup7\n        /* \"#utility.yul\":7025:7039   */\n      add\n        /* \"#utility.yul\":7011:7023   */\n      dup3\n        /* \"#utility.yul\":6977:7040   */\n      tag_243\n      jump\t// in\n    tag_242:\n        /* \"#utility.yul\":6880:7050   */\n      pop\n        /* \"#utility.yul\":7067:7071   */\n      dup1\n        /* \"#utility.yul\":7060:7071   */\n      swap2\n      pop\n        /* \"#utility.yul\":6093:7077   */\n      pop\n        /* \"#utility.yul\":5965:7077   */\n      swap3\n      swap2\n      pop\n      pop\n      jump\t// out\n        /* \"#utility.yul\":7083:7191   */\n    tag_243:\n        /* \"#utility.yul\":7160:7184   */\n      tag_245\n        /* \"#utility.yul\":7178:7183   */\n      dup2\n        /* \"#utility.yul\":7160:7184   */\n      tag_246\n      jump\t// in\n    tag_245:\n        /* \"#utility.yul\":7155:7158   */\n      dup3\n        /* \"#utility.yul\":7148:7185   */\n      mstore\n        /* \"#utility.yul\":7083:7191   */\n      pop\n      pop\n      jump\t// out\n        /* \"#utility.yul\":7197:7315   */\n    tag_247:\n        /* \"#utility.yul\":7284:7308   */\n      tag_249\n        /* \"#utility.yul\":7302:7307   */\n      dup2\n        /* \"#utility.yul\":7284:7308   */\n      tag_246\n      jump\t// in\n    tag_249:\n        /* \"#utility.yul\":7279:7282   */\n      dup3\n        /* \"#utility.yul\":7272:7309   */\n      mstore\n        /* \"#utility.yul\":7197:7315   */\n      pop\n      pop\n      jump\t// out\n        /* \"#utility.yul\":7321:7596   */\n    tag_34:\n        /* \"#utility.yul\":7453:7456   */\n      0x00\n        /* \"#utility.yul\":7475:7570   */\n      tag_251\n        /* \"#utility.yul\":7566:7569   */\n      dup3\n        /* \"#utility.yul\":7557:7563   */\n      dup5\n        /* \"#utility.yul\":7475:7570   */\n      tag_209\n      jump\t// in\n    tag_251:\n        /* \"#utility.yul\":7468:7570   */\n      swap2\n      pop\n        /* \"#utility.yul\":7587:7590   */\n      dup2\n        /* \"#utility.yul\":7580:7590   */\n      swap1\n      pop\n        /* \"#utility.yul\":7321:7596   */\n      swap3\n      swap2\n      pop\n      pop\n      jump\t// out\n        /* \"#utility.yul\":7602:7871   */\n    tag_127:\n        /* \"#utility.yul\":7731:7734   */\n      0x00\n        /* \"#utility.yul\":7753:7845   */\n      tag_253\n        /* \"#utility.yul\":7841:7844   */\n      dup3\n        /* \"#utility.yul\":7832:7838   */\n      dup5\n        /* \"#utility.yul\":7753:7845   */\n      tag_215\n      jump\t// in\n    tag_253:\n        /* \"#utility.yul\":7746:7845   */\n      swap2\n      pop\n        /* \"#utility.yul\":7862:7865   */\n      dup2\n        /* \"#utility.yul\":7855:7865   */\n      swap1\n      pop\n        /* \"#utility.yul\":7602:7871   */\n      swap3\n      swap2\n      pop\n      pop\n      jump\t// out\n        /* \"#utility.yul\":7877:8099   */\n    tag_29:\n        /* \"#utility.yul\":7970:7974   */\n      0x00\n        /* \"#utility.yul\":8008:8010   */\n      0x20\n        /* \"#utility.yul\":7997:8006   */\n      dup3\n        /* \"#utility.yul\":7993:8011   */\n      add\n        /* \"#utility.yul\":7985:8011   */\n      swap1\n      pop\n        /* \"#utility.yul\":8021:8092   */\n      tag_255\n        /* \"#utility.yul\":8089:8090   */\n      0x00\n        /* \"#utility.yul\":8078:8087   */\n      dup4\n        /* \"#utility.yul\":8074:8091   */\n      add\n        /* \"#utility.yul\":8065:8071   */\n      dup5\n        /* \"#utility.yul\":8021:8092   */\n      tag_188\n      jump\t// in\n    tag_255:\n        /* \"#utility.yul\":7877:8099   */\n      swap3\n      swap2\n      pop\n      pop\n      jump\t// out\n        /* \"#utility.yul\":8105:10345   */\n    tag_18:\n        /* \"#utility.yul\":8676:8680   */\n      0x00\n        /* \"#utility.yul\":8714:8717   */\n      0x0180\n        /* \"#utility.yul\":8703:8712   */\n      dup3\n        /* \"#utility.yul\":8699:8718   */\n      add\n        /* \"#utility.yul\":8691:8718   */\n      swap1\n      pop\n        /* \"#utility.yul\":8764:8773   */\n      dup2\n        /* \"#utility.yul\":8758:8762   */\n      dup2\n        /* \"#utility.yul\":8754:8774   */\n      sub\n        /* \"#utility.yul\":8750:8751   */\n      0x00\n        /* \"#utility.yul\":8739:8748   */\n      dup4\n        /* \"#utility.yul\":8735:8752   */\n      add\n        /* \"#utility.yul\":8728:8775   */\n      mstore\n        /* \"#utility.yul\":8792:8870   */\n      tag_257\n        /* \"#utility.yul\":8865:8869   */\n      dup2\n        /* \"#utility.yul\":8856:8862   */\n      dup16\n        /* \"#utility.yul\":8792:8870   */\n      tag_202\n      jump\t// in\n    tag_257:\n        /* \"#utility.yul\":8784:8870   */\n      swap1\n      pop\n        /* \"#utility.yul\":8880:8946   */\n      tag_258\n        /* \"#utility.yul\":8942:8944   */\n      0x20\n        /* \"#utility.yul\":8931:8940   */\n      dup4\n        /* \"#utility.yul\":8927:8945   */\n      add\n        /* \"#utility.yul\":8918:8924   */\n      dup15\n        /* \"#utility.yul\":8880:8946   */\n      tag_184\n      jump\t// in\n    tag_258:\n        /* \"#utility.yul\":8956:9028   */\n      tag_259\n        /* \"#utility.yul\":9024:9026   */\n      0x40\n        /* \"#utility.yul\":9013:9022   */\n      dup4\n        /* \"#utility.yul\":9009:9027   */\n      add\n        /* \"#utility.yul\":9000:9006   */\n      dup14\n        /* \"#utility.yul\":8956:9028   */\n      tag_247\n      jump\t// in\n    tag_259:\n        /* \"#utility.yul\":9075:9084   */\n      dup2\n        /* \"#utility.yul\":9069:9073   */\n      dup2\n        /* \"#utility.yul\":9065:9085   */\n      sub\n        /* \"#utility.yul\":9060:9062   */\n      0x60\n        /* \"#utility.yul\":9049:9058   */\n      dup4\n        /* \"#utility.yul\":9045:9063   */\n      add\n        /* \"#utility.yul\":9038:9086   */\n      mstore\n        /* \"#utility.yul\":9103:9181   */\n      tag_260\n        /* \"#utility.yul\":9176:9180   */\n      dup2\n        /* \"#utility.yul\":9167:9173   */\n      dup13\n        /* \"#utility.yul\":9103:9181   */\n      tag_202\n      jump\t// in\n    tag_260:\n        /* \"#utility.yul\":9095:9181   */\n      swap1\n      pop\n        /* \"#utility.yul\":9229:9238   */\n      dup2\n        /* \"#utility.yul\":9223:9227   */\n      dup2\n        /* \"#utility.yul\":9219:9239   */\n      sub\n        /* \"#utility.yul\":9213:9216   */\n      0x80\n        /* \"#utility.yul\":9202:9211   */\n      dup4\n        /* \"#utility.yul\":9198:9217   */\n      add\n        /* \"#utility.yul\":9191:9240   */\n      mstore\n        /* \"#utility.yul\":9257:9335   */\n      tag_261\n        /* \"#utility.yul\":9330:9334   */\n      dup2\n        /* \"#utility.yul\":9321:9327   */\n      dup12\n        /* \"#utility.yul\":9257:9335   */\n      tag_202\n      jump\t// in\n    tag_261:\n        /* \"#utility.yul\":9249:9335   */\n      swap1\n      pop\n        /* \"#utility.yul\":9383:9392   */\n      dup2\n        /* \"#utility.yul\":9377:9381   */\n      dup2\n        /* \"#utility.yul\":9373:9393   */\n      sub\n        /* \"#utility.yul\":9367:9370   */\n      0xa0\n        /* \"#utility.yul\":9356:9365   */\n      dup4\n        /* \"#utility.yul\":9352:9371   */\n      add\n        /* \"#utility.yul\":9345:9394   */\n      mstore\n        /* \"#utility.yul\":9411:9489   */\n      tag_262\n        /* \"#utility.yul\":9484:9488   */\n      dup2\n        /* \"#utility.yul\":9475:9481   */\n      dup11\n        /* \"#utility.yul\":9411:9489   */\n      tag_202\n      jump\t// in\n    tag_262:\n        /* \"#utility.yul\":9403:9489   */\n      swap1\n      pop\n        /* \"#utility.yul\":9537:9546   */\n      dup2\n        /* \"#utility.yul\":9531:9535   */\n      dup2\n        /* \"#utility.yul\":9527:9547   */\n      sub\n        /* \"#utility.yul\":9521:9524   */\n      0xc0\n        /* \"#utility.yul\":9510:9519   */\n      dup4\n        /* \"#utility.yul\":9506:9525   */\n      add\n        /* \"#utility.yul\":9499:9548   */\n      mstore\n        /* \"#utility.yul\":9565:9643   */\n      tag_263\n        /* \"#utility.yul\":9638:9642   */\n      dup2\n        /* \"#utility.yul\":9629:9635   */\n      dup10\n        /* \"#utility.yul\":9565:9643   */\n      tag_202\n      jump\t// in\n    tag_263:\n        /* \"#utility.yul\":9557:9643   */\n      swap1\n      pop\n        /* \"#utility.yul\":9691:9700   */\n      dup2\n        /* \"#utility.yul\":9685:9689   */\n      dup2\n        /* \"#utility.yul\":9681:9701   */\n      sub\n        /* \"#utility.yul\":9675:9678   */\n      0xe0\n        /* \"#utility.yul\":9664:9673   */\n      dup4\n        /* \"#utility.yul\":9660:9679   */\n      add\n        /* \"#utility.yul\":9653:9702   */\n      mstore\n        /* \"#utility.yul\":9719:9797   */\n      tag_264\n        /* \"#utility.yul\":9792:9796   */\n      dup2\n        /* \"#utility.yul\":9783:9789   */\n      dup9\n        /* \"#utility.yul\":9719:9797   */\n      tag_202\n      jump\t// in\n    tag_264:\n        /* \"#utility.yul\":9711:9797   */\n      swap1\n      pop\n        /* \"#utility.yul\":9845:9854   */\n      dup2\n        /* \"#utility.yul\":9839:9843   */\n      dup2\n        /* \"#utility.yul\":9835:9855   */\n      sub\n        /* \"#utility.yul\":9829:9832   */\n      0x0100\n        /* \"#utility.yul\":9818:9827   */\n      dup4\n        /* \"#utility.yul\":9814:9833   */\n      add\n        /* \"#utility.yul\":9807:9856   */\n      mstore\n        /* \"#utility.yul\":9873:9951   */\n      tag_265\n        /* \"#utility.yul\":9946:9950   */\n      dup2\n        /* \"#utility.yul\":9937:9943   */\n      dup8\n        /* \"#utility.yul\":9873:9951   */\n      tag_202\n      jump\t// in\n    tag_265:\n        /* \"#utility.yul\":9865:9951   */\n      swap1\n      pop\n        /* \"#utility.yul\":9999:10008   */\n      dup2\n        /* \"#utility.yul\":9993:9997   */\n      dup2\n        /* \"#utility.yul\":9989:10009   */\n      sub\n        /* \"#utility.yul\":9983:9986   */\n      0x0120\n        /* \"#utility.yul\":9972:9981   */\n      dup4\n        /* \"#utility.yul\":9968:9987   */\n      add\n        /* \"#utility.yul\":9961:10010   */\n      mstore\n        /* \"#utility.yul\":10027:10105   */\n      tag_266\n        /* \"#utility.yul\":10100:10104   */\n      dup2\n        /* \"#utility.yul\":10091:10097   */\n      dup7\n        /* \"#utility.yul\":10027:10105   */\n      tag_202\n      jump\t// in\n    tag_266:\n        /* \"#utility.yul\":10019:10105   */\n      swap1\n      pop\n        /* \"#utility.yul\":10115:10183   */\n      tag_267\n        /* \"#utility.yul\":10178:10181   */\n      0x0140\n        /* \"#utility.yul\":10167:10176   */\n      dup4\n        /* \"#utility.yul\":10163:10182   */\n      add\n        /* \"#utility.yul\":10153:10160   */\n      dup6\n        /* \"#utility.yul\":10115:10183   */\n      tag_184\n      jump\t// in\n    tag_267:\n        /* \"#utility.yul\":10231:10240   */\n      dup2\n        /* \"#utility.yul\":10225:10229   */\n      dup2\n        /* \"#utility.yul\":10221:10241   */\n      sub\n        /* \"#utility.yul\":10215:10218   */\n      0x0160\n        /* \"#utility.yul\":10204:10213   */\n      dup4\n        /* \"#utility.yul\":10200:10219   */\n      add\n        /* \"#utility.yul\":10193:10242   */\n      mstore\n        /* \"#utility.yul\":10259:10338   */\n      tag_268\n        /* \"#utility.yul\":10333:10337   */\n      dup2\n        /* \"#utility.yul\":10323:10330   */\n      dup5\n        /* \"#utility.yul\":10259:10338   */\n      tag_202\n      jump\t// in\n    tag_268:\n        /* \"#utility.yul\":10251:10338   */\n      swap1\n      pop\n        /* \"#utility.yul\":8105:10345   */\n      swap14\n      swap13\n      pop\n      pop\n      pop\n      pop\n      pop\n      pop\n      pop\n      pop\n      pop\n      pop\n      pop\n      pop\n      pop\n      jump\t// out\n        /* \"#utility.yul\":10351:11177   */\n    tag_23:\n        /* \"#utility.yul\":10588:10592   */\n      0x00\n        /* \"#utility.yul\":10626:10629   */\n      0x80\n        /* \"#utility.yul\":10615:10624   */\n      dup3\n        /* \"#utility.yul\":10611:10630   */\n      add\n        /* \"#utility.yul\":10603:10630   */\n      swap1\n      pop\n        /* \"#utility.yul\":10676:10685   */\n      dup2\n        /* \"#utility.yul\":10670:10674   */\n      dup2\n        /* \"#utility.yul\":10666:10686   */\n      sub\n        /* \"#utility.yul\":10662:10663   */\n      0x00\n        /* \"#utility.yul\":10651:10660   */\n      dup4\n        /* \"#utility.yul\":10647:10664   */\n      add\n        /* \"#utility.yul\":10640:10687   */\n      mstore\n        /* \"#utility.yul\":10704:10782   */\n      tag_270\n        /* \"#utility.yul\":10777:10781   */\n      dup2\n        /* \"#utility.yul\":10768:10774   */\n      dup8\n        /* \"#utility.yul\":10704:10782   */\n      tag_202\n      jump\t// in\n    tag_270:\n        /* \"#utility.yul\":10696:10782   */\n      swap1\n      pop\n        /* \"#utility.yul\":10829:10838   */\n      dup2\n        /* \"#utility.yul\":10823:10827   */\n      dup2\n        /* \"#utility.yul\":10819:10839   */\n      sub\n        /* \"#utility.yul\":10814:10816   */\n      0x20\n        /* \"#utility.yul\":10803:10812   */\n      dup4\n        /* \"#utility.yul\":10799:10817   */\n      add\n        /* \"#utility.yul\":10792:10840   */\n      mstore\n        /* \"#utility.yul\":10857:10935   */\n      tag_271\n        /* \"#utility.yul\":10930:10934   */\n      dup2\n        /* \"#utility.yul\":10921:10927   */\n      dup7\n        /* \"#utility.yul\":10857:10935   */\n      tag_202\n      jump\t// in\n    tag_271:\n        /* \"#utility.yul\":10849:10935   */\n      swap1\n      pop\n        /* \"#utility.yul\":10982:10991   */\n      dup2\n        /* \"#utility.yul\":10976:10980   */\n      dup2\n        /* \"#utility.yul\":10972:10992   */\n      sub\n        /* \"#utility.yul\":10967:10969   */\n      0x40\n        /* \"#utility.yul\":10956:10965   */\n      dup4\n        /* \"#utility.yul\":10952:10970   */\n      add\n        /* \"#utility.yul\":10945:10993   */\n      mstore\n        /* \"#utility.yul\":11010:11088   */\n      tag_272\n        /* \"#utility.yul\":11083:11087   */\n      dup2\n        /* \"#utility.yul\":11074:11080   */\n      dup6\n        /* \"#utility.yul\":11010:11088   */\n      tag_202\n      jump\t// in\n    tag_272:\n        /* \"#utility.yul\":11002:11088   */\n      swap1\n      pop\n        /* \"#utility.yul\":11098:11170   */\n      tag_273\n        /* \"#utility.yul\":11166:11168   */\n      0x60\n        /* \"#utility.yul\":11155:11164   */\n      dup4\n        /* \"#utility.yul\":11151:11169   */\n      add\n        /* \"#utility.yul\":11142:11148   */\n      dup5\n        /* \"#utility.yul\":11098:11170   */\n      tag_247\n      jump\t// in\n    tag_273:\n        /* \"#utility.yul\":10351:11177   */\n      swap6\n      swap5\n      pop\n      pop\n      pop\n      pop\n      pop\n      jump\t// out\n        /* \"#utility.yul\":11183:11602   */\n    tag_117:\n        /* \"#utility.yul\":11349:11353   */\n      0x00\n        /* \"#utility.yul\":11387:11389   */\n      0x20\n        /* \"#utility.yul\":11376:11385   */\n      dup3\n        /* \"#utility.yul\":11372:11390   */\n      add\n        /* \"#utility.yul\":11364:11390   */\n      swap1\n      pop\n        /* \"#utility.yul\":11436:11445   */\n      dup2\n        /* \"#utility.yul\":11430:11434   */\n      dup2\n        /* \"#utility.yul\":11426:11446   */\n      sub\n        /* \"#utility.yul\":11422:11423   */\n      0x00\n        /* \"#utility.yul\":11411:11420   */\n      dup4\n        /* \"#utility.yul\":11407:11424   */\n      add\n        /* \"#utility.yul\":11400:11447   */\n      mstore\n        /* \"#utility.yul\":11464:11595   */\n      tag_275\n        /* \"#utility.yul\":11590:11594   */\n      dup2\n        /* \"#utility.yul\":11464:11595   */\n      tag_227\n      jump\t// in\n    tag_275:\n        /* \"#utility.yul\":11456:11595   */\n      swap1\n      pop\n        /* \"#utility.yul\":11183:11602   */\n      swap2\n      swap1\n      pop\n      jump\t// out\n        /* \"#utility.yul\":11608:12137   */\n    tag_123:\n        /* \"#utility.yul\":11802:11806   */\n      0x00\n        /* \"#utility.yul\":11840:11842   */\n      0x40\n        /* \"#utility.yul\":11829:11838   */\n      dup3\n        /* \"#utility.yul\":11825:11843   */\n      add\n        /* \"#utility.yul\":11817:11843   */\n      swap1\n      pop\n        /* \"#utility.yul\":11889:11898   */\n      dup2\n        /* \"#utility.yul\":11883:11887   */\n      dup2\n        /* \"#utility.yul\":11879:11899   */\n      sub\n        /* \"#utility.yul\":11875:11876   */\n      0x00\n        /* \"#utility.yul\":11864:11873   */\n      dup4\n        /* \"#utility.yul\":11860:11877   */\n      add\n        /* \"#utility.yul\":11853:11900   */\n      mstore\n        /* \"#utility.yul\":11917:12048   */\n      tag_277\n        /* \"#utility.yul\":12043:12047   */\n      dup2\n        /* \"#utility.yul\":11917:12048   */\n      tag_232\n      jump\t// in\n    tag_277:\n        /* \"#utility.yul\":11909:12048   */\n      swap1\n      pop\n        /* \"#utility.yul\":12058:12130   */\n      tag_278\n        /* \"#utility.yul\":12126:12128   */\n      0x20\n        /* \"#utility.yul\":12115:12124   */\n      dup4\n        /* \"#utility.yul\":12111:12129   */\n      add\n        /* \"#utility.yul\":12102:12108   */\n      dup5\n        /* \"#utility.yul\":12058:12130   */\n      tag_188\n      jump\t// in\n    tag_278:\n        /* \"#utility.yul\":11608:12137   */\n      swap3\n      swap2\n      pop\n      pop\n      jump\t// out\n        /* \"#utility.yul\":12143:12524   */\n    tag_12:\n        /* \"#utility.yul\":12290:12294   */\n      0x00\n        /* \"#utility.yul\":12328:12330   */\n      0x20\n        /* \"#utility.yul\":12317:12326   */\n      dup3\n        /* \"#utility.yul\":12313:12331   */\n      add\n        /* \"#utility.yul\":12305:12331   */\n      swap1\n      pop\n        /* \"#utility.yul\":12377:12386   */\n      dup2\n        /* \"#utility.yul\":12371:12375   */\n      dup2\n        /* \"#utility.yul\":12367:12387   */\n      sub\n        /* \"#utility.yul\":12363:12364   */\n      0x00\n        /* \"#utility.yul\":12352:12361   */\n      dup4\n        /* \"#utility.yul\":12348:12365   */\n      add\n        /* \"#utility.yul\":12341:12388   */\n      mstore\n        /* \"#utility.yul\":12405:12517   */\n      tag_280\n        /* \"#utility.yul\":12512:12516   */\n      dup2\n        /* \"#utility.yul\":12503:12509   */\n      dup5\n        /* \"#utility.yul\":12405:12517   */\n      tag_237\n      jump\t// in\n    tag_280:\n        /* \"#utility.yul\":12397:12517   */\n      swap1\n      pop\n        /* \"#utility.yul\":12143:12524   */\n      swap3\n      swap2\n      pop\n      pop\n      jump\t// out\n        /* \"#utility.yul\":12530:12659   */\n    tag_144:\n        /* \"#utility.yul\":12564:12570   */\n      0x00\n        /* \"#utility.yul\":12591:12611   */\n      tag_282\n      tag_283\n      jump\t// in\n    tag_282:\n        /* \"#utility.yul\":12581:12611   */\n      swap1\n      pop\n        /* \"#utility.yul\":12620:12653   */\n      tag_284\n        /* \"#utility.yul\":12648:12652   */\n      dup3\n        /* \"#utility.yul\":12640:12646   */\n      dup3\n        /* \"#utility.yul\":12620:12653   */\n      tag_285\n      jump\t// in\n    tag_284:\n        /* \"#utility.yul\":12530:12659   */\n      swap2\n      swap1\n      pop\n      jump\t// out\n        /* \"#utility.yul\":12665:12740   */\n    tag_283:\n        /* \"#utility.yul\":12698:12704   */\n      0x00\n        /* \"#utility.yul\":12731:12733   */\n      0x40\n        /* \"#utility.yul\":12725:12734   */\n      mload\n        /* \"#utility.yul\":12715:12734   */\n      swap1\n      pop\n        /* \"#utility.yul\":12665:12740   */\n      swap1\n      jump\t// out\n        /* \"#utility.yul\":12746:13054   */\n    tag_143:\n        /* \"#utility.yul\":12808:12812   */\n      0x00\n        /* \"#utility.yul\":12898:12916   */\n      0xffffffffffffffff\n        /* \"#utility.yul\":12890:12896   */\n      dup3\n        /* \"#utility.yul\":12887:12917   */\n      gt\n        /* \"#utility.yul\":12884:12940   */\n      iszero\n      tag_288\n      jumpi\n        /* \"#utility.yul\":12920:12938   */\n      tag_289\n      tag_290\n      jump\t// in\n    tag_289:\n        /* \"#utility.yul\":12884:12940   */\n    tag_288:\n        /* \"#utility.yul\":12958:12987   */\n      tag_291\n        /* \"#utility.yul\":12980:12986   */\n      dup3\n        /* \"#utility.yul\":12958:12987   */\n      tag_201\n      jump\t// in\n    tag_291:\n        /* \"#utility.yul\":12950:12987   */\n      swap1\n      pop\n        /* \"#utility.yul\":13042:13046   */\n      0x20\n        /* \"#utility.yul\":13036:13040   */\n      dup2\n        /* \"#utility.yul\":13032:13047   */\n      add\n        /* \"#utility.yul\":13024:13047   */\n      swap1\n      pop\n        /* \"#utility.yul\":12746:13054   */\n      swap2\n      swap1\n      pop\n      jump\t// out\n        /* \"#utility.yul\":13060:13201   */\n    tag_223:\n        /* \"#utility.yul\":13109:13113   */\n      0x00\n        /* \"#utility.yul\":13132:13135   */\n      dup2\n        /* \"#utility.yul\":13124:13135   */\n      swap1\n      pop\n        /* \"#utility.yul\":13155:13158   */\n      dup2\n        /* \"#utility.yul\":13152:13153   */\n      0x00\n        /* \"#utility.yul\":13145:13159   */\n      mstore\n        /* \"#utility.yul\":13189:13193   */\n      0x20\n        /* \"#utility.yul\":13186:13187   */\n      0x00\n        /* \"#utility.yul\":13176:13194   */\n      keccak256\n        /* \"#utility.yul\":13168:13194   */\n      swap1\n      pop\n        /* \"#utility.yul\":13060:13201   */\n      swap2\n      swap1\n      pop\n      jump\t// out\n        /* \"#utility.yul\":13207:13306   */\n    tag_195:\n        /* \"#utility.yul\":13259:13265   */\n      0x00\n        /* \"#utility.yul\":13293:13298   */\n      dup2\n        /* \"#utility.yul\":13287:13299   */\n      mload\n        /* \"#utility.yul\":13277:13299   */\n      swap1\n      pop\n        /* \"#utility.yul\":13207:13306   */\n      swap2\n      swap1\n      pop\n      jump\t// out\n        /* \"#utility.yul\":13312:13471   */\n    tag_197:\n        /* \"#utility.yul\":13386:13397   */\n      0x00\n        /* \"#utility.yul\":13420:13426   */\n      dup3\n        /* \"#utility.yul\":13415:13418   */\n      dup3\n        /* \"#utility.yul\":13408:13427   */\n      mstore\n        /* \"#utility.yul\":13460:13464   */\n      0x20\n        /* \"#utility.yul\":13455:13458   */\n      dup3\n        /* \"#utility.yul\":13451:13465   */\n      add\n        /* \"#utility.yul\":13436:13465   */\n      swap1\n      pop\n        /* \"#utility.yul\":13312:13471   */\n      swap3\n      swap2\n      pop\n      pop\n      jump\t// out\n        /* \"#utility.yul\":13477:13646   */\n    tag_206:\n        /* \"#utility.yul\":13561:13572   */\n      0x00\n        /* \"#utility.yul\":13595:13601   */\n      dup3\n        /* \"#utility.yul\":13590:13593   */\n      dup3\n        /* \"#utility.yul\":13583:13602   */\n      mstore\n        /* \"#utility.yul\":13635:13639   */\n      0x20\n        /* \"#utility.yul\":13630:13633   */\n      dup3\n        /* \"#utility.yul\":13626:13640   */\n      add\n        /* \"#utility.yul\":13611:13640   */\n      swap1\n      pop\n        /* \"#utility.yul\":13477:13646   */\n      swap3\n      swap2\n      pop\n      pop\n      jump\t// out\n        /* \"#utility.yul\":13652:13800   */\n    tag_213:\n        /* \"#utility.yul\":13754:13765   */\n      0x00\n        /* \"#utility.yul\":13791:13794   */\n      dup2\n        /* \"#utility.yul\":13776:13794   */\n      swap1\n      pop\n        /* \"#utility.yul\":13652:13800   */\n      swap3\n      swap2\n      pop\n      pop\n      jump\t// out\n        /* \"#utility.yul\":13806:13896   */\n    tag_187:\n        /* \"#utility.yul\":13840:13847   */\n      0x00\n        /* \"#utility.yul\":13883:13888   */\n      dup2\n        /* \"#utility.yul\":13876:13889   */\n      iszero\n        /* \"#utility.yul\":13869:13890   */\n      iszero\n        /* \"#utility.yul\":13858:13890   */\n      swap1\n      pop\n        /* \"#utility.yul\":13806:13896   */\n      swap2\n      swap1\n      pop\n      jump\t// out\n        /* \"#utility.yul\":13902:13979   */\n    tag_191:\n        /* \"#utility.yul\":13939:13946   */\n      0x00\n        /* \"#utility.yul\":13968:13973   */\n      dup2\n        /* \"#utility.yul\":13957:13973   */\n      swap1\n      pop\n        /* \"#utility.yul\":13902:13979   */\n      swap2\n      swap1\n      pop\n      jump\t// out\n        /* \"#utility.yul\":13985:14062   */\n    tag_246:\n        /* \"#utility.yul\":14022:14029   */\n      0x00\n        /* \"#utility.yul\":14051:14056   */\n      dup2\n        /* \"#utility.yul\":14040:14056   */\n      swap1\n      pop\n        /* \"#utility.yul\":13985:14062   */\n      swap2\n      swap1\n      pop\n      jump\t// out\n        /* \"#utility.yul\":14068:14222   */\n    tag_149:\n        /* \"#utility.yul\":14152:14158   */\n      dup3\n        /* \"#utility.yul\":14147:14150   */\n      dup2\n        /* \"#utility.yul\":14142:14145   */\n      dup4\n        /* \"#utility.yul\":14129:14159   */\n      calldatacopy\n        /* \"#utility.yul\":14214:14215   */\n      0x00\n        /* \"#utility.yul\":14205:14211   */\n      dup4\n        /* \"#utility.yul\":14200:14203   */\n      dup4\n        /* \"#utility.yul\":14196:14212   */\n      add\n        /* \"#utility.yul\":14189:14216   */\n      mstore\n        /* \"#utility.yul\":14068:14222   */\n      pop\n      pop\n      pop\n      jump\t// out\n        /* \"#utility.yul\":14228:14535   */\n    tag_199:\n        /* \"#utility.yul\":14296:14297   */\n      0x00\n        /* \"#utility.yul\":14306:14419   */\n    tag_302:\n        /* \"#utility.yul\":14320:14326   */\n      dup4\n        /* \"#utility.yul\":14317:14318   */\n      dup2\n        /* \"#utility.yul\":14314:14327   */\n      lt\n        /* \"#utility.yul\":14306:14419   */\n      iszero\n      tag_304\n      jumpi\n        /* \"#utility.yul\":14405:14406   */\n      dup1\n        /* \"#utility.yul\":14400:14403   */\n      dup3\n        /* \"#utility.yul\":14396:14407   */\n      add\n        /* \"#utility.yul\":14390:14408   */\n      mload\n        /* \"#utility.yul\":14386:14387   */\n      dup2\n        /* \"#utility.yul\":14381:14384   */\n      dup5\n        /* \"#utility.yul\":14377:14388   */\n      add\n        /* \"#utility.yul\":14370:14409   */\n      mstore\n        /* \"#utility.yul\":14342:14344   */\n      0x20\n        /* \"#utility.yul\":14339:14340   */\n      dup2\n        /* \"#utility.yul\":14335:14345   */\n      add\n        /* \"#utility.yul\":14330:14345   */\n      swap1\n      pop\n        /* \"#utility.yul\":14306:14419   */\n      jump(tag_302)\n    tag_304:\n        /* \"#utility.yul\":14437:14443   */\n      dup4\n        /* \"#utility.yul\":14434:14435   */\n      dup2\n        /* \"#utility.yul\":14431:14444   */\n      gt\n        /* \"#utility.yul\":14428:14529   */\n      iszero\n      tag_305\n      jumpi\n        /* \"#utility.yul\":14517:14518   */\n      0x00\n        /* \"#utility.yul\":14508:14514   */\n      dup5\n        /* \"#utility.yul\":14503:14506   */\n      dup5\n        /* \"#utility.yul\":14499:14515   */\n      add\n        /* \"#utility.yul\":14492:14519   */\n      mstore\n        /* \"#utility.yul\":14428:14529   */\n    tag_305:\n        /* \"#utility.yul\":14277:14535   */\n      pop\n        /* \"#utility.yul\":14228:14535   */\n      pop\n      pop\n      pop\n      jump\t// out\n        /* \"#utility.yul\":14541:14861   */\n    tag_36:\n        /* \"#utility.yul\":14585:14591   */\n      0x00\n        /* \"#utility.yul\":14622:14623   */\n      0x02\n        /* \"#utility.yul\":14616:14620   */\n      dup3\n        /* \"#utility.yul\":14612:14624   */\n      div\n        /* \"#utility.yul\":14602:14624   */\n      swap1\n      pop\n        /* \"#utility.yul\":14669:14670   */\n      0x01\n        /* \"#utility.yul\":14663:14667   */\n      dup3\n        /* \"#utility.yul\":14659:14671   */\n      and\n        /* \"#utility.yul\":14690:14708   */\n      dup1\n        /* \"#utility.yul\":14680:14761   */\n      tag_307\n      jumpi\n        /* \"#utility.yul\":14746:14750   */\n      0x7f\n        /* \"#utility.yul\":14738:14744   */\n      dup3\n        /* \"#utility.yul\":14734:14751   */\n      and\n        /* \"#utility.yul\":14724:14751   */\n      swap2\n      pop\n        /* \"#utility.yul\":14680:14761   */\n    tag_307:\n        /* \"#utility.yul\":14808:14810   */\n      0x20\n        /* \"#utility.yul\":14800:14806   */\n      dup3\n        /* \"#utility.yul\":14797:14811   */\n      lt\n        /* \"#utility.yul\":14777:14795   */\n      dup2\n        /* \"#utility.yul\":14774:14812   */\n      eq\n        /* \"#utility.yul\":14771:14855   */\n      iszero\n      tag_308\n      jumpi\n        /* \"#utility.yul\":14827:14845   */\n      tag_309\n      tag_310\n      jump\t// in\n    tag_309:\n        /* \"#utility.yul\":14771:14855   */\n    tag_308:\n        /* \"#utility.yul\":14592:14861   */\n      pop\n        /* \"#utility.yul\":14541:14861   */\n      swap2\n      swap1\n      pop\n      jump\t// out\n        /* \"#utility.yul\":14867:15148   */\n    tag_285:\n        /* \"#utility.yul\":14950:14977   */\n      tag_312\n        /* \"#utility.yul\":14972:14976   */\n      dup3\n        /* \"#utility.yul\":14950:14977   */\n      tag_201\n      jump\t// in\n    tag_312:\n        /* \"#utility.yul\":14942:14948   */\n      dup2\n        /* \"#utility.yul\":14938:14978   */\n      add\n        /* \"#utility.yul\":15080:15086   */\n      dup2\n        /* \"#utility.yul\":15068:15078   */\n      dup2\n        /* \"#utility.yul\":15065:15087   */\n      lt\n        /* \"#utility.yul\":15044:15062   */\n      0xffffffffffffffff\n        /* \"#utility.yul\":15032:15042   */\n      dup3\n        /* \"#utility.yul\":15029:15063   */\n      gt\n        /* \"#utility.yul\":15026:15088   */\n      or\n        /* \"#utility.yul\":15023:15111   */\n      iszero\n      tag_313\n      jumpi\n        /* \"#utility.yul\":15091:15109   */\n      tag_314\n      tag_290\n      jump\t// in\n    tag_314:\n        /* \"#utility.yul\":15023:15111   */\n    tag_313:\n        /* \"#utility.yul\":15131:15141   */\n      dup1\n        /* \"#utility.yul\":15127:15129   */\n      0x40\n        /* \"#utility.yul\":15120:15142   */\n      mstore\n        /* \"#utility.yul\":14910:15148   */\n      pop\n        /* \"#utility.yul\":14867:15148   */\n      pop\n      pop\n      jump\t// out\n        /* \"#utility.yul\":15154:15334   */\n    tag_310:\n        /* \"#utility.yul\":15202:15279   */\n      0x4e487b7100000000000000000000000000000000000000000000000000000000\n        /* \"#utility.yul\":15199:15200   */\n      0x00\n        /* \"#utility.yul\":15192:15280   */\n      mstore\n        /* \"#utility.yul\":15299:15303   */\n      0x22\n        /* \"#utility.yul\":15296:15297   */\n      0x04\n        /* \"#utility.yul\":15289:15304   */\n      mstore\n        /* \"#utility.yul\":15323:15327   */\n      0x24\n        /* \"#utility.yul\":15320:15321   */\n      0x00\n        /* \"#utility.yul\":15313:15328   */\n      revert\n        /* \"#utility.yul\":15340:15520   */\n    tag_290:\n        /* \"#utility.yul\":15388:15465   */\n      0x4e487b7100000000000000000000000000000000000000000000000000000000\n        /* \"#utility.yul\":15385:15386   */\n      0x00\n        /* \"#utility.yul\":15378:15466   */\n      mstore\n        /* \"#utility.yul\":15485:15489   */\n      0x41\n        /* \"#utility.yul\":15482:15483   */\n      0x04\n        /* \"#utility.yul\":15475:15490   */\n      mstore\n        /* \"#utility.yul\":15509:15513   */\n      0x24\n        /* \"#utility.yul\":15506:15507   */\n      0x00\n        /* \"#utility.yul\":15499:15514   */\n      revert\n        /* \"#utility.yul\":15526:15643   */\n    tag_158:\n        /* \"#utility.yul\":15635:15636   */\n      0x00\n        /* \"#utility.yul\":15632:15633   */\n      dup1\n        /* \"#utility.yul\":15625:15637   */\n      revert\n        /* \"#utility.yul\":15649:15766   */\n    tag_147:\n        /* \"#utility.yul\":15758:15759   */\n      0x00\n        /* \"#utility.yul\":15755:15756   */\n      dup1\n        /* \"#utility.yul\":15748:15760   */\n      revert\n        /* \"#utility.yul\":15772:15889   */\n    tag_170:\n        /* \"#utility.yul\":15881:15882   */\n      0x00\n        /* \"#utility.yul\":15878:15879   */\n      dup1\n        /* \"#utility.yul\":15871:15883   */\n      revert\n        /* \"#utility.yul\":15895:16012   */\n    tag_163:\n        /* \"#utility.yul\":16004:16005   */\n      0x00\n        /* \"#utility.yul\":16001:16002   */\n      dup1\n        /* \"#utility.yul\":15994:16006   */\n      revert\n        /* \"#utility.yul\":16018:16120   */\n    tag_201:\n        /* \"#utility.yul\":16059:16065   */\n      0x00\n        /* \"#utility.yul\":16110:16112   */\n      0x1f\n        /* \"#utility.yul\":16106:16113   */\n      not\n        /* \"#utility.yul\":16101:16103   */\n      0x1f\n        /* \"#utility.yul\":16094:16099   */\n      dup4\n        /* \"#utility.yul\":16090:16104   */\n      add\n        /* \"#utility.yul\":16086:16114   */\n      and\n        /* \"#utility.yul\":16076:16114   */\n      swap1\n      pop\n        /* \"#utility.yul\":16018:16120   */\n      swap2\n      swap1\n      pop\n      jump\t// out\n        /* \"#utility.yul\":16126:16300   */\n    tag_231:\n        /* \"#utility.yul\":16266:16292   */\n      0x4163636f756e7420616c7265616479206578697374696e670000000000000000\n        /* \"#utility.yul\":16262:16263   */\n      0x00\n        /* \"#utility.yul\":16254:16260   */\n      dup3\n        /* \"#utility.yul\":16250:16264   */\n      add\n        /* \"#utility.yul\":16243:16293   */\n      mstore\n        /* \"#utility.yul\":16126:16300   */\n      pop\n      jump\t// out\n        /* \"#utility.yul\":16306:16463   */\n    tag_236:\n        /* \"#utility.yul\":16446:16455   */\n      0x7375636365737300000000000000000000000000000000000000000000000000\n        /* \"#utility.yul\":16442:16443   */\n      0x00\n        /* \"#utility.yul\":16434:16440   */\n      dup3\n        /* \"#utility.yul\":16430:16444   */\n      add\n        /* \"#utility.yul\":16423:16456   */\n      mstore\n        /* \"#utility.yul\":16306:16463   */\n      pop\n      jump\t// out\n        /* \"#utility.yul\":16469:16591   */\n    tag_153:\n        /* \"#utility.yul\":16542:16566   */\n      tag_325\n        /* \"#utility.yul\":16560:16565   */\n      dup2\n        /* \"#utility.yul\":16542:16566   */\n      tag_191\n      jump\t// in\n    tag_325:\n        /* \"#utility.yul\":16535:16540   */\n      dup2\n        /* \"#utility.yul\":16532:16567   */\n      eq\n        /* \"#utility.yul\":16522:16585   */\n      tag_326\n      jumpi\n        /* \"#utility.yul\":16581:16582   */\n      0x00\n        /* \"#utility.yul\":16578:16579   */\n      dup1\n        /* \"#utility.yul\":16571:16583   */\n      revert\n        /* \"#utility.yul\":16522:16585   */\n    tag_326:\n        /* \"#utility.yul\":16469:16591   */\n      pop\n      jump\t// out\n\n    auxdata: 0xa26469706673582212204a2f77669b368d489e49552bc3622376b3884634933a0fc2436c7b5f8fbc011964736f6c63430008070033\n}\n",
				"bytecode": {
					"linkReferences": {},
					"object": "608060405234801561001057600080fd5b506114e9806100206000396000f3fe608060405234801561001057600080fd5b506004361061004c5760003560e01c8063174ba7ff1461005157806330ee52a914610081578063462e1eed146100bc578063b24c908a146100ef575b600080fd5b61006b60048036038101906100669190610d4e565b61011f565b604051610078919061123d565b60405180910390f35b61009b60048036038101906100969190610d21565b610337565b6040516100b39c9b9a9998979695949392919061109c565b60405180910390f35b6100d660048036038101906100d19190610d21565b610879565b6040516100e69493929190611195565b60405180910390f35b61010960048036038101906101049190610d97565b610a41565b6040516101169190611081565b60405180910390f35b610127610bd1565b60008260405160200161013a9190611053565b60405160208183030381529060405280519060200120905060008082815260200190815260200160002060405180608001604052908160008201805461017f90611364565b80601f01602080910402602001604051908101604052809291908181526020018280546101ab90611364565b80156101f85780601f106101cd576101008083540402835291602001916101f8565b820191906000526020600020905b8154815290600101906020018083116101db57829003601f168201915b5050505050815260200160018201805461021190611364565b80601f016020809104026020016040519081016040528092919081815260200182805461023d90611364565b801561028a5780601f1061025f5761010080835404028352916020019161028a565b820191906000526020600020905b81548152906001019060200180831161026d57829003601f168201915b505050505081526020016002820180546102a390611364565b80601f01602080910402602001604051908101604052809291908181526020018280546102cf90611364565b801561031c5780601f106102f15761010080835404028352916020019161031c565b820191906000526020600020905b8154815290600101906020018083116102ff57829003601f168201915b50505050508152602001600382015481525050915050919050565b600160205280600052604060002060009150905080600001805461035a90611364565b80601f016020809104026020016040519081016040528092919081815260200182805461038690611364565b80156103d35780601f106103a8576101008083540402835291602001916103d3565b820191906000526020600020905b8154815290600101906020018083116103b657829003601f168201915b5050505050908060010160009054906101000a900460ff169080600201549080600301805461040190611364565b80601f016020809104026020016040519081016040528092919081815260200182805461042d90611364565b801561047a5780601f1061044f5761010080835404028352916020019161047a565b820191906000526020600020905b81548152906001019060200180831161045d57829003601f168201915b50505050509080600401805461048f90611364565b80601f01602080910402602001604051908101604052809291908181526020018280546104bb90611364565b80156105085780601f106104dd57610100808354040283529160200191610508565b820191906000526020600020905b8154815290600101906020018083116104eb57829003601f168201915b50505050509080600501805461051d90611364565b80601f016020809104026020016040519081016040528092919081815260200182805461054990611364565b80156105965780601f1061056b57610100808354040283529160200191610596565b820191906000526020600020905b81548152906001019060200180831161057957829003601f168201915b5050505050908060060180546105ab90611364565b80601f01602080910402602001604051908101604052809291908181526020018280546105d790611364565b80156106245780601f106105f957610100808354040283529160200191610624565b820191906000526020600020905b81548152906001019060200180831161060757829003601f168201915b50505050509080600701805461063990611364565b80601f016020809104026020016040519081016040528092919081815260200182805461066590611364565b80156106b25780601f10610687576101008083540402835291602001916106b2565b820191906000526020600020905b81548152906001019060200180831161069557829003601f168201915b5050505050908060080180546106c790611364565b80601f01602080910402602001604051908101604052809291908181526020018280546106f390611364565b80156107405780601f1061071557610100808354040283529160200191610740565b820191906000526020600020905b81548152906001019060200180831161072357829003601f168201915b50505050509080600901805461075590611364565b80601f016020809104026020016040519081016040528092919081815260200182805461078190611364565b80156107ce5780601f106107a3576101008083540402835291602001916107ce565b820191906000526020600020905b8154815290600101906020018083116107b157829003601f168201915b50505050509080600a0160009054906101000a900460ff169080600b0180546107f690611364565b80601f016020809104026020016040519081016040528092919081815260200182805461082290611364565b801561086f5780601f106108445761010080835404028352916020019161086f565b820191906000526020600020905b81548152906001019060200180831161085257829003601f168201915b505050505090508c565b600060205280600052604060002060009150905080600001805461089c90611364565b80601f01602080910402602001604051908101604052809291908181526020018280546108c890611364565b80156109155780601f106108ea57610100808354040283529160200191610915565b820191906000526020600020905b8154815290600101906020018083116108f857829003601f168201915b50505050509080600101805461092a90611364565b80601f016020809104026020016040519081016040528092919081815260200182805461095690611364565b80156109a35780601f10610978576101008083540402835291602001916109a3565b820191906000526020600020905b81548152906001019060200180831161098657829003601f168201915b5050505050908060020180546109b890611364565b80601f01602080910402602001604051908101604052809291908181526020018280546109e490611364565b8015610a315780601f10610a0657610100808354040283529160200191610a31565b820191906000526020600020905b815481529060010190602001808311610a1457829003601f168201915b5050505050908060030154905084565b60008084604051602001610a559190611053565b604051602081830303815290604052805190602001209050610a778186610b63565b610ab6576040517f08c379a0000000000000000000000000000000000000000000000000000000008152600401610aad906111ef565b60405180910390fd5b6000806000838152602001908152602001600020905085816000019080519060200190610ae4929190610bf9565b5084816001019080519060200190610afd929190610bf9565b5083816002019080519060200190610b16929190610bf9565b504281600301819055507fc8922d91fbabbe8df5d667708c678575856a856a2a465ebd9626a40ab6a16f5f82604051610b4f919061120f565b60405180910390a181925050509392505050565b600081604051602001610b769190611053565b60405160208183030381529060405280519060200120600080858152602001908152602001600020600001604051602001610bb1919061106a565b604051602081830303815290604052805190602001201415905092915050565b6040518060800160405280606081526020016060815260200160608152602001600081525090565b828054610c0590611364565b90600052602060002090601f016020900481019282610c275760008555610c6e565b82601f10610c4057805160ff1916838001178555610c6e565b82800160010185558215610c6e579182015b82811115610c6d578251825591602001919060010190610c52565b5b509050610c7b9190610c7f565b5090565b5b80821115610c98576000816000905550600101610c80565b5090565b6000610caf610caa84611284565b61125f565b905082815260208101848484011115610ccb57610cca61142a565b5b610cd6848285611322565b509392505050565b600081359050610ced8161149c565b92915050565b600082601f830112610d0857610d07611425565b5b8135610d18848260208601610c9c565b91505092915050565b600060208284031215610d3757610d36611434565b5b6000610d4584828501610cde565b91505092915050565b600060208284031215610d6457610d63611434565b5b600082013567ffffffffffffffff811115610d8257610d8161142f565b5b610d8e84828501610cf3565b91505092915050565b600080600060608486031215610db057610daf611434565b5b600084013567ffffffffffffffff811115610dce57610dcd61142f565b5b610dda86828701610cf3565b935050602084013567ffffffffffffffff811115610dfb57610dfa61142f565b5b610e0786828701610cf3565b925050604084013567ffffffffffffffff811115610e2857610e2761142f565b5b610e3486828701610cf3565b9150509250925092565b610e4781611302565b82525050565b610e568161130e565b82525050565b6000610e67826112ca565b610e7181856112d5565b9350610e81818560208601611331565b610e8a81611439565b840191505092915050565b6000610ea0826112ca565b610eaa81856112e6565b9350610eba818560208601611331565b610ec381611439565b840191505092915050565b6000610ed9826112ca565b610ee381856112f7565b9350610ef3818560208601611331565b80840191505092915050565b60008154610f0c81611364565b610f1681866112f7565b94506001821660008114610f315760018114610f4257610f75565b60ff19831686528186019350610f75565b610f4b856112b5565b60005b83811015610f6d57815481890152600182019150602081019050610f4e565b838801955050505b50505092915050565b6000610f8b6018836112e6565b9150610f968261144a565b602082019050919050565b6000610fae6007836112e6565b9150610fb982611473565b602082019050919050565b60006080830160008301518482036000860152610fe18282610e5c565b91505060208301518482036020860152610ffb8282610e5c565b915050604083015184820360408601526110158282610e5c565b915050606083015161102a6060860182611035565b508091505092915050565b61103e81611318565b82525050565b61104d81611318565b82525050565b600061105f8284610ece565b915081905092915050565b60006110768284610eff565b915081905092915050565b60006020820190506110966000830184610e4d565b92915050565b60006101808201905081810360008301526110b7818f610e95565b90506110c6602083018e610e3e565b6110d3604083018d611044565b81810360608301526110e5818c610e95565b905081810360808301526110f9818b610e95565b905081810360a083015261110d818a610e95565b905081810360c08301526111218189610e95565b905081810360e08301526111358188610e95565b905081810361010083015261114a8187610e95565b905081810361012083015261115f8186610e95565b905061116f610140830185610e3e565b8181036101608301526111828184610e95565b90509d9c50505050505050505050505050565b600060808201905081810360008301526111af8187610e95565b905081810360208301526111c38186610e95565b905081810360408301526111d78185610e95565b90506111e66060830184611044565b95945050505050565b6000602082019050818103600083015261120881610f7e565b9050919050565b6000604082019050818103600083015261122881610fa1565b90506112376020830184610e4d565b92915050565b600060208201905081810360008301526112578184610fc4565b905092915050565b600061126961127a565b90506112758282611396565b919050565b6000604051905090565b600067ffffffffffffffff82111561129f5761129e6113f6565b5b6112a882611439565b9050602081019050919050565b60008190508160005260206000209050919050565b600081519050919050565b600082825260208201905092915050565b600082825260208201905092915050565b600081905092915050565b60008115159050919050565b6000819050919050565b6000819050919050565b82818337600083830152505050565b60005b8381101561134f578082015181840152602081019050611334565b8381111561135e576000848401525b50505050565b6000600282049050600182168061137c57607f821691505b602082108114156113905761138f6113c7565b5b50919050565b61139f82611439565b810181811067ffffffffffffffff821117156113be576113bd6113f6565b5b80604052505050565b7f4e487b7100000000000000000000000000000000000000000000000000000000600052602260045260246000fd5b7f4e487b7100000000000000000000000000000000000000000000000000000000600052604160045260246000fd5b600080fd5b600080fd5b600080fd5b600080fd5b6000601f19601f8301169050919050565b7f4163636f756e7420616c7265616479206578697374696e670000000000000000600082015250565b7f7375636365737300000000000000000000000000000000000000000000000000600082015250565b6114a58161130e565b81146114b057600080fd5b5056fea26469706673582212204a2f77669b368d489e49552bc3622376b3884634933a0fc2436c7b5f8fbc011964736f6c63430008070033",
					"opcodes": "PUSH1 0x80 PUSH1 0x40 MSTORE CALLVALUE DUP1 ISZERO PUSH2 0x10 JUMPI PUSH1 0x0 DUP1 REVERT JUMPDEST POP PUSH2 0x14E9 DUP1 PUSH2 0x20 PUSH1 0x0 CODECOPY PUSH1 0x0 RETURN INVALID PUSH1 0x80 PUSH1 0x40 MSTORE CALLVALUE DUP1 ISZERO PUSH2 0x10 JUMPI PUSH1 0x0 DUP1 REVERT JUMPDEST POP PUSH1 0x4 CALLDATASIZE LT PUSH2 0x4C JUMPI PUSH1 0x0 CALLDATALOAD PUSH1 0xE0 SHR DUP1 PUSH4 0x174BA7FF EQ PUSH2 0x51 JUMPI DUP1 PUSH4 0x30EE52A9 EQ PUSH2 0x81 JUMPI DUP1 PUSH4 0x462E1EED EQ PUSH2 0xBC JUMPI DUP1 PUSH4 0xB24C908A EQ PUSH2 0xEF JUMPI JUMPDEST PUSH1 0x0 DUP1 REVERT JUMPDEST PUSH2 0x6B PUSH1 0x4 DUP1 CALLDATASIZE SUB DUP2 ADD SWAP1 PUSH2 0x66 SWAP2 SWAP1 PUSH2 0xD4E JUMP JUMPDEST PUSH2 0x11F JUMP JUMPDEST PUSH1 0x40 MLOAD PUSH2 0x78 SWAP2 SWAP1 PUSH2 0x123D JUMP JUMPDEST PUSH1 0x40 MLOAD DUP1 SWAP2 SUB SWAP1 RETURN JUMPDEST PUSH2 0x9B PUSH1 0x4 DUP1 CALLDATASIZE SUB DUP2 ADD SWAP1 PUSH2 0x96 SWAP2 SWAP1 PUSH2 0xD21 JUMP JUMPDEST PUSH2 0x337 JUMP JUMPDEST PUSH1 0x40 MLOAD PUSH2 0xB3 SWAP13 SWAP12 SWAP11 SWAP10 SWAP9 SWAP8 SWAP7 SWAP6 SWAP5 SWAP4 SWAP3 SWAP2 SWAP1 PUSH2 0x109C JUMP JUMPDEST PUSH1 0x40 MLOAD DUP1 SWAP2 SUB SWAP1 RETURN JUMPDEST PUSH2 0xD6 PUSH1 0x4 DUP1 CALLDATASIZE SUB DUP2 ADD SWAP1 PUSH2 0xD1 SWAP2 SWAP1 PUSH2 0xD21 JUMP JUMPDEST PUSH2 0x879 JUMP JUMPDEST PUSH1 0x40 MLOAD PUSH2 0xE6 SWAP5 SWAP4 SWAP3 SWAP2 SWAP1 PUSH2 0x1195 JUMP JUMPDEST PUSH1 0x40 MLOAD DUP1 SWAP2 SUB SWAP1 RETURN JUMPDEST PUSH2 0x109 PUSH1 0x4 DUP1 CALLDATASIZE SUB DUP2 ADD SWAP1 PUSH2 0x104 SWAP2 SWAP1 PUSH2 0xD97 JUMP JUMPDEST PUSH2 0xA41 JUMP JUMPDEST PUSH1 0x40 MLOAD PUSH2 0x116 SWAP2 SWAP1 PUSH2 0x1081 JUMP JUMPDEST PUSH1 0x40 MLOAD DUP1 SWAP2 SUB SWAP1 RETURN JUMPDEST PUSH2 0x127 PUSH2 0xBD1 JUMP JUMPDEST PUSH1 0x0 DUP3 PUSH1 0x40 MLOAD PUSH1 0x20 ADD PUSH2 0x13A SWAP2 SWAP1 PUSH2 0x1053 JUMP JUMPDEST PUSH1 0x40 MLOAD PUSH1 0x20 DUP2 DUP4 SUB SUB DUP2 MSTORE SWAP1 PUSH1 0x40 MSTORE DUP1 MLOAD SWAP1 PUSH1 0x20 ADD KECCAK256 SWAP1 POP PUSH1 0x0 DUP1 DUP3 DUP2 MSTORE PUSH1 0x20 ADD SWAP1 DUP2 MSTORE PUSH1 0x20 ADD PUSH1 0x0 KECCAK256 PUSH1 0x40 MLOAD DUP1 PUSH1 0x80 ADD PUSH1 0x40 MSTORE SWAP1 DUP2 PUSH1 0x0 DUP3 ADD DUP1 SLOAD PUSH2 0x17F SWAP1 PUSH2 0x1364 JUMP JUMPDEST DUP1 PUSH1 0x1F ADD PUSH1 0x20 DUP1 SWAP2 DIV MUL PUSH1 0x20 ADD PUSH1 0x40 MLOAD SWAP1 DUP2 ADD PUSH1 0x40 MSTORE DUP1 SWAP3 SWAP2 SWAP1 DUP2 DUP2 MSTORE PUSH1 0x20 ADD DUP3 DUP1 SLOAD PUSH2 0x1AB SWAP1 PUSH2 0x1364 JUMP JUMPDEST DUP1 ISZERO PUSH2 0x1F8 JUMPI DUP1 PUSH1 0x1F LT PUSH2 0x1CD JUMPI PUSH2 0x100 DUP1 DUP4 SLOAD DIV MUL DUP4 MSTORE SWAP2 PUSH1 0x20 ADD SWAP2 PUSH2 0x1F8 JUMP JUMPDEST DUP3 ADD SWAP2 SWAP1 PUSH1 0x0 MSTORE PUSH1 0x20 PUSH1 0x0 KECCAK256 SWAP1 JUMPDEST DUP2 SLOAD DUP2 MSTORE SWAP1 PUSH1 0x1 ADD SWAP1 PUSH1 0x20 ADD DUP1 DUP4 GT PUSH2 0x1DB JUMPI DUP3 SWAP1 SUB PUSH1 0x1F AND DUP3 ADD SWAP2 JUMPDEST POP POP POP POP POP DUP2 MSTORE PUSH1 0x20 ADD PUSH1 0x1 DUP3 ADD DUP1 SLOAD PUSH2 0x211 SWAP1 PUSH2 0x1364 JUMP JUMPDEST DUP1 PUSH1 0x1F ADD PUSH1 0x20 DUP1 SWAP2 DIV MUL PUSH1 0x20 ADD PUSH1 0x40 MLOAD SWAP1 DUP2 ADD PUSH1 0x40 MSTORE DUP1 SWAP3 SWAP2 SWAP1 DUP2 DUP2 MSTORE PUSH1 0x20 ADD DUP3 DUP1 SLOAD PUSH2 0x23D SWAP1 PUSH2 0x1364 JUMP JUMPDEST DUP1 ISZERO PUSH2 0x28A JUMPI DUP1 PUSH1 0x1F LT PUSH2 0x25F JUMPI PUSH2 0x100 DUP1 DUP4 SLOAD DIV MUL DUP4 MSTORE SWAP2 PUSH1 0x20 ADD SWAP2 PUSH2 0x28A JUMP JUMPDEST DUP3 ADD SWAP2 SWAP1 PUSH1 0x0 MSTORE PUSH1 0x20 PUSH1 0x0 KECCAK256 SWAP1 JUMPDEST DUP2 SLOAD DUP2 MSTORE SWAP1 PUSH1 0x1 ADD SWAP1 PUSH1 0x20 ADD DUP1 DUP4 GT PUSH2 0x26D JUMPI DUP3 SWAP1 SUB PUSH1 0x1F AND DUP3 ADD SWAP2 JUMPDEST POP POP POP POP POP DUP2 MSTORE PUSH1 0x20 ADD PUSH1 0x2 DUP3 ADD DUP1 SLOAD PUSH2 0x2A3 SWAP1 PUSH2 0x1364 JUMP JUMPDEST DUP1 PUSH1 0x1F ADD PUSH1 0x20 DUP1 SWAP2 DIV MUL PUSH1 0x20 ADD PUSH1 0x40 MLOAD SWAP1 DUP2 ADD PUSH1 0x40 MSTORE DUP1 SWAP3 SWAP2 SWAP1 DUP2 DUP2 MSTORE PUSH1 0x20 ADD DUP3 DUP1 SLOAD PUSH2 0x2CF SWAP1 PUSH2 0x1364 JUMP JUMPDEST DUP1 ISZERO PUSH2 0x31C JUMPI DUP1 PUSH1 0x1F LT PUSH2 0x2F1 JUMPI PUSH2 0x100 DUP1 DUP4 SLOAD DIV MUL DUP4 MSTORE SWAP2 PUSH1 0x20 ADD SWAP2 PUSH2 0x31C JUMP JUMPDEST DUP3 ADD SWAP2 SWAP1 PUSH1 0x0 MSTORE PUSH1 0x20 PUSH1 0x0 KECCAK256 SWAP1 JUMPDEST DUP2 SLOAD DUP2 MSTORE SWAP1 PUSH1 0x1 ADD SWAP1 PUSH1 0x20 ADD DUP1 DUP4 GT PUSH2 0x2FF JUMPI DUP3 SWAP1 SUB PUSH1 0x1F AND DUP3 ADD SWAP2 JUMPDEST POP POP POP POP POP DUP2 MSTORE PUSH1 0x20 ADD PUSH1 0x3 DUP3 ADD SLOAD DUP2 MSTORE POP POP SWAP2 POP POP SWAP2 SWAP1 POP JUMP JUMPDEST PUSH1 0x1 PUSH1 0x20 MSTORE DUP1 PUSH1 0x0 MSTORE PUSH1 0x40 PUSH1 0x0 KECCAK256 PUSH1 0x0 SWAP2 POP SWAP1 POP DUP1 PUSH1 0x0 ADD DUP1 SLOAD PUSH2 0x35A SWAP1 PUSH2 0x1364 JUMP JUMPDEST DUP1 PUSH1 0x1F ADD PUSH1 0x20 DUP1 SWAP2 DIV MUL PUSH1 0x20 ADD PUSH1 0x40 MLOAD SWAP1 DUP2 ADD PUSH1 0x40 MSTORE DUP1 SWAP3 SWAP2 SWAP1 DUP2 DUP2 MSTORE PUSH1 0x20 ADD DUP3 DUP1 SLOAD PUSH2 0x386 SWAP1 PUSH2 0x1364 JUMP JUMPDEST DUP1 ISZERO PUSH2 0x3D3 JUMPI DUP1 PUSH1 0x1F LT PUSH2 0x3A8 JUMPI PUSH2 0x100 DUP1 DUP4 SLOAD DIV MUL DUP4 MSTORE SWAP2 PUSH1 0x20 ADD SWAP2 PUSH2 0x3D3 JUMP JUMPDEST DUP3 ADD SWAP2 SWAP1 PUSH1 0x0 MSTORE PUSH1 0x20 PUSH1 0x0 KECCAK256 SWAP1 JUMPDEST DUP2 SLOAD DUP2 MSTORE SWAP1 PUSH1 0x1 ADD SWAP1 PUSH1 0x20 ADD DUP1 DUP4 GT PUSH2 0x3B6 JUMPI DUP3 SWAP1 SUB PUSH1 0x1F AND DUP3 ADD SWAP2 JUMPDEST POP POP POP POP POP SWAP1 DUP1 PUSH1 0x1 ADD PUSH1 0x0 SWAP1 SLOAD SWAP1 PUSH2 0x100 EXP SWAP1 DIV PUSH1 0xFF AND SWAP1 DUP1 PUSH1 0x2 ADD SLOAD SWAP1 DUP1 PUSH1 0x3 ADD DUP1 SLOAD PUSH2 0x401 SWAP1 PUSH2 0x1364 JUMP JUMPDEST DUP1 PUSH1 0x1F ADD PUSH1 0x20 DUP1 SWAP2 DIV MUL PUSH1 0x20 ADD PUSH1 0x40 MLOAD SWAP1 DUP2 ADD PUSH1 0x40 MSTORE DUP1 SWAP3 SWAP2 SWAP1 DUP2 DUP2 MSTORE PUSH1 0x20 ADD DUP3 DUP1 SLOAD PUSH2 0x42D SWAP1 PUSH2 0x1364 JUMP JUMPDEST DUP1 ISZERO PUSH2 0x47A JUMPI DUP1 PUSH1 0x1F LT PUSH2 0x44F JUMPI PUSH2 0x100 DUP1 DUP4 SLOAD DIV MUL DUP4 MSTORE SWAP2 PUSH1 0x20 ADD SWAP2 PUSH2 0x47A JUMP JUMPDEST DUP3 ADD SWAP2 SWAP1 PUSH1 0x0 MSTORE PUSH1 0x20 PUSH1 0x0 KECCAK256 SWAP1 JUMPDEST DUP2 SLOAD DUP2 MSTORE SWAP1 PUSH1 0x1 ADD SWAP1 PUSH1 0x20 ADD DUP1 DUP4 GT PUSH2 0x45D JUMPI DUP3 SWAP1 SUB PUSH1 0x1F AND DUP3 ADD SWAP2 JUMPDEST POP POP POP POP POP SWAP1 DUP1 PUSH1 0x4 ADD DUP1 SLOAD PUSH2 0x48F SWAP1 PUSH2 0x1364 JUMP JUMPDEST DUP1 PUSH1 0x1F ADD PUSH1 0x20 DUP1 SWAP2 DIV MUL PUSH1 0x20 ADD PUSH1 0x40 MLOAD SWAP1 DUP2 ADD PUSH1 0x40 MSTORE DUP1 SWAP3 SWAP2 SWAP1 DUP2 DUP2 MSTORE PUSH1 0x20 ADD DUP3 DUP1 SLOAD PUSH2 0x4BB SWAP1 PUSH2 0x1364 JUMP JUMPDEST DUP1 ISZERO PUSH2 0x508 JUMPI DUP1 PUSH1 0x1F LT PUSH2 0x4DD JUMPI PUSH2 0x100 DUP1 DUP4 SLOAD DIV MUL DUP4 MSTORE SWAP2 PUSH1 0x20 ADD SWAP2 PUSH2 0x508 JUMP JUMPDEST DUP3 ADD SWAP2 SWAP1 PUSH1 0x0 MSTORE PUSH1 0x20 PUSH1 0x0 KECCAK256 SWAP1 JUMPDEST DUP2 SLOAD DUP2 MSTORE SWAP1 PUSH1 0x1 ADD SWAP1 PUSH1 0x20 ADD DUP1 DUP4 GT PUSH2 0x4EB JUMPI DUP3 SWAP1 SUB PUSH1 0x1F AND DUP3 ADD SWAP2 JUMPDEST POP POP POP POP POP SWAP1 DUP1 PUSH1 0x5 ADD DUP1 SLOAD PUSH2 0x51D SWAP1 PUSH2 0x1364 JUMP JUMPDEST DUP1 PUSH1 0x1F ADD PUSH1 0x20 DUP1 SWAP2 DIV MUL PUSH1 0x20 ADD PUSH1 0x40 MLOAD SWAP1 DUP2 ADD PUSH1 0x40 MSTORE DUP1 SWAP3 SWAP2 SWAP1 DUP2 DUP2 MSTORE PUSH1 0x20 ADD DUP3 DUP1 SLOAD PUSH2 0x549 SWAP1 PUSH2 0x1364 JUMP JUMPDEST DUP1 ISZERO PUSH2 0x596 JUMPI DUP1 PUSH1 0x1F LT PUSH2 0x56B JUMPI PUSH2 0x100 DUP1 DUP4 SLOAD DIV MUL DUP4 MSTORE SWAP2 PUSH1 0x20 ADD SWAP2 PUSH2 0x596 JUMP JUMPDEST DUP3 ADD SWAP2 SWAP1 PUSH1 0x0 MSTORE PUSH1 0x20 PUSH1 0x0 KECCAK256 SWAP1 JUMPDEST DUP2 SLOAD DUP2 MSTORE SWAP1 PUSH1 0x1 ADD SWAP1 PUSH1 0x20 ADD DUP1 DUP4 GT PUSH2 0x579 JUMPI DUP3 SWAP1 SUB PUSH1 0x1F AND DUP3 ADD SWAP2 JUMPDEST POP POP POP POP POP SWAP1 DUP1 PUSH1 0x6 ADD DUP1 SLOAD PUSH2 0x5AB SWAP1 PUSH2 0x1364 JUMP JUMPDEST DUP1 PUSH1 0x1F ADD PUSH1 0x20 DUP1 SWAP2 DIV MUL PUSH1 0x20 ADD PUSH1 0x40 MLOAD SWAP1 DUP2 ADD PUSH1 0x40 MSTORE DUP1 SWAP3 SWAP2 SWAP1 DUP2 DUP2 MSTORE PUSH1 0x20 ADD DUP3 DUP1 SLOAD PUSH2 0x5D7 SWAP1 PUSH2 0x1364 JUMP JUMPDEST DUP1 ISZERO PUSH2 0x624 JUMPI DUP1 PUSH1 0x1F LT PUSH2 0x5F9 JUMPI PUSH2 0x100 DUP1 DUP4 SLOAD DIV MUL DUP4 MSTORE SWAP2 PUSH1 0x20 ADD SWAP2 PUSH2 0x624 JUMP JUMPDEST DUP3 ADD SWAP2 SWAP1 PUSH1 0x0 MSTORE PUSH1 0x20 PUSH1 0x0 KECCAK256 SWAP1 JUMPDEST DUP2 SLOAD DUP2 MSTORE SWAP1 PUSH1 0x1 ADD SWAP1 PUSH1 0x20 ADD DUP1 DUP4 GT PUSH2 0x607 JUMPI DUP3 SWAP1 SUB PUSH1 0x1F AND DUP3 ADD SWAP2 JUMPDEST POP POP POP POP POP SWAP1 DUP1 PUSH1 0x7 ADD DUP1 SLOAD PUSH2 0x639 SWAP1 PUSH2 0x1364 JUMP JUMPDEST DUP1 PUSH1 0x1F ADD PUSH1 0x20 DUP1 SWAP2 DIV MUL PUSH1 0x20 ADD PUSH1 0x40 MLOAD SWAP1 DUP2 ADD PUSH1 0x40 MSTORE DUP1 SWAP3 SWAP2 SWAP1 DUP2 DUP2 MSTORE PUSH1 0x20 ADD DUP3 DUP1 SLOAD PUSH2 0x665 SWAP1 PUSH2 0x1364 JUMP JUMPDEST DUP1 ISZERO PUSH2 0x6B2 JUMPI DUP1 PUSH1 0x1F LT PUSH2 0x687 JUMPI PUSH2 0x100 DUP1 DUP4 SLOAD DIV MUL DUP4 MSTORE SWAP2 PUSH1 0x20 ADD SWAP2 PUSH2 0x6B2 JUMP JUMPDEST DUP3 ADD SWAP2 SWAP1 PUSH1 0x0 MSTORE PUSH1 0x20 PUSH1 0x0 KECCAK256 SWAP1 JUMPDEST DUP2 SLOAD DUP2 MSTORE SWAP1 PUSH1 0x1 ADD SWAP1 PUSH1 0x20 ADD DUP1 DUP4 GT PUSH2 0x695 JUMPI DUP3 SWAP1 SUB PUSH1 0x1F AND DUP3 ADD SWAP2 JUMPDEST POP POP POP POP POP SWAP1 DUP1 PUSH1 0x8 ADD DUP1 SLOAD PUSH2 0x6C7 SWAP1 PUSH2 0x1364 JUMP JUMPDEST DUP1 PUSH1 0x1F ADD PUSH1 0x20 DUP1 SWAP2 DIV MUL PUSH1 0x20 ADD PUSH1 0x40 MLOAD SWAP1 DUP2 ADD PUSH1 0x40 MSTORE DUP1 SWAP3 SWAP2 SWAP1 DUP2 DUP2 MSTORE PUSH1 0x20 ADD DUP3 DUP1 SLOAD PUSH2 0x6F3 SWAP1 PUSH2 0x1364 JUMP JUMPDEST DUP1 ISZERO PUSH2 0x740 JUMPI DUP1 PUSH1 0x1F LT PUSH2 0x715 JUMPI PUSH2 0x100 DUP1 DUP4 SLOAD DIV MUL DUP4 MSTORE SWAP2 PUSH1 0x20 ADD SWAP2 PUSH2 0x740 JUMP JUMPDEST DUP3 ADD SWAP2 SWAP1 PUSH1 0x0 MSTORE PUSH1 0x20 PUSH1 0x0 KECCAK256 SWAP1 JUMPDEST DUP2 SLOAD DUP2 MSTORE SWAP1 PUSH1 0x1 ADD SWAP1 PUSH1 0x20 ADD DUP1 DUP4 GT PUSH2 0x723 JUMPI DUP3 SWAP1 SUB PUSH1 0x1F AND DUP3 ADD SWAP2 JUMPDEST POP POP POP POP POP SWAP1 DUP1 PUSH1 0x9 ADD DUP1 SLOAD PUSH2 0x755 SWAP1 PUSH2 0x1364 JUMP JUMPDEST DUP1 PUSH1 0x1F ADD PUSH1 0x20 DUP1 SWAP2 DIV MUL PUSH1 0x20 ADD PUSH1 0x40 MLOAD SWAP1 DUP2 ADD PUSH1 0x40 MSTORE DUP1 SWAP3 SWAP2 SWAP1 DUP2 DUP2 MSTORE PUSH1 0x20 ADD DUP3 DUP1 SLOAD PUSH2 0x781 SWAP1 PUSH2 0x1364 JUMP JUMPDEST DUP1 ISZERO PUSH2 0x7CE JUMPI DUP1 PUSH1 0x1F LT PUSH2 0x7A3 JUMPI PUSH2 0x100 DUP1 DUP4 SLOAD DIV MUL DUP4 MSTORE SWAP2 PUSH1 0x20 ADD SWAP2 PUSH2 0x7CE JUMP JUMPDEST DUP3 ADD SWAP2 SWAP1 PUSH1 0x0 MSTORE PUSH1 0x20 PUSH1 0x0 KECCAK256 SWAP1 JUMPDEST DUP2 SLOAD DUP2 MSTORE SWAP1 PUSH1 0x1 ADD SWAP1 PUSH1 0x20 ADD DUP1 DUP4 GT PUSH2 0x7B1 JUMPI DUP3 SWAP1 SUB PUSH1 0x1F AND DUP3 ADD SWAP2 JUMPDEST POP POP POP POP POP SWAP1 DUP1 PUSH1 0xA ADD PUSH1 0x0 SWAP1 SLOAD SWAP1 PUSH2 0x100 EXP SWAP1 DIV PUSH1 0xFF AND SWAP1 DUP1 PUSH1 0xB ADD DUP1 SLOAD PUSH2 0x7F6 SWAP1 PUSH2 0x1364 JUMP JUMPDEST DUP1 PUSH1 0x1F ADD PUSH1 0x20 DUP1 SWAP2 DIV MUL PUSH1 0x20 ADD PUSH1 0x40 MLOAD SWAP1 DUP2 ADD PUSH1 0x40 MSTORE DUP1 SWAP3 SWAP2 SWAP1 DUP2 DUP2 MSTORE PUSH1 0x20 ADD DUP3 DUP1 SLOAD PUSH2 0x822 SWAP1 PUSH2 0x1364 JUMP JUMPDEST DUP1 ISZERO PUSH2 0x86F JUMPI DUP1 PUSH1 0x1F LT PUSH2 0x844 JUMPI PUSH2 0x100 DUP1 DUP4 SLOAD DIV MUL DUP4 MSTORE SWAP2 PUSH1 0x20 ADD SWAP2 PUSH2 0x86F JUMP JUMPDEST DUP3 ADD SWAP2 SWAP1 PUSH1 0x0 MSTORE PUSH1 0x20 PUSH1 0x0 KECCAK256 SWAP1 JUMPDEST DUP2 SLOAD DUP2 MSTORE SWAP1 PUSH1 0x1 ADD SWAP1 PUSH1 0x20 ADD DUP1 DUP4 GT PUSH2 0x852 JUMPI DUP3 SWAP1 SUB PUSH1 0x1F AND DUP3 ADD SWAP2 JUMPDEST POP POP POP POP POP SWAP1 POP DUP13 JUMP JUMPDEST PUSH1 0x0 PUSH1 0x20 MSTORE DUP1 PUSH1 0x0 MSTORE PUSH1 0x40 PUSH1 0x0 KECCAK256 PUSH1 0x0 SWAP2 POP SWAP1 POP DUP1 PUSH1 0x0 ADD DUP1 SLOAD PUSH2 0x89C SWAP1 PUSH2 0x1364 JUMP JUMPDEST DUP1 PUSH1 0x1F ADD PUSH1 0x20 DUP1 SWAP2 DIV MUL PUSH1 0x20 ADD PUSH1 0x40 MLOAD SWAP1 DUP2 ADD PUSH1 0x40 MSTORE DUP1 SWAP3 SWAP2 SWAP1 DUP2 DUP2 MSTORE PUSH1 0x20 ADD DUP3 DUP1 SLOAD PUSH2 0x8C8 SWAP1 PUSH2 0x1364 JUMP JUMPDEST DUP1 ISZERO PUSH2 0x915 JUMPI DUP1 PUSH1 0x1F LT PUSH2 0x8EA JUMPI PUSH2 0x100 DUP1 DUP4 SLOAD DIV MUL DUP4 MSTORE SWAP2 PUSH1 0x20 ADD SWAP2 PUSH2 0x915 JUMP JUMPDEST DUP3 ADD SWAP2 SWAP1 PUSH1 0x0 MSTORE PUSH1 0x20 PUSH1 0x0 KECCAK256 SWAP1 JUMPDEST DUP2 SLOAD DUP2 MSTORE SWAP1 PUSH1 0x1 ADD SWAP1 PUSH1 0x20 ADD DUP1 DUP4 GT PUSH2 0x8F8 JUMPI DUP3 SWAP1 SUB PUSH1 0x1F AND DUP3 ADD SWAP2 JUMPDEST POP POP POP POP POP SWAP1 DUP1 PUSH1 0x1 ADD DUP1 SLOAD PUSH2 0x92A SWAP1 PUSH2 0x1364 JUMP JUMPDEST DUP1 PUSH1 0x1F ADD PUSH1 0x20 DUP1 SWAP2 DIV MUL PUSH1 0x20 ADD PUSH1 0x40 MLOAD SWAP1 DUP2 ADD PUSH1 0x40 MSTORE DUP1 SWAP3 SWAP2 SWAP1 DUP2 DUP2 MSTORE PUSH1 0x20 ADD DUP3 DUP1 SLOAD PUSH2 0x956 SWAP1 PUSH2 0x1364 JUMP JUMPDEST DUP1 ISZERO PUSH2 0x9A3 JUMPI DUP1 PUSH1 0x1F LT PUSH2 0x978 JUMPI PUSH2 0x100 DUP1 DUP4 SLOAD DIV MUL DUP4 MSTORE SWAP2 PUSH1 0x20 ADD SWAP2 PUSH2 0x9A3 JUMP JUMPDEST DUP3 ADD SWAP2 SWAP1 PUSH1 0x0 MSTORE PUSH1 0x20 PUSH1 0x0 KECCAK256 SWAP1 JUMPDEST DUP2 SLOAD DUP2 MSTORE SWAP1 PUSH1 0x1 ADD SWAP1 PUSH1 0x20 ADD DUP1 DUP4 GT PUSH2 0x986 JUMPI DUP3 SWAP1 SUB PUSH1 0x1F AND DUP3 ADD SWAP2 JUMPDEST POP POP POP POP POP SWAP1 DUP1 PUSH1 0x2 ADD DUP1 SLOAD PUSH2 0x9B8 SWAP1 PUSH2 0x1364 JUMP JUMPDEST DUP1 PUSH1 0x1F ADD PUSH1 0x20 DUP1 SWAP2 DIV MUL PUSH1 0x20 ADD PUSH1 0x40 MLOAD SWAP1 DUP2 ADD PUSH1 0x40 MSTORE DUP1 SWAP3 SWAP2 SWAP1 DUP2 DUP2 MSTORE PUSH1 0x20 ADD DUP3 DUP1 SLOAD PUSH2 0x9E4 SWAP1 PUSH2 0x1364 JUMP JUMPDEST DUP1 ISZERO PUSH2 0xA31 JUMPI DUP1 PUSH1 0x1F LT PUSH2 0xA06 JUMPI PUSH2 0x100 DUP1 DUP4 SLOAD DIV MUL DUP4 MSTORE SWAP2 PUSH1 0x20 ADD SWAP2 PUSH2 0xA31 JUMP JUMPDEST DUP3 ADD SWAP2 SWAP1 PUSH1 0x0 MSTORE PUSH1 0x20 PUSH1 0x0 KECCAK256 SWAP1 JUMPDEST DUP2 SLOAD DUP2 MSTORE SWAP1 PUSH1 0x1 ADD SWAP1 PUSH1 0x20 ADD DUP1 DUP4 GT PUSH2 0xA14 JUMPI DUP3 SWAP1 SUB PUSH1 0x1F AND DUP3 ADD SWAP2 JUMPDEST POP POP POP POP POP SWAP1 DUP1 PUSH1 0x3 ADD SLOAD SWAP1 POP DUP5 JUMP JUMPDEST PUSH1 0x0 DUP1 DUP5 PUSH1 0x40 MLOAD PUSH1 0x20 ADD PUSH2 0xA55 SWAP2 SWAP1 PUSH2 0x1053 JUMP JUMPDEST PUSH1 0x40 MLOAD PUSH1 0x20 DUP2 DUP4 SUB SUB DUP2 MSTORE SWAP1 PUSH1 0x40 MSTORE DUP1 MLOAD SWAP1 PUSH1 0x20 ADD KECCAK256 SWAP1 POP PUSH2 0xA77 DUP2 DUP7 PUSH2 0xB63 JUMP JUMPDEST PUSH2 0xAB6 JUMPI PUSH1 0x40 MLOAD PUSH32 0x8C379A000000000000000000000000000000000000000000000000000000000 DUP2 MSTORE PUSH1 0x4 ADD PUSH2 0xAAD SWAP1 PUSH2 0x11EF JUMP JUMPDEST PUSH1 0x40 MLOAD DUP1 SWAP2 SUB SWAP1 REVERT JUMPDEST PUSH1 0x0 DUP1 PUSH1 0x0 DUP4 DUP2 MSTORE PUSH1 0x20 ADD SWAP1 DUP2 MSTORE PUSH1 0x20 ADD PUSH1 0x0 KECCAK256 SWAP1 POP DUP6 DUP2 PUSH1 0x0 ADD SWAP1 DUP1 MLOAD SWAP1 PUSH1 0x20 ADD SWAP1 PUSH2 0xAE4 SWAP3 SWAP2 SWAP1 PUSH2 0xBF9 JUMP JUMPDEST POP DUP5 DUP2 PUSH1 0x1 ADD SWAP1 DUP1 MLOAD SWAP1 PUSH1 0x20 ADD SWAP1 PUSH2 0xAFD SWAP3 SWAP2 SWAP1 PUSH2 0xBF9 JUMP JUMPDEST POP DUP4 DUP2 PUSH1 0x2 ADD SWAP1 DUP1 MLOAD SWAP1 PUSH1 0x20 ADD SWAP1 PUSH2 0xB16 SWAP3 SWAP2 SWAP1 PUSH2 0xBF9 JUMP JUMPDEST POP TIMESTAMP DUP2 PUSH1 0x3 ADD DUP2 SWAP1 SSTORE POP PUSH32 0xC8922D91FBABBE8DF5D667708C678575856A856A2A465EBD9626A40AB6A16F5F DUP3 PUSH1 0x40 MLOAD PUSH2 0xB4F SWAP2 SWAP1 PUSH2 0x120F JUMP JUMPDEST PUSH1 0x40 MLOAD DUP1 SWAP2 SUB SWAP1 LOG1 DUP2 SWAP3 POP POP POP SWAP4 SWAP3 POP POP POP JUMP JUMPDEST PUSH1 0x0 DUP2 PUSH1 0x40 MLOAD PUSH1 0x20 ADD PUSH2 0xB76 SWAP2 SWAP1 PUSH2 0x1053 JUMP JUMPDEST PUSH1 0x40 MLOAD PUSH1 0x20 DUP2 DUP4 SUB SUB DUP2 MSTORE SWAP1 PUSH1 0x40 MSTORE DUP1 MLOAD SWAP1 PUSH1 0x20 ADD KECCAK256 PUSH1 0x0 DUP1 DUP6 DUP2 MSTORE PUSH1 0x20 ADD SWAP1 DUP2 MSTORE PUSH1 0x20 ADD PUSH1 0x0 KECCAK256 PUSH1 0x0 ADD PUSH1 0x40 MLOAD PUSH1 0x20 ADD PUSH2 0xBB1 SWAP2 SWAP1 PUSH2 0x106A JUMP JUMPDEST PUSH1 0x40 MLOAD PUSH1 0x20 DUP2 DUP4 SUB SUB DUP2 MSTORE SWAP1 PUSH1 0x40 MSTORE DUP1 MLOAD SWAP1 PUSH1 0x20 ADD KECCAK256 EQ ISZERO SWAP1 POP SWAP3 SWAP2 POP POP JUMP JUMPDEST PUSH1 0x40 MLOAD DUP1 PUSH1 0x80 ADD PUSH1 0x40 MSTORE DUP1 PUSH1 0x60 DUP2 MSTORE PUSH1 0x20 ADD PUSH1 0x60 DUP2 MSTORE PUSH1 0x20 ADD PUSH1 0x60 DUP2 MSTORE PUSH1 0x20 ADD PUSH1 0x0 DUP2 MSTORE POP SWAP1 JUMP JUMPDEST DUP3 DUP1 SLOAD PUSH2 0xC05 SWAP1 PUSH2 0x1364 JUMP JUMPDEST SWAP1 PUSH1 0x0 MSTORE PUSH1 0x20 PUSH1 0x0 KECCAK256 SWAP1 PUSH1 0x1F ADD PUSH1 0x20 SWAP1 DIV DUP2 ADD SWAP3 DUP3 PUSH2 0xC27 JUMPI PUSH1 0x0 DUP6 SSTORE PUSH2 0xC6E JUMP JUMPDEST DUP3 PUSH1 0x1F LT PUSH2 0xC40 JUMPI DUP1 MLOAD PUSH1 0xFF NOT AND DUP4 DUP1 ADD OR DUP6 SSTORE PUSH2 0xC6E JUMP JUMPDEST DUP3 DUP1 ADD PUSH1 0x1 ADD DUP6 SSTORE DUP3 ISZERO PUSH2 0xC6E JUMPI SWAP2 DUP3 ADD JUMPDEST DUP3 DUP2 GT ISZERO PUSH2 0xC6D JUMPI DUP3 MLOAD DUP3 SSTORE SWAP2 PUSH1 0x20 ADD SWAP2 SWAP1 PUSH1 0x1 ADD SWAP1 PUSH2 0xC52 JUMP JUMPDEST JUMPDEST POP SWAP1 POP PUSH2 0xC7B SWAP2 SWAP1 PUSH2 0xC7F JUMP JUMPDEST POP SWAP1 JUMP JUMPDEST JUMPDEST DUP1 DUP3 GT ISZERO PUSH2 0xC98 JUMPI PUSH1 0x0 DUP2 PUSH1 0x0 SWAP1 SSTORE POP PUSH1 0x1 ADD PUSH2 0xC80 JUMP JUMPDEST POP SWAP1 JUMP JUMPDEST PUSH1 0x0 PUSH2 0xCAF PUSH2 0xCAA DUP5 PUSH2 0x1284 JUMP JUMPDEST PUSH2 0x125F JUMP JUMPDEST SWAP1 POP DUP3 DUP2 MSTORE PUSH1 0x20 DUP2 ADD DUP5 DUP5 DUP5 ADD GT ISZERO PUSH2 0xCCB JUMPI PUSH2 0xCCA PUSH2 0x142A JUMP JUMPDEST JUMPDEST PUSH2 0xCD6 DUP5 DUP3 DUP6 PUSH2 0x1322 JUMP JUMPDEST POP SWAP4 SWAP3 POP POP POP JUMP JUMPDEST PUSH1 0x0 DUP2 CALLDATALOAD SWAP1 POP PUSH2 0xCED DUP2 PUSH2 0x149C JUMP JUMPDEST SWAP3 SWAP2 POP POP JUMP JUMPDEST PUSH1 0x0 DUP3 PUSH1 0x1F DUP4 ADD SLT PUSH2 0xD08 JUMPI PUSH2 0xD07 PUSH2 0x1425 JUMP JUMPDEST JUMPDEST DUP2 CALLDATALOAD PUSH2 0xD18 DUP5 DUP3 PUSH1 0x20 DUP7 ADD PUSH2 0xC9C JUMP JUMPDEST SWAP2 POP POP SWAP3 SWAP2 POP POP JUMP JUMPDEST PUSH1 0x0 PUSH1 0x20 DUP3 DUP5 SUB SLT ISZERO PUSH2 0xD37 JUMPI PUSH2 0xD36 PUSH2 0x1434 JUMP JUMPDEST JUMPDEST PUSH1 0x0 PUSH2 0xD45 DUP5 DUP3 DUP6 ADD PUSH2 0xCDE JUMP JUMPDEST SWAP2 POP POP SWAP3 SWAP2 POP POP JUMP JUMPDEST PUSH1 0x0 PUSH1 0x20 DUP3 DUP5 SUB SLT ISZERO PUSH2 0xD64 JUMPI PUSH2 0xD63 PUSH2 0x1434 JUMP JUMPDEST JUMPDEST PUSH1 0x0 DUP3 ADD CALLDATALOAD PUSH8 0xFFFFFFFFFFFFFFFF DUP2 GT ISZERO PUSH2 0xD82 JUMPI PUSH2 0xD81 PUSH2 0x142F JUMP JUMPDEST JUMPDEST PUSH2 0xD8E DUP5 DUP3 DUP6 ADD PUSH2 0xCF3 JUMP JUMPDEST SWAP2 POP POP SWAP3 SWAP2 POP POP JUMP JUMPDEST PUSH1 0x0 DUP1 PUSH1 0x0 PUSH1 0x60 DUP5 DUP7 SUB SLT ISZERO PUSH2 0xDB0 JUMPI PUSH2 0xDAF PUSH2 0x1434 JUMP JUMPDEST JUMPDEST PUSH1 0x0 DUP5 ADD CALLDATALOAD PUSH8 0xFFFFFFFFFFFFFFFF DUP2 GT ISZERO PUSH2 0xDCE JUMPI PUSH2 0xDCD PUSH2 0x142F JUMP JUMPDEST JUMPDEST PUSH2 0xDDA DUP7 DUP3 DUP8 ADD PUSH2 0xCF3 JUMP JUMPDEST SWAP4 POP POP PUSH1 0x20 DUP5 ADD CALLDATALOAD PUSH8 0xFFFFFFFFFFFFFFFF DUP2 GT ISZERO PUSH2 0xDFB JUMPI PUSH2 0xDFA PUSH2 0x142F JUMP JUMPDEST JUMPDEST PUSH2 0xE07 DUP7 DUP3 DUP8 ADD PUSH2 0xCF3 JUMP JUMPDEST SWAP3 POP POP PUSH1 0x40 DUP5 ADD CALLDATALOAD PUSH8 0xFFFFFFFFFFFFFFFF DUP2 GT ISZERO PUSH2 0xE28 JUMPI PUSH2 0xE27 PUSH2 0x142F JUMP JUMPDEST JUMPDEST PUSH2 0xE34 DUP7 DUP3 DUP8 ADD PUSH2 0xCF3 JUMP JUMPDEST SWAP2 POP POP SWAP3 POP SWAP3 POP SWAP3 JUMP JUMPDEST PUSH2 0xE47 DUP2 PUSH2 0x1302 JUMP JUMPDEST DUP3 MSTORE POP POP JUMP JUMPDEST PUSH2 0xE56 DUP2 PUSH2 0x130E JUMP JUMPDEST DUP3 MSTORE POP POP JUMP JUMPDEST PUSH1 0x0 PUSH2 0xE67 DUP3 PUSH2 0x12CA JUMP JUMPDEST PUSH2 0xE71 DUP2 DUP6 PUSH2 0x12D5 JUMP JUMPDEST SWAP4 POP PUSH2 0xE81 DUP2 DUP6 PUSH1 0x20 DUP7 ADD PUSH2 0x1331 JUMP JUMPDEST PUSH2 0xE8A DUP2 PUSH2 0x1439 JUMP JUMPDEST DUP5 ADD SWAP2 POP POP SWAP3 SWAP2 POP POP JUMP JUMPDEST PUSH1 0x0 PUSH2 0xEA0 DUP3 PUSH2 0x12CA JUMP JUMPDEST PUSH2 0xEAA DUP2 DUP6 PUSH2 0x12E6 JUMP JUMPDEST SWAP4 POP PUSH2 0xEBA DUP2 DUP6 PUSH1 0x20 DUP7 ADD PUSH2 0x1331 JUMP JUMPDEST PUSH2 0xEC3 DUP2 PUSH2 0x1439 JUMP JUMPDEST DUP5 ADD SWAP2 POP POP SWAP3 SWAP2 POP POP JUMP JUMPDEST PUSH1 0x0 PUSH2 0xED9 DUP3 PUSH2 0x12CA JUMP JUMPDEST PUSH2 0xEE3 DUP2 DUP6 PUSH2 0x12F7 JUMP JUMPDEST SWAP4 POP PUSH2 0xEF3 DUP2 DUP6 PUSH1 0x20 DUP7 ADD PUSH2 0x1331 JUMP JUMPDEST DUP1 DUP5 ADD SWAP2 POP POP SWAP3 SWAP2 POP POP JUMP JUMPDEST PUSH1 0x0 DUP2 SLOAD PUSH2 0xF0C DUP2 PUSH2 0x1364 JUMP JUMPDEST PUSH2 0xF16 DUP2 DUP7 PUSH2 0x12F7 JUMP JUMPDEST SWAP5 POP PUSH1 0x1 DUP3 AND PUSH1 0x0 DUP2 EQ PUSH2 0xF31 JUMPI PUSH1 0x1 DUP2 EQ PUSH2 0xF42 JUMPI PUSH2 0xF75 JUMP JUMPDEST PUSH1 0xFF NOT DUP4 AND DUP7 MSTORE DUP2 DUP7 ADD SWAP4 POP PUSH2 0xF75 JUMP JUMPDEST PUSH2 0xF4B DUP6 PUSH2 0x12B5 JUMP JUMPDEST PUSH1 0x0 JUMPDEST DUP4 DUP2 LT ISZERO PUSH2 0xF6D JUMPI DUP2 SLOAD DUP2 DUP10 ADD MSTORE PUSH1 0x1 DUP3 ADD SWAP2 POP PUSH1 0x20 DUP2 ADD SWAP1 POP PUSH2 0xF4E JUMP JUMPDEST DUP4 DUP9 ADD SWAP6 POP POP POP JUMPDEST POP POP POP SWAP3 SWAP2 POP POP JUMP JUMPDEST PUSH1 0x0 PUSH2 0xF8B PUSH1 0x18 DUP4 PUSH2 0x12E6 JUMP JUMPDEST SWAP2 POP PUSH2 0xF96 DUP3 PUSH2 0x144A JUMP JUMPDEST PUSH1 0x20 DUP3 ADD SWAP1 POP SWAP2 SWAP1 POP JUMP JUMPDEST PUSH1 0x0 PUSH2 0xFAE PUSH1 0x7 DUP4 PUSH2 0x12E6 JUMP JUMPDEST SWAP2 POP PUSH2 0xFB9 DUP3 PUSH2 0x1473 JUMP JUMPDEST PUSH1 0x20 DUP3 ADD SWAP1 POP SWAP2 SWAP1 POP JUMP JUMPDEST PUSH1 0x0 PUSH1 0x80 DUP4 ADD PUSH1 0x0 DUP4 ADD MLOAD DUP5 DUP3 SUB PUSH1 0x0 DUP7 ADD MSTORE PUSH2 0xFE1 DUP3 DUP3 PUSH2 0xE5C JUMP JUMPDEST SWAP2 POP POP PUSH1 0x20 DUP4 ADD MLOAD DUP5 DUP3 SUB PUSH1 0x20 DUP7 ADD MSTORE PUSH2 0xFFB DUP3 DUP3 PUSH2 0xE5C JUMP JUMPDEST SWAP2 POP POP PUSH1 0x40 DUP4 ADD MLOAD DUP5 DUP3 SUB PUSH1 0x40 DUP7 ADD MSTORE PUSH2 0x1015 DUP3 DUP3 PUSH2 0xE5C JUMP JUMPDEST SWAP2 POP POP PUSH1 0x60 DUP4 ADD MLOAD PUSH2 0x102A PUSH1 0x60 DUP7 ADD DUP3 PUSH2 0x1035 JUMP JUMPDEST POP DUP1 SWAP2 POP POP SWAP3 SWAP2 POP POP JUMP JUMPDEST PUSH2 0x103E DUP2 PUSH2 0x1318 JUMP JUMPDEST DUP3 MSTORE POP POP JUMP JUMPDEST PUSH2 0x104D DUP2 PUSH2 0x1318 JUMP JUMPDEST DUP3 MSTORE POP POP JUMP JUMPDEST PUSH1 0x0 PUSH2 0x105F DUP3 DUP5 PUSH2 0xECE JUMP JUMPDEST SWAP2 POP DUP2 SWAP1 POP SWAP3 SWAP2 POP POP JUMP JUMPDEST PUSH1 0x0 PUSH2 0x1076 DUP3 DUP5 PUSH2 0xEFF JUMP JUMPDEST SWAP2 POP DUP2 SWAP1 POP SWAP3 SWAP2 POP POP JUMP JUMPDEST PUSH1 0x0 PUSH1 0x20 DUP3 ADD SWAP1 POP PUSH2 0x1096 PUSH1 0x0 DUP4 ADD DUP5 PUSH2 0xE4D JUMP JUMPDEST SWAP3 SWAP2 POP POP JUMP JUMPDEST PUSH1 0x0 PUSH2 0x180 DUP3 ADD SWAP1 POP DUP2 DUP2 SUB PUSH1 0x0 DUP4 ADD MSTORE PUSH2 0x10B7 DUP2 DUP16 PUSH2 0xE95 JUMP JUMPDEST SWAP1 POP PUSH2 0x10C6 PUSH1 0x20 DUP4 ADD DUP15 PUSH2 0xE3E JUMP JUMPDEST PUSH2 0x10D3 PUSH1 0x40 DUP4 ADD DUP14 PUSH2 0x1044 JUMP JUMPDEST DUP2 DUP2 SUB PUSH1 0x60 DUP4 ADD MSTORE PUSH2 0x10E5 DUP2 DUP13 PUSH2 0xE95 JUMP JUMPDEST SWAP1 POP DUP2 DUP2 SUB PUSH1 0x80 DUP4 ADD MSTORE PUSH2 0x10F9 DUP2 DUP12 PUSH2 0xE95 JUMP JUMPDEST SWAP1 POP DUP2 DUP2 SUB PUSH1 0xA0 DUP4 ADD MSTORE PUSH2 0x110D DUP2 DUP11 PUSH2 0xE95 JUMP JUMPDEST SWAP1 POP DUP2 DUP2 SUB PUSH1 0xC0 DUP4 ADD MSTORE PUSH2 0x1121 DUP2 DUP10 PUSH2 0xE95 JUMP JUMPDEST SWAP1 POP DUP2 DUP2 SUB PUSH1 0xE0 DUP4 ADD MSTORE PUSH2 0x1135 DUP2 DUP9 PUSH2 0xE95 JUMP JUMPDEST SWAP1 POP DUP2 DUP2 SUB PUSH2 0x100 DUP4 ADD MSTORE PUSH2 0x114A DUP2 DUP8 PUSH2 0xE95 JUMP JUMPDEST SWAP1 POP DUP2 DUP2 SUB PUSH2 0x120 DUP4 ADD MSTORE PUSH2 0x115F DUP2 DUP7 PUSH2 0xE95 JUMP JUMPDEST SWAP1 POP PUSH2 0x116F PUSH2 0x140 DUP4 ADD DUP6 PUSH2 0xE3E JUMP JUMPDEST DUP2 DUP2 SUB PUSH2 0x160 DUP4 ADD MSTORE PUSH2 0x1182 DUP2 DUP5 PUSH2 0xE95 JUMP JUMPDEST SWAP1 POP SWAP14 SWAP13 POP POP POP POP POP POP POP POP POP POP POP POP POP JUMP JUMPDEST PUSH1 0x0 PUSH1 0x80 DUP3 ADD SWAP1 POP DUP2 DUP2 SUB PUSH1 0x0 DUP4 ADD MSTORE PUSH2 0x11AF DUP2 DUP8 PUSH2 0xE95 JUMP JUMPDEST SWAP1 POP DUP2 DUP2 SUB PUSH1 0x20 DUP4 ADD MSTORE PUSH2 0x11C3 DUP2 DUP7 PUSH2 0xE95 JUMP JUMPDEST SWAP1 POP DUP2 DUP2 SUB PUSH1 0x40 DUP4 ADD MSTORE PUSH2 0x11D7 DUP2 DUP6 PUSH2 0xE95 JUMP JUMPDEST SWAP1 POP PUSH2 0x11E6 PUSH1 0x60 DUP4 ADD DUP5 PUSH2 0x1044 JUMP JUMPDEST SWAP6 SWAP5 POP POP POP POP POP JUMP JUMPDEST PUSH1 0x0 PUSH1 0x20 DUP3 ADD SWAP1 POP DUP2 DUP2 SUB PUSH1 0x0 DUP4 ADD MSTORE PUSH2 0x1208 DUP2 PUSH2 0xF7E JUMP JUMPDEST SWAP1 POP SWAP2 SWAP1 POP JUMP JUMPDEST PUSH1 0x0 PUSH1 0x40 DUP3 ADD SWAP1 POP DUP2 DUP2 SUB PUSH1 0x0 DUP4 ADD MSTORE PUSH2 0x1228 DUP2 PUSH2 0xFA1 JUMP JUMPDEST SWAP1 POP PUSH2 0x1237 PUSH1 0x20 DUP4 ADD DUP5 PUSH2 0xE4D JUMP JUMPDEST SWAP3 SWAP2 POP POP JUMP JUMPDEST PUSH1 0x0 PUSH1 0x20 DUP3 ADD SWAP1 POP DUP2 DUP2 SUB PUSH1 0x0 DUP4 ADD MSTORE PUSH2 0x1257 DUP2 DUP5 PUSH2 0xFC4 JUMP JUMPDEST SWAP1 POP SWAP3 SWAP2 POP POP JUMP JUMPDEST PUSH1 0x0 PUSH2 0x1269 PUSH2 0x127A JUMP JUMPDEST SWAP1 POP PUSH2 0x1275 DUP3 DUP3 PUSH2 0x1396 JUMP JUMPDEST SWAP2 SWAP1 POP JUMP JUMPDEST PUSH1 0x0 PUSH1 0x40 MLOAD SWAP1 POP SWAP1 JUMP JUMPDEST PUSH1 0x0 PUSH8 0xFFFFFFFFFFFFFFFF DUP3 GT ISZERO PUSH2 0x129F JUMPI PUSH2 0x129E PUSH2 0x13F6 JUMP JUMPDEST JUMPDEST PUSH2 0x12A8 DUP3 PUSH2 0x1439 JUMP JUMPDEST SWAP1 POP PUSH1 0x20 DUP2 ADD SWAP1 POP SWAP2 SWAP1 POP JUMP JUMPDEST PUSH1 0x0 DUP2 SWAP1 POP DUP2 PUSH1 0x0 MSTORE PUSH1 0x20 PUSH1 0x0 KECCAK256 SWAP1 POP SWAP2 SWAP1 POP JUMP JUMPDEST PUSH1 0x0 DUP2 MLOAD SWAP1 POP SWAP2 SWAP1 POP JUMP JUMPDEST PUSH1 0x0 DUP3 DUP3 MSTORE PUSH1 0x20 DUP3 ADD SWAP1 POP SWAP3 SWAP2 POP POP JUMP JUMPDEST PUSH1 0x0 DUP3 DUP3 MSTORE PUSH1 0x20 DUP3 ADD SWAP1 POP SWAP3 SWAP2 POP POP JUMP JUMPDEST PUSH1 0x0 DUP2 SWAP1 POP SWAP3 SWAP2 POP POP JUMP JUMPDEST PUSH1 0x0 DUP2 ISZERO ISZERO SWAP1 POP SWAP2 SWAP1 POP JUMP JUMPDEST PUSH1 0x0 DUP2 SWAP1 POP SWAP2 SWAP1 POP JUMP JUMPDEST PUSH1 0x0 DUP2 SWAP1 POP SWAP2 SWAP1 POP JUMP JUMPDEST DUP3 DUP2 DUP4 CALLDATACOPY PUSH1 0x0 DUP4 DUP4 ADD MSTORE POP POP POP JUMP JUMPDEST PUSH1 0x0 JUMPDEST DUP4 DUP2 LT ISZERO PUSH2 0x134F JUMPI DUP1 DUP3 ADD MLOAD DUP2 DUP5 ADD MSTORE PUSH1 0x20 DUP2 ADD SWAP1 POP PUSH2 0x1334 JUMP JUMPDEST DUP4 DUP2 GT ISZERO PUSH2 0x135E JUMPI PUSH1 0x0 DUP5 DUP5 ADD MSTORE JUMPDEST POP POP POP POP JUMP JUMPDEST PUSH1 0x0 PUSH1 0x2 DUP3 DIV SWAP1 POP PUSH1 0x1 DUP3 AND DUP1 PUSH2 0x137C JUMPI PUSH1 0x7F DUP3 AND SWAP2 POP JUMPDEST PUSH1 0x20 DUP3 LT DUP2 EQ ISZERO PUSH2 0x1390 JUMPI PUSH2 0x138F PUSH2 0x13C7 JUMP JUMPDEST JUMPDEST POP SWAP2 SWAP1 POP JUMP JUMPDEST PUSH2 0x139F DUP3 PUSH2 0x1439 JUMP JUMPDEST DUP2 ADD DUP2 DUP2 LT PUSH8 0xFFFFFFFFFFFFFFFF DUP3 GT OR ISZERO PUSH2 0x13BE JUMPI PUSH2 0x13BD PUSH2 0x13F6 JUMP JUMPDEST JUMPDEST DUP1 PUSH1 0x40 MSTORE POP POP POP JUMP JUMPDEST PUSH32 0x4E487B7100000000000000000000000000000000000000000000000000000000 PUSH1 0x0 MSTORE PUSH1 0x22 PUSH1 0x4 MSTORE PUSH1 0x24 PUSH1 0x0 REVERT JUMPDEST PUSH32 0x4E487B7100000000000000000000000000000000000000000000000000000000 PUSH1 0x0 MSTORE PUSH1 0x41 PUSH1 0x4 MSTORE PUSH1 0x24 PUSH1 0x0 REVERT JUMPDEST PUSH1 0x0 DUP1 REVERT JUMPDEST PUSH1 0x0 DUP1 REVERT JUMPDEST PUSH1 0x0 DUP1 REVERT JUMPDEST PUSH1 0x0 DUP1 REVERT JUMPDEST PUSH1 0x0 PUSH1 0x1F NOT PUSH1 0x1F DUP4 ADD AND SWAP1 POP SWAP2 SWAP1 POP JUMP JUMPDEST PUSH32 0x4163636F756E7420616C7265616479206578697374696E670000000000000000 PUSH1 0x0 DUP3 ADD MSTORE POP JUMP JUMPDEST PUSH32 0x7375636365737300000000000000000000000000000000000000000000000000 PUSH1 0x0 DUP3 ADD MSTORE POP JUMP JUMPDEST PUSH2 0x14A5 DUP2 PUSH2 0x130E JUMP JUMPDEST DUP2 EQ PUSH2 0x14B0 JUMPI PUSH1 0x0 DUP1 REVERT JUMPDEST POP JUMP INVALID LOG2 PUSH5 0x6970667358 0x22 SLT KECCAK256 0x4A 0x2F PUSH24 0x669B368D489E49552BC3622376B3884634933A0FC2436C7B 0x5F DUP16 0xBC ADD NOT PUSH5 0x736F6C6343 STOP ADDMOD SMOD STOP CALLER "
				},
				"gasEstimates": {
					"creation": {
						"codeDepositCost": "1070600",
						"executionCost": "1114",
						"totalCost": "1071714"
					},
					"external": {
						"add_account(string,string,string)": "infinite",
						"get_account(string)": "infinite",
						"mappingAccount(bytes32)": "infinite",
						"mappingTransaction(bytes32)": "infinite"
					},
					"internal": {
						"account_checker(bytes32,string memory)": "infinite"
					}
				},
				"methodIdentifiers": {
					"add_account(string,string,string)": "b24c908a",
					"get_account(string)": "174ba7ff",
					"mappingAccount(bytes32)": "462e1eed",
					"mappingTransaction(bytes32)": "30ee52a9"
				}
			},
			"storageLayout": {
				"storage": [
					{
						"astId": 21,
						"contract": "contracts/Halal.sol:Halal",
						"label": "mappingAccount",
						"offset": 0,
						"slot": "0",
						"type": "t_mapping(t_bytes32,t_struct(accountData)16_storage)"
					},
					{
						"astId": 51,
						"contract": "contracts/Halal.sol:Halal",
						"label": "mappingTransaction",
						"offset": 0,
						"slot": "1",
						"type": "t_mapping(t_bytes32,t_struct(transaction)46_storage)"
					}
				],
				"types": {
					"t_bool": {
						"encoding": "inplace",
						"label": "bool",
						"numberOfBytes": "1"
					},
					"t_bytes32": {
						"encoding": "inplace",
						"label": "bytes32",
						"numberOfBytes": "32"
					},
					"t_mapping(t_bytes32,t_struct(accountData)16_storage)": {
						"encoding": "mapping",
						"key": "t_bytes32",
						"label": "mapping(bytes32 => struct Halal.accountData)",
						"numberOfBytes": "32",
						"value": "t_struct(accountData)16_storage"
					},
					"t_mapping(t_bytes32,t_struct(transaction)46_storage)": {
						"encoding": "mapping",
						"key": "t_bytes32",
						"label": "mapping(bytes32 => struct Halal.transaction)",
						"numberOfBytes": "32",
						"value": "t_struct(transaction)46_storage"
					},
					"t_string_storage": {
						"encoding": "bytes",
						"label": "string",
						"numberOfBytes": "32"
					},
					"t_struct(accountData)16_storage": {
						"encoding": "inplace",
						"label": "struct Halal.accountData",
						"members": [
							{
								"astId": 9,
								"contract": "contracts/Halal.sol:Halal",
								"label": "account_id",
								"offset": 0,
								"slot": "0",
								"type": "t_string_storage"
							},
							{
								"astId": 11,
								"contract": "contracts/Halal.sol:Halal",
								"label": "name",
								"offset": 0,
								"slot": "1",
								"type": "t_string_storage"
							},
							{
								"astId": 13,
								"contract": "contracts/Halal.sol:Halal",
								"label": "role",
								"offset": 0,
								"slot": "2",
								"type": "t_string_storage"
							},
							{
								"astId": 15,
								"contract": "contracts/Halal.sol:Halal",
								"label": "created_at",
								"offset": 0,
								"slot": "3",
								"type": "t_uint256"
							}
						],
						"numberOfBytes": "128"
					},
					"t_struct(transaction)46_storage": {
						"encoding": "inplace",
						"label": "struct Halal.transaction",
						"members": [
							{
								"astId": 23,
								"contract": "contracts/Halal.sol:Halal",
								"label": "umkm_id",
								"offset": 0,
								"slot": "0",
								"type": "t_string_storage"
							},
							{
								"astId": 25,
								"contract": "contracts/Halal.sol:Halal",
								"label": "reg_status",
								"offset": 0,
								"slot": "1",
								"type": "t_bool"
							},
							{
								"astId": 27,
								"contract": "contracts/Halal.sol:Halal",
								"label": "reg_date",
								"offset": 0,
								"slot": "2",
								"type": "t_uint256"
							},
							{
								"astId": 29,
								"contract": "contracts/Halal.sol:Halal",
								"label": "bpjph_desc",
								"offset": 0,
								"slot": "3",
								"type": "t_string_storage"
							},
							{
								"astId": 31,
								"contract": "contracts/Halal.sol:Halal",
								"label": "bpjph_result",
								"offset": 0,
								"slot": "4",
								"type": "t_string_storage"
							},
							{
								"astId": 33,
								"contract": "contracts/Halal.sol:Halal",
								"label": "lph_appintment",
								"offset": 0,
								"slot": "5",
								"type": "t_string_storage"
							},
							{
								"astId": 35,
								"contract": "contracts/Halal.sol:Halal",
								"label": "bpjph_id",
								"offset": 0,
								"slot": "6",
								"type": "t_string_storage"
							},
							{
								"astId": 37,
								"contract": "contracts/Halal.sol:Halal",
								"label": "lph_desc",
								"offset": 0,
								"slot": "7",
								"type": "t_string_storage"
							},
							{
								"astId": 39,
								"contract": "contracts/Halal.sol:Halal",
								"label": "review_status",
								"offset": 0,
								"slot": "8",
								"type": "t_string_storage"
							},
							{
								"astId": 41,
								"contract": "contracts/Halal.sol:Halal",
								"label": "desicion_mui",
								"offset": 0,
								"slot": "9",
								"type": "t_string_storage"
							},
							{
								"astId": 43,
								"contract": "contracts/Halal.sol:Halal",
								"label": "mui_approved",
								"offset": 0,
								"slot": "10",
								"type": "t_bool"
							},
							{
								"astId": 45,
								"contract": "contracts/Halal.sol:Halal",
								"label": "cert_data",
								"offset": 0,
								"slot": "11",
								"type": "t_string_storage"
							}
						],
						"numberOfBytes": "384"
					},
					"t_uint256": {
						"encoding": "inplace",
						"label": "uint256",
						"numberOfBytes": "32"
					}
				}
			},
			"userdoc": {
				"kind": "user",
				"methods": {},
				"version": 1
			}
		}
	}
}