{
	"contracts/Halal.sol": {
		"Halal": {
			"abi": [
				{
					"inputs": [
						{
							"internalType": "string",
							"name": "account_id",
							"type": "string"
						},
						{
							"internalType": "string",
							"name": "name",
							"type": "string"
						},
						{
							"internalType": "string",
							"name": "role",
							"type": "string"
						}
					],
					"name": "add_account",
					"outputs": [],
					"stateMutability": "nonpayable",
					"type": "function"
				},
				{
					"inputs": [
						{
							"internalType": "bytes32",
							"name": "",
							"type": "bytes32"
						}
					],
					"name": "mappingAccount",
					"outputs": [
						{
							"internalType": "string",
							"name": "account_id",
							"type": "string"
						},
						{
							"internalType": "string",
							"name": "name",
							"type": "string"
						},
						{
							"internalType": "string",
							"name": "role",
							"type": "string"
						},
						{
							"internalType": "uint256",
							"name": "created_at",
							"type": "uint256"
						}
					],
					"stateMutability": "view",
					"type": "function"
				},
				{
					"inputs": [
						{
							"internalType": "bytes32",
							"name": "",
							"type": "bytes32"
						}
					],
					"name": "mappingTransaction",
					"outputs": [
						{
							"internalType": "string",
							"name": "umkm_id",
							"type": "string"
						},
						{
							"internalType": "bool",
							"name": "reg_status",
							"type": "bool"
						},
						{
							"internalType": "uint256",
							"name": "reg_date",
							"type": "uint256"
						},
						{
							"internalType": "string",
							"name": "bpjph_desc",
							"type": "string"
						},
						{
							"internalType": "string",
							"name": "bpjph_result",
							"type": "string"
						},
						{
							"internalType": "string",
							"name": "lph_appintment",
							"type": "string"
						},
						{
							"internalType": "string",
							"name": "bpjph_id",
							"type": "string"
						},
						{
							"internalType": "string",
							"name": "lph_desc",
							"type": "string"
						},
						{
							"internalType": "string",
							"name": "review_status",
							"type": "string"
						},
						{
							"internalType": "string",
							"name": "desicion_mui",
							"type": "string"
						},
						{
							"internalType": "bool",
							"name": "mui_approved",
							"type": "bool"
						},
						{
							"internalType": "string",
							"name": "cert_data",
							"type": "string"
						}
					],
					"stateMutability": "view",
					"type": "function"
				}
			],
			"devdoc": {
				"kind": "dev",
				"methods": {},
				"version": 1
			},
			"evm": {
				"assembly": "    /* \"contracts/Halal.sol\":70:1076  contract Halal{... */\n  mstore(0x40, 0x80)\n  callvalue\n  dup1\n  iszero\n  tag_1\n  jumpi\n  0x00\n  dup1\n  revert\ntag_1:\n  pop\n  dataSize(sub_0)\n  dup1\n  dataOffset(sub_0)\n  0x00\n  codecopy\n  0x00\n  return\nstop\n\nsub_0: assembly {\n        /* \"contracts/Halal.sol\":70:1076  contract Halal{... */\n      mstore(0x40, 0x80)\n      callvalue\n      dup1\n      iszero\n      tag_1\n      jumpi\n      0x00\n      dup1\n      revert\n    tag_1:\n      pop\n      jumpi(tag_2, lt(calldatasize, 0x04))\n      shr(0xe0, calldataload(0x00))\n      dup1\n      0x30ee52a9\n      eq\n      tag_3\n      jumpi\n      dup1\n      0x462e1eed\n      eq\n      tag_4\n      jumpi\n      dup1\n      0xb24c908a\n      eq\n      tag_5\n      jumpi\n    tag_2:\n      0x00\n      dup1\n      revert\n        /* \"contracts/Halal.sol\":631:689  mapping (bytes32 => transaction) public mappingTransaction */\n    tag_3:\n      tag_6\n      0x04\n      dup1\n      calldatasize\n      sub\n      dup2\n      add\n      swap1\n      tag_7\n      swap2\n      swap1\n      tag_8\n      jump\t// in\n    tag_7:\n      tag_9\n      jump\t// in\n    tag_6:\n      mload(0x40)\n      tag_10\n      swap13\n      swap12\n      swap11\n      swap10\n      swap9\n      swap8\n      swap7\n      swap6\n      swap5\n      swap4\n      swap3\n      swap2\n      swap1\n      tag_11\n      jump\t// in\n    tag_10:\n      mload(0x40)\n      dup1\n      swap2\n      sub\n      swap1\n      return\n        /* \"contracts/Halal.sol\":215:271  mapping( bytes32 => account_data ) public mappingAccount */\n    tag_4:\n      tag_12\n      0x04\n      dup1\n      calldatasize\n      sub\n      dup2\n      add\n      swap1\n      tag_13\n      swap2\n      swap1\n      tag_8\n      jump\t// in\n    tag_13:\n      tag_14\n      jump\t// in\n    tag_12:\n      mload(0x40)\n      tag_15\n      swap5\n      swap4\n      swap3\n      swap2\n      swap1\n      tag_16\n      jump\t// in\n    tag_15:\n      mload(0x40)\n      dup1\n      swap2\n      sub\n      swap1\n      return\n        /* \"contracts/Halal.sol\":696:1073  function add_account(... */\n    tag_5:\n      tag_17\n      0x04\n      dup1\n      calldatasize\n      sub\n      dup2\n      add\n      swap1\n      tag_18\n      swap2\n      swap1\n      tag_19\n      jump\t// in\n    tag_18:\n      tag_20\n      jump\t// in\n    tag_17:\n      stop\n        /* \"contracts/Halal.sol\":631:689  mapping (bytes32 => transaction) public mappingTransaction */\n    tag_9:\n      mstore(0x20, 0x01)\n      dup1\n      0x00\n      mstore\n      keccak256(0x00, 0x40)\n      0x00\n      swap2\n      pop\n      swap1\n      pop\n      dup1\n      0x00\n      add\n      dup1\n      sload\n      tag_21\n      swap1\n      tag_22\n      jump\t// in\n    tag_21:\n      dup1\n      0x1f\n      add\n      0x20\n      dup1\n      swap2\n      div\n      mul\n      0x20\n      add\n      mload(0x40)\n      swap1\n      dup2\n      add\n      0x40\n      mstore\n      dup1\n      swap3\n      swap2\n      swap1\n      dup2\n      dup2\n      mstore\n      0x20\n      add\n      dup3\n      dup1\n      sload\n      tag_23\n      swap1\n      tag_22\n      jump\t// in\n    tag_23:\n      dup1\n      iszero\n      tag_24\n      jumpi\n      dup1\n      0x1f\n      lt\n      tag_25\n      jumpi\n      0x0100\n      dup1\n      dup4\n      sload\n      div\n      mul\n      dup4\n      mstore\n      swap2\n      0x20\n      add\n      swap2\n      jump(tag_24)\n    tag_25:\n      dup3\n      add\n      swap2\n      swap1\n      0x00\n      mstore\n      keccak256(0x00, 0x20)\n      swap1\n    tag_26:\n      dup2\n      sload\n      dup2\n      mstore\n      swap1\n      0x01\n      add\n      swap1\n      0x20\n      add\n      dup1\n      dup4\n      gt\n      tag_26\n      jumpi\n      dup3\n      swap1\n      sub\n      0x1f\n      and\n      dup3\n      add\n      swap2\n    tag_24:\n      pop\n      pop\n      pop\n      pop\n      pop\n      swap1\n      dup1\n      0x01\n      add\n      0x00\n      swap1\n      sload\n      swap1\n      0x0100\n      exp\n      swap1\n      div\n      0xff\n      and\n      swap1\n      dup1\n      0x02\n      add\n      sload\n      swap1\n      dup1\n      0x03\n      add\n      dup1\n      sload\n      tag_27\n      swap1\n      tag_22\n      jump\t// in\n    tag_27:\n      dup1\n      0x1f\n      add\n      0x20\n      dup1\n      swap2\n      div\n      mul\n      0x20\n      add\n      mload(0x40)\n      swap1\n      dup2\n      add\n      0x40\n      mstore\n      dup1\n      swap3\n      swap2\n      swap1\n      dup2\n      dup2\n      mstore\n      0x20\n      add\n      dup3\n      dup1\n      sload\n      tag_28\n      swap1\n      tag_22\n      jump\t// in\n    tag_28:\n      dup1\n      iszero\n      tag_29\n      jumpi\n      dup1\n      0x1f\n      lt\n      tag_30\n      jumpi\n      0x0100\n      dup1\n      dup4\n      sload\n      div\n      mul\n      dup4\n      mstore\n      swap2\n      0x20\n      add\n      swap2\n      jump(tag_29)\n    tag_30:\n      dup3\n      add\n      swap2\n      swap1\n      0x00\n      mstore\n      keccak256(0x00, 0x20)\n      swap1\n    tag_31:\n      dup2\n      sload\n      dup2\n      mstore\n      swap1\n      0x01\n      add\n      swap1\n      0x20\n      add\n      dup1\n      dup4\n      gt\n      tag_31\n      jumpi\n      dup3\n      swap1\n      sub\n      0x1f\n      and\n      dup3\n      add\n      swap2\n    tag_29:\n      pop\n      pop\n      pop\n      pop\n      pop\n      swap1\n      dup1\n      0x04\n      add\n      dup1\n      sload\n      tag_32\n      swap1\n      tag_22\n      jump\t// in\n    tag_32:\n      dup1\n      0x1f\n      add\n      0x20\n      dup1\n      swap2\n      div\n      mul\n      0x20\n      add\n      mload(0x40)\n      swap1\n      dup2\n      add\n      0x40\n      mstore\n      dup1\n      swap3\n      swap2\n      swap1\n      dup2\n      dup2\n      mstore\n      0x20\n      add\n      dup3\n      dup1\n      sload\n      tag_33\n      swap1\n      tag_22\n      jump\t// in\n    tag_33:\n      dup1\n      iszero\n      tag_34\n      jumpi\n      dup1\n      0x1f\n      lt\n      tag_35\n      jumpi\n      0x0100\n      dup1\n      dup4\n      sload\n      div\n      mul\n      dup4\n      mstore\n      swap2\n      0x20\n      add\n      swap2\n      jump(tag_34)\n    tag_35:\n      dup3\n      add\n      swap2\n      swap1\n      0x00\n      mstore\n      keccak256(0x00, 0x20)\n      swap1\n    tag_36:\n      dup2\n      sload\n      dup2\n      mstore\n      swap1\n      0x01\n      add\n      swap1\n      0x20\n      add\n      dup1\n      dup4\n      gt\n      tag_36\n      jumpi\n      dup3\n      swap1\n      sub\n      0x1f\n      and\n      dup3\n      add\n      swap2\n    tag_34:\n      pop\n      pop\n      pop\n      pop\n      pop\n      swap1\n      dup1\n      0x05\n      add\n      dup1\n      sload\n      tag_37\n      swap1\n      tag_22\n      jump\t// in\n    tag_37:\n      dup1\n      0x1f\n      add\n      0x20\n      dup1\n      swap2\n      div\n      mul\n      0x20\n      add\n      mload(0x40)\n      swap1\n      dup2\n      add\n      0x40\n      mstore\n      dup1\n      swap3\n      swap2\n      swap1\n      dup2\n      dup2\n      mstore\n      0x20\n      add\n      dup3\n      dup1\n      sload\n      tag_38\n      swap1\n      tag_22\n      jump\t// in\n    tag_38:\n      dup1\n      iszero\n      tag_39\n      jumpi\n      dup1\n      0x1f\n      lt\n      tag_40\n      jumpi\n      0x0100\n      dup1\n      dup4\n      sload\n      div\n      mul\n      dup4\n      mstore\n      swap2\n      0x20\n      add\n      swap2\n      jump(tag_39)\n    tag_40:\n      dup3\n      add\n      swap2\n      swap1\n      0x00\n      mstore\n      keccak256(0x00, 0x20)\n      swap1\n    tag_41:\n      dup2\n      sload\n      dup2\n      mstore\n      swap1\n      0x01\n      add\n      swap1\n      0x20\n      add\n      dup1\n      dup4\n      gt\n      tag_41\n      jumpi\n      dup3\n      swap1\n      sub\n      0x1f\n      and\n      dup3\n      add\n      swap2\n    tag_39:\n      pop\n      pop\n      pop\n      pop\n      pop\n      swap1\n      dup1\n      0x06\n      add\n      dup1\n      sload\n      tag_42\n      swap1\n      tag_22\n      jump\t// in\n    tag_42:\n      dup1\n      0x1f\n      add\n      0x20\n      dup1\n      swap2\n      div\n      mul\n      0x20\n      add\n      mload(0x40)\n      swap1\n      dup2\n      add\n      0x40\n      mstore\n      dup1\n      swap3\n      swap2\n      swap1\n      dup2\n      dup2\n      mstore\n      0x20\n      add\n      dup3\n      dup1\n      sload\n      tag_43\n      swap1\n      tag_22\n      jump\t// in\n    tag_43:\n      dup1\n      iszero\n      tag_44\n      jumpi\n      dup1\n      0x1f\n      lt\n      tag_45\n      jumpi\n      0x0100\n      dup1\n      dup4\n      sload\n      div\n      mul\n      dup4\n      mstore\n      swap2\n      0x20\n      add\n      swap2\n      jump(tag_44)\n    tag_45:\n      dup3\n      add\n      swap2\n      swap1\n      0x00\n      mstore\n      keccak256(0x00, 0x20)\n      swap1\n    tag_46:\n      dup2\n      sload\n      dup2\n      mstore\n      swap1\n      0x01\n      add\n      swap1\n      0x20\n      add\n      dup1\n      dup4\n      gt\n      tag_46\n      jumpi\n      dup3\n      swap1\n      sub\n      0x1f\n      and\n      dup3\n      add\n      swap2\n    tag_44:\n      pop\n      pop\n      pop\n      pop\n      pop\n      swap1\n      dup1\n      0x07\n      add\n      dup1\n      sload\n      tag_47\n      swap1\n      tag_22\n      jump\t// in\n    tag_47:\n      dup1\n      0x1f\n      add\n      0x20\n      dup1\n      swap2\n      div\n      mul\n      0x20\n      add\n      mload(0x40)\n      swap1\n      dup2\n      add\n      0x40\n      mstore\n      dup1\n      swap3\n      swap2\n      swap1\n      dup2\n      dup2\n      mstore\n      0x20\n      add\n      dup3\n      dup1\n      sload\n      tag_48\n      swap1\n      tag_22\n      jump\t// in\n    tag_48:\n      dup1\n      iszero\n      tag_49\n      jumpi\n      dup1\n      0x1f\n      lt\n      tag_50\n      jumpi\n      0x0100\n      dup1\n      dup4\n      sload\n      div\n      mul\n      dup4\n      mstore\n      swap2\n      0x20\n      add\n      swap2\n      jump(tag_49)\n    tag_50:\n      dup3\n      add\n      swap2\n      swap1\n      0x00\n      mstore\n      keccak256(0x00, 0x20)\n      swap1\n    tag_51:\n      dup2\n      sload\n      dup2\n      mstore\n      swap1\n      0x01\n      add\n      swap1\n      0x20\n      add\n      dup1\n      dup4\n      gt\n      tag_51\n      jumpi\n      dup3\n      swap1\n      sub\n      0x1f\n      and\n      dup3\n      add\n      swap2\n    tag_49:\n      pop\n      pop\n      pop\n      pop\n      pop\n      swap1\n      dup1\n      0x08\n      add\n      dup1\n      sload\n      tag_52\n      swap1\n      tag_22\n      jump\t// in\n    tag_52:\n      dup1\n      0x1f\n      add\n      0x20\n      dup1\n      swap2\n      div\n      mul\n      0x20\n      add\n      mload(0x40)\n      swap1\n      dup2\n      add\n      0x40\n      mstore\n      dup1\n      swap3\n      swap2\n      swap1\n      dup2\n      dup2\n      mstore\n      0x20\n      add\n      dup3\n      dup1\n      sload\n      tag_53\n      swap1\n      tag_22\n      jump\t// in\n    tag_53:\n      dup1\n      iszero\n      tag_54\n      jumpi\n      dup1\n      0x1f\n      lt\n      tag_55\n      jumpi\n      0x0100\n      dup1\n      dup4\n      sload\n      div\n      mul\n      dup4\n      mstore\n      swap2\n      0x20\n      add\n      swap2\n      jump(tag_54)\n    tag_55:\n      dup3\n      add\n      swap2\n      swap1\n      0x00\n      mstore\n      keccak256(0x00, 0x20)\n      swap1\n    tag_56:\n      dup2\n      sload\n      dup2\n      mstore\n      swap1\n      0x01\n      add\n      swap1\n      0x20\n      add\n      dup1\n      dup4\n      gt\n      tag_56\n      jumpi\n      dup3\n      swap1\n      sub\n      0x1f\n      and\n      dup3\n      add\n      swap2\n    tag_54:\n      pop\n      pop\n      pop\n      pop\n      pop\n      swap1\n      dup1\n      0x09\n      add\n      dup1\n      sload\n      tag_57\n      swap1\n      tag_22\n      jump\t// in\n    tag_57:\n      dup1\n      0x1f\n      add\n      0x20\n      dup1\n      swap2\n      div\n      mul\n      0x20\n      add\n      mload(0x40)\n      swap1\n      dup2\n      add\n      0x40\n      mstore\n      dup1\n      swap3\n      swap2\n      swap1\n      dup2\n      dup2\n      mstore\n      0x20\n      add\n      dup3\n      dup1\n      sload\n      tag_58\n      swap1\n      tag_22\n      jump\t// in\n    tag_58:\n      dup1\n      iszero\n      tag_59\n      jumpi\n      dup1\n      0x1f\n      lt\n      tag_60\n      jumpi\n      0x0100\n      dup1\n      dup4\n      sload\n      div\n      mul\n      dup4\n      mstore\n      swap2\n      0x20\n      add\n      swap2\n      jump(tag_59)\n    tag_60:\n      dup3\n      add\n      swap2\n      swap1\n      0x00\n      mstore\n      keccak256(0x00, 0x20)\n      swap1\n    tag_61:\n      dup2\n      sload\n      dup2\n      mstore\n      swap1\n      0x01\n      add\n      swap1\n      0x20\n      add\n      dup1\n      dup4\n      gt\n      tag_61\n      jumpi\n      dup3\n      swap1\n      sub\n      0x1f\n      and\n      dup3\n      add\n      swap2\n    tag_59:\n      pop\n      pop\n      pop\n      pop\n      pop\n      swap1\n      dup1\n      0x0a\n      add\n      0x00\n      swap1\n      sload\n      swap1\n      0x0100\n      exp\n      swap1\n      div\n      0xff\n      and\n      swap1\n      dup1\n      0x0b\n      add\n      dup1\n      sload\n      tag_62\n      swap1\n      tag_22\n      jump\t// in\n    tag_62:\n      dup1\n      0x1f\n      add\n      0x20\n      dup1\n      swap2\n      div\n      mul\n      0x20\n      add\n      mload(0x40)\n      swap1\n      dup2\n      add\n      0x40\n      mstore\n      dup1\n      swap3\n      swap2\n      swap1\n      dup2\n      dup2\n      mstore\n      0x20\n      add\n      dup3\n      dup1\n      sload\n      tag_63\n      swap1\n      tag_22\n      jump\t// in\n    tag_63:\n      dup1\n      iszero\n      tag_64\n      jumpi\n      dup1\n      0x1f\n      lt\n      tag_65\n      jumpi\n      0x0100\n      dup1\n      dup4\n      sload\n      div\n      mul\n      dup4\n      mstore\n      swap2\n      0x20\n      add\n      swap2\n      jump(tag_64)\n    tag_65:\n      dup3\n      add\n      swap2\n      swap1\n      0x00\n      mstore\n      keccak256(0x00, 0x20)\n      swap1\n    tag_66:\n      dup2\n      sload\n      dup2\n      mstore\n      swap1\n      0x01\n      add\n      swap1\n      0x20\n      add\n      dup1\n      dup4\n      gt\n      tag_66\n      jumpi\n      dup3\n      swap1\n      sub\n      0x1f\n      and\n      dup3\n      add\n      swap2\n    tag_64:\n      pop\n      pop\n      pop\n      pop\n      pop\n      swap1\n      pop\n      dup13\n      jump\t// out\n        /* \"contracts/Halal.sol\":215:271  mapping( bytes32 => account_data ) public mappingAccount */\n    tag_14:\n      mstore(0x20, 0x00)\n      dup1\n      0x00\n      mstore\n      keccak256(0x00, 0x40)\n      0x00\n      swap2\n      pop\n      swap1\n      pop\n      dup1\n      0x00\n      add\n      dup1\n      sload\n      tag_67\n      swap1\n      tag_22\n      jump\t// in\n    tag_67:\n      dup1\n      0x1f\n      add\n      0x20\n      dup1\n      swap2\n      div\n      mul\n      0x20\n      add\n      mload(0x40)\n      swap1\n      dup2\n      add\n      0x40\n      mstore\n      dup1\n      swap3\n      swap2\n      swap1\n      dup2\n      dup2\n      mstore\n      0x20\n      add\n      dup3\n      dup1\n      sload\n      tag_68\n      swap1\n      tag_22\n      jump\t// in\n    tag_68:\n      dup1\n      iszero\n      tag_69\n      jumpi\n      dup1\n      0x1f\n      lt\n      tag_70\n      jumpi\n      0x0100\n      dup1\n      dup4\n      sload\n      div\n      mul\n      dup4\n      mstore\n      swap2\n      0x20\n      add\n      swap2\n      jump(tag_69)\n    tag_70:\n      dup3\n      add\n      swap2\n      swap1\n      0x00\n      mstore\n      keccak256(0x00, 0x20)\n      swap1\n    tag_71:\n      dup2\n      sload\n      dup2\n      mstore\n      swap1\n      0x01\n      add\n      swap1\n      0x20\n      add\n      dup1\n      dup4\n      gt\n      tag_71\n      jumpi\n      dup3\n      swap1\n      sub\n      0x1f\n      and\n      dup3\n      add\n      swap2\n    tag_69:\n      pop\n      pop\n      pop\n      pop\n      pop\n      swap1\n      dup1\n      0x01\n      add\n      dup1\n      sload\n      tag_72\n      swap1\n      tag_22\n      jump\t// in\n    tag_72:\n      dup1\n      0x1f\n      add\n      0x20\n      dup1\n      swap2\n      div\n      mul\n      0x20\n      add\n      mload(0x40)\n      swap1\n      dup2\n      add\n      0x40\n      mstore\n      dup1\n      swap3\n      swap2\n      swap1\n      dup2\n      dup2\n      mstore\n      0x20\n      add\n      dup3\n      dup1\n      sload\n      tag_73\n      swap1\n      tag_22\n      jump\t// in\n    tag_73:\n      dup1\n      iszero\n      tag_74\n      jumpi\n      dup1\n      0x1f\n      lt\n      tag_75\n      jumpi\n      0x0100\n      dup1\n      dup4\n      sload\n      div\n      mul\n      dup4\n      mstore\n      swap2\n      0x20\n      add\n      swap2\n      jump(tag_74)\n    tag_75:\n      dup3\n      add\n      swap2\n      swap1\n      0x00\n      mstore\n      keccak256(0x00, 0x20)\n      swap1\n    tag_76:\n      dup2\n      sload\n      dup2\n      mstore\n      swap1\n      0x01\n      add\n      swap1\n      0x20\n      add\n      dup1\n      dup4\n      gt\n      tag_76\n      jumpi\n      dup3\n      swap1\n      sub\n      0x1f\n      and\n      dup3\n      add\n      swap2\n    tag_74:\n      pop\n      pop\n      pop\n      pop\n      pop\n      swap1\n      dup1\n      0x02\n      add\n      dup1\n      sload\n      tag_77\n      swap1\n      tag_22\n      jump\t// in\n    tag_77:\n      dup1\n      0x1f\n      add\n      0x20\n      dup1\n      swap2\n      div\n      mul\n      0x20\n      add\n      mload(0x40)\n      swap1\n      dup2\n      add\n      0x40\n      mstore\n      dup1\n      swap3\n      swap2\n      swap1\n      dup2\n      dup2\n      mstore\n      0x20\n      add\n      dup3\n      dup1\n      sload\n      tag_78\n      swap1\n      tag_22\n      jump\t// in\n    tag_78:\n      dup1\n      iszero\n      tag_79\n      jumpi\n      dup1\n      0x1f\n      lt\n      tag_80\n      jumpi\n      0x0100\n      dup1\n      dup4\n      sload\n      div\n      mul\n      dup4\n      mstore\n      swap2\n      0x20\n      add\n      swap2\n      jump(tag_79)\n    tag_80:\n      dup3\n      add\n      swap2\n      swap1\n      0x00\n      mstore\n      keccak256(0x00, 0x20)\n      swap1\n    tag_81:\n      dup2\n      sload\n      dup2\n      mstore\n      swap1\n      0x01\n      add\n      swap1\n      0x20\n      add\n      dup1\n      dup4\n      gt\n      tag_81\n      jumpi\n      dup3\n      swap1\n      sub\n      0x1f\n      and\n      dup3\n      add\n      swap2\n    tag_79:\n      pop\n      pop\n      pop\n      pop\n      pop\n      swap1\n      dup1\n      0x03\n      add\n      sload\n      swap1\n      pop\n      dup5\n      jump\t// out\n        /* \"contracts/Halal.sol\":696:1073  function add_account(... */\n    tag_20:\n        /* \"contracts/Halal.sol\":830:840  bytes32 id */\n      0x00\n        /* \"contracts/Halal.sol\":870:880  account_id */\n      dup4\n        /* \"contracts/Halal.sol\":853:881  abi.encodePacked(account_id) */\n      add(0x20, mload(0x40))\n      tag_83\n      swap2\n      swap1\n      tag_84\n      jump\t// in\n    tag_83:\n      mload(0x40)\n      0x20\n      dup2\n      dup4\n      sub\n      sub\n      dup2\n      mstore\n      swap1\n      0x40\n      mstore\n        /* \"contracts/Halal.sol\":843:882  keccak256(abi.encodePacked(account_id)) */\n      dup1\n      mload\n      swap1\n      0x20\n      add\n      keccak256\n        /* \"contracts/Halal.sol\":830:882  bytes32 id = keccak256(abi.encodePacked(account_id)) */\n      swap1\n      pop\n        /* \"contracts/Halal.sol\":892:916  account_data storage acc */\n      0x00\n        /* \"contracts/Halal.sol\":919:933  mappingAccount */\n      dup1\n        /* \"contracts/Halal.sol\":919:937  mappingAccount[id] */\n      0x00\n        /* \"contracts/Halal.sol\":934:936  id */\n      dup4\n        /* \"contracts/Halal.sol\":919:937  mappingAccount[id] */\n      dup2\n      mstore\n      0x20\n      add\n      swap1\n      dup2\n      mstore\n      0x20\n      add\n      0x00\n      keccak256\n        /* \"contracts/Halal.sol\":892:937  account_data storage acc = mappingAccount[id] */\n      swap1\n      pop\n        /* \"contracts/Halal.sol\":964:974  account_id */\n      dup5\n        /* \"contracts/Halal.sol\":947:950  acc */\n      dup2\n        /* \"contracts/Halal.sol\":947:961  acc.account_id */\n      0x00\n      add\n        /* \"contracts/Halal.sol\":947:974  acc.account_id = account_id */\n      swap1\n      dup1\n      mload\n      swap1\n      0x20\n      add\n      swap1\n      tag_85\n      swap3\n      swap2\n      swap1\n      tag_86\n      jump\t// in\n    tag_85:\n      pop\n        /* \"contracts/Halal.sol\":995:999  name */\n      dup4\n        /* \"contracts/Halal.sol\":984:987  acc */\n      dup2\n        /* \"contracts/Halal.sol\":984:992  acc.name */\n      0x01\n      add\n        /* \"contracts/Halal.sol\":984:999  acc.name = name */\n      swap1\n      dup1\n      mload\n      swap1\n      0x20\n      add\n      swap1\n      tag_87\n      swap3\n      swap2\n      swap1\n      tag_86\n      jump\t// in\n    tag_87:\n      pop\n        /* \"contracts/Halal.sol\":1020:1024  role */\n      dup3\n        /* \"contracts/Halal.sol\":1009:1012  acc */\n      dup2\n        /* \"contracts/Halal.sol\":1009:1017  acc.role */\n      0x02\n      add\n        /* \"contracts/Halal.sol\":1009:1024  acc.role = role */\n      swap1\n      dup1\n      mload\n      swap1\n      0x20\n      add\n      swap1\n      tag_88\n      swap3\n      swap2\n      swap1\n      tag_86\n      jump\t// in\n    tag_88:\n      pop\n        /* \"contracts/Halal.sol\":1051:1066  block.timestamp */\n      timestamp\n        /* \"contracts/Halal.sol\":1034:1037  acc */\n      dup2\n        /* \"contracts/Halal.sol\":1034:1048  acc.created_at */\n      0x03\n      add\n        /* \"contracts/Halal.sol\":1034:1066  acc.created_at = block.timestamp */\n      dup2\n      swap1\n      sstore\n      pop\n        /* \"contracts/Halal.sol\":820:1073  {... */\n      pop\n      pop\n        /* \"contracts/Halal.sol\":696:1073  function add_account(... */\n      pop\n      pop\n      pop\n      jump\t// out\n    tag_86:\n      dup3\n      dup1\n      sload\n      tag_89\n      swap1\n      tag_22\n      jump\t// in\n    tag_89:\n      swap1\n      0x00\n      mstore\n      keccak256(0x00, 0x20)\n      swap1\n      0x1f\n      add\n      0x20\n      swap1\n      div\n      dup2\n      add\n      swap3\n      dup3\n      tag_91\n      jumpi\n      0x00\n      dup6\n      sstore\n      jump(tag_90)\n    tag_91:\n      dup3\n      0x1f\n      lt\n      tag_92\n      jumpi\n      dup1\n      mload\n      not(0xff)\n      and\n      dup4\n      dup1\n      add\n      or\n      dup6\n      sstore\n      jump(tag_90)\n    tag_92:\n      dup3\n      dup1\n      add\n      0x01\n      add\n      dup6\n      sstore\n      dup3\n      iszero\n      tag_90\n      jumpi\n      swap2\n      dup3\n      add\n    tag_93:\n      dup3\n      dup2\n      gt\n      iszero\n      tag_94\n      jumpi\n      dup3\n      mload\n      dup3\n      sstore\n      swap2\n      0x20\n      add\n      swap2\n      swap1\n      0x01\n      add\n      swap1\n      jump(tag_93)\n    tag_94:\n    tag_90:\n      pop\n      swap1\n      pop\n      tag_95\n      swap2\n      swap1\n      tag_96\n      jump\t// in\n    tag_95:\n      pop\n      swap1\n      jump\t// out\n    tag_96:\n    tag_97:\n      dup1\n      dup3\n      gt\n      iszero\n      tag_98\n      jumpi\n      0x00\n      dup2\n      0x00\n      swap1\n      sstore\n      pop\n      0x01\n      add\n      jump(tag_97)\n    tag_98:\n      pop\n      swap1\n      jump\t// out\n        /* \"#utility.yul\":7:419   */\n    tag_100:\n        /* \"#utility.yul\":85:90   */\n      0x00\n        /* \"#utility.yul\":110:176   */\n      tag_102\n        /* \"#utility.yul\":126:175   */\n      tag_103\n        /* \"#utility.yul\":168:174   */\n      dup5\n        /* \"#utility.yul\":126:175   */\n      tag_104\n      jump\t// in\n    tag_103:\n        /* \"#utility.yul\":110:176   */\n      tag_105\n      jump\t// in\n    tag_102:\n        /* \"#utility.yul\":101:176   */\n      swap1\n      pop\n        /* \"#utility.yul\":199:205   */\n      dup3\n        /* \"#utility.yul\":192:197   */\n      dup2\n        /* \"#utility.yul\":185:206   */\n      mstore\n        /* \"#utility.yul\":237:241   */\n      0x20\n        /* \"#utility.yul\":230:235   */\n      dup2\n        /* \"#utility.yul\":226:242   */\n      add\n        /* \"#utility.yul\":275:278   */\n      dup5\n        /* \"#utility.yul\":266:272   */\n      dup5\n        /* \"#utility.yul\":261:264   */\n      dup5\n        /* \"#utility.yul\":257:273   */\n      add\n        /* \"#utility.yul\":254:279   */\n      gt\n        /* \"#utility.yul\":251:363   */\n      iszero\n      tag_106\n      jumpi\n        /* \"#utility.yul\":282:361   */\n      tag_107\n      tag_108\n      jump\t// in\n    tag_107:\n        /* \"#utility.yul\":251:363   */\n    tag_106:\n        /* \"#utility.yul\":372:413   */\n      tag_109\n        /* \"#utility.yul\":406:412   */\n      dup5\n        /* \"#utility.yul\":401:404   */\n      dup3\n        /* \"#utility.yul\":396:399   */\n      dup6\n        /* \"#utility.yul\":372:413   */\n      tag_110\n      jump\t// in\n    tag_109:\n        /* \"#utility.yul\":91:419   */\n      pop\n        /* \"#utility.yul\":7:419   */\n      swap4\n      swap3\n      pop\n      pop\n      pop\n      jump\t// out\n        /* \"#utility.yul\":425:564   */\n    tag_111:\n        /* \"#utility.yul\":471:476   */\n      0x00\n        /* \"#utility.yul\":509:515   */\n      dup2\n        /* \"#utility.yul\":496:516   */\n      calldataload\n        /* \"#utility.yul\":487:516   */\n      swap1\n      pop\n        /* \"#utility.yul\":525:558   */\n      tag_113\n        /* \"#utility.yul\":552:557   */\n      dup2\n        /* \"#utility.yul\":525:558   */\n      tag_114\n      jump\t// in\n    tag_113:\n        /* \"#utility.yul\":425:564   */\n      swap3\n      swap2\n      pop\n      pop\n      jump\t// out\n        /* \"#utility.yul\":584:924   */\n    tag_115:\n        /* \"#utility.yul\":640:645   */\n      0x00\n        /* \"#utility.yul\":689:692   */\n      dup3\n        /* \"#utility.yul\":682:686   */\n      0x1f\n        /* \"#utility.yul\":674:680   */\n      dup4\n        /* \"#utility.yul\":670:687   */\n      add\n        /* \"#utility.yul\":666:693   */\n      slt\n        /* \"#utility.yul\":656:778   */\n      tag_117\n      jumpi\n        /* \"#utility.yul\":697:776   */\n      tag_118\n      tag_119\n      jump\t// in\n    tag_118:\n        /* \"#utility.yul\":656:778   */\n    tag_117:\n        /* \"#utility.yul\":814:820   */\n      dup2\n        /* \"#utility.yul\":801:821   */\n      calldataload\n        /* \"#utility.yul\":839:918   */\n      tag_120\n        /* \"#utility.yul\":914:917   */\n      dup5\n        /* \"#utility.yul\":906:912   */\n      dup3\n        /* \"#utility.yul\":899:903   */\n      0x20\n        /* \"#utility.yul\":891:897   */\n      dup7\n        /* \"#utility.yul\":887:904   */\n      add\n        /* \"#utility.yul\":839:918   */\n      tag_100\n      jump\t// in\n    tag_120:\n        /* \"#utility.yul\":830:918   */\n      swap2\n      pop\n        /* \"#utility.yul\":646:924   */\n      pop\n        /* \"#utility.yul\":584:924   */\n      swap3\n      swap2\n      pop\n      pop\n      jump\t// out\n        /* \"#utility.yul\":930:1259   */\n    tag_8:\n        /* \"#utility.yul\":989:995   */\n      0x00\n        /* \"#utility.yul\":1038:1040   */\n      0x20\n        /* \"#utility.yul\":1026:1035   */\n      dup3\n        /* \"#utility.yul\":1017:1024   */\n      dup5\n        /* \"#utility.yul\":1013:1036   */\n      sub\n        /* \"#utility.yul\":1009:1041   */\n      slt\n        /* \"#utility.yul\":1006:1125   */\n      iszero\n      tag_122\n      jumpi\n        /* \"#utility.yul\":1044:1123   */\n      tag_123\n      tag_124\n      jump\t// in\n    tag_123:\n        /* \"#utility.yul\":1006:1125   */\n    tag_122:\n        /* \"#utility.yul\":1164:1165   */\n      0x00\n        /* \"#utility.yul\":1189:1242   */\n      tag_125\n        /* \"#utility.yul\":1234:1241   */\n      dup5\n        /* \"#utility.yul\":1225:1231   */\n      dup3\n        /* \"#utility.yul\":1214:1223   */\n      dup6\n        /* \"#utility.yul\":1210:1232   */\n      add\n        /* \"#utility.yul\":1189:1242   */\n      tag_111\n      jump\t// in\n    tag_125:\n        /* \"#utility.yul\":1179:1242   */\n      swap2\n      pop\n        /* \"#utility.yul\":1135:1252   */\n      pop\n        /* \"#utility.yul\":930:1259   */\n      swap3\n      swap2\n      pop\n      pop\n      jump\t// out\n        /* \"#utility.yul\":1265:2424   */\n    tag_19:\n        /* \"#utility.yul\":1372:1378   */\n      0x00\n        /* \"#utility.yul\":1380:1386   */\n      dup1\n        /* \"#utility.yul\":1388:1394   */\n      0x00\n        /* \"#utility.yul\":1437:1439   */\n      0x60\n        /* \"#utility.yul\":1425:1434   */\n      dup5\n        /* \"#utility.yul\":1416:1423   */\n      dup7\n        /* \"#utility.yul\":1412:1435   */\n      sub\n        /* \"#utility.yul\":1408:1440   */\n      slt\n        /* \"#utility.yul\":1405:1524   */\n      iszero\n      tag_127\n      jumpi\n        /* \"#utility.yul\":1443:1522   */\n      tag_128\n      tag_124\n      jump\t// in\n    tag_128:\n        /* \"#utility.yul\":1405:1524   */\n    tag_127:\n        /* \"#utility.yul\":1591:1592   */\n      0x00\n        /* \"#utility.yul\":1580:1589   */\n      dup5\n        /* \"#utility.yul\":1576:1593   */\n      add\n        /* \"#utility.yul\":1563:1594   */\n      calldataload\n        /* \"#utility.yul\":1621:1639   */\n      0xffffffffffffffff\n        /* \"#utility.yul\":1613:1619   */\n      dup2\n        /* \"#utility.yul\":1610:1640   */\n      gt\n        /* \"#utility.yul\":1607:1724   */\n      iszero\n      tag_129\n      jumpi\n        /* \"#utility.yul\":1643:1722   */\n      tag_130\n      tag_131\n      jump\t// in\n    tag_130:\n        /* \"#utility.yul\":1607:1724   */\n    tag_129:\n        /* \"#utility.yul\":1748:1811   */\n      tag_132\n        /* \"#utility.yul\":1803:1810   */\n      dup7\n        /* \"#utility.yul\":1794:1800   */\n      dup3\n        /* \"#utility.yul\":1783:1792   */\n      dup8\n        /* \"#utility.yul\":1779:1801   */\n      add\n        /* \"#utility.yul\":1748:1811   */\n      tag_115\n      jump\t// in\n    tag_132:\n        /* \"#utility.yul\":1738:1811   */\n      swap4\n      pop\n        /* \"#utility.yul\":1534:1821   */\n      pop\n        /* \"#utility.yul\":1888:1890   */\n      0x20\n        /* \"#utility.yul\":1877:1886   */\n      dup5\n        /* \"#utility.yul\":1873:1891   */\n      add\n        /* \"#utility.yul\":1860:1892   */\n      calldataload\n        /* \"#utility.yul\":1919:1937   */\n      0xffffffffffffffff\n        /* \"#utility.yul\":1911:1917   */\n      dup2\n        /* \"#utility.yul\":1908:1938   */\n      gt\n        /* \"#utility.yul\":1905:2022   */\n      iszero\n      tag_133\n      jumpi\n        /* \"#utility.yul\":1941:2020   */\n      tag_134\n      tag_131\n      jump\t// in\n    tag_134:\n        /* \"#utility.yul\":1905:2022   */\n    tag_133:\n        /* \"#utility.yul\":2046:2109   */\n      tag_135\n        /* \"#utility.yul\":2101:2108   */\n      dup7\n        /* \"#utility.yul\":2092:2098   */\n      dup3\n        /* \"#utility.yul\":2081:2090   */\n      dup8\n        /* \"#utility.yul\":2077:2099   */\n      add\n        /* \"#utility.yul\":2046:2109   */\n      tag_115\n      jump\t// in\n    tag_135:\n        /* \"#utility.yul\":2036:2109   */\n      swap3\n      pop\n        /* \"#utility.yul\":1831:2119   */\n      pop\n        /* \"#utility.yul\":2186:2188   */\n      0x40\n        /* \"#utility.yul\":2175:2184   */\n      dup5\n        /* \"#utility.yul\":2171:2189   */\n      add\n        /* \"#utility.yul\":2158:2190   */\n      calldataload\n        /* \"#utility.yul\":2217:2235   */\n      0xffffffffffffffff\n        /* \"#utility.yul\":2209:2215   */\n      dup2\n        /* \"#utility.yul\":2206:2236   */\n      gt\n        /* \"#utility.yul\":2203:2320   */\n      iszero\n      tag_136\n      jumpi\n        /* \"#utility.yul\":2239:2318   */\n      tag_137\n      tag_131\n      jump\t// in\n    tag_137:\n        /* \"#utility.yul\":2203:2320   */\n    tag_136:\n        /* \"#utility.yul\":2344:2407   */\n      tag_138\n        /* \"#utility.yul\":2399:2406   */\n      dup7\n        /* \"#utility.yul\":2390:2396   */\n      dup3\n        /* \"#utility.yul\":2379:2388   */\n      dup8\n        /* \"#utility.yul\":2375:2397   */\n      add\n        /* \"#utility.yul\":2344:2407   */\n      tag_115\n      jump\t// in\n    tag_138:\n        /* \"#utility.yul\":2334:2407   */\n      swap2\n      pop\n        /* \"#utility.yul\":2129:2417   */\n      pop\n        /* \"#utility.yul\":1265:2424   */\n      swap3\n      pop\n      swap3\n      pop\n      swap3\n      jump\t// out\n        /* \"#utility.yul\":2430:2539   */\n    tag_139:\n        /* \"#utility.yul\":2511:2532   */\n      tag_141\n        /* \"#utility.yul\":2526:2531   */\n      dup2\n        /* \"#utility.yul\":2511:2532   */\n      tag_142\n      jump\t// in\n    tag_141:\n        /* \"#utility.yul\":2506:2509   */\n      dup3\n        /* \"#utility.yul\":2499:2533   */\n      mstore\n        /* \"#utility.yul\":2430:2539   */\n      pop\n      pop\n      jump\t// out\n        /* \"#utility.yul\":2545:2909   */\n    tag_143:\n        /* \"#utility.yul\":2633:2636   */\n      0x00\n        /* \"#utility.yul\":2661:2700   */\n      tag_145\n        /* \"#utility.yul\":2694:2699   */\n      dup3\n        /* \"#utility.yul\":2661:2700   */\n      tag_146\n      jump\t// in\n    tag_145:\n        /* \"#utility.yul\":2716:2787   */\n      tag_147\n        /* \"#utility.yul\":2780:2786   */\n      dup2\n        /* \"#utility.yul\":2775:2778   */\n      dup6\n        /* \"#utility.yul\":2716:2787   */\n      tag_148\n      jump\t// in\n    tag_147:\n        /* \"#utility.yul\":2709:2787   */\n      swap4\n      pop\n        /* \"#utility.yul\":2796:2848   */\n      tag_149\n        /* \"#utility.yul\":2841:2847   */\n      dup2\n        /* \"#utility.yul\":2836:2839   */\n      dup6\n        /* \"#utility.yul\":2829:2833   */\n      0x20\n        /* \"#utility.yul\":2822:2827   */\n      dup7\n        /* \"#utility.yul\":2818:2834   */\n      add\n        /* \"#utility.yul\":2796:2848   */\n      tag_150\n      jump\t// in\n    tag_149:\n        /* \"#utility.yul\":2873:2902   */\n      tag_151\n        /* \"#utility.yul\":2895:2901   */\n      dup2\n        /* \"#utility.yul\":2873:2902   */\n      tag_152\n      jump\t// in\n    tag_151:\n        /* \"#utility.yul\":2868:2871   */\n      dup5\n        /* \"#utility.yul\":2864:2903   */\n      add\n        /* \"#utility.yul\":2857:2903   */\n      swap2\n      pop\n        /* \"#utility.yul\":2637:2909   */\n      pop\n        /* \"#utility.yul\":2545:2909   */\n      swap3\n      swap2\n      pop\n      pop\n      jump\t// out\n        /* \"#utility.yul\":2915:3292   */\n    tag_153:\n        /* \"#utility.yul\":3021:3024   */\n      0x00\n        /* \"#utility.yul\":3049:3088   */\n      tag_155\n        /* \"#utility.yul\":3082:3087   */\n      dup3\n        /* \"#utility.yul\":3049:3088   */\n      tag_146\n      jump\t// in\n    tag_155:\n        /* \"#utility.yul\":3104:3193   */\n      tag_156\n        /* \"#utility.yul\":3186:3192   */\n      dup2\n        /* \"#utility.yul\":3181:3184   */\n      dup6\n        /* \"#utility.yul\":3104:3193   */\n      tag_157\n      jump\t// in\n    tag_156:\n        /* \"#utility.yul\":3097:3193   */\n      swap4\n      pop\n        /* \"#utility.yul\":3202:3254   */\n      tag_158\n        /* \"#utility.yul\":3247:3253   */\n      dup2\n        /* \"#utility.yul\":3242:3245   */\n      dup6\n        /* \"#utility.yul\":3235:3239   */\n      0x20\n        /* \"#utility.yul\":3228:3233   */\n      dup7\n        /* \"#utility.yul\":3224:3240   */\n      add\n        /* \"#utility.yul\":3202:3254   */\n      tag_150\n      jump\t// in\n    tag_158:\n        /* \"#utility.yul\":3279:3285   */\n      dup1\n        /* \"#utility.yul\":3274:3277   */\n      dup5\n        /* \"#utility.yul\":3270:3286   */\n      add\n        /* \"#utility.yul\":3263:3286   */\n      swap2\n      pop\n        /* \"#utility.yul\":3025:3292   */\n      pop\n        /* \"#utility.yul\":2915:3292   */\n      swap3\n      swap2\n      pop\n      pop\n      jump\t// out\n        /* \"#utility.yul\":3298:3416   */\n    tag_159:\n        /* \"#utility.yul\":3385:3409   */\n      tag_161\n        /* \"#utility.yul\":3403:3408   */\n      dup2\n        /* \"#utility.yul\":3385:3409   */\n      tag_162\n      jump\t// in\n    tag_161:\n        /* \"#utility.yul\":3380:3383   */\n      dup3\n        /* \"#utility.yul\":3373:3410   */\n      mstore\n        /* \"#utility.yul\":3298:3416   */\n      pop\n      pop\n      jump\t// out\n        /* \"#utility.yul\":3422:3697   */\n    tag_84:\n        /* \"#utility.yul\":3554:3557   */\n      0x00\n        /* \"#utility.yul\":3576:3671   */\n      tag_164\n        /* \"#utility.yul\":3667:3670   */\n      dup3\n        /* \"#utility.yul\":3658:3664   */\n      dup5\n        /* \"#utility.yul\":3576:3671   */\n      tag_153\n      jump\t// in\n    tag_164:\n        /* \"#utility.yul\":3569:3671   */\n      swap2\n      pop\n        /* \"#utility.yul\":3688:3691   */\n      dup2\n        /* \"#utility.yul\":3681:3691   */\n      swap1\n      pop\n        /* \"#utility.yul\":3422:3697   */\n      swap3\n      swap2\n      pop\n      pop\n      jump\t// out\n        /* \"#utility.yul\":3703:5943   */\n    tag_11:\n        /* \"#utility.yul\":4274:4278   */\n      0x00\n        /* \"#utility.yul\":4312:4315   */\n      0x0180\n        /* \"#utility.yul\":4301:4310   */\n      dup3\n        /* \"#utility.yul\":4297:4316   */\n      add\n        /* \"#utility.yul\":4289:4316   */\n      swap1\n      pop\n        /* \"#utility.yul\":4362:4371   */\n      dup2\n        /* \"#utility.yul\":4356:4360   */\n      dup2\n        /* \"#utility.yul\":4352:4372   */\n      sub\n        /* \"#utility.yul\":4348:4349   */\n      0x00\n        /* \"#utility.yul\":4337:4346   */\n      dup4\n        /* \"#utility.yul\":4333:4350   */\n      add\n        /* \"#utility.yul\":4326:4373   */\n      mstore\n        /* \"#utility.yul\":4390:4468   */\n      tag_166\n        /* \"#utility.yul\":4463:4467   */\n      dup2\n        /* \"#utility.yul\":4454:4460   */\n      dup16\n        /* \"#utility.yul\":4390:4468   */\n      tag_143\n      jump\t// in\n    tag_166:\n        /* \"#utility.yul\":4382:4468   */\n      swap1\n      pop\n        /* \"#utility.yul\":4478:4544   */\n      tag_167\n        /* \"#utility.yul\":4540:4542   */\n      0x20\n        /* \"#utility.yul\":4529:4538   */\n      dup4\n        /* \"#utility.yul\":4525:4543   */\n      add\n        /* \"#utility.yul\":4516:4522   */\n      dup15\n        /* \"#utility.yul\":4478:4544   */\n      tag_139\n      jump\t// in\n    tag_167:\n        /* \"#utility.yul\":4554:4626   */\n      tag_168\n        /* \"#utility.yul\":4622:4624   */\n      0x40\n        /* \"#utility.yul\":4611:4620   */\n      dup4\n        /* \"#utility.yul\":4607:4625   */\n      add\n        /* \"#utility.yul\":4598:4604   */\n      dup14\n        /* \"#utility.yul\":4554:4626   */\n      tag_159\n      jump\t// in\n    tag_168:\n        /* \"#utility.yul\":4673:4682   */\n      dup2\n        /* \"#utility.yul\":4667:4671   */\n      dup2\n        /* \"#utility.yul\":4663:4683   */\n      sub\n        /* \"#utility.yul\":4658:4660   */\n      0x60\n        /* \"#utility.yul\":4647:4656   */\n      dup4\n        /* \"#utility.yul\":4643:4661   */\n      add\n        /* \"#utility.yul\":4636:4684   */\n      mstore\n        /* \"#utility.yul\":4701:4779   */\n      tag_169\n        /* \"#utility.yul\":4774:4778   */\n      dup2\n        /* \"#utility.yul\":4765:4771   */\n      dup13\n        /* \"#utility.yul\":4701:4779   */\n      tag_143\n      jump\t// in\n    tag_169:\n        /* \"#utility.yul\":4693:4779   */\n      swap1\n      pop\n        /* \"#utility.yul\":4827:4836   */\n      dup2\n        /* \"#utility.yul\":4821:4825   */\n      dup2\n        /* \"#utility.yul\":4817:4837   */\n      sub\n        /* \"#utility.yul\":4811:4814   */\n      0x80\n        /* \"#utility.yul\":4800:4809   */\n      dup4\n        /* \"#utility.yul\":4796:4815   */\n      add\n        /* \"#utility.yul\":4789:4838   */\n      mstore\n        /* \"#utility.yul\":4855:4933   */\n      tag_170\n        /* \"#utility.yul\":4928:4932   */\n      dup2\n        /* \"#utility.yul\":4919:4925   */\n      dup12\n        /* \"#utility.yul\":4855:4933   */\n      tag_143\n      jump\t// in\n    tag_170:\n        /* \"#utility.yul\":4847:4933   */\n      swap1\n      pop\n        /* \"#utility.yul\":4981:4990   */\n      dup2\n        /* \"#utility.yul\":4975:4979   */\n      dup2\n        /* \"#utility.yul\":4971:4991   */\n      sub\n        /* \"#utility.yul\":4965:4968   */\n      0xa0\n        /* \"#utility.yul\":4954:4963   */\n      dup4\n        /* \"#utility.yul\":4950:4969   */\n      add\n        /* \"#utility.yul\":4943:4992   */\n      mstore\n        /* \"#utility.yul\":5009:5087   */\n      tag_171\n        /* \"#utility.yul\":5082:5086   */\n      dup2\n        /* \"#utility.yul\":5073:5079   */\n      dup11\n        /* \"#utility.yul\":5009:5087   */\n      tag_143\n      jump\t// in\n    tag_171:\n        /* \"#utility.yul\":5001:5087   */\n      swap1\n      pop\n        /* \"#utility.yul\":5135:5144   */\n      dup2\n        /* \"#utility.yul\":5129:5133   */\n      dup2\n        /* \"#utility.yul\":5125:5145   */\n      sub\n        /* \"#utility.yul\":5119:5122   */\n      0xc0\n        /* \"#utility.yul\":5108:5117   */\n      dup4\n        /* \"#utility.yul\":5104:5123   */\n      add\n        /* \"#utility.yul\":5097:5146   */\n      mstore\n        /* \"#utility.yul\":5163:5241   */\n      tag_172\n        /* \"#utility.yul\":5236:5240   */\n      dup2\n        /* \"#utility.yul\":5227:5233   */\n      dup10\n        /* \"#utility.yul\":5163:5241   */\n      tag_143\n      jump\t// in\n    tag_172:\n        /* \"#utility.yul\":5155:5241   */\n      swap1\n      pop\n        /* \"#utility.yul\":5289:5298   */\n      dup2\n        /* \"#utility.yul\":5283:5287   */\n      dup2\n        /* \"#utility.yul\":5279:5299   */\n      sub\n        /* \"#utility.yul\":5273:5276   */\n      0xe0\n        /* \"#utility.yul\":5262:5271   */\n      dup4\n        /* \"#utility.yul\":5258:5277   */\n      add\n        /* \"#utility.yul\":5251:5300   */\n      mstore\n        /* \"#utility.yul\":5317:5395   */\n      tag_173\n        /* \"#utility.yul\":5390:5394   */\n      dup2\n        /* \"#utility.yul\":5381:5387   */\n      dup9\n        /* \"#utility.yul\":5317:5395   */\n      tag_143\n      jump\t// in\n    tag_173:\n        /* \"#utility.yul\":5309:5395   */\n      swap1\n      pop\n        /* \"#utility.yul\":5443:5452   */\n      dup2\n        /* \"#utility.yul\":5437:5441   */\n      dup2\n        /* \"#utility.yul\":5433:5453   */\n      sub\n        /* \"#utility.yul\":5427:5430   */\n      0x0100\n        /* \"#utility.yul\":5416:5425   */\n      dup4\n        /* \"#utility.yul\":5412:5431   */\n      add\n        /* \"#utility.yul\":5405:5454   */\n      mstore\n        /* \"#utility.yul\":5471:5549   */\n      tag_174\n        /* \"#utility.yul\":5544:5548   */\n      dup2\n        /* \"#utility.yul\":5535:5541   */\n      dup8\n        /* \"#utility.yul\":5471:5549   */\n      tag_143\n      jump\t// in\n    tag_174:\n        /* \"#utility.yul\":5463:5549   */\n      swap1\n      pop\n        /* \"#utility.yul\":5597:5606   */\n      dup2\n        /* \"#utility.yul\":5591:5595   */\n      dup2\n        /* \"#utility.yul\":5587:5607   */\n      sub\n        /* \"#utility.yul\":5581:5584   */\n      0x0120\n        /* \"#utility.yul\":5570:5579   */\n      dup4\n        /* \"#utility.yul\":5566:5585   */\n      add\n        /* \"#utility.yul\":5559:5608   */\n      mstore\n        /* \"#utility.yul\":5625:5703   */\n      tag_175\n        /* \"#utility.yul\":5698:5702   */\n      dup2\n        /* \"#utility.yul\":5689:5695   */\n      dup7\n        /* \"#utility.yul\":5625:5703   */\n      tag_143\n      jump\t// in\n    tag_175:\n        /* \"#utility.yul\":5617:5703   */\n      swap1\n      pop\n        /* \"#utility.yul\":5713:5781   */\n      tag_176\n        /* \"#utility.yul\":5776:5779   */\n      0x0140\n        /* \"#utility.yul\":5765:5774   */\n      dup4\n        /* \"#utility.yul\":5761:5780   */\n      add\n        /* \"#utility.yul\":5751:5758   */\n      dup6\n        /* \"#utility.yul\":5713:5781   */\n      tag_139\n      jump\t// in\n    tag_176:\n        /* \"#utility.yul\":5829:5838   */\n      dup2\n        /* \"#utility.yul\":5823:5827   */\n      dup2\n        /* \"#utility.yul\":5819:5839   */\n      sub\n        /* \"#utility.yul\":5813:5816   */\n      0x0160\n        /* \"#utility.yul\":5802:5811   */\n      dup4\n        /* \"#utility.yul\":5798:5817   */\n      add\n        /* \"#utility.yul\":5791:5840   */\n      mstore\n        /* \"#utility.yul\":5857:5936   */\n      tag_177\n        /* \"#utility.yul\":5931:5935   */\n      dup2\n        /* \"#utility.yul\":5921:5928   */\n      dup5\n        /* \"#utility.yul\":5857:5936   */\n      tag_143\n      jump\t// in\n    tag_177:\n        /* \"#utility.yul\":5849:5936   */\n      swap1\n      pop\n        /* \"#utility.yul\":3703:5943   */\n      swap14\n      swap13\n      pop\n      pop\n      pop\n      pop\n      pop\n      pop\n      pop\n      pop\n      pop\n      pop\n      pop\n      pop\n      pop\n      jump\t// out\n        /* \"#utility.yul\":5949:6775   */\n    tag_16:\n        /* \"#utility.yul\":6186:6190   */\n      0x00\n        /* \"#utility.yul\":6224:6227   */\n      0x80\n        /* \"#utility.yul\":6213:6222   */\n      dup3\n        /* \"#utility.yul\":6209:6228   */\n      add\n        /* \"#utility.yul\":6201:6228   */\n      swap1\n      pop\n        /* \"#utility.yul\":6274:6283   */\n      dup2\n        /* \"#utility.yul\":6268:6272   */\n      dup2\n        /* \"#utility.yul\":6264:6284   */\n      sub\n        /* \"#utility.yul\":6260:6261   */\n      0x00\n        /* \"#utility.yul\":6249:6258   */\n      dup4\n        /* \"#utility.yul\":6245:6262   */\n      add\n        /* \"#utility.yul\":6238:6285   */\n      mstore\n        /* \"#utility.yul\":6302:6380   */\n      tag_179\n        /* \"#utility.yul\":6375:6379   */\n      dup2\n        /* \"#utility.yul\":6366:6372   */\n      dup8\n        /* \"#utility.yul\":6302:6380   */\n      tag_143\n      jump\t// in\n    tag_179:\n        /* \"#utility.yul\":6294:6380   */\n      swap1\n      pop\n        /* \"#utility.yul\":6427:6436   */\n      dup2\n        /* \"#utility.yul\":6421:6425   */\n      dup2\n        /* \"#utility.yul\":6417:6437   */\n      sub\n        /* \"#utility.yul\":6412:6414   */\n      0x20\n        /* \"#utility.yul\":6401:6410   */\n      dup4\n        /* \"#utility.yul\":6397:6415   */\n      add\n        /* \"#utility.yul\":6390:6438   */\n      mstore\n        /* \"#utility.yul\":6455:6533   */\n      tag_180\n        /* \"#utility.yul\":6528:6532   */\n      dup2\n        /* \"#utility.yul\":6519:6525   */\n      dup7\n        /* \"#utility.yul\":6455:6533   */\n      tag_143\n      jump\t// in\n    tag_180:\n        /* \"#utility.yul\":6447:6533   */\n      swap1\n      pop\n        /* \"#utility.yul\":6580:6589   */\n      dup2\n        /* \"#utility.yul\":6574:6578   */\n      dup2\n        /* \"#utility.yul\":6570:6590   */\n      sub\n        /* \"#utility.yul\":6565:6567   */\n      0x40\n        /* \"#utility.yul\":6554:6563   */\n      dup4\n        /* \"#utility.yul\":6550:6568   */\n      add\n        /* \"#utility.yul\":6543:6591   */\n      mstore\n        /* \"#utility.yul\":6608:6686   */\n      tag_181\n        /* \"#utility.yul\":6681:6685   */\n      dup2\n        /* \"#utility.yul\":6672:6678   */\n      dup6\n        /* \"#utility.yul\":6608:6686   */\n      tag_143\n      jump\t// in\n    tag_181:\n        /* \"#utility.yul\":6600:6686   */\n      swap1\n      pop\n        /* \"#utility.yul\":6696:6768   */\n      tag_182\n        /* \"#utility.yul\":6764:6766   */\n      0x60\n        /* \"#utility.yul\":6753:6762   */\n      dup4\n        /* \"#utility.yul\":6749:6767   */\n      add\n        /* \"#utility.yul\":6740:6746   */\n      dup5\n        /* \"#utility.yul\":6696:6768   */\n      tag_159\n      jump\t// in\n    tag_182:\n        /* \"#utility.yul\":5949:6775   */\n      swap6\n      swap5\n      pop\n      pop\n      pop\n      pop\n      pop\n      jump\t// out\n        /* \"#utility.yul\":6781:6910   */\n    tag_105:\n        /* \"#utility.yul\":6815:6821   */\n      0x00\n        /* \"#utility.yul\":6842:6862   */\n      tag_184\n      tag_185\n      jump\t// in\n    tag_184:\n        /* \"#utility.yul\":6832:6862   */\n      swap1\n      pop\n        /* \"#utility.yul\":6871:6904   */\n      tag_186\n        /* \"#utility.yul\":6899:6903   */\n      dup3\n        /* \"#utility.yul\":6891:6897   */\n      dup3\n        /* \"#utility.yul\":6871:6904   */\n      tag_187\n      jump\t// in\n    tag_186:\n        /* \"#utility.yul\":6781:6910   */\n      swap2\n      swap1\n      pop\n      jump\t// out\n        /* \"#utility.yul\":6916:6991   */\n    tag_185:\n        /* \"#utility.yul\":6949:6955   */\n      0x00\n        /* \"#utility.yul\":6982:6984   */\n      0x40\n        /* \"#utility.yul\":6976:6985   */\n      mload\n        /* \"#utility.yul\":6966:6985   */\n      swap1\n      pop\n        /* \"#utility.yul\":6916:6991   */\n      swap1\n      jump\t// out\n        /* \"#utility.yul\":6997:7305   */\n    tag_104:\n        /* \"#utility.yul\":7059:7063   */\n      0x00\n        /* \"#utility.yul\":7149:7167   */\n      0xffffffffffffffff\n        /* \"#utility.yul\":7141:7147   */\n      dup3\n        /* \"#utility.yul\":7138:7168   */\n      gt\n        /* \"#utility.yul\":7135:7191   */\n      iszero\n      tag_190\n      jumpi\n        /* \"#utility.yul\":7171:7189   */\n      tag_191\n      tag_192\n      jump\t// in\n    tag_191:\n        /* \"#utility.yul\":7135:7191   */\n    tag_190:\n        /* \"#utility.yul\":7209:7238   */\n      tag_193\n        /* \"#utility.yul\":7231:7237   */\n      dup3\n        /* \"#utility.yul\":7209:7238   */\n      tag_152\n      jump\t// in\n    tag_193:\n        /* \"#utility.yul\":7201:7238   */\n      swap1\n      pop\n        /* \"#utility.yul\":7293:7297   */\n      0x20\n        /* \"#utility.yul\":7287:7291   */\n      dup2\n        /* \"#utility.yul\":7283:7298   */\n      add\n        /* \"#utility.yul\":7275:7298   */\n      swap1\n      pop\n        /* \"#utility.yul\":6997:7305   */\n      swap2\n      swap1\n      pop\n      jump\t// out\n        /* \"#utility.yul\":7311:7410   */\n    tag_146:\n        /* \"#utility.yul\":7363:7369   */\n      0x00\n        /* \"#utility.yul\":7397:7402   */\n      dup2\n        /* \"#utility.yul\":7391:7403   */\n      mload\n        /* \"#utility.yul\":7381:7403   */\n      swap1\n      pop\n        /* \"#utility.yul\":7311:7410   */\n      swap2\n      swap1\n      pop\n      jump\t// out\n        /* \"#utility.yul\":7416:7585   */\n    tag_148:\n        /* \"#utility.yul\":7500:7511   */\n      0x00\n        /* \"#utility.yul\":7534:7540   */\n      dup3\n        /* \"#utility.yul\":7529:7532   */\n      dup3\n        /* \"#utility.yul\":7522:7541   */\n      mstore\n        /* \"#utility.yul\":7574:7578   */\n      0x20\n        /* \"#utility.yul\":7569:7572   */\n      dup3\n        /* \"#utility.yul\":7565:7579   */\n      add\n        /* \"#utility.yul\":7550:7579   */\n      swap1\n      pop\n        /* \"#utility.yul\":7416:7585   */\n      swap3\n      swap2\n      pop\n      pop\n      jump\t// out\n        /* \"#utility.yul\":7591:7739   */\n    tag_157:\n        /* \"#utility.yul\":7693:7704   */\n      0x00\n        /* \"#utility.yul\":7730:7733   */\n      dup2\n        /* \"#utility.yul\":7715:7733   */\n      swap1\n      pop\n        /* \"#utility.yul\":7591:7739   */\n      swap3\n      swap2\n      pop\n      pop\n      jump\t// out\n        /* \"#utility.yul\":7745:7835   */\n    tag_142:\n        /* \"#utility.yul\":7779:7786   */\n      0x00\n        /* \"#utility.yul\":7822:7827   */\n      dup2\n        /* \"#utility.yul\":7815:7828   */\n      iszero\n        /* \"#utility.yul\":7808:7829   */\n      iszero\n        /* \"#utility.yul\":7797:7829   */\n      swap1\n      pop\n        /* \"#utility.yul\":7745:7835   */\n      swap2\n      swap1\n      pop\n      jump\t// out\n        /* \"#utility.yul\":7841:7918   */\n    tag_198:\n        /* \"#utility.yul\":7878:7885   */\n      0x00\n        /* \"#utility.yul\":7907:7912   */\n      dup2\n        /* \"#utility.yul\":7896:7912   */\n      swap1\n      pop\n        /* \"#utility.yul\":7841:7918   */\n      swap2\n      swap1\n      pop\n      jump\t// out\n        /* \"#utility.yul\":7924:8001   */\n    tag_162:\n        /* \"#utility.yul\":7961:7968   */\n      0x00\n        /* \"#utility.yul\":7990:7995   */\n      dup2\n        /* \"#utility.yul\":7979:7995   */\n      swap1\n      pop\n        /* \"#utility.yul\":7924:8001   */\n      swap2\n      swap1\n      pop\n      jump\t// out\n        /* \"#utility.yul\":8007:8161   */\n    tag_110:\n        /* \"#utility.yul\":8091:8097   */\n      dup3\n        /* \"#utility.yul\":8086:8089   */\n      dup2\n        /* \"#utility.yul\":8081:8084   */\n      dup4\n        /* \"#utility.yul\":8068:8098   */\n      calldatacopy\n        /* \"#utility.yul\":8153:8154   */\n      0x00\n        /* \"#utility.yul\":8144:8150   */\n      dup4\n        /* \"#utility.yul\":8139:8142   */\n      dup4\n        /* \"#utility.yul\":8135:8151   */\n      add\n        /* \"#utility.yul\":8128:8155   */\n      mstore\n        /* \"#utility.yul\":8007:8161   */\n      pop\n      pop\n      pop\n      jump\t// out\n        /* \"#utility.yul\":8167:8474   */\n    tag_150:\n        /* \"#utility.yul\":8235:8236   */\n      0x00\n        /* \"#utility.yul\":8245:8358   */\n    tag_203:\n        /* \"#utility.yul\":8259:8265   */\n      dup4\n        /* \"#utility.yul\":8256:8257   */\n      dup2\n        /* \"#utility.yul\":8253:8266   */\n      lt\n        /* \"#utility.yul\":8245:8358   */\n      iszero\n      tag_205\n      jumpi\n        /* \"#utility.yul\":8344:8345   */\n      dup1\n        /* \"#utility.yul\":8339:8342   */\n      dup3\n        /* \"#utility.yul\":8335:8346   */\n      add\n        /* \"#utility.yul\":8329:8347   */\n      mload\n        /* \"#utility.yul\":8325:8326   */\n      dup2\n        /* \"#utility.yul\":8320:8323   */\n      dup5\n        /* \"#utility.yul\":8316:8327   */\n      add\n        /* \"#utility.yul\":8309:8348   */\n      mstore\n        /* \"#utility.yul\":8281:8283   */\n      0x20\n        /* \"#utility.yul\":8278:8279   */\n      dup2\n        /* \"#utility.yul\":8274:8284   */\n      add\n        /* \"#utility.yul\":8269:8284   */\n      swap1\n      pop\n        /* \"#utility.yul\":8245:8358   */\n      jump(tag_203)\n    tag_205:\n        /* \"#utility.yul\":8376:8382   */\n      dup4\n        /* \"#utility.yul\":8373:8374   */\n      dup2\n        /* \"#utility.yul\":8370:8383   */\n      gt\n        /* \"#utility.yul\":8367:8468   */\n      iszero\n      tag_206\n      jumpi\n        /* \"#utility.yul\":8456:8457   */\n      0x00\n        /* \"#utility.yul\":8447:8453   */\n      dup5\n        /* \"#utility.yul\":8442:8445   */\n      dup5\n        /* \"#utility.yul\":8438:8454   */\n      add\n        /* \"#utility.yul\":8431:8458   */\n      mstore\n        /* \"#utility.yul\":8367:8468   */\n    tag_206:\n        /* \"#utility.yul\":8216:8474   */\n      pop\n        /* \"#utility.yul\":8167:8474   */\n      pop\n      pop\n      pop\n      jump\t// out\n        /* \"#utility.yul\":8480:8800   */\n    tag_22:\n        /* \"#utility.yul\":8524:8530   */\n      0x00\n        /* \"#utility.yul\":8561:8562   */\n      0x02\n        /* \"#utility.yul\":8555:8559   */\n      dup3\n        /* \"#utility.yul\":8551:8563   */\n      div\n        /* \"#utility.yul\":8541:8563   */\n      swap1\n      pop\n        /* \"#utility.yul\":8608:8609   */\n      0x01\n        /* \"#utility.yul\":8602:8606   */\n      dup3\n        /* \"#utility.yul\":8598:8610   */\n      and\n        /* \"#utility.yul\":8629:8647   */\n      dup1\n        /* \"#utility.yul\":8619:8700   */\n      tag_208\n      jumpi\n        /* \"#utility.yul\":8685:8689   */\n      0x7f\n        /* \"#utility.yul\":8677:8683   */\n      dup3\n        /* \"#utility.yul\":8673:8690   */\n      and\n        /* \"#utility.yul\":8663:8690   */\n      swap2\n      pop\n        /* \"#utility.yul\":8619:8700   */\n    tag_208:\n        /* \"#utility.yul\":8747:8749   */\n      0x20\n        /* \"#utility.yul\":8739:8745   */\n      dup3\n        /* \"#utility.yul\":8736:8750   */\n      lt\n        /* \"#utility.yul\":8716:8734   */\n      dup2\n        /* \"#utility.yul\":8713:8751   */\n      eq\n        /* \"#utility.yul\":8710:8794   */\n      iszero\n      tag_209\n      jumpi\n        /* \"#utility.yul\":8766:8784   */\n      tag_210\n      tag_211\n      jump\t// in\n    tag_210:\n        /* \"#utility.yul\":8710:8794   */\n    tag_209:\n        /* \"#utility.yul\":8531:8800   */\n      pop\n        /* \"#utility.yul\":8480:8800   */\n      swap2\n      swap1\n      pop\n      jump\t// out\n        /* \"#utility.yul\":8806:9087   */\n    tag_187:\n        /* \"#utility.yul\":8889:8916   */\n      tag_213\n        /* \"#utility.yul\":8911:8915   */\n      dup3\n        /* \"#utility.yul\":8889:8916   */\n      tag_152\n      jump\t// in\n    tag_213:\n        /* \"#utility.yul\":8881:8887   */\n      dup2\n        /* \"#utility.yul\":8877:8917   */\n      add\n        /* \"#utility.yul\":9019:9025   */\n      dup2\n        /* \"#utility.yul\":9007:9017   */\n      dup2\n        /* \"#utility.yul\":9004:9026   */\n      lt\n        /* \"#utility.yul\":8983:9001   */\n      0xffffffffffffffff\n        /* \"#utility.yul\":8971:8981   */\n      dup3\n        /* \"#utility.yul\":8968:9002   */\n      gt\n        /* \"#utility.yul\":8965:9027   */\n      or\n        /* \"#utility.yul\":8962:9050   */\n      iszero\n      tag_214\n      jumpi\n        /* \"#utility.yul\":9030:9048   */\n      tag_215\n      tag_192\n      jump\t// in\n    tag_215:\n        /* \"#utility.yul\":8962:9050   */\n    tag_214:\n        /* \"#utility.yul\":9070:9080   */\n      dup1\n        /* \"#utility.yul\":9066:9068   */\n      0x40\n        /* \"#utility.yul\":9059:9081   */\n      mstore\n        /* \"#utility.yul\":8849:9087   */\n      pop\n        /* \"#utility.yul\":8806:9087   */\n      pop\n      pop\n      jump\t// out\n        /* \"#utility.yul\":9093:9273   */\n    tag_211:\n        /* \"#utility.yul\":9141:9218   */\n      0x4e487b7100000000000000000000000000000000000000000000000000000000\n        /* \"#utility.yul\":9138:9139   */\n      0x00\n        /* \"#utility.yul\":9131:9219   */\n      mstore\n        /* \"#utility.yul\":9238:9242   */\n      0x22\n        /* \"#utility.yul\":9235:9236   */\n      0x04\n        /* \"#utility.yul\":9228:9243   */\n      mstore\n        /* \"#utility.yul\":9262:9266   */\n      0x24\n        /* \"#utility.yul\":9259:9260   */\n      0x00\n        /* \"#utility.yul\":9252:9267   */\n      revert\n        /* \"#utility.yul\":9279:9459   */\n    tag_192:\n        /* \"#utility.yul\":9327:9404   */\n      0x4e487b7100000000000000000000000000000000000000000000000000000000\n        /* \"#utility.yul\":9324:9325   */\n      0x00\n        /* \"#utility.yul\":9317:9405   */\n      mstore\n        /* \"#utility.yul\":9424:9428   */\n      0x41\n        /* \"#utility.yul\":9421:9422   */\n      0x04\n        /* \"#utility.yul\":9414:9429   */\n      mstore\n        /* \"#utility.yul\":9448:9452   */\n      0x24\n        /* \"#utility.yul\":9445:9446   */\n      0x00\n        /* \"#utility.yul\":9438:9453   */\n      revert\n        /* \"#utility.yul\":9465:9582   */\n    tag_119:\n        /* \"#utility.yul\":9574:9575   */\n      0x00\n        /* \"#utility.yul\":9571:9572   */\n      dup1\n        /* \"#utility.yul\":9564:9576   */\n      revert\n        /* \"#utility.yul\":9588:9705   */\n    tag_108:\n        /* \"#utility.yul\":9697:9698   */\n      0x00\n        /* \"#utility.yul\":9694:9695   */\n      dup1\n        /* \"#utility.yul\":9687:9699   */\n      revert\n        /* \"#utility.yul\":9711:9828   */\n    tag_131:\n        /* \"#utility.yul\":9820:9821   */\n      0x00\n        /* \"#utility.yul\":9817:9818   */\n      dup1\n        /* \"#utility.yul\":9810:9822   */\n      revert\n        /* \"#utility.yul\":9834:9951   */\n    tag_124:\n        /* \"#utility.yul\":9943:9944   */\n      0x00\n        /* \"#utility.yul\":9940:9941   */\n      dup1\n        /* \"#utility.yul\":9933:9945   */\n      revert\n        /* \"#utility.yul\":9957:10059   */\n    tag_152:\n        /* \"#utility.yul\":9998:10004   */\n      0x00\n        /* \"#utility.yul\":10049:10051   */\n      0x1f\n        /* \"#utility.yul\":10045:10052   */\n      not\n        /* \"#utility.yul\":10040:10042   */\n      0x1f\n        /* \"#utility.yul\":10033:10038   */\n      dup4\n        /* \"#utility.yul\":10029:10043   */\n      add\n        /* \"#utility.yul\":10025:10053   */\n      and\n        /* \"#utility.yul\":10015:10053   */\n      swap1\n      pop\n        /* \"#utility.yul\":9957:10059   */\n      swap2\n      swap1\n      pop\n      jump\t// out\n        /* \"#utility.yul\":10065:10187   */\n    tag_114:\n        /* \"#utility.yul\":10138:10162   */\n      tag_224\n        /* \"#utility.yul\":10156:10161   */\n      dup2\n        /* \"#utility.yul\":10138:10162   */\n      tag_198\n      jump\t// in\n    tag_224:\n        /* \"#utility.yul\":10131:10136   */\n      dup2\n        /* \"#utility.yul\":10128:10163   */\n      eq\n        /* \"#utility.yul\":10118:10181   */\n      tag_225\n      jumpi\n        /* \"#utility.yul\":10177:10178   */\n      0x00\n        /* \"#utility.yul\":10174:10175   */\n      dup1\n        /* \"#utility.yul\":10167:10179   */\n      revert\n        /* \"#utility.yul\":10118:10181   */\n    tag_225:\n        /* \"#utility.yul\":10065:10187   */\n      pop\n      jump\t// out\n\n    auxdata: 0xa264697066735822122074bf43c361dc8e262f717f53cc3a3c87779059aa1dcb1e3fd3332a363772e23164736f6c63430008070033\n}\n",
				"bytecode": {
					"linkReferences": {},
					"object": "608060405234801561001057600080fd5b50610e76806100206000396000f3fe608060405234801561001057600080fd5b50600436106100415760003560e01c806330ee52a914610046578063462e1eed14610081578063b24c908a146100b4575b600080fd5b610060600480360381019061005b919061099e565b6100d0565b6040516100789c9b9a99989796959493929190610b11565b60405180910390f35b61009b6004803603810190610096919061099e565b610612565b6040516100ab9493929190610c0a565b60405180910390f35b6100ce60048036038101906100c991906109cb565b6107da565b005b60016020528060005260406000206000915090508060000180546100f390610d43565b80601f016020809104026020016040519081016040528092919081815260200182805461011f90610d43565b801561016c5780601f106101415761010080835404028352916020019161016c565b820191906000526020600020905b81548152906001019060200180831161014f57829003601f168201915b5050505050908060010160009054906101000a900460ff169080600201549080600301805461019a90610d43565b80601f01602080910402602001604051908101604052809291908181526020018280546101c690610d43565b80156102135780601f106101e857610100808354040283529160200191610213565b820191906000526020600020905b8154815290600101906020018083116101f657829003601f168201915b50505050509080600401805461022890610d43565b80601f016020809104026020016040519081016040528092919081815260200182805461025490610d43565b80156102a15780601f10610276576101008083540402835291602001916102a1565b820191906000526020600020905b81548152906001019060200180831161028457829003601f168201915b5050505050908060050180546102b690610d43565b80601f01602080910402602001604051908101604052809291908181526020018280546102e290610d43565b801561032f5780601f106103045761010080835404028352916020019161032f565b820191906000526020600020905b81548152906001019060200180831161031257829003601f168201915b50505050509080600601805461034490610d43565b80601f016020809104026020016040519081016040528092919081815260200182805461037090610d43565b80156103bd5780601f10610392576101008083540402835291602001916103bd565b820191906000526020600020905b8154815290600101906020018083116103a057829003601f168201915b5050505050908060070180546103d290610d43565b80601f01602080910402602001604051908101604052809291908181526020018280546103fe90610d43565b801561044b5780601f106104205761010080835404028352916020019161044b565b820191906000526020600020905b81548152906001019060200180831161042e57829003601f168201915b50505050509080600801805461046090610d43565b80601f016020809104026020016040519081016040528092919081815260200182805461048c90610d43565b80156104d95780601f106104ae576101008083540402835291602001916104d9565b820191906000526020600020905b8154815290600101906020018083116104bc57829003601f168201915b5050505050908060090180546104ee90610d43565b80601f016020809104026020016040519081016040528092919081815260200182805461051a90610d43565b80156105675780601f1061053c57610100808354040283529160200191610567565b820191906000526020600020905b81548152906001019060200180831161054a57829003601f168201915b50505050509080600a0160009054906101000a900460ff169080600b01805461058f90610d43565b80601f01602080910402602001604051908101604052809291908181526020018280546105bb90610d43565b80156106085780601f106105dd57610100808354040283529160200191610608565b820191906000526020600020905b8154815290600101906020018083116105eb57829003601f168201915b505050505090508c565b600060205280600052604060002060009150905080600001805461063590610d43565b80601f016020809104026020016040519081016040528092919081815260200182805461066190610d43565b80156106ae5780601f10610683576101008083540402835291602001916106ae565b820191906000526020600020905b81548152906001019060200180831161069157829003601f168201915b5050505050908060010180546106c390610d43565b80601f01602080910402602001604051908101604052809291908181526020018280546106ef90610d43565b801561073c5780601f106107115761010080835404028352916020019161073c565b820191906000526020600020905b81548152906001019060200180831161071f57829003601f168201915b50505050509080600201805461075190610d43565b80601f016020809104026020016040519081016040528092919081815260200182805461077d90610d43565b80156107ca5780601f1061079f576101008083540402835291602001916107ca565b820191906000526020600020905b8154815290600101906020018083116107ad57829003601f168201915b5050505050908060030154905084565b6000836040516020016107ed9190610afa565b6040516020818303038152906040528051906020012090506000806000838152602001908152602001600020905084816000019080519060200190610833929190610876565b508381600101908051906020019061084c929190610876565b5082816002019080519060200190610865929190610876565b504281600301819055505050505050565b82805461088290610d43565b90600052602060002090601f0160209004810192826108a457600085556108eb565b82601f106108bd57805160ff19168380011785556108eb565b828001600101855582156108eb579182015b828111156108ea5782518255916020019190600101906108cf565b5b5090506108f891906108fc565b5090565b5b808211156109155760008160009055506001016108fd565b5090565b600061092c61092784610c89565b610c64565b90508281526020810184848401111561094857610947610e09565b5b610953848285610d01565b509392505050565b60008135905061096a81610e29565b92915050565b600082601f83011261098557610984610e04565b5b8135610995848260208601610919565b91505092915050565b6000602082840312156109b4576109b3610e13565b5b60006109c28482850161095b565b91505092915050565b6000806000606084860312156109e4576109e3610e13565b5b600084013567ffffffffffffffff811115610a0257610a01610e0e565b5b610a0e86828701610970565b935050602084013567ffffffffffffffff811115610a2f57610a2e610e0e565b5b610a3b86828701610970565b925050604084013567ffffffffffffffff811115610a5c57610a5b610e0e565b5b610a6886828701610970565b9150509250925092565b610a7b81610ce1565b82525050565b6000610a8c82610cba565b610a968185610cc5565b9350610aa6818560208601610d10565b610aaf81610e18565b840191505092915050565b6000610ac582610cba565b610acf8185610cd6565b9350610adf818560208601610d10565b80840191505092915050565b610af481610cf7565b82525050565b6000610b068284610aba565b915081905092915050565b6000610180820190508181036000830152610b2c818f610a81565b9050610b3b602083018e610a72565b610b48604083018d610aeb565b8181036060830152610b5a818c610a81565b90508181036080830152610b6e818b610a81565b905081810360a0830152610b82818a610a81565b905081810360c0830152610b968189610a81565b905081810360e0830152610baa8188610a81565b9050818103610100830152610bbf8187610a81565b9050818103610120830152610bd48186610a81565b9050610be4610140830185610a72565b818103610160830152610bf78184610a81565b90509d9c50505050505050505050505050565b60006080820190508181036000830152610c248187610a81565b90508181036020830152610c388186610a81565b90508181036040830152610c4c8185610a81565b9050610c5b6060830184610aeb565b95945050505050565b6000610c6e610c7f565b9050610c7a8282610d75565b919050565b6000604051905090565b600067ffffffffffffffff821115610ca457610ca3610dd5565b5b610cad82610e18565b9050602081019050919050565b600081519050919050565b600082825260208201905092915050565b600081905092915050565b60008115159050919050565b6000819050919050565b6000819050919050565b82818337600083830152505050565b60005b83811015610d2e578082015181840152602081019050610d13565b83811115610d3d576000848401525b50505050565b60006002820490506001821680610d5b57607f821691505b60208210811415610d6f57610d6e610da6565b5b50919050565b610d7e82610e18565b810181811067ffffffffffffffff82111715610d9d57610d9c610dd5565b5b80604052505050565b7f4e487b7100000000000000000000000000000000000000000000000000000000600052602260045260246000fd5b7f4e487b7100000000000000000000000000000000000000000000000000000000600052604160045260246000fd5b600080fd5b600080fd5b600080fd5b600080fd5b6000601f19601f8301169050919050565b610e3281610ced565b8114610e3d57600080fd5b5056fea264697066735822122074bf43c361dc8e262f717f53cc3a3c87779059aa1dcb1e3fd3332a363772e23164736f6c63430008070033",
					"opcodes": "PUSH1 0x80 PUSH1 0x40 MSTORE CALLVALUE DUP1 ISZERO PUSH2 0x10 JUMPI PUSH1 0x0 DUP1 REVERT JUMPDEST POP PUSH2 0xE76 DUP1 PUSH2 0x20 PUSH1 0x0 CODECOPY PUSH1 0x0 RETURN INVALID PUSH1 0x80 PUSH1 0x40 MSTORE CALLVALUE DUP1 ISZERO PUSH2 0x10 JUMPI PUSH1 0x0 DUP1 REVERT JUMPDEST POP PUSH1 0x4 CALLDATASIZE LT PUSH2 0x41 JUMPI PUSH1 0x0 CALLDATALOAD PUSH1 0xE0 SHR DUP1 PUSH4 0x30EE52A9 EQ PUSH2 0x46 JUMPI DUP1 PUSH4 0x462E1EED EQ PUSH2 0x81 JUMPI DUP1 PUSH4 0xB24C908A EQ PUSH2 0xB4 JUMPI JUMPDEST PUSH1 0x0 DUP1 REVERT JUMPDEST PUSH2 0x60 PUSH1 0x4 DUP1 CALLDATASIZE SUB DUP2 ADD SWAP1 PUSH2 0x5B SWAP2 SWAP1 PUSH2 0x99E JUMP JUMPDEST PUSH2 0xD0 JUMP JUMPDEST PUSH1 0x40 MLOAD PUSH2 0x78 SWAP13 SWAP12 SWAP11 SWAP10 SWAP9 SWAP8 SWAP7 SWAP6 SWAP5 SWAP4 SWAP3 SWAP2 SWAP1 PUSH2 0xB11 JUMP JUMPDEST PUSH1 0x40 MLOAD DUP1 SWAP2 SUB SWAP1 RETURN JUMPDEST PUSH2 0x9B PUSH1 0x4 DUP1 CALLDATASIZE SUB DUP2 ADD SWAP1 PUSH2 0x96 SWAP2 SWAP1 PUSH2 0x99E JUMP JUMPDEST PUSH2 0x612 JUMP JUMPDEST PUSH1 0x40 MLOAD PUSH2 0xAB SWAP5 SWAP4 SWAP3 SWAP2 SWAP1 PUSH2 0xC0A JUMP JUMPDEST PUSH1 0x40 MLOAD DUP1 SWAP2 SUB SWAP1 RETURN JUMPDEST PUSH2 0xCE PUSH1 0x4 DUP1 CALLDATASIZE SUB DUP2 ADD SWAP1 PUSH2 0xC9 SWAP2 SWAP1 PUSH2 0x9CB JUMP JUMPDEST PUSH2 0x7DA JUMP JUMPDEST STOP JUMPDEST PUSH1 0x1 PUSH1 0x20 MSTORE DUP1 PUSH1 0x0 MSTORE PUSH1 0x40 PUSH1 0x0 KECCAK256 PUSH1 0x0 SWAP2 POP SWAP1 POP DUP1 PUSH1 0x0 ADD DUP1 SLOAD PUSH2 0xF3 SWAP1 PUSH2 0xD43 JUMP JUMPDEST DUP1 PUSH1 0x1F ADD PUSH1 0x20 DUP1 SWAP2 DIV MUL PUSH1 0x20 ADD PUSH1 0x40 MLOAD SWAP1 DUP2 ADD PUSH1 0x40 MSTORE DUP1 SWAP3 SWAP2 SWAP1 DUP2 DUP2 MSTORE PUSH1 0x20 ADD DUP3 DUP1 SLOAD PUSH2 0x11F SWAP1 PUSH2 0xD43 JUMP JUMPDEST DUP1 ISZERO PUSH2 0x16C JUMPI DUP1 PUSH1 0x1F LT PUSH2 0x141 JUMPI PUSH2 0x100 DUP1 DUP4 SLOAD DIV MUL DUP4 MSTORE SWAP2 PUSH1 0x20 ADD SWAP2 PUSH2 0x16C JUMP JUMPDEST DUP3 ADD SWAP2 SWAP1 PUSH1 0x0 MSTORE PUSH1 0x20 PUSH1 0x0 KECCAK256 SWAP1 JUMPDEST DUP2 SLOAD DUP2 MSTORE SWAP1 PUSH1 0x1 ADD SWAP1 PUSH1 0x20 ADD DUP1 DUP4 GT PUSH2 0x14F JUMPI DUP3 SWAP1 SUB PUSH1 0x1F AND DUP3 ADD SWAP2 JUMPDEST POP POP POP POP POP SWAP1 DUP1 PUSH1 0x1 ADD PUSH1 0x0 SWAP1 SLOAD SWAP1 PUSH2 0x100 EXP SWAP1 DIV PUSH1 0xFF AND SWAP1 DUP1 PUSH1 0x2 ADD SLOAD SWAP1 DUP1 PUSH1 0x3 ADD DUP1 SLOAD PUSH2 0x19A SWAP1 PUSH2 0xD43 JUMP JUMPDEST DUP1 PUSH1 0x1F ADD PUSH1 0x20 DUP1 SWAP2 DIV MUL PUSH1 0x20 ADD PUSH1 0x40 MLOAD SWAP1 DUP2 ADD PUSH1 0x40 MSTORE DUP1 SWAP3 SWAP2 SWAP1 DUP2 DUP2 MSTORE PUSH1 0x20 ADD DUP3 DUP1 SLOAD PUSH2 0x1C6 SWAP1 PUSH2 0xD43 JUMP JUMPDEST DUP1 ISZERO PUSH2 0x213 JUMPI DUP1 PUSH1 0x1F LT PUSH2 0x1E8 JUMPI PUSH2 0x100 DUP1 DUP4 SLOAD DIV MUL DUP4 MSTORE SWAP2 PUSH1 0x20 ADD SWAP2 PUSH2 0x213 JUMP JUMPDEST DUP3 ADD SWAP2 SWAP1 PUSH1 0x0 MSTORE PUSH1 0x20 PUSH1 0x0 KECCAK256 SWAP1 JUMPDEST DUP2 SLOAD DUP2 MSTORE SWAP1 PUSH1 0x1 ADD SWAP1 PUSH1 0x20 ADD DUP1 DUP4 GT PUSH2 0x1F6 JUMPI DUP3 SWAP1 SUB PUSH1 0x1F AND DUP3 ADD SWAP2 JUMPDEST POP POP POP POP POP SWAP1 DUP1 PUSH1 0x4 ADD DUP1 SLOAD PUSH2 0x228 SWAP1 PUSH2 0xD43 JUMP JUMPDEST DUP1 PUSH1 0x1F ADD PUSH1 0x20 DUP1 SWAP2 DIV MUL PUSH1 0x20 ADD PUSH1 0x40 MLOAD SWAP1 DUP2 ADD PUSH1 0x40 MSTORE DUP1 SWAP3 SWAP2 SWAP1 DUP2 DUP2 MSTORE PUSH1 0x20 ADD DUP3 DUP1 SLOAD PUSH2 0x254 SWAP1 PUSH2 0xD43 JUMP JUMPDEST DUP1 ISZERO PUSH2 0x2A1 JUMPI DUP1 PUSH1 0x1F LT PUSH2 0x276 JUMPI PUSH2 0x100 DUP1 DUP4 SLOAD DIV MUL DUP4 MSTORE SWAP2 PUSH1 0x20 ADD SWAP2 PUSH2 0x2A1 JUMP JUMPDEST DUP3 ADD SWAP2 SWAP1 PUSH1 0x0 MSTORE PUSH1 0x20 PUSH1 0x0 KECCAK256 SWAP1 JUMPDEST DUP2 SLOAD DUP2 MSTORE SWAP1 PUSH1 0x1 ADD SWAP1 PUSH1 0x20 ADD DUP1 DUP4 GT PUSH2 0x284 JUMPI DUP3 SWAP1 SUB PUSH1 0x1F AND DUP3 ADD SWAP2 JUMPDEST POP POP POP POP POP SWAP1 DUP1 PUSH1 0x5 ADD DUP1 SLOAD PUSH2 0x2B6 SWAP1 PUSH2 0xD43 JUMP JUMPDEST DUP1 PUSH1 0x1F ADD PUSH1 0x20 DUP1 SWAP2 DIV MUL PUSH1 0x20 ADD PUSH1 0x40 MLOAD SWAP1 DUP2 ADD PUSH1 0x40 MSTORE DUP1 SWAP3 SWAP2 SWAP1 DUP2 DUP2 MSTORE PUSH1 0x20 ADD DUP3 DUP1 SLOAD PUSH2 0x2E2 SWAP1 PUSH2 0xD43 JUMP JUMPDEST DUP1 ISZERO PUSH2 0x32F JUMPI DUP1 PUSH1 0x1F LT PUSH2 0x304 JUMPI PUSH2 0x100 DUP1 DUP4 SLOAD DIV MUL DUP4 MSTORE SWAP2 PUSH1 0x20 ADD SWAP2 PUSH2 0x32F JUMP JUMPDEST DUP3 ADD SWAP2 SWAP1 PUSH1 0x0 MSTORE PUSH1 0x20 PUSH1 0x0 KECCAK256 SWAP1 JUMPDEST DUP2 SLOAD DUP2 MSTORE SWAP1 PUSH1 0x1 ADD SWAP1 PUSH1 0x20 ADD DUP1 DUP4 GT PUSH2 0x312 JUMPI DUP3 SWAP1 SUB PUSH1 0x1F AND DUP3 ADD SWAP2 JUMPDEST POP POP POP POP POP SWAP1 DUP1 PUSH1 0x6 ADD DUP1 SLOAD PUSH2 0x344 SWAP1 PUSH2 0xD43 JUMP JUMPDEST DUP1 PUSH1 0x1F ADD PUSH1 0x20 DUP1 SWAP2 DIV MUL PUSH1 0x20 ADD PUSH1 0x40 MLOAD SWAP1 DUP2 ADD PUSH1 0x40 MSTORE DUP1 SWAP3 SWAP2 SWAP1 DUP2 DUP2 MSTORE PUSH1 0x20 ADD DUP3 DUP1 SLOAD PUSH2 0x370 SWAP1 PUSH2 0xD43 JUMP JUMPDEST DUP1 ISZERO PUSH2 0x3BD JUMPI DUP1 PUSH1 0x1F LT PUSH2 0x392 JUMPI PUSH2 0x100 DUP1 DUP4 SLOAD DIV MUL DUP4 MSTORE SWAP2 PUSH1 0x20 ADD SWAP2 PUSH2 0x3BD JUMP JUMPDEST DUP3 ADD SWAP2 SWAP1 PUSH1 0x0 MSTORE PUSH1 0x20 PUSH1 0x0 KECCAK256 SWAP1 JUMPDEST DUP2 SLOAD DUP2 MSTORE SWAP1 PUSH1 0x1 ADD SWAP1 PUSH1 0x20 ADD DUP1 DUP4 GT PUSH2 0x3A0 JUMPI DUP3 SWAP1 SUB PUSH1 0x1F AND DUP3 ADD SWAP2 JUMPDEST POP POP POP POP POP SWAP1 DUP1 PUSH1 0x7 ADD DUP1 SLOAD PUSH2 0x3D2 SWAP1 PUSH2 0xD43 JUMP JUMPDEST DUP1 PUSH1 0x1F ADD PUSH1 0x20 DUP1 SWAP2 DIV MUL PUSH1 0x20 ADD PUSH1 0x40 MLOAD SWAP1 DUP2 ADD PUSH1 0x40 MSTORE DUP1 SWAP3 SWAP2 SWAP1 DUP2 DUP2 MSTORE PUSH1 0x20 ADD DUP3 DUP1 SLOAD PUSH2 0x3FE SWAP1 PUSH2 0xD43 JUMP JUMPDEST DUP1 ISZERO PUSH2 0x44B JUMPI DUP1 PUSH1 0x1F LT PUSH2 0x420 JUMPI PUSH2 0x100 DUP1 DUP4 SLOAD DIV MUL DUP4 MSTORE SWAP2 PUSH1 0x20 ADD SWAP2 PUSH2 0x44B JUMP JUMPDEST DUP3 ADD SWAP2 SWAP1 PUSH1 0x0 MSTORE PUSH1 0x20 PUSH1 0x0 KECCAK256 SWAP1 JUMPDEST DUP2 SLOAD DUP2 MSTORE SWAP1 PUSH1 0x1 ADD SWAP1 PUSH1 0x20 ADD DUP1 DUP4 GT PUSH2 0x42E JUMPI DUP3 SWAP1 SUB PUSH1 0x1F AND DUP3 ADD SWAP2 JUMPDEST POP POP POP POP POP SWAP1 DUP1 PUSH1 0x8 ADD DUP1 SLOAD PUSH2 0x460 SWAP1 PUSH2 0xD43 JUMP JUMPDEST DUP1 PUSH1 0x1F ADD PUSH1 0x20 DUP1 SWAP2 DIV MUL PUSH1 0x20 ADD PUSH1 0x40 MLOAD SWAP1 DUP2 ADD PUSH1 0x40 MSTORE DUP1 SWAP3 SWAP2 SWAP1 DUP2 DUP2 MSTORE PUSH1 0x20 ADD DUP3 DUP1 SLOAD PUSH2 0x48C SWAP1 PUSH2 0xD43 JUMP JUMPDEST DUP1 ISZERO PUSH2 0x4D9 JUMPI DUP1 PUSH1 0x1F LT PUSH2 0x4AE JUMPI PUSH2 0x100 DUP1 DUP4 SLOAD DIV MUL DUP4 MSTORE SWAP2 PUSH1 0x20 ADD SWAP2 PUSH2 0x4D9 JUMP JUMPDEST DUP3 ADD SWAP2 SWAP1 PUSH1 0x0 MSTORE PUSH1 0x20 PUSH1 0x0 KECCAK256 SWAP1 JUMPDEST DUP2 SLOAD DUP2 MSTORE SWAP1 PUSH1 0x1 ADD SWAP1 PUSH1 0x20 ADD DUP1 DUP4 GT PUSH2 0x4BC JUMPI DUP3 SWAP1 SUB PUSH1 0x1F AND DUP3 ADD SWAP2 JUMPDEST POP POP POP POP POP SWAP1 DUP1 PUSH1 0x9 ADD DUP1 SLOAD PUSH2 0x4EE SWAP1 PUSH2 0xD43 JUMP JUMPDEST DUP1 PUSH1 0x1F ADD PUSH1 0x20 DUP1 SWAP2 DIV MUL PUSH1 0x20 ADD PUSH1 0x40 MLOAD SWAP1 DUP2 ADD PUSH1 0x40 MSTORE DUP1 SWAP3 SWAP2 SWAP1 DUP2 DUP2 MSTORE PUSH1 0x20 ADD DUP3 DUP1 SLOAD PUSH2 0x51A SWAP1 PUSH2 0xD43 JUMP JUMPDEST DUP1 ISZERO PUSH2 0x567 JUMPI DUP1 PUSH1 0x1F LT PUSH2 0x53C JUMPI PUSH2 0x100 DUP1 DUP4 SLOAD DIV MUL DUP4 MSTORE SWAP2 PUSH1 0x20 ADD SWAP2 PUSH2 0x567 JUMP JUMPDEST DUP3 ADD SWAP2 SWAP1 PUSH1 0x0 MSTORE PUSH1 0x20 PUSH1 0x0 KECCAK256 SWAP1 JUMPDEST DUP2 SLOAD DUP2 MSTORE SWAP1 PUSH1 0x1 ADD SWAP1 PUSH1 0x20 ADD DUP1 DUP4 GT PUSH2 0x54A JUMPI DUP3 SWAP1 SUB PUSH1 0x1F AND DUP3 ADD SWAP2 JUMPDEST POP POP POP POP POP SWAP1 DUP1 PUSH1 0xA ADD PUSH1 0x0 SWAP1 SLOAD SWAP1 PUSH2 0x100 EXP SWAP1 DIV PUSH1 0xFF AND SWAP1 DUP1 PUSH1 0xB ADD DUP1 SLOAD PUSH2 0x58F SWAP1 PUSH2 0xD43 JUMP JUMPDEST DUP1 PUSH1 0x1F ADD PUSH1 0x20 DUP1 SWAP2 DIV MUL PUSH1 0x20 ADD PUSH1 0x40 MLOAD SWAP1 DUP2 ADD PUSH1 0x40 MSTORE DUP1 SWAP3 SWAP2 SWAP1 DUP2 DUP2 MSTORE PUSH1 0x20 ADD DUP3 DUP1 SLOAD PUSH2 0x5BB SWAP1 PUSH2 0xD43 JUMP JUMPDEST DUP1 ISZERO PUSH2 0x608 JUMPI DUP1 PUSH1 0x1F LT PUSH2 0x5DD JUMPI PUSH2 0x100 DUP1 DUP4 SLOAD DIV MUL DUP4 MSTORE SWAP2 PUSH1 0x20 ADD SWAP2 PUSH2 0x608 JUMP JUMPDEST DUP3 ADD SWAP2 SWAP1 PUSH1 0x0 MSTORE PUSH1 0x20 PUSH1 0x0 KECCAK256 SWAP1 JUMPDEST DUP2 SLOAD DUP2 MSTORE SWAP1 PUSH1 0x1 ADD SWAP1 PUSH1 0x20 ADD DUP1 DUP4 GT PUSH2 0x5EB JUMPI DUP3 SWAP1 SUB PUSH1 0x1F AND DUP3 ADD SWAP2 JUMPDEST POP POP POP POP POP SWAP1 POP DUP13 JUMP JUMPDEST PUSH1 0x0 PUSH1 0x20 MSTORE DUP1 PUSH1 0x0 MSTORE PUSH1 0x40 PUSH1 0x0 KECCAK256 PUSH1 0x0 SWAP2 POP SWAP1 POP DUP1 PUSH1 0x0 ADD DUP1 SLOAD PUSH2 0x635 SWAP1 PUSH2 0xD43 JUMP JUMPDEST DUP1 PUSH1 0x1F ADD PUSH1 0x20 DUP1 SWAP2 DIV MUL PUSH1 0x20 ADD PUSH1 0x40 MLOAD SWAP1 DUP2 ADD PUSH1 0x40 MSTORE DUP1 SWAP3 SWAP2 SWAP1 DUP2 DUP2 MSTORE PUSH1 0x20 ADD DUP3 DUP1 SLOAD PUSH2 0x661 SWAP1 PUSH2 0xD43 JUMP JUMPDEST DUP1 ISZERO PUSH2 0x6AE JUMPI DUP1 PUSH1 0x1F LT PUSH2 0x683 JUMPI PUSH2 0x100 DUP1 DUP4 SLOAD DIV MUL DUP4 MSTORE SWAP2 PUSH1 0x20 ADD SWAP2 PUSH2 0x6AE JUMP JUMPDEST DUP3 ADD SWAP2 SWAP1 PUSH1 0x0 MSTORE PUSH1 0x20 PUSH1 0x0 KECCAK256 SWAP1 JUMPDEST DUP2 SLOAD DUP2 MSTORE SWAP1 PUSH1 0x1 ADD SWAP1 PUSH1 0x20 ADD DUP1 DUP4 GT PUSH2 0x691 JUMPI DUP3 SWAP1 SUB PUSH1 0x1F AND DUP3 ADD SWAP2 JUMPDEST POP POP POP POP POP SWAP1 DUP1 PUSH1 0x1 ADD DUP1 SLOAD PUSH2 0x6C3 SWAP1 PUSH2 0xD43 JUMP JUMPDEST DUP1 PUSH1 0x1F ADD PUSH1 0x20 DUP1 SWAP2 DIV MUL PUSH1 0x20 ADD PUSH1 0x40 MLOAD SWAP1 DUP2 ADD PUSH1 0x40 MSTORE DUP1 SWAP3 SWAP2 SWAP1 DUP2 DUP2 MSTORE PUSH1 0x20 ADD DUP3 DUP1 SLOAD PUSH2 0x6EF SWAP1 PUSH2 0xD43 JUMP JUMPDEST DUP1 ISZERO PUSH2 0x73C JUMPI DUP1 PUSH1 0x1F LT PUSH2 0x711 JUMPI PUSH2 0x100 DUP1 DUP4 SLOAD DIV MUL DUP4 MSTORE SWAP2 PUSH1 0x20 ADD SWAP2 PUSH2 0x73C JUMP JUMPDEST DUP3 ADD SWAP2 SWAP1 PUSH1 0x0 MSTORE PUSH1 0x20 PUSH1 0x0 KECCAK256 SWAP1 JUMPDEST DUP2 SLOAD DUP2 MSTORE SWAP1 PUSH1 0x1 ADD SWAP1 PUSH1 0x20 ADD DUP1 DUP4 GT PUSH2 0x71F JUMPI DUP3 SWAP1 SUB PUSH1 0x1F AND DUP3 ADD SWAP2 JUMPDEST POP POP POP POP POP SWAP1 DUP1 PUSH1 0x2 ADD DUP1 SLOAD PUSH2 0x751 SWAP1 PUSH2 0xD43 JUMP JUMPDEST DUP1 PUSH1 0x1F ADD PUSH1 0x20 DUP1 SWAP2 DIV MUL PUSH1 0x20 ADD PUSH1 0x40 MLOAD SWAP1 DUP2 ADD PUSH1 0x40 MSTORE DUP1 SWAP3 SWAP2 SWAP1 DUP2 DUP2 MSTORE PUSH1 0x20 ADD DUP3 DUP1 SLOAD PUSH2 0x77D SWAP1 PUSH2 0xD43 JUMP JUMPDEST DUP1 ISZERO PUSH2 0x7CA JUMPI DUP1 PUSH1 0x1F LT PUSH2 0x79F JUMPI PUSH2 0x100 DUP1 DUP4 SLOAD DIV MUL DUP4 MSTORE SWAP2 PUSH1 0x20 ADD SWAP2 PUSH2 0x7CA JUMP JUMPDEST DUP3 ADD SWAP2 SWAP1 PUSH1 0x0 MSTORE PUSH1 0x20 PUSH1 0x0 KECCAK256 SWAP1 JUMPDEST DUP2 SLOAD DUP2 MSTORE SWAP1 PUSH1 0x1 ADD SWAP1 PUSH1 0x20 ADD DUP1 DUP4 GT PUSH2 0x7AD JUMPI DUP3 SWAP1 SUB PUSH1 0x1F AND DUP3 ADD SWAP2 JUMPDEST POP POP POP POP POP SWAP1 DUP1 PUSH1 0x3 ADD SLOAD SWAP1 POP DUP5 JUMP JUMPDEST PUSH1 0x0 DUP4 PUSH1 0x40 MLOAD PUSH1 0x20 ADD PUSH2 0x7ED SWAP2 SWAP1 PUSH2 0xAFA JUMP JUMPDEST PUSH1 0x40 MLOAD PUSH1 0x20 DUP2 DUP4 SUB SUB DUP2 MSTORE SWAP1 PUSH1 0x40 MSTORE DUP1 MLOAD SWAP1 PUSH1 0x20 ADD KECCAK256 SWAP1 POP PUSH1 0x0 DUP1 PUSH1 0x0 DUP4 DUP2 MSTORE PUSH1 0x20 ADD SWAP1 DUP2 MSTORE PUSH1 0x20 ADD PUSH1 0x0 KECCAK256 SWAP1 POP DUP5 DUP2 PUSH1 0x0 ADD SWAP1 DUP1 MLOAD SWAP1 PUSH1 0x20 ADD SWAP1 PUSH2 0x833 SWAP3 SWAP2 SWAP1 PUSH2 0x876 JUMP JUMPDEST POP DUP4 DUP2 PUSH1 0x1 ADD SWAP1 DUP1 MLOAD SWAP1 PUSH1 0x20 ADD SWAP1 PUSH2 0x84C SWAP3 SWAP2 SWAP1 PUSH2 0x876 JUMP JUMPDEST POP DUP3 DUP2 PUSH1 0x2 ADD SWAP1 DUP1 MLOAD SWAP1 PUSH1 0x20 ADD SWAP1 PUSH2 0x865 SWAP3 SWAP2 SWAP1 PUSH2 0x876 JUMP JUMPDEST POP TIMESTAMP DUP2 PUSH1 0x3 ADD DUP2 SWAP1 SSTORE POP POP POP POP POP POP JUMP JUMPDEST DUP3 DUP1 SLOAD PUSH2 0x882 SWAP1 PUSH2 0xD43 JUMP JUMPDEST SWAP1 PUSH1 0x0 MSTORE PUSH1 0x20 PUSH1 0x0 KECCAK256 SWAP1 PUSH1 0x1F ADD PUSH1 0x20 SWAP1 DIV DUP2 ADD SWAP3 DUP3 PUSH2 0x8A4 JUMPI PUSH1 0x0 DUP6 SSTORE PUSH2 0x8EB JUMP JUMPDEST DUP3 PUSH1 0x1F LT PUSH2 0x8BD JUMPI DUP1 MLOAD PUSH1 0xFF NOT AND DUP4 DUP1 ADD OR DUP6 SSTORE PUSH2 0x8EB JUMP JUMPDEST DUP3 DUP1 ADD PUSH1 0x1 ADD DUP6 SSTORE DUP3 ISZERO PUSH2 0x8EB JUMPI SWAP2 DUP3 ADD JUMPDEST DUP3 DUP2 GT ISZERO PUSH2 0x8EA JUMPI DUP3 MLOAD DUP3 SSTORE SWAP2 PUSH1 0x20 ADD SWAP2 SWAP1 PUSH1 0x1 ADD SWAP1 PUSH2 0x8CF JUMP JUMPDEST JUMPDEST POP SWAP1 POP PUSH2 0x8F8 SWAP2 SWAP1 PUSH2 0x8FC JUMP JUMPDEST POP SWAP1 JUMP JUMPDEST JUMPDEST DUP1 DUP3 GT ISZERO PUSH2 0x915 JUMPI PUSH1 0x0 DUP2 PUSH1 0x0 SWAP1 SSTORE POP PUSH1 0x1 ADD PUSH2 0x8FD JUMP JUMPDEST POP SWAP1 JUMP JUMPDEST PUSH1 0x0 PUSH2 0x92C PUSH2 0x927 DUP5 PUSH2 0xC89 JUMP JUMPDEST PUSH2 0xC64 JUMP JUMPDEST SWAP1 POP DUP3 DUP2 MSTORE PUSH1 0x20 DUP2 ADD DUP5 DUP5 DUP5 ADD GT ISZERO PUSH2 0x948 JUMPI PUSH2 0x947 PUSH2 0xE09 JUMP JUMPDEST JUMPDEST PUSH2 0x953 DUP5 DUP3 DUP6 PUSH2 0xD01 JUMP JUMPDEST POP SWAP4 SWAP3 POP POP POP JUMP JUMPDEST PUSH1 0x0 DUP2 CALLDATALOAD SWAP1 POP PUSH2 0x96A DUP2 PUSH2 0xE29 JUMP JUMPDEST SWAP3 SWAP2 POP POP JUMP JUMPDEST PUSH1 0x0 DUP3 PUSH1 0x1F DUP4 ADD SLT PUSH2 0x985 JUMPI PUSH2 0x984 PUSH2 0xE04 JUMP JUMPDEST JUMPDEST DUP2 CALLDATALOAD PUSH2 0x995 DUP5 DUP3 PUSH1 0x20 DUP7 ADD PUSH2 0x919 JUMP JUMPDEST SWAP2 POP POP SWAP3 SWAP2 POP POP JUMP JUMPDEST PUSH1 0x0 PUSH1 0x20 DUP3 DUP5 SUB SLT ISZERO PUSH2 0x9B4 JUMPI PUSH2 0x9B3 PUSH2 0xE13 JUMP JUMPDEST JUMPDEST PUSH1 0x0 PUSH2 0x9C2 DUP5 DUP3 DUP6 ADD PUSH2 0x95B JUMP JUMPDEST SWAP2 POP POP SWAP3 SWAP2 POP POP JUMP JUMPDEST PUSH1 0x0 DUP1 PUSH1 0x0 PUSH1 0x60 DUP5 DUP7 SUB SLT ISZERO PUSH2 0x9E4 JUMPI PUSH2 0x9E3 PUSH2 0xE13 JUMP JUMPDEST JUMPDEST PUSH1 0x0 DUP5 ADD CALLDATALOAD PUSH8 0xFFFFFFFFFFFFFFFF DUP2 GT ISZERO PUSH2 0xA02 JUMPI PUSH2 0xA01 PUSH2 0xE0E JUMP JUMPDEST JUMPDEST PUSH2 0xA0E DUP7 DUP3 DUP8 ADD PUSH2 0x970 JUMP JUMPDEST SWAP4 POP POP PUSH1 0x20 DUP5 ADD CALLDATALOAD PUSH8 0xFFFFFFFFFFFFFFFF DUP2 GT ISZERO PUSH2 0xA2F JUMPI PUSH2 0xA2E PUSH2 0xE0E JUMP JUMPDEST JUMPDEST PUSH2 0xA3B DUP7 DUP3 DUP8 ADD PUSH2 0x970 JUMP JUMPDEST SWAP3 POP POP PUSH1 0x40 DUP5 ADD CALLDATALOAD PUSH8 0xFFFFFFFFFFFFFFFF DUP2 GT ISZERO PUSH2 0xA5C JUMPI PUSH2 0xA5B PUSH2 0xE0E JUMP JUMPDEST JUMPDEST PUSH2 0xA68 DUP7 DUP3 DUP8 ADD PUSH2 0x970 JUMP JUMPDEST SWAP2 POP POP SWAP3 POP SWAP3 POP SWAP3 JUMP JUMPDEST PUSH2 0xA7B DUP2 PUSH2 0xCE1 JUMP JUMPDEST DUP3 MSTORE POP POP JUMP JUMPDEST PUSH1 0x0 PUSH2 0xA8C DUP3 PUSH2 0xCBA JUMP JUMPDEST PUSH2 0xA96 DUP2 DUP6 PUSH2 0xCC5 JUMP JUMPDEST SWAP4 POP PUSH2 0xAA6 DUP2 DUP6 PUSH1 0x20 DUP7 ADD PUSH2 0xD10 JUMP JUMPDEST PUSH2 0xAAF DUP2 PUSH2 0xE18 JUMP JUMPDEST DUP5 ADD SWAP2 POP POP SWAP3 SWAP2 POP POP JUMP JUMPDEST PUSH1 0x0 PUSH2 0xAC5 DUP3 PUSH2 0xCBA JUMP JUMPDEST PUSH2 0xACF DUP2 DUP6 PUSH2 0xCD6 JUMP JUMPDEST SWAP4 POP PUSH2 0xADF DUP2 DUP6 PUSH1 0x20 DUP7 ADD PUSH2 0xD10 JUMP JUMPDEST DUP1 DUP5 ADD SWAP2 POP POP SWAP3 SWAP2 POP POP JUMP JUMPDEST PUSH2 0xAF4 DUP2 PUSH2 0xCF7 JUMP JUMPDEST DUP3 MSTORE POP POP JUMP JUMPDEST PUSH1 0x0 PUSH2 0xB06 DUP3 DUP5 PUSH2 0xABA JUMP JUMPDEST SWAP2 POP DUP2 SWAP1 POP SWAP3 SWAP2 POP POP JUMP JUMPDEST PUSH1 0x0 PUSH2 0x180 DUP3 ADD SWAP1 POP DUP2 DUP2 SUB PUSH1 0x0 DUP4 ADD MSTORE PUSH2 0xB2C DUP2 DUP16 PUSH2 0xA81 JUMP JUMPDEST SWAP1 POP PUSH2 0xB3B PUSH1 0x20 DUP4 ADD DUP15 PUSH2 0xA72 JUMP JUMPDEST PUSH2 0xB48 PUSH1 0x40 DUP4 ADD DUP14 PUSH2 0xAEB JUMP JUMPDEST DUP2 DUP2 SUB PUSH1 0x60 DUP4 ADD MSTORE PUSH2 0xB5A DUP2 DUP13 PUSH2 0xA81 JUMP JUMPDEST SWAP1 POP DUP2 DUP2 SUB PUSH1 0x80 DUP4 ADD MSTORE PUSH2 0xB6E DUP2 DUP12 PUSH2 0xA81 JUMP JUMPDEST SWAP1 POP DUP2 DUP2 SUB PUSH1 0xA0 DUP4 ADD MSTORE PUSH2 0xB82 DUP2 DUP11 PUSH2 0xA81 JUMP JUMPDEST SWAP1 POP DUP2 DUP2 SUB PUSH1 0xC0 DUP4 ADD MSTORE PUSH2 0xB96 DUP2 DUP10 PUSH2 0xA81 JUMP JUMPDEST SWAP1 POP DUP2 DUP2 SUB PUSH1 0xE0 DUP4 ADD MSTORE PUSH2 0xBAA DUP2 DUP9 PUSH2 0xA81 JUMP JUMPDEST SWAP1 POP DUP2 DUP2 SUB PUSH2 0x100 DUP4 ADD MSTORE PUSH2 0xBBF DUP2 DUP8 PUSH2 0xA81 JUMP JUMPDEST SWAP1 POP DUP2 DUP2 SUB PUSH2 0x120 DUP4 ADD MSTORE PUSH2 0xBD4 DUP2 DUP7 PUSH2 0xA81 JUMP JUMPDEST SWAP1 POP PUSH2 0xBE4 PUSH2 0x140 DUP4 ADD DUP6 PUSH2 0xA72 JUMP JUMPDEST DUP2 DUP2 SUB PUSH2 0x160 DUP4 ADD MSTORE PUSH2 0xBF7 DUP2 DUP5 PUSH2 0xA81 JUMP JUMPDEST SWAP1 POP SWAP14 SWAP13 POP POP POP POP POP POP POP POP POP POP POP POP POP JUMP JUMPDEST PUSH1 0x0 PUSH1 0x80 DUP3 ADD SWAP1 POP DUP2 DUP2 SUB PUSH1 0x0 DUP4 ADD MSTORE PUSH2 0xC24 DUP2 DUP8 PUSH2 0xA81 JUMP JUMPDEST SWAP1 POP DUP2 DUP2 SUB PUSH1 0x20 DUP4 ADD MSTORE PUSH2 0xC38 DUP2 DUP7 PUSH2 0xA81 JUMP JUMPDEST SWAP1 POP DUP2 DUP2 SUB PUSH1 0x40 DUP4 ADD MSTORE PUSH2 0xC4C DUP2 DUP6 PUSH2 0xA81 JUMP JUMPDEST SWAP1 POP PUSH2 0xC5B PUSH1 0x60 DUP4 ADD DUP5 PUSH2 0xAEB JUMP JUMPDEST SWAP6 SWAP5 POP POP POP POP POP JUMP JUMPDEST PUSH1 0x0 PUSH2 0xC6E PUSH2 0xC7F JUMP JUMPDEST SWAP1 POP PUSH2 0xC7A DUP3 DUP3 PUSH2 0xD75 JUMP JUMPDEST SWAP2 SWAP1 POP JUMP JUMPDEST PUSH1 0x0 PUSH1 0x40 MLOAD SWAP1 POP SWAP1 JUMP JUMPDEST PUSH1 0x0 PUSH8 0xFFFFFFFFFFFFFFFF DUP3 GT ISZERO PUSH2 0xCA4 JUMPI PUSH2 0xCA3 PUSH2 0xDD5 JUMP JUMPDEST JUMPDEST PUSH2 0xCAD DUP3 PUSH2 0xE18 JUMP JUMPDEST SWAP1 POP PUSH1 0x20 DUP2 ADD SWAP1 POP SWAP2 SWAP1 POP JUMP JUMPDEST PUSH1 0x0 DUP2 MLOAD SWAP1 POP SWAP2 SWAP1 POP JUMP JUMPDEST PUSH1 0x0 DUP3 DUP3 MSTORE PUSH1 0x20 DUP3 ADD SWAP1 POP SWAP3 SWAP2 POP POP JUMP JUMPDEST PUSH1 0x0 DUP2 SWAP1 POP SWAP3 SWAP2 POP POP JUMP JUMPDEST PUSH1 0x0 DUP2 ISZERO ISZERO SWAP1 POP SWAP2 SWAP1 POP JUMP JUMPDEST PUSH1 0x0 DUP2 SWAP1 POP SWAP2 SWAP1 POP JUMP JUMPDEST PUSH1 0x0 DUP2 SWAP1 POP SWAP2 SWAP1 POP JUMP JUMPDEST DUP3 DUP2 DUP4 CALLDATACOPY PUSH1 0x0 DUP4 DUP4 ADD MSTORE POP POP POP JUMP JUMPDEST PUSH1 0x0 JUMPDEST DUP4 DUP2 LT ISZERO PUSH2 0xD2E JUMPI DUP1 DUP3 ADD MLOAD DUP2 DUP5 ADD MSTORE PUSH1 0x20 DUP2 ADD SWAP1 POP PUSH2 0xD13 JUMP JUMPDEST DUP4 DUP2 GT ISZERO PUSH2 0xD3D JUMPI PUSH1 0x0 DUP5 DUP5 ADD MSTORE JUMPDEST POP POP POP POP JUMP JUMPDEST PUSH1 0x0 PUSH1 0x2 DUP3 DIV SWAP1 POP PUSH1 0x1 DUP3 AND DUP1 PUSH2 0xD5B JUMPI PUSH1 0x7F DUP3 AND SWAP2 POP JUMPDEST PUSH1 0x20 DUP3 LT DUP2 EQ ISZERO PUSH2 0xD6F JUMPI PUSH2 0xD6E PUSH2 0xDA6 JUMP JUMPDEST JUMPDEST POP SWAP2 SWAP1 POP JUMP JUMPDEST PUSH2 0xD7E DUP3 PUSH2 0xE18 JUMP JUMPDEST DUP2 ADD DUP2 DUP2 LT PUSH8 0xFFFFFFFFFFFFFFFF DUP3 GT OR ISZERO PUSH2 0xD9D JUMPI PUSH2 0xD9C PUSH2 0xDD5 JUMP JUMPDEST JUMPDEST DUP1 PUSH1 0x40 MSTORE POP POP POP JUMP JUMPDEST PUSH32 0x4E487B7100000000000000000000000000000000000000000000000000000000 PUSH1 0x0 MSTORE PUSH1 0x22 PUSH1 0x4 MSTORE PUSH1 0x24 PUSH1 0x0 REVERT JUMPDEST PUSH32 0x4E487B7100000000000000000000000000000000000000000000000000000000 PUSH1 0x0 MSTORE PUSH1 0x41 PUSH1 0x4 MSTORE PUSH1 0x24 PUSH1 0x0 REVERT JUMPDEST PUSH1 0x0 DUP1 REVERT JUMPDEST PUSH1 0x0 DUP1 REVERT JUMPDEST PUSH1 0x0 DUP1 REVERT JUMPDEST PUSH1 0x0 DUP1 REVERT JUMPDEST PUSH1 0x0 PUSH1 0x1F NOT PUSH1 0x1F DUP4 ADD AND SWAP1 POP SWAP2 SWAP1 POP JUMP JUMPDEST PUSH2 0xE32 DUP2 PUSH2 0xCED JUMP JUMPDEST DUP2 EQ PUSH2 0xE3D JUMPI PUSH1 0x0 DUP1 REVERT JUMPDEST POP JUMP INVALID LOG2 PUSH5 0x6970667358 0x22 SLT KECCAK256 PUSH21 0xBF43C361DC8E262F717F53CC3A3C87779059AA1DCB 0x1E EXTCODEHASH 0xD3 CALLER 0x2A CALLDATASIZE CALLDATACOPY PUSH19 0xE23164736F6C63430008070033000000000000 "
				},
				"gasEstimates": {
					"creation": {
						"codeDepositCost": "740400",
						"executionCost": "773",
						"totalCost": "741173"
					},
					"external": {
						"add_account(string,string,string)": "infinite",
						"mappingAccount(bytes32)": "infinite",
						"mappingTransaction(bytes32)": "infinite"
					}
				},
				"methodIdentifiers": {
					"add_account(string,string,string)": "b24c908a",
					"mappingAccount(bytes32)": "462e1eed",
					"mappingTransaction(bytes32)": "30ee52a9"
				}
			},
			"storageLayout": {
				"storage": [
					{
						"astId": 15,
						"contract": "contracts/Halal.sol:Halal",
						"label": "mappingAccount",
						"offset": 0,
						"slot": "0",
						"type": "t_mapping(t_bytes32,t_struct(account_data)10_storage)"
					},
					{
						"astId": 45,
						"contract": "contracts/Halal.sol:Halal",
						"label": "mappingTransaction",
						"offset": 0,
						"slot": "1",
						"type": "t_mapping(t_bytes32,t_struct(transaction)40_storage)"
					}
				],
				"types": {
					"t_bool": {
						"encoding": "inplace",
						"label": "bool",
						"numberOfBytes": "1"
					},
					"t_bytes32": {
						"encoding": "inplace",
						"label": "bytes32",
						"numberOfBytes": "32"
					},
					"t_mapping(t_bytes32,t_struct(account_data)10_storage)": {
						"encoding": "mapping",
						"key": "t_bytes32",
						"label": "mapping(bytes32 => struct Halal.account_data)",
						"numberOfBytes": "32",
						"value": "t_struct(account_data)10_storage"
					},
					"t_mapping(t_bytes32,t_struct(transaction)40_storage)": {
						"encoding": "mapping",
						"key": "t_bytes32",
						"label": "mapping(bytes32 => struct Halal.transaction)",
						"numberOfBytes": "32",
						"value": "t_struct(transaction)40_storage"
					},
					"t_string_storage": {
						"encoding": "bytes",
						"label": "string",
						"numberOfBytes": "32"
					},
					"t_struct(account_data)10_storage": {
						"encoding": "inplace",
						"label": "struct Halal.account_data",
						"members": [
							{
								"astId": 3,
								"contract": "contracts/Halal.sol:Halal",
								"label": "account_id",
								"offset": 0,
								"slot": "0",
								"type": "t_string_storage"
							},
							{
								"astId": 5,
								"contract": "contracts/Halal.sol:Halal",
								"label": "name",
								"offset": 0,
								"slot": "1",
								"type": "t_string_storage"
							},
							{
								"astId": 7,
								"contract": "contracts/Halal.sol:Halal",
								"label": "role",
								"offset": 0,
								"slot": "2",
								"type": "t_string_storage"
							},
							{
								"astId": 9,
								"contract": "contracts/Halal.sol:Halal",
								"label": "created_at",
								"offset": 0,
								"slot": "3",
								"type": "t_uint256"
							}
						],
						"numberOfBytes": "128"
					},
					"t_struct(transaction)40_storage": {
						"encoding": "inplace",
						"label": "struct Halal.transaction",
						"members": [
							{
								"astId": 17,
								"contract": "contracts/Halal.sol:Halal",
								"label": "umkm_id",
								"offset": 0,
								"slot": "0",
								"type": "t_string_storage"
							},
							{
								"astId": 19,
								"contract": "contracts/Halal.sol:Halal",
								"label": "reg_status",
								"offset": 0,
								"slot": "1",
								"type": "t_bool"
							},
							{
								"astId": 21,
								"contract": "contracts/Halal.sol:Halal",
								"label": "reg_date",
								"offset": 0,
								"slot": "2",
								"type": "t_uint256"
							},
							{
								"astId": 23,
								"contract": "contracts/Halal.sol:Halal",
								"label": "bpjph_desc",
								"offset": 0,
								"slot": "3",
								"type": "t_string_storage"
							},
							{
								"astId": 25,
								"contract": "contracts/Halal.sol:Halal",
								"label": "bpjph_result",
								"offset": 0,
								"slot": "4",
								"type": "t_string_storage"
							},
							{
								"astId": 27,
								"contract": "contracts/Halal.sol:Halal",
								"label": "lph_appintment",
								"offset": 0,
								"slot": "5",
								"type": "t_string_storage"
							},
							{
								"astId": 29,
								"contract": "contracts/Halal.sol:Halal",
								"label": "bpjph_id",
								"offset": 0,
								"slot": "6",
								"type": "t_string_storage"
							},
							{
								"astId": 31,
								"contract": "contracts/Halal.sol:Halal",
								"label": "lph_desc",
								"offset": 0,
								"slot": "7",
								"type": "t_string_storage"
							},
							{
								"astId": 33,
								"contract": "contracts/Halal.sol:Halal",
								"label": "review_status",
								"offset": 0,
								"slot": "8",
								"type": "t_string_storage"
							},
							{
								"astId": 35,
								"contract": "contracts/Halal.sol:Halal",
								"label": "desicion_mui",
								"offset": 0,
								"slot": "9",
								"type": "t_string_storage"
							},
							{
								"astId": 37,
								"contract": "contracts/Halal.sol:Halal",
								"label": "mui_approved",
								"offset": 0,
								"slot": "10",
								"type": "t_bool"
							},
							{
								"astId": 39,
								"contract": "contracts/Halal.sol:Halal",
								"label": "cert_data",
								"offset": 0,
								"slot": "11",
								"type": "t_string_storage"
							}
						],
						"numberOfBytes": "384"
					},
					"t_uint256": {
						"encoding": "inplace",
						"label": "uint256",
						"numberOfBytes": "32"
					}
				}
			},
			"userdoc": {
				"kind": "user",
				"methods": {},
				"version": 1
			}
		}
	}
}