{
	"data": {
		"bytecode": {
			"linkReferences": {},
			"object": "608060405234801561001057600080fd5b50611684806100206000396000f3fe608060405234801561001057600080fd5b50600436106100625760003560e01c8063174ba7ff146100675780635b62132d14610097578063b24c908a146100c7578063b8428403146100f7578063c3efbe3814610127578063ca5e208f14610157575b600080fd5b610081600480360381019061007c9190610df5565b610187565b60405161008e9190611353565b60405180910390f35b6100b160048036038101906100ac9190610e3e565b61039f565b6040516100be91906112ea565b60405180910390f35b6100e160048036038101906100dc9190610ee5565b610566565b6040516100ee91906112ea565b60405180910390f35b610111600480360381019061010c9190610df5565b610688565b60405161011e9190611375565b60405180910390f35b610141600480360381019061013c9190610f8c565b610819565b60405161014e91906112ea565b60405180910390f35b610171600480360381019061016c9190610df5565b610a08565b60405161017e9190611397565b60405180910390f35b61018f610bf3565b6000826040516020016101a291906112bc565b6040516020818303038152906040528051906020012090506000808281526020019081526020016000206040518060800160405290816000820180546101e7906114ff565b80601f0160208091040260200160405190810160405280929190818152602001828054610213906114ff565b80156102605780601f1061023557610100808354040283529160200191610260565b820191906000526020600020905b81548152906001019060200180831161024357829003601f168201915b50505050508152602001600182018054610279906114ff565b80601f01602080910402602001604051908101604052809291908181526020018280546102a5906114ff565b80156102f25780601f106102c7576101008083540402835291602001916102f2565b820191906000526020600020905b8154815290600101906020018083116102d557829003601f168201915b5050505050815260200160028201805461030b906114ff565b80601f0160208091040260200160405190810160405280929190818152602001828054610337906114ff565b80156103845780601f1061035957610100808354040283529160200191610384565b820191906000526020600020905b81548152906001019060200180831161036757829003601f168201915b50505050508152602001600382015481525050915050919050565b600080846040516020016103b391906112bc565b6040516020818303038152906040528051906020012090506000600160008381526020019081526020016000206040518060400160405290816000820180546103fb906114ff565b80601f0160208091040260200160405190810160405280929190818152602001828054610427906114ff565b80156104745780601f1061044957610100808354040283529160200191610474565b820191906000526020600020905b81548152906001019060200180831161045757829003601f168201915b5050505050815260200160018201805461048d906114ff565b80601f01602080910402602001604051908101604052809291908181526020018280546104b9906114ff565b80156105065780601f106104db57610100808354040283529160200191610506565b820191906000526020600020905b8154815290600101906020018083116104e957829003601f168201915b50505050508152505090508481600001819052508381602001819052507fc8922d91fbabbe8df5d667708c678575856a856a2a465ebd9626a40ab6a16f5f826040516105529190611325565b60405180910390a181925050509392505050565b6000808460405160200161057a91906112bc565b60405160208183030381529060405280519060200120905061059c8186610b85565b6105db576040517f08c379a00000000000000000000000000000000000000000000000000000000081526004016105d290611305565b60405180910390fd5b6000806000838152602001908152602001600020905085816000019080519060200190610609929190610c1b565b5084816001019080519060200190610622929190610c1b565b508381600201908051906020019061063b929190610c1b565b504281600301819055507fc8922d91fbabbe8df5d667708c678575856a856a2a465ebd9626a40ab6a16f5f826040516106749190611325565b60405180910390a181925050509392505050565b610690610ca1565b6000826040516020016106a391906112bc565b604051602081830303815290604052805190602001209050600260008281526020019081526020016000206040518060800160405290816000820180546106e9906114ff565b80601f0160208091040260200160405190810160405280929190818152602001828054610715906114ff565b80156107625780601f1061073757610100808354040283529160200191610762565b820191906000526020600020905b81548152906001019060200180831161074557829003601f168201915b5050505050815260200160018201805461077b906114ff565b80601f01602080910402602001604051908101604052809291908181526020018280546107a7906114ff565b80156107f45780601f106107c9576101008083540402835291602001916107f4565b820191906000526020600020905b8154815290600101906020018083116107d757829003601f168201915b5050505050815260200160028201548152602001600382015481525050915050919050565b6000808460405160200161082d91906112bc565b604051602081830303815290604052805190602001209050600060026000838152602001908152602001600020604051806080016040529081600082018054610875906114ff565b80601f01602080910402602001604051908101604052809291908181526020018280546108a1906114ff565b80156108ee5780601f106108c3576101008083540402835291602001916108ee565b820191906000526020600020905b8154815290600101906020018083116108d157829003601f168201915b50505050508152602001600182018054610907906114ff565b80601f0160208091040260200160405190810160405280929190818152602001828054610933906114ff565b80156109805780601f1061095557610100808354040283529160200191610980565b820191906000526020600020905b81548152906001019060200180831161096357829003601f168201915b5050505050815260200160028201548152602001600382015481525050905085816000018190525084816020018190525042816040018181525050838160600181815250507fc8922d91fbabbe8df5d667708c678575856a856a2a465ebd9626a40ab6a16f5f826040516109f49190611325565b60405180910390a181925050509392505050565b610a10610cc9565b600082604051602001610a2391906112bc565b60405160208183030381529060405280519060200120905060016000828152602001908152602001600020604051806040016040529081600082018054610a69906114ff565b80601f0160208091040260200160405190810160405280929190818152602001828054610a95906114ff565b8015610ae25780601f10610ab757610100808354040283529160200191610ae2565b820191906000526020600020905b815481529060010190602001808311610ac557829003601f168201915b50505050508152602001600182018054610afb906114ff565b80601f0160208091040260200160405190810160405280929190818152602001828054610b27906114ff565b8015610b745780601f10610b4957610100808354040283529160200191610b74565b820191906000526020600020905b815481529060010190602001808311610b5757829003601f168201915b505050505081525050915050919050565b600081604051602001610b9891906112bc565b60405160208183030381529060405280519060200120600080858152602001908152602001600020600001604051602001610bd391906112d3565b604051602081830303815290604052805190602001201415905092915050565b6040518060800160405280606081526020016060815260200160608152602001600081525090565b828054610c27906114ff565b90600052602060002090601f016020900481019282610c495760008555610c90565b82601f10610c6257805160ff1916838001178555610c90565b82800160010185558215610c90579182015b82811115610c8f578251825591602001919060010190610c74565b5b509050610c9d9190610ce3565b5090565b6040518060800160405280606081526020016060815260200160008152602001600081525090565b604051806040016040528060608152602001606081525090565b5b80821115610cfc576000816000905550600101610ce4565b5090565b6000610d13610d0e846113de565b6113b9565b905082815260208101848484011115610d2f57610d2e6115c5565b5b610d3a8482856114bd565b509392505050565b6000610d55610d508461140f565b6113b9565b905082815260208101848484011115610d7157610d706115c5565b5b610d7c8482856114bd565b509392505050565b600082601f830112610d9957610d986115c0565b5b8135610da9848260208601610d00565b91505092915050565b600082601f830112610dc757610dc66115c0565b5b8135610dd7848260208601610d42565b91505092915050565b600081359050610def81611637565b92915050565b600060208284031215610e0b57610e0a6115cf565b5b600082013567ffffffffffffffff811115610e2957610e286115ca565b5b610e3584828501610db2565b91505092915050565b600080600060608486031215610e5757610e566115cf565b5b600084013567ffffffffffffffff811115610e7557610e746115ca565b5b610e8186828701610db2565b935050602084013567ffffffffffffffff811115610ea257610ea16115ca565b5b610eae86828701610db2565b925050604084013567ffffffffffffffff811115610ecf57610ece6115ca565b5b610edb86828701610d84565b9150509250925092565b600080600060608486031215610efe57610efd6115cf565b5b600084013567ffffffffffffffff811115610f1c57610f1b6115ca565b5b610f2886828701610db2565b935050602084013567ffffffffffffffff811115610f4957610f486115ca565b5b610f5586828701610db2565b925050604084013567ffffffffffffffff811115610f7657610f756115ca565b5b610f8286828701610db2565b9150509250925092565b600080600060608486031215610fa557610fa46115cf565b5b600084013567ffffffffffffffff811115610fc357610fc26115ca565b5b610fcf86828701610db2565b935050602084013567ffffffffffffffff811115610ff057610fef6115ca565b5b610ffc86828701610db2565b925050604061100d86828701610de0565b9150509250925092565b611020816114a9565b82525050565b600061103182611455565b61103b818561146b565b935061104b8185602086016114cc565b611054816115d4565b840191505092915050565b600061106a82611460565b611074818561147c565b93506110848185602086016114cc565b61108d816115d4565b840191505092915050565b60006110a382611460565b6110ad818561149e565b93506110bd8185602086016114cc565b80840191505092915050565b600081546110d6816114ff565b6110e0818661149e565b945060018216600081146110fb576001811461110c5761113f565b60ff1983168652818601935061113f565b61111585611440565b60005b8381101561113757815481890152600182019150602081019050611118565b838801955050505b50505092915050565b600061115560188361148d565b9150611160826115e5565b602082019050919050565b600061117860078361148d565b91506111838261160e565b602082019050919050565b600060808301600083015184820360008601526111ab828261105f565b915050602083015184820360208601526111c5828261105f565b915050604083015184820360408601526111df828261105f565b91505060608301516111f460608601826112ad565b508091505092915050565b6000608083016000830151848203600086015261121c828261105f565b91505060208301518482036020860152611236828261105f565b915050604083015161124b60408601826112ad565b50606083015161125e60608601826112ad565b508091505092915050565b60006040830160008301518482036000860152611286828261105f565b915050602083015184820360208601526112a08282611026565b9150508091505092915050565b6112b6816114b3565b82525050565b60006112c88284611098565b915081905092915050565b60006112df82846110c9565b915081905092915050565b60006020820190506112ff6000830184611017565b92915050565b6000602082019050818103600083015261131e81611148565b9050919050565b6000604082019050818103600083015261133e8161116b565b905061134d6020830184611017565b92915050565b6000602082019050818103600083015261136d818461118e565b905092915050565b6000602082019050818103600083015261138f81846111ff565b905092915050565b600060208201905081810360008301526113b18184611269565b905092915050565b60006113c36113d4565b90506113cf8282611531565b919050565b6000604051905090565b600067ffffffffffffffff8211156113f9576113f8611591565b5b611402826115d4565b9050602081019050919050565b600067ffffffffffffffff82111561142a57611429611591565b5b611433826115d4565b9050602081019050919050565b60008190508160005260206000209050919050565b600081519050919050565b600081519050919050565b600082825260208201905092915050565b600082825260208201905092915050565b600082825260208201905092915050565b600081905092915050565b6000819050919050565b6000819050919050565b82818337600083830152505050565b60005b838110156114ea5780820151818401526020810190506114cf565b838111156114f9576000848401525b50505050565b6000600282049050600182168061151757607f821691505b6020821081141561152b5761152a611562565b5b50919050565b61153a826115d4565b810181811067ffffffffffffffff8211171561155957611558611591565b5b80604052505050565b7f4e487b7100000000000000000000000000000000000000000000000000000000600052602260045260246000fd5b7f4e487b7100000000000000000000000000000000000000000000000000000000600052604160045260246000fd5b600080fd5b600080fd5b600080fd5b600080fd5b6000601f19601f8301169050919050565b7f4163636f756e7420616c7265616479206578697374696e670000000000000000600082015250565b7f7375636365737300000000000000000000000000000000000000000000000000600082015250565b611640816114b3565b811461164b57600080fd5b5056fea26469706673582212202f4efc54ff52dad345e690061cdf12fea18a1c56740834501381104ea36f899a64736f6c63430008070033",
			"opcodes": "PUSH1 0x80 PUSH1 0x40 MSTORE CALLVALUE DUP1 ISZERO PUSH2 0x10 JUMPI PUSH1 0x0 DUP1 REVERT JUMPDEST POP PUSH2 0x1684 DUP1 PUSH2 0x20 PUSH1 0x0 CODECOPY PUSH1 0x0 RETURN INVALID PUSH1 0x80 PUSH1 0x40 MSTORE CALLVALUE DUP1 ISZERO PUSH2 0x10 JUMPI PUSH1 0x0 DUP1 REVERT JUMPDEST POP PUSH1 0x4 CALLDATASIZE LT PUSH2 0x62 JUMPI PUSH1 0x0 CALLDATALOAD PUSH1 0xE0 SHR DUP1 PUSH4 0x174BA7FF EQ PUSH2 0x67 JUMPI DUP1 PUSH4 0x5B62132D EQ PUSH2 0x97 JUMPI DUP1 PUSH4 0xB24C908A EQ PUSH2 0xC7 JUMPI DUP1 PUSH4 0xB8428403 EQ PUSH2 0xF7 JUMPI DUP1 PUSH4 0xC3EFBE38 EQ PUSH2 0x127 JUMPI DUP1 PUSH4 0xCA5E208F EQ PUSH2 0x157 JUMPI JUMPDEST PUSH1 0x0 DUP1 REVERT JUMPDEST PUSH2 0x81 PUSH1 0x4 DUP1 CALLDATASIZE SUB DUP2 ADD SWAP1 PUSH2 0x7C SWAP2 SWAP1 PUSH2 0xDF5 JUMP JUMPDEST PUSH2 0x187 JUMP JUMPDEST PUSH1 0x40 MLOAD PUSH2 0x8E SWAP2 SWAP1 PUSH2 0x1353 JUMP JUMPDEST PUSH1 0x40 MLOAD DUP1 SWAP2 SUB SWAP1 RETURN JUMPDEST PUSH2 0xB1 PUSH1 0x4 DUP1 CALLDATASIZE SUB DUP2 ADD SWAP1 PUSH2 0xAC SWAP2 SWAP1 PUSH2 0xE3E JUMP JUMPDEST PUSH2 0x39F JUMP JUMPDEST PUSH1 0x40 MLOAD PUSH2 0xBE SWAP2 SWAP1 PUSH2 0x12EA JUMP JUMPDEST PUSH1 0x40 MLOAD DUP1 SWAP2 SUB SWAP1 RETURN JUMPDEST PUSH2 0xE1 PUSH1 0x4 DUP1 CALLDATASIZE SUB DUP2 ADD SWAP1 PUSH2 0xDC SWAP2 SWAP1 PUSH2 0xEE5 JUMP JUMPDEST PUSH2 0x566 JUMP JUMPDEST PUSH1 0x40 MLOAD PUSH2 0xEE SWAP2 SWAP1 PUSH2 0x12EA JUMP JUMPDEST PUSH1 0x40 MLOAD DUP1 SWAP2 SUB SWAP1 RETURN JUMPDEST PUSH2 0x111 PUSH1 0x4 DUP1 CALLDATASIZE SUB DUP2 ADD SWAP1 PUSH2 0x10C SWAP2 SWAP1 PUSH2 0xDF5 JUMP JUMPDEST PUSH2 0x688 JUMP JUMPDEST PUSH1 0x40 MLOAD PUSH2 0x11E SWAP2 SWAP1 PUSH2 0x1375 JUMP JUMPDEST PUSH1 0x40 MLOAD DUP1 SWAP2 SUB SWAP1 RETURN JUMPDEST PUSH2 0x141 PUSH1 0x4 DUP1 CALLDATASIZE SUB DUP2 ADD SWAP1 PUSH2 0x13C SWAP2 SWAP1 PUSH2 0xF8C JUMP JUMPDEST PUSH2 0x819 JUMP JUMPDEST PUSH1 0x40 MLOAD PUSH2 0x14E SWAP2 SWAP1 PUSH2 0x12EA JUMP JUMPDEST PUSH1 0x40 MLOAD DUP1 SWAP2 SUB SWAP1 RETURN JUMPDEST PUSH2 0x171 PUSH1 0x4 DUP1 CALLDATASIZE SUB DUP2 ADD SWAP1 PUSH2 0x16C SWAP2 SWAP1 PUSH2 0xDF5 JUMP JUMPDEST PUSH2 0xA08 JUMP JUMPDEST PUSH1 0x40 MLOAD PUSH2 0x17E SWAP2 SWAP1 PUSH2 0x1397 JUMP JUMPDEST PUSH1 0x40 MLOAD DUP1 SWAP2 SUB SWAP1 RETURN JUMPDEST PUSH2 0x18F PUSH2 0xBF3 JUMP JUMPDEST PUSH1 0x0 DUP3 PUSH1 0x40 MLOAD PUSH1 0x20 ADD PUSH2 0x1A2 SWAP2 SWAP1 PUSH2 0x12BC JUMP JUMPDEST PUSH1 0x40 MLOAD PUSH1 0x20 DUP2 DUP4 SUB SUB DUP2 MSTORE SWAP1 PUSH1 0x40 MSTORE DUP1 MLOAD SWAP1 PUSH1 0x20 ADD KECCAK256 SWAP1 POP PUSH1 0x0 DUP1 DUP3 DUP2 MSTORE PUSH1 0x20 ADD SWAP1 DUP2 MSTORE PUSH1 0x20 ADD PUSH1 0x0 KECCAK256 PUSH1 0x40 MLOAD DUP1 PUSH1 0x80 ADD PUSH1 0x40 MSTORE SWAP1 DUP2 PUSH1 0x0 DUP3 ADD DUP1 SLOAD PUSH2 0x1E7 SWAP1 PUSH2 0x14FF JUMP JUMPDEST DUP1 PUSH1 0x1F ADD PUSH1 0x20 DUP1 SWAP2 DIV MUL PUSH1 0x20 ADD PUSH1 0x40 MLOAD SWAP1 DUP2 ADD PUSH1 0x40 MSTORE DUP1 SWAP3 SWAP2 SWAP1 DUP2 DUP2 MSTORE PUSH1 0x20 ADD DUP3 DUP1 SLOAD PUSH2 0x213 SWAP1 PUSH2 0x14FF JUMP JUMPDEST DUP1 ISZERO PUSH2 0x260 JUMPI DUP1 PUSH1 0x1F LT PUSH2 0x235 JUMPI PUSH2 0x100 DUP1 DUP4 SLOAD DIV MUL DUP4 MSTORE SWAP2 PUSH1 0x20 ADD SWAP2 PUSH2 0x260 JUMP JUMPDEST DUP3 ADD SWAP2 SWAP1 PUSH1 0x0 MSTORE PUSH1 0x20 PUSH1 0x0 KECCAK256 SWAP1 JUMPDEST DUP2 SLOAD DUP2 MSTORE SWAP1 PUSH1 0x1 ADD SWAP1 PUSH1 0x20 ADD DUP1 DUP4 GT PUSH2 0x243 JUMPI DUP3 SWAP1 SUB PUSH1 0x1F AND DUP3 ADD SWAP2 JUMPDEST POP POP POP POP POP DUP2 MSTORE PUSH1 0x20 ADD PUSH1 0x1 DUP3 ADD DUP1 SLOAD PUSH2 0x279 SWAP1 PUSH2 0x14FF JUMP JUMPDEST DUP1 PUSH1 0x1F ADD PUSH1 0x20 DUP1 SWAP2 DIV MUL PUSH1 0x20 ADD PUSH1 0x40 MLOAD SWAP1 DUP2 ADD PUSH1 0x40 MSTORE DUP1 SWAP3 SWAP2 SWAP1 DUP2 DUP2 MSTORE PUSH1 0x20 ADD DUP3 DUP1 SLOAD PUSH2 0x2A5 SWAP1 PUSH2 0x14FF JUMP JUMPDEST DUP1 ISZERO PUSH2 0x2F2 JUMPI DUP1 PUSH1 0x1F LT PUSH2 0x2C7 JUMPI PUSH2 0x100 DUP1 DUP4 SLOAD DIV MUL DUP4 MSTORE SWAP2 PUSH1 0x20 ADD SWAP2 PUSH2 0x2F2 JUMP JUMPDEST DUP3 ADD SWAP2 SWAP1 PUSH1 0x0 MSTORE PUSH1 0x20 PUSH1 0x0 KECCAK256 SWAP1 JUMPDEST DUP2 SLOAD DUP2 MSTORE SWAP1 PUSH1 0x1 ADD SWAP1 PUSH1 0x20 ADD DUP1 DUP4 GT PUSH2 0x2D5 JUMPI DUP3 SWAP1 SUB PUSH1 0x1F AND DUP3 ADD SWAP2 JUMPDEST POP POP POP POP POP DUP2 MSTORE PUSH1 0x20 ADD PUSH1 0x2 DUP3 ADD DUP1 SLOAD PUSH2 0x30B SWAP1 PUSH2 0x14FF JUMP JUMPDEST DUP1 PUSH1 0x1F ADD PUSH1 0x20 DUP1 SWAP2 DIV MUL PUSH1 0x20 ADD PUSH1 0x40 MLOAD SWAP1 DUP2 ADD PUSH1 0x40 MSTORE DUP1 SWAP3 SWAP2 SWAP1 DUP2 DUP2 MSTORE PUSH1 0x20 ADD DUP3 DUP1 SLOAD PUSH2 0x337 SWAP1 PUSH2 0x14FF JUMP JUMPDEST DUP1 ISZERO PUSH2 0x384 JUMPI DUP1 PUSH1 0x1F LT PUSH2 0x359 JUMPI PUSH2 0x100 DUP1 DUP4 SLOAD DIV MUL DUP4 MSTORE SWAP2 PUSH1 0x20 ADD SWAP2 PUSH2 0x384 JUMP JUMPDEST DUP3 ADD SWAP2 SWAP1 PUSH1 0x0 MSTORE PUSH1 0x20 PUSH1 0x0 KECCAK256 SWAP1 JUMPDEST DUP2 SLOAD DUP2 MSTORE SWAP1 PUSH1 0x1 ADD SWAP1 PUSH1 0x20 ADD DUP1 DUP4 GT PUSH2 0x367 JUMPI DUP3 SWAP1 SUB PUSH1 0x1F AND DUP3 ADD SWAP2 JUMPDEST POP POP POP POP POP DUP2 MSTORE PUSH1 0x20 ADD PUSH1 0x3 DUP3 ADD SLOAD DUP2 MSTORE POP POP SWAP2 POP POP SWAP2 SWAP1 POP JUMP JUMPDEST PUSH1 0x0 DUP1 DUP5 PUSH1 0x40 MLOAD PUSH1 0x20 ADD PUSH2 0x3B3 SWAP2 SWAP1 PUSH2 0x12BC JUMP JUMPDEST PUSH1 0x40 MLOAD PUSH1 0x20 DUP2 DUP4 SUB SUB DUP2 MSTORE SWAP1 PUSH1 0x40 MSTORE DUP1 MLOAD SWAP1 PUSH1 0x20 ADD KECCAK256 SWAP1 POP PUSH1 0x0 PUSH1 0x1 PUSH1 0x0 DUP4 DUP2 MSTORE PUSH1 0x20 ADD SWAP1 DUP2 MSTORE PUSH1 0x20 ADD PUSH1 0x0 KECCAK256 PUSH1 0x40 MLOAD DUP1 PUSH1 0x40 ADD PUSH1 0x40 MSTORE SWAP1 DUP2 PUSH1 0x0 DUP3 ADD DUP1 SLOAD PUSH2 0x3FB SWAP1 PUSH2 0x14FF JUMP JUMPDEST DUP1 PUSH1 0x1F ADD PUSH1 0x20 DUP1 SWAP2 DIV MUL PUSH1 0x20 ADD PUSH1 0x40 MLOAD SWAP1 DUP2 ADD PUSH1 0x40 MSTORE DUP1 SWAP3 SWAP2 SWAP1 DUP2 DUP2 MSTORE PUSH1 0x20 ADD DUP3 DUP1 SLOAD PUSH2 0x427 SWAP1 PUSH2 0x14FF JUMP JUMPDEST DUP1 ISZERO PUSH2 0x474 JUMPI DUP1 PUSH1 0x1F LT PUSH2 0x449 JUMPI PUSH2 0x100 DUP1 DUP4 SLOAD DIV MUL DUP4 MSTORE SWAP2 PUSH1 0x20 ADD SWAP2 PUSH2 0x474 JUMP JUMPDEST DUP3 ADD SWAP2 SWAP1 PUSH1 0x0 MSTORE PUSH1 0x20 PUSH1 0x0 KECCAK256 SWAP1 JUMPDEST DUP2 SLOAD DUP2 MSTORE SWAP1 PUSH1 0x1 ADD SWAP1 PUSH1 0x20 ADD DUP1 DUP4 GT PUSH2 0x457 JUMPI DUP3 SWAP1 SUB PUSH1 0x1F AND DUP3 ADD SWAP2 JUMPDEST POP POP POP POP POP DUP2 MSTORE PUSH1 0x20 ADD PUSH1 0x1 DUP3 ADD DUP1 SLOAD PUSH2 0x48D SWAP1 PUSH2 0x14FF JUMP JUMPDEST DUP1 PUSH1 0x1F ADD PUSH1 0x20 DUP1 SWAP2 DIV MUL PUSH1 0x20 ADD PUSH1 0x40 MLOAD SWAP1 DUP2 ADD PUSH1 0x40 MSTORE DUP1 SWAP3 SWAP2 SWAP1 DUP2 DUP2 MSTORE PUSH1 0x20 ADD DUP3 DUP1 SLOAD PUSH2 0x4B9 SWAP1 PUSH2 0x14FF JUMP JUMPDEST DUP1 ISZERO PUSH2 0x506 JUMPI DUP1 PUSH1 0x1F LT PUSH2 0x4DB JUMPI PUSH2 0x100 DUP1 DUP4 SLOAD DIV MUL DUP4 MSTORE SWAP2 PUSH1 0x20 ADD SWAP2 PUSH2 0x506 JUMP JUMPDEST DUP3 ADD SWAP2 SWAP1 PUSH1 0x0 MSTORE PUSH1 0x20 PUSH1 0x0 KECCAK256 SWAP1 JUMPDEST DUP2 SLOAD DUP2 MSTORE SWAP1 PUSH1 0x1 ADD SWAP1 PUSH1 0x20 ADD DUP1 DUP4 GT PUSH2 0x4E9 JUMPI DUP3 SWAP1 SUB PUSH1 0x1F AND DUP3 ADD SWAP2 JUMPDEST POP POP POP POP POP DUP2 MSTORE POP POP SWAP1 POP DUP5 DUP2 PUSH1 0x0 ADD DUP2 SWAP1 MSTORE POP DUP4 DUP2 PUSH1 0x20 ADD DUP2 SWAP1 MSTORE POP PUSH32 0xC8922D91FBABBE8DF5D667708C678575856A856A2A465EBD9626A40AB6A16F5F DUP3 PUSH1 0x40 MLOAD PUSH2 0x552 SWAP2 SWAP1 PUSH2 0x1325 JUMP JUMPDEST PUSH1 0x40 MLOAD DUP1 SWAP2 SUB SWAP1 LOG1 DUP2 SWAP3 POP POP POP SWAP4 SWAP3 POP POP POP JUMP JUMPDEST PUSH1 0x0 DUP1 DUP5 PUSH1 0x40 MLOAD PUSH1 0x20 ADD PUSH2 0x57A SWAP2 SWAP1 PUSH2 0x12BC JUMP JUMPDEST PUSH1 0x40 MLOAD PUSH1 0x20 DUP2 DUP4 SUB SUB DUP2 MSTORE SWAP1 PUSH1 0x40 MSTORE DUP1 MLOAD SWAP1 PUSH1 0x20 ADD KECCAK256 SWAP1 POP PUSH2 0x59C DUP2 DUP7 PUSH2 0xB85 JUMP JUMPDEST PUSH2 0x5DB JUMPI PUSH1 0x40 MLOAD PUSH32 0x8C379A000000000000000000000000000000000000000000000000000000000 DUP2 MSTORE PUSH1 0x4 ADD PUSH2 0x5D2 SWAP1 PUSH2 0x1305 JUMP JUMPDEST PUSH1 0x40 MLOAD DUP1 SWAP2 SUB SWAP1 REVERT JUMPDEST PUSH1 0x0 DUP1 PUSH1 0x0 DUP4 DUP2 MSTORE PUSH1 0x20 ADD SWAP1 DUP2 MSTORE PUSH1 0x20 ADD PUSH1 0x0 KECCAK256 SWAP1 POP DUP6 DUP2 PUSH1 0x0 ADD SWAP1 DUP1 MLOAD SWAP1 PUSH1 0x20 ADD SWAP1 PUSH2 0x609 SWAP3 SWAP2 SWAP1 PUSH2 0xC1B JUMP JUMPDEST POP DUP5 DUP2 PUSH1 0x1 ADD SWAP1 DUP1 MLOAD SWAP1 PUSH1 0x20 ADD SWAP1 PUSH2 0x622 SWAP3 SWAP2 SWAP1 PUSH2 0xC1B JUMP JUMPDEST POP DUP4 DUP2 PUSH1 0x2 ADD SWAP1 DUP1 MLOAD SWAP1 PUSH1 0x20 ADD SWAP1 PUSH2 0x63B SWAP3 SWAP2 SWAP1 PUSH2 0xC1B JUMP JUMPDEST POP TIMESTAMP DUP2 PUSH1 0x3 ADD DUP2 SWAP1 SSTORE POP PUSH32 0xC8922D91FBABBE8DF5D667708C678575856A856A2A465EBD9626A40AB6A16F5F DUP3 PUSH1 0x40 MLOAD PUSH2 0x674 SWAP2 SWAP1 PUSH2 0x1325 JUMP JUMPDEST PUSH1 0x40 MLOAD DUP1 SWAP2 SUB SWAP1 LOG1 DUP2 SWAP3 POP POP POP SWAP4 SWAP3 POP POP POP JUMP JUMPDEST PUSH2 0x690 PUSH2 0xCA1 JUMP JUMPDEST PUSH1 0x0 DUP3 PUSH1 0x40 MLOAD PUSH1 0x20 ADD PUSH2 0x6A3 SWAP2 SWAP1 PUSH2 0x12BC JUMP JUMPDEST PUSH1 0x40 MLOAD PUSH1 0x20 DUP2 DUP4 SUB SUB DUP2 MSTORE SWAP1 PUSH1 0x40 MSTORE DUP1 MLOAD SWAP1 PUSH1 0x20 ADD KECCAK256 SWAP1 POP PUSH1 0x2 PUSH1 0x0 DUP3 DUP2 MSTORE PUSH1 0x20 ADD SWAP1 DUP2 MSTORE PUSH1 0x20 ADD PUSH1 0x0 KECCAK256 PUSH1 0x40 MLOAD DUP1 PUSH1 0x80 ADD PUSH1 0x40 MSTORE SWAP1 DUP2 PUSH1 0x0 DUP3 ADD DUP1 SLOAD PUSH2 0x6E9 SWAP1 PUSH2 0x14FF JUMP JUMPDEST DUP1 PUSH1 0x1F ADD PUSH1 0x20 DUP1 SWAP2 DIV MUL PUSH1 0x20 ADD PUSH1 0x40 MLOAD SWAP1 DUP2 ADD PUSH1 0x40 MSTORE DUP1 SWAP3 SWAP2 SWAP1 DUP2 DUP2 MSTORE PUSH1 0x20 ADD DUP3 DUP1 SLOAD PUSH2 0x715 SWAP1 PUSH2 0x14FF JUMP JUMPDEST DUP1 ISZERO PUSH2 0x762 JUMPI DUP1 PUSH1 0x1F LT PUSH2 0x737 JUMPI PUSH2 0x100 DUP1 DUP4 SLOAD DIV MUL DUP4 MSTORE SWAP2 PUSH1 0x20 ADD SWAP2 PUSH2 0x762 JUMP JUMPDEST DUP3 ADD SWAP2 SWAP1 PUSH1 0x0 MSTORE PUSH1 0x20 PUSH1 0x0 KECCAK256 SWAP1 JUMPDEST DUP2 SLOAD DUP2 MSTORE SWAP1 PUSH1 0x1 ADD SWAP1 PUSH1 0x20 ADD DUP1 DUP4 GT PUSH2 0x745 JUMPI DUP3 SWAP1 SUB PUSH1 0x1F AND DUP3 ADD SWAP2 JUMPDEST POP POP POP POP POP DUP2 MSTORE PUSH1 0x20 ADD PUSH1 0x1 DUP3 ADD DUP1 SLOAD PUSH2 0x77B SWAP1 PUSH2 0x14FF JUMP JUMPDEST DUP1 PUSH1 0x1F ADD PUSH1 0x20 DUP1 SWAP2 DIV MUL PUSH1 0x20 ADD PUSH1 0x40 MLOAD SWAP1 DUP2 ADD PUSH1 0x40 MSTORE DUP1 SWAP3 SWAP2 SWAP1 DUP2 DUP2 MSTORE PUSH1 0x20 ADD DUP3 DUP1 SLOAD PUSH2 0x7A7 SWAP1 PUSH2 0x14FF JUMP JUMPDEST DUP1 ISZERO PUSH2 0x7F4 JUMPI DUP1 PUSH1 0x1F LT PUSH2 0x7C9 JUMPI PUSH2 0x100 DUP1 DUP4 SLOAD DIV MUL DUP4 MSTORE SWAP2 PUSH1 0x20 ADD SWAP2 PUSH2 0x7F4 JUMP JUMPDEST DUP3 ADD SWAP2 SWAP1 PUSH1 0x0 MSTORE PUSH1 0x20 PUSH1 0x0 KECCAK256 SWAP1 JUMPDEST DUP2 SLOAD DUP2 MSTORE SWAP1 PUSH1 0x1 ADD SWAP1 PUSH1 0x20 ADD DUP1 DUP4 GT PUSH2 0x7D7 JUMPI DUP3 SWAP1 SUB PUSH1 0x1F AND DUP3 ADD SWAP2 JUMPDEST POP POP POP POP POP DUP2 MSTORE PUSH1 0x20 ADD PUSH1 0x2 DUP3 ADD SLOAD DUP2 MSTORE PUSH1 0x20 ADD PUSH1 0x3 DUP3 ADD SLOAD DUP2 MSTORE POP POP SWAP2 POP POP SWAP2 SWAP1 POP JUMP JUMPDEST PUSH1 0x0 DUP1 DUP5 PUSH1 0x40 MLOAD PUSH1 0x20 ADD PUSH2 0x82D SWAP2 SWAP1 PUSH2 0x12BC JUMP JUMPDEST PUSH1 0x40 MLOAD PUSH1 0x20 DUP2 DUP4 SUB SUB DUP2 MSTORE SWAP1 PUSH1 0x40 MSTORE DUP1 MLOAD SWAP1 PUSH1 0x20 ADD KECCAK256 SWAP1 POP PUSH1 0x0 PUSH1 0x2 PUSH1 0x0 DUP4 DUP2 MSTORE PUSH1 0x20 ADD SWAP1 DUP2 MSTORE PUSH1 0x20 ADD PUSH1 0x0 KECCAK256 PUSH1 0x40 MLOAD DUP1 PUSH1 0x80 ADD PUSH1 0x40 MSTORE SWAP1 DUP2 PUSH1 0x0 DUP3 ADD DUP1 SLOAD PUSH2 0x875 SWAP1 PUSH2 0x14FF JUMP JUMPDEST DUP1 PUSH1 0x1F ADD PUSH1 0x20 DUP1 SWAP2 DIV MUL PUSH1 0x20 ADD PUSH1 0x40 MLOAD SWAP1 DUP2 ADD PUSH1 0x40 MSTORE DUP1 SWAP3 SWAP2 SWAP1 DUP2 DUP2 MSTORE PUSH1 0x20 ADD DUP3 DUP1 SLOAD PUSH2 0x8A1 SWAP1 PUSH2 0x14FF JUMP JUMPDEST DUP1 ISZERO PUSH2 0x8EE JUMPI DUP1 PUSH1 0x1F LT PUSH2 0x8C3 JUMPI PUSH2 0x100 DUP1 DUP4 SLOAD DIV MUL DUP4 MSTORE SWAP2 PUSH1 0x20 ADD SWAP2 PUSH2 0x8EE JUMP JUMPDEST DUP3 ADD SWAP2 SWAP1 PUSH1 0x0 MSTORE PUSH1 0x20 PUSH1 0x0 KECCAK256 SWAP1 JUMPDEST DUP2 SLOAD DUP2 MSTORE SWAP1 PUSH1 0x1 ADD SWAP1 PUSH1 0x20 ADD DUP1 DUP4 GT PUSH2 0x8D1 JUMPI DUP3 SWAP1 SUB PUSH1 0x1F AND DUP3 ADD SWAP2 JUMPDEST POP POP POP POP POP DUP2 MSTORE PUSH1 0x20 ADD PUSH1 0x1 DUP3 ADD DUP1 SLOAD PUSH2 0x907 SWAP1 PUSH2 0x14FF JUMP JUMPDEST DUP1 PUSH1 0x1F ADD PUSH1 0x20 DUP1 SWAP2 DIV MUL PUSH1 0x20 ADD PUSH1 0x40 MLOAD SWAP1 DUP2 ADD PUSH1 0x40 MSTORE DUP1 SWAP3 SWAP2 SWAP1 DUP2 DUP2 MSTORE PUSH1 0x20 ADD DUP3 DUP1 SLOAD PUSH2 0x933 SWAP1 PUSH2 0x14FF JUMP JUMPDEST DUP1 ISZERO PUSH2 0x980 JUMPI DUP1 PUSH1 0x1F LT PUSH2 0x955 JUMPI PUSH2 0x100 DUP1 DUP4 SLOAD DIV MUL DUP4 MSTORE SWAP2 PUSH1 0x20 ADD SWAP2 PUSH2 0x980 JUMP JUMPDEST DUP3 ADD SWAP2 SWAP1 PUSH1 0x0 MSTORE PUSH1 0x20 PUSH1 0x0 KECCAK256 SWAP1 JUMPDEST DUP2 SLOAD DUP2 MSTORE SWAP1 PUSH1 0x1 ADD SWAP1 PUSH1 0x20 ADD DUP1 DUP4 GT PUSH2 0x963 JUMPI DUP3 SWAP1 SUB PUSH1 0x1F AND DUP3 ADD SWAP2 JUMPDEST POP POP POP POP POP DUP2 MSTORE PUSH1 0x20 ADD PUSH1 0x2 DUP3 ADD SLOAD DUP2 MSTORE PUSH1 0x20 ADD PUSH1 0x3 DUP3 ADD SLOAD DUP2 MSTORE POP POP SWAP1 POP DUP6 DUP2 PUSH1 0x0 ADD DUP2 SWAP1 MSTORE POP DUP5 DUP2 PUSH1 0x20 ADD DUP2 SWAP1 MSTORE POP TIMESTAMP DUP2 PUSH1 0x40 ADD DUP2 DUP2 MSTORE POP POP DUP4 DUP2 PUSH1 0x60 ADD DUP2 DUP2 MSTORE POP POP PUSH32 0xC8922D91FBABBE8DF5D667708C678575856A856A2A465EBD9626A40AB6A16F5F DUP3 PUSH1 0x40 MLOAD PUSH2 0x9F4 SWAP2 SWAP1 PUSH2 0x1325 JUMP JUMPDEST PUSH1 0x40 MLOAD DUP1 SWAP2 SUB SWAP1 LOG1 DUP2 SWAP3 POP POP POP SWAP4 SWAP3 POP POP POP JUMP JUMPDEST PUSH2 0xA10 PUSH2 0xCC9 JUMP JUMPDEST PUSH1 0x0 DUP3 PUSH1 0x40 MLOAD PUSH1 0x20 ADD PUSH2 0xA23 SWAP2 SWAP1 PUSH2 0x12BC JUMP JUMPDEST PUSH1 0x40 MLOAD PUSH1 0x20 DUP2 DUP4 SUB SUB DUP2 MSTORE SWAP1 PUSH1 0x40 MSTORE DUP1 MLOAD SWAP1 PUSH1 0x20 ADD KECCAK256 SWAP1 POP PUSH1 0x1 PUSH1 0x0 DUP3 DUP2 MSTORE PUSH1 0x20 ADD SWAP1 DUP2 MSTORE PUSH1 0x20 ADD PUSH1 0x0 KECCAK256 PUSH1 0x40 MLOAD DUP1 PUSH1 0x40 ADD PUSH1 0x40 MSTORE SWAP1 DUP2 PUSH1 0x0 DUP3 ADD DUP1 SLOAD PUSH2 0xA69 SWAP1 PUSH2 0x14FF JUMP JUMPDEST DUP1 PUSH1 0x1F ADD PUSH1 0x20 DUP1 SWAP2 DIV MUL PUSH1 0x20 ADD PUSH1 0x40 MLOAD SWAP1 DUP2 ADD PUSH1 0x40 MSTORE DUP1 SWAP3 SWAP2 SWAP1 DUP2 DUP2 MSTORE PUSH1 0x20 ADD DUP3 DUP1 SLOAD PUSH2 0xA95 SWAP1 PUSH2 0x14FF JUMP JUMPDEST DUP1 ISZERO PUSH2 0xAE2 JUMPI DUP1 PUSH1 0x1F LT PUSH2 0xAB7 JUMPI PUSH2 0x100 DUP1 DUP4 SLOAD DIV MUL DUP4 MSTORE SWAP2 PUSH1 0x20 ADD SWAP2 PUSH2 0xAE2 JUMP JUMPDEST DUP3 ADD SWAP2 SWAP1 PUSH1 0x0 MSTORE PUSH1 0x20 PUSH1 0x0 KECCAK256 SWAP1 JUMPDEST DUP2 SLOAD DUP2 MSTORE SWAP1 PUSH1 0x1 ADD SWAP1 PUSH1 0x20 ADD DUP1 DUP4 GT PUSH2 0xAC5 JUMPI DUP3 SWAP1 SUB PUSH1 0x1F AND DUP3 ADD SWAP2 JUMPDEST POP POP POP POP POP DUP2 MSTORE PUSH1 0x20 ADD PUSH1 0x1 DUP3 ADD DUP1 SLOAD PUSH2 0xAFB SWAP1 PUSH2 0x14FF JUMP JUMPDEST DUP1 PUSH1 0x1F ADD PUSH1 0x20 DUP1 SWAP2 DIV MUL PUSH1 0x20 ADD PUSH1 0x40 MLOAD SWAP1 DUP2 ADD PUSH1 0x40 MSTORE DUP1 SWAP3 SWAP2 SWAP1 DUP2 DUP2 MSTORE PUSH1 0x20 ADD DUP3 DUP1 SLOAD PUSH2 0xB27 SWAP1 PUSH2 0x14FF JUMP JUMPDEST DUP1 ISZERO PUSH2 0xB74 JUMPI DUP1 PUSH1 0x1F LT PUSH2 0xB49 JUMPI PUSH2 0x100 DUP1 DUP4 SLOAD DIV MUL DUP4 MSTORE SWAP2 PUSH1 0x20 ADD SWAP2 PUSH2 0xB74 JUMP JUMPDEST DUP3 ADD SWAP2 SWAP1 PUSH1 0x0 MSTORE PUSH1 0x20 PUSH1 0x0 KECCAK256 SWAP1 JUMPDEST DUP2 SLOAD DUP2 MSTORE SWAP1 PUSH1 0x1 ADD SWAP1 PUSH1 0x20 ADD DUP1 DUP4 GT PUSH2 0xB57 JUMPI DUP3 SWAP1 SUB PUSH1 0x1F AND DUP3 ADD SWAP2 JUMPDEST POP POP POP POP POP DUP2 MSTORE POP POP SWAP2 POP POP SWAP2 SWAP1 POP JUMP JUMPDEST PUSH1 0x0 DUP2 PUSH1 0x40 MLOAD PUSH1 0x20 ADD PUSH2 0xB98 SWAP2 SWAP1 PUSH2 0x12BC JUMP JUMPDEST PUSH1 0x40 MLOAD PUSH1 0x20 DUP2 DUP4 SUB SUB DUP2 MSTORE SWAP1 PUSH1 0x40 MSTORE DUP1 MLOAD SWAP1 PUSH1 0x20 ADD KECCAK256 PUSH1 0x0 DUP1 DUP6 DUP2 MSTORE PUSH1 0x20 ADD SWAP1 DUP2 MSTORE PUSH1 0x20 ADD PUSH1 0x0 KECCAK256 PUSH1 0x0 ADD PUSH1 0x40 MLOAD PUSH1 0x20 ADD PUSH2 0xBD3 SWAP2 SWAP1 PUSH2 0x12D3 JUMP JUMPDEST PUSH1 0x40 MLOAD PUSH1 0x20 DUP2 DUP4 SUB SUB DUP2 MSTORE SWAP1 PUSH1 0x40 MSTORE DUP1 MLOAD SWAP1 PUSH1 0x20 ADD KECCAK256 EQ ISZERO SWAP1 POP SWAP3 SWAP2 POP POP JUMP JUMPDEST PUSH1 0x40 MLOAD DUP1 PUSH1 0x80 ADD PUSH1 0x40 MSTORE DUP1 PUSH1 0x60 DUP2 MSTORE PUSH1 0x20 ADD PUSH1 0x60 DUP2 MSTORE PUSH1 0x20 ADD PUSH1 0x60 DUP2 MSTORE PUSH1 0x20 ADD PUSH1 0x0 DUP2 MSTORE POP SWAP1 JUMP JUMPDEST DUP3 DUP1 SLOAD PUSH2 0xC27 SWAP1 PUSH2 0x14FF JUMP JUMPDEST SWAP1 PUSH1 0x0 MSTORE PUSH1 0x20 PUSH1 0x0 KECCAK256 SWAP1 PUSH1 0x1F ADD PUSH1 0x20 SWAP1 DIV DUP2 ADD SWAP3 DUP3 PUSH2 0xC49 JUMPI PUSH1 0x0 DUP6 SSTORE PUSH2 0xC90 JUMP JUMPDEST DUP3 PUSH1 0x1F LT PUSH2 0xC62 JUMPI DUP1 MLOAD PUSH1 0xFF NOT AND DUP4 DUP1 ADD OR DUP6 SSTORE PUSH2 0xC90 JUMP JUMPDEST DUP3 DUP1 ADD PUSH1 0x1 ADD DUP6 SSTORE DUP3 ISZERO PUSH2 0xC90 JUMPI SWAP2 DUP3 ADD JUMPDEST DUP3 DUP2 GT ISZERO PUSH2 0xC8F JUMPI DUP3 MLOAD DUP3 SSTORE SWAP2 PUSH1 0x20 ADD SWAP2 SWAP1 PUSH1 0x1 ADD SWAP1 PUSH2 0xC74 JUMP JUMPDEST JUMPDEST POP SWAP1 POP PUSH2 0xC9D SWAP2 SWAP1 PUSH2 0xCE3 JUMP JUMPDEST POP SWAP1 JUMP JUMPDEST PUSH1 0x40 MLOAD DUP1 PUSH1 0x80 ADD PUSH1 0x40 MSTORE DUP1 PUSH1 0x60 DUP2 MSTORE PUSH1 0x20 ADD PUSH1 0x60 DUP2 MSTORE PUSH1 0x20 ADD PUSH1 0x0 DUP2 MSTORE PUSH1 0x20 ADD PUSH1 0x0 DUP2 MSTORE POP SWAP1 JUMP JUMPDEST PUSH1 0x40 MLOAD DUP1 PUSH1 0x40 ADD PUSH1 0x40 MSTORE DUP1 PUSH1 0x60 DUP2 MSTORE PUSH1 0x20 ADD PUSH1 0x60 DUP2 MSTORE POP SWAP1 JUMP JUMPDEST JUMPDEST DUP1 DUP3 GT ISZERO PUSH2 0xCFC JUMPI PUSH1 0x0 DUP2 PUSH1 0x0 SWAP1 SSTORE POP PUSH1 0x1 ADD PUSH2 0xCE4 JUMP JUMPDEST POP SWAP1 JUMP JUMPDEST PUSH1 0x0 PUSH2 0xD13 PUSH2 0xD0E DUP5 PUSH2 0x13DE JUMP JUMPDEST PUSH2 0x13B9 JUMP JUMPDEST SWAP1 POP DUP3 DUP2 MSTORE PUSH1 0x20 DUP2 ADD DUP5 DUP5 DUP5 ADD GT ISZERO PUSH2 0xD2F JUMPI PUSH2 0xD2E PUSH2 0x15C5 JUMP JUMPDEST JUMPDEST PUSH2 0xD3A DUP5 DUP3 DUP6 PUSH2 0x14BD JUMP JUMPDEST POP SWAP4 SWAP3 POP POP POP JUMP JUMPDEST PUSH1 0x0 PUSH2 0xD55 PUSH2 0xD50 DUP5 PUSH2 0x140F JUMP JUMPDEST PUSH2 0x13B9 JUMP JUMPDEST SWAP1 POP DUP3 DUP2 MSTORE PUSH1 0x20 DUP2 ADD DUP5 DUP5 DUP5 ADD GT ISZERO PUSH2 0xD71 JUMPI PUSH2 0xD70 PUSH2 0x15C5 JUMP JUMPDEST JUMPDEST PUSH2 0xD7C DUP5 DUP3 DUP6 PUSH2 0x14BD JUMP JUMPDEST POP SWAP4 SWAP3 POP POP POP JUMP JUMPDEST PUSH1 0x0 DUP3 PUSH1 0x1F DUP4 ADD SLT PUSH2 0xD99 JUMPI PUSH2 0xD98 PUSH2 0x15C0 JUMP JUMPDEST JUMPDEST DUP2 CALLDATALOAD PUSH2 0xDA9 DUP5 DUP3 PUSH1 0x20 DUP7 ADD PUSH2 0xD00 JUMP JUMPDEST SWAP2 POP POP SWAP3 SWAP2 POP POP JUMP JUMPDEST PUSH1 0x0 DUP3 PUSH1 0x1F DUP4 ADD SLT PUSH2 0xDC7 JUMPI PUSH2 0xDC6 PUSH2 0x15C0 JUMP JUMPDEST JUMPDEST DUP2 CALLDATALOAD PUSH2 0xDD7 DUP5 DUP3 PUSH1 0x20 DUP7 ADD PUSH2 0xD42 JUMP JUMPDEST SWAP2 POP POP SWAP3 SWAP2 POP POP JUMP JUMPDEST PUSH1 0x0 DUP2 CALLDATALOAD SWAP1 POP PUSH2 0xDEF DUP2 PUSH2 0x1637 JUMP JUMPDEST SWAP3 SWAP2 POP POP JUMP JUMPDEST PUSH1 0x0 PUSH1 0x20 DUP3 DUP5 SUB SLT ISZERO PUSH2 0xE0B JUMPI PUSH2 0xE0A PUSH2 0x15CF JUMP JUMPDEST JUMPDEST PUSH1 0x0 DUP3 ADD CALLDATALOAD PUSH8 0xFFFFFFFFFFFFFFFF DUP2 GT ISZERO PUSH2 0xE29 JUMPI PUSH2 0xE28 PUSH2 0x15CA JUMP JUMPDEST JUMPDEST PUSH2 0xE35 DUP5 DUP3 DUP6 ADD PUSH2 0xDB2 JUMP JUMPDEST SWAP2 POP POP SWAP3 SWAP2 POP POP JUMP JUMPDEST PUSH1 0x0 DUP1 PUSH1 0x0 PUSH1 0x60 DUP5 DUP7 SUB SLT ISZERO PUSH2 0xE57 JUMPI PUSH2 0xE56 PUSH2 0x15CF JUMP JUMPDEST JUMPDEST PUSH1 0x0 DUP5 ADD CALLDATALOAD PUSH8 0xFFFFFFFFFFFFFFFF DUP2 GT ISZERO PUSH2 0xE75 JUMPI PUSH2 0xE74 PUSH2 0x15CA JUMP JUMPDEST JUMPDEST PUSH2 0xE81 DUP7 DUP3 DUP8 ADD PUSH2 0xDB2 JUMP JUMPDEST SWAP4 POP POP PUSH1 0x20 DUP5 ADD CALLDATALOAD PUSH8 0xFFFFFFFFFFFFFFFF DUP2 GT ISZERO PUSH2 0xEA2 JUMPI PUSH2 0xEA1 PUSH2 0x15CA JUMP JUMPDEST JUMPDEST PUSH2 0xEAE DUP7 DUP3 DUP8 ADD PUSH2 0xDB2 JUMP JUMPDEST SWAP3 POP POP PUSH1 0x40 DUP5 ADD CALLDATALOAD PUSH8 0xFFFFFFFFFFFFFFFF DUP2 GT ISZERO PUSH2 0xECF JUMPI PUSH2 0xECE PUSH2 0x15CA JUMP JUMPDEST JUMPDEST PUSH2 0xEDB DUP7 DUP3 DUP8 ADD PUSH2 0xD84 JUMP JUMPDEST SWAP2 POP POP SWAP3 POP SWAP3 POP SWAP3 JUMP JUMPDEST PUSH1 0x0 DUP1 PUSH1 0x0 PUSH1 0x60 DUP5 DUP7 SUB SLT ISZERO PUSH2 0xEFE JUMPI PUSH2 0xEFD PUSH2 0x15CF JUMP JUMPDEST JUMPDEST PUSH1 0x0 DUP5 ADD CALLDATALOAD PUSH8 0xFFFFFFFFFFFFFFFF DUP2 GT ISZERO PUSH2 0xF1C JUMPI PUSH2 0xF1B PUSH2 0x15CA JUMP JUMPDEST JUMPDEST PUSH2 0xF28 DUP7 DUP3 DUP8 ADD PUSH2 0xDB2 JUMP JUMPDEST SWAP4 POP POP PUSH1 0x20 DUP5 ADD CALLDATALOAD PUSH8 0xFFFFFFFFFFFFFFFF DUP2 GT ISZERO PUSH2 0xF49 JUMPI PUSH2 0xF48 PUSH2 0x15CA JUMP JUMPDEST JUMPDEST PUSH2 0xF55 DUP7 DUP3 DUP8 ADD PUSH2 0xDB2 JUMP JUMPDEST SWAP3 POP POP PUSH1 0x40 DUP5 ADD CALLDATALOAD PUSH8 0xFFFFFFFFFFFFFFFF DUP2 GT ISZERO PUSH2 0xF76 JUMPI PUSH2 0xF75 PUSH2 0x15CA JUMP JUMPDEST JUMPDEST PUSH2 0xF82 DUP7 DUP3 DUP8 ADD PUSH2 0xDB2 JUMP JUMPDEST SWAP2 POP POP SWAP3 POP SWAP3 POP SWAP3 JUMP JUMPDEST PUSH1 0x0 DUP1 PUSH1 0x0 PUSH1 0x60 DUP5 DUP7 SUB SLT ISZERO PUSH2 0xFA5 JUMPI PUSH2 0xFA4 PUSH2 0x15CF JUMP JUMPDEST JUMPDEST PUSH1 0x0 DUP5 ADD CALLDATALOAD PUSH8 0xFFFFFFFFFFFFFFFF DUP2 GT ISZERO PUSH2 0xFC3 JUMPI PUSH2 0xFC2 PUSH2 0x15CA JUMP JUMPDEST JUMPDEST PUSH2 0xFCF DUP7 DUP3 DUP8 ADD PUSH2 0xDB2 JUMP JUMPDEST SWAP4 POP POP PUSH1 0x20 DUP5 ADD CALLDATALOAD PUSH8 0xFFFFFFFFFFFFFFFF DUP2 GT ISZERO PUSH2 0xFF0 JUMPI PUSH2 0xFEF PUSH2 0x15CA JUMP JUMPDEST JUMPDEST PUSH2 0xFFC DUP7 DUP3 DUP8 ADD PUSH2 0xDB2 JUMP JUMPDEST SWAP3 POP POP PUSH1 0x40 PUSH2 0x100D DUP7 DUP3 DUP8 ADD PUSH2 0xDE0 JUMP JUMPDEST SWAP2 POP POP SWAP3 POP SWAP3 POP SWAP3 JUMP JUMPDEST PUSH2 0x1020 DUP2 PUSH2 0x14A9 JUMP JUMPDEST DUP3 MSTORE POP POP JUMP JUMPDEST PUSH1 0x0 PUSH2 0x1031 DUP3 PUSH2 0x1455 JUMP JUMPDEST PUSH2 0x103B DUP2 DUP6 PUSH2 0x146B JUMP JUMPDEST SWAP4 POP PUSH2 0x104B DUP2 DUP6 PUSH1 0x20 DUP7 ADD PUSH2 0x14CC JUMP JUMPDEST PUSH2 0x1054 DUP2 PUSH2 0x15D4 JUMP JUMPDEST DUP5 ADD SWAP2 POP POP SWAP3 SWAP2 POP POP JUMP JUMPDEST PUSH1 0x0 PUSH2 0x106A DUP3 PUSH2 0x1460 JUMP JUMPDEST PUSH2 0x1074 DUP2 DUP6 PUSH2 0x147C JUMP JUMPDEST SWAP4 POP PUSH2 0x1084 DUP2 DUP6 PUSH1 0x20 DUP7 ADD PUSH2 0x14CC JUMP JUMPDEST PUSH2 0x108D DUP2 PUSH2 0x15D4 JUMP JUMPDEST DUP5 ADD SWAP2 POP POP SWAP3 SWAP2 POP POP JUMP JUMPDEST PUSH1 0x0 PUSH2 0x10A3 DUP3 PUSH2 0x1460 JUMP JUMPDEST PUSH2 0x10AD DUP2 DUP6 PUSH2 0x149E JUMP JUMPDEST SWAP4 POP PUSH2 0x10BD DUP2 DUP6 PUSH1 0x20 DUP7 ADD PUSH2 0x14CC JUMP JUMPDEST DUP1 DUP5 ADD SWAP2 POP POP SWAP3 SWAP2 POP POP JUMP JUMPDEST PUSH1 0x0 DUP2 SLOAD PUSH2 0x10D6 DUP2 PUSH2 0x14FF JUMP JUMPDEST PUSH2 0x10E0 DUP2 DUP7 PUSH2 0x149E JUMP JUMPDEST SWAP5 POP PUSH1 0x1 DUP3 AND PUSH1 0x0 DUP2 EQ PUSH2 0x10FB JUMPI PUSH1 0x1 DUP2 EQ PUSH2 0x110C JUMPI PUSH2 0x113F JUMP JUMPDEST PUSH1 0xFF NOT DUP4 AND DUP7 MSTORE DUP2 DUP7 ADD SWAP4 POP PUSH2 0x113F JUMP JUMPDEST PUSH2 0x1115 DUP6 PUSH2 0x1440 JUMP JUMPDEST PUSH1 0x0 JUMPDEST DUP4 DUP2 LT ISZERO PUSH2 0x1137 JUMPI DUP2 SLOAD DUP2 DUP10 ADD MSTORE PUSH1 0x1 DUP3 ADD SWAP2 POP PUSH1 0x20 DUP2 ADD SWAP1 POP PUSH2 0x1118 JUMP JUMPDEST DUP4 DUP9 ADD SWAP6 POP POP POP JUMPDEST POP POP POP SWAP3 SWAP2 POP POP JUMP JUMPDEST PUSH1 0x0 PUSH2 0x1155 PUSH1 0x18 DUP4 PUSH2 0x148D JUMP JUMPDEST SWAP2 POP PUSH2 0x1160 DUP3 PUSH2 0x15E5 JUMP JUMPDEST PUSH1 0x20 DUP3 ADD SWAP1 POP SWAP2 SWAP1 POP JUMP JUMPDEST PUSH1 0x0 PUSH2 0x1178 PUSH1 0x7 DUP4 PUSH2 0x148D JUMP JUMPDEST SWAP2 POP PUSH2 0x1183 DUP3 PUSH2 0x160E JUMP JUMPDEST PUSH1 0x20 DUP3 ADD SWAP1 POP SWAP2 SWAP1 POP JUMP JUMPDEST PUSH1 0x0 PUSH1 0x80 DUP4 ADD PUSH1 0x0 DUP4 ADD MLOAD DUP5 DUP3 SUB PUSH1 0x0 DUP7 ADD MSTORE PUSH2 0x11AB DUP3 DUP3 PUSH2 0x105F JUMP JUMPDEST SWAP2 POP POP PUSH1 0x20 DUP4 ADD MLOAD DUP5 DUP3 SUB PUSH1 0x20 DUP7 ADD MSTORE PUSH2 0x11C5 DUP3 DUP3 PUSH2 0x105F JUMP JUMPDEST SWAP2 POP POP PUSH1 0x40 DUP4 ADD MLOAD DUP5 DUP3 SUB PUSH1 0x40 DUP7 ADD MSTORE PUSH2 0x11DF DUP3 DUP3 PUSH2 0x105F JUMP JUMPDEST SWAP2 POP POP PUSH1 0x60 DUP4 ADD MLOAD PUSH2 0x11F4 PUSH1 0x60 DUP7 ADD DUP3 PUSH2 0x12AD JUMP JUMPDEST POP DUP1 SWAP2 POP POP SWAP3 SWAP2 POP POP JUMP JUMPDEST PUSH1 0x0 PUSH1 0x80 DUP4 ADD PUSH1 0x0 DUP4 ADD MLOAD DUP5 DUP3 SUB PUSH1 0x0 DUP7 ADD MSTORE PUSH2 0x121C DUP3 DUP3 PUSH2 0x105F JUMP JUMPDEST SWAP2 POP POP PUSH1 0x20 DUP4 ADD MLOAD DUP5 DUP3 SUB PUSH1 0x20 DUP7 ADD MSTORE PUSH2 0x1236 DUP3 DUP3 PUSH2 0x105F JUMP JUMPDEST SWAP2 POP POP PUSH1 0x40 DUP4 ADD MLOAD PUSH2 0x124B PUSH1 0x40 DUP7 ADD DUP3 PUSH2 0x12AD JUMP JUMPDEST POP PUSH1 0x60 DUP4 ADD MLOAD PUSH2 0x125E PUSH1 0x60 DUP7 ADD DUP3 PUSH2 0x12AD JUMP JUMPDEST POP DUP1 SWAP2 POP POP SWAP3 SWAP2 POP POP JUMP JUMPDEST PUSH1 0x0 PUSH1 0x40 DUP4 ADD PUSH1 0x0 DUP4 ADD MLOAD DUP5 DUP3 SUB PUSH1 0x0 DUP7 ADD MSTORE PUSH2 0x1286 DUP3 DUP3 PUSH2 0x105F JUMP JUMPDEST SWAP2 POP POP PUSH1 0x20 DUP4 ADD MLOAD DUP5 DUP3 SUB PUSH1 0x20 DUP7 ADD MSTORE PUSH2 0x12A0 DUP3 DUP3 PUSH2 0x1026 JUMP JUMPDEST SWAP2 POP POP DUP1 SWAP2 POP POP SWAP3 SWAP2 POP POP JUMP JUMPDEST PUSH2 0x12B6 DUP2 PUSH2 0x14B3 JUMP JUMPDEST DUP3 MSTORE POP POP JUMP JUMPDEST PUSH1 0x0 PUSH2 0x12C8 DUP3 DUP5 PUSH2 0x1098 JUMP JUMPDEST SWAP2 POP DUP2 SWAP1 POP SWAP3 SWAP2 POP POP JUMP JUMPDEST PUSH1 0x0 PUSH2 0x12DF DUP3 DUP5 PUSH2 0x10C9 JUMP JUMPDEST SWAP2 POP DUP2 SWAP1 POP SWAP3 SWAP2 POP POP JUMP JUMPDEST PUSH1 0x0 PUSH1 0x20 DUP3 ADD SWAP1 POP PUSH2 0x12FF PUSH1 0x0 DUP4 ADD DUP5 PUSH2 0x1017 JUMP JUMPDEST SWAP3 SWAP2 POP POP JUMP JUMPDEST PUSH1 0x0 PUSH1 0x20 DUP3 ADD SWAP1 POP DUP2 DUP2 SUB PUSH1 0x0 DUP4 ADD MSTORE PUSH2 0x131E DUP2 PUSH2 0x1148 JUMP JUMPDEST SWAP1 POP SWAP2 SWAP1 POP JUMP JUMPDEST PUSH1 0x0 PUSH1 0x40 DUP3 ADD SWAP1 POP DUP2 DUP2 SUB PUSH1 0x0 DUP4 ADD MSTORE PUSH2 0x133E DUP2 PUSH2 0x116B JUMP JUMPDEST SWAP1 POP PUSH2 0x134D PUSH1 0x20 DUP4 ADD DUP5 PUSH2 0x1017 JUMP JUMPDEST SWAP3 SWAP2 POP POP JUMP JUMPDEST PUSH1 0x0 PUSH1 0x20 DUP3 ADD SWAP1 POP DUP2 DUP2 SUB PUSH1 0x0 DUP4 ADD MSTORE PUSH2 0x136D DUP2 DUP5 PUSH2 0x118E JUMP JUMPDEST SWAP1 POP SWAP3 SWAP2 POP POP JUMP JUMPDEST PUSH1 0x0 PUSH1 0x20 DUP3 ADD SWAP1 POP DUP2 DUP2 SUB PUSH1 0x0 DUP4 ADD MSTORE PUSH2 0x138F DUP2 DUP5 PUSH2 0x11FF JUMP JUMPDEST SWAP1 POP SWAP3 SWAP2 POP POP JUMP JUMPDEST PUSH1 0x0 PUSH1 0x20 DUP3 ADD SWAP1 POP DUP2 DUP2 SUB PUSH1 0x0 DUP4 ADD MSTORE PUSH2 0x13B1 DUP2 DUP5 PUSH2 0x1269 JUMP JUMPDEST SWAP1 POP SWAP3 SWAP2 POP POP JUMP JUMPDEST PUSH1 0x0 PUSH2 0x13C3 PUSH2 0x13D4 JUMP JUMPDEST SWAP1 POP PUSH2 0x13CF DUP3 DUP3 PUSH2 0x1531 JUMP JUMPDEST SWAP2 SWAP1 POP JUMP JUMPDEST PUSH1 0x0 PUSH1 0x40 MLOAD SWAP1 POP SWAP1 JUMP JUMPDEST PUSH1 0x0 PUSH8 0xFFFFFFFFFFFFFFFF DUP3 GT ISZERO PUSH2 0x13F9 JUMPI PUSH2 0x13F8 PUSH2 0x1591 JUMP JUMPDEST JUMPDEST PUSH2 0x1402 DUP3 PUSH2 0x15D4 JUMP JUMPDEST SWAP1 POP PUSH1 0x20 DUP2 ADD SWAP1 POP SWAP2 SWAP1 POP JUMP JUMPDEST PUSH1 0x0 PUSH8 0xFFFFFFFFFFFFFFFF DUP3 GT ISZERO PUSH2 0x142A JUMPI PUSH2 0x1429 PUSH2 0x1591 JUMP JUMPDEST JUMPDEST PUSH2 0x1433 DUP3 PUSH2 0x15D4 JUMP JUMPDEST SWAP1 POP PUSH1 0x20 DUP2 ADD SWAP1 POP SWAP2 SWAP1 POP JUMP JUMPDEST PUSH1 0x0 DUP2 SWAP1 POP DUP2 PUSH1 0x0 MSTORE PUSH1 0x20 PUSH1 0x0 KECCAK256 SWAP1 POP SWAP2 SWAP1 POP JUMP JUMPDEST PUSH1 0x0 DUP2 MLOAD SWAP1 POP SWAP2 SWAP1 POP JUMP JUMPDEST PUSH1 0x0 DUP2 MLOAD SWAP1 POP SWAP2 SWAP1 POP JUMP JUMPDEST PUSH1 0x0 DUP3 DUP3 MSTORE PUSH1 0x20 DUP3 ADD SWAP1 POP SWAP3 SWAP2 POP POP JUMP JUMPDEST PUSH1 0x0 DUP3 DUP3 MSTORE PUSH1 0x20 DUP3 ADD SWAP1 POP SWAP3 SWAP2 POP POP JUMP JUMPDEST PUSH1 0x0 DUP3 DUP3 MSTORE PUSH1 0x20 DUP3 ADD SWAP1 POP SWAP3 SWAP2 POP POP JUMP JUMPDEST PUSH1 0x0 DUP2 SWAP1 POP SWAP3 SWAP2 POP POP JUMP JUMPDEST PUSH1 0x0 DUP2 SWAP1 POP SWAP2 SWAP1 POP JUMP JUMPDEST PUSH1 0x0 DUP2 SWAP1 POP SWAP2 SWAP1 POP JUMP JUMPDEST DUP3 DUP2 DUP4 CALLDATACOPY PUSH1 0x0 DUP4 DUP4 ADD MSTORE POP POP POP JUMP JUMPDEST PUSH1 0x0 JUMPDEST DUP4 DUP2 LT ISZERO PUSH2 0x14EA JUMPI DUP1 DUP3 ADD MLOAD DUP2 DUP5 ADD MSTORE PUSH1 0x20 DUP2 ADD SWAP1 POP PUSH2 0x14CF JUMP JUMPDEST DUP4 DUP2 GT ISZERO PUSH2 0x14F9 JUMPI PUSH1 0x0 DUP5 DUP5 ADD MSTORE JUMPDEST POP POP POP POP JUMP JUMPDEST PUSH1 0x0 PUSH1 0x2 DUP3 DIV SWAP1 POP PUSH1 0x1 DUP3 AND DUP1 PUSH2 0x1517 JUMPI PUSH1 0x7F DUP3 AND SWAP2 POP JUMPDEST PUSH1 0x20 DUP3 LT DUP2 EQ ISZERO PUSH2 0x152B JUMPI PUSH2 0x152A PUSH2 0x1562 JUMP JUMPDEST JUMPDEST POP SWAP2 SWAP1 POP JUMP JUMPDEST PUSH2 0x153A DUP3 PUSH2 0x15D4 JUMP JUMPDEST DUP2 ADD DUP2 DUP2 LT PUSH8 0xFFFFFFFFFFFFFFFF DUP3 GT OR ISZERO PUSH2 0x1559 JUMPI PUSH2 0x1558 PUSH2 0x1591 JUMP JUMPDEST JUMPDEST DUP1 PUSH1 0x40 MSTORE POP POP POP JUMP JUMPDEST PUSH32 0x4E487B7100000000000000000000000000000000000000000000000000000000 PUSH1 0x0 MSTORE PUSH1 0x22 PUSH1 0x4 MSTORE PUSH1 0x24 PUSH1 0x0 REVERT JUMPDEST PUSH32 0x4E487B7100000000000000000000000000000000000000000000000000000000 PUSH1 0x0 MSTORE PUSH1 0x41 PUSH1 0x4 MSTORE PUSH1 0x24 PUSH1 0x0 REVERT JUMPDEST PUSH1 0x0 DUP1 REVERT JUMPDEST PUSH1 0x0 DUP1 REVERT JUMPDEST PUSH1 0x0 DUP1 REVERT JUMPDEST PUSH1 0x0 DUP1 REVERT JUMPDEST PUSH1 0x0 PUSH1 0x1F NOT PUSH1 0x1F DUP4 ADD AND SWAP1 POP SWAP2 SWAP1 POP JUMP JUMPDEST PUSH32 0x4163636F756E7420616C7265616479206578697374696E670000000000000000 PUSH1 0x0 DUP3 ADD MSTORE POP JUMP JUMPDEST PUSH32 0x7375636365737300000000000000000000000000000000000000000000000000 PUSH1 0x0 DUP3 ADD MSTORE POP JUMP JUMPDEST PUSH2 0x1640 DUP2 PUSH2 0x14B3 JUMP JUMPDEST DUP2 EQ PUSH2 0x164B JUMPI PUSH1 0x0 DUP1 REVERT JUMPDEST POP JUMP INVALID LOG2 PUSH5 0x6970667358 0x22 SLT KECCAK256 0x2F 0x4E 0xFC SLOAD SELFDESTRUCT MSTORE 0xDA 0xD3 GASLIMIT 0xE6 SWAP1 MOD SHR 0xDF SLT INVALID LOG1 DUP11 SHR JUMP PUSH21 0x834501381104EA36F899A64736F6C634300080700 CALLER "
		},
		"gasEstimates": {
			"creation": {
				"codeDepositCost": "1152800",
				"executionCost": "1200",
				"totalCost": "1154000"
			},
			"external": {
				"add_account(string,string,string)": "infinite",
				"add_certificate(string,string,uint256)": "infinite",
				"add_transaction(string,string,bytes)": "infinite",
				"get_account(string)": "infinite",
				"get_certificate(string)": "infinite",
				"get_transaction(string)": "infinite"
			},
			"internal": {
				"account_checker(bytes32,string memory)": "infinite"
			}
		},
		"methodIdentifiers": {
			"add_account(string,string,string)": "b24c908a",
			"add_certificate(string,string,uint256)": "c3efbe38",
			"add_transaction(string,string,bytes)": "5b62132d",
			"get_account(string)": "174ba7ff",
			"get_certificate(string)": "b8428403",
			"get_transaction(string)": "ca5e208f"
		}
	},
	"abi": [
		{
			"anonymous": false,
			"inputs": [
				{
					"indexed": false,
					"internalType": "string",
					"name": "status",
					"type": "string"
				},
				{
					"indexed": false,
					"internalType": "bytes32",
					"name": "message",
					"type": "bytes32"
				}
			],
			"name": "success",
			"type": "event"
		},
		{
			"inputs": [
				{
					"internalType": "string",
					"name": "account_id",
					"type": "string"
				},
				{
					"internalType": "string",
					"name": "name",
					"type": "string"
				},
				{
					"internalType": "string",
					"name": "role",
					"type": "string"
				}
			],
			"name": "add_account",
			"outputs": [
				{
					"internalType": "bytes32",
					"name": "",
					"type": "bytes32"
				}
			],
			"stateMutability": "nonpayable",
			"type": "function"
		},
		{
			"inputs": [
				{
					"internalType": "string",
					"name": "umkm_id",
					"type": "string"
				},
				{
					"internalType": "string",
					"name": "cert_id",
					"type": "string"
				},
				{
					"internalType": "uint256",
					"name": "expired_at",
					"type": "uint256"
				}
			],
			"name": "add_certificate",
			"outputs": [
				{
					"internalType": "bytes32",
					"name": "",
					"type": "bytes32"
				}
			],
			"stateMutability": "nonpayable",
			"type": "function"
		},
		{
			"inputs": [
				{
					"internalType": "string",
					"name": "transaction_id",
					"type": "string"
				},
				{
					"internalType": "string",
					"name": "user_id",
					"type": "string"
				},
				{
					"internalType": "bytes",
					"name": "data",
					"type": "bytes"
				}
			],
			"name": "add_transaction",
			"outputs": [
				{
					"internalType": "bytes32",
					"name": "",
					"type": "bytes32"
				}
			],
			"stateMutability": "nonpayable",
			"type": "function"
		},
		{
			"inputs": [
				{
					"internalType": "string",
					"name": "account_id",
					"type": "string"
				}
			],
			"name": "get_account",
			"outputs": [
				{
					"components": [
						{
							"internalType": "string",
							"name": "account_id",
							"type": "string"
						},
						{
							"internalType": "string",
							"name": "name",
							"type": "string"
						},
						{
							"internalType": "string",
							"name": "role",
							"type": "string"
						},
						{
							"internalType": "uint256",
							"name": "created_at",
							"type": "uint256"
						}
					],
					"internalType": "struct Halal.accountData",
					"name": "",
					"type": "tuple"
				}
			],
			"stateMutability": "view",
			"type": "function"
		},
		{
			"inputs": [
				{
					"internalType": "string",
					"name": "umkm_id",
					"type": "string"
				}
			],
			"name": "get_certificate",
			"outputs": [
				{
					"components": [
						{
							"internalType": "string",
							"name": "umkm_id",
							"type": "string"
						},
						{
							"internalType": "string",
							"name": "certificate_id",
							"type": "string"
						},
						{
							"internalType": "uint256",
							"name": "created_at",
							"type": "uint256"
						},
						{
							"internalType": "uint256",
							"name": "expired_at",
							"type": "uint256"
						}
					],
					"internalType": "struct Halal.certificate",
					"name": "",
					"type": "tuple"
				}
			],
			"stateMutability": "view",
			"type": "function"
		},
		{
			"inputs": [
				{
					"internalType": "string",
					"name": "transaction_id",
					"type": "string"
				}
			],
			"name": "get_transaction",
			"outputs": [
				{
					"components": [
						{
							"internalType": "string",
							"name": "user_id",
							"type": "string"
						},
						{
							"internalType": "bytes",
							"name": "data",
							"type": "bytes"
						}
					],
					"internalType": "struct Halal.transaction",
					"name": "",
					"type": "tuple"
				}
			],
			"stateMutability": "view",
			"type": "function"
		}
	]
}