{
  "contractName": "Halal",
  "abi": [
    {
      "inputs": [],
      "stateMutability": "nonpayable",
      "type": "constructor"
    },
    {
      "anonymous": false,
      "inputs": [
        {
          "indexed": false,
          "internalType": "string",
          "name": "status",
          "type": "string"
        },
        {
          "indexed": false,
          "internalType": "bytes32",
          "name": "message",
          "type": "bytes32"
        }
      ],
      "name": "success",
      "type": "event"
    },
    {
      "inputs": [],
      "name": "owner",
      "outputs": [
        {
          "internalType": "address",
          "name": "",
          "type": "address"
        }
      ],
      "stateMutability": "view",
      "type": "function",
      "constant": true
    },
    {
      "inputs": [
        {
          "internalType": "string",
          "name": "account_id",
          "type": "string"
        },
        {
          "internalType": "string",
          "name": "name",
          "type": "string"
        },
        {
          "internalType": "string",
          "name": "role",
          "type": "string"
        }
      ],
      "name": "add_account",
      "outputs": [
        {
          "internalType": "bytes32",
          "name": "",
          "type": "bytes32"
        }
      ],
      "stateMutability": "nonpayable",
      "type": "function"
    },
    {
      "inputs": [
        {
          "internalType": "string",
          "name": "account_id",
          "type": "string"
        }
      ],
      "name": "get_account",
      "outputs": [
        {
          "components": [
            {
              "internalType": "string",
              "name": "account_id",
              "type": "string"
            },
            {
              "internalType": "string",
              "name": "name",
              "type": "string"
            },
            {
              "internalType": "string",
              "name": "role",
              "type": "string"
            },
            {
              "internalType": "uint256",
              "name": "created_at",
              "type": "uint256"
            }
          ],
          "internalType": "struct Halal.accountData",
          "name": "",
          "type": "tuple"
        }
      ],
      "stateMutability": "view",
      "type": "function",
      "constant": true
    },
    {
      "inputs": [
        {
          "internalType": "string",
          "name": "transaction_id",
          "type": "string"
        },
        {
          "internalType": "string",
          "name": "user_id",
          "type": "string"
        },
        {
          "internalType": "bytes",
          "name": "data",
          "type": "bytes"
        }
      ],
      "name": "add_transaction",
      "outputs": [
        {
          "internalType": "bytes32",
          "name": "",
          "type": "bytes32"
        }
      ],
      "stateMutability": "nonpayable",
      "type": "function"
    },
    {
      "inputs": [
        {
          "internalType": "string",
          "name": "transaction_id",
          "type": "string"
        }
      ],
      "name": "get_transaction",
      "outputs": [
        {
          "components": [
            {
              "internalType": "string",
              "name": "user_id",
              "type": "string"
            },
            {
              "internalType": "bytes",
              "name": "data",
              "type": "bytes"
            }
          ],
          "internalType": "struct Halal.transaction",
          "name": "",
          "type": "tuple"
        }
      ],
      "stateMutability": "view",
      "type": "function",
      "constant": true
    },
    {
      "inputs": [
        {
          "internalType": "string",
          "name": "umkm_id",
          "type": "string"
        },
        {
          "internalType": "string",
          "name": "cert_id",
          "type": "string"
        },
        {
          "internalType": "uint256",
          "name": "expired_at",
          "type": "uint256"
        }
      ],
      "name": "add_certificate",
      "outputs": [
        {
          "internalType": "bytes32",
          "name": "",
          "type": "bytes32"
        }
      ],
      "stateMutability": "nonpayable",
      "type": "function"
    },
    {
      "inputs": [
        {
          "internalType": "string",
          "name": "umkm_id",
          "type": "string"
        }
      ],
      "name": "get_certificate",
      "outputs": [
        {
          "components": [
            {
              "internalType": "string",
              "name": "umkm_id",
              "type": "string"
            },
            {
              "internalType": "string",
              "name": "certificate_id",
              "type": "string"
            },
            {
              "internalType": "uint256",
              "name": "created_at",
              "type": "uint256"
            },
            {
              "internalType": "uint256",
              "name": "expired_at",
              "type": "uint256"
            }
          ],
          "internalType": "struct Halal.certificate",
          "name": "",
          "type": "tuple"
        }
      ],
      "stateMutability": "view",
      "type": "function",
      "constant": true
    }
  ],
  "bytecode": "0x608060405234801561001057600080fd5b50336000806101000a81548173ffffffffffffffffffffffffffffffffffffffff021916908373ffffffffffffffffffffffffffffffffffffffff16021790555061173f806100606000396000f3fe608060405234801561001057600080fd5b506004361061007d5760003560e01c8063b24c908a1161005b578063b24c908a14610100578063b842840314610130578063c3efbe3814610160578063ca5e208f146101905761007d565b8063174ba7ff146100825780635b62132d146100b25780638da5cb5b146100e2575b600080fd5b61009c60048036038101906100979190610eba565b6101c0565b6040516100a99190611015565b60405180910390f35b6100cc60048036038101906100c791906110d8565b6103d9565b6040516100d99190611198565b60405180910390f35b6100ea6105a0565b6040516100f791906111f4565b60405180910390f35b61011a6004803603810190610115919061120f565b6105c4565b6040516101279190611198565b60405180910390f35b61014a60048036038101906101459190610eba565b6106e7565b6040516101579190611320565b60405180910390f35b61017a6004803603810190610175919061136e565b610878565b6040516101879190611198565b60405180910390f35b6101aa60048036038101906101a59190610eba565b610a67565b6040516101b79190611492565b60405180910390f35b6101c8610c53565b6000826040516020016101db91906114f0565b6040516020818303038152906040528051906020012090506001600082815260200190815260200160002060405180608001604052908160008201805461022190611536565b80601f016020809104026020016040519081016040528092919081815260200182805461024d90611536565b801561029a5780601f1061026f5761010080835404028352916020019161029a565b820191906000526020600020905b81548152906001019060200180831161027d57829003601f168201915b505050505081526020016001820180546102b390611536565b80601f01602080910402602001604051908101604052809291908181526020018280546102df90611536565b801561032c5780601f106103015761010080835404028352916020019161032c565b820191906000526020600020905b81548152906001019060200180831161030f57829003601f168201915b5050505050815260200160028201805461034590611536565b80601f016020809104026020016040519081016040528092919081815260200182805461037190611536565b80156103be5780601f10610393576101008083540402835291602001916103be565b820191906000526020600020905b8154815290600101906020018083116103a157829003601f168201915b50505050508152602001600382015481525050915050919050565b600080846040516020016103ed91906114f0565b60405160208183030381529060405280519060200120905060006002600083815260200190815260200160002060405180604001604052908160008201805461043590611536565b80601f016020809104026020016040519081016040528092919081815260200182805461046190611536565b80156104ae5780601f10610483576101008083540402835291602001916104ae565b820191906000526020600020905b81548152906001019060200180831161049157829003601f168201915b505050505081526020016001820180546104c790611536565b80601f01602080910402602001604051908101604052809291908181526020018280546104f390611536565b80156105405780601f1061051557610100808354040283529160200191610540565b820191906000526020600020905b81548152906001019060200180831161052357829003601f168201915b50505050508152505090508481600001819052508381602001819052507fc8922d91fbabbe8df5d667708c678575856a856a2a465ebd9626a40ab6a16f5f8260405161058c91906115c4565b60405180910390a181925050509392505050565b60008054906101000a900473ffffffffffffffffffffffffffffffffffffffff1681565b600080846040516020016105d891906114f0565b6040516020818303038152906040528051906020012090506105fa8186610be4565b610639576040517f08c379a00000000000000000000000000000000000000000000000000000000081526004016106309061163e565b60405180910390fd5b600060016000838152602001908152602001600020905085816000019080519060200190610668929190610c7b565b5084816001019080519060200190610681929190610c7b565b508381600201908051906020019061069a929190610c7b565b504281600301819055507fc8922d91fbabbe8df5d667708c678575856a856a2a465ebd9626a40ab6a16f5f826040516106d391906115c4565b60405180910390a181925050509392505050565b6106ef610d01565b60008260405160200161070291906114f0565b6040516020818303038152906040528051906020012090506003600082815260200190815260200160002060405180608001604052908160008201805461074890611536565b80601f016020809104026020016040519081016040528092919081815260200182805461077490611536565b80156107c15780601f10610796576101008083540402835291602001916107c1565b820191906000526020600020905b8154815290600101906020018083116107a457829003601f168201915b505050505081526020016001820180546107da90611536565b80601f016020809104026020016040519081016040528092919081815260200182805461080690611536565b80156108535780601f1061082857610100808354040283529160200191610853565b820191906000526020600020905b81548152906001019060200180831161083657829003601f168201915b5050505050815260200160028201548152602001600382015481525050915050919050565b6000808460405160200161088c91906114f0565b6040516020818303038152906040528051906020012090506000600360008381526020019081526020016000206040518060800160405290816000820180546108d490611536565b80601f016020809104026020016040519081016040528092919081815260200182805461090090611536565b801561094d5780601f106109225761010080835404028352916020019161094d565b820191906000526020600020905b81548152906001019060200180831161093057829003601f168201915b5050505050815260200160018201805461096690611536565b80601f016020809104026020016040519081016040528092919081815260200182805461099290611536565b80156109df5780601f106109b4576101008083540402835291602001916109df565b820191906000526020600020905b8154815290600101906020018083116109c257829003601f168201915b5050505050815260200160028201548152602001600382015481525050905085816000018190525084816020018190525042816040018181525050838160600181815250507fc8922d91fbabbe8df5d667708c678575856a856a2a465ebd9626a40ab6a16f5f82604051610a5391906115c4565b60405180910390a181925050509392505050565b610a6f610d29565b600082604051602001610a8291906114f0565b60405160208183030381529060405280519060200120905060026000828152602001908152602001600020604051806040016040529081600082018054610ac890611536565b80601f0160208091040260200160405190810160405280929190818152602001828054610af490611536565b8015610b415780601f10610b1657610100808354040283529160200191610b41565b820191906000526020600020905b815481529060010190602001808311610b2457829003601f168201915b50505050508152602001600182018054610b5a90611536565b80601f0160208091040260200160405190810160405280929190818152602001828054610b8690611536565b8015610bd35780601f10610ba857610100808354040283529160200191610bd3565b820191906000526020600020905b815481529060010190602001808311610bb657829003601f168201915b505050505081525050915050919050565b600081604051602001610bf791906114f0565b6040516020818303038152906040528051906020012060016000858152602001908152602001600020600001604051602001610c3391906116f2565b604051602081830303815290604052805190602001201415905092915050565b6040518060800160405280606081526020016060815260200160608152602001600081525090565b828054610c8790611536565b90600052602060002090601f016020900481019282610ca95760008555610cf0565b82601f10610cc257805160ff1916838001178555610cf0565b82800160010185558215610cf0579182015b82811115610cef578251825591602001919060010190610cd4565b5b509050610cfd9190610d43565b5090565b6040518060800160405280606081526020016060815260200160008152602001600081525090565b604051806040016040528060608152602001606081525090565b5b80821115610d5c576000816000905550600101610d44565b5090565b6000604051905090565b600080fd5b600080fd5b600080fd5b600080fd5b6000601f19601f8301169050919050565b7f4e487b7100000000000000000000000000000000000000000000000000000000600052604160045260246000fd5b610dc782610d7e565b810181811067ffffffffffffffff82111715610de657610de5610d8f565b5b80604052505050565b6000610df9610d60565b9050610e058282610dbe565b919050565b600067ffffffffffffffff821115610e2557610e24610d8f565b5b610e2e82610d7e565b9050602081019050919050565b82818337600083830152505050565b6000610e5d610e5884610e0a565b610def565b905082815260208101848484011115610e7957610e78610d79565b5b610e84848285610e3b565b509392505050565b600082601f830112610ea157610ea0610d74565b5b8135610eb1848260208601610e4a565b91505092915050565b600060208284031215610ed057610ecf610d6a565b5b600082013567ffffffffffffffff811115610eee57610eed610d6f565b5b610efa84828501610e8c565b91505092915050565b600081519050919050565b600082825260208201905092915050565b60005b83811015610f3d578082015181840152602081019050610f22565b83811115610f4c576000848401525b50505050565b6000610f5d82610f03565b610f678185610f0e565b9350610f77818560208601610f1f565b610f8081610d7e565b840191505092915050565b6000819050919050565b610f9e81610f8b565b82525050565b60006080830160008301518482036000860152610fc18282610f52565b91505060208301518482036020860152610fdb8282610f52565b91505060408301518482036040860152610ff58282610f52565b915050606083015161100a6060860182610f95565b508091505092915050565b6000602082019050818103600083015261102f8184610fa4565b905092915050565b600067ffffffffffffffff82111561105257611051610d8f565b5b61105b82610d7e565b9050602081019050919050565b600061107b61107684611037565b610def565b90508281526020810184848401111561109757611096610d79565b5b6110a2848285610e3b565b509392505050565b600082601f8301126110bf576110be610d74565b5b81356110cf848260208601611068565b91505092915050565b6000806000606084860312156110f1576110f0610d6a565b5b600084013567ffffffffffffffff81111561110f5761110e610d6f565b5b61111b86828701610e8c565b935050602084013567ffffffffffffffff81111561113c5761113b610d6f565b5b61114886828701610e8c565b925050604084013567ffffffffffffffff81111561116957611168610d6f565b5b611175868287016110aa565b9150509250925092565b6000819050919050565b6111928161117f565b82525050565b60006020820190506111ad6000830184611189565b92915050565b600073ffffffffffffffffffffffffffffffffffffffff82169050919050565b60006111de826111b3565b9050919050565b6111ee816111d3565b82525050565b600060208201905061120960008301846111e5565b92915050565b60008060006060848603121561122857611227610d6a565b5b600084013567ffffffffffffffff81111561124657611245610d6f565b5b61125286828701610e8c565b935050602084013567ffffffffffffffff81111561127357611272610d6f565b5b61127f86828701610e8c565b925050604084013567ffffffffffffffff8111156112a05761129f610d6f565b5b6112ac86828701610e8c565b9150509250925092565b600060808301600083015184820360008601526112d38282610f52565b915050602083015184820360208601526112ed8282610f52565b91505060408301516113026040860182610f95565b5060608301516113156060860182610f95565b508091505092915050565b6000602082019050818103600083015261133a81846112b6565b905092915050565b61134b81610f8b565b811461135657600080fd5b50565b60008135905061136881611342565b92915050565b60008060006060848603121561138757611386610d6a565b5b600084013567ffffffffffffffff8111156113a5576113a4610d6f565b5b6113b186828701610e8c565b935050602084013567ffffffffffffffff8111156113d2576113d1610d6f565b5b6113de86828701610e8c565b92505060406113ef86828701611359565b9150509250925092565b600081519050919050565b600082825260208201905092915050565b6000611420826113f9565b61142a8185611404565b935061143a818560208601610f1f565b61144381610d7e565b840191505092915050565b6000604083016000830151848203600086015261146b8282610f52565b915050602083015184820360208601526114858282611415565b9150508091505092915050565b600060208201905081810360008301526114ac818461144e565b905092915050565b600081905092915050565b60006114ca82610f03565b6114d481856114b4565b93506114e4818560208601610f1f565b80840191505092915050565b60006114fc82846114bf565b915081905092915050565b7f4e487b7100000000000000000000000000000000000000000000000000000000600052602260045260246000fd5b6000600282049050600182168061154e57607f821691505b60208210810361156157611560611507565b5b50919050565b600082825260208201905092915050565b7f7375636365737300000000000000000000000000000000000000000000000000600082015250565b60006115ae600783611567565b91506115b982611578565b602082019050919050565b600060408201905081810360008301526115dd816115a1565b90506115ec6020830184611189565b92915050565b7f4163636f756e7420616c7265616479206578697374696e670000000000000000600082015250565b6000611628601883611567565b9150611633826115f2565b602082019050919050565b600060208201905081810360008301526116578161161b565b9050919050565b60008190508160005260206000209050919050565b6000815461168081611536565b61168a81866114b4565b945060018216600081146116a557600181146116b6576116e9565b60ff198316865281860193506116e9565b6116bf8561165e565b60005b838110156116e1578154818901526001820191506020810190506116c2565b838801955050505b50505092915050565b60006116fe8284611673565b91508190509291505056fea2646970667358221220cc29e3c0651c01e76af70381487629870a62dc9fd2745b2b6ff2a2ffee3dbdb364736f6c634300080d0033",
  "immutableReferences": {},
  "source": "// SPDX-License-Identifier: GPL-3.0\n\npragma solidity ^0.8.0;\n\ncontract Halal{\n    event success(string status, bytes32 message);\n\n    address public owner;\n\n    struct accountData {\n        string account_id;\n        string name;\n        string role;\n        uint created_at;\n    }\n\n    mapping( bytes32 => accountData ) private mappingAccount; \n\n    struct transaction{\n        string user_id;\n        bytes data;\n    }\n\n    mapping (bytes32 => transaction) private mappingTransaction;\n\n    struct certificate{\n        string umkm_id;\n        string certificate_id;\n        uint created_at;\n        uint expired_at;\n    }\n\n    mapping (bytes32 => certificate) private mappingCertificate;\n\n    constructor(){\n        owner = msg.sender;\n    }\n\n    function account_checker(bytes32 id, string memory umkm_id) private view returns(bool){\n        return keccak256(abi.encodePacked(mappingAccount[id].account_id)) != keccak256(abi.encodePacked(umkm_id));\n    }\n\n    function add_account(\n        string memory account_id,\n        string memory name,\n        string memory role\n    ) external returns(bytes32){\n        bytes32 id = keccak256(abi.encodePacked(account_id));\n        require(account_checker(id, account_id), \"Account already existing\");\n        accountData storage acc = mappingAccount[id];\n        acc.account_id = account_id;\n        acc.name = name;\n        acc.role = role;\n        acc.created_at = block.timestamp;\n        emit success(\"success\", id);\n        return id;\n    }\n\n    function get_account(string memory account_id) public view returns(accountData memory){\n        bytes32 id = keccak256(abi.encodePacked(account_id));\n        return mappingAccount[id];\n    }\n\n    function add_transaction(\n        string memory transaction_id,\n        string memory user_id,\n        bytes memory data\n    ) external returns(bytes32) {\n        bytes32 id = keccak256(abi.encodePacked(transaction_id));\n        transaction memory trans = mappingTransaction[id];\n        trans.user_id = user_id;\n        trans.data = data;\n        emit success(\"success\", id);\n        return id;\n    }\n\n    function get_transaction(string memory transaction_id) external view returns(transaction memory){\n        bytes32 id = keccak256(abi.encodePacked(transaction_id));\n        return mappingTransaction[id]; \n    }\n\n    function add_certificate(string memory umkm_id, string memory cert_id, uint expired_at) external returns(bytes32){\n        bytes32 id = keccak256(abi.encodePacked(umkm_id));\n        certificate memory cert = mappingCertificate[id];\n        cert.umkm_id = umkm_id;\n        cert.certificate_id = cert_id;\n        cert.created_at = block.timestamp;\n        cert.expired_at = expired_at;\n        emit success(\"success\", id);\n        return id;\n    }\n\n    function get_certificate(string memory umkm_id) external view returns(certificate memory){\n        bytes32 id = keccak256(abi.encodePacked(umkm_id));\n        return mappingCertificate[id];\n    }\n\n}",
  "sourcePath": "/Users/alienpdev/Workspace/ETHClient/contracts/Halal.sol",
  "compiler": {
    "name": "solc",
    "version": "0.8.13+commit.abaa5c0e.Emscripten.clang"
  },
  "schemaVersion": "3.4.9",
  "updatedAt": "2022-09-12T07:34:15.893Z",
  "networkType": "ethereum",
  "devdoc": {
    "kind": "dev",
    "methods": {},
    "version": 1
  },
  "userdoc": {
    "kind": "user",
    "methods": {},
    "version": 1
  }
}